{
  "contractName": "Betting",
  "abi": [
    {
      "constant": true,
      "inputs": [
        {
          "name": "",
          "type": "uint256"
        }
      ],
      "name": "playerOnFailure",
      "outputs": [
        {
          "name": "",
          "type": "address"
        }
      ],
      "payable": false,
      "stateMutability": "view",
      "type": "function"
    },
    {
      "constant": true,
      "inputs": [],
      "name": "betAmountFailure",
      "outputs": [
        {
          "name": "",
          "type": "uint256"
        }
      ],
      "payable": false,
      "stateMutability": "view",
      "type": "function"
    },
    {
      "constant": true,
      "inputs": [],
      "name": "nft",
      "outputs": [
        {
          "name": "",
          "type": "address"
        }
      ],
      "payable": false,
      "stateMutability": "view",
      "type": "function"
    },
    {
      "constant": true,
      "inputs": [
        {
          "name": "",
          "type": "address"
        }
      ],
      "name": "playerInfo",
      "outputs": [
        {
          "name": "amount",
          "type": "uint256"
        },
        {
          "name": "side",
          "type": "bool"
        }
      ],
      "payable": false,
      "stateMutability": "view",
      "type": "function"
    },
    {
      "constant": true,
      "inputs": [
        {
          "name": "",
          "type": "uint256"
        }
      ],
      "name": "playerOnSuccees",
      "outputs": [
        {
          "name": "",
          "type": "address"
        }
      ],
      "payable": false,
      "stateMutability": "view",
      "type": "function"
    },
    {
      "constant": true,
      "inputs": [],
      "name": "startTime",
      "outputs": [
        {
          "name": "",
          "type": "uint256"
        }
      ],
      "payable": false,
      "stateMutability": "view",
      "type": "function"
    },
    {
      "constant": true,
      "inputs": [],
      "name": "betAmountSuccees",
      "outputs": [
        {
          "name": "",
          "type": "uint256"
        }
      ],
      "payable": false,
      "stateMutability": "view",
      "type": "function"
    },
    {
      "constant": true,
      "inputs": [],
      "name": "token",
      "outputs": [
        {
          "name": "",
          "type": "address"
        }
      ],
      "payable": false,
      "stateMutability": "view",
      "type": "function"
    },
    {
      "inputs": [
        {
          "name": "_NFTAddress",
          "type": "address"
        },
        {
          "name": "_tokenAddress",
          "type": "address"
        }
      ],
      "payable": false,
      "stateMutability": "nonpayable",
      "type": "constructor"
    },
    {
      "constant": false,
      "inputs": [
        {
          "name": "_amount",
          "type": "uint256"
        },
        {
          "name": "_side",
          "type": "bool"
        }
      ],
      "name": "bet",
      "outputs": [],
      "payable": false,
      "stateMutability": "nonpayable",
      "type": "function"
    },
    {
      "constant": false,
      "inputs": [
        {
          "name": "_token1Id",
          "type": "uint256"
        },
        {
          "name": "_token2Id",
          "type": "uint256"
        }
      ],
      "name": "distribution",
      "outputs": [],
      "payable": false,
      "stateMutability": "nonpayable",
      "type": "function"
    },
    {
      "constant": true,
      "inputs": [
        {
          "name": "_player",
          "type": "address"
        }
      ],
      "name": "calculateRewardSuccees",
      "outputs": [
        {
          "name": "",
          "type": "uint256"
        }
      ],
      "payable": false,
      "stateMutability": "view",
      "type": "function"
    },
    {
      "constant": true,
      "inputs": [
        {
          "name": "_player",
          "type": "address"
        }
      ],
      "name": "calculateRewardFailure",
      "outputs": [
        {
          "name": "",
          "type": "uint256"
        }
      ],
      "payable": false,
      "stateMutability": "view",
      "type": "function"
    },
    {
      "constant": true,
      "inputs": [],
      "name": "getPlayerSuccees",
      "outputs": [
        {
          "name": "",
          "type": "address[]"
        }
      ],
      "payable": false,
      "stateMutability": "view",
      "type": "function"
    },
    {
      "constant": true,
      "inputs": [],
      "name": "getPlayerFailure",
      "outputs": [
        {
          "name": "",
          "type": "address[]"
        }
      ],
      "payable": false,
      "stateMutability": "view",
      "type": "function"
    },
    {
      "constant": true,
      "inputs": [],
      "name": "amountForSuccees",
      "outputs": [
        {
          "name": "amount",
          "type": "uint256"
        }
      ],
      "payable": false,
      "stateMutability": "view",
      "type": "function"
    },
    {
      "constant": true,
      "inputs": [],
      "name": "amountForFailure",
      "outputs": [
        {
          "name": "amount",
          "type": "uint256"
        }
      ],
      "payable": false,
      "stateMutability": "view",
      "type": "function"
    }
  ],
  "bytecode": "0x608060405234801561001057600080fd5b506040516040806114978339810180604052604081101561003057600080fd5b810190808051906020019092919080519060200190929190505050816000806101000a81548173ffffffffffffffffffffffffffffffffffffffff021916908373ffffffffffffffffffffffffffffffffffffffff16021790555080600460006101000a81548173ffffffffffffffffffffffffffffffffffffffff021916908373ffffffffffffffffffffffffffffffffffffffff1602179055504260058190555050506113b3806100e46000396000f3fe608060405234801561001057600080fd5b50600436106100ff5760003560e01c80636850a580116100975780639e62c8f3116100665780639e62c8f314610455578063b00a7cf614610473578063daa9b281146104ab578063fc0c546a14610503576100ff565b80636850a5801461033757806378e97925146103a55780639a6ae954146103c35780639a6d3aaa1461041b576100ff565b8063450ace46116100d3578063450ace46146101cc57806347ccca021461022b5780634b114691146102755780634d594ac5146102d8576100ff565b806258c42b1461010457806331d501e51461017257806344469cd8146101905780634483c50e146101ae575b600080fd5b6101306004803603602081101561011a57600080fd5b810190808035906020019092919050505061054d565b604051808273ffffffffffffffffffffffffffffffffffffffff1673ffffffffffffffffffffffffffffffffffffffff16815260200191505060405180910390f35b61017a610589565b6040518082815260200191505060405180910390f35b610198610593565b6040518082815260200191505060405180910390f35b6101b661059d565b6040518082815260200191505060405180910390f35b6101d46105a3565b6040518080602001828103825283818151815260200191508051906020019060200280838360005b838110156102175780820151818401526020810190506101fc565b505050509050019250505060405180910390f35b610233610631565b604051808273ffffffffffffffffffffffffffffffffffffffff1673ffffffffffffffffffffffffffffffffffffffff16815260200191505060405180910390f35b6102b76004803603602081101561028b57600080fd5b81019080803573ffffffffffffffffffffffffffffffffffffffff169060200190929190505050610656565b60405180838152602001821515151581526020019250505060405180910390f35b6102e0610687565b6040518080602001828103825283818151815260200191508051906020019060200280838360005b83811015610323578082015181840152602081019050610308565b505050509050019250505060405180910390f35b6103636004803603602081101561034d57600080fd5b8101908080359060200190929190505050610715565b604051808273ffffffffffffffffffffffffffffffffffffffff1673ffffffffffffffffffffffffffffffffffffffff16815260200191505060405180910390f35b6103ad610751565b6040518082815260200191505060405180910390f35b610405600480360360208110156103d957600080fd5b81019080803573ffffffffffffffffffffffffffffffffffffffff169060200190929190505050610757565b6040518082815260200191505060405180910390f35b6104536004803603604081101561043157600080fd5b8101908080359060200190929190803515159060200190929190505050610814565b005b61045d610b80565b6040518082815260200191505060405180910390f35b6104a96004803603604081101561048957600080fd5b810190808035906020019092919080359060200190929190505050610b86565b005b6104ed600480360360208110156104c157600080fd5b81019080803573ffffffffffffffffffffffffffffffffffffffff16906020019092919050505061101f565b6040518082815260200191505060405180910390f35b61050b6110dc565b604051808273ffffffffffffffffffffffffffffffffffffffff1673ffffffffffffffffffffffffffffffffffffffff16815260200191505060405180910390f35b6002818154811061055a57fe5b906000526020600020016000915054906101000a900473ffffffffffffffffffffffffffffffffffffffff1681565b6000600654905090565b6000600754905090565b60075481565b6060600280548060200260200160405190810160405280929190818152602001828054801561062757602002820191906000526020600020905b8160009054906101000a900473ffffffffffffffffffffffffffffffffffffffff1673ffffffffffffffffffffffffffffffffffffffff16815260200190600101908083116105dd575b5050505050905090565b6000809054906101000a900473ffffffffffffffffffffffffffffffffffffffff1681565b60036020528060005260406000206000915090508060000154908060010160009054906101000a900460ff16905082565b6060600180548060200260200160405190810160405280929190818152602001828054801561070b57602002820191906000526020600020905b8160009054906101000a900473ffffffffffffffffffffffffffffffffffffffff1673ffffffffffffffffffffffffffffffffffffffff16815260200190600101908083116106c1575b5050505050905090565b6001818154811061072257fe5b906000526020600020016000915054906101000a900473ffffffffffffffffffffffffffffffffffffffff1681565b60055481565b600080600360008473ffffffffffffffffffffffffffffffffffffffff1673ffffffffffffffffffffffffffffffffffffffff16815260200190815260200160002060000154905060006107c96006546107bb60648561110290919063ffffffff16565b61118890919063ffffffff16565b905060006108076107f860646107ea8560075461110290919063ffffffff16565b61118890919063ffffffff16565b846111d290919063ffffffff16565b9050809350505050919050565b4261082c6104b06005546111d290919063ffffffff16565b1161089f576040517f08c379a00000000000000000000000000000000000000000000000000000000081526004018080602001828103825260158152602001807f74696d65206f76657220746f2062657474696e6721000000000000000000000081525060200191505060405180910390fd5b600460009054906101000a900473ffffffffffffffffffffffffffffffffffffffff1673ffffffffffffffffffffffffffffffffffffffff166323b872dd3330856040518463ffffffff1660e01b8152600401808473ffffffffffffffffffffffffffffffffffffffff1673ffffffffffffffffffffffffffffffffffffffff1681526020018373ffffffffffffffffffffffffffffffffffffffff1673ffffffffffffffffffffffffffffffffffffffff1681526020018281526020019350505050602060405180830381600087803b15801561097c57600080fd5b505af1158015610990573d6000803e3d6000fd5b505050506040513d60208110156109a657600080fd5b81019080805190602001909291905050505081600360003373ffffffffffffffffffffffffffffffffffffffff1673ffffffffffffffffffffffffffffffffffffffff1681526020019081526020016000206000018190555080600360003373ffffffffffffffffffffffffffffffffffffffff1673ffffffffffffffffffffffffffffffffffffffff16815260200190815260200160002060010160006101000a81548160ff021916908315150217905550600115158115151415610aec57610a7b826006546111d290919063ffffffff16565b60068190555060013390806001815401808255809150509060018203906000526020600020016000909192909190916101000a81548173ffffffffffffffffffffffffffffffffffffffff021916908373ffffffffffffffffffffffffffffffffffffffff16021790555050610b7c565b600015158115151415610b7b57610b0e826007546111d290919063ffffffff16565b60078190555060023390806001815401808255809150509060018203906000526020600020016000909192909190916101000a81548173ffffffffffffffffffffffffffffffffffffffff021916908373ffffffffffffffffffffffffffffffffffffffff160217905550505b5b5050565b60065481565b42610b9d601e6005546111d290919063ffffffff16565b10610c10576040517f08c379a00000000000000000000000000000000000000000000000000000000081526004018080602001828103825260178152602001807f62657474696e6720697320696e2070726f67726573732100000000000000000081525060200191505060405180910390fd5b60008060009054906101000a900473ffffffffffffffffffffffffffffffffffffffff1673ffffffffffffffffffffffffffffffffffffffff1663d840e2b684846040518363ffffffff1660e01b8152600401808381526020018281526020019250505060206040518083038186803b158015610c8c57600080fd5b505afa158015610ca0573d6000803e3d6000fd5b505050506040513d6020811015610cb657600080fd5b81019080805190602001909291905050509050600115158115151415610e5d5760008090505b600180549050811015610e57576000610d2b60018381548110610cfb57fe5b9060005260206000200160009054906101000a900473ffffffffffffffffffffffffffffffffffffffff16610757565b9050600460009054906101000a900473ffffffffffffffffffffffffffffffffffffffff1673ffffffffffffffffffffffffffffffffffffffff1663a9059cbb60018481548110610d7857fe5b9060005260206000200160009054906101000a900473ffffffffffffffffffffffffffffffffffffffff16836040518363ffffffff1660e01b8152600401808373ffffffffffffffffffffffffffffffffffffffff1673ffffffffffffffffffffffffffffffffffffffff16815260200182815260200192505050602060405180830381600087803b158015610e0d57600080fd5b505af1158015610e21573d6000803e3d6000fd5b505050506040513d6020811015610e3757600080fd5b810190808051906020019092919050505050508080600101915050610cdc565b5061101a565b6000151581151514156110195760008090505b600280549050811015610feb576000610ebf60028381548110610e8f57fe5b9060005260206000200160009054906101000a900473ffffffffffffffffffffffffffffffffffffffff1661101f565b9050600460009054906101000a900473ffffffffffffffffffffffffffffffffffffffff1673ffffffffffffffffffffffffffffffffffffffff1663a9059cbb60028481548110610f0c57fe5b9060005260206000200160009054906101000a900473ffffffffffffffffffffffffffffffffffffffff16836040518363ffffffff1660e01b8152600401808373ffffffffffffffffffffffffffffffffffffffff1673ffffffffffffffffffffffffffffffffffffffff16815260200182815260200192505050602060405180830381600087803b158015610fa157600080fd5b505af1158015610fb5573d6000803e3d6000fd5b505050506040513d6020811015610fcb57600080fd5b810190808051906020019092919050505050508080600101915050610e70565b5060016000610ffa9190611320565b600260006110089190611320565b600060068190555060006007819055505b5b505050565b600080600360008473ffffffffffffffffffffffffffffffffffffffff1673ffffffffffffffffffffffffffffffffffffffff168152602001908152602001600020600001549050600061109160075461108360648561110290919063ffffffff16565b61118890919063ffffffff16565b905060006110cf6110c060646110b28560065461110290919063ffffffff16565b61118890919063ffffffff16565b846111d290919063ffffffff16565b9050809350505050919050565b600460009054906101000a900473ffffffffffffffffffffffffffffffffffffffff1681565b6000808314156111155760009050611182565b600082840290508284828161112657fe5b041461117d576040517f08c379a00000000000000000000000000000000000000000000000000000000081526004018080602001828103825260218152602001806113676021913960400191505060405180910390fd5b809150505b92915050565b60006111ca83836040518060400160405280601a81526020017f536166654d6174683a206469766973696f6e206279207a65726f00000000000081525061125a565b905092915050565b600080828401905083811015611250576040517f08c379a000000000000000000000000000000000000000000000000000000000815260040180806020018281038252601b8152602001807f536166654d6174683a206164646974696f6e206f766572666c6f77000000000081525060200191505060405180910390fd5b8091505092915050565b60008083118290611306576040517f08c379a00000000000000000000000000000000000000000000000000000000081526004018080602001828103825283818151815260200191508051906020019080838360005b838110156112cb5780820151818401526020810190506112b0565b50505050905090810190601f1680156112f85780820380516001836020036101000a031916815260200191505b509250505060405180910390fd5b50600083858161131257fe5b049050809150509392505050565b508054600082559060005260206000209081019061133e9190611341565b50565b61136391905b8082111561135f576000816000905550600101611347565b5090565b9056fe536166654d6174683a206d756c7469706c69636174696f6e206f766572666c6f77a165627a7a7230582057e7a732f29a550cdf6ff82b87c307f5d46c1eb8d4448411227aebd5d4990b3d0029",
  "source": "pragma solidity ^0.5.6;\n\nimport \"@klaytn/contracts/token/KIP7/KIP7.sol\";\nimport \"@klaytn/contracts/math/SafeMath.sol\";\nimport \"./NFT.sol\";\n\ncontract Betting {\n\n    using SafeMath for uint256;\n\n    NFT public nft;\n\n    struct betInfo {\n        uint256 amount;\n        bool side;\n    }\n\n    // iteration을 위한 배열 선언\n    address[] public playerOnSuccees;\n    address[] public playerOnFailure;\n\n    mapping(address => betInfo) public playerInfo;\n\n    address public token; // uru토큰\n    uint256 public startTime; // 베팅 시간제한 두기 위해서\n    uint256 public betAmountSuccees; // 성공에 걸린 베팅총액\n    uint256 public betAmountFailure; // 실패에 걸린 베팅총액\n\n    constructor (NFT _NFTAddress, address _tokenAddress) public {\n        nft = _NFTAddress;\n        token = _tokenAddress;\n        startTime = block.timestamp;\n    }\n\n    function bet(uint256 _amount, bool _side ) public {\n        require(startTime.add(1200) > block.timestamp, \"time over to betting!\");\n        \n        // approve 필요!\n        KIP7(token).transferFrom(msg.sender, address(this), _amount);\n\n        playerInfo[msg.sender].amount = _amount;\n        playerInfo[msg.sender].side = _side;\n\n        if (_side == true) {\n            betAmountSuccees = betAmountSuccees.add(_amount);\n            playerOnSuccees.push(msg.sender);\n        } else if (_side == false) {\n            betAmountFailure = betAmountFailure.add(_amount);\n            playerOnFailure.push(msg.sender);\n        }\n    }\n\n    function distribution(uint256 _token1Id, uint256 _token2Id) public {\n        require(startTime.add(30) < block.timestamp, \"betting is in progress!\");\n\n        bool betResult = nft.getCompoundResult(_token1Id, _token2Id);\n\n        if (betResult == true) {\n            for (uint256 i = 0; i < playerOnSuccees.length; i++) {\n                uint256 reward = calculateRewardSuccees(playerOnSuccees[i]);\n                KIP7(token).transfer(playerOnSuccees[i], reward);\n            }\n        } else if (betResult == false) {\n            for (uint256 i = 0; i < playerOnFailure.length; i++) {\n                uint256 reward = calculateRewardFailure(playerOnFailure[i]);\n                KIP7(token).transfer(playerOnFailure[i], reward);\n        }\n        // 관련 항목 초기화;\n        delete playerOnSuccees;\n        delete playerOnFailure;\n        betAmountSuccees = 0;\n        betAmountFailure = 0;\n    }\n\n    }\n    // assist function\n\n    // '성공'에 베팅시 보상 계산\n    function calculateRewardSuccees(address _player) public view returns (uint256) {\n        uint256 amount = playerInfo[_player].amount;\n        uint256 portion = amount.mul(100).div(betAmountSuccees);\n        uint256 reward = amount.add(betAmountFailure.mul(portion).div(100));\n        return reward;\n    }\n\n    \n    function calculateRewardFailure(address _player) public view returns (uint256) {\n        uint256 amount = playerInfo[_player].amount;\n        uint256 portion = amount.mul(100).div(betAmountFailure);\n        uint256 reward = amount.add(betAmountSuccees.mul(portion).div(100));\n        return reward;\n    }\n\n\n    // 참여자 목록 \n    function getPlayerSuccees() public view returns (address[] memory) {\n        return playerOnSuccees;\n    }\n\n    function getPlayerFailure() public view returns (address[] memory) {\n        return playerOnFailure;\n    }\n\n    // 각 결과에 걸린 베팅 총액\n    function amountForSuccees() public view returns (uint256 amount) {\n        return betAmountSuccees;\n    }\n    \n    function amountForFailure() public view returns (uint256 amount) {\n        return betAmountFailure;\n    }\n\n    // 배당률 계산\n    // function oddsForSuccees() public view returns (uint256 odds) {\n\n    // }\n\n    // function oddsForFailure() public view returns (uint256 odds) {\n\n    // }\n\n}",
  "sourcePath": "/Users/baekdonghyun/Desktop/beb-03-DND/contract/contracts/Betting.sol",
  "compiler": {
    "name": "solc",
    "version": "0.5.6+commit.b259423e.Emscripten.clang"
  },
  "schemaVersion": "3.4.5",
  "updatedAt": "2022-05-23T12:41:23.350Z",
  "networkType": "ethereum",
  "devdoc": {
    "methods": {}
  },
  "userdoc": {
    "methods": {}
  }
}