{
  "contractName": "Betting",
  "abi": [
    {
      "constant": true,
      "inputs": [
        {
          "name": "",
          "type": "uint256"
        }
      ],
      "name": "playerOnFailure",
      "outputs": [
        {
          "name": "",
          "type": "address"
        }
      ],
      "payable": false,
      "stateMutability": "view",
      "type": "function"
    },
    {
      "constant": true,
      "inputs": [],
      "name": "count",
      "outputs": [
        {
          "name": "",
          "type": "uint256"
        }
      ],
      "payable": false,
      "stateMutability": "view",
      "type": "function"
    },
    {
      "constant": true,
      "inputs": [],
      "name": "betAmountFailure",
      "outputs": [
        {
          "name": "",
          "type": "uint256"
        }
      ],
      "payable": false,
      "stateMutability": "view",
      "type": "function"
    },
    {
      "constant": true,
      "inputs": [],
      "name": "nft",
      "outputs": [
        {
          "name": "",
          "type": "address"
        }
      ],
      "payable": false,
      "stateMutability": "view",
      "type": "function"
    },
    {
      "constant": true,
      "inputs": [
        {
          "name": "",
          "type": "uint256"
        }
      ],
      "name": "playerOnSuccees",
      "outputs": [
        {
          "name": "",
          "type": "address"
        }
      ],
      "payable": false,
      "stateMutability": "view",
      "type": "function"
    },
    {
      "constant": true,
      "inputs": [],
      "name": "startTime",
      "outputs": [
        {
          "name": "",
          "type": "uint256"
        }
      ],
      "payable": false,
      "stateMutability": "view",
      "type": "function"
    },
    {
      "constant": true,
      "inputs": [],
      "name": "betAmountSuccees",
      "outputs": [
        {
          "name": "",
          "type": "uint256"
        }
      ],
      "payable": false,
      "stateMutability": "view",
      "type": "function"
    },
    {
      "constant": true,
      "inputs": [
        {
          "name": "",
          "type": "uint256"
        }
      ],
      "name": "tokenInfo",
      "outputs": [
        {
          "name": "token1Id",
          "type": "uint256"
        },
        {
          "name": "token2Id",
          "type": "uint256"
        }
      ],
      "payable": false,
      "stateMutability": "view",
      "type": "function"
    },
    {
      "constant": true,
      "inputs": [
        {
          "name": "",
          "type": "uint256"
        }
      ],
      "name": "tokenPairList",
      "outputs": [
        {
          "name": "",
          "type": "address"
        }
      ],
      "payable": false,
      "stateMutability": "view",
      "type": "function"
    },
    {
      "constant": true,
      "inputs": [
        {
          "name": "",
          "type": "uint256"
        },
        {
          "name": "",
          "type": "address"
        }
      ],
      "name": "playerInfo",
      "outputs": [
        {
          "name": "amount",
          "type": "uint256"
        },
        {
          "name": "side",
          "type": "bool"
        }
      ],
      "payable": false,
      "stateMutability": "view",
      "type": "function"
    },
    {
      "constant": true,
      "inputs": [],
      "name": "token",
      "outputs": [
        {
          "name": "",
          "type": "address"
        }
      ],
      "payable": false,
      "stateMutability": "view",
      "type": "function"
    },
    {
      "inputs": [
        {
          "name": "_NFTAddress",
          "type": "address"
        },
        {
          "name": "_tokenAddress",
          "type": "address"
        }
      ],
      "payable": false,
      "stateMutability": "nonpayable",
      "type": "constructor"
    },
    {
      "constant": false,
      "inputs": [
        {
          "name": "_token1Id",
          "type": "uint256"
        },
        {
          "name": "_token2Id",
          "type": "uint256"
        }
      ],
      "name": "createBet",
      "outputs": [
        {
          "name": "",
          "type": "uint256"
        }
      ],
      "payable": false,
      "stateMutability": "nonpayable",
      "type": "function"
    },
    {
      "constant": false,
      "inputs": [
        {
          "name": "_amount",
          "type": "uint256"
        },
        {
          "name": "_side",
          "type": "bool"
        },
        {
          "name": "_betId",
          "type": "uint256"
        }
      ],
      "name": "bet",
      "outputs": [],
      "payable": false,
      "stateMutability": "nonpayable",
      "type": "function"
    }
  ],
  "bytecode": "0x60806040526000600a5534801561001557600080fd5b50604051604080610a548339810180604052604081101561003557600080fd5b810190808051906020019092919080519060200190929190505050816000806101000a81548173ffffffffffffffffffffffffffffffffffffffff021916908373ffffffffffffffffffffffffffffffffffffffff16021790555080600660006101000a81548173ffffffffffffffffffffffffffffffffffffffff021916908373ffffffffffffffffffffffffffffffffffffffff16021790555042600781905550505061096b806100e96000396000f3fe608060405234801561001057600080fd5b50600436106100ce5760003560e01c80638decaec01161008c578063e1ed396b11610066578063e1ed396b146102fe578063edc67eb61461036c578063fc0c546a146103d9578063fff058e614610423576100ce565b80638decaec0146102535780639e62c8f314610297578063cc33c875146102b5576100ce565b806258c42b146100d357806306661abd146101415780634483c50e1461015f57806347ccca021461017d5780636850a580146101c757806378e9792514610235575b600080fd5b6100ff600480360360208110156100e957600080fd5b810190808035906020019092919050505061046f565b604051808273ffffffffffffffffffffffffffffffffffffffff1673ffffffffffffffffffffffffffffffffffffffff16815260200191505060405180910390f35b6101496104ab565b6040518082815260200191505060405180910390f35b6101676104b1565b6040518082815260200191505060405180910390f35b6101856104b7565b604051808273ffffffffffffffffffffffffffffffffffffffff1673ffffffffffffffffffffffffffffffffffffffff16815260200191505060405180910390f35b6101f3600480360360208110156101dd57600080fd5b81019080803590602001909291905050506104dc565b604051808273ffffffffffffffffffffffffffffffffffffffff1673ffffffffffffffffffffffffffffffffffffffff16815260200191505060405180910390f35b61023d610518565b6040518082815260200191505060405180910390f35b6102956004803603606081101561026957600080fd5b81019080803590602001909291908035151590602001909291908035906020019092919050505061051e565b005b61029f61078a565b6040518082815260200191505060405180910390f35b6102e1600480360360208110156102cb57600080fd5b8101908080359060200190929190505050610790565b604051808381526020018281526020019250505060405180910390f35b61032a6004803603602081101561031457600080fd5b81019080803590602001909291905050506107b4565b604051808273ffffffffffffffffffffffffffffffffffffffff1673ffffffffffffffffffffffffffffffffffffffff16815260200191505060405180910390f35b6103b86004803603604081101561038257600080fd5b8101908080359060200190929190803573ffffffffffffffffffffffffffffffffffffffff1690602001909291905050506107f0565b60405180838152602001821515151581526020019250505060405180910390f35b6103e161082e565b604051808273ffffffffffffffffffffffffffffffffffffffff1673ffffffffffffffffffffffffffffffffffffffff16815260200191505060405180910390f35b6104596004803603604081101561043957600080fd5b810190808035906020019092919080359060200190929190505050610854565b6040518082815260200191505060405180910390f35b6002818154811061047c57fe5b906000526020600020016000915054906101000a900473ffffffffffffffffffffffffffffffffffffffff1681565b600a5481565b60095481565b6000809054906101000a900473ffffffffffffffffffffffffffffffffffffffff1681565b600181815481106104e957fe5b906000526020600020016000915054906101000a900473ffffffffffffffffffffffffffffffffffffffff1681565b60075481565b426105366104b06007546108b790919063ffffffff16565b116105a9576040517f08c379a00000000000000000000000000000000000000000000000000000000081526004018080602001828103825260158152602001807f74696d65206f76657220746f2062657474696e6721000000000000000000000081525060200191505060405180910390fd5b600660009054906101000a900473ffffffffffffffffffffffffffffffffffffffff1673ffffffffffffffffffffffffffffffffffffffff166323b872dd3330866040518463ffffffff1660e01b8152600401808473ffffffffffffffffffffffffffffffffffffffff1673ffffffffffffffffffffffffffffffffffffffff1681526020018373ffffffffffffffffffffffffffffffffffffffff1673ffffffffffffffffffffffffffffffffffffffff1681526020018281526020019350505050602060405180830381600087803b15801561068657600080fd5b505af115801561069a573d6000803e3d6000fd5b505050506040513d60208110156106b057600080fd5b810190808051906020019092919050505050826004600083815260200190815260200160002060003373ffffffffffffffffffffffffffffffffffffffff1673ffffffffffffffffffffffffffffffffffffffff16815260200190815260200160002060000181905550816004600083815260200190815260200160002060003373ffffffffffffffffffffffffffffffffffffffff1673ffffffffffffffffffffffffffffffffffffffff16815260200190815260200160002060010160006101000a81548160ff021916908315150217905550505050565b60085481565b60056020528060005260406000206000915090508060000154908060010154905082565b600381815481106107c157fe5b906000526020600020016000915054906101000a900473ffffffffffffffffffffffffffffffffffffffff1681565b6004602052816000526040600020602052806000526040600020600091509150508060000154908060010160009054906101000a900460ff16905082565b600660009054906101000a900473ffffffffffffffffffffffffffffffffffffffff1681565b60008260056000600a548152602001908152602001600020600001819055508160056000600a548152602001908152602001600020600101819055506108a66001600a546108b790919063ffffffff16565b600a81905550600a54905092915050565b600080828401905083811015610935576040517f08c379a000000000000000000000000000000000000000000000000000000000815260040180806020018281038252601b8152602001807f536166654d6174683a206164646974696f6e206f766572666c6f77000000000081525060200191505060405180910390fd5b809150509291505056fea165627a7a7230582029e67ac54cabcb0a029e148e82c52e6681bb0660f54ec76eddbe48ed42a383c60029",
  "source": "pragma solidity ^0.5.6;\n\nimport \"@klaytn/contracts/token/KIP7/KIP7.sol\";\nimport \"@klaytn/contracts/math/SafeMath.sol\";\nimport \"./NFT.sol\";\n\ncontract Betting {\n\n    using SafeMath for uint256;\n\n    NFT public nft;\n\n    struct betInfo {\n        uint256 amount;\n        bool side;\n    }\n\n    struct tokenPair {\n        uint256 token1Id;\n        uint256 token2Id;\n    }\n\n    // iteration을 위한 배열 선언\n    address[] public playerOnSuccees;\n    address[] public playerOnFailure;\n    address[] public tokenPairList;\n\n    mapping(uint256 => mapping(address => betInfo)) public playerInfo;\n    mapping(uint256 => tokenPair) public tokenInfo;\n\n    address public token; // uru토큰\n    uint256 public startTime; // 베팅 시간제한 두기 위해서\n    uint256 public betAmountSuccees; // 성공에 걸린 베팅총액\n    uint256 public betAmountFailure; // 실패에 걸린 베팅총액\n\n    uint256 public count = 0;\n\n    constructor (NFT _NFTAddress, address _tokenAddress) public {\n        nft = _NFTAddress;\n        token = _tokenAddress;\n        startTime = block.timestamp;\n    }\n\n    function createBet(uint256 _token1Id, uint256 _token2Id) public returns (uint256) {\n        tokenInfo[count].token1Id = _token1Id;\n        tokenInfo[count].token2Id = _token2Id;\n        count = count.add(1);\n        return count;\n    }\n\n    function bet(uint256 _amount, bool _side, uint _betId) public {\n        require(startTime.add(1200) > block.timestamp, \"time over to betting!\");\n        \n        // approve 필요!\n        KIP7(token).transferFrom(msg.sender, address(this), _amount);\n\n        playerInfo[_betId][msg.sender].amount = _amount;\n        playerInfo[_betId][msg.sender].side = _side;\n\n        // if (_side == true) {\n        //     betAmountSuccees = betAmountSuccees.add(_amount);\n        //     playerOnSuccees.push(msg.sender);\n        // } else if (_side == false) {\n        //     betAmountFailure = betAmountFailure.add(_amount);\n        //     playerOnFailure.push(msg.sender);\n        // }\n    }\n\n    // function distribution(uint256 _token1Id, uint256 _token2Id) public {\n    //     require(startTime.add(30) < block.timestamp, \"betting is in progress!\");\n\n    //     bool betResult = nft.getCompoundResult(_token1Id, _token2Id);\n\n    //     if (betResult == true) {\n    //         for (uint256 i = 0; i < playerOnSuccees.length; i++) {\n    //             uint256 reward = calculateRewardSuccees(playerOnSuccees[i]);\n    //             KIP7(token).transfer(playerOnSuccees[i], reward);\n    //         }\n    //     } else if (betResult == false) {\n    //         for (uint256 i = 0; i < playerOnFailure.length; i++) {\n    //             uint256 reward = calculateRewardFailure(playerOnFailure[i]);\n    //             KIP7(token).transfer(playerOnFailure[i], reward);\n    //         }\n    //     }\n    //     betAmountSuccees = 0;\n    //     betAmountFailure = 0;\n    //     delete playerOnSuccees;\n    //     delete playerOnFailure;\n    // }\n\n    // assist function\n\n    // '성공'에 베팅시 보상 계산\n    // function calculateRewardSuccees(address _player) public view returns (uint256) {\n    //     uint256 amount = playerInfo[_player].amount;\n    //     uint256 portion = amount.mul(100).div(betAmountSuccees);\n    //     uint256 reward = amount.add(betAmountFailure.mul(portion).div(100));\n    //     return reward;\n    // }\n\n    \n    // function calculateRewardFailure(address _player) public view returns (uint256) {\n    //     uint256 amount = playerInfo[_player].amount;\n    //     uint256 portion = amount.mul(100).div(betAmountFailure);\n    //     uint256 reward = amount.add(betAmountSuccees.mul(portion).div(100));\n    //     return reward;\n    // }\n\n    // // 참여자 목록 \n    // function getPlayerSuccees() public view returns (address[] memory) {\n    //     return playerOnSuccees;\n    // }\n\n    // function getPlayerFailure() public view returns (address[] memory) {\n    //     return playerOnFailure;\n    // }\n\n    // // 각 결과에 걸린 베팅 총액\n    // function amountForSuccees() public view returns (uint256 amount) {\n    //     return betAmountSuccees;\n    // }\n    \n    // function amountForFailure() public view returns (uint256 amount) {\n    //     return betAmountFailure;\n    // }\n\n    // 배당률 계산\n    // function oddsForSuccees() public view returns (uint256 odds) {\n\n    // }\n\n    // function oddsForFailure() public view returns (uint256 odds) {\n\n    // }\n\n}",
  "sourcePath": "/Users/baekdonghyun/Desktop/beb-03-DND/contract/contracts/Betting.sol",
  "compiler": {
    "name": "solc",
    "version": "0.5.6+commit.b259423e.Emscripten.clang"
  },
  "schemaVersion": "3.4.5",
  "updatedAt": "2022-05-24T04:37:47.742Z",
  "networkType": "ethereum",
  "devdoc": {
    "methods": {}
  },
  "userdoc": {
    "methods": {}
  }
}