{
  "contractName": "Betting",
  "abi": [
    {
      "constant": true,
      "inputs": [
        {
          "name": "",
          "type": "uint256"
        }
      ],
      "name": "amountInfo",
      "outputs": [
        {
          "name": "betAmountSuccees",
          "type": "uint256"
        },
        {
          "name": "betAmountFailure",
          "type": "uint256"
        }
      ],
      "payable": false,
      "stateMutability": "view",
      "type": "function"
    },
    {
      "constant": true,
      "inputs": [],
      "name": "nft",
      "outputs": [
        {
          "name": "",
          "type": "address"
        }
      ],
      "payable": false,
      "stateMutability": "view",
      "type": "function"
    },
    {
      "constant": true,
      "inputs": [],
      "name": "startTime",
      "outputs": [
        {
          "name": "",
          "type": "uint256"
        }
      ],
      "payable": false,
      "stateMutability": "view",
      "type": "function"
    },
    {
      "constant": true,
      "inputs": [
        {
          "name": "",
          "type": "uint256"
        },
        {
          "name": "",
          "type": "uint256"
        }
      ],
      "name": "failureUserList",
      "outputs": [
        {
          "name": "",
          "type": "address"
        }
      ],
      "payable": false,
      "stateMutability": "view",
      "type": "function"
    },
    {
      "constant": true,
      "inputs": [
        {
          "name": "",
          "type": "uint256"
        },
        {
          "name": "",
          "type": "address"
        }
      ],
      "name": "userInfo",
      "outputs": [
        {
          "name": "amount",
          "type": "uint256"
        },
        {
          "name": "side",
          "type": "bool"
        },
        {
          "name": "isBet",
          "type": "bool"
        }
      ],
      "payable": false,
      "stateMutability": "view",
      "type": "function"
    },
    {
      "constant": true,
      "inputs": [
        {
          "name": "",
          "type": "uint256"
        },
        {
          "name": "",
          "type": "uint256"
        }
      ],
      "name": "succeesUserList",
      "outputs": [
        {
          "name": "",
          "type": "address"
        }
      ],
      "payable": false,
      "stateMutability": "view",
      "type": "function"
    },
    {
      "constant": true,
      "inputs": [
        {
          "name": "",
          "type": "uint256"
        }
      ],
      "name": "tokenInfo",
      "outputs": [
        {
          "name": "timeStamp",
          "type": "uint256"
        },
        {
          "name": "token1Id",
          "type": "uint256"
        },
        {
          "name": "token2Id",
          "type": "uint256"
        }
      ],
      "payable": false,
      "stateMutability": "view",
      "type": "function"
    },
    {
      "constant": true,
      "inputs": [],
      "name": "betNumber",
      "outputs": [
        {
          "name": "",
          "type": "uint256"
        }
      ],
      "payable": false,
      "stateMutability": "view",
      "type": "function"
    },
    {
      "constant": true,
      "inputs": [],
      "name": "token",
      "outputs": [
        {
          "name": "",
          "type": "address"
        }
      ],
      "payable": false,
      "stateMutability": "view",
      "type": "function"
    },
    {
      "inputs": [
        {
          "name": "_NFTAddress",
          "type": "address"
        },
        {
          "name": "_tokenAddress",
          "type": "address"
        }
      ],
      "payable": false,
      "stateMutability": "nonpayable",
      "type": "constructor"
    },
    {
      "constant": false,
      "inputs": [
        {
          "name": "_token1Id",
          "type": "uint256"
        },
        {
          "name": "_token2Id",
          "type": "uint256"
        }
      ],
      "name": "createBet",
      "outputs": [],
      "payable": false,
      "stateMutability": "nonpayable",
      "type": "function"
    },
    {
      "constant": false,
      "inputs": [
        {
          "name": "_amount",
          "type": "uint256"
        },
        {
          "name": "_side",
          "type": "bool"
        },
        {
          "name": "_betNumber",
          "type": "uint256"
        }
      ],
      "name": "bet",
      "outputs": [],
      "payable": false,
      "stateMutability": "nonpayable",
      "type": "function"
    },
    {
      "constant": false,
      "inputs": [
        {
          "name": "_betNumber",
          "type": "uint256"
        }
      ],
      "name": "distribution",
      "outputs": [],
      "payable": false,
      "stateMutability": "nonpayable",
      "type": "function"
    },
    {
      "constant": true,
      "inputs": [
        {
          "name": "_betNumber",
          "type": "uint256"
        },
        {
          "name": "_player",
          "type": "address"
        }
      ],
      "name": "calculateRewardSuccees",
      "outputs": [
        {
          "name": "",
          "type": "uint256"
        }
      ],
      "payable": false,
      "stateMutability": "view",
      "type": "function"
    },
    {
      "constant": true,
      "inputs": [
        {
          "name": "_betNumber",
          "type": "uint256"
        },
        {
          "name": "_player",
          "type": "address"
        }
      ],
      "name": "calculateRewardFailure",
      "outputs": [
        {
          "name": "",
          "type": "uint256"
        }
      ],
      "payable": false,
      "stateMutability": "view",
      "type": "function"
    }
  ],
  "bytecode": "0x6080604052600060085534801561001557600080fd5b506040516040806115a58339810180604052604081101561003557600080fd5b810190808051906020019092919080519060200190929190505050816000806101000a81548173ffffffffffffffffffffffffffffffffffffffff021916908373ffffffffffffffffffffffffffffffffffffffff16021790555080600660006101000a81548173ffffffffffffffffffffffffffffffffffffffff021916908373ffffffffffffffffffffffffffffffffffffffff1602179055504260078190555050506114bc806100e96000396000f3fe608060405234801561001057600080fd5b50600436106100ea5760003560e01c80639fb710e61161008c578063dad3fdf211610066578063dad3fdf21461042c578063e82cb9471461044a578063fc0c546a146104ac578063fff058e6146104f6576100ea565b80639fb710e614610336578063aa8b0670146103ae578063cc33c875146103dc576100ea565b806378e97925116100c857806378e97925146101e45780638703d270146102025780638decaec01461027a57806393f1a40b146102be576100ea565b8063065cd50a146100ef57806347ccca021461013857806375171c3b14610182575b600080fd5b61011b6004803603602081101561010557600080fd5b810190808035906020019092919050505061052e565b604051808381526020018281526020019250505060405180910390f35b610140610552565b604051808273ffffffffffffffffffffffffffffffffffffffff1673ffffffffffffffffffffffffffffffffffffffff16815260200191505060405180910390f35b6101ce6004803603604081101561019857600080fd5b8101908080359060200190929190803573ffffffffffffffffffffffffffffffffffffffff169060200190929190505050610577565b6040518082815260200191505060405180910390f35b6101ec61066e565b6040518082815260200191505060405180910390f35b6102386004803603604081101561021857600080fd5b810190808035906020019092919080359060200190929190505050610674565b604051808273ffffffffffffffffffffffffffffffffffffffff1673ffffffffffffffffffffffffffffffffffffffff16815260200191505060405180910390f35b6102bc6004803603606081101561029057600080fd5b8101908080359060200190929190803515159060200190929190803590602001909291905050506106bf565b005b61030a600480360360408110156102d457600080fd5b8101908080359060200190929190803573ffffffffffffffffffffffffffffffffffffffff169060200190929190505050610b7b565b604051808481526020018315151515815260200182151515158152602001935050505060405180910390f35b61036c6004803603604081101561034c57600080fd5b810190808035906020019092919080359060200190929190505050610bcc565b604051808273ffffffffffffffffffffffffffffffffffffffff1673ffffffffffffffffffffffffffffffffffffffff16815260200191505060405180910390f35b6103da600480360360208110156103c457600080fd5b8101908080359060200190929190505050610c17565b005b610408600480360360208110156103f257600080fd5b810190808035906020019092919050505061108d565b60405180848152602001838152602001828152602001935050505060405180910390f35b6104346110b7565b6040518082815260200191505060405180910390f35b6104966004803603604081101561046057600080fd5b8101908080359060200190929190803573ffffffffffffffffffffffffffffffffffffffff1690602001909291905050506110bd565b6040518082815260200191505060405180910390f35b6104b46111b4565b604051808273ffffffffffffffffffffffffffffffffffffffff1673ffffffffffffffffffffffffffffffffffffffff16815260200191505060405180910390f35b61052c6004803603604081101561050c57600080fd5b8101908080359060200190929190803590602001909291905050506111da565b005b60026020528060005260406000206000915090508060000154908060010154905082565b6000809054906101000a900473ffffffffffffffffffffffffffffffffffffffff1681565b6000806001600085815260200190815260200160002060008473ffffffffffffffffffffffffffffffffffffffff1673ffffffffffffffffffffffffffffffffffffffff168152602001908152602001600020600001549050600061060e600260008781526020019081526020016000206000015461060060648561125190919063ffffffff16565b6112d790919063ffffffff16565b90506000610660610651606461064385600260008c81526020019081526020016000206001015461125190919063ffffffff16565b6112d790919063ffffffff16565b8461132190919063ffffffff16565b905080935050505092915050565b60075481565b6005602052816000526040600020818154811061068d57fe5b906000526020600020016000915091509054906101000a900473ffffffffffffffffffffffffffffffffffffffff1681565b600115156001600083815260200190815260200160002060003373ffffffffffffffffffffffffffffffffffffffff1673ffffffffffffffffffffffffffffffffffffffff16815260200190815260200160002060010160019054906101000a900460ff161515141561079a576040517f08c379a000000000000000000000000000000000000000000000000000000000815260040180806020018281038252601c8152602001807f796f7520616c72656164792062657420696e20746869732067616d650000000081525060200191505060405180910390fd5b600660009054906101000a900473ffffffffffffffffffffffffffffffffffffffff1673ffffffffffffffffffffffffffffffffffffffff166323b872dd3330866040518463ffffffff1660e01b8152600401808473ffffffffffffffffffffffffffffffffffffffff1673ffffffffffffffffffffffffffffffffffffffff1681526020018373ffffffffffffffffffffffffffffffffffffffff1673ffffffffffffffffffffffffffffffffffffffff1681526020018281526020019350505050602060405180830381600087803b15801561087757600080fd5b505af115801561088b573d6000803e3d6000fd5b505050506040513d60208110156108a157600080fd5b810190808051906020019092919050505050826001600083815260200190815260200160002060003373ffffffffffffffffffffffffffffffffffffffff1673ffffffffffffffffffffffffffffffffffffffff16815260200190815260200160002060000181905550816001600083815260200190815260200160002060003373ffffffffffffffffffffffffffffffffffffffff1673ffffffffffffffffffffffffffffffffffffffff16815260200190815260200160002060010160006101000a81548160ff021916908315150217905550600115158215151415610a42576109ac83600260008481526020019081526020016000206000015461132190919063ffffffff16565b6002600083815260200190815260200160002060000181905550600460008281526020019081526020016000203390806001815401808255809150509060018203906000526020600020016000909192909190916101000a81548173ffffffffffffffffffffffffffffffffffffffff021916908373ffffffffffffffffffffffffffffffffffffffff16021790555050610b0b565b600015158215151415610b0a57610a7883600260008481526020019081526020016000206001015461132190919063ffffffff16565b6002600083815260200190815260200160002060010181905550600560008281526020019081526020016000203390806001815401808255809150509060018203906000526020600020016000909192909190916101000a81548173ffffffffffffffffffffffffffffffffffffffff021916908373ffffffffffffffffffffffffffffffffffffffff160217905550505b5b600180600083815260200190815260200160002060003373ffffffffffffffffffffffffffffffffffffffff1673ffffffffffffffffffffffffffffffffffffffff16815260200190815260200160002060010160016101000a81548160ff021916908315150217905550505050565b6001602052816000526040600020602052806000526040600020600091509150508060000154908060010160009054906101000a900460ff16908060010160019054906101000a900460ff16905083565b60046020528160005260406000208181548110610be557fe5b906000526020600020016000915091509054906101000a900473ffffffffffffffffffffffffffffffffffffffff1681565b60008060009054906101000a900473ffffffffffffffffffffffffffffffffffffffff1673ffffffffffffffffffffffffffffffffffffffff1663d840e2b6600360008581526020019081526020016000206001015460036000868152602001908152602001600020600201546040518363ffffffff1660e01b8152600401808381526020018281526020019250505060206040518083038186803b158015610cbf57600080fd5b505afa158015610cd3573d6000803e3d6000fd5b505050506040513d6020811015610ce957600080fd5b81019080805190602001909291905050509050600115158115151415610ec45760008090505b6004600084815260200190815260200160002080549050811015610ebe576000610d8184600460008781526020019081526020016000208481548110610d5157fe5b9060005260206000200160009054906101000a900473ffffffffffffffffffffffffffffffffffffffff16610577565b9050600660009054906101000a900473ffffffffffffffffffffffffffffffffffffffff1673ffffffffffffffffffffffffffffffffffffffff1663a9059cbb600460008781526020019081526020016000208481548110610ddf57fe5b9060005260206000200160009054906101000a900473ffffffffffffffffffffffffffffffffffffffff16836040518363ffffffff1660e01b8152600401808373ffffffffffffffffffffffffffffffffffffffff1673ffffffffffffffffffffffffffffffffffffffff16815260200182815260200192505050602060405180830381600087803b158015610e7457600080fd5b505af1158015610e88573d6000803e3d6000fd5b505050506040513d6020811015610e9e57600080fd5b810190808051906020019092919050505050508080600101915050610d0f565b50611089565b6000151581151514156110885760008090505b6005600084815260200190815260200160002080549050811015611086576000610f4984600560008781526020019081526020016000208481548110610f1957fe5b9060005260206000200160009054906101000a900473ffffffffffffffffffffffffffffffffffffffff166110bd565b9050600660009054906101000a900473ffffffffffffffffffffffffffffffffffffffff1673ffffffffffffffffffffffffffffffffffffffff1663a9059cbb600560008781526020019081526020016000208481548110610fa757fe5b9060005260206000200160009054906101000a900473ffffffffffffffffffffffffffffffffffffffff16836040518363ffffffff1660e01b8152600401808373ffffffffffffffffffffffffffffffffffffffff1673ffffffffffffffffffffffffffffffffffffffff16815260200182815260200192505050602060405180830381600087803b15801561103c57600080fd5b505af1158015611050573d6000803e3d6000fd5b505050506040513d602081101561106657600080fd5b810190808051906020019092919050505050508080600101915050610ed7565b505b5b5050565b60036020528060005260406000206000915090508060000154908060010154908060020154905083565b60085481565b6000806001600085815260200190815260200160002060008473ffffffffffffffffffffffffffffffffffffffff1673ffffffffffffffffffffffffffffffffffffffff1681526020019081526020016000206000015490506000611154600260008781526020019081526020016000206001015461114660648561125190919063ffffffff16565b6112d790919063ffffffff16565b905060006111a6611197606461118985600260008c81526020019081526020016000206000015461125190919063ffffffff16565b6112d790919063ffffffff16565b8461132190919063ffffffff16565b905080935050505092915050565b600660009054906101000a900473ffffffffffffffffffffffffffffffffffffffff1681565b6111f0600160085461132190919063ffffffff16565b6008819055504260036000600854815260200190815260200160002060000181905550816003600060085481526020019081526020016000206001018190555080600360006008548152602001908152602001600020600201819055505050565b60008083141561126457600090506112d1565b600082840290508284828161127557fe5b04146112cc576040517f08c379a00000000000000000000000000000000000000000000000000000000081526004018080602001828103825260218152602001806114706021913960400191505060405180910390fd5b809150505b92915050565b600061131983836040518060400160405280601a81526020017f536166654d6174683a206469766973696f6e206279207a65726f0000000000008152506113a9565b905092915050565b60008082840190508381101561139f576040517f08c379a000000000000000000000000000000000000000000000000000000000815260040180806020018281038252601b8152602001807f536166654d6174683a206164646974696f6e206f766572666c6f77000000000081525060200191505060405180910390fd5b8091505092915050565b60008083118290611455576040517f08c379a00000000000000000000000000000000000000000000000000000000081526004018080602001828103825283818151815260200191508051906020019080838360005b8381101561141a5780820151818401526020810190506113ff565b50505050905090810190601f1680156114475780820380516001836020036101000a031916815260200191505b509250505060405180910390fd5b50600083858161146157fe5b04905080915050939250505056fe536166654d6174683a206d756c7469706c69636174696f6e206f766572666c6f77a165627a7a72305820b115c0f37ad64d8600b82f1d5390b1c65a4f93555b50d5c7c754c9ae5d7d838b0029",
  "source": "pragma solidity ^0.5.6;\n\nimport \"@klaytn/contracts/token/KIP7/KIP7.sol\";\nimport \"@klaytn/contracts/math/SafeMath.sol\";\nimport \"./NFT.sol\";\n\ncontract Betting {\n\n    using SafeMath for uint256;\n\n    NFT public nft;\n\n    struct user {\n        uint256 amount;\n        bool side;\n        bool isBet;\n    }\n\n    struct amount {\n        uint256 betAmountSuccees;\n        uint256 betAmountFailure;\n    }\n\n    struct tokenPair {\n        uint256 timeStamp;\n        uint256 token1Id;\n        uint256 token2Id;\n    }\n\n    // iteration을 위한 배열 선언\n\n    mapping(uint256 => mapping(address => user)) public userInfo;\n    mapping(uint256 => amount) public amountInfo;\n    mapping(uint256 => tokenPair) public tokenInfo;\n    mapping(uint256 => address[]) public succeesUserList;\n    mapping(uint256 => address[]) public failureUserList;\n\n    address public token; // uru토큰\n    uint256 public startTime; // 베팅 시간제한 두기 위해서\n    uint256 public betNumber = 0; // 베팅 열때마다 대응되는 숫자로 각 베팅을 구분\n\n    constructor (NFT _NFTAddress, address _tokenAddress) public {\n        nft = _NFTAddress;\n        token = _tokenAddress;\n        startTime = block.timestamp;\n    }\n\n    function createBet(uint256 _token1Id, uint256 _token2Id) public {\n        betNumber = betNumber.add(1);\n        tokenInfo[betNumber].timeStamp = block.timestamp;\n        tokenInfo[betNumber].token1Id = _token1Id;\n        tokenInfo[betNumber].token2Id = _token2Id;\n    }\n\n    function bet(uint256 _amount, bool _side, uint256 _betNumber) public {\n        require(userInfo[_betNumber][msg.sender].isBet != true, \"you already bet in this game\");\n\n        // approve 필요!\n        KIP7(token).transferFrom(msg.sender, address(this), _amount);\n\n        userInfo[_betNumber][msg.sender].amount = _amount;\n        userInfo[_betNumber][msg.sender].side = _side;\n\n        if (_side == true) {\n            amountInfo[_betNumber].betAmountSuccees = amountInfo[_betNumber].betAmountSuccees.add(_amount);\n            succeesUserList[_betNumber].push(msg.sender);\n        } else if (_side == false) {\n            amountInfo[_betNumber].betAmountFailure = amountInfo[_betNumber].betAmountFailure.add(_amount);\n            failureUserList[_betNumber].push(msg.sender);\n        }\n\n        userInfo[_betNumber][msg.sender].isBet = true;\n\n    }\n\n    function distribution(uint256 _betNumber) public {\n\n        bool betResult = nft.getCompoundResult(tokenInfo[_betNumber].token1Id, tokenInfo[_betNumber].token2Id);\n\n        if (betResult == true) {\n            for (uint256 i = 0; i < succeesUserList[_betNumber].length; i++) {\n                uint256 reward = calculateRewardSuccees(_betNumber, succeesUserList[_betNumber][i]);\n                KIP7(token).transfer(succeesUserList[_betNumber][i], reward);\n            }\n        } else if (betResult == false) {\n            for (uint256 i = 0; i < failureUserList[_betNumber].length; i++) {\n                uint256 reward = calculateRewardFailure(_betNumber, failureUserList[_betNumber][i]);\n                KIP7(token).transfer(failureUserList[_betNumber][i], reward);\n            }\n        }\n    }\n\n    // assist function\n\n    // '성공'에 베팅시 보상 계산\n    function calculateRewardSuccees(uint256 _betNumber, address _player) public view returns (uint256) {\n        uint256 value = userInfo[_betNumber][_player].amount;\n        uint256 portion = value.mul(100).div(amountInfo[_betNumber].betAmountSuccees);\n        uint256 reward = value.add(amountInfo[_betNumber].betAmountFailure.mul(portion).div(100));\n        return reward;\n    }\n\n    \n    function calculateRewardFailure(uint256 _betNumber, address _player) public view returns (uint256) {\n        uint256 value = userInfo[_betNumber][_player].amount;\n        uint256 portion = value.mul(100).div(amountInfo[_betNumber].betAmountFailure);\n        uint256 reward = value.add(amountInfo[_betNumber].betAmountSuccees.mul(portion).div(100));\n        return reward;\n    }\n\n    // // 참여자 목록 \n    // function getPlayerSuccees() public view returns (address[] memory) {\n    //     return playerOnSuccees;\n    // }\n\n    // function getPlayerFailure() public view returns (address[] memory) {\n    //     return playerOnFailure;\n    // }\n\n    // // 각 결과에 걸린 베팅 총액\n    // function amountForSuccees() public view returns (uint256 amount) {\n    //     return betAmountSuccees;\n    // }\n    \n    // function amountForFailure() public view returns (uint256 amount) {\n    //     return betAmountFailure;\n    // }\n\n    // 배당률 계산\n    // function oddsForSuccees() public view returns (uint256 odds) {\n\n    // }\n\n    // function oddsForFailure() public view returns (uint256 odds) {\n\n    // }\n\n}",
  "sourcePath": "/Users/baekdonghyun/Desktop/beb-03-DND/contract/contracts/betting.sol",
  "compiler": {
    "name": "solc",
    "version": "0.5.6+commit.b259423e.Emscripten.clang"
  },
  "schemaVersion": "3.4.5",
  "updatedAt": "2022-05-24T13:03:01.962Z",
  "networkType": "ethereum",
  "devdoc": {
    "methods": {}
  },
  "userdoc": {
    "methods": {}
  }
}