{
  "contractName": "Betting",
  "abi": [
    {
      "constant": true,
      "inputs": [
        {
          "name": "",
          "type": "uint256"
        }
      ],
      "name": "amountInfo",
      "outputs": [
        {
          "name": "betAmountSuccees",
          "type": "uint256"
        },
        {
          "name": "betAmountFailure",
          "type": "uint256"
        }
      ],
      "payable": false,
      "stateMutability": "view",
      "type": "function"
    },
    {
      "constant": true,
      "inputs": [],
      "name": "nft",
      "outputs": [
        {
          "name": "",
          "type": "address"
        }
      ],
      "payable": false,
      "stateMutability": "view",
      "type": "function"
    },
    {
      "constant": true,
      "inputs": [],
      "name": "startTime",
      "outputs": [
        {
          "name": "",
          "type": "uint256"
        }
      ],
      "payable": false,
      "stateMutability": "view",
      "type": "function"
    },
    {
      "constant": true,
      "inputs": [
        {
          "name": "",
          "type": "uint256"
        },
        {
          "name": "",
          "type": "uint256"
        }
      ],
      "name": "failureUserList",
      "outputs": [
        {
          "name": "",
          "type": "address"
        }
      ],
      "payable": false,
      "stateMutability": "view",
      "type": "function"
    },
    {
      "constant": true,
      "inputs": [
        {
          "name": "",
          "type": "uint256"
        },
        {
          "name": "",
          "type": "address"
        }
      ],
      "name": "userInfo",
      "outputs": [
        {
          "name": "amount",
          "type": "uint256"
        },
        {
          "name": "side",
          "type": "bool"
        },
        {
          "name": "isBet",
          "type": "bool"
        }
      ],
      "payable": false,
      "stateMutability": "view",
      "type": "function"
    },
    {
      "constant": true,
      "inputs": [
        {
          "name": "",
          "type": "uint256"
        },
        {
          "name": "",
          "type": "uint256"
        }
      ],
      "name": "succeesUserList",
      "outputs": [
        {
          "name": "",
          "type": "address"
        }
      ],
      "payable": false,
      "stateMutability": "view",
      "type": "function"
    },
    {
      "constant": true,
      "inputs": [
        {
          "name": "",
          "type": "uint256"
        }
      ],
      "name": "tokenInfo",
      "outputs": [
        {
          "name": "timeStamp",
          "type": "uint256"
        },
        {
          "name": "token1Id",
          "type": "uint256"
        },
        {
          "name": "token2Id",
          "type": "uint256"
        }
      ],
      "payable": false,
      "stateMutability": "view",
      "type": "function"
    },
    {
      "constant": true,
      "inputs": [],
      "name": "betNumber",
      "outputs": [
        {
          "name": "",
          "type": "uint256"
        }
      ],
      "payable": false,
      "stateMutability": "view",
      "type": "function"
    },
    {
      "constant": true,
      "inputs": [],
      "name": "token",
      "outputs": [
        {
          "name": "",
          "type": "address"
        }
      ],
      "payable": false,
      "stateMutability": "view",
      "type": "function"
    },
    {
      "inputs": [
        {
          "name": "_NFTAddress",
          "type": "address"
        },
        {
          "name": "_tokenAddress",
          "type": "address"
        }
      ],
      "payable": false,
      "stateMutability": "nonpayable",
      "type": "constructor"
    },
    {
      "constant": false,
      "inputs": [
        {
          "name": "_token1Id",
          "type": "uint256"
        },
        {
          "name": "_token2Id",
          "type": "uint256"
        }
      ],
      "name": "createBet",
      "outputs": [],
      "payable": false,
      "stateMutability": "nonpayable",
      "type": "function"
    },
    {
      "constant": false,
      "inputs": [
        {
          "name": "_amount",
          "type": "uint256"
        },
        {
          "name": "_side",
          "type": "bool"
        },
        {
          "name": "_betNumber",
          "type": "uint256"
        }
      ],
      "name": "bet",
      "outputs": [],
      "payable": false,
      "stateMutability": "nonpayable",
      "type": "function"
    },
    {
      "constant": false,
      "inputs": [
        {
          "name": "_betNumber",
          "type": "uint256"
        }
      ],
      "name": "distribution",
      "outputs": [],
      "payable": false,
      "stateMutability": "nonpayable",
      "type": "function"
    },
    {
      "constant": true,
      "inputs": [
        {
          "name": "_betNumber",
          "type": "uint256"
        },
        {
          "name": "_player",
          "type": "address"
        }
      ],
      "name": "calculateRewardSuccees",
      "outputs": [
        {
          "name": "",
          "type": "uint256"
        }
      ],
      "payable": false,
      "stateMutability": "view",
      "type": "function"
    },
    {
      "constant": true,
      "inputs": [
        {
          "name": "_betNumber",
          "type": "uint256"
        },
        {
          "name": "_player",
          "type": "address"
        }
      ],
      "name": "calculateRewardFailure",
      "outputs": [
        {
          "name": "",
          "type": "uint256"
        }
      ],
      "payable": false,
      "stateMutability": "view",
      "type": "function"
    },
    {
      "constant": true,
      "inputs": [
        {
          "name": "_betNumber",
          "type": "uint256"
        }
      ],
      "name": "amountForSuccees",
      "outputs": [
        {
          "name": "",
          "type": "uint256"
        }
      ],
      "payable": false,
      "stateMutability": "view",
      "type": "function"
    },
    {
      "constant": true,
      "inputs": [
        {
          "name": "_betNumber",
          "type": "uint256"
        }
      ],
      "name": "amountForFailure",
      "outputs": [
        {
          "name": "",
          "type": "uint256"
        }
      ],
      "payable": false,
      "stateMutability": "view",
      "type": "function"
    },
    {
      "constant": true,
      "inputs": [
        {
          "name": "_betNumber",
          "type": "uint256"
        },
        {
          "name": "_amount",
          "type": "uint256"
        }
      ],
      "name": "oddsForSuccees",
      "outputs": [
        {
          "name": "",
          "type": "uint256"
        }
      ],
      "payable": false,
      "stateMutability": "view",
      "type": "function"
    },
    {
      "constant": true,
      "inputs": [
        {
          "name": "_betNumber",
          "type": "uint256"
        },
        {
          "name": "_amount",
          "type": "uint256"
        }
      ],
      "name": "oddsForFailure",
      "outputs": [
        {
          "name": "",
          "type": "uint256"
        }
      ],
      "payable": false,
      "stateMutability": "view",
      "type": "function"
    }
  ],
  "bytecode": "0x6080604052600060085534801561001557600080fd5b506040516040806119608339810180604052604081101561003557600080fd5b810190808051906020019092919080519060200190929190505050816000806101000a81548173ffffffffffffffffffffffffffffffffffffffff021916908373ffffffffffffffffffffffffffffffffffffffff16021790555080600660006101000a81548173ffffffffffffffffffffffffffffffffffffffff021916908373ffffffffffffffffffffffffffffffffffffffff160217905550426007819055505050611877806100e96000396000f3fe608060405234801561001057600080fd5b50600436106101165760003560e01c80639fb710e6116100a2578063dad3fdf211610071578063dad3fdf214610532578063ddaad44a14610550578063e82cb94714610592578063fc0c546a146105f4578063fff058e61461063e57610116565b80639fb710e6146103f0578063a8735e5414610468578063aa8b0670146104b4578063cc33c875146104e257610116565b806375171c3b116100e957806375171c3b1461023c57806378e979251461029e5780638703d270146102bc5780638decaec01461033457806393f1a40b1461037857610116565b8063065cd50a1461011b5780630a64501a146101645780630ff1a58e146101a657806347ccca02146101f2575b600080fd5b6101476004803603602081101561013157600080fd5b8101908080359060200190929190505050610676565b604051808381526020018281526020019250505060405180910390f35b6101906004803603602081101561017a57600080fd5b810190808035906020019092919050505061069a565b6040518082815260200191505060405180910390f35b6101dc600480360360408110156101bc57600080fd5b8101908080359060200190929190803590602001909291905050506106ba565b6040518082815260200191505060405180910390f35b6101fa610728565b604051808273ffffffffffffffffffffffffffffffffffffffff1673ffffffffffffffffffffffffffffffffffffffff16815260200191505060405180910390f35b6102886004803603604081101561025257600080fd5b8101908080359060200190929190803573ffffffffffffffffffffffffffffffffffffffff16906020019092919050505061074d565b6040518082815260200191505060405180910390f35b6102a6610844565b6040518082815260200191505060405180910390f35b6102f2600480360360408110156102d257600080fd5b81019080803590602001909291908035906020019092919050505061084a565b604051808273ffffffffffffffffffffffffffffffffffffffff1673ffffffffffffffffffffffffffffffffffffffff16815260200191505060405180910390f35b6103766004803603606081101561034a57600080fd5b810190808035906020019092919080351515906020019092919080359060200190929190505050610895565b005b6103c46004803603604081101561038e57600080fd5b8101908080359060200190929190803573ffffffffffffffffffffffffffffffffffffffff169060200190929190505050610df0565b604051808481526020018315151515815260200182151515158152602001935050505060405180910390f35b6104266004803603604081101561040657600080fd5b810190808035906020019092919080359060200190929190505050610e41565b604051808273ffffffffffffffffffffffffffffffffffffffff1673ffffffffffffffffffffffffffffffffffffffff16815260200191505060405180910390f35b61049e6004803603604081101561047e57600080fd5b810190808035906020019092919080359060200190929190505050610e8c565b6040518082815260200191505060405180910390f35b6104e0600480360360208110156104ca57600080fd5b8101908080359060200190929190505050610efa565b005b61050e600480360360208110156104f857600080fd5b81019080803590602001909291905050506113f1565b60405180848152602001838152602001828152602001935050505060405180910390f35b61053a61141b565b6040518082815260200191505060405180910390f35b61057c6004803603602081101561056657600080fd5b8101908080359060200190929190505050611421565b6040518082815260200191505060405180910390f35b6105de600480360360408110156105a857600080fd5b8101908080359060200190929190803573ffffffffffffffffffffffffffffffffffffffff169060200190929190505050611441565b6040518082815260200191505060405180910390f35b6105fc611538565b604051808273ffffffffffffffffffffffffffffffffffffffff1673ffffffffffffffffffffffffffffffffffffffff16815260200191505060405180910390f35b6106746004803603604081101561065457600080fd5b81019080803590602001909291908035906020019092919050505061155e565b005b60026020528060005260406000206000915090508060000154908060010154905082565b600060026000838152602001908152602001600020600101549050919050565b60006107206106e88360026000878152602001908152602001600020600101546115d590919063ffffffff16565b6107126064600260008881526020019081526020016000206000015461165d90919063ffffffff16565b6116e390919063ffffffff16565b905092915050565b6000809054906101000a900473ffffffffffffffffffffffffffffffffffffffff1681565b6000806001600085815260200190815260200160002060008473ffffffffffffffffffffffffffffffffffffffff1673ffffffffffffffffffffffffffffffffffffffff16815260200190815260200160002060000154905060006107e460026000878152602001908152602001600020600001546107d660648561165d90919063ffffffff16565b6116e390919063ffffffff16565b90506000610836610827606461081985600260008c81526020019081526020016000206001015461165d90919063ffffffff16565b6116e390919063ffffffff16565b846115d590919063ffffffff16565b905080935050505092915050565b60075481565b6005602052816000526040600020818154811061086357fe5b906000526020600020016000915091509054906101000a900473ffffffffffffffffffffffffffffffffffffffff1681565b600115156001600083815260200190815260200160002060003373ffffffffffffffffffffffffffffffffffffffff1673ffffffffffffffffffffffffffffffffffffffff16815260200190815260200160002060010160019054906101000a900460ff1615151415610970576040517f08c379a000000000000000000000000000000000000000000000000000000000815260040180806020018281038252601c8152602001807f796f7520616c72656164792062657420696e20746869732067616d650000000081525060200191505060405180910390fd5b4261099c61025860036000858152602001908152602001600020600001546115d590919063ffffffff16565b11610a0f576040517f08c379a00000000000000000000000000000000000000000000000000000000081526004018080602001828103825260168152602001807f746869732062657474696e6720697320636c6f7365640000000000000000000081525060200191505060405180910390fd5b600660009054906101000a900473ffffffffffffffffffffffffffffffffffffffff1673ffffffffffffffffffffffffffffffffffffffff166323b872dd3330866040518463ffffffff1660e01b8152600401808473ffffffffffffffffffffffffffffffffffffffff1673ffffffffffffffffffffffffffffffffffffffff1681526020018373ffffffffffffffffffffffffffffffffffffffff1673ffffffffffffffffffffffffffffffffffffffff1681526020018281526020019350505050602060405180830381600087803b158015610aec57600080fd5b505af1158015610b00573d6000803e3d6000fd5b505050506040513d6020811015610b1657600080fd5b810190808051906020019092919050505050826001600083815260200190815260200160002060003373ffffffffffffffffffffffffffffffffffffffff1673ffffffffffffffffffffffffffffffffffffffff16815260200190815260200160002060000181905550816001600083815260200190815260200160002060003373ffffffffffffffffffffffffffffffffffffffff1673ffffffffffffffffffffffffffffffffffffffff16815260200190815260200160002060010160006101000a81548160ff021916908315150217905550600180600083815260200190815260200160002060003373ffffffffffffffffffffffffffffffffffffffff1673ffffffffffffffffffffffffffffffffffffffff16815260200190815260200160002060010160016101000a81548160ff021916908315150217905550600115158215151415610d2257610c8c8360026000848152602001908152602001600020600001546115d590919063ffffffff16565b6002600083815260200190815260200160002060000181905550600460008281526020019081526020016000203390806001815401808255809150509060018203906000526020600020016000909192909190916101000a81548173ffffffffffffffffffffffffffffffffffffffff021916908373ffffffffffffffffffffffffffffffffffffffff16021790555050610deb565b600015158215151415610dea57610d588360026000848152602001908152602001600020600101546115d590919063ffffffff16565b6002600083815260200190815260200160002060010181905550600560008281526020019081526020016000203390806001815401808255809150509060018203906000526020600020016000909192909190916101000a81548173ffffffffffffffffffffffffffffffffffffffff021916908373ffffffffffffffffffffffffffffffffffffffff160217905550505b5b505050565b6001602052816000526040600020602052806000526040600020600091509150508060000154908060010160009054906101000a900460ff16908060010160019054906101000a900460ff16905083565b60046020528160005260406000208181548110610e5a57fe5b906000526020600020016000915091509054906101000a900473ffffffffffffffffffffffffffffffffffffffff1681565b6000610ef2610eba8360026000878152602001908152602001600020600001546115d590919063ffffffff16565b610ee46064600260008881526020019081526020016000206001015461165d90919063ffffffff16565b6116e390919063ffffffff16565b905092915050565b42610f25607860036000858152602001908152602001600020600001546115d590919063ffffffff16565b10610f7b576040517f08c379a00000000000000000000000000000000000000000000000000000000081526004018080602001828103825260378152602001806117f46037913960400191505060405180910390fd5b60008060009054906101000a900473ffffffffffffffffffffffffffffffffffffffff1673ffffffffffffffffffffffffffffffffffffffff1663d840e2b6600360008581526020019081526020016000206001015460036000868152602001908152602001600020600201546040518363ffffffff1660e01b8152600401808381526020018281526020019250505060206040518083038186803b15801561102357600080fd5b505afa158015611037573d6000803e3d6000fd5b505050506040513d602081101561104d57600080fd5b810190808051906020019092919050505090506001151581151514156112285760008090505b60046000848152602001908152602001600020805490508110156112225760006110e5846004600087815260200190815260200160002084815481106110b557fe5b9060005260206000200160009054906101000a900473ffffffffffffffffffffffffffffffffffffffff1661074d565b9050600660009054906101000a900473ffffffffffffffffffffffffffffffffffffffff1673ffffffffffffffffffffffffffffffffffffffff1663a9059cbb60046000878152602001908152602001600020848154811061114357fe5b9060005260206000200160009054906101000a900473ffffffffffffffffffffffffffffffffffffffff16836040518363ffffffff1660e01b8152600401808373ffffffffffffffffffffffffffffffffffffffff1673ffffffffffffffffffffffffffffffffffffffff16815260200182815260200192505050602060405180830381600087803b1580156111d857600080fd5b505af11580156111ec573d6000803e3d6000fd5b505050506040513d602081101561120257600080fd5b810190808051906020019092919050505050508080600101915050611073565b506113ed565b6000151581151514156113ec5760008090505b60056000848152602001908152602001600020805490508110156113ea5760006112ad8460056000878152602001908152602001600020848154811061127d57fe5b9060005260206000200160009054906101000a900473ffffffffffffffffffffffffffffffffffffffff16611441565b9050600660009054906101000a900473ffffffffffffffffffffffffffffffffffffffff1673ffffffffffffffffffffffffffffffffffffffff1663a9059cbb60056000878152602001908152602001600020848154811061130b57fe5b9060005260206000200160009054906101000a900473ffffffffffffffffffffffffffffffffffffffff16836040518363ffffffff1660e01b8152600401808373ffffffffffffffffffffffffffffffffffffffff1673ffffffffffffffffffffffffffffffffffffffff16815260200182815260200192505050602060405180830381600087803b1580156113a057600080fd5b505af11580156113b4573d6000803e3d6000fd5b505050506040513d60208110156113ca57600080fd5b81019080805190602001909291905050505050808060010191505061123b565b505b5b5050565b60036020528060005260406000206000915090508060000154908060010154908060020154905083565b60085481565b600060026000838152602001908152602001600020600001549050919050565b6000806001600085815260200190815260200160002060008473ffffffffffffffffffffffffffffffffffffffff1673ffffffffffffffffffffffffffffffffffffffff16815260200190815260200160002060000154905060006114d860026000878152602001908152602001600020600101546114ca60648561165d90919063ffffffff16565b6116e390919063ffffffff16565b9050600061152a61151b606461150d85600260008c81526020019081526020016000206000015461165d90919063ffffffff16565b6116e390919063ffffffff16565b846115d590919063ffffffff16565b905080935050505092915050565b600660009054906101000a900473ffffffffffffffffffffffffffffffffffffffff1681565b61157460016008546115d590919063ffffffff16565b6008819055504260036000600854815260200190815260200160002060000181905550816003600060085481526020019081526020016000206001018190555080600360006008548152602001908152602001600020600201819055505050565b600080828401905083811015611653576040517f08c379a000000000000000000000000000000000000000000000000000000000815260040180806020018281038252601b8152602001807f536166654d6174683a206164646974696f6e206f766572666c6f77000000000081525060200191505060405180910390fd5b8091505092915050565b60008083141561167057600090506116dd565b600082840290508284828161168157fe5b04146116d8576040517f08c379a000000000000000000000000000000000000000000000000000000000815260040180806020018281038252602181526020018061182b6021913960400191505060405180910390fd5b809150505b92915050565b600061172583836040518060400160405280601a81526020017f536166654d6174683a206469766973696f6e206279207a65726f00000000000081525061172d565b905092915050565b600080831182906117d9576040517f08c379a00000000000000000000000000000000000000000000000000000000081526004018080602001828103825283818151815260200191508051906020019080838360005b8381101561179e578082015181840152602081019050611783565b50505050905090810190601f1680156117cb5780820380516001836020036101000a031916815260200191505b509250505060405180910390fd5b5060008385816117e557fe5b04905080915050939250505056fe646973747269627574696f6e20697320616c6c6f776564206166746572203130206d696e75746573206f70656e65642062657474696e67536166654d6174683a206d756c7469706c69636174696f6e206f766572666c6f77a165627a7a72305820b3c5b5f099aaa19bfea4dc7ed1522d1061add0d73feb3359b02b3ef03bc54f930029",
  "source": "pragma solidity ^0.5.6;\n\nimport \"@klaytn/contracts/token/KIP7/KIP7.sol\";\nimport \"@klaytn/contracts/math/SafeMath.sol\";\nimport \"./NFT.sol\";\n\ncontract Betting {\n\n    using SafeMath for uint256;\n\n    NFT public nft;\n\n    struct user {\n        uint256 amount;\n        bool side;\n        bool isBet;\n    }\n\n    struct amount {\n        uint256 betAmountSuccees;\n        uint256 betAmountFailure;\n    }\n\n    struct tokenPair {\n        uint256 timeStamp;\n        uint256 token1Id;\n        uint256 token2Id;\n    }\n\n    // iteration   \n\n    mapping(uint256 => mapping(address => user)) public userInfo;\n    mapping(uint256 => amount) public amountInfo;\n    mapping(uint256 => tokenPair) public tokenInfo;\n    mapping(uint256 => address[]) public succeesUserList;\n    mapping(uint256 => address[]) public failureUserList;\n\n    address public token; // uru\n    uint256 public startTime; //    \n    uint256 public betNumber = 0; //       \n\n    constructor (NFT _NFTAddress, address _tokenAddress) public {\n        nft = _NFTAddress;\n        token = _tokenAddress;\n        startTime = block.timestamp;\n    }\n\n    function createBet(uint256 _token1Id, uint256 _token2Id) public {\n        betNumber = betNumber.add(1);\n        tokenInfo[betNumber].timeStamp = block.timestamp;\n        tokenInfo[betNumber].token1Id = _token1Id;\n        tokenInfo[betNumber].token2Id = _token2Id;\n    }\n\n    function bet(uint256 _amount, bool _side, uint256 _betNumber) public {\n        require(userInfo[_betNumber][msg.sender].isBet != true, \"you already bet in this game\");\n        require(tokenInfo[_betNumber].timeStamp.add(600) > block.timestamp, \"this betting is closed\");\n\n        // approve !\n        KIP7(token).transferFrom(msg.sender, address(this), _amount);\n\n        userInfo[_betNumber][msg.sender].amount = _amount;\n        userInfo[_betNumber][msg.sender].side = _side;\n        userInfo[_betNumber][msg.sender].isBet = true;\n\n        if (_side == true) {\n            amountInfo[_betNumber].betAmountSuccees = amountInfo[_betNumber].betAmountSuccees.add(_amount);\n            succeesUserList[_betNumber].push(msg.sender);\n        } else if (_side == false) {\n            amountInfo[_betNumber].betAmountFailure = amountInfo[_betNumber].betAmountFailure.add(_amount);\n            failureUserList[_betNumber].push(msg.sender);\n        }\n\n    }\n\n    function distribution(uint256 _betNumber) public {\n        require(tokenInfo[_betNumber].timeStamp.add(120) < block.timestamp, \"distribution is allowed after 10 minutes opened betting\");\n\n        bool betResult = nft.getCompoundResult(tokenInfo[_betNumber].token1Id, tokenInfo[_betNumber].token2Id);\n\n        if (betResult == true) {\n            for (uint256 i = 0; i < succeesUserList[_betNumber].length; i++) {\n                uint256 reward = calculateRewardSuccees(_betNumber, succeesUserList[_betNumber][i]);\n                KIP7(token).transfer(succeesUserList[_betNumber][i], reward);\n            }\n        } else if (betResult == false) {\n            for (uint256 i = 0; i < failureUserList[_betNumber].length; i++) {\n                uint256 reward = calculateRewardFailure(_betNumber, failureUserList[_betNumber][i]);\n                KIP7(token).transfer(failureUserList[_betNumber][i], reward);\n            }\n        }\n    }\n\n    //      \n    function calculateRewardSuccees(uint256 _betNumber, address _player) public view returns (uint256) {\n        uint256 value = userInfo[_betNumber][_player].amount;\n        uint256 portion = value.mul(100).div(amountInfo[_betNumber].betAmountSuccees);\n        uint256 reward = value.add(amountInfo[_betNumber].betAmountFailure.mul(portion).div(100));\n        return reward;\n    }\n\n    function calculateRewardFailure(uint256 _betNumber, address _player) public view returns (uint256) {\n        uint256 value = userInfo[_betNumber][_player].amount;\n        uint256 portion = value.mul(100).div(amountInfo[_betNumber].betAmountFailure);\n        uint256 reward = value.add(amountInfo[_betNumber].betAmountSuccees.mul(portion).div(100));\n        return reward;\n    }\n    \n    // assist function\n\n    //     \n    function amountForSuccees(uint256 _betNumber) public view returns (uint256) {\n        return amountInfo[_betNumber].betAmountSuccees;\n    }\n    \n    function amountForFailure(uint256 _betNumber) public view returns (uint256) {\n        return amountInfo[_betNumber].betAmountFailure;\n    }\n\n    //   (%)\n    function oddsForSuccees(uint256 _betNumber, uint256 _amount) public view returns (uint256) {\n        return amountInfo[_betNumber].betAmountFailure.mul(100).div(amountInfo[_betNumber].betAmountSuccees.add(_amount));\n    }\n\n    function oddsForFailure(uint256 _betNumber, uint256 _amount) public view returns (uint256) {\n        return amountInfo[_betNumber].betAmountSuccees.mul(100).div(amountInfo[_betNumber].betAmountFailure.add(_amount));\n    }\n}",
  "sourcePath": "/Users/baekdonghyun/Desktop/beb-03-DND/contract/contracts/betting.sol",
  "compiler": {
    "name": "solc",
    "version": "0.5.6+commit.b259423e.Emscripten.clang"
  },
  "schemaVersion": "3.4.5",
  "updatedAt": "2022-05-25T00:34:28.508Z",
  "networkType": "ethereum",
  "devdoc": {
    "methods": {}
  },
  "userdoc": {
    "methods": {}
  }
}