{
  "contractName": "Betting",
  "abi": [
    {
      "constant": true,
      "inputs": [
        {
          "name": "",
          "type": "uint256"
        }
      ],
      "name": "amountInfo",
      "outputs": [
        {
          "name": "betAmountSuccees",
          "type": "uint256"
        },
        {
          "name": "betAmountFailure",
          "type": "uint256"
        }
      ],
      "payable": false,
      "stateMutability": "view",
      "type": "function"
    },
    {
      "constant": true,
      "inputs": [],
      "name": "nft",
      "outputs": [
        {
          "name": "",
          "type": "address"
        }
      ],
      "payable": false,
      "stateMutability": "view",
      "type": "function"
    },
    {
      "constant": true,
      "inputs": [],
      "name": "startTime",
      "outputs": [
        {
          "name": "",
          "type": "uint256"
        }
      ],
      "payable": false,
      "stateMutability": "view",
      "type": "function"
    },
    {
      "constant": true,
      "inputs": [
        {
          "name": "",
          "type": "uint256"
        },
        {
          "name": "",
          "type": "uint256"
        }
      ],
      "name": "failureUserList",
      "outputs": [
        {
          "name": "",
          "type": "address"
        }
      ],
      "payable": false,
      "stateMutability": "view",
      "type": "function"
    },
    {
      "constant": true,
      "inputs": [
        {
          "name": "",
          "type": "uint256"
        },
        {
          "name": "",
          "type": "address"
        }
      ],
      "name": "userInfo",
      "outputs": [
        {
          "name": "amount",
          "type": "uint256"
        },
        {
          "name": "side",
          "type": "bool"
        }
      ],
      "payable": false,
      "stateMutability": "view",
      "type": "function"
    },
    {
      "constant": true,
      "inputs": [
        {
          "name": "",
          "type": "uint256"
        },
        {
          "name": "",
          "type": "uint256"
        }
      ],
      "name": "succeesUserList",
      "outputs": [
        {
          "name": "",
          "type": "address"
        }
      ],
      "payable": false,
      "stateMutability": "view",
      "type": "function"
    },
    {
      "constant": true,
      "inputs": [
        {
          "name": "",
          "type": "uint256"
        }
      ],
      "name": "tokenInfo",
      "outputs": [
        {
          "name": "timeStamp",
          "type": "uint256"
        },
        {
          "name": "token1Id",
          "type": "uint256"
        },
        {
          "name": "token2Id",
          "type": "uint256"
        }
      ],
      "payable": false,
      "stateMutability": "view",
      "type": "function"
    },
    {
      "constant": true,
      "inputs": [],
      "name": "betNumber",
      "outputs": [
        {
          "name": "",
          "type": "uint256"
        }
      ],
      "payable": false,
      "stateMutability": "view",
      "type": "function"
    },
    {
      "constant": true,
      "inputs": [],
      "name": "token",
      "outputs": [
        {
          "name": "",
          "type": "address"
        }
      ],
      "payable": false,
      "stateMutability": "view",
      "type": "function"
    },
    {
      "inputs": [
        {
          "name": "_NFTAddress",
          "type": "address"
        },
        {
          "name": "_tokenAddress",
          "type": "address"
        }
      ],
      "payable": false,
      "stateMutability": "nonpayable",
      "type": "constructor"
    },
    {
      "constant": false,
      "inputs": [
        {
          "name": "_token1Id",
          "type": "uint256"
        },
        {
          "name": "_token2Id",
          "type": "uint256"
        }
      ],
      "name": "createBet",
      "outputs": [],
      "payable": false,
      "stateMutability": "nonpayable",
      "type": "function"
    },
    {
      "constant": false,
      "inputs": [
        {
          "name": "_amount",
          "type": "uint256"
        },
        {
          "name": "_side",
          "type": "bool"
        },
        {
          "name": "_betNumber",
          "type": "uint256"
        }
      ],
      "name": "bet",
      "outputs": [],
      "payable": false,
      "stateMutability": "nonpayable",
      "type": "function"
    },
    {
      "constant": false,
      "inputs": [
        {
          "name": "_betNumber",
          "type": "uint256"
        }
      ],
      "name": "distribution",
      "outputs": [],
      "payable": false,
      "stateMutability": "nonpayable",
      "type": "function"
    },
    {
      "constant": true,
      "inputs": [
        {
          "name": "_betNumber",
          "type": "uint256"
        },
        {
          "name": "_player",
          "type": "address"
        }
      ],
      "name": "calculateRewardSuccees",
      "outputs": [
        {
          "name": "",
          "type": "uint256"
        }
      ],
      "payable": false,
      "stateMutability": "view",
      "type": "function"
    }
  ],
  "bytecode": "0x6080604052600060085534801561001557600080fd5b506040516040806112778339810180604052604081101561003557600080fd5b810190808051906020019092919080519060200190929190505050816000806101000a81548173ffffffffffffffffffffffffffffffffffffffff021916908373ffffffffffffffffffffffffffffffffffffffff16021790555080600660006101000a81548173ffffffffffffffffffffffffffffffffffffffff021916908373ffffffffffffffffffffffffffffffffffffffff16021790555042600781905550505061118e806100e96000396000f3fe608060405234801561001057600080fd5b50600436106100cf5760003560e01c806393f1a40b1161008c578063cc33c87511610066578063cc33c875146103b6578063dad3fdf214610406578063fc0c546a14610424578063fff058e61461046e576100cf565b806393f1a40b146102a35780639fb710e614610310578063aa8b067014610388576100cf565b8063065cd50a146100d457806347ccca021461011d57806375171c3b1461016757806378e97925146101c95780638703d270146101e75780638decaec01461025f575b600080fd5b610100600480360360208110156100ea57600080fd5b81019080803590602001909291905050506104a6565b604051808381526020018281526020019250505060405180910390f35b6101256104ca565b604051808273ffffffffffffffffffffffffffffffffffffffff1673ffffffffffffffffffffffffffffffffffffffff16815260200191505060405180910390f35b6101b36004803603604081101561017d57600080fd5b8101908080359060200190929190803573ffffffffffffffffffffffffffffffffffffffff1690602001909291905050506104ef565b6040518082815260200191505060405180910390f35b6101d16105e6565b6040518082815260200191505060405180910390f35b61021d600480360360408110156101fd57600080fd5b8101908080359060200190929190803590602001909291905050506105ec565b604051808273ffffffffffffffffffffffffffffffffffffffff1673ffffffffffffffffffffffffffffffffffffffff16815260200191505060405180910390f35b6102a16004803603606081101561027557600080fd5b810190808035906020019092919080351515906020019092919080359060200190929190505050610637565b005b6102ef600480360360408110156102b957600080fd5b8101908080359060200190929190803573ffffffffffffffffffffffffffffffffffffffff1690602001909291905050506109ad565b60405180838152602001821515151581526020019250505060405180910390f35b6103466004803603604081101561032657600080fd5b8101908080359060200190929190803590602001909291905050506109eb565b604051808273ffffffffffffffffffffffffffffffffffffffff1673ffffffffffffffffffffffffffffffffffffffff16815260200191505060405180910390f35b6103b46004803603602081101561039e57600080fd5b8101908080359060200190929190505050610a36565b005b6103e2600480360360208110156103cc57600080fd5b8101908080359060200190929190505050610e56565b60405180848152602001838152602001828152602001935050505060405180910390f35b61040e610e80565b6040518082815260200191505060405180910390f35b61042c610e86565b604051808273ffffffffffffffffffffffffffffffffffffffff1673ffffffffffffffffffffffffffffffffffffffff16815260200191505060405180910390f35b6104a46004803603604081101561048457600080fd5b810190808035906020019092919080359060200190929190505050610eac565b005b60026020528060005260406000206000915090508060000154908060010154905082565b6000809054906101000a900473ffffffffffffffffffffffffffffffffffffffff1681565b6000806001600085815260200190815260200160002060008473ffffffffffffffffffffffffffffffffffffffff1673ffffffffffffffffffffffffffffffffffffffff16815260200190815260200160002060000154905060006105866002600087815260200190815260200160002060000154610578606485610f2390919063ffffffff16565b610fa990919063ffffffff16565b905060006105d86105c960646105bb85600260008c815260200190815260200160002060010154610f2390919063ffffffff16565b610fa990919063ffffffff16565b84610ff390919063ffffffff16565b905080935050505092915050565b60075481565b6005602052816000526040600020818154811061060557fe5b906000526020600020016000915091509054906101000a900473ffffffffffffffffffffffffffffffffffffffff1681565b600660009054906101000a900473ffffffffffffffffffffffffffffffffffffffff1673ffffffffffffffffffffffffffffffffffffffff166323b872dd3330866040518463ffffffff1660e01b8152600401808473ffffffffffffffffffffffffffffffffffffffff1673ffffffffffffffffffffffffffffffffffffffff1681526020018373ffffffffffffffffffffffffffffffffffffffff1673ffffffffffffffffffffffffffffffffffffffff1681526020018281526020019350505050602060405180830381600087803b15801561071457600080fd5b505af1158015610728573d6000803e3d6000fd5b505050506040513d602081101561073e57600080fd5b810190808051906020019092919050505050826001600083815260200190815260200160002060003373ffffffffffffffffffffffffffffffffffffffff1673ffffffffffffffffffffffffffffffffffffffff16815260200190815260200160002060000181905550816001600083815260200190815260200160002060003373ffffffffffffffffffffffffffffffffffffffff1673ffffffffffffffffffffffffffffffffffffffff16815260200190815260200160002060010160006101000a81548160ff0219169083151502179055506001151582151514156108df57610849836002600084815260200190815260200160002060000154610ff390919063ffffffff16565b6002600083815260200190815260200160002060000181905550600460008281526020019081526020016000203390806001815401808255809150509060018203906000526020600020016000909192909190916101000a81548173ffffffffffffffffffffffffffffffffffffffff021916908373ffffffffffffffffffffffffffffffffffffffff160217905550506109a8565b6000151582151514156109a757610915836002600084815260200190815260200160002060010154610ff390919063ffffffff16565b6002600083815260200190815260200160002060010181905550600560008281526020019081526020016000203390806001815401808255809150509060018203906000526020600020016000909192909190916101000a81548173ffffffffffffffffffffffffffffffffffffffff021916908373ffffffffffffffffffffffffffffffffffffffff160217905550505b5b505050565b6001602052816000526040600020602052806000526040600020600091509150508060000154908060010160009054906101000a900460ff16905082565b60046020528160005260406000208181548110610a0457fe5b906000526020600020016000915091509054906101000a900473ffffffffffffffffffffffffffffffffffffffff1681565b60008060009054906101000a900473ffffffffffffffffffffffffffffffffffffffff1673ffffffffffffffffffffffffffffffffffffffff1663d840e2b6600360008581526020019081526020016000206001015460036000868152602001908152602001600020600201546040518363ffffffff1660e01b8152600401808381526020018281526020019250505060206040518083038186803b158015610ade57600080fd5b505afa158015610af2573d6000803e3d6000fd5b505050506040513d6020811015610b0857600080fd5b81019080805190602001909291905050509050600115158115151415610ce35760008090505b6004600084815260200190815260200160002080549050811015610cdd576000610ba084600460008781526020019081526020016000208481548110610b7057fe5b9060005260206000200160009054906101000a900473ffffffffffffffffffffffffffffffffffffffff166104ef565b9050600660009054906101000a900473ffffffffffffffffffffffffffffffffffffffff1673ffffffffffffffffffffffffffffffffffffffff1663a9059cbb600460008781526020019081526020016000208481548110610bfe57fe5b9060005260206000200160009054906101000a900473ffffffffffffffffffffffffffffffffffffffff16836040518363ffffffff1660e01b8152600401808373ffffffffffffffffffffffffffffffffffffffff1673ffffffffffffffffffffffffffffffffffffffff16815260200182815260200192505050602060405180830381600087803b158015610c9357600080fd5b505af1158015610ca7573d6000803e3d6000fd5b505050506040513d6020811015610cbd57600080fd5b810190808051906020019092919050505050508080600101915050610b2e565b50610e52565b600015158115151415610e515760008090505b6005600084815260200190815260200160002080549050811015610e4f57600660009054906101000a900473ffffffffffffffffffffffffffffffffffffffff1673ffffffffffffffffffffffffffffffffffffffff1663a9059cbb600560008681526020019081526020016000208381548110610d7057fe5b9060005260206000200160009054906101000a900473ffffffffffffffffffffffffffffffffffffffff1660016040518363ffffffff1660e01b8152600401808373ffffffffffffffffffffffffffffffffffffffff1673ffffffffffffffffffffffffffffffffffffffff16815260200182815260200192505050602060405180830381600087803b158015610e0657600080fd5b505af1158015610e1a573d6000803e3d6000fd5b505050506040513d6020811015610e3057600080fd5b8101908080519060200190929190505050508080600101915050610cf6565b505b5b5050565b60036020528060005260406000206000915090508060000154908060010154908060020154905083565b60085481565b600660009054906101000a900473ffffffffffffffffffffffffffffffffffffffff1681565b610ec26001600854610ff390919063ffffffff16565b6008819055504260036000600854815260200190815260200160002060000181905550816003600060085481526020019081526020016000206001018190555080600360006008548152602001908152602001600020600201819055505050565b600080831415610f365760009050610fa3565b6000828402905082848281610f4757fe5b0414610f9e576040517f08c379a00000000000000000000000000000000000000000000000000000000081526004018080602001828103825260218152602001806111426021913960400191505060405180910390fd5b809150505b92915050565b6000610feb83836040518060400160405280601a81526020017f536166654d6174683a206469766973696f6e206279207a65726f00000000000081525061107b565b905092915050565b600080828401905083811015611071576040517f08c379a000000000000000000000000000000000000000000000000000000000815260040180806020018281038252601b8152602001807f536166654d6174683a206164646974696f6e206f766572666c6f77000000000081525060200191505060405180910390fd5b8091505092915050565b60008083118290611127576040517f08c379a00000000000000000000000000000000000000000000000000000000081526004018080602001828103825283818151815260200191508051906020019080838360005b838110156110ec5780820151818401526020810190506110d1565b50505050905090810190601f1680156111195780820380516001836020036101000a031916815260200191505b509250505060405180910390fd5b50600083858161113357fe5b04905080915050939250505056fe536166654d6174683a206d756c7469706c69636174696f6e206f766572666c6f77a165627a7a723058204954bfcc0a7c9de62154aec3efcbc9eab4de7579d53057bac11a28ecceae9d7a0029",
  "source": "pragma solidity ^0.5.6;\n\nimport \"@klaytn/contracts/token/KIP7/KIP7.sol\";\nimport \"@klaytn/contracts/math/SafeMath.sol\";\nimport \"./NFT.sol\";\n\ncontract Betting {\n\n    using SafeMath for uint256;\n\n    NFT public nft;\n\n    struct user {\n        uint256 amount;\n        bool side;\n    }\n\n    struct amount {\n        uint256 betAmountSuccees;\n        uint256 betAmountFailure;\n    }\n\n    struct tokenPair {\n        uint256 timeStamp;\n        uint256 token1Id;\n        uint256 token2Id;\n    }\n\n    // iteration을 위한 배열 선언\n\n    mapping(uint256 => mapping(address => user)) public userInfo;\n    mapping(uint256 => amount) public amountInfo;\n    mapping(uint256 => tokenPair) public tokenInfo;\n    mapping(uint256 => address[]) public succeesUserList;\n    mapping(uint256 => address[]) public failureUserList;\n\n    address public token; // uru토큰\n    uint256 public startTime; // 베팅 시간제한 두기 위해서\n    uint256 public betNumber = 0;\n\n    constructor (NFT _NFTAddress, address _tokenAddress) public {\n        nft = _NFTAddress;\n        token = _tokenAddress;\n        startTime = block.timestamp;\n    }\n\n    function createBet(uint256 _token1Id, uint256 _token2Id) public {\n        betNumber = betNumber.add(1);\n        tokenInfo[betNumber].timeStamp = block.timestamp;\n        tokenInfo[betNumber].token1Id = _token1Id;\n        tokenInfo[betNumber].token2Id = _token2Id;\n    }\n\n    function bet(uint256 _amount, bool _side, uint256 _betNumber) public {\n        \n        // approve 필요!\n        KIP7(token).transferFrom(msg.sender, address(this), _amount);\n\n        userInfo[_betNumber][msg.sender].amount = _amount;\n        userInfo[_betNumber][msg.sender].side = _side;\n\n        if (_side == true) {\n            amountInfo[_betNumber].betAmountSuccees = amountInfo[_betNumber].betAmountSuccees.add(_amount);\n            succeesUserList[_betNumber].push(msg.sender);\n        } else if (_side == false) {\n            amountInfo[_betNumber].betAmountFailure = amountInfo[_betNumber].betAmountFailure.add(_amount);\n            failureUserList[_betNumber].push(msg.sender);\n        }\n    }\n\n    function distribution(uint256 _betNumber) public {\n\n        bool betResult = nft.getCompoundResult(tokenInfo[_betNumber].token1Id, tokenInfo[_betNumber].token2Id);\n\n        if (betResult == true) {\n            for (uint256 i = 0; i < succeesUserList[_betNumber].length; i++) {\n                uint256 reward = calculateRewardSuccees(_betNumber, succeesUserList[_betNumber][i]);\n                KIP7(token).transfer(succeesUserList[_betNumber][i], reward);\n            }\n        } else if (betResult == false) {\n            for (uint256 i = 0; i < failureUserList[_betNumber].length; i++) {\n                // uint256 reward = calculateRewardFailure(_betNumber, failureUserList[_betNumber][i]);\n                KIP7(token).transfer(failureUserList[_betNumber][i], 1);\n            }\n        }\n    }\n\n    // assist function\n\n    // '성공'에 베팅시 보상 계산\n    function calculateRewardSuccees(uint256 _betNumber, address _player) public view returns (uint256) {\n        uint256 value = userInfo[_betNumber][_player].amount;\n        uint256 portion = value.mul(100).div(amountInfo[_betNumber].betAmountSuccees);\n        uint256 reward = value.add(amountInfo[_betNumber].betAmountFailure.mul(portion).div(100));\n        return reward;\n    }\n\n    \n    // function calculateRewardFailure(uint256 _betNumber, address _player) public view returns (uint256) {\n    //     uint256 amount = userInfo[_betNumber][_player].amount;\n    //     uint256 portion = amount.mul(100).div(betAmountFailure[_betNumber]);\n    //     uint256 reward = amount.add(betAmountSuccees[_betNumber].mul(portion).div(100));\n    //     return reward;\n    // }\n\n    // // 참여자 목록 \n    // function getPlayerSuccees() public view returns (address[] memory) {\n    //     return playerOnSuccees;\n    // }\n\n    // function getPlayerFailure() public view returns (address[] memory) {\n    //     return playerOnFailure;\n    // }\n\n    // // 각 결과에 걸린 베팅 총액\n    // function amountForSuccees() public view returns (uint256 amount) {\n    //     return betAmountSuccees;\n    // }\n    \n    // function amountForFailure() public view returns (uint256 amount) {\n    //     return betAmountFailure;\n    // }\n\n    // 배당률 계산\n    // function oddsForSuccees() public view returns (uint256 odds) {\n\n    // }\n\n    // function oddsForFailure() public view returns (uint256 odds) {\n\n    // }\n\n}",
  "sourcePath": "/Users/baekdonghyun/Desktop/beb-03-DND/contract/contracts/betting.sol",
  "compiler": {
    "name": "solc",
    "version": "0.5.6+commit.b259423e.Emscripten.clang"
  },
  "schemaVersion": "3.4.5",
  "updatedAt": "2022-05-24T12:28:31.913Z",
  "networkType": "ethereum",
  "devdoc": {
    "methods": {}
  },
  "userdoc": {
    "methods": {}
  }
}