{
  "contractName": "DNDLibrary",
  "abi": [
    {
      "constant": true,
      "inputs": [
        {
          "name": "factoryAddress",
          "type": "address"
        },
        {
          "name": "tokenA",
          "type": "address"
        },
        {
          "name": "tokenB",
          "type": "address"
        }
      ],
      "name": "getReserves",
      "outputs": [
        {
          "name": "reserveA",
          "type": "uint256"
        },
        {
          "name": "reserveB",
          "type": "uint256"
        }
      ],
      "payable": false,
      "stateMutability": "view",
      "type": "function"
    },
    {
      "constant": true,
      "inputs": [
        {
          "name": "amountIn",
          "type": "uint256"
        },
        {
          "name": "reserveIn",
          "type": "uint256"
        },
        {
          "name": "reserveOut",
          "type": "uint256"
        }
      ],
      "name": "quote",
      "outputs": [
        {
          "name": "amountOut",
          "type": "uint256"
        }
      ],
      "payable": false,
      "stateMutability": "pure",
      "type": "function"
    },
    {
      "constant": true,
      "inputs": [
        {
          "name": "amountIn",
          "type": "uint256"
        },
        {
          "name": "reserveIn",
          "type": "uint256"
        },
        {
          "name": "reserveOut",
          "type": "uint256"
        }
      ],
      "name": "getAmountOut",
      "outputs": [
        {
          "name": "",
          "type": "uint256"
        }
      ],
      "payable": false,
      "stateMutability": "pure",
      "type": "function"
    },
    {
      "constant": true,
      "inputs": [
        {
          "name": "factory",
          "type": "address"
        },
        {
          "name": "amountIn",
          "type": "uint256"
        },
        {
          "name": "path",
          "type": "address[]"
        }
      ],
      "name": "getAmountsOut",
      "outputs": [
        {
          "name": "",
          "type": "uint256[]"
        }
      ],
      "payable": false,
      "stateMutability": "view",
      "type": "function"
    },
    {
      "constant": true,
      "inputs": [
        {
          "name": "amountOut",
          "type": "uint256"
        },
        {
          "name": "reserveIn",
          "type": "uint256"
        },
        {
          "name": "reserveOut",
          "type": "uint256"
        }
      ],
      "name": "getAmountIn",
      "outputs": [
        {
          "name": "",
          "type": "uint256"
        }
      ],
      "payable": false,
      "stateMutability": "pure",
      "type": "function"
    },
    {
      "constant": true,
      "inputs": [
        {
          "name": "factory",
          "type": "address"
        },
        {
          "name": "amountOut",
          "type": "uint256"
        },
        {
          "name": "path",
          "type": "address[]"
        }
      ],
      "name": "getAmountsIn",
      "outputs": [
        {
          "name": "",
          "type": "uint256[]"
        }
      ],
      "payable": false,
      "stateMutability": "view",
      "type": "function"
    }
  ],
  "bytecode": "0x610e34610026600b82828239805160001a60731461001957fe5b30600052607381538281f3fe730000000000000000000000000000000000000000301460806040526004361061006c5760003560e01c8063054d50d414610071578063192128b2146100c757806332749461146101fe57806385f8c2591461029d578063ad615dec146102f3578063bb7b9c7614610349575b600080fd5b6100b16004803603606081101561008757600080fd5b81019080803590602001909291908035906020019092919080359060200190929190505050610480565b6040518082815260200191505060405180910390f35b6101a7600480360360608110156100dd57600080fd5b81019080803573ffffffffffffffffffffffffffffffffffffffff169060200190929190803590602001909291908035906020019064010000000081111561012457600080fd5b82018360208201111561013657600080fd5b8035906020019184602083028401116401000000008311171561015857600080fd5b919080806020026020016040519081016040528093929190818152602001838360200280828437600081840152601f19601f820116905080830192505050505050509192919290505050610570565b6040518080602001828103825283818151815260200191508051906020019060200280838360005b838110156101ea5780820151818401526020810190506101cf565b505050509050019250505060405180910390f35b6102806004803603606081101561021457600080fd5b81019080803573ffffffffffffffffffffffffffffffffffffffff169060200190929190803573ffffffffffffffffffffffffffffffffffffffff169060200190929190803573ffffffffffffffffffffffffffffffffffffffff1690602001909291905050506106df565b604051808381526020018281526020019250505060405180910390f35b6102dd600480360360608110156102b357600080fd5b8101908080359060200190929190803590602001909291908035906020019092919050505061080b565b6040518082815260200191505060405180910390f35b6103336004803603606081101561030957600080fd5b810190808035906020019092919080359060200190929190803590602001909291905050506108f8565b6040518082815260200191505060405180910390f35b6104296004803603606081101561035f57600080fd5b81019080803573ffffffffffffffffffffffffffffffffffffffff16906020019092919080359060200190929190803590602001906401000000008111156103a657600080fd5b8201836020820111156103b857600080fd5b803590602001918460208302840111640100000000831117156103da57600080fd5b919080806020026020016040519081016040528093929190818152602001838360200280828437600081840152601f19601f8201169050808301925050505050505091929192905050506109f9565b6040518080602001828103825283818151815260200191508051906020019060200280838360005b8381101561046c578082015181840152602081019050610451565b505050509050019250505060405180910390f35b60008084116104da576040517f08c379a0000000000000000000000000000000000000000000000000000000008152600401808060200182810382526025815260200180610de46025913960400191505060405180910390fd5b6000831180156104ea5750600082115b61053f576040517f08c379a0000000000000000000000000000000000000000000000000000000008152600401808060200182810382526022815260200180610d9c6022913960400191505060405180910390fd5b60006103e585029050600083820290506000826103e8870201905080828161056357fe5b0493505050509392505050565b60606002825110156105ea576040517f08c379a00000000000000000000000000000000000000000000000000000000081526004018080602001828103825260188152602001807f444e444c6962726172793a20494e56414c49445f50415448000000000000000081525060200191505060405180910390fd5b6060825160405190808252806020026020018201604052801561061c5781602001602082028038833980820191505090505b509050838160018351038151811061063057fe5b6020026020010181815250506000600184510390505b60008111156106d3576000806106868887600186038151811061066557fe5b602002602001015188868151811061067957fe5b60200260200101516106df565b915091506106a884848151811061069957fe5b6020026020010151838361080b565b8460018503815181106106b757fe5b6020026020010181815250505050808060019003915050610646565b50809150509392505050565b6000806000806106ef8686610b60565b91509150600080610701898585610bab565b73ffffffffffffffffffffffffffffffffffffffff16630902f1ac6040518163ffffffff1660e01b815260040160606040518083038186803b15801561074657600080fd5b505afa15801561075a573d6000803e3d6000fd5b505050506040513d606081101561077057600080fd5b81019080805190602001909291908051906020019092919080519060200190929190505050506dffffffffffffffffffffffffffff1691506dffffffffffffffffffffffffffff1691508373ffffffffffffffffffffffffffffffffffffffff168873ffffffffffffffffffffffffffffffffffffffff16146107f45780826107f7565b81815b809650819750505050505050935093915050565b6000808411610865576040517f08c379a0000000000000000000000000000000000000000000000000000000008152600401808060200182810382526026815260200180610dbe6026913960400191505060405180910390fd5b6000831180156108755750600082115b6108ca576040517f08c379a0000000000000000000000000000000000000000000000000000000008152600401808060200182810382526022815260200180610d9c6022913960400191505060405180910390fd5b60006103e885850202905060006103e586850302905060018183816108eb57fe5b0401925050509392505050565b600080841161096f576040517f08c379a000000000000000000000000000000000000000000000000000000000815260040180806020018281038252601f8152602001807f444e444c6962726172793a20494e53554646494349454e545f414d4f554e540081525060200191505060405180910390fd5b60008311801561097f5750600082115b6109d4576040517f08c379a0000000000000000000000000000000000000000000000000000000008152600401808060200182810382526022815260200180610d9c6022913960400191505060405180910390fd5b826109e88386610d0690919063ffffffff16565b816109ef57fe5b0490509392505050565b6060600282511015610a73576040517f08c379a00000000000000000000000000000000000000000000000000000000081526004018080602001828103825260188152602001807f444e444c6962726172793a20494e56414c49445f50415448000000000000000081525060200191505060405180910390fd5b60608251604051908082528060200260200182016040528015610aa55781602001602082028038833980820191505090505b5090508381600081518110610ab657fe5b60200260200101818152505060005b6001845103811015610b5457600080610b0888878581518110610ae457fe5b6020026020010151886001870181518110610afb57fe5b60200260200101516106df565b91509150610b2a848481518110610b1b57fe5b60200260200101518383610480565b846001850181518110610b3957fe5b60200260200101818152505050508080600101915050610ac5565b50809150509392505050565b6000808273ffffffffffffffffffffffffffffffffffffffff168473ffffffffffffffffffffffffffffffffffffffff1610610b9d578284610ba0565b83835b915091509250929050565b6000806000610bba8585610b60565b91509150858282604051602001808373ffffffffffffffffffffffffffffffffffffffff1673ffffffffffffffffffffffffffffffffffffffff1660601b81526014018273ffffffffffffffffffffffffffffffffffffffff1673ffffffffffffffffffffffffffffffffffffffff1660601b8152601401925050506040516020818303038152906040528051906020012060405160200180807fff000000000000000000000000000000000000000000000000000000000000008152506001018373ffffffffffffffffffffffffffffffffffffffff1673ffffffffffffffffffffffffffffffffffffffff1660601b8152601401828152602001807f8fc089c77dba5f7172b01e4eac15cdf8cebbc7ac893164e00a15968ab031467d815250602001925050506040516020818303038152906040528051906020012060001c925050509392505050565b600080821480610d235750828283850292508281610d2057fe5b04145b610d95576040517f08c379a00000000000000000000000000000000000000000000000000000000081526004018080602001828103825260148152602001807f64732d6d6174682d6d756c2d6f766572666c6f7700000000000000000000000081525060200191505060405180910390fd5b9291505056fe444e444c6962726172793a20494e53554646494349454e545f4c4951554944495459444e444c6962726172793a20494e53554646494349454e545f4f55545055545f414d4f554e54444e444c6962726172793a20494e53554646494349454e545f494e5055545f414d4f554e54a165627a7a72305820bd13f5d9005fe36b8230ee2db60480da9f06edc80359790ff4c5e80ff82a792a0029",
  "source": "// SPDX-License-Identifier: MIT\npragma solidity ^0.5.6;\n\nimport \"../interfaces/IDNDFactory.sol\";\nimport \"../interfaces/IDNDPair.sol\";\nimport \"./SafeMath.sol\";\n\nlibrary DNDLibrary {\n    using SafeMath for uint;\n\n    // fetches and sorts the reserves for a pair\n    function getReserves(\n        address factoryAddress,\n        address tokenA,\n        address tokenB\n    ) public view returns (uint256 reserveA, uint256 reserveB) {\n        (address token0, address token1) = sortTokens(tokenA, tokenB);\n        (uint256 reserve0, uint256 reserve1, ) = IDNDPair(\n            pairFor(factoryAddress, token0, token1)\n        ).getReserves();\n        (reserveA, reserveB) = tokenA == token0\n            ? (reserve0, reserve1)\n            : (reserve1, reserve0);\n    }\n\n    // given some amount of an asset and pair reserves, returns an equivalent amount of the other asset\n    function quote(\n        uint256 amountIn,\n        uint256 reserveIn,\n        uint256 reserveOut\n    ) public pure returns (uint256 amountOut) {\n        require(amountIn > 0, 'DNDLibrary: INSUFFICIENT_AMOUNT');\n        require(reserveIn > 0 && reserveOut > 0, 'DNDLibrary: INSUFFICIENT_LIQUIDITY');\n\n        return amountIn.mul(reserveOut) / reserveIn;\n    }\n\n    // returns sorted token addresses, used to handle return values from pairs sorted in this order\n    function sortTokens(address tokenA, address tokenB)\n        internal\n        pure\n        returns (address, address)\n    {\n        return tokenA < tokenB ? (tokenA, tokenB) : (tokenB, tokenA);\n    }\n\n    // calculates the CREATE2 address for a pair without making any external calls\n    //-- Then, this sequence of bytes gets hashed (keccak256) and converted to address (bytes->uint256->uint160->address).\n    // ref1) https://jeiwan.net/posts/programming-defi-uniswapv2-3/\n    // ref2) https://emn178.github.io/online-tools/keccak_256.html\n\n    /*\n        0xff : this first byte helps to avoid collisions with CREATE opcode. (More details are in EIP-1014.)\n        keccak256(abi.encodePacked(token0, token1)) : salt\n        hex : hash of pair contract bytecode – in the createPair function, we used creationCode to get this bytecode.\n    */\n    function pairFor(\n        address factoryAddress,\n        address tokenA,\n        address tokenB\n    ) internal pure returns (address pairAddress) {\n        (address token0, address token1) = sortTokens(tokenA, tokenB);\n        pairAddress = address(\n            uint160(\n                uint256(\n                    keccak256(\n                        abi.encodePacked(\n                            hex\"ff\",\n                            factoryAddress,\n                            keccak256(abi.encodePacked(token0, token1)),\n                            hex\"8fc089c77dba5f7172b01e4eac15cdf8cebbc7ac893164e00a15968ab031467d\"\n                        )\n                    )\n                )\n            )\n        );\n    }\n\n    // given an input amount of an asset and pair reserves, returns the maximum output amount of the other asset\n    function getAmountOut(\n        uint256 amountIn,\n        uint256 reserveIn,\n        uint256 reserveOut\n    ) public pure returns (uint256) {\n        require(amountIn > 0, 'DNDLibrary: INSUFFICIENT_INPUT_AMOUNT');\n        require(reserveIn > 0 && reserveOut > 0, 'DNDLibrary: INSUFFICIENT_LIQUIDITY');\n\n        uint256 amountInWithFee = amountIn * 997;\n        uint256 numerator = amountInWithFee * reserveOut;\n        uint256 denominator = (reserveIn * 1000) + amountInWithFee;\n\n        return numerator / denominator;\n    }\n\n    // performs chained getAmountOut calculations on any number of pairs\n    function getAmountsOut(\n        address factory,\n        uint256 amountIn,\n        address[] memory path\n    ) public view returns (uint256[] memory) {\n        require(path.length >= 2, 'DNDLibrary: INVALID_PATH');\n        uint256[] memory amounts = new uint256[](path.length);\n        amounts[0] = amountIn;\n\n        for (uint256 i; i < path.length - 1; i++) {\n            (uint256 reserve0, uint256 reserve1) = getReserves(\n                factory,\n                path[i],\n                path[i + 1]\n            );\n            amounts[i + 1] = getAmountOut(amounts[i], reserve0, reserve1);\n        }\n\n        return amounts;\n    }\n\n    // given an output amount of an asset and pair reserves, returns a required input amount of the other asset\n    function getAmountIn(\n        uint256 amountOut,\n        uint256 reserveIn,\n        uint256 reserveOut\n    ) public pure returns (uint256) {\n        require(amountOut > 0, 'DNDLibrary: INSUFFICIENT_OUTPUT_AMOUNT');\n        require(reserveIn > 0 && reserveOut > 0, 'DNDLibrary: INSUFFICIENT_LIQUIDITY');\n\n        uint256 numerator = reserveIn * amountOut * 1000;\n        uint256 denominator = (reserveOut - amountOut) * 997;\n\n        return (numerator / denominator) + 1;\n    }\n\n    // performs chained getAmountIn calculations on any number of pairs\n    function getAmountsIn(\n        address factory,\n        uint256 amountOut,\n        address[] memory path\n    ) public view returns (uint256[] memory) {\n        require(path.length >= 2, 'DNDLibrary: INVALID_PATH');\n\n        uint256[] memory amounts = new uint256[](path.length);\n        amounts[amounts.length - 1] = amountOut;\n\n        for (uint256 i = path.length - 1; i > 0; i--) {\n            (uint256 reserve0, uint256 reserve1) = getReserves(\n                factory,\n                path[i - 1],\n                path[i]\n            );\n            amounts[i - 1] = getAmountIn(amounts[i], reserve0, reserve1);\n        }\n\n        return amounts;\n    }\n}",
  "sourcePath": "/Users/baekdonghyun/Desktop/beb-03-DND/contract/contracts/V2/libraries/DNDLibrary.sol",
  "compiler": {
    "name": "solc",
    "version": "0.5.6+commit.b259423e.Emscripten.clang"
  },
  "schemaVersion": "3.4.5",
  "updatedAt": "2022-05-27T00:58:07.189Z",
  "devdoc": {
    "methods": {}
  },
  "userdoc": {
    "methods": {}
  }
}