{
  "contractName": "DNDPair",
  "abi": [
    {
      "constant": true,
      "inputs": [
        {
          "name": "interfaceId",
          "type": "bytes4"
        }
      ],
      "name": "supportsInterface",
      "outputs": [
        {
          "name": "",
          "type": "bool"
        }
      ],
      "payable": false,
      "stateMutability": "view",
      "type": "function"
    },
    {
      "constant": true,
      "inputs": [],
      "name": "name",
      "outputs": [
        {
          "name": "",
          "type": "string"
        }
      ],
      "payable": false,
      "stateMutability": "view",
      "type": "function"
    },
    {
      "constant": false,
      "inputs": [
        {
          "name": "spender",
          "type": "address"
        },
        {
          "name": "value",
          "type": "uint256"
        }
      ],
      "name": "approve",
      "outputs": [
        {
          "name": "",
          "type": "bool"
        }
      ],
      "payable": false,
      "stateMutability": "nonpayable",
      "type": "function"
    },
    {
      "constant": true,
      "inputs": [],
      "name": "token0",
      "outputs": [
        {
          "name": "",
          "type": "address"
        }
      ],
      "payable": false,
      "stateMutability": "view",
      "type": "function"
    },
    {
      "constant": true,
      "inputs": [],
      "name": "totalSupply",
      "outputs": [
        {
          "name": "",
          "type": "uint256"
        }
      ],
      "payable": false,
      "stateMutability": "view",
      "type": "function"
    },
    {
      "constant": false,
      "inputs": [
        {
          "name": "sender",
          "type": "address"
        },
        {
          "name": "recipient",
          "type": "address"
        },
        {
          "name": "amount",
          "type": "uint256"
        }
      ],
      "name": "transferFrom",
      "outputs": [
        {
          "name": "",
          "type": "bool"
        }
      ],
      "payable": false,
      "stateMutability": "nonpayable",
      "type": "function"
    },
    {
      "constant": true,
      "inputs": [],
      "name": "decimals",
      "outputs": [
        {
          "name": "",
          "type": "uint8"
        }
      ],
      "payable": false,
      "stateMutability": "view",
      "type": "function"
    },
    {
      "constant": false,
      "inputs": [
        {
          "name": "recipient",
          "type": "address"
        },
        {
          "name": "amount",
          "type": "uint256"
        }
      ],
      "name": "safeTransfer",
      "outputs": [],
      "payable": false,
      "stateMutability": "nonpayable",
      "type": "function"
    },
    {
      "constant": false,
      "inputs": [
        {
          "name": "sender",
          "type": "address"
        },
        {
          "name": "recipient",
          "type": "address"
        },
        {
          "name": "amount",
          "type": "uint256"
        }
      ],
      "name": "safeTransferFrom",
      "outputs": [],
      "payable": false,
      "stateMutability": "nonpayable",
      "type": "function"
    },
    {
      "constant": true,
      "inputs": [],
      "name": "price0CumulativeLast",
      "outputs": [
        {
          "name": "",
          "type": "uint256"
        }
      ],
      "payable": false,
      "stateMutability": "view",
      "type": "function"
    },
    {
      "constant": true,
      "inputs": [],
      "name": "price1CumulativeLast",
      "outputs": [
        {
          "name": "",
          "type": "uint256"
        }
      ],
      "payable": false,
      "stateMutability": "view",
      "type": "function"
    },
    {
      "constant": true,
      "inputs": [
        {
          "name": "account",
          "type": "address"
        }
      ],
      "name": "balanceOf",
      "outputs": [
        {
          "name": "",
          "type": "uint256"
        }
      ],
      "payable": false,
      "stateMutability": "view",
      "type": "function"
    },
    {
      "constant": true,
      "inputs": [],
      "name": "symbol",
      "outputs": [
        {
          "name": "",
          "type": "string"
        }
      ],
      "payable": false,
      "stateMutability": "view",
      "type": "function"
    },
    {
      "constant": false,
      "inputs": [
        {
          "name": "recipient",
          "type": "address"
        },
        {
          "name": "amount",
          "type": "uint256"
        }
      ],
      "name": "transfer",
      "outputs": [
        {
          "name": "",
          "type": "bool"
        }
      ],
      "payable": false,
      "stateMutability": "nonpayable",
      "type": "function"
    },
    {
      "constant": false,
      "inputs": [
        {
          "name": "sender",
          "type": "address"
        },
        {
          "name": "recipient",
          "type": "address"
        },
        {
          "name": "amount",
          "type": "uint256"
        },
        {
          "name": "data",
          "type": "bytes"
        }
      ],
      "name": "safeTransferFrom",
      "outputs": [],
      "payable": false,
      "stateMutability": "nonpayable",
      "type": "function"
    },
    {
      "constant": true,
      "inputs": [],
      "name": "MINIMUM_LIQUIDITY",
      "outputs": [
        {
          "name": "",
          "type": "uint256"
        }
      ],
      "payable": false,
      "stateMutability": "view",
      "type": "function"
    },
    {
      "constant": true,
      "inputs": [],
      "name": "token1",
      "outputs": [
        {
          "name": "",
          "type": "address"
        }
      ],
      "payable": false,
      "stateMutability": "view",
      "type": "function"
    },
    {
      "constant": true,
      "inputs": [
        {
          "name": "owner",
          "type": "address"
        },
        {
          "name": "spender",
          "type": "address"
        }
      ],
      "name": "allowance",
      "outputs": [
        {
          "name": "",
          "type": "uint256"
        }
      ],
      "payable": false,
      "stateMutability": "view",
      "type": "function"
    },
    {
      "constant": false,
      "inputs": [
        {
          "name": "recipient",
          "type": "address"
        },
        {
          "name": "amount",
          "type": "uint256"
        },
        {
          "name": "data",
          "type": "bytes"
        }
      ],
      "name": "safeTransfer",
      "outputs": [],
      "payable": false,
      "stateMutability": "nonpayable",
      "type": "function"
    },
    {
      "inputs": [],
      "payable": false,
      "stateMutability": "nonpayable",
      "type": "constructor"
    },
    {
      "anonymous": false,
      "inputs": [
        {
          "indexed": true,
          "name": "sender",
          "type": "address"
        },
        {
          "indexed": false,
          "name": "amount0",
          "type": "uint256"
        },
        {
          "indexed": false,
          "name": "amount1",
          "type": "uint256"
        }
      ],
      "name": "Mint",
      "type": "event"
    },
    {
      "anonymous": false,
      "inputs": [
        {
          "indexed": true,
          "name": "sender",
          "type": "address"
        },
        {
          "indexed": false,
          "name": "amount0",
          "type": "uint256"
        },
        {
          "indexed": false,
          "name": "amount1",
          "type": "uint256"
        },
        {
          "indexed": false,
          "name": "to",
          "type": "address"
        }
      ],
      "name": "Burn",
      "type": "event"
    },
    {
      "anonymous": false,
      "inputs": [
        {
          "indexed": true,
          "name": "sender",
          "type": "address"
        },
        {
          "indexed": false,
          "name": "amount0Out",
          "type": "uint256"
        },
        {
          "indexed": false,
          "name": "amount1Out",
          "type": "uint256"
        },
        {
          "indexed": true,
          "name": "to",
          "type": "address"
        }
      ],
      "name": "Swap",
      "type": "event"
    },
    {
      "anonymous": false,
      "inputs": [
        {
          "indexed": false,
          "name": "reserve0",
          "type": "uint256"
        },
        {
          "indexed": false,
          "name": "reserve1",
          "type": "uint256"
        }
      ],
      "name": "Sync",
      "type": "event"
    },
    {
      "anonymous": false,
      "inputs": [
        {
          "indexed": true,
          "name": "from",
          "type": "address"
        },
        {
          "indexed": true,
          "name": "to",
          "type": "address"
        },
        {
          "indexed": false,
          "name": "value",
          "type": "uint256"
        }
      ],
      "name": "Transfer",
      "type": "event"
    },
    {
      "anonymous": false,
      "inputs": [
        {
          "indexed": true,
          "name": "owner",
          "type": "address"
        },
        {
          "indexed": true,
          "name": "spender",
          "type": "address"
        },
        {
          "indexed": false,
          "name": "value",
          "type": "uint256"
        }
      ],
      "name": "Approval",
      "type": "event"
    },
    {
      "constant": false,
      "inputs": [
        {
          "name": "token0_",
          "type": "address"
        },
        {
          "name": "token1_",
          "type": "address"
        }
      ],
      "name": "initialize",
      "outputs": [],
      "payable": false,
      "stateMutability": "nonpayable",
      "type": "function"
    },
    {
      "constant": false,
      "inputs": [
        {
          "name": "to",
          "type": "address"
        }
      ],
      "name": "mint",
      "outputs": [
        {
          "name": "liquidity",
          "type": "uint256"
        }
      ],
      "payable": false,
      "stateMutability": "nonpayable",
      "type": "function"
    },
    {
      "constant": false,
      "inputs": [
        {
          "name": "to",
          "type": "address"
        }
      ],
      "name": "burn",
      "outputs": [
        {
          "name": "amount0",
          "type": "uint256"
        },
        {
          "name": "amount1",
          "type": "uint256"
        }
      ],
      "payable": false,
      "stateMutability": "nonpayable",
      "type": "function"
    },
    {
      "constant": false,
      "inputs": [
        {
          "name": "amount0Out",
          "type": "uint256"
        },
        {
          "name": "amount1Out",
          "type": "uint256"
        },
        {
          "name": "to",
          "type": "address"
        },
        {
          "name": "data",
          "type": "bytes"
        }
      ],
      "name": "swap",
      "outputs": [],
      "payable": false,
      "stateMutability": "nonpayable",
      "type": "function"
    },
    {
      "constant": false,
      "inputs": [],
      "name": "sync",
      "outputs": [],
      "payable": false,
      "stateMutability": "nonpayable",
      "type": "function"
    },
    {
      "constant": true,
      "inputs": [],
      "name": "getReserves",
      "outputs": [
        {
          "name": "",
          "type": "uint112"
        },
        {
          "name": "",
          "type": "uint112"
        },
        {
          "name": "",
          "type": "uint32"
        }
      ],
      "payable": false,
      "stateMutability": "view",
      "type": "function"
    }
  ],
  "bytecode": "0x60806040523480156200001157600080fd5b506040518060400160405280600781526020017f56322050616972000000000000000000000000000000000000000000000000008152506040518060400160405280600281526020017f56320000000000000000000000000000000000000000000000000000000000008152506012620000986301ffc9a760e01b6200011e60201b60201c565b620000b0636578737160e01b6200011e60201b60201c565b8260049080519060200190620000c892919062000227565b508160059080519060200190620000e192919062000227565b5080600660006101000a81548160ff021916908360ff1602179055506200011563a219a02560e01b6200011e60201b60201c565b505050620002d6565b63ffffffff60e01b817bffffffffffffffffffffffffffffffffffffffffffffffffffffffff19161415620001bb576040517f08c379a000000000000000000000000000000000000000000000000000000000815260040180806020018281038252601b8152602001807f4b495031333a20696e76616c696420696e74657266616365206964000000000081525060200191505060405180910390fd5b6001600080837bffffffffffffffffffffffffffffffffffffffffffffffffffffffff19167bffffffffffffffffffffffffffffffffffffffffffffffffffffffff1916815260200190815260200160002060006101000a81548160ff02191690831515021790555050565b828054600181600116156101000203166002900490600052602060002090601f016020900481019282601f106200026a57805160ff19168380011785556200029b565b828001600101855582156200029b579182015b828111156200029a5782518255916020019190600101906200027d565b5b509050620002aa9190620002ae565b5090565b620002d391905b80821115620002cf576000816000905550600101620002b5565b5090565b90565b6138a080620002e66000396000f3fe608060405234801561001057600080fd5b50600436106101735760003560e01c80635909c0d5116100de578063a9059cbb11610097578063d21220a711610071578063d21220a714610974578063dd62ed3e146109be578063eb79554914610a36578063fff6cae914610b1b57610173565b8063a9059cbb146107eb578063b88d4fde14610851578063ba9a7a561461095657610173565b80635909c0d51461061d5780635a3d54931461063b5780636a6278421461065957806370a08231146106b157806389afcb441461070957806395d89b411461076857610173565b806318160ddd1161013057806318160ddd1461043557806323b872dd14610453578063313ce567146104d9578063423f6cef146104fd57806342842e0e1461054b578063485cc955146105b957610173565b806301ffc9a714610178578063022c0d9f146101dd57806306fdde031461028a5780630902f1ac1461030d578063095ea7b3146103855780630dfe1681146103eb575b600080fd5b6101c36004803603602081101561018e57600080fd5b8101908080357bffffffffffffffffffffffffffffffffffffffffffffffffffffffff19169060200190929190505050610b25565b604051808215151515815260200191505060405180910390f35b610288600480360360808110156101f357600080fd5b810190808035906020019092919080359060200190929190803573ffffffffffffffffffffffffffffffffffffffff1690602001909291908035906020019064010000000081111561024457600080fd5b82018360208201111561025657600080fd5b8035906020019184600183028401116401000000008311171561027857600080fd5b9091929391929390505050610b8c565b005b610292611357565b6040518080602001828103825283818151815260200191508051906020019080838360005b838110156102d25780820151818401526020810190506102b7565b50505050905090810190601f1680156102ff5780820380516001836020036101000a031916815260200191505b509250505060405180910390f35b6103156113f9565b60405180846dffffffffffffffffffffffffffff166dffffffffffffffffffffffffffff168152602001836dffffffffffffffffffffffffffff166dffffffffffffffffffffffffffff1681526020018263ffffffff1663ffffffff168152602001935050505060405180910390f35b6103d16004803603604081101561039b57600080fd5b81019080803573ffffffffffffffffffffffffffffffffffffffff16906020019092919080359060200190929190505050611456565b604051808215151515815260200191505060405180910390f35b6103f361146d565b604051808273ffffffffffffffffffffffffffffffffffffffff1673ffffffffffffffffffffffffffffffffffffffff16815260200191505060405180910390f35b61043d611493565b6040518082815260200191505060405180910390f35b6104bf6004803603606081101561046957600080fd5b81019080803573ffffffffffffffffffffffffffffffffffffffff169060200190929190803573ffffffffffffffffffffffffffffffffffffffff1690602001909291908035906020019092919050505061149d565b604051808215151515815260200191505060405180910390f35b6104e161154e565b604051808260ff1660ff16815260200191505060405180910390f35b6105496004803603604081101561051357600080fd5b81019080803573ffffffffffffffffffffffffffffffffffffffff16906020019092919080359060200190929190505050611565565b005b6105b76004803603606081101561056157600080fd5b81019080803573ffffffffffffffffffffffffffffffffffffffff169060200190929190803573ffffffffffffffffffffffffffffffffffffffff16906020019092919080359060200190929190505050611583565b005b61061b600480360360408110156105cf57600080fd5b81019080803573ffffffffffffffffffffffffffffffffffffffff169060200190929190803573ffffffffffffffffffffffffffffffffffffffff1690602001909291905050506115a3565b005b610625611747565b6040518082815260200191505060405180910390f35b61064361174d565b6040518082815260200191505060405180910390f35b61069b6004803603602081101561066f57600080fd5b81019080803573ffffffffffffffffffffffffffffffffffffffff169060200190929190505050611753565b6040518082815260200191505060405180910390f35b6106f3600480360360208110156106c757600080fd5b81019080803573ffffffffffffffffffffffffffffffffffffffff169060200190929190505050611b13565b6040518082815260200191505060405180910390f35b61074b6004803603602081101561071f57600080fd5b81019080803573ffffffffffffffffffffffffffffffffffffffff169060200190929190505050611b5c565b604051808381526020018281526020019250505060405180910390f35b6107706120c0565b6040518080602001828103825283818151815260200191508051906020019080838360005b838110156107b0578082015181840152602081019050610795565b50505050905090810190601f1680156107dd5780820380516001836020036101000a031916815260200191505b509250505060405180910390f35b6108376004803603604081101561080157600080fd5b81019080803573ffffffffffffffffffffffffffffffffffffffff16906020019092919080359060200190929190505050612162565b604051808215151515815260200191505060405180910390f35b6109546004803603608081101561086757600080fd5b81019080803573ffffffffffffffffffffffffffffffffffffffff169060200190929190803573ffffffffffffffffffffffffffffffffffffffff16906020019092919080359060200190929190803590602001906401000000008111156108ce57600080fd5b8201836020820111156108e057600080fd5b8035906020019184600183028401116401000000008311171561090257600080fd5b91908080601f016020809104026020016040519081016040528093929190818152602001838380828437600081840152601f19601f820116905080830192505050505050509192919290505050612179565b005b61095e6121ec565b6040518082815260200191505060405180910390f35b61097c6121f2565b604051808273ffffffffffffffffffffffffffffffffffffffff1673ffffffffffffffffffffffffffffffffffffffff16815260200191505060405180910390f35b610a20600480360360408110156109d457600080fd5b81019080803573ffffffffffffffffffffffffffffffffffffffff169060200190929190803573ffffffffffffffffffffffffffffffffffffffff169060200190929190505050612218565b6040518082815260200191505060405180910390f35b610b1960048036036060811015610a4c57600080fd5b81019080803573ffffffffffffffffffffffffffffffffffffffff1690602001909291908035906020019092919080359060200190640100000000811115610a9357600080fd5b820183602082011115610aa557600080fd5b80359060200191846001830284011164010000000083111715610ac757600080fd5b91908080601f016020809104026020016040519081016040528093929190818152602001838380828437600081840152601f19601f82011690508083019250505050505050919291929050505061229f565b005b610b23612310565b005b6000806000837bffffffffffffffffffffffffffffffffffffffffffffffffffffffff19167bffffffffffffffffffffffffffffffffffffffffffffffffffffffff1916815260200190815260200160002060009054906101000a900460ff169050919050565b600b60009054906101000a900460ff1615610ba657600080fd5b6001600b60006101000a81548160ff0219169083151502179055506000851180610bd05750600084115b610c42576040517f08c379a000000000000000000000000000000000000000000000000000000000815260040180806020018281038252601a8152602001807f494e53554646494349454e545f4f55545055545f414d4f554e5400000000000081525060200191505060405180910390fd5b600080610c4d6113f9565b5091509150816dffffffffffffffffffffffffffff1687108015610c805750806dffffffffffffffffffffffffffff1686105b610cf2576040517f08c379a00000000000000000000000000000000000000000000000000000000081526004018080602001828103825260168152602001807f494e53554646494349454e545f4c49515549444954590000000000000000000081525060200191505060405180910390fd5b6000871115610d2957610d28600660019054906101000a900473ffffffffffffffffffffffffffffffffffffffff1686896124e2565b5b6000861115610d6057610d5f600760009054906101000a900473ffffffffffffffffffffffffffffffffffffffff1686886124e2565b5b6000848490501115610e48578473ffffffffffffffffffffffffffffffffffffffff166356013ce233898988886040518663ffffffff1660e01b8152600401808673ffffffffffffffffffffffffffffffffffffffff1673ffffffffffffffffffffffffffffffffffffffff168152602001858152602001848152602001806020018281038252848482818152602001925080828437600081840152601f19601f8201169050808301925050509650505050505050600060405180830381600087803b158015610e2f57600080fd5b505af1158015610e43573d6000803e3d6000fd5b505050505b6000600660019054906101000a900473ffffffffffffffffffffffffffffffffffffffff1673ffffffffffffffffffffffffffffffffffffffff166370a08231306040518263ffffffff1660e01b8152600401808273ffffffffffffffffffffffffffffffffffffffff1673ffffffffffffffffffffffffffffffffffffffff16815260200191505060206040518083038186803b158015610ee957600080fd5b505afa158015610efd573d6000803e3d6000fd5b505050506040513d6020811015610f1357600080fd5b810190808051906020019092919050505090506000600760009054906101000a900473ffffffffffffffffffffffffffffffffffffffff1673ffffffffffffffffffffffffffffffffffffffff166370a08231306040518263ffffffff1660e01b8152600401808273ffffffffffffffffffffffffffffffffffffffff1673ffffffffffffffffffffffffffffffffffffffff16815260200191505060206040518083038186803b158015610fc757600080fd5b505afa158015610fdb573d6000803e3d6000fd5b505050506040513d6020811015610ff157600080fd5b81019080805190602001909291905050509050600089600860009054906101000a90046dffffffffffffffffffffffffffff166dffffffffffffffffffffffffffff16038311611042576000611074565b89600860009054906101000a90046dffffffffffffffffffffffffffff166dffffffffffffffffffffffffffff160383035b90506000896008600e9054906101000a90046dffffffffffffffffffffffffffff166dffffffffffffffffffffffffffff160383116110b45760006110e6565b896008600e9054906101000a90046dffffffffffffffffffffffffffff166dffffffffffffffffffffffffffff160383035b905060008211806110f75750600081115b611169576040517f08c379a00000000000000000000000000000000000000000000000000000000081526004018080602001828103825260198152602001807f494e53554646494349454e545f494e5055545f414d4f554e540000000000000081525060200191505060405180910390fd5b60006111a561118260038561271290919063ffffffff16565b6111976103e88861271290919063ffffffff16565b61279890919063ffffffff16565b905060006111e36111c060038561271290919063ffffffff16565b6111d56103e88861271290919063ffffffff16565b61279890919063ffffffff16565b905061122d620f424061121f896dffffffffffffffffffffffffffff168b6dffffffffffffffffffffffffffff1661271290919063ffffffff16565b61271290919063ffffffff16565b611240828461271290919063ffffffff16565b10156112b4576040517f08c379a00000000000000000000000000000000000000000000000000000000081526004018080602001828103825260098152602001807f696e7661696c64204b000000000000000000000000000000000000000000000081525060200191505060405180910390fd5b6112c086868a8a6127e2565b8a73ffffffffffffffffffffffffffffffffffffffff163373ffffffffffffffffffffffffffffffffffffffff167f2a9237ff5aa599ef4c5ee4b1142b53429d5755e2685fe6288b2e3320202115f58f8f604051808381526020018281526020019250505060405180910390a350505050505050506000600b60006101000a81548160ff0219169083151502179055505050505050565b606060048054600181600116156101000203166002900480601f0160208091040260200160405190810160405280929190818152602001828054600181600116156101000203166002900480156113ef5780601f106113c4576101008083540402835291602001916113ef565b820191906000526020600020905b8154815290600101906020018083116113d257829003601f168201915b5050505050905090565b6000806000600860009054906101000a90046dffffffffffffffffffffffffffff166008600e9054906101000a90046dffffffffffffffffffffffffffff166008601c9054906101000a900463ffffffff16925092509250909192565b6000611463338484612b40565b6001905092915050565b600660019054906101000a900473ffffffffffffffffffffffffffffffffffffffff1681565b6000600354905090565b60006114aa848484612d37565b611543843361153e85600260008a73ffffffffffffffffffffffffffffffffffffffff1673ffffffffffffffffffffffffffffffffffffffff16815260200190815260200160002060003373ffffffffffffffffffffffffffffffffffffffff1673ffffffffffffffffffffffffffffffffffffffff1681526020019081526020016000205461279890919063ffffffff16565b612b40565b600190509392505050565b6000600660009054906101000a900460ff16905090565b61157f82826040518060200160405280600081525061229f565b5050565b61159e83838360405180602001604052806000815250612179565b505050565b600073ffffffffffffffffffffffffffffffffffffffff16600660019054906101000a900473ffffffffffffffffffffffffffffffffffffffff1673ffffffffffffffffffffffffffffffffffffffff1614801561164f5750600073ffffffffffffffffffffffffffffffffffffffff16600760009054906101000a900473ffffffffffffffffffffffffffffffffffffffff1673ffffffffffffffffffffffffffffffffffffffff16145b6116c1576040517f08c379a00000000000000000000000000000000000000000000000000000000081526004018080602001828103825260138152602001807f616c726561647920696e697469616c697a65640000000000000000000000000081525060200191505060405180910390fd5b81600660016101000a81548173ffffffffffffffffffffffffffffffffffffffff021916908373ffffffffffffffffffffffffffffffffffffffff16021790555080600760006101000a81548173ffffffffffffffffffffffffffffffffffffffff021916908373ffffffffffffffffffffffffffffffffffffffff1602179055505050565b60095481565b600a5481565b60008060006117606113f9565b50915091506000600660019054906101000a900473ffffffffffffffffffffffffffffffffffffffff1673ffffffffffffffffffffffffffffffffffffffff166370a08231306040518263ffffffff1660e01b8152600401808273ffffffffffffffffffffffffffffffffffffffff1673ffffffffffffffffffffffffffffffffffffffff16815260200191505060206040518083038186803b15801561180657600080fd5b505afa15801561181a573d6000803e3d6000fd5b505050506040513d602081101561183057600080fd5b810190808051906020019092919050505090506000600760009054906101000a900473ffffffffffffffffffffffffffffffffffffffff1673ffffffffffffffffffffffffffffffffffffffff166370a08231306040518263ffffffff1660e01b8152600401808273ffffffffffffffffffffffffffffffffffffffff1673ffffffffffffffffffffffffffffffffffffffff16815260200191505060206040518083038186803b1580156118e457600080fd5b505afa1580156118f8573d6000803e3d6000fd5b505050506040513d602081101561190e57600080fd5b810190808051906020019092919050505090506000611946856dffffffffffffffffffffffffffff168461279890919063ffffffff16565b9050600061196d856dffffffffffffffffffffffffffff168461279890919063ffffffff16565b90506000611979611493565b14156119b5576119ae6103e86119a061199b848661271290919063ffffffff16565b612fd7565b61279890919063ffffffff16565b9650611a26565b611a23866dffffffffffffffffffffffffffff166119e36119d4611493565b8561271290919063ffffffff16565b816119ea57fe5b04866dffffffffffffffffffffffffffff16611a16611a07611493565b8561271290919063ffffffff16565b81611a1d57fe5b04613039565b96505b60008711611a9c576040517f08c379a000000000000000000000000000000000000000000000000000000000815260040180806020018281038252601d8152602001807f494e53554646494349454e545f4c49515549444954595f4d494e54454400000081525060200191505060405180910390fd5b611aa68888613052565b611ab2848488886127e2565b3373ffffffffffffffffffffffffffffffffffffffff167f4c209b5fc8ad50758f13e2e1088ba56a560dff690a1c6fef26394f4c03821c4f8383604051808381526020018281526020019250505060405180910390a2505050505050919050565b6000600160008373ffffffffffffffffffffffffffffffffffffffff1673ffffffffffffffffffffffffffffffffffffffff168152602001908152602001600020549050919050565b6000806000600660019054906101000a900473ffffffffffffffffffffffffffffffffffffffff1673ffffffffffffffffffffffffffffffffffffffff166370a08231306040518263ffffffff1660e01b8152600401808273ffffffffffffffffffffffffffffffffffffffff1673ffffffffffffffffffffffffffffffffffffffff16815260200191505060206040518083038186803b158015611c0057600080fd5b505afa158015611c14573d6000803e3d6000fd5b505050506040513d6020811015611c2a57600080fd5b810190808051906020019092919050505090506000600760009054906101000a900473ffffffffffffffffffffffffffffffffffffffff1673ffffffffffffffffffffffffffffffffffffffff166370a08231306040518263ffffffff1660e01b8152600401808273ffffffffffffffffffffffffffffffffffffffff1673ffffffffffffffffffffffffffffffffffffffff16815260200191505060206040518083038186803b158015611cde57600080fd5b505afa158015611cf2573d6000803e3d6000fd5b505050506040513d6020811015611d0857600080fd5b810190808051906020019092919050505090506000611d2630611b13565b9050611d30611493565b611d43848361271290919063ffffffff16565b81611d4a57fe5b049450611d55611493565b611d68838361271290919063ffffffff16565b81611d6f57fe5b049350600085118015611d825750600084115b611df4576040517f08c379a000000000000000000000000000000000000000000000000000000000815260040180806020018281038252601d8152602001807f494e53554646494349454e545f4c49515549444954595f4255524e454400000081525060200191505060405180910390fd5b611dfe308261320f565b611e2b600660019054906101000a900473ffffffffffffffffffffffffffffffffffffffff1687876124e2565b611e58600760009054906101000a900473ffffffffffffffffffffffffffffffffffffffff1687866124e2565b600660019054906101000a900473ffffffffffffffffffffffffffffffffffffffff1673ffffffffffffffffffffffffffffffffffffffff166370a08231306040518263ffffffff1660e01b8152600401808273ffffffffffffffffffffffffffffffffffffffff1673ffffffffffffffffffffffffffffffffffffffff16815260200191505060206040518083038186803b158015611ef757600080fd5b505afa158015611f0b573d6000803e3d6000fd5b505050506040513d6020811015611f2157600080fd5b81019080805190602001909291905050509250600760009054906101000a900473ffffffffffffffffffffffffffffffffffffffff1673ffffffffffffffffffffffffffffffffffffffff166370a08231306040518263ffffffff1660e01b8152600401808273ffffffffffffffffffffffffffffffffffffffff1673ffffffffffffffffffffffffffffffffffffffff16815260200191505060206040518083038186803b158015611fd357600080fd5b505afa158015611fe7573d6000803e3d6000fd5b505050506040513d6020811015611ffd57600080fd5b8101908080519060200190929190505050915060008061201b6113f9565b509150915061202c858584846127e2565b3373ffffffffffffffffffffffffffffffffffffffff167fdccd412f0b1252819cb1fd330b93224ca42612892bb3f4f789976e6d8193649688888b604051808481526020018381526020018273ffffffffffffffffffffffffffffffffffffffff1673ffffffffffffffffffffffffffffffffffffffff168152602001935050505060405180910390a25050505050915091565b606060058054600181600116156101000203166002900480601f0160208091040260200160405190810160405280929190818152602001828054600181600116156101000203166002900480156121585780601f1061212d57610100808354040283529160200191612158565b820191906000526020600020905b81548152906001019060200180831161213b57829003601f168201915b5050505050905090565b600061216f338484612d37565b6001905092915050565b61218484848461149d565b50612191848484846133cc565b6121e6576040517f08c379a000000000000000000000000000000000000000000000000000000000815260040180806020018281038252602e8152602001806137bd602e913960400191505060405180910390fd5b50505050565b6103e881565b600760009054906101000a900473ffffffffffffffffffffffffffffffffffffffff1681565b6000600260008473ffffffffffffffffffffffffffffffffffffffff1673ffffffffffffffffffffffffffffffffffffffff16815260200190815260200160002060008373ffffffffffffffffffffffffffffffffffffffff1673ffffffffffffffffffffffffffffffffffffffff16815260200190815260200160002054905092915050565b6122a98383612162565b506122b6338484846133cc565b61230b576040517f08c379a000000000000000000000000000000000000000000000000000000000815260040180806020018281038252602e8152602001806137bd602e913960400191505060405180910390fd5b505050565b60008061231b6113f9565b50915091506124de600660019054906101000a900473ffffffffffffffffffffffffffffffffffffffff1673ffffffffffffffffffffffffffffffffffffffff166370a08231306040518263ffffffff1660e01b8152600401808273ffffffffffffffffffffffffffffffffffffffff1673ffffffffffffffffffffffffffffffffffffffff16815260200191505060206040518083038186803b1580156123c257600080fd5b505afa1580156123d6573d6000803e3d6000fd5b505050506040513d60208110156123ec57600080fd5b8101908080519060200190929190505050600760009054906101000a900473ffffffffffffffffffffffffffffffffffffffff1673ffffffffffffffffffffffffffffffffffffffff166370a08231306040518263ffffffff1660e01b8152600401808273ffffffffffffffffffffffffffffffffffffffff1673ffffffffffffffffffffffffffffffffffffffff16815260200191505060206040518083038186803b15801561249c57600080fd5b505afa1580156124b0573d6000803e3d6000fd5b505050506040513d60208110156124c657600080fd5b810190808051906020019092919050505084846127e2565b5050565b600060608473ffffffffffffffffffffffffffffffffffffffff168484604051602401808373ffffffffffffffffffffffffffffffffffffffff1673ffffffffffffffffffffffffffffffffffffffff168152602001828152602001925050506040516020818303038152906040527fa9059cbb000000000000000000000000000000000000000000000000000000007bffffffffffffffffffffffffffffffffffffffffffffffffffffffff19166020820180517bffffffffffffffffffffffffffffffffffffffffffffffffffffffff83818316178352505050506040518082805190602001908083835b602083106125f257805182526020820191506020810190506020830392506125cf565b6001836020036101000a0380198251168184511680821785525050505050509050019150506000604051808303816000865af19150503d8060008114612654576040519150601f19603f3d011682016040523d82523d6000602084013e612659565b606091505b50915091508180156126995750600081511480612698575080806020019051602081101561268657600080fd5b81019080805190602001909291905050505b5b61270b576040517f08c379a000000000000000000000000000000000000000000000000000000000815260040180806020018281038252600f8152602001807f5452414e534645525f4641494c4544000000000000000000000000000000000081525060200191505060405180910390fd5b5050505050565b6000808314156127255760009050612792565b600082840290508284828161273657fe5b041461278d576040517f08c379a00000000000000000000000000000000000000000000000000000000081526004018080602001828103825260218152602001806138316021913960400191505060405180910390fd5b809150505b92915050565b60006127da83836040518060400160405280601e81526020017f536166654d6174683a207375627472616374696f6e206f766572666c6f7700008152506135b5565b905092915050565b7fffffffffffffffffffffffffffffffffffffffffffffffffffffffffffffffff6dffffffffffffffffffffffffffff16841115801561285257507fffffffffffffffffffffffffffffffffffffffffffffffffffffffffffffffff6dffffffffffffffffffffffffffff168311155b6128c4576040517f08c379a00000000000000000000000000000000000000000000000000000000081526004018080602001828103825260088152602001807f4f564552464c4f5700000000000000000000000000000000000000000000000081525060200191505060405180910390fd5b600064010000000042816128d457fe5b06905060006008601c9054906101000a900463ffffffff168203905060008163ffffffff1611801561291757506000846dffffffffffffffffffffffffffff1614155b801561293457506000836dffffffffffffffffffffffffffff1614155b15612a16578063ffffffff166129798561294d86613675565b7bffffffffffffffffffffffffffffffffffffffffffffffffffffffff166136a090919063ffffffff16565b7bffffffffffffffffffffffffffffffffffffffffffffffffffffffff16026009600082825401925050819055508063ffffffff166129e7846129bb87613675565b7bffffffffffffffffffffffffffffffffffffffffffffffffffffffff166136a090919063ffffffff16565b7bffffffffffffffffffffffffffffffffffffffffffffffffffffffff1602600a600082825401925050819055505b85600860006101000a8154816dffffffffffffffffffffffffffff02191690836dffffffffffffffffffffffffffff160217905550846008600e6101000a8154816dffffffffffffffffffffffffffff02191690836dffffffffffffffffffffffffffff160217905550816008601c6101000a81548163ffffffff021916908363ffffffff1602179055507fcf2aa50876cdfbb541206f89af0ee78d44a2abf8d328e37fa4917f982149848a600860009054906101000a90046dffffffffffffffffffffffffffff166008600e9054906101000a90046dffffffffffffffffffffffffffff1660405180836dffffffffffffffffffffffffffff168152602001826dffffffffffffffffffffffffffff1681526020019250505060405180910390a1505050505050565b600073ffffffffffffffffffffffffffffffffffffffff168373ffffffffffffffffffffffffffffffffffffffff161415612bc6576040517f08c379a00000000000000000000000000000000000000000000000000000000081526004018080602001828103825260238152602001806138526023913960400191505060405180910390fd5b600073ffffffffffffffffffffffffffffffffffffffff168273ffffffffffffffffffffffffffffffffffffffff161415612c4c576040517f08c379a000000000000000000000000000000000000000000000000000000000815260040180806020018281038252602181526020018061379c6021913960400191505060405180910390fd5b80600260008573ffffffffffffffffffffffffffffffffffffffff1673ffffffffffffffffffffffffffffffffffffffff16815260200190815260200160002060008473ffffffffffffffffffffffffffffffffffffffff1673ffffffffffffffffffffffffffffffffffffffff168152602001908152602001600020819055508173ffffffffffffffffffffffffffffffffffffffff168373ffffffffffffffffffffffffffffffffffffffff167f8c5be1e5ebec7d5bd14f71427d1e84f3dd0314c0f7b2291e5b200ac8c7c3b925836040518082815260200191505060405180910390a3505050565b600073ffffffffffffffffffffffffffffffffffffffff168373ffffffffffffffffffffffffffffffffffffffff161415612dbd576040517f08c379a000000000000000000000000000000000000000000000000000000000815260040180806020018281038252602481526020018061380d6024913960400191505060405180910390fd5b600073ffffffffffffffffffffffffffffffffffffffff168273ffffffffffffffffffffffffffffffffffffffff161415612e43576040517f08c379a00000000000000000000000000000000000000000000000000000000081526004018080602001828103825260228152602001806137eb6022913960400191505060405180910390fd5b612e9581600160008673ffffffffffffffffffffffffffffffffffffffff1673ffffffffffffffffffffffffffffffffffffffff1681526020019081526020016000205461279890919063ffffffff16565b600160008573ffffffffffffffffffffffffffffffffffffffff1673ffffffffffffffffffffffffffffffffffffffff16815260200190815260200160002081905550612f2a81600160008573ffffffffffffffffffffffffffffffffffffffff1673ffffffffffffffffffffffffffffffffffffffff1681526020019081526020016000205461370090919063ffffffff16565b600160008473ffffffffffffffffffffffffffffffffffffffff1673ffffffffffffffffffffffffffffffffffffffff168152602001908152602001600020819055508173ffffffffffffffffffffffffffffffffffffffff168373ffffffffffffffffffffffffffffffffffffffff167fddf252ad1be2c89b69c2b068fc378daa952ba7f163c4a11628f55a4df523b3ef836040518082815260200191505060405180910390a3505050565b60006003821115613026578190506000600160028481612ff357fe5b040190505b818110156130205780915060028182858161300f57fe5b04018161301857fe5b049050612ff8565b50613034565b6000821461303357600190505b5b919050565b6000818310613048578161304a565b825b905092915050565b600073ffffffffffffffffffffffffffffffffffffffff168273ffffffffffffffffffffffffffffffffffffffff1614156130f5576040517f08c379a000000000000000000000000000000000000000000000000000000000815260040180806020018281038252601e8152602001807f4b4950373a206d696e7420746f20746865207a65726f2061646472657373000081525060200191505060405180910390fd5b61310a8160035461370090919063ffffffff16565b60038190555061316281600160008573ffffffffffffffffffffffffffffffffffffffff1673ffffffffffffffffffffffffffffffffffffffff1681526020019081526020016000205461370090919063ffffffff16565b600160008473ffffffffffffffffffffffffffffffffffffffff1673ffffffffffffffffffffffffffffffffffffffff168152602001908152602001600020819055508173ffffffffffffffffffffffffffffffffffffffff16600073ffffffffffffffffffffffffffffffffffffffff167fddf252ad1be2c89b69c2b068fc378daa952ba7f163c4a11628f55a4df523b3ef836040518082815260200191505060405180910390a35050565b600073ffffffffffffffffffffffffffffffffffffffff168273ffffffffffffffffffffffffffffffffffffffff1614156132b2576040517f08c379a00000000000000000000000000000000000000000000000000000000081526004018080602001828103825260208152602001807f4b4950373a206275726e2066726f6d20746865207a65726f206164647265737381525060200191505060405180910390fd5b6132c78160035461279890919063ffffffff16565b60038190555061331f81600160008573ffffffffffffffffffffffffffffffffffffffff1673ffffffffffffffffffffffffffffffffffffffff1681526020019081526020016000205461279890919063ffffffff16565b600160008473ffffffffffffffffffffffffffffffffffffffff1673ffffffffffffffffffffffffffffffffffffffff16815260200190815260200160002081905550600073ffffffffffffffffffffffffffffffffffffffff168273ffffffffffffffffffffffffffffffffffffffff167fddf252ad1be2c89b69c2b068fc378daa952ba7f163c4a11628f55a4df523b3ef836040518082815260200191505060405180910390a35050565b60006133ed8473ffffffffffffffffffffffffffffffffffffffff16613788565b6133fa57600190506135ad565b60008473ffffffffffffffffffffffffffffffffffffffff16639d188c22338887876040518563ffffffff1660e01b8152600401808573ffffffffffffffffffffffffffffffffffffffff1673ffffffffffffffffffffffffffffffffffffffff1681526020018473ffffffffffffffffffffffffffffffffffffffff1673ffffffffffffffffffffffffffffffffffffffff16815260200183815260200180602001828103825283818151815260200191508051906020019080838360005b838110156134d55780820151818401526020810190506134ba565b50505050905090810190601f1680156135025780820380516001836020036101000a031916815260200191505b5095505050505050602060405180830381600087803b15801561352457600080fd5b505af1158015613538573d6000803e3d6000fd5b505050506040513d602081101561354e57600080fd5b81019080805190602001909291905050509050639d188c2260e01b7bffffffffffffffffffffffffffffffffffffffffffffffffffffffff1916817bffffffffffffffffffffffffffffffffffffffffffffffffffffffff1916149150505b949350505050565b6000838311158290613662576040517f08c379a00000000000000000000000000000000000000000000000000000000081526004018080602001828103825283818151815260200191508051906020019080838360005b8381101561362757808201518184015260208101905061360c565b50505050905090810190601f1680156136545780820380516001836020036101000a031916815260200191505b509250505060405180910390fd5b5060008385039050809150509392505050565b60006e010000000000000000000000000000826dffffffffffffffffffffffffffff16029050919050565b6000816dffffffffffffffffffffffffffff167bffffffffffffffffffffffffffffffffffffffffffffffffffffffff16837bffffffffffffffffffffffffffffffffffffffffffffffffffffffff16816136f757fe5b04905092915050565b60008082840190508381101561377e576040517f08c379a000000000000000000000000000000000000000000000000000000000815260040180806020018281038252601b8152602001807f536166654d6174683a206164646974696f6e206f766572666c6f77000000000081525060200191505060405180910390fd5b8091505092915050565b600080823b90506000811191505091905056fe4b4950373a20617070726f766520746f20746865207a65726f20616464726573734b4950373a207472616e7366657220746f206e6f6e204b495037526563656976657220696d706c656d656e7465724b4950373a207472616e7366657220746f20746865207a65726f20616464726573734b4950373a207472616e736665722066726f6d20746865207a65726f2061646472657373536166654d6174683a206d756c7469706c69636174696f6e206f766572666c6f774b4950373a20617070726f76652066726f6d20746865207a65726f2061646472657373a165627a7a7230582092df5a405d98f4384f1623ab55aeb426544031f358daaab7367752651bcfc5970029",
  "source": "// SPDX-License-Identifier: MIT\r\npragma solidity ^0.5.6;\r\n\r\n// import \"@klaytn/contracts/token/KIP7/KIP7.sol\";\r\nimport \"./libraries/Math.sol\";\r\nimport \"./libraries/UQ112x112.sol\";\r\nimport \"./DNDToken.sol\";\r\nimport \"@klaytn/contracts/token/KIP7/KIP7.sol\";\r\nimport \"@klaytn/contracts/token/KIP7/KIP7Metadata.sol\";\r\nimport \"./interfaces/IDNDCallee.sol\";\r\n\r\ncontract DNDPair is KIP7, KIP7Metadata, Math {\r\n    using SafeMath  for uint;\r\n    using UQ112x112 for uint224;\r\n\r\n    uint256 public constant MINIMUM_LIQUIDITY = 1000; //  LP     liquidity burn     \r\n\r\n    // address public factory;             // factory contract address\r\n    address public token0;              // token0  contract address\r\n    address public token1;              // token0  contract address\r\n\r\n    uint112 private reserve0;           // DNDPair   token0 (balance )\r\n    uint112 private reserve1;           // DNDPair   token1 (balance )\r\n    uint32  private blockTimestampLast; // uses single storage slot, accessible via getReserves\r\n\r\n    uint public price0CumulativeLast;   //   price oracle  (public)\r\n    uint public price1CumulativeLast;   //   price oracle  (public)\r\n\r\n    bool private isEntered;\r\n\r\n    event Mint(address indexed sender, uint256 amount0, uint256 amount1);\r\n    event Burn(address indexed sender, uint256 amount0, uint256 amount1, address to);\r\n    event Swap(\r\n        address indexed sender,\r\n        uint amount0Out,\r\n        uint amount1Out,\r\n        address indexed to\r\n    );\r\n    event Sync(uint256 reserve0, uint256 reserve1);\r\n\r\n    modifier nonReentrant() {\r\n        require(!isEntered);\r\n        isEntered = true;\r\n\r\n        _;\r\n\r\n        isEntered = false;\r\n    }\r\n\r\n    constructor() KIP7Metadata(\"V2 Pair\", \"V2\", 18) public {}\r\n\r\n    // called once by the factory at time of deployment\r\n    function initialize(address token0_, address token1_) external {\r\n        require(token0 == address(0) && token1 == address(0), 'already initialized');\r\n\r\n        token0 = token0_;\r\n        token1 = token1_;\r\n    }\r\n\r\n    /*\r\n    (this low-level function should be called from a contract which performs important safety checks)\r\n        - mint : LP (LP Share)  \r\n        - burn : LP (LP Share)  \r\n\r\n        DNDPair contract   token0, token1   \r\n         token0, token1 contract      \r\n           > pair   : mint,  < pair : burn \r\n\r\n        _reserve0, _reserve1 : pair   token0, token1 ( balance  balance)\r\n        balance0, balance1 :  token0, token1 \r\n        amount0, amount1 :   - pair  (  amount)\r\n    */\r\n    function mint(address to) public returns (uint256 liquidity) {\r\n        (uint112 reserve0_, uint112 reserve1_, ) = getReserves(); // gas savings\r\n        \r\n        uint balance0 = IKIP7(token0).balanceOf(address(this));\r\n        uint balance1 = IKIP7(token1).balanceOf(address(this));\r\n        uint amount0 = balance0.sub(reserve0_);\r\n        uint amount1 = balance1.sub(reserve1_);\r\n\r\n        //    pair  , 1 LP 1000(MINIMUM_LIQUIDITY)   burn( )\r\n        if (totalSupply() == 0) {\r\n\r\n            //  liquidity(LP  ) : (amount0, amount1   - MINIMUM_LIQUIDITY)\r\n            liquidity = Math.sqrt(amount0.mul(amount1)).sub(MINIMUM_LIQUIDITY);\r\n            // MINIMUM_LIQUIDITY  mint  0  ( ,  burn)\r\n            //_mint(address(0), MINIMUM_LIQUIDITY); // permanently lock the first MINIMUM_LIQUIDITY tokens\r\n\r\n        } else {\r\n\r\n            //    ,  \r\n            // inflation0 = totalSupply * amount0 / reserve0 \r\n            // inflation1 = totalSupply * amount1 / reserve1\r\n            //     inflation  liquidity  ( LP )\r\n            liquidity = Math.min(amount0.mul(totalSupply()) / reserve0_,\r\n                                 amount1.mul(totalSupply()) / reserve1_);\r\n        }\r\n        require(liquidity > 0, 'INSUFFICIENT_LIQUIDITY_MINTED');\r\n\r\n        //     LP   \r\n        _mint(to, liquidity);\r\n\r\n        // pair  reserve0, reserve1, kLast update (, kLast   )\r\n        _update(balance0, balance1, reserve0_, reserve1_);\r\n \r\n        emit Mint(msg.sender, amount0, amount1);\r\n    }\r\n\r\n    //  mint   ,    liquidity     amount    .\r\n    function burn(address to) public returns (uint256 amount0, uint256 amount1) {\r\n        \r\n        uint256 balance0 = IKIP7(token0).balanceOf(address(this)); // to  A   balance\r\n        uint256 balance1 = IKIP7(token1).balanceOf(address(this)); // to  B   balance\r\n        uint256 liquidity = balanceOf(address(this)); // to  LP   balance\r\n\r\n        // amount =  LP liquidity (liquidity * balance) /    (totalSupply))\r\n        amount0 = liquidity.mul(balance0) / totalSupply(); //  LP    to  LP  (to A LP  )\r\n        amount1 = liquidity.mul(balance1) / totalSupply(); //  LP    to  LP  (to B LP  )\r\n        \r\n        require(amount0 > 0 && amount1 > 0, 'INSUFFICIENT_LIQUIDITY_BURNED');\r\n\r\n        //   amount  transfer. \r\n        _burn(address(this), liquidity);\r\n\r\n        _safeTransfer(token0, to, amount0); // to A   liquidity tokenA  \r\n        _safeTransfer(token1, to, amount1); // to B   liquidity tokenB  \r\n\r\n        // pair  reserve0, reserve1, kLast update (, kLast   )\r\n        balance0 = IKIP7(token0).balanceOf(address(this));\r\n        balance1 = IKIP7(token1).balanceOf(address(this));\r\n\r\n        (uint112 reserve0_, uint112 reserve1_, ) = getReserves();\r\n        _update(balance0, balance1, reserve0_, reserve1_);\r\n\r\n        emit Burn(msg.sender, amount0, amount1, to);\r\n    }\r\n    /*\r\n    (this low-level function should be called from a contract which performs important safety checks)\r\n        - swap:  ERC20     (eth, klay  wrapped  ERC-20 )\r\n                  , DNDPair token0  token1      \r\n                 swap   swap.\r\n\r\n                reserve  pair  ,    balance pair      \r\n                amountOut   transfer  ,\r\n                        \r\n                   amountIn    , \r\n                 flash loan   .\r\n    */\r\n    function swap(uint amount0Out, uint amount1Out, address to, bytes calldata data) external nonReentrant {\r\n        require(amount0Out > 0 || amount1Out > 0, 'INSUFFICIENT_OUTPUT_AMOUNT');\r\n\r\n        (uint112 reserve0_, uint112 reserve1_, ) = getReserves();\r\n        \r\n        require(amount0Out < reserve0_ && amount1Out < reserve1_, 'INSUFFICIENT_LIQUIDITY');\r\n\r\n        // in    amount  .\r\n        if (amount0Out > 0) _safeTransfer(token0, to, amount0Out);\r\n        if (amount1Out > 0) _safeTransfer(token1, to, amount1Out);\r\n\r\n        // calldata  call .\r\n        if (data.length > 0) IDNDCallee(to).DNDCall(msg.sender, amount0Out, amount1Out, data);\r\n\r\n        // swap      balance .\r\n        uint256 balance0 = IKIP7(token0).balanceOf(address(this));\r\n        uint256 balance1 = IKIP7(token1).balanceOf(address(this));\r\n\r\n        // address _token0 = token0;\r\n        // address _token1 = token1;\r\n        // require(to != _token0 && to != _token1, 'INVALID_TO');\r\n\r\n\r\n        // out     balance  , \r\n        // pair   reserve out   balance   \r\n        //  amountIn  .\r\n        uint256 amount0In = balance0 > reserve0 - amount0Out\r\n            ? balance0 - (reserve0 - amount0Out)\r\n            : 0;\r\n        uint256 amount1In = balance1 > reserve1 - amount1Out\r\n            ? balance1 - (reserve1 - amount1Out)\r\n            : 0;\r\n\r\n        require(amount0In > 0 || amount1In > 0, 'INSUFFICIENT_INPUT_AMOUNT');\r\n        \r\n        // 0.3%      \r\n        uint balance0Adjusted = balance0.mul(1000).sub(amount0In.mul(3));\r\n        uint balance1Adjusted = balance1.mul(1000).sub(amount1In.mul(3));\r\n\r\n        require(balance0Adjusted.mul(balance1Adjusted) >= uint(reserve0_).mul(reserve1_).mul(1000**2), 'invaild K');\r\n\r\n        _update(balance0, balance1, reserve0_, reserve1_);\r\n\r\n        emit Swap(msg.sender, amount0Out, amount1Out, to);\r\n    }\r\n\r\n    /*\r\n        - sync : skim ,     imbalance    balance  \r\n    */\r\n    // force reserves to match balances\r\n    function sync() public {\r\n        (uint112 reserve0_, uint112 reserve1_, ) = getReserves();\r\n        _update(\r\n            IKIP7(token0).balanceOf(address(this)),\r\n            IKIP7(token1).balanceOf(address(this)),\r\n            reserve0_,\r\n            reserve1_\r\n        );\r\n    }\r\n\r\n    function getReserves() public view returns (uint112, uint112, uint32) {\r\n        return (reserve0, reserve1, blockTimestampLast);\r\n    }\r\n\r\n    //\r\n    //\r\n    //\r\n    //  PRIVATE\r\n    //\r\n    //\r\n    //\r\n\r\n    /*\r\n        _update : update reserves and, on the first call per block, price accumulators\r\n\r\n        1.     token0, token1     update   \r\n           ex) reserve  balance       \r\n        2. price oracle   ( price        )\r\n           ex)     price0CumulativeLast         \r\n    */\r\n    function _update(uint balance0, uint balance1, uint112 _reserve0, uint112 _reserve1) private {\r\n        require(balance0 <= uint112(-1) && balance1 <= uint112(-1), 'OVERFLOW');\r\n        uint32 blockTimestamp = uint32(block.timestamp % 2**32);\r\n        uint32 timeElapsed = blockTimestamp - blockTimestampLast; // overflow is desired\r\n        if (timeElapsed > 0 && _reserve0 != 0 && _reserve1 != 0) {\r\n            // * never overflows, and + overflow is desired\r\n            price0CumulativeLast += uint(UQ112x112.encode(_reserve1).uqdiv(_reserve0)) * timeElapsed;\r\n            price1CumulativeLast += uint(UQ112x112.encode(_reserve0).uqdiv(_reserve1)) * timeElapsed;\r\n        }\r\n        reserve0 = uint112(balance0);\r\n        reserve1 = uint112(balance1);\r\n        blockTimestampLast = blockTimestamp;\r\n        emit Sync(reserve0, reserve1);\r\n    }\r\n\r\n    function _safeTransfer(\r\n        address token,\r\n        address to,\r\n        uint256 value\r\n    ) private {\r\n        (bool success, bytes memory data) = token.call(\r\n            abi.encodeWithSignature(\"transfer(address,uint256)\", to, value)\r\n        );\r\n        require(success && (data.length == 0 || abi.decode(data, (bool))), 'TRANSFER_FAILED');\r\n    }\r\n}",
  "sourcePath": "D:\\GitHub\\beb-03-DND\\contract\\contracts\\V2\\DNDPair.sol",
  "compiler": {
    "name": "solc",
    "version": "0.5.6+commit.b259423e.Emscripten.clang"
  },
  "schemaVersion": "3.4.7",
  "updatedAt": "2022-05-31T01:50:09.340Z",
  "devdoc": {
    "methods": {
      "allowance(address,address)": {
        "details": "See `IKIP7.allowance`."
      },
      "approve(address,uint256)": {
        "details": "See `IKIP7.approve`.     * Requirements:     * - `spender` cannot be the zero address."
      },
      "balanceOf(address)": {
        "details": "See `IKIP7.balanceOf`."
      },
      "decimals()": {
        "details": "Returns the number of decimals used to get its user representation. For example, if `decimals` equals `2`, a balance of `505` tokens should be displayed to a user as `5,05` (`505 / 10 ** 2`).     * Tokens usually opt for a value of 18, imitating the relationship between Ether and Wei.     * > Note that this information is only used for _display_ purposes: it in no way affects any of the arithmetic of the contract, including `IKIP7.balanceOf` and `IKIP7.transfer`."
      },
      "name()": {
        "details": "Returns the name of the token."
      },
      "safeTransfer(address,uint256)": {
        "details": "Moves `amount` tokens from the caller's account to `recipient`."
      },
      "safeTransfer(address,uint256,bytes)": {
        "details": "Moves `amount` tokens from the caller's account to `recipient`."
      },
      "safeTransferFrom(address,address,uint256)": {
        "details": "Moves `amount` tokens from `sender` to `recipient` using the allowance mechanism. `amount` is then deducted from the caller's allowance."
      },
      "safeTransferFrom(address,address,uint256,bytes)": {
        "details": "Moves `amount` tokens from `sender` to `recipient` using the allowance mechanism. `amount` is then deducted from the caller's allowance."
      },
      "supportsInterface(bytes4)": {
        "details": "See `IKIP13.supportsInterface`.     * Time complexity O(1), guaranteed to always use less than 30 000 gas."
      },
      "symbol()": {
        "details": "Returns the symbol of the token, usually a shorter version of the name."
      },
      "totalSupply()": {
        "details": "See `IKIP7.totalSupply`."
      },
      "transfer(address,uint256)": {
        "details": "See `IKIP7.transfer`.     * Requirements:     * - `recipient` cannot be the zero address. - the caller must have a balance of at least `amount`."
      },
      "transferFrom(address,address,uint256)": {
        "details": "See `IKIP7.transferFrom`.     * Emits an `Approval` event indicating the updated allowance. This is not required by the KIP. See the note at the beginning of `KIP7`;     * Requirements: - `sender` and `recipient` cannot be the zero address. - `sender` must have a balance of at least `value`. - the caller must have allowance for `sender`'s tokens of at least `amount`."
      }
    }
  },
  "userdoc": {
    "methods": {}
  }
}