{
  "contractName": "DNDPair",
  "abi": [
    {
      "constant": true,
      "inputs": [
        {
          "name": "interfaceId",
          "type": "bytes4"
        }
      ],
      "name": "supportsInterface",
      "outputs": [
        {
          "name": "",
          "type": "bool"
        }
      ],
      "payable": false,
      "stateMutability": "view",
      "type": "function"
    },
    {
      "constant": true,
      "inputs": [],
      "name": "name",
      "outputs": [
        {
          "name": "",
          "type": "string"
        }
      ],
      "payable": false,
      "stateMutability": "view",
      "type": "function"
    },
    {
      "constant": false,
      "inputs": [
        {
          "name": "spender",
          "type": "address"
        },
        {
          "name": "value",
          "type": "uint256"
        }
      ],
      "name": "approve",
      "outputs": [
        {
          "name": "",
          "type": "bool"
        }
      ],
      "payable": false,
      "stateMutability": "nonpayable",
      "type": "function"
    },
    {
      "constant": true,
      "inputs": [],
      "name": "token0",
      "outputs": [
        {
          "name": "",
          "type": "address"
        }
      ],
      "payable": false,
      "stateMutability": "view",
      "type": "function"
    },
    {
      "constant": true,
      "inputs": [],
      "name": "totalSupply",
      "outputs": [
        {
          "name": "",
          "type": "uint256"
        }
      ],
      "payable": false,
      "stateMutability": "view",
      "type": "function"
    },
    {
      "constant": false,
      "inputs": [
        {
          "name": "sender",
          "type": "address"
        },
        {
          "name": "recipient",
          "type": "address"
        },
        {
          "name": "amount",
          "type": "uint256"
        }
      ],
      "name": "transferFrom",
      "outputs": [
        {
          "name": "",
          "type": "bool"
        }
      ],
      "payable": false,
      "stateMutability": "nonpayable",
      "type": "function"
    },
    {
      "constant": true,
      "inputs": [],
      "name": "decimals",
      "outputs": [
        {
          "name": "",
          "type": "uint8"
        }
      ],
      "payable": false,
      "stateMutability": "view",
      "type": "function"
    },
    {
      "constant": false,
      "inputs": [
        {
          "name": "recipient",
          "type": "address"
        },
        {
          "name": "amount",
          "type": "uint256"
        }
      ],
      "name": "safeTransfer",
      "outputs": [],
      "payable": false,
      "stateMutability": "nonpayable",
      "type": "function"
    },
    {
      "constant": false,
      "inputs": [
        {
          "name": "sender",
          "type": "address"
        },
        {
          "name": "recipient",
          "type": "address"
        },
        {
          "name": "amount",
          "type": "uint256"
        }
      ],
      "name": "safeTransferFrom",
      "outputs": [],
      "payable": false,
      "stateMutability": "nonpayable",
      "type": "function"
    },
    {
      "constant": true,
      "inputs": [],
      "name": "price0CumulativeLast",
      "outputs": [
        {
          "name": "",
          "type": "uint256"
        }
      ],
      "payable": false,
      "stateMutability": "view",
      "type": "function"
    },
    {
      "constant": true,
      "inputs": [],
      "name": "price1CumulativeLast",
      "outputs": [
        {
          "name": "",
          "type": "uint256"
        }
      ],
      "payable": false,
      "stateMutability": "view",
      "type": "function"
    },
    {
      "constant": true,
      "inputs": [
        {
          "name": "account",
          "type": "address"
        }
      ],
      "name": "balanceOf",
      "outputs": [
        {
          "name": "",
          "type": "uint256"
        }
      ],
      "payable": false,
      "stateMutability": "view",
      "type": "function"
    },
    {
      "constant": true,
      "inputs": [],
      "name": "symbol",
      "outputs": [
        {
          "name": "",
          "type": "string"
        }
      ],
      "payable": false,
      "stateMutability": "view",
      "type": "function"
    },
    {
      "constant": false,
      "inputs": [
        {
          "name": "recipient",
          "type": "address"
        },
        {
          "name": "amount",
          "type": "uint256"
        }
      ],
      "name": "transfer",
      "outputs": [
        {
          "name": "",
          "type": "bool"
        }
      ],
      "payable": false,
      "stateMutability": "nonpayable",
      "type": "function"
    },
    {
      "constant": false,
      "inputs": [
        {
          "name": "sender",
          "type": "address"
        },
        {
          "name": "recipient",
          "type": "address"
        },
        {
          "name": "amount",
          "type": "uint256"
        },
        {
          "name": "data",
          "type": "bytes"
        }
      ],
      "name": "safeTransferFrom",
      "outputs": [],
      "payable": false,
      "stateMutability": "nonpayable",
      "type": "function"
    },
    {
      "constant": true,
      "inputs": [],
      "name": "MINIMUM_LIQUIDITY",
      "outputs": [
        {
          "name": "",
          "type": "uint256"
        }
      ],
      "payable": false,
      "stateMutability": "view",
      "type": "function"
    },
    {
      "constant": true,
      "inputs": [],
      "name": "token1",
      "outputs": [
        {
          "name": "",
          "type": "address"
        }
      ],
      "payable": false,
      "stateMutability": "view",
      "type": "function"
    },
    {
      "constant": true,
      "inputs": [
        {
          "name": "owner",
          "type": "address"
        },
        {
          "name": "spender",
          "type": "address"
        }
      ],
      "name": "allowance",
      "outputs": [
        {
          "name": "",
          "type": "uint256"
        }
      ],
      "payable": false,
      "stateMutability": "view",
      "type": "function"
    },
    {
      "constant": false,
      "inputs": [
        {
          "name": "recipient",
          "type": "address"
        },
        {
          "name": "amount",
          "type": "uint256"
        },
        {
          "name": "data",
          "type": "bytes"
        }
      ],
      "name": "safeTransfer",
      "outputs": [],
      "payable": false,
      "stateMutability": "nonpayable",
      "type": "function"
    },
    {
      "inputs": [],
      "payable": false,
      "stateMutability": "nonpayable",
      "type": "constructor"
    },
    {
      "anonymous": false,
      "inputs": [
        {
          "indexed": true,
          "name": "sender",
          "type": "address"
        },
        {
          "indexed": false,
          "name": "amount0",
          "type": "uint256"
        },
        {
          "indexed": false,
          "name": "amount1",
          "type": "uint256"
        }
      ],
      "name": "Mint",
      "type": "event"
    },
    {
      "anonymous": false,
      "inputs": [
        {
          "indexed": true,
          "name": "sender",
          "type": "address"
        },
        {
          "indexed": false,
          "name": "amount0",
          "type": "uint256"
        },
        {
          "indexed": false,
          "name": "amount1",
          "type": "uint256"
        },
        {
          "indexed": false,
          "name": "to",
          "type": "address"
        }
      ],
      "name": "Burn",
      "type": "event"
    },
    {
      "anonymous": false,
      "inputs": [
        {
          "indexed": true,
          "name": "sender",
          "type": "address"
        },
        {
          "indexed": false,
          "name": "amount0Out",
          "type": "uint256"
        },
        {
          "indexed": false,
          "name": "amount1Out",
          "type": "uint256"
        },
        {
          "indexed": true,
          "name": "to",
          "type": "address"
        }
      ],
      "name": "Swap",
      "type": "event"
    },
    {
      "anonymous": false,
      "inputs": [
        {
          "indexed": false,
          "name": "reserve0",
          "type": "uint256"
        },
        {
          "indexed": false,
          "name": "reserve1",
          "type": "uint256"
        }
      ],
      "name": "Sync",
      "type": "event"
    },
    {
      "anonymous": false,
      "inputs": [
        {
          "indexed": true,
          "name": "from",
          "type": "address"
        },
        {
          "indexed": true,
          "name": "to",
          "type": "address"
        },
        {
          "indexed": false,
          "name": "value",
          "type": "uint256"
        }
      ],
      "name": "Transfer",
      "type": "event"
    },
    {
      "anonymous": false,
      "inputs": [
        {
          "indexed": true,
          "name": "owner",
          "type": "address"
        },
        {
          "indexed": true,
          "name": "spender",
          "type": "address"
        },
        {
          "indexed": false,
          "name": "value",
          "type": "uint256"
        }
      ],
      "name": "Approval",
      "type": "event"
    },
    {
      "constant": false,
      "inputs": [
        {
          "name": "token0_",
          "type": "address"
        },
        {
          "name": "token1_",
          "type": "address"
        }
      ],
      "name": "initialize",
      "outputs": [],
      "payable": false,
      "stateMutability": "nonpayable",
      "type": "function"
    },
    {
      "constant": false,
      "inputs": [
        {
          "name": "to",
          "type": "address"
        },
        {
          "name": "amount",
          "type": "uint256"
        }
      ],
      "name": "mint",
      "outputs": [],
      "payable": false,
      "stateMutability": "nonpayable",
      "type": "function"
    },
    {
      "constant": false,
      "inputs": [
        {
          "name": "to",
          "type": "address"
        }
      ],
      "name": "mint",
      "outputs": [
        {
          "name": "liquidity",
          "type": "uint256"
        }
      ],
      "payable": false,
      "stateMutability": "nonpayable",
      "type": "function"
    },
    {
      "constant": false,
      "inputs": [
        {
          "name": "to",
          "type": "address"
        }
      ],
      "name": "burn",
      "outputs": [
        {
          "name": "amount0",
          "type": "uint256"
        },
        {
          "name": "amount1",
          "type": "uint256"
        }
      ],
      "payable": false,
      "stateMutability": "nonpayable",
      "type": "function"
    },
    {
      "constant": false,
      "inputs": [
        {
          "name": "amount0Out",
          "type": "uint256"
        },
        {
          "name": "amount1Out",
          "type": "uint256"
        },
        {
          "name": "to",
          "type": "address"
        },
        {
          "name": "data",
          "type": "bytes"
        }
      ],
      "name": "swap",
      "outputs": [],
      "payable": false,
      "stateMutability": "nonpayable",
      "type": "function"
    },
    {
      "constant": false,
      "inputs": [],
      "name": "sync",
      "outputs": [],
      "payable": false,
      "stateMutability": "nonpayable",
      "type": "function"
    },
    {
      "constant": true,
      "inputs": [],
      "name": "getReserves",
      "outputs": [
        {
          "name": "",
          "type": "uint112"
        },
        {
          "name": "",
          "type": "uint112"
        },
        {
          "name": "",
          "type": "uint32"
        }
      ],
      "payable": false,
      "stateMutability": "view",
      "type": "function"
    }
  ],
  "bytecode": "0x60806040523480156200001157600080fd5b506040518060400160405280600781526020017f56322050616972000000000000000000000000000000000000000000000000008152506040518060400160405280600281526020017f563200000000000000000000000000000000000000000000000000000000000081525060126127108383836200009e6301ffc9a760e01b6200013a60201b60201c565b620000b6636578737160e01b6200013a60201b60201c565b8260049080519060200190620000ce92919062000498565b508160059080519060200190620000e792919062000498565b5080600660006101000a81548160ff021916908360ff1602179055506200011b63a219a02560e01b6200013a60201b60201c565b5050506200013033826200024360201b60201c565b5050505062000547565b63ffffffff60e01b817bffffffffffffffffffffffffffffffffffffffffffffffffffffffff19161415620001d7576040517f08c379a000000000000000000000000000000000000000000000000000000000815260040180806020018281038252601b8152602001807f4b495031333a20696e76616c696420696e74657266616365206964000000000081525060200191505060405180910390fd5b6001600080837bffffffffffffffffffffffffffffffffffffffffffffffffffffffff19167bffffffffffffffffffffffffffffffffffffffffffffffffffffffff1916815260200190815260200160002060006101000a81548160ff02191690831515021790555050565b600073ffffffffffffffffffffffffffffffffffffffff168273ffffffffffffffffffffffffffffffffffffffff161415620002e7576040517f08c379a000000000000000000000000000000000000000000000000000000000815260040180806020018281038252601e8152602001807f4b4950373a206d696e7420746f20746865207a65726f2061646472657373000081525060200191505060405180910390fd5b62000303816003546200040f60201b620037841790919060201c565b6003819055506200036281600160008573ffffffffffffffffffffffffffffffffffffffff1673ffffffffffffffffffffffffffffffffffffffff168152602001908152602001600020546200040f60201b620037841790919060201c565b600160008473ffffffffffffffffffffffffffffffffffffffff1673ffffffffffffffffffffffffffffffffffffffff168152602001908152602001600020819055508173ffffffffffffffffffffffffffffffffffffffff16600073ffffffffffffffffffffffffffffffffffffffff167fddf252ad1be2c89b69c2b068fc378daa952ba7f163c4a11628f55a4df523b3ef836040518082815260200191505060405180910390a35050565b6000808284019050838110156200048e576040517f08c379a000000000000000000000000000000000000000000000000000000000815260040180806020018281038252601b8152602001807f536166654d6174683a206164646974696f6e206f766572666c6f77000000000081525060200191505060405180910390fd5b8091505092915050565b828054600181600116156101000203166002900490600052602060002090601f016020900481019282601f10620004db57805160ff19168380011785556200050c565b828001600101855582156200050c579182015b828111156200050b578251825591602001919060010190620004ee565b5b5090506200051b91906200051f565b5090565b6200054491905b808211156200054057600081600090555060010162000526565b5090565b90565b61392480620005576000396000f3fe608060405234801561001057600080fd5b506004361061018e5760003560e01c80635909c0d5116100de578063a9059cbb11610097578063d21220a711610071578063d21220a7146109dd578063dd62ed3e14610a27578063eb79554914610a9f578063fff6cae914610b845761018e565b8063a9059cbb14610854578063b88d4fde146108ba578063ba9a7a56146109bf5761018e565b80635909c0d5146106865780635a3d5493146106a45780636a627842146106c257806370a082311461071a57806389afcb441461077257806395d89b41146107d15761018e565b806318160ddd1161014b57806340c10f191161012557806340c10f1914610518578063423f6cef1461056657806342842e0e146105b4578063485cc955146106225761018e565b806318160ddd1461045057806323b872dd1461046e578063313ce567146104f45761018e565b806301ffc9a714610193578063022c0d9f146101f857806306fdde03146102a55780630902f1ac14610328578063095ea7b3146103a05780630dfe168114610406575b600080fd5b6101de600480360360208110156101a957600080fd5b8101908080357bffffffffffffffffffffffffffffffffffffffffffffffffffffffff19169060200190929190505050610b8e565b604051808215151515815260200191505060405180910390f35b6102a36004803603608081101561020e57600080fd5b810190808035906020019092919080359060200190929190803573ffffffffffffffffffffffffffffffffffffffff1690602001909291908035906020019064010000000081111561025f57600080fd5b82018360208201111561027157600080fd5b8035906020019184600183028401116401000000008311171561029357600080fd5b9091929391929390505050610bf5565b005b6102ad6113c0565b6040518080602001828103825283818151815260200191508051906020019080838360005b838110156102ed5780820151818401526020810190506102d2565b50505050905090810190601f16801561031a5780820380516001836020036101000a031916815260200191505b509250505060405180910390f35b610330611462565b60405180846dffffffffffffffffffffffffffff166dffffffffffffffffffffffffffff168152602001836dffffffffffffffffffffffffffff166dffffffffffffffffffffffffffff1681526020018263ffffffff1663ffffffff168152602001935050505060405180910390f35b6103ec600480360360408110156103b657600080fd5b81019080803573ffffffffffffffffffffffffffffffffffffffff169060200190929190803590602001909291905050506114bf565b604051808215151515815260200191505060405180910390f35b61040e6114d6565b604051808273ffffffffffffffffffffffffffffffffffffffff1673ffffffffffffffffffffffffffffffffffffffff16815260200191505060405180910390f35b6104586114fc565b6040518082815260200191505060405180910390f35b6104da6004803603606081101561048457600080fd5b81019080803573ffffffffffffffffffffffffffffffffffffffff169060200190929190803573ffffffffffffffffffffffffffffffffffffffff16906020019092919080359060200190929190505050611506565b604051808215151515815260200191505060405180910390f35b6104fc6115b7565b604051808260ff1660ff16815260200191505060405180910390f35b6105646004803603604081101561052e57600080fd5b81019080803573ffffffffffffffffffffffffffffffffffffffff169060200190929190803590602001909291905050506115ce565b005b6105b26004803603604081101561057c57600080fd5b81019080803573ffffffffffffffffffffffffffffffffffffffff169060200190929190803590602001909291905050506115dc565b005b610620600480360360608110156105ca57600080fd5b81019080803573ffffffffffffffffffffffffffffffffffffffff169060200190929190803573ffffffffffffffffffffffffffffffffffffffff169060200190929190803590602001909291905050506115fa565b005b6106846004803603604081101561063857600080fd5b81019080803573ffffffffffffffffffffffffffffffffffffffff169060200190929190803573ffffffffffffffffffffffffffffffffffffffff16906020019092919050505061161a565b005b61068e6117be565b6040518082815260200191505060405180910390f35b6106ac6117c4565b6040518082815260200191505060405180910390f35b610704600480360360208110156106d857600080fd5b81019080803573ffffffffffffffffffffffffffffffffffffffff1690602001909291905050506117ca565b6040518082815260200191505060405180910390f35b61075c6004803603602081101561073057600080fd5b81019080803573ffffffffffffffffffffffffffffffffffffffff169060200190929190505050611b97565b6040518082815260200191505060405180910390f35b6107b46004803603602081101561078857600080fd5b81019080803573ffffffffffffffffffffffffffffffffffffffff169060200190929190505050611be0565b604051808381526020018281526020019250505060405180910390f35b6107d9612144565b6040518080602001828103825283818151815260200191508051906020019080838360005b838110156108195780820151818401526020810190506107fe565b50505050905090810190601f1680156108465780820380516001836020036101000a031916815260200191505b509250505060405180910390f35b6108a06004803603604081101561086a57600080fd5b81019080803573ffffffffffffffffffffffffffffffffffffffff169060200190929190803590602001909291905050506121e6565b604051808215151515815260200191505060405180910390f35b6109bd600480360360808110156108d057600080fd5b81019080803573ffffffffffffffffffffffffffffffffffffffff169060200190929190803573ffffffffffffffffffffffffffffffffffffffff169060200190929190803590602001909291908035906020019064010000000081111561093757600080fd5b82018360208201111561094957600080fd5b8035906020019184600183028401116401000000008311171561096b57600080fd5b91908080601f016020809104026020016040519081016040528093929190818152602001838380828437600081840152601f19601f8201169050808301925050505050505091929192905050506121fd565b005b6109c7612270565b6040518082815260200191505060405180910390f35b6109e5612276565b604051808273ffffffffffffffffffffffffffffffffffffffff1673ffffffffffffffffffffffffffffffffffffffff16815260200191505060405180910390f35b610a8960048036036040811015610a3d57600080fd5b81019080803573ffffffffffffffffffffffffffffffffffffffff169060200190929190803573ffffffffffffffffffffffffffffffffffffffff16906020019092919050505061229c565b6040518082815260200191505060405180910390f35b610b8260048036036060811015610ab557600080fd5b81019080803573ffffffffffffffffffffffffffffffffffffffff1690602001909291908035906020019092919080359060200190640100000000811115610afc57600080fd5b820183602082011115610b0e57600080fd5b80359060200191846001830284011164010000000083111715610b3057600080fd5b91908080601f016020809104026020016040519081016040528093929190818152602001838380828437600081840152601f19601f820116905080830192505050505050509192919290505050612323565b005b610b8c612394565b005b6000806000837bffffffffffffffffffffffffffffffffffffffffffffffffffffffff19167bffffffffffffffffffffffffffffffffffffffffffffffffffffffff1916815260200190815260200160002060009054906101000a900460ff169050919050565b600b60009054906101000a900460ff1615610c0f57600080fd5b6001600b60006101000a81548160ff0219169083151502179055506000851180610c395750600084115b610cab576040517f08c379a000000000000000000000000000000000000000000000000000000000815260040180806020018281038252601a8152602001807f494e53554646494349454e545f4f55545055545f414d4f554e5400000000000081525060200191505060405180910390fd5b600080610cb6611462565b5091509150816dffffffffffffffffffffffffffff1687108015610ce95750806dffffffffffffffffffffffffffff1686105b610d5b576040517f08c379a00000000000000000000000000000000000000000000000000000000081526004018080602001828103825260168152602001807f494e53554646494349454e545f4c49515549444954590000000000000000000081525060200191505060405180910390fd5b6000871115610d9257610d91600660019054906101000a900473ffffffffffffffffffffffffffffffffffffffff168689612566565b5b6000861115610dc957610dc8600760009054906101000a900473ffffffffffffffffffffffffffffffffffffffff168688612566565b5b6000848490501115610eb1578473ffffffffffffffffffffffffffffffffffffffff166356013ce233898988886040518663ffffffff1660e01b8152600401808673ffffffffffffffffffffffffffffffffffffffff1673ffffffffffffffffffffffffffffffffffffffff168152602001858152602001848152602001806020018281038252848482818152602001925080828437600081840152601f19601f8201169050808301925050509650505050505050600060405180830381600087803b158015610e9857600080fd5b505af1158015610eac573d6000803e3d6000fd5b505050505b6000600660019054906101000a900473ffffffffffffffffffffffffffffffffffffffff1673ffffffffffffffffffffffffffffffffffffffff166370a08231306040518263ffffffff1660e01b8152600401808273ffffffffffffffffffffffffffffffffffffffff1673ffffffffffffffffffffffffffffffffffffffff16815260200191505060206040518083038186803b158015610f5257600080fd5b505afa158015610f66573d6000803e3d6000fd5b505050506040513d6020811015610f7c57600080fd5b810190808051906020019092919050505090506000600760009054906101000a900473ffffffffffffffffffffffffffffffffffffffff1673ffffffffffffffffffffffffffffffffffffffff166370a08231306040518263ffffffff1660e01b8152600401808273ffffffffffffffffffffffffffffffffffffffff1673ffffffffffffffffffffffffffffffffffffffff16815260200191505060206040518083038186803b15801561103057600080fd5b505afa158015611044573d6000803e3d6000fd5b505050506040513d602081101561105a57600080fd5b81019080805190602001909291905050509050600089600860009054906101000a90046dffffffffffffffffffffffffffff166dffffffffffffffffffffffffffff160383116110ab5760006110dd565b89600860009054906101000a90046dffffffffffffffffffffffffffff166dffffffffffffffffffffffffffff160383035b90506000896008600e9054906101000a90046dffffffffffffffffffffffffffff166dffffffffffffffffffffffffffff1603831161111d57600061114f565b896008600e9054906101000a90046dffffffffffffffffffffffffffff166dffffffffffffffffffffffffffff160383035b905060008211806111605750600081115b6111d2576040517f08c379a00000000000000000000000000000000000000000000000000000000081526004018080602001828103825260198152602001807f494e53554646494349454e545f494e5055545f414d4f554e540000000000000081525060200191505060405180910390fd5b600061120e6111eb60038561279690919063ffffffff16565b6112006103e88861279690919063ffffffff16565b61281c90919063ffffffff16565b9050600061124c61122960038561279690919063ffffffff16565b61123e6103e88861279690919063ffffffff16565b61281c90919063ffffffff16565b9050611296620f4240611288896dffffffffffffffffffffffffffff168b6dffffffffffffffffffffffffffff1661279690919063ffffffff16565b61279690919063ffffffff16565b6112a9828461279690919063ffffffff16565b101561131d576040517f08c379a00000000000000000000000000000000000000000000000000000000081526004018080602001828103825260098152602001807f696e7661696c64204b000000000000000000000000000000000000000000000081525060200191505060405180910390fd5b61132986868a8a612866565b8a73ffffffffffffffffffffffffffffffffffffffff163373ffffffffffffffffffffffffffffffffffffffff167f2a9237ff5aa599ef4c5ee4b1142b53429d5755e2685fe6288b2e3320202115f58f8f604051808381526020018281526020019250505060405180910390a350505050505050506000600b60006101000a81548160ff0219169083151502179055505050505050565b606060048054600181600116156101000203166002900480601f0160208091040260200160405190810160405280929190818152602001828054600181600116156101000203166002900480156114585780601f1061142d57610100808354040283529160200191611458565b820191906000526020600020905b81548152906001019060200180831161143b57829003601f168201915b5050505050905090565b6000806000600860009054906101000a90046dffffffffffffffffffffffffffff166008600e9054906101000a90046dffffffffffffffffffffffffffff166008601c9054906101000a900463ffffffff16925092509250909192565b60006114cc338484612bc4565b6001905092915050565b600660019054906101000a900473ffffffffffffffffffffffffffffffffffffffff1681565b6000600354905090565b6000611513848484612dbb565b6115ac84336115a785600260008a73ffffffffffffffffffffffffffffffffffffffff1673ffffffffffffffffffffffffffffffffffffffff16815260200190815260200160002060003373ffffffffffffffffffffffffffffffffffffffff1673ffffffffffffffffffffffffffffffffffffffff1681526020019081526020016000205461281c90919063ffffffff16565b612bc4565b600190509392505050565b6000600660009054906101000a900460ff16905090565b6115d8828261305b565b5050565b6115f6828260405180602001604052806000815250612323565b5050565b611615838383604051806020016040528060008152506121fd565b505050565b600073ffffffffffffffffffffffffffffffffffffffff16600660019054906101000a900473ffffffffffffffffffffffffffffffffffffffff1673ffffffffffffffffffffffffffffffffffffffff161480156116c65750600073ffffffffffffffffffffffffffffffffffffffff16600760009054906101000a900473ffffffffffffffffffffffffffffffffffffffff1673ffffffffffffffffffffffffffffffffffffffff16145b611738576040517f08c379a00000000000000000000000000000000000000000000000000000000081526004018080602001828103825260138152602001807f616c726561647920696e697469616c697a65640000000000000000000000000081525060200191505060405180910390fd5b81600660016101000a81548173ffffffffffffffffffffffffffffffffffffffff021916908373ffffffffffffffffffffffffffffffffffffffff16021790555080600760006101000a81548173ffffffffffffffffffffffffffffffffffffffff021916908373ffffffffffffffffffffffffffffffffffffffff1602179055505050565b60095481565b600a5481565b60008060006117d7611462565b50915091506000600660019054906101000a900473ffffffffffffffffffffffffffffffffffffffff1673ffffffffffffffffffffffffffffffffffffffff166370a08231306040518263ffffffff1660e01b8152600401808273ffffffffffffffffffffffffffffffffffffffff1673ffffffffffffffffffffffffffffffffffffffff16815260200191505060206040518083038186803b15801561187d57600080fd5b505afa158015611891573d6000803e3d6000fd5b505050506040513d60208110156118a757600080fd5b810190808051906020019092919050505090506000600760009054906101000a900473ffffffffffffffffffffffffffffffffffffffff1673ffffffffffffffffffffffffffffffffffffffff166370a08231306040518263ffffffff1660e01b8152600401808273ffffffffffffffffffffffffffffffffffffffff1673ffffffffffffffffffffffffffffffffffffffff16815260200191505060206040518083038186803b15801561195b57600080fd5b505afa15801561196f573d6000803e3d6000fd5b505050506040513d602081101561198557600080fd5b8101908080519060200190929190505050905060006119bd856dffffffffffffffffffffffffffff168461281c90919063ffffffff16565b905060006119e4856dffffffffffffffffffffffffffff168461281c90919063ffffffff16565b905060006119f06114fc565b1415611a3957611a256103e8611a17611a12848661279690919063ffffffff16565b613218565b61281c90919063ffffffff16565b9650611a3460006103e861305b565b611aaa565b611aa7866dffffffffffffffffffffffffffff16611a67611a586114fc565b8561279690919063ffffffff16565b81611a6e57fe5b04866dffffffffffffffffffffffffffff16611a9a611a8b6114fc565b8561279690919063ffffffff16565b81611aa157fe5b0461327a565b96505b60008711611b20576040517f08c379a000000000000000000000000000000000000000000000000000000000815260040180806020018281038252601d8152602001807f494e53554646494349454e545f4c49515549444954595f4d494e54454400000081525060200191505060405180910390fd5b611b2a888861305b565b611b3684848888612866565b3373ffffffffffffffffffffffffffffffffffffffff167f4c209b5fc8ad50758f13e2e1088ba56a560dff690a1c6fef26394f4c03821c4f8383604051808381526020018281526020019250505060405180910390a2505050505050919050565b6000600160008373ffffffffffffffffffffffffffffffffffffffff1673ffffffffffffffffffffffffffffffffffffffff168152602001908152602001600020549050919050565b6000806000600660019054906101000a900473ffffffffffffffffffffffffffffffffffffffff1673ffffffffffffffffffffffffffffffffffffffff166370a08231306040518263ffffffff1660e01b8152600401808273ffffffffffffffffffffffffffffffffffffffff1673ffffffffffffffffffffffffffffffffffffffff16815260200191505060206040518083038186803b158015611c8457600080fd5b505afa158015611c98573d6000803e3d6000fd5b505050506040513d6020811015611cae57600080fd5b810190808051906020019092919050505090506000600760009054906101000a900473ffffffffffffffffffffffffffffffffffffffff1673ffffffffffffffffffffffffffffffffffffffff166370a08231306040518263ffffffff1660e01b8152600401808273ffffffffffffffffffffffffffffffffffffffff1673ffffffffffffffffffffffffffffffffffffffff16815260200191505060206040518083038186803b158015611d6257600080fd5b505afa158015611d76573d6000803e3d6000fd5b505050506040513d6020811015611d8c57600080fd5b810190808051906020019092919050505090506000611daa30611b97565b9050611db46114fc565b611dc7848361279690919063ffffffff16565b81611dce57fe5b049450611dd96114fc565b611dec838361279690919063ffffffff16565b81611df357fe5b049350600085118015611e065750600084115b611e78576040517f08c379a000000000000000000000000000000000000000000000000000000000815260040180806020018281038252601d8152602001807f494e53554646494349454e545f4c49515549444954595f4255524e454400000081525060200191505060405180910390fd5b611e823082613293565b611eaf600660019054906101000a900473ffffffffffffffffffffffffffffffffffffffff168787612566565b611edc600760009054906101000a900473ffffffffffffffffffffffffffffffffffffffff168786612566565b600660019054906101000a900473ffffffffffffffffffffffffffffffffffffffff1673ffffffffffffffffffffffffffffffffffffffff166370a08231306040518263ffffffff1660e01b8152600401808273ffffffffffffffffffffffffffffffffffffffff1673ffffffffffffffffffffffffffffffffffffffff16815260200191505060206040518083038186803b158015611f7b57600080fd5b505afa158015611f8f573d6000803e3d6000fd5b505050506040513d6020811015611fa557600080fd5b81019080805190602001909291905050509250600760009054906101000a900473ffffffffffffffffffffffffffffffffffffffff1673ffffffffffffffffffffffffffffffffffffffff166370a08231306040518263ffffffff1660e01b8152600401808273ffffffffffffffffffffffffffffffffffffffff1673ffffffffffffffffffffffffffffffffffffffff16815260200191505060206040518083038186803b15801561205757600080fd5b505afa15801561206b573d6000803e3d6000fd5b505050506040513d602081101561208157600080fd5b8101908080519060200190929190505050915060008061209f611462565b50915091506120b085858484612866565b3373ffffffffffffffffffffffffffffffffffffffff167fdccd412f0b1252819cb1fd330b93224ca42612892bb3f4f789976e6d8193649688888b604051808481526020018381526020018273ffffffffffffffffffffffffffffffffffffffff1673ffffffffffffffffffffffffffffffffffffffff168152602001935050505060405180910390a25050505050915091565b606060058054600181600116156101000203166002900480601f0160208091040260200160405190810160405280929190818152602001828054600181600116156101000203166002900480156121dc5780601f106121b1576101008083540402835291602001916121dc565b820191906000526020600020905b8154815290600101906020018083116121bf57829003601f168201915b5050505050905090565b60006121f3338484612dbb565b6001905092915050565b612208848484611506565b5061221584848484613450565b61226a576040517f08c379a000000000000000000000000000000000000000000000000000000000815260040180806020018281038252602e815260200180613841602e913960400191505060405180910390fd5b50505050565b6103e881565b600760009054906101000a900473ffffffffffffffffffffffffffffffffffffffff1681565b6000600260008473ffffffffffffffffffffffffffffffffffffffff1673ffffffffffffffffffffffffffffffffffffffff16815260200190815260200160002060008373ffffffffffffffffffffffffffffffffffffffff1673ffffffffffffffffffffffffffffffffffffffff16815260200190815260200160002054905092915050565b61232d83836121e6565b5061233a33848484613450565b61238f576040517f08c379a000000000000000000000000000000000000000000000000000000000815260040180806020018281038252602e815260200180613841602e913960400191505060405180910390fd5b505050565b60008061239f611462565b5091509150612562600660019054906101000a900473ffffffffffffffffffffffffffffffffffffffff1673ffffffffffffffffffffffffffffffffffffffff166370a08231306040518263ffffffff1660e01b8152600401808273ffffffffffffffffffffffffffffffffffffffff1673ffffffffffffffffffffffffffffffffffffffff16815260200191505060206040518083038186803b15801561244657600080fd5b505afa15801561245a573d6000803e3d6000fd5b505050506040513d602081101561247057600080fd5b8101908080519060200190929190505050600760009054906101000a900473ffffffffffffffffffffffffffffffffffffffff1673ffffffffffffffffffffffffffffffffffffffff166370a08231306040518263ffffffff1660e01b8152600401808273ffffffffffffffffffffffffffffffffffffffff1673ffffffffffffffffffffffffffffffffffffffff16815260200191505060206040518083038186803b15801561252057600080fd5b505afa158015612534573d6000803e3d6000fd5b505050506040513d602081101561254a57600080fd5b81019080805190602001909291905050508484612866565b5050565b600060608473ffffffffffffffffffffffffffffffffffffffff168484604051602401808373ffffffffffffffffffffffffffffffffffffffff1673ffffffffffffffffffffffffffffffffffffffff168152602001828152602001925050506040516020818303038152906040527fa9059cbb000000000000000000000000000000000000000000000000000000007bffffffffffffffffffffffffffffffffffffffffffffffffffffffff19166020820180517bffffffffffffffffffffffffffffffffffffffffffffffffffffffff83818316178352505050506040518082805190602001908083835b602083106126765780518252602082019150602081019050602083039250612653565b6001836020036101000a0380198251168184511680821785525050505050509050019150506000604051808303816000865af19150503d80600081146126d8576040519150601f19603f3d011682016040523d82523d6000602084013e6126dd565b606091505b509150915081801561271d575060008151148061271c575080806020019051602081101561270a57600080fd5b81019080805190602001909291905050505b5b61278f576040517f08c379a000000000000000000000000000000000000000000000000000000000815260040180806020018281038252600f8152602001807f5452414e534645525f4641494c4544000000000000000000000000000000000081525060200191505060405180910390fd5b5050505050565b6000808314156127a95760009050612816565b60008284029050828482816127ba57fe5b0414612811576040517f08c379a00000000000000000000000000000000000000000000000000000000081526004018080602001828103825260218152602001806138b56021913960400191505060405180910390fd5b809150505b92915050565b600061285e83836040518060400160405280601e81526020017f536166654d6174683a207375627472616374696f6e206f766572666c6f770000815250613639565b905092915050565b7fffffffffffffffffffffffffffffffffffffffffffffffffffffffffffffffff6dffffffffffffffffffffffffffff1684111580156128d657507fffffffffffffffffffffffffffffffffffffffffffffffffffffffffffffffff6dffffffffffffffffffffffffffff168311155b612948576040517f08c379a00000000000000000000000000000000000000000000000000000000081526004018080602001828103825260088152602001807f4f564552464c4f5700000000000000000000000000000000000000000000000081525060200191505060405180910390fd5b6000640100000000428161295857fe5b06905060006008601c9054906101000a900463ffffffff168203905060008163ffffffff1611801561299b57506000846dffffffffffffffffffffffffffff1614155b80156129b857506000836dffffffffffffffffffffffffffff1614155b15612a9a578063ffffffff166129fd856129d1866136f9565b7bffffffffffffffffffffffffffffffffffffffffffffffffffffffff1661372490919063ffffffff16565b7bffffffffffffffffffffffffffffffffffffffffffffffffffffffff16026009600082825401925050819055508063ffffffff16612a6b84612a3f876136f9565b7bffffffffffffffffffffffffffffffffffffffffffffffffffffffff1661372490919063ffffffff16565b7bffffffffffffffffffffffffffffffffffffffffffffffffffffffff1602600a600082825401925050819055505b85600860006101000a8154816dffffffffffffffffffffffffffff02191690836dffffffffffffffffffffffffffff160217905550846008600e6101000a8154816dffffffffffffffffffffffffffff02191690836dffffffffffffffffffffffffffff160217905550816008601c6101000a81548163ffffffff021916908363ffffffff1602179055507fcf2aa50876cdfbb541206f89af0ee78d44a2abf8d328e37fa4917f982149848a600860009054906101000a90046dffffffffffffffffffffffffffff166008600e9054906101000a90046dffffffffffffffffffffffffffff1660405180836dffffffffffffffffffffffffffff168152602001826dffffffffffffffffffffffffffff1681526020019250505060405180910390a1505050505050565b600073ffffffffffffffffffffffffffffffffffffffff168373ffffffffffffffffffffffffffffffffffffffff161415612c4a576040517f08c379a00000000000000000000000000000000000000000000000000000000081526004018080602001828103825260238152602001806138d66023913960400191505060405180910390fd5b600073ffffffffffffffffffffffffffffffffffffffff168273ffffffffffffffffffffffffffffffffffffffff161415612cd0576040517f08c379a00000000000000000000000000000000000000000000000000000000081526004018080602001828103825260218152602001806138206021913960400191505060405180910390fd5b80600260008573ffffffffffffffffffffffffffffffffffffffff1673ffffffffffffffffffffffffffffffffffffffff16815260200190815260200160002060008473ffffffffffffffffffffffffffffffffffffffff1673ffffffffffffffffffffffffffffffffffffffff168152602001908152602001600020819055508173ffffffffffffffffffffffffffffffffffffffff168373ffffffffffffffffffffffffffffffffffffffff167f8c5be1e5ebec7d5bd14f71427d1e84f3dd0314c0f7b2291e5b200ac8c7c3b925836040518082815260200191505060405180910390a3505050565b600073ffffffffffffffffffffffffffffffffffffffff168373ffffffffffffffffffffffffffffffffffffffff161415612e41576040517f08c379a00000000000000000000000000000000000000000000000000000000081526004018080602001828103825260248152602001806138916024913960400191505060405180910390fd5b600073ffffffffffffffffffffffffffffffffffffffff168273ffffffffffffffffffffffffffffffffffffffff161415612ec7576040517f08c379a000000000000000000000000000000000000000000000000000000000815260040180806020018281038252602281526020018061386f6022913960400191505060405180910390fd5b612f1981600160008673ffffffffffffffffffffffffffffffffffffffff1673ffffffffffffffffffffffffffffffffffffffff1681526020019081526020016000205461281c90919063ffffffff16565b600160008573ffffffffffffffffffffffffffffffffffffffff1673ffffffffffffffffffffffffffffffffffffffff16815260200190815260200160002081905550612fae81600160008573ffffffffffffffffffffffffffffffffffffffff1673ffffffffffffffffffffffffffffffffffffffff1681526020019081526020016000205461378490919063ffffffff16565b600160008473ffffffffffffffffffffffffffffffffffffffff1673ffffffffffffffffffffffffffffffffffffffff168152602001908152602001600020819055508173ffffffffffffffffffffffffffffffffffffffff168373ffffffffffffffffffffffffffffffffffffffff167fddf252ad1be2c89b69c2b068fc378daa952ba7f163c4a11628f55a4df523b3ef836040518082815260200191505060405180910390a3505050565b600073ffffffffffffffffffffffffffffffffffffffff168273ffffffffffffffffffffffffffffffffffffffff1614156130fe576040517f08c379a000000000000000000000000000000000000000000000000000000000815260040180806020018281038252601e8152602001807f4b4950373a206d696e7420746f20746865207a65726f2061646472657373000081525060200191505060405180910390fd5b6131138160035461378490919063ffffffff16565b60038190555061316b81600160008573ffffffffffffffffffffffffffffffffffffffff1673ffffffffffffffffffffffffffffffffffffffff1681526020019081526020016000205461378490919063ffffffff16565b600160008473ffffffffffffffffffffffffffffffffffffffff1673ffffffffffffffffffffffffffffffffffffffff168152602001908152602001600020819055508173ffffffffffffffffffffffffffffffffffffffff16600073ffffffffffffffffffffffffffffffffffffffff167fddf252ad1be2c89b69c2b068fc378daa952ba7f163c4a11628f55a4df523b3ef836040518082815260200191505060405180910390a35050565b6000600382111561326757819050600060016002848161323457fe5b040190505b818110156132615780915060028182858161325057fe5b04018161325957fe5b049050613239565b50613275565b6000821461327457600190505b5b919050565b6000818310613289578161328b565b825b905092915050565b600073ffffffffffffffffffffffffffffffffffffffff168273ffffffffffffffffffffffffffffffffffffffff161415613336576040517f08c379a00000000000000000000000000000000000000000000000000000000081526004018080602001828103825260208152602001807f4b4950373a206275726e2066726f6d20746865207a65726f206164647265737381525060200191505060405180910390fd5b61334b8160035461281c90919063ffffffff16565b6003819055506133a381600160008573ffffffffffffffffffffffffffffffffffffffff1673ffffffffffffffffffffffffffffffffffffffff1681526020019081526020016000205461281c90919063ffffffff16565b600160008473ffffffffffffffffffffffffffffffffffffffff1673ffffffffffffffffffffffffffffffffffffffff16815260200190815260200160002081905550600073ffffffffffffffffffffffffffffffffffffffff168273ffffffffffffffffffffffffffffffffffffffff167fddf252ad1be2c89b69c2b068fc378daa952ba7f163c4a11628f55a4df523b3ef836040518082815260200191505060405180910390a35050565b60006134718473ffffffffffffffffffffffffffffffffffffffff1661380c565b61347e5760019050613631565b60008473ffffffffffffffffffffffffffffffffffffffff16639d188c22338887876040518563ffffffff1660e01b8152600401808573ffffffffffffffffffffffffffffffffffffffff1673ffffffffffffffffffffffffffffffffffffffff1681526020018473ffffffffffffffffffffffffffffffffffffffff1673ffffffffffffffffffffffffffffffffffffffff16815260200183815260200180602001828103825283818151815260200191508051906020019080838360005b8381101561355957808201518184015260208101905061353e565b50505050905090810190601f1680156135865780820380516001836020036101000a031916815260200191505b5095505050505050602060405180830381600087803b1580156135a857600080fd5b505af11580156135bc573d6000803e3d6000fd5b505050506040513d60208110156135d257600080fd5b81019080805190602001909291905050509050639d188c2260e01b7bffffffffffffffffffffffffffffffffffffffffffffffffffffffff1916817bffffffffffffffffffffffffffffffffffffffffffffffffffffffff1916149150505b949350505050565b60008383111582906136e6576040517f08c379a00000000000000000000000000000000000000000000000000000000081526004018080602001828103825283818151815260200191508051906020019080838360005b838110156136ab578082015181840152602081019050613690565b50505050905090810190601f1680156136d85780820380516001836020036101000a031916815260200191505b509250505060405180910390fd5b5060008385039050809150509392505050565b60006e010000000000000000000000000000826dffffffffffffffffffffffffffff16029050919050565b6000816dffffffffffffffffffffffffffff167bffffffffffffffffffffffffffffffffffffffffffffffffffffffff16837bffffffffffffffffffffffffffffffffffffffffffffffffffffffff168161377b57fe5b04905092915050565b600080828401905083811015613802576040517f08c379a000000000000000000000000000000000000000000000000000000000815260040180806020018281038252601b8152602001807f536166654d6174683a206164646974696f6e206f766572666c6f77000000000081525060200191505060405180910390fd5b8091505092915050565b600080823b90506000811191505091905056fe4b4950373a20617070726f766520746f20746865207a65726f20616464726573734b4950373a207472616e7366657220746f206e6f6e204b495037526563656976657220696d706c656d656e7465724b4950373a207472616e7366657220746f20746865207a65726f20616464726573734b4950373a207472616e736665722066726f6d20746865207a65726f2061646472657373536166654d6174683a206d756c7469706c69636174696f6e206f766572666c6f774b4950373a20617070726f76652066726f6d20746865207a65726f2061646472657373a165627a7a72305820e5305e53eefd36b6f7b70374307c706ad699bdaf7e4fd519ae7eb6080deccadd0029",
  "source": "// SPDX-License-Identifier: MIT\npragma solidity ^0.5.6;\n\n// import \"@klaytn/contracts/token/KIP7/KIP7.sol\";\nimport './libraries/Math.sol';\nimport './libraries/UQ112x112.sol';\nimport \"./DNDToken.sol\";\nimport \"./interfaces/IDNDCallee.sol\";\n\ncontract DNDPair is DNDToken, Math {\n    using SafeMath  for uint;\n    using UQ112x112 for uint224;\n\n    uint256 public constant MINIMUM_LIQUIDITY = 1000; //  LP     liquidity burn     \n\n    // address public factory;             // factory contract address\n    address public token0;              // token0  contract address\n    address public token1;              // token0  contract address\n\n    uint112 private reserve0;           // DNDPair   token0 (balance )\n    uint112 private reserve1;           // DNDPair   token1 (balance )\n    uint32  private blockTimestampLast; // uses single storage slot, accessible via getReserves\n\n    uint public price0CumulativeLast;   //   price oracle  (public)\n    uint public price1CumulativeLast;   //   price oracle  (public)\n\n    bool private isEntered;\n\n    event Mint(address indexed sender, uint256 amount0, uint256 amount1);\n    event Burn(address indexed sender, uint256 amount0, uint256 amount1, address to);\n    event Swap(\n        address indexed sender,\n        uint amount0Out,\n        uint amount1Out,\n        address indexed to\n    );\n    event Sync(uint256 reserve0, uint256 reserve1);\n\n    modifier nonReentrant() {\n        require(!isEntered);\n        isEntered = true;\n\n        _;\n\n        isEntered = false;\n    }\n\n    constructor() DNDToken(\"V2 Pair\", \"V2\", 18, 10000) public {}\n\n    // called once by the factory at time of deployment\n    function initialize(address token0_, address token1_) public {\n        require(token0 == address(0) && token1 == address(0), 'already initialized');\n\n        token0 = token0_;\n        token1 = token1_;\n    }\n\n    /*\n    (this low-level function should be called from a contract which performs important safety checks)\n        - mint : LP (LP Share)  \n        - burn : LP (LP Share)  \n\n        DNDPair contract   token0, token1   \n         token0, token1 contract      \n           > pair   : mint,  < pair : burn \n\n        _reserve0, _reserve1 : pair   token0, token1 ( balance  balance)\n        balance0, balance1 :  token0, token1 \n        amount0, amount1 :   - pair  (  amount)\n    */\n    function mint(address to) public returns (uint256 liquidity) {\n        (uint112 reserve0_, uint112 reserve1_, ) = getReserves(); // gas savings\n        \n        uint balance0 = IKIP7(token0).balanceOf(address(this));\n        uint balance1 = IKIP7(token1).balanceOf(address(this));\n        uint amount0 = balance0.sub(reserve0_);\n        uint amount1 = balance1.sub(reserve1_);\n\n        //    pair  , 1 LP 1000(MINIMUM_LIQUIDITY)   burn( )\n        if (totalSupply() == 0) {\n\n            //  liquidity(LP  ) : (amount0, amount1   - MINIMUM_LIQUIDITY)\n            liquidity = Math.sqrt(amount0.mul(amount1)).sub(MINIMUM_LIQUIDITY);\n\n            // MINIMUM_LIQUIDITY  mint  0  ( ,  burn)\n            _mint(address(0), MINIMUM_LIQUIDITY); // permanently lock the first MINIMUM_LIQUIDITY tokens\n\n        } else {\n\n            //    ,  \n            // inflation0 = totalSupply * amount0 / reserve0 \n            // inflation1 = totalSupply * amount1 / reserve1\n            //     inflation  liquidity  ( LP )\n            liquidity = Math.min(amount0.mul(totalSupply()) / reserve0_,\n                                 amount1.mul(totalSupply()) / reserve1_);\n        }\n        require(liquidity > 0, 'INSUFFICIENT_LIQUIDITY_MINTED');\n\n        //     LP   \n        _mint(to, liquidity);\n\n        // pair  reserve0, reserve1, kLast update (, kLast   )\n        _update(balance0, balance1, reserve0_, reserve1_);\n \n        emit Mint(msg.sender, amount0, amount1);\n    }\n\n    //  mint   ,    liquidity     amount    .\n    function burn(address to) public returns (uint256 amount0, uint256 amount1) {\n        \n        uint256 balance0 = IKIP7(token0).balanceOf(address(this)); // to  A   balance\n        uint256 balance1 = IKIP7(token1).balanceOf(address(this)); // to  B   balance\n        uint256 liquidity = balanceOf(address(this)); // to  LP   balance\n\n        // amount =  LP liquidity (liquidity * balance) /    (totalSupply))\n        amount0 = liquidity.mul(balance0) / totalSupply(); //  LP    to  LP  (to A LP  )\n        amount1 = liquidity.mul(balance1) / totalSupply(); //  LP    to  LP  (to B LP  )\n        \n        require(amount0 > 0 && amount1 > 0, 'INSUFFICIENT_LIQUIDITY_BURNED');\n\n        //   amount  transfer. \n        _burn(address(this), liquidity);\n\n        _safeTransfer(token0, to, amount0); // to A   liquidity tokenA  \n        _safeTransfer(token1, to, amount1); // to B   liquidity tokenB  \n\n        // pair  reserve0, reserve1, kLast update (, kLast   )\n        balance0 = IKIP7(token0).balanceOf(address(this));\n        balance1 = IKIP7(token1).balanceOf(address(this));\n\n        (uint112 reserve0_, uint112 reserve1_, ) = getReserves();\n        _update(balance0, balance1, reserve0_, reserve1_);\n\n        emit Burn(msg.sender, amount0, amount1, to);\n    }\n    /*\n    (this low-level function should be called from a contract which performs important safety checks)\n        - swap:  ERC20     (eth, klay  wrapped  ERC-20 )\n                  , DNDPair token0  token1      \n                 swap   swap.\n\n                reserve  pair  ,    balance pair      \n                amountOut   transfer  ,\n                        \n                   amountIn    , \n                 flash loan   .\n    */\n    function swap(uint amount0Out, uint amount1Out, address to, bytes calldata data) external nonReentrant {\n        require(amount0Out > 0 || amount1Out > 0, 'INSUFFICIENT_OUTPUT_AMOUNT');\n\n        (uint112 reserve0_, uint112 reserve1_, ) = getReserves();\n        \n        require(amount0Out < reserve0_ && amount1Out < reserve1_, 'INSUFFICIENT_LIQUIDITY');\n\n        // in    amount  .\n        if (amount0Out > 0) _safeTransfer(token0, to, amount0Out);\n        if (amount1Out > 0) _safeTransfer(token1, to, amount1Out);\n\n        // calldata  call .\n        if (data.length > 0) IDNDCallee(to).DNDCall(msg.sender, amount0Out, amount1Out, data);\n\n        // swap      balance .\n        uint256 balance0 = IKIP7(token0).balanceOf(address(this));\n        uint256 balance1 = IKIP7(token1).balanceOf(address(this));\n\n        // address _token0 = token0;\n        // address _token1 = token1;\n        // require(to != _token0 && to != _token1, 'INVALID_TO');\n\n\n        // out     balance  , \n        // pair   reserve out   balance   \n        //  amountIn  .\n        uint256 amount0In = balance0 > reserve0 - amount0Out\n            ? balance0 - (reserve0 - amount0Out)\n            : 0;\n        uint256 amount1In = balance1 > reserve1 - amount1Out\n            ? balance1 - (reserve1 - amount1Out)\n            : 0;\n\n        require(amount0In > 0 || amount1In > 0, 'INSUFFICIENT_INPUT_AMOUNT');\n        \n        // 0.3%      \n        uint balance0Adjusted = balance0.mul(1000).sub(amount0In.mul(3));\n        uint balance1Adjusted = balance1.mul(1000).sub(amount1In.mul(3));\n\n        require(balance0Adjusted.mul(balance1Adjusted) >= uint(reserve0_).mul(reserve1_).mul(1000**2), 'invaild K');\n\n        _update(balance0, balance1, reserve0_, reserve1_);\n\n        emit Swap(msg.sender, amount0Out, amount1Out, to);\n    }\n\n    /*\n        - sync : skim ,     imbalance    balance  \n    */\n    // force reserves to match balances\n    function sync() public {\n        (uint112 reserve0_, uint112 reserve1_, ) = getReserves();\n        _update(\n            IKIP7(token0).balanceOf(address(this)),\n            IKIP7(token1).balanceOf(address(this)),\n            reserve0_,\n            reserve1_\n        );\n    }\n\n    function getReserves() public view returns (uint112, uint112, uint32) {\n        return (reserve0, reserve1, blockTimestampLast);\n    }\n\n    //\n    //\n    //\n    //  PRIVATE\n    //\n    //\n    //\n\n    /*\n        _update : update reserves and, on the first call per block, price accumulators\n\n        1.     token0, token1     update   \n           ex) reserve  balance       \n        2. price oracle   ( price        )\n           ex)     price0CumulativeLast         \n    */\n    function _update(uint balance0, uint balance1, uint112 _reserve0, uint112 _reserve1) private {\n        require(balance0 <= uint112(-1) && balance1 <= uint112(-1), 'OVERFLOW');\n        uint32 blockTimestamp = uint32(block.timestamp % 2**32);\n        uint32 timeElapsed = blockTimestamp - blockTimestampLast; // overflow is desired\n        if (timeElapsed > 0 && _reserve0 != 0 && _reserve1 != 0) {\n            // * never overflows, and + overflow is desired\n            price0CumulativeLast += uint(UQ112x112.encode(_reserve1).uqdiv(_reserve0)) * timeElapsed;\n            price1CumulativeLast += uint(UQ112x112.encode(_reserve0).uqdiv(_reserve1)) * timeElapsed;\n        }\n        reserve0 = uint112(balance0);\n        reserve1 = uint112(balance1);\n        blockTimestampLast = blockTimestamp;\n        emit Sync(reserve0, reserve1);\n    }\n\n    function _safeTransfer(\n        address token,\n        address to,\n        uint256 value\n    ) private {\n        (bool success, bytes memory data) = token.call(\n            abi.encodeWithSignature(\"transfer(address,uint256)\", to, value)\n        );\n        require(success && (data.length == 0 || abi.decode(data, (bool))), 'TRANSFER_FAILED');\n    }\n}",
  "sourcePath": "/Users/baekdonghyun/Desktop/beb-03-DND/contract/contracts/V2/DNDPair.sol",
  "compiler": {
    "name": "solc",
    "version": "0.5.6+commit.b259423e.Emscripten.clang"
  },
  "schemaVersion": "3.4.5",
  "updatedAt": "2022-05-24T04:37:38.391Z",
  "devdoc": {
    "methods": {
      "allowance(address,address)": {
        "details": "See `IKIP7.allowance`."
      },
      "approve(address,uint256)": {
        "details": "See `IKIP7.approve`.     * Requirements:     * - `spender` cannot be the zero address."
      },
      "balanceOf(address)": {
        "details": "See `IKIP7.balanceOf`."
      },
      "decimals()": {
        "details": "Returns the number of decimals used to get its user representation. For example, if `decimals` equals `2`, a balance of `505` tokens should be displayed to a user as `5,05` (`505 / 10 ** 2`).     * Tokens usually opt for a value of 18, imitating the relationship between Ether and Wei.     * > Note that this information is only used for _display_ purposes: it in no way affects any of the arithmetic of the contract, including `IKIP7.balanceOf` and `IKIP7.transfer`."
      },
      "name()": {
        "details": "Returns the name of the token."
      },
      "safeTransfer(address,uint256)": {
        "details": "Moves `amount` tokens from the caller's account to `recipient`."
      },
      "safeTransfer(address,uint256,bytes)": {
        "details": "Moves `amount` tokens from the caller's account to `recipient`."
      },
      "safeTransferFrom(address,address,uint256)": {
        "details": "Moves `amount` tokens from `sender` to `recipient` using the allowance mechanism. `amount` is then deducted from the caller's allowance."
      },
      "safeTransferFrom(address,address,uint256,bytes)": {
        "details": "Moves `amount` tokens from `sender` to `recipient` using the allowance mechanism. `amount` is then deducted from the caller's allowance."
      },
      "supportsInterface(bytes4)": {
        "details": "See `IKIP13.supportsInterface`.     * Time complexity O(1), guaranteed to always use less than 30 000 gas."
      },
      "symbol()": {
        "details": "Returns the symbol of the token, usually a shorter version of the name."
      },
      "totalSupply()": {
        "details": "See `IKIP7.totalSupply`."
      },
      "transfer(address,uint256)": {
        "details": "See `IKIP7.transfer`.     * Requirements:     * - `recipient` cannot be the zero address. - the caller must have a balance of at least `amount`."
      },
      "transferFrom(address,address,uint256)": {
        "details": "See `IKIP7.transferFrom`.     * Emits an `Approval` event indicating the updated allowance. This is not required by the KIP. See the note at the beginning of `KIP7`;     * Requirements: - `sender` and `recipient` cannot be the zero address. - `sender` must have a balance of at least `value`. - the caller must have allowance for `sender`'s tokens of at least `amount`."
      }
    }
  },
  "userdoc": {
    "methods": {}
  }
}