{
  "contractName": "DNDRouter",
  "abi": [
    {
      "constant": true,
      "inputs": [],
      "name": "factory",
      "outputs": [
        {
          "name": "",
          "type": "address"
        }
      ],
      "payable": false,
      "stateMutability": "view",
      "type": "function"
    },
    {
      "inputs": [
        {
          "name": "factoryAddress",
          "type": "address"
        }
      ],
      "payable": false,
      "stateMutability": "nonpayable",
      "type": "constructor"
    },
    {
      "constant": false,
      "inputs": [
        {
          "name": "tokenA",
          "type": "address"
        },
        {
          "name": "tokenB",
          "type": "address"
        },
        {
          "name": "amountADesired",
          "type": "uint256"
        },
        {
          "name": "amountBDesired",
          "type": "uint256"
        },
        {
          "name": "amountAMin",
          "type": "uint256"
        },
        {
          "name": "amountBMin",
          "type": "uint256"
        },
        {
          "name": "to",
          "type": "address"
        }
      ],
      "name": "addLiquidity",
      "outputs": [
        {
          "name": "amountA",
          "type": "uint256"
        },
        {
          "name": "amountB",
          "type": "uint256"
        },
        {
          "name": "liquidity",
          "type": "uint256"
        }
      ],
      "payable": false,
      "stateMutability": "nonpayable",
      "type": "function"
    },
    {
      "constant": false,
      "inputs": [
        {
          "name": "tokenA",
          "type": "address"
        },
        {
          "name": "tokenB",
          "type": "address"
        },
        {
          "name": "liquidity",
          "type": "uint256"
        },
        {
          "name": "amountAMin",
          "type": "uint256"
        },
        {
          "name": "amountBMin",
          "type": "uint256"
        },
        {
          "name": "to",
          "type": "address"
        }
      ],
      "name": "removeLiquidity",
      "outputs": [
        {
          "name": "amountA",
          "type": "uint256"
        },
        {
          "name": "amountB",
          "type": "uint256"
        }
      ],
      "payable": false,
      "stateMutability": "nonpayable",
      "type": "function"
    },
    {
      "constant": false,
      "inputs": [
        {
          "name": "amountIn",
          "type": "uint256"
        },
        {
          "name": "amountOutMin",
          "type": "uint256"
        },
        {
          "name": "path",
          "type": "address[]"
        },
        {
          "name": "to",
          "type": "address"
        }
      ],
      "name": "swapExactTokensForTokens",
      "outputs": [
        {
          "name": "amounts",
          "type": "uint256[]"
        }
      ],
      "payable": false,
      "stateMutability": "nonpayable",
      "type": "function"
    },
    {
      "constant": false,
      "inputs": [
        {
          "name": "amountOut",
          "type": "uint256"
        },
        {
          "name": "amountInMax",
          "type": "uint256"
        },
        {
          "name": "path",
          "type": "address[]"
        },
        {
          "name": "to",
          "type": "address"
        }
      ],
      "name": "swapTokensForExactTokens",
      "outputs": [
        {
          "name": "amounts",
          "type": "uint256[]"
        }
      ],
      "payable": false,
      "stateMutability": "nonpayable",
      "type": "function"
    },
    {
      "constant": true,
      "inputs": [
        {
          "name": "_amountIn",
          "type": "uint256"
        },
        {
          "name": "path",
          "type": "address[]"
        }
      ],
      "name": "getOutput",
      "outputs": [
        {
          "name": "",
          "type": "uint256[]"
        }
      ],
      "payable": false,
      "stateMutability": "view",
      "type": "function"
    }
  ],
  "bytecode": "0x608060405234801561001057600080fd5b50604051602080611e528339810180604052602081101561003057600080fd5b8101908080519060200190929190505050806000806101000a81548173ffffffffffffffffffffffffffffffffffffffff021916908373ffffffffffffffffffffffffffffffffffffffff16021790555050611dc1806100916000396000f3fe608060405234801561001057600080fd5b50600436106100625760003560e01c806342712a6714610067578063472b43f314610169578063c0e3ee6b1461026b578063c45a015514610328578063ca3d653914610372578063e500cef914610440575b600080fd5b6101126004803603608081101561007d57600080fd5b810190808035906020019092919080359060200190929190803590602001906401000000008111156100ae57600080fd5b8201836020820111156100c057600080fd5b803590602001918460208302840111640100000000831117156100e257600080fd5b9091929391929390803573ffffffffffffffffffffffffffffffffffffffff169060200190929190505050610557565b6040518080602001828103825283818151815260200191508051906020019060200280838360005b8381101561015557808201518184015260208101905061013a565b505050509050019250505060405180910390f35b6102146004803603608081101561017f57600080fd5b810190808035906020019092919080359060200190929190803590602001906401000000008111156101b057600080fd5b8201836020820111156101c257600080fd5b803590602001918460208302840111640100000000831117156101e457600080fd5b9091929391929390803573ffffffffffffffffffffffffffffffffffffffff16906020019092919050505061084f565b6040518080602001828103825283818151815260200191508051906020019060200280838360005b8381101561025757808201518184015260208101905061023c565b505050509050019250505060405180910390f35b61030b600480360360c081101561028157600080fd5b81019080803573ffffffffffffffffffffffffffffffffffffffff169060200190929190803573ffffffffffffffffffffffffffffffffffffffff169060200190929190803590602001909291908035906020019092919080359060200190929190803573ffffffffffffffffffffffffffffffffffffffff169060200190929190505050610b4a565b604051808381526020018281526020019250505060405180910390f35b610330610e37565b604051808273ffffffffffffffffffffffffffffffffffffffff1673ffffffffffffffffffffffffffffffffffffffff16815260200191505060405180910390f35b61041c600480360360e081101561038857600080fd5b81019080803573ffffffffffffffffffffffffffffffffffffffff169060200190929190803573ffffffffffffffffffffffffffffffffffffffff16906020019092919080359060200190929190803590602001909291908035906020019092919080359060200190929190803573ffffffffffffffffffffffffffffffffffffffff169060200190929190505050610e5c565b60405180848152602001838152602001828152602001935050505060405180910390f35b6105006004803603604081101561045657600080fd5b81019080803590602001909291908035906020019064010000000081111561047d57600080fd5b82018360208201111561048f57600080fd5b803590602001918460208302840111640100000000831117156104b157600080fd5b919080806020026020016040519081016040528093929190818152602001838360200280828437600081840152601f19601f8201169050808301925050505050505091929192905050506111da565b6040518080602001828103825283818151815260200191508051906020019060200280838360005b83811015610543578082015181840152602081019050610528565b505050509050019250505060405180910390f35b606073__DNDLibrary____________________________63192128b26000809054906101000a900473ffffffffffffffffffffffffffffffffffffffff168887876040518563ffffffff1660e01b8152600401808573ffffffffffffffffffffffffffffffffffffffff1673ffffffffffffffffffffffffffffffffffffffff168152602001848152602001806020018281038252848482818152602001925060200280828437600081840152601f19601f8201169050808301925050509550505050505060006040518083038186803b15801561063457600080fd5b505af4158015610648573d6000803e3d6000fd5b505050506040513d6000823e3d601f19601f82011682018060405250602081101561067257600080fd5b81019080805164010000000081111561068a57600080fd5b828101905060208101848111156106a057600080fd5b81518560208202830111640100000000821117156106bd57600080fd5b5050929190505050905084816000815181106106d557fe5b60200260200101511115610734576040517f08c379a0000000000000000000000000000000000000000000000000000000008152600401808060200182810382526021815260200180611d506021913960400191505060405180910390fd5b6107fa8484600081811061074457fe5b9050602002013573ffffffffffffffffffffffffffffffffffffffff16336107e06000809054906101000a900473ffffffffffffffffffffffffffffffffffffffff168888600081811061079457fe5b9050602002013573ffffffffffffffffffffffffffffffffffffffff16898960018181106107be57fe5b9050602002013573ffffffffffffffffffffffffffffffffffffffff16611362565b846000815181106107ed57fe5b60200260200101516114bd565b61084681858580806020026020016040519081016040528093929190818152602001838360200280828437600081840152601f19601f8201169050808301925050505050505084611722565b95945050505050565b606073__DNDLibrary____________________________63bb7b9c766000809054906101000a900473ffffffffffffffffffffffffffffffffffffffff168887876040518563ffffffff1660e01b8152600401808573ffffffffffffffffffffffffffffffffffffffff1673ffffffffffffffffffffffffffffffffffffffff168152602001848152602001806020018281038252848482818152602001925060200280828437600081840152601f19601f8201169050808301925050509550505050505060006040518083038186803b15801561092c57600080fd5b505af4158015610940573d6000803e3d6000fd5b505050506040513d6000823e3d601f19601f82011682018060405250602081101561096a57600080fd5b81019080805164010000000081111561098257600080fd5b8281019050602081018481111561099857600080fd5b81518560208202830111640100000000821117156109b557600080fd5b5050929190505050905084816001835103815181106109d057fe5b60200260200101511015610a2f576040517f08c379a0000000000000000000000000000000000000000000000000000000008152600401808060200182810382526025815260200180611d716025913960400191505060405180910390fd5b610af584846000818110610a3f57fe5b9050602002013573ffffffffffffffffffffffffffffffffffffffff1633610adb6000809054906101000a900473ffffffffffffffffffffffffffffffffffffffff1688886000818110610a8f57fe5b9050602002013573ffffffffffffffffffffffffffffffffffffffff1689896001818110610ab957fe5b9050602002013573ffffffffffffffffffffffffffffffffffffffff16611362565b84600081518110610ae857fe5b60200260200101516114bd565b610b4181858580806020026020016040519081016040528093929190818152602001838360200280828437600081840152601f19601f8201169050808301925050505050505084611722565b95945050505050565b6000806000610b7b6000809054906101000a900473ffffffffffffffffffffffffffffffffffffffff168a8a611362565b90508073ffffffffffffffffffffffffffffffffffffffff166323b872dd33838a6040518463ffffffff1660e01b8152600401808473ffffffffffffffffffffffffffffffffffffffff1673ffffffffffffffffffffffffffffffffffffffff1681526020018373ffffffffffffffffffffffffffffffffffffffff1673ffffffffffffffffffffffffffffffffffffffff1681526020018281526020019350505050602060405180830381600087803b158015610c3857600080fd5b505af1158015610c4c573d6000803e3d6000fd5b505050506040513d6020811015610c6257600080fd5b8101908080519060200190929190505050508073ffffffffffffffffffffffffffffffffffffffff166389afcb44856040518263ffffffff1660e01b8152600401808273ffffffffffffffffffffffffffffffffffffffff1673ffffffffffffffffffffffffffffffffffffffff1681526020019150506040805180830381600087803b158015610cf257600080fd5b505af1158015610d06573d6000803e3d6000fd5b505050506040513d6040811015610d1c57600080fd5b810190808051906020019092919080519060200190929190505050809350819450505085831015610db5576040517f08c379a00000000000000000000000000000000000000000000000000000000081526004018080602001828103825260208152602001807f444e44526f757465723a20494e53554646494349454e545f415f414d4f554e5481525060200191505060405180910390fd5b84821015610e2b576040517f08c379a00000000000000000000000000000000000000000000000000000000081526004018080602001828103825260208152602001807f444e44526f757465723a20494e53554646494349454e545f425f414d4f554e5481525060200191505060405180910390fd5b50965096945050505050565b6000809054906101000a900473ffffffffffffffffffffffffffffffffffffffff1681565b60008060008073ffffffffffffffffffffffffffffffffffffffff166000809054906101000a900473ffffffffffffffffffffffffffffffffffffffff1673ffffffffffffffffffffffffffffffffffffffff166369454b868c8c6040518363ffffffff1660e01b8152600401808373ffffffffffffffffffffffffffffffffffffffff1673ffffffffffffffffffffffffffffffffffffffff1681526020018273ffffffffffffffffffffffffffffffffffffffff1673ffffffffffffffffffffffffffffffffffffffff1681526020019250505060206040518083038186803b158015610f4a57600080fd5b505afa158015610f5e573d6000803e3d6000fd5b505050506040513d6020811015610f7457600080fd5b810190808051906020019092919050505073ffffffffffffffffffffffffffffffffffffffff1614156110b2576000809054906101000a900473ffffffffffffffffffffffffffffffffffffffff1673ffffffffffffffffffffffffffffffffffffffff1663c9c653968b8b6040518363ffffffff1660e01b8152600401808373ffffffffffffffffffffffffffffffffffffffff1673ffffffffffffffffffffffffffffffffffffffff1681526020018273ffffffffffffffffffffffffffffffffffffffff1673ffffffffffffffffffffffffffffffffffffffff16815260200192505050602060405180830381600087803b15801561107557600080fd5b505af1158015611089573d6000803e3d6000fd5b505050506040513d602081101561109f57600080fd5b8101908080519060200190929190505050505b6110c08a8a8a8a8a8a61192b565b809350819450505060006110f66000809054906101000a900473ffffffffffffffffffffffffffffffffffffffff168c8c611362565b90506111048b3383876114bd565b6111108a3383866114bd565b8073ffffffffffffffffffffffffffffffffffffffff16636a627842866040518263ffffffff1660e01b8152600401808273ffffffffffffffffffffffffffffffffffffffff1673ffffffffffffffffffffffffffffffffffffffff168152602001915050602060405180830381600087803b15801561118f57600080fd5b505af11580156111a3573d6000803e3d6000fd5b505050506040513d60208110156111b957600080fd5b81019080805190602001909291905050509150509750975097945050505050565b606073__DNDLibrary____________________________63bb7b9c766000809054906101000a900473ffffffffffffffffffffffffffffffffffffffff1685856040518463ffffffff1660e01b8152600401808473ffffffffffffffffffffffffffffffffffffffff1673ffffffffffffffffffffffffffffffffffffffff16815260200183815260200180602001828103825283818151815260200191508051906020019060200280838360005b838110156112a4578082015181840152602081019050611289565b5050505090500194505050505060006040518083038186803b1580156112c957600080fd5b505af41580156112dd573d6000803e3d6000fd5b505050506040513d6000823e3d601f19601f82011682018060405250602081101561130757600080fd5b81019080805164010000000081111561131f57600080fd5b8281019050602081018481111561133557600080fd5b815185602082028301116401000000008211171561135257600080fd5b5050929190505050905092915050565b60008060006113718585611d04565b91509150858282604051602001808373ffffffffffffffffffffffffffffffffffffffff1673ffffffffffffffffffffffffffffffffffffffff1660601b81526014018273ffffffffffffffffffffffffffffffffffffffff1673ffffffffffffffffffffffffffffffffffffffff1660601b8152601401925050506040516020818303038152906040528051906020012060405160200180807fff000000000000000000000000000000000000000000000000000000000000008152506001018373ffffffffffffffffffffffffffffffffffffffff1673ffffffffffffffffffffffffffffffffffffffff1660601b8152601401828152602001807f73991fa85d8ca6706a8129ed7872a45e27f6c7df8230dfe58b706f08e8b739a0815250602001925050506040516020818303038152906040528051906020012060001c925050509392505050565b600060608573ffffffffffffffffffffffffffffffffffffffff16858585604051602401808473ffffffffffffffffffffffffffffffffffffffff1673ffffffffffffffffffffffffffffffffffffffff1681526020018373ffffffffffffffffffffffffffffffffffffffff1673ffffffffffffffffffffffffffffffffffffffff16815260200182815260200193505050506040516020818303038152906040527f23b872dd000000000000000000000000000000000000000000000000000000007bffffffffffffffffffffffffffffffffffffffffffffffffffffffff19166020820180517bffffffffffffffffffffffffffffffffffffffffffffffffffffffff83818316178352505050506040518082805190602001908083835b6020831061160157805182526020820191506020810190506020830392506115de565b6001836020036101000a0380198251168184511680821785525050505050509050019150506000604051808303816000865af19150503d8060008114611663576040519150601f19603f3d011682016040523d82523d6000602084013e611668565b606091505b50915091508180156116a857506000815114806116a7575080806020019051602081101561169557600080fd5b81019080805190602001909291905050505b5b61171a576040517f08c379a00000000000000000000000000000000000000000000000000000000081526004018080602001828103825260138152602001807f534146455452414e534645525f4641494c45440000000000000000000000000081525060200191505060405180910390fd5b505050505050565b60005b60018351038110156119255760008084838151811061174057fe5b602002602001015185600185018151811061175757fe5b602002602001015191509150600061176f8383611d04565b509050600087600186018151811061178357fe5b602002602001015190506000808373ffffffffffffffffffffffffffffffffffffffff168673ffffffffffffffffffffffffffffffffffffffff16146117cb578260006117cf565b6000835b91509150600060028a510388106117e65788611829565b6118286000809054906101000a900473ffffffffffffffffffffffffffffffffffffffff16878c60028c018151811061181b57fe5b6020026020010151611362565b5b90506118576000809054906101000a900473ffffffffffffffffffffffffffffffffffffffff168888611362565b73ffffffffffffffffffffffffffffffffffffffff1663022c0d9f8484846040518463ffffffff1660e01b8152600401808481526020018381526020018273ffffffffffffffffffffffffffffffffffffffff1673ffffffffffffffffffffffffffffffffffffffff16815260200180602001828103825260008152602001602001945050505050600060405180830381600087803b1580156118f957600080fd5b505af115801561190d573d6000803e3d6000fd5b50505050505050505050508080600101915050611725565b50505050565b60008060008073__DNDLibrary____________________________63327494616000809054906101000a900473ffffffffffffffffffffffffffffffffffffffff168c8c6040518463ffffffff1660e01b8152600401808473ffffffffffffffffffffffffffffffffffffffff1673ffffffffffffffffffffffffffffffffffffffff1681526020018373ffffffffffffffffffffffffffffffffffffffff1673ffffffffffffffffffffffffffffffffffffffff1681526020018273ffffffffffffffffffffffffffffffffffffffff1673ffffffffffffffffffffffffffffffffffffffff1681526020019350505050604080518083038186803b158015611a3457600080fd5b505af4158015611a48573d6000803e3d6000fd5b505050506040513d6040811015611a5e57600080fd5b81019080805190602001909291908051906020019092919050505091509150600082148015611a8d5750600081145b15611aa15787878094508195505050611cf7565b600073__DNDLibrary____________________________63ad615dec8a85856040518463ffffffff1660e01b815260040180848152602001838152602001828152602001935050505060206040518083038186803b158015611b0257600080fd5b505af4158015611b16573d6000803e3d6000fd5b505050506040513d6020811015611b2c57600080fd5b81019080805190602001909291905050509050878111611bcb5785811015611bbc576040517f08c379a00000000000000000000000000000000000000000000000000000000081526004018080602001828103825260208152602001807f444e44526f757465723a20494e53554646494349454e545f425f414d4f554e5481525060200191505060405180910390fd5b88818095508196505050611cf5565b600073__DNDLibrary____________________________63ad615dec8a85876040518463ffffffff1660e01b815260040180848152602001838152602001828152602001935050505060206040518083038186803b158015611c2c57600080fd5b505af4158015611c40573d6000803e3d6000fd5b505050506040513d6020811015611c5657600080fd5b8101908080519060200190929190505050905089811115611c7357fe5b87811015611ce9576040517f08c379a00000000000000000000000000000000000000000000000000000000081526004018080602001828103825260208152602001807f444e44526f757465723a20494e53554646494349454e545f415f414d4f554e5481525060200191505060405180910390fd5b80898096508197505050505b505b5050965096945050505050565b6000808273ffffffffffffffffffffffffffffffffffffffff168473ffffffffffffffffffffffffffffffffffffffff1610611d41578284611d44565b83835b91509150925092905056fe444e44526f757465723a204558434553534956455f494e5055545f414d4f554e54444e44526f757465723a20494e53554646494349454e545f4f55545055545f414d4f554e54a165627a7a72305820ee319cbc794e16bd50f50bf6649e4ddc7cc6d2c00b9672cdad499e1b8c725fe20029",
  "source": "// SPDX-License-Identifier: MIT\r\npragma solidity ^0.5.6;\r\n\r\nimport \"./interfaces/IDNDFactory.sol\";\r\nimport \"./interfaces/IDNDPair.sol\";\r\nimport \"./libraries/DNDLibrary.sol\";\r\nimport \"./libraries/SafeMath.sol\";\r\n\r\ncontract DNDRouter {\r\n\r\n    using SafeMath for uint;\r\n\r\n    IDNDFactory public factory;\r\n\r\n    constructor(address factoryAddress) public {\r\n        factory = IDNDFactory(factoryAddress);\r\n    }\r\n\r\n    // **** ADD LIQUIDITY ****\r\n    function addLiquidity(\r\n        address tokenA,\r\n        address tokenB,\r\n        uint256 amountADesired, //  A   \r\n        uint256 amountBDesired, //  B   \r\n        uint256 amountAMin,     //  A    \r\n        uint256 amountBMin,     //  B    \r\n        address to              // A-B pair address\r\n    )\r\n        public\r\n        returns (\r\n            uint256 amountA,\r\n            uint256 amountB,\r\n            uint256 liquidity\r\n        )\r\n    {\r\n        if (factory.pairs(tokenA, tokenB) == address(0)) {\r\n            factory.createPair(tokenA, tokenB);\r\n        }\r\n\r\n        (amountA, amountB) = _calculateLiquidity(\r\n            tokenA,\r\n            tokenB,\r\n            amountADesired,\r\n            amountBDesired,\r\n            amountAMin,\r\n            amountBMin\r\n        );\r\n        address pairAddress = DNDLibrary.pairFor(\r\n            address(factory),\r\n            tokenA,\r\n            tokenB\r\n        );\r\n        _safeTransferFrom(tokenA, msg.sender, pairAddress, amountA);\r\n        _safeTransferFrom(tokenB, msg.sender, pairAddress, amountB);\r\n        liquidity = IDNDPair(pairAddress).mint(to);\r\n    }\r\n\r\n    // **** REMOVE LIQUIDITY ****\r\n    //-- removeLiquidity   : IKIP7(pair).approve(RouterAddress, liquidity)  \r\n      function removeLiquidity(\r\n        address tokenA,\r\n        address tokenB,\r\n        uint256 liquidity,\r\n        uint256 amountAMin,\r\n        uint256 amountBMin,\r\n        address to\r\n    ) public returns (uint256 amountA, uint256 amountB) {\r\n\r\n        // A-B   pair  assign\r\n        address pair = DNDLibrary.pairFor(\r\n            address(factory),\r\n            tokenA,\r\n            tokenB\r\n        );\r\n\r\n        // A-B   Liquidity LP   burn(pair pair  = burn)\r\n        IDNDPair(pair).transferFrom(msg.sender, pair, liquidity);\r\n\r\n        // to LP   , DNDPair burn amount0, amount1 A,B  to   \r\n        (amountA, amountB) = IDNDPair(pair).burn(to);\r\n        \r\n        require(amountA >= amountAMin, 'DNDRouter: INSUFFICIENT_A_AMOUNT');\r\n        require(amountB >= amountBMin, 'DNDRouter: INSUFFICIENT_B_AMOUNT');\r\n    }\r\n\r\n    // **** SWAP ****\r\n    // requires the initial amount to have already been sent to the first pair\r\n    // ref) https://jeiwan.net/posts/programming-defi-uniswapv2-4/\r\n\r\n    function swapExactTokensForTokens(  // Token to Token swap : ex) DAI-WBTC\r\n        uint256 amountIn,               // swap    A Token\r\n        uint256 amountOutMin,           // swap    B Token output\r\n        address[] calldata path,        // a list of token addresses we want this trade to happen([0]:tokenA, [1]: WKLAY, [2]: tokenB)\r\n        address to                      // amountIn    \r\n    ) external returns (uint[] memory amounts) {\r\n        amounts = DNDLibrary.getAmountsOut(\r\n            address(factory),\r\n            amountIn,\r\n            path\r\n        );\r\n        require(amounts[amounts.length - 1] >= amountOutMin, 'DNDRouter: INSUFFICIENT_OUTPUT_AMOUNT');\r\n        _safeTransferFrom(\r\n            path[0],\r\n            msg.sender,\r\n            DNDLibrary.pairFor(address(factory), path[0], path[1]),\r\n            amounts[0]\r\n        );\r\n        _swap(amounts, path, to);\r\n    }\r\n\r\n    function swapTokensForExactTokens(\r\n        uint256 amountOut,\r\n        uint256 amountInMax,\r\n        address[] calldata path,\r\n        address to\r\n    ) external returns (uint256[] memory amounts) {\r\n        amounts = DNDLibrary.getAmountsIn(\r\n            address(factory),\r\n            amountOut,\r\n            path\r\n        );\r\n        require(amounts[0] <= amountInMax, 'DNDRouter: EXCESSIVE_INPUT_AMOUNT');\r\n\r\n        _safeTransferFrom(\r\n            path[0],\r\n            msg.sender,\r\n            DNDLibrary.pairFor(address(factory), path[0], path[1]),\r\n            amounts[0]\r\n        );\r\n        _swap(amounts, path, to);\r\n    }\r\n\r\n    function getOutput(uint256 _amountIn, address[] memory path) public view returns (uint256[] memory) {\r\n        return DNDLibrary.getAmountsOut(address(factory), _amountIn, path);\r\n    }\r\n    \r\n    //\r\n    //\r\n    //\r\n    //  PRIVATE\r\n    //\r\n    //\r\n    //\r\n    function _swap(\r\n        uint256[] memory amounts,\r\n        address[] memory path,\r\n        address to_\r\n    ) internal {\r\n        for (uint256 i; i < path.length - 1; i++) {\r\n            (address input, address output) = (path[i], path[i + 1]);\r\n            (address token0, ) = DNDLibrary.sortTokens(input, output);\r\n            uint256 amountOut = amounts[i + 1];\r\n            (uint256 amount0Out, uint256 amount1Out) = input == token0\r\n                ? (uint256(0), amountOut)\r\n                : (amountOut, uint256(0));\r\n            address to = i < path.length - 2\r\n                ? DNDLibrary.pairFor(\r\n                    address(factory),\r\n                    output,\r\n                    path[i + 2]\r\n                )\r\n                : to_;\r\n            IDNDPair(\r\n                DNDLibrary.pairFor(address(factory), input, output)\r\n            ).swap(amount0Out, amount1Out, to, \"\");\r\n        }\r\n    }\r\n    function _calculateLiquidity(\r\n        address tokenA,\r\n        address tokenB,\r\n        uint256 amountADesired,\r\n        uint256 amountBDesired,\r\n        uint256 amountAMin,\r\n        uint256 amountBMin\r\n    ) internal view returns (uint256 amountA, uint256 amountB) {\r\n        (uint256 reserveA, uint256 reserveB) = DNDLibrary.getReserves(\r\n            address(factory),\r\n            tokenA,\r\n            tokenB\r\n        );\r\n\r\n        if (reserveA == 0 && reserveB == 0) {\r\n            (amountA, amountB) = (amountADesired, amountBDesired);\r\n        } else {\r\n            uint256 amountBOptimal = DNDLibrary.quote(\r\n                amountADesired,\r\n                reserveA,\r\n                reserveB\r\n            );\r\n            if (amountBOptimal <= amountBDesired) {\r\n                require(amountBOptimal >= amountBMin, 'DNDRouter: INSUFFICIENT_B_AMOUNT');\r\n                (amountA, amountB) = (amountADesired, amountBOptimal);\r\n            } else {\r\n                uint256 amountAOptimal = DNDLibrary.quote(\r\n                    amountBDesired,\r\n                    reserveB,\r\n                    reserveA\r\n                );\r\n                assert(amountAOptimal <= amountADesired);\r\n\r\n                require(amountAOptimal >= amountAMin, 'DNDRouter: INSUFFICIENT_A_AMOUNT');\r\n                (amountA, amountB) = (amountAOptimal, amountBDesired);\r\n            }\r\n        }\r\n    }\r\n\r\n    function _safeTransferFrom(\r\n        address token,\r\n        address from,\r\n        address to,\r\n        uint256 value\r\n    ) private {\r\n        (bool success, bytes memory data) = token.call(\r\n            abi.encodeWithSignature(\r\n                \"transferFrom(address,address,uint256)\",\r\n                from,\r\n                to,\r\n                value\r\n            )\r\n        );\r\n        require(success && (data.length == 0 || abi.decode(data, (bool))), 'SAFETRANSFER_FAILED');\r\n    }\r\n}",
  "sourcePath": "D:\\GitHub\\beb-03-DND\\contract\\contracts\\V2\\DNDRouter.sol",
  "compiler": {
    "name": "solc",
    "version": "0.5.6+commit.b259423e.Emscripten.clang"
  },
  "schemaVersion": "3.4.7",
  "updatedAt": "2022-05-31T01:50:18.979Z",
  "networkType": "ethereum",
  "devdoc": {
    "methods": {}
  },
  "userdoc": {
    "methods": {}
  }
}