{
  "contractName": "DNDRouter",
  "abi": [
    {
      "constant": true,
      "inputs": [],
      "name": "factory",
      "outputs": [
        {
          "name": "",
          "type": "address"
        }
      ],
      "payable": false,
      "stateMutability": "view",
      "type": "function"
    },
    {
      "inputs": [
        {
          "name": "factoryAddress",
          "type": "address"
        }
      ],
      "payable": false,
      "stateMutability": "nonpayable",
      "type": "constructor"
    },
    {
      "constant": false,
      "inputs": [
        {
          "name": "tokenA",
          "type": "address"
        },
        {
          "name": "tokenB",
          "type": "address"
        },
        {
          "name": "amountADesired",
          "type": "uint256"
        },
        {
          "name": "amountBDesired",
          "type": "uint256"
        },
        {
          "name": "amountAMin",
          "type": "uint256"
        },
        {
          "name": "amountBMin",
          "type": "uint256"
        },
        {
          "name": "to",
          "type": "address"
        }
      ],
      "name": "addLiquidity",
      "outputs": [
        {
          "name": "amountA",
          "type": "uint256"
        },
        {
          "name": "amountB",
          "type": "uint256"
        },
        {
          "name": "liquidity",
          "type": "uint256"
        }
      ],
      "payable": false,
      "stateMutability": "nonpayable",
      "type": "function"
    },
    {
      "constant": false,
      "inputs": [
        {
          "name": "tokenA",
          "type": "address"
        },
        {
          "name": "tokenB",
          "type": "address"
        },
        {
          "name": "liquidity",
          "type": "uint256"
        },
        {
          "name": "amountAMin",
          "type": "uint256"
        },
        {
          "name": "amountBMin",
          "type": "uint256"
        },
        {
          "name": "to",
          "type": "address"
        }
      ],
      "name": "removeLiquidity",
      "outputs": [
        {
          "name": "amountA",
          "type": "uint256"
        },
        {
          "name": "amountB",
          "type": "uint256"
        }
      ],
      "payable": false,
      "stateMutability": "nonpayable",
      "type": "function"
    },
    {
      "constant": false,
      "inputs": [
        {
          "name": "amountIn",
          "type": "uint256"
        },
        {
          "name": "amountOutMin",
          "type": "uint256"
        },
        {
          "name": "path",
          "type": "address[]"
        },
        {
          "name": "to",
          "type": "address"
        }
      ],
      "name": "swapExactTokensForTokens",
      "outputs": [
        {
          "name": "amounts",
          "type": "uint256[]"
        }
      ],
      "payable": false,
      "stateMutability": "nonpayable",
      "type": "function"
    },
    {
      "constant": false,
      "inputs": [
        {
          "name": "amountOut",
          "type": "uint256"
        },
        {
          "name": "amountInMax",
          "type": "uint256"
        },
        {
          "name": "path",
          "type": "address[]"
        },
        {
          "name": "to",
          "type": "address"
        }
      ],
      "name": "swapTokensForExactTokens",
      "outputs": [
        {
          "name": "amounts",
          "type": "uint256[]"
        }
      ],
      "payable": false,
      "stateMutability": "nonpayable",
      "type": "function"
    }
  ],
  "bytecode": "0x608060405234801561001057600080fd5b50604051602080611ba88339810180604052602081101561003057600080fd5b8101908080519060200190929190505050806000806101000a81548173ffffffffffffffffffffffffffffffffffffffff021916908373ffffffffffffffffffffffffffffffffffffffff16021790555050611b17806100916000396000f3fe608060405234801561001057600080fd5b50600436106100575760003560e01c806342712a671461005c578063472b43f31461015e578063c0e3ee6b14610260578063c45a01551461031d578063ca3d653914610367575b600080fd5b6101076004803603608081101561007257600080fd5b810190808035906020019092919080359060200190929190803590602001906401000000008111156100a357600080fd5b8201836020820111156100b557600080fd5b803590602001918460208302840111640100000000831117156100d757600080fd5b9091929391929390803573ffffffffffffffffffffffffffffffffffffffff169060200190929190505050610435565b6040518080602001828103825283818151815260200191508051906020019060200280838360005b8381101561014a57808201518184015260208101905061012f565b505050509050019250505060405180910390f35b6102096004803603608081101561017457600080fd5b810190808035906020019092919080359060200190929190803590602001906401000000008111156101a557600080fd5b8201836020820111156101b757600080fd5b803590602001918460208302840111640100000000831117156101d957600080fd5b9091929391929390803573ffffffffffffffffffffffffffffffffffffffff16906020019092919050505061072d565b6040518080602001828103825283818151815260200191508051906020019060200280838360005b8381101561024c578082015181840152602081019050610231565b505050509050019250505060405180910390f35b610300600480360360c081101561027657600080fd5b81019080803573ffffffffffffffffffffffffffffffffffffffff169060200190929190803573ffffffffffffffffffffffffffffffffffffffff169060200190929190803590602001909291908035906020019092919080359060200190929190803573ffffffffffffffffffffffffffffffffffffffff169060200190929190505050610a28565b604051808381526020018281526020019250505060405180910390f35b610325610d15565b604051808273ffffffffffffffffffffffffffffffffffffffff1673ffffffffffffffffffffffffffffffffffffffff16815260200191505060405180910390f35b610411600480360360e081101561037d57600080fd5b81019080803573ffffffffffffffffffffffffffffffffffffffff169060200190929190803573ffffffffffffffffffffffffffffffffffffffff16906020019092919080359060200190929190803590602001909291908035906020019092919080359060200190929190803573ffffffffffffffffffffffffffffffffffffffff169060200190929190505050610d3a565b60405180848152602001838152602001828152602001935050505060405180910390f35b606073__DNDLibrary____________________________63192128b26000809054906101000a900473ffffffffffffffffffffffffffffffffffffffff168887876040518563ffffffff1660e01b8152600401808573ffffffffffffffffffffffffffffffffffffffff1673ffffffffffffffffffffffffffffffffffffffff168152602001848152602001806020018281038252848482818152602001925060200280828437600081840152601f19601f8201169050808301925050509550505050505060006040518083038186803b15801561051257600080fd5b505af4158015610526573d6000803e3d6000fd5b505050506040513d6000823e3d601f19601f82011682018060405250602081101561055057600080fd5b81019080805164010000000081111561056857600080fd5b8281019050602081018481111561057e57600080fd5b815185602082028301116401000000008211171561059b57600080fd5b5050929190505050905084816000815181106105b357fe5b60200260200101511115610612576040517f08c379a0000000000000000000000000000000000000000000000000000000008152600401808060200182810382526021815260200180611aa66021913960400191505060405180910390fd5b6106d88484600081811061062257fe5b9050602002013573ffffffffffffffffffffffffffffffffffffffff16336106be6000809054906101000a900473ffffffffffffffffffffffffffffffffffffffff168888600081811061067257fe5b9050602002013573ffffffffffffffffffffffffffffffffffffffff168989600181811061069c57fe5b9050602002013573ffffffffffffffffffffffffffffffffffffffff166110b8565b846000815181106106cb57fe5b6020026020010151611213565b61072481858580806020026020016040519081016040528093929190818152602001838360200280828437600081840152601f19601f8201169050808301925050505050505084611478565b95945050505050565b606073__DNDLibrary____________________________63bb7b9c766000809054906101000a900473ffffffffffffffffffffffffffffffffffffffff168887876040518563ffffffff1660e01b8152600401808573ffffffffffffffffffffffffffffffffffffffff1673ffffffffffffffffffffffffffffffffffffffff168152602001848152602001806020018281038252848482818152602001925060200280828437600081840152601f19601f8201169050808301925050509550505050505060006040518083038186803b15801561080a57600080fd5b505af415801561081e573d6000803e3d6000fd5b505050506040513d6000823e3d601f19601f82011682018060405250602081101561084857600080fd5b81019080805164010000000081111561086057600080fd5b8281019050602081018481111561087657600080fd5b815185602082028301116401000000008211171561089357600080fd5b5050929190505050905084816001835103815181106108ae57fe5b6020026020010151101561090d576040517f08c379a0000000000000000000000000000000000000000000000000000000008152600401808060200182810382526025815260200180611ac76025913960400191505060405180910390fd5b6109d38484600081811061091d57fe5b9050602002013573ffffffffffffffffffffffffffffffffffffffff16336109b96000809054906101000a900473ffffffffffffffffffffffffffffffffffffffff168888600081811061096d57fe5b9050602002013573ffffffffffffffffffffffffffffffffffffffff168989600181811061099757fe5b9050602002013573ffffffffffffffffffffffffffffffffffffffff166110b8565b846000815181106109c657fe5b6020026020010151611213565b610a1f81858580806020026020016040519081016040528093929190818152602001838360200280828437600081840152601f19601f8201169050808301925050505050505084611478565b95945050505050565b6000806000610a596000809054906101000a900473ffffffffffffffffffffffffffffffffffffffff168a8a6110b8565b90508073ffffffffffffffffffffffffffffffffffffffff166323b872dd33838a6040518463ffffffff1660e01b8152600401808473ffffffffffffffffffffffffffffffffffffffff1673ffffffffffffffffffffffffffffffffffffffff1681526020018373ffffffffffffffffffffffffffffffffffffffff1673ffffffffffffffffffffffffffffffffffffffff1681526020018281526020019350505050602060405180830381600087803b158015610b1657600080fd5b505af1158015610b2a573d6000803e3d6000fd5b505050506040513d6020811015610b4057600080fd5b8101908080519060200190929190505050508073ffffffffffffffffffffffffffffffffffffffff166389afcb44856040518263ffffffff1660e01b8152600401808273ffffffffffffffffffffffffffffffffffffffff1673ffffffffffffffffffffffffffffffffffffffff1681526020019150506040805180830381600087803b158015610bd057600080fd5b505af1158015610be4573d6000803e3d6000fd5b505050506040513d6040811015610bfa57600080fd5b810190808051906020019092919080519060200190929190505050809350819450505085831015610c93576040517f08c379a00000000000000000000000000000000000000000000000000000000081526004018080602001828103825260208152602001807f444e44526f757465723a20494e53554646494349454e545f415f414d4f554e5481525060200191505060405180910390fd5b84821015610d09576040517f08c379a00000000000000000000000000000000000000000000000000000000081526004018080602001828103825260208152602001807f444e44526f757465723a20494e53554646494349454e545f425f414d4f554e5481525060200191505060405180910390fd5b50965096945050505050565b6000809054906101000a900473ffffffffffffffffffffffffffffffffffffffff1681565b60008060008073ffffffffffffffffffffffffffffffffffffffff166000809054906101000a900473ffffffffffffffffffffffffffffffffffffffff1673ffffffffffffffffffffffffffffffffffffffff166369454b868c8c6040518363ffffffff1660e01b8152600401808373ffffffffffffffffffffffffffffffffffffffff1673ffffffffffffffffffffffffffffffffffffffff1681526020018273ffffffffffffffffffffffffffffffffffffffff1673ffffffffffffffffffffffffffffffffffffffff1681526020019250505060206040518083038186803b158015610e2857600080fd5b505afa158015610e3c573d6000803e3d6000fd5b505050506040513d6020811015610e5257600080fd5b810190808051906020019092919050505073ffffffffffffffffffffffffffffffffffffffff161415610f90576000809054906101000a900473ffffffffffffffffffffffffffffffffffffffff1673ffffffffffffffffffffffffffffffffffffffff1663c9c653968b8b6040518363ffffffff1660e01b8152600401808373ffffffffffffffffffffffffffffffffffffffff1673ffffffffffffffffffffffffffffffffffffffff1681526020018273ffffffffffffffffffffffffffffffffffffffff1673ffffffffffffffffffffffffffffffffffffffff16815260200192505050602060405180830381600087803b158015610f5357600080fd5b505af1158015610f67573d6000803e3d6000fd5b505050506040513d6020811015610f7d57600080fd5b8101908080519060200190929190505050505b610f9e8a8a8a8a8a8a611681565b80935081945050506000610fd46000809054906101000a900473ffffffffffffffffffffffffffffffffffffffff168c8c6110b8565b9050610fe28b338387611213565b610fee8a338386611213565b8073ffffffffffffffffffffffffffffffffffffffff16636a627842866040518263ffffffff1660e01b8152600401808273ffffffffffffffffffffffffffffffffffffffff1673ffffffffffffffffffffffffffffffffffffffff168152602001915050602060405180830381600087803b15801561106d57600080fd5b505af1158015611081573d6000803e3d6000fd5b505050506040513d602081101561109757600080fd5b81019080805190602001909291905050509150509750975097945050505050565b60008060006110c78585611a5a565b91509150858282604051602001808373ffffffffffffffffffffffffffffffffffffffff1673ffffffffffffffffffffffffffffffffffffffff1660601b81526014018273ffffffffffffffffffffffffffffffffffffffff1673ffffffffffffffffffffffffffffffffffffffff1660601b8152601401925050506040516020818303038152906040528051906020012060405160200180807fff000000000000000000000000000000000000000000000000000000000000008152506001018373ffffffffffffffffffffffffffffffffffffffff1673ffffffffffffffffffffffffffffffffffffffff1660601b8152601401828152602001807f1664ae3c9ccd204ab2a16c6cda9c850db451167e132a5bf42af591dab9c47df4815250602001925050506040516020818303038152906040528051906020012060001c925050509392505050565b600060608573ffffffffffffffffffffffffffffffffffffffff16858585604051602401808473ffffffffffffffffffffffffffffffffffffffff1673ffffffffffffffffffffffffffffffffffffffff1681526020018373ffffffffffffffffffffffffffffffffffffffff1673ffffffffffffffffffffffffffffffffffffffff16815260200182815260200193505050506040516020818303038152906040527f23b872dd000000000000000000000000000000000000000000000000000000007bffffffffffffffffffffffffffffffffffffffffffffffffffffffff19166020820180517bffffffffffffffffffffffffffffffffffffffffffffffffffffffff83818316178352505050506040518082805190602001908083835b602083106113575780518252602082019150602081019050602083039250611334565b6001836020036101000a0380198251168184511680821785525050505050509050019150506000604051808303816000865af19150503d80600081146113b9576040519150601f19603f3d011682016040523d82523d6000602084013e6113be565b606091505b50915091508180156113fe57506000815114806113fd57508080602001905160208110156113eb57600080fd5b81019080805190602001909291905050505b5b611470576040517f08c379a00000000000000000000000000000000000000000000000000000000081526004018080602001828103825260138152602001807f534146455452414e534645525f4641494c45440000000000000000000000000081525060200191505060405180910390fd5b505050505050565b60005b600183510381101561167b5760008084838151811061149657fe5b60200260200101518560018501815181106114ad57fe5b60200260200101519150915060006114c58383611a5a565b50905060008760018601815181106114d957fe5b602002602001015190506000808373ffffffffffffffffffffffffffffffffffffffff168673ffffffffffffffffffffffffffffffffffffffff161461152157826000611525565b6000835b91509150600060028a5103881061153c578861157f565b61157e6000809054906101000a900473ffffffffffffffffffffffffffffffffffffffff16878c60028c018151811061157157fe5b60200260200101516110b8565b5b90506115ad6000809054906101000a900473ffffffffffffffffffffffffffffffffffffffff1688886110b8565b73ffffffffffffffffffffffffffffffffffffffff1663022c0d9f8484846040518463ffffffff1660e01b8152600401808481526020018381526020018273ffffffffffffffffffffffffffffffffffffffff1673ffffffffffffffffffffffffffffffffffffffff16815260200180602001828103825260008152602001602001945050505050600060405180830381600087803b15801561164f57600080fd5b505af1158015611663573d6000803e3d6000fd5b5050505050505050505050808060010191505061147b565b50505050565b60008060008073__DNDLibrary____________________________63327494616000809054906101000a900473ffffffffffffffffffffffffffffffffffffffff168c8c6040518463ffffffff1660e01b8152600401808473ffffffffffffffffffffffffffffffffffffffff1673ffffffffffffffffffffffffffffffffffffffff1681526020018373ffffffffffffffffffffffffffffffffffffffff1673ffffffffffffffffffffffffffffffffffffffff1681526020018273ffffffffffffffffffffffffffffffffffffffff1673ffffffffffffffffffffffffffffffffffffffff1681526020019350505050604080518083038186803b15801561178a57600080fd5b505af415801561179e573d6000803e3d6000fd5b505050506040513d60408110156117b457600080fd5b810190808051906020019092919080519060200190929190505050915091506000821480156117e35750600081145b156117f75787878094508195505050611a4d565b600073__DNDLibrary____________________________63ad615dec8a85856040518463ffffffff1660e01b815260040180848152602001838152602001828152602001935050505060206040518083038186803b15801561185857600080fd5b505af415801561186c573d6000803e3d6000fd5b505050506040513d602081101561188257600080fd5b810190808051906020019092919050505090508781116119215785811015611912576040517f08c379a00000000000000000000000000000000000000000000000000000000081526004018080602001828103825260208152602001807f444e44526f757465723a20494e53554646494349454e545f425f414d4f554e5481525060200191505060405180910390fd5b88818095508196505050611a4b565b600073__DNDLibrary____________________________63ad615dec8a85876040518463ffffffff1660e01b815260040180848152602001838152602001828152602001935050505060206040518083038186803b15801561198257600080fd5b505af4158015611996573d6000803e3d6000fd5b505050506040513d60208110156119ac57600080fd5b81019080805190602001909291905050509050898111156119c957fe5b87811015611a3f576040517f08c379a00000000000000000000000000000000000000000000000000000000081526004018080602001828103825260208152602001807f444e44526f757465723a20494e53554646494349454e545f415f414d4f554e5481525060200191505060405180910390fd5b80898096508197505050505b505b5050965096945050505050565b6000808273ffffffffffffffffffffffffffffffffffffffff168473ffffffffffffffffffffffffffffffffffffffff1610611a97578284611a9a565b83835b91509150925092905056fe444e44526f757465723a204558434553534956455f494e5055545f414d4f554e54444e44526f757465723a20494e53554646494349454e545f4f55545055545f414d4f554e54a165627a7a723058209c04d5bfcaf10ff639086412959362885c6882513106e55c65adaf7ab6b34a1f0029",
  "source": "// SPDX-License-Identifier: MIT\npragma solidity ^0.5.6;\n\nimport './interfaces/IDNDFactory.sol';\nimport \"./interfaces/IDNDPair.sol\";\nimport \"./libraries/DNDLibrary.sol\";\nimport \"./libraries/SafeMath.sol\";\n\ncontract DNDRouter {\n\n    using SafeMath for uint;\n\n    IDNDFactory public factory;\n\n    constructor(address factoryAddress) public {\n        factory = IDNDFactory(factoryAddress);\n    }\n\n    // **** ADD LIQUIDITY ****\n    function addLiquidity(\n        address tokenA,\n        address tokenB,\n        uint256 amountADesired, // 토큰 A에 넣고자하는 토큰의 양\n        uint256 amountBDesired, // 토큰 B에 넣고자하는 토큰의 양\n        uint256 amountAMin,     // 토큰 A에 들어가야하는 토큰의 최소 양\n        uint256 amountBMin,     // 토큰 B에 들어가야하는 토큰의 최소 양\n        address to              // A-B토큰 pair address\n    )\n        public\n        returns (\n            uint256 amountA,\n            uint256 amountB,\n            uint256 liquidity\n        )\n    {\n        if (factory.pairs(tokenA, tokenB) == address(0)) {\n            factory.createPair(tokenA, tokenB);\n        }\n\n        (amountA, amountB) = _calculateLiquidity(\n            tokenA,\n            tokenB,\n            amountADesired,\n            amountBDesired,\n            amountAMin,\n            amountBMin\n        );\n        address pairAddress = DNDLibrary.pairFor(\n            address(factory),\n            tokenA,\n            tokenB\n        );\n        _safeTransferFrom(tokenA, msg.sender, pairAddress, amountA);\n        _safeTransferFrom(tokenB, msg.sender, pairAddress, amountB);\n        liquidity = IDNDPair(pairAddress).mint(to);\n    }\n\n    // **** REMOVE LIQUIDITY ****\n    //-- removeLiquidity 실행 전 : IKIP7(pair).approve(RouterAddress, liquidity) 승인 필요\n      function removeLiquidity(\n        address tokenA,\n        address tokenB,\n        uint256 liquidity,\n        uint256 amountAMin,\n        uint256 amountBMin,\n        address to\n    ) public returns (uint256 amountA, uint256 amountB) {\n\n        // A-B 토큰의 페어주소를 pair 변수에 assign\n        address pair = DNDLibrary.pairFor(\n            address(factory),\n            tokenA,\n            tokenB\n        );\n\n        // A-B 페어가 입력받은 Liquidity의 LP 토큰 만큼 burn(pair가 pair에게 전송 = burn)\n        IDNDPair(pair).transferFrom(msg.sender, pair, liquidity);\n\n        // to의 LP 토큰 잔액이 변경됐으므로, DNDPair의 burn함수로 amount0, amount1만큼 A,B 토큰을 to에게 돌려준다  \n        (amountA, amountB) = IDNDPair(pair).burn(to);\n        \n        require(amountA >= amountAMin, 'DNDRouter: INSUFFICIENT_A_AMOUNT');\n        require(amountB >= amountBMin, 'DNDRouter: INSUFFICIENT_B_AMOUNT');\n    }\n\n    // **** SWAP ****\n    // requires the initial amount to have already been sent to the first pair\n    // ref) https://jeiwan.net/posts/programming-defi-uniswapv2-4/\n\n    function swapExactTokensForTokens(  // Token to Token swap : ex) DAI-WBTC\n        uint256 amountIn,               // swap 을 위해 입금한 A Token\n        uint256 amountOutMin,           // swap 후 최소한 얻고자하는 B Token output\n        address[] calldata path,        // a list of token addresses we want this trade to happen([0]:tokenA, [1]: WKLAY, [2]: tokenB)\n        address to                      // amountIn 을 보낼 대상의 주소\n    ) external returns (uint[] memory amounts) {\n        amounts = DNDLibrary.getAmountsOut(\n            address(factory),\n            amountIn,\n            path\n        );\n        require(amounts[amounts.length - 1] >= amountOutMin, 'DNDRouter: INSUFFICIENT_OUTPUT_AMOUNT');\n        _safeTransferFrom(\n            path[0],\n            msg.sender,\n            DNDLibrary.pairFor(address(factory), path[0], path[1]),\n            amounts[0]\n        );\n        _swap(amounts, path, to);\n    }\n\n    function swapTokensForExactTokens(\n        uint256 amountOut,\n        uint256 amountInMax,\n        address[] calldata path,\n        address to\n    ) external returns (uint256[] memory amounts) {\n        amounts = DNDLibrary.getAmountsIn(\n            address(factory),\n            amountOut,\n            path\n        );\n        require(amounts[0] <= amountInMax, 'DNDRouter: EXCESSIVE_INPUT_AMOUNT');\n\n        _safeTransferFrom(\n            path[0],\n            msg.sender,\n            DNDLibrary.pairFor(address(factory), path[0], path[1]),\n            amounts[0]\n        );\n        _swap(amounts, path, to);\n    }\n    \n    //\n    //\n    //\n    //  PRIVATE\n    //\n    //\n    //\n    function _swap(\n        uint256[] memory amounts,\n        address[] memory path,\n        address to_\n    ) internal {\n        for (uint256 i; i < path.length - 1; i++) {\n            (address input, address output) = (path[i], path[i + 1]);\n            (address token0, ) = DNDLibrary.sortTokens(input, output);\n            uint256 amountOut = amounts[i + 1];\n            (uint256 amount0Out, uint256 amount1Out) = input == token0\n                ? (uint256(0), amountOut)\n                : (amountOut, uint256(0));\n            address to = i < path.length - 2\n                ? DNDLibrary.pairFor(\n                    address(factory),\n                    output,\n                    path[i + 2]\n                )\n                : to_;\n            IDNDPair(\n                DNDLibrary.pairFor(address(factory), input, output)\n            ).swap(amount0Out, amount1Out, to, \"\");\n        }\n    }\n    function _calculateLiquidity(\n        address tokenA,\n        address tokenB,\n        uint256 amountADesired,\n        uint256 amountBDesired,\n        uint256 amountAMin,\n        uint256 amountBMin\n    ) internal returns (uint256 amountA, uint256 amountB) {\n        (uint256 reserveA, uint256 reserveB) = DNDLibrary.getReserves(\n            address(factory),\n            tokenA,\n            tokenB\n        );\n\n        if (reserveA == 0 && reserveB == 0) {\n            (amountA, amountB) = (amountADesired, amountBDesired);\n        } else {\n            uint256 amountBOptimal = DNDLibrary.quote(\n                amountADesired,\n                reserveA,\n                reserveB\n            );\n            if (amountBOptimal <= amountBDesired) {\n                require(amountBOptimal >= amountBMin, 'DNDRouter: INSUFFICIENT_B_AMOUNT');\n                (amountA, amountB) = (amountADesired, amountBOptimal);\n            } else {\n                uint256 amountAOptimal = DNDLibrary.quote(\n                    amountBDesired,\n                    reserveB,\n                    reserveA\n                );\n                assert(amountAOptimal <= amountADesired);\n\n                require(amountAOptimal >= amountAMin, 'DNDRouter: INSUFFICIENT_A_AMOUNT');\n                (amountA, amountB) = (amountAOptimal, amountBDesired);\n            }\n        }\n    }\n\n    function _safeTransferFrom(\n        address token,\n        address from,\n        address to,\n        uint256 value\n    ) private {\n        (bool success, bytes memory data) = token.call(\n            abi.encodeWithSignature(\n                \"transferFrom(address,address,uint256)\",\n                from,\n                to,\n                value\n            )\n        );\n        require(success && (data.length == 0 || abi.decode(data, (bool))), 'SAFETRANSFER_FAILED');\n    }\n}",
  "sourcePath": "/Users/baekdonghyun/Desktop/beb-03-DND/contract/contracts/V2/DNDRouter.sol",
  "compiler": {
    "name": "solc",
    "version": "0.5.6+commit.b259423e.Emscripten.clang"
  },
  "schemaVersion": "3.4.5",
  "updatedAt": "2022-05-24T12:27:17.231Z",
  "devdoc": {
    "methods": {}
  },
  "userdoc": {
    "methods": {}
  }
}