{
  "contractName": "Exchange",
  "abi": [
    {
      "constant": true,
      "inputs": [
        {
          "name": "interfaceId",
          "type": "bytes4"
        }
      ],
      "name": "supportsInterface",
      "outputs": [
        {
          "name": "",
          "type": "bool"
        }
      ],
      "payable": false,
      "stateMutability": "view",
      "type": "function"
    },
    {
      "constant": true,
      "inputs": [],
      "name": "name",
      "outputs": [
        {
          "name": "",
          "type": "string"
        }
      ],
      "payable": false,
      "stateMutability": "view",
      "type": "function"
    },
    {
      "constant": false,
      "inputs": [
        {
          "name": "spender",
          "type": "address"
        },
        {
          "name": "value",
          "type": "uint256"
        }
      ],
      "name": "approve",
      "outputs": [
        {
          "name": "",
          "type": "bool"
        }
      ],
      "payable": false,
      "stateMutability": "nonpayable",
      "type": "function"
    },
    {
      "constant": true,
      "inputs": [],
      "name": "uru",
      "outputs": [
        {
          "name": "",
          "type": "address"
        }
      ],
      "payable": false,
      "stateMutability": "view",
      "type": "function"
    },
    {
      "constant": true,
      "inputs": [],
      "name": "totalSupply",
      "outputs": [
        {
          "name": "",
          "type": "uint256"
        }
      ],
      "payable": false,
      "stateMutability": "view",
      "type": "function"
    },
    {
      "constant": false,
      "inputs": [
        {
          "name": "sender",
          "type": "address"
        },
        {
          "name": "recipient",
          "type": "address"
        },
        {
          "name": "amount",
          "type": "uint256"
        }
      ],
      "name": "transferFrom",
      "outputs": [
        {
          "name": "",
          "type": "bool"
        }
      ],
      "payable": false,
      "stateMutability": "nonpayable",
      "type": "function"
    },
    {
      "constant": true,
      "inputs": [
        {
          "name": "",
          "type": "address"
        }
      ],
      "name": "URUBalance",
      "outputs": [
        {
          "name": "",
          "type": "uint256"
        }
      ],
      "payable": false,
      "stateMutability": "view",
      "type": "function"
    },
    {
      "constant": true,
      "inputs": [],
      "name": "decimals",
      "outputs": [
        {
          "name": "",
          "type": "uint8"
        }
      ],
      "payable": false,
      "stateMutability": "view",
      "type": "function"
    },
    {
      "constant": false,
      "inputs": [
        {
          "name": "recipient",
          "type": "address"
        },
        {
          "name": "amount",
          "type": "uint256"
        }
      ],
      "name": "safeTransfer",
      "outputs": [],
      "payable": false,
      "stateMutability": "nonpayable",
      "type": "function"
    },
    {
      "constant": false,
      "inputs": [
        {
          "name": "sender",
          "type": "address"
        },
        {
          "name": "recipient",
          "type": "address"
        },
        {
          "name": "amount",
          "type": "uint256"
        }
      ],
      "name": "safeTransferFrom",
      "outputs": [],
      "payable": false,
      "stateMutability": "nonpayable",
      "type": "function"
    },
    {
      "constant": true,
      "inputs": [
        {
          "name": "",
          "type": "address"
        }
      ],
      "name": "stakingBalance",
      "outputs": [
        {
          "name": "",
          "type": "uint256"
        }
      ],
      "payable": false,
      "stateMutability": "view",
      "type": "function"
    },
    {
      "constant": true,
      "inputs": [
        {
          "name": "",
          "type": "address"
        }
      ],
      "name": "startTime",
      "outputs": [
        {
          "name": "",
          "type": "uint256"
        }
      ],
      "payable": false,
      "stateMutability": "view",
      "type": "function"
    },
    {
      "constant": true,
      "inputs": [
        {
          "name": "",
          "type": "address"
        }
      ],
      "name": "isStaking",
      "outputs": [
        {
          "name": "",
          "type": "bool"
        }
      ],
      "payable": false,
      "stateMutability": "view",
      "type": "function"
    },
    {
      "constant": true,
      "inputs": [
        {
          "name": "account",
          "type": "address"
        }
      ],
      "name": "balanceOf",
      "outputs": [
        {
          "name": "",
          "type": "uint256"
        }
      ],
      "payable": false,
      "stateMutability": "view",
      "type": "function"
    },
    {
      "constant": true,
      "inputs": [],
      "name": "symbol",
      "outputs": [
        {
          "name": "",
          "type": "string"
        }
      ],
      "payable": false,
      "stateMutability": "view",
      "type": "function"
    },
    {
      "constant": true,
      "inputs": [],
      "name": "factoryAddress",
      "outputs": [
        {
          "name": "",
          "type": "address"
        }
      ],
      "payable": false,
      "stateMutability": "view",
      "type": "function"
    },
    {
      "constant": true,
      "inputs": [],
      "name": "tokenAddress",
      "outputs": [
        {
          "name": "",
          "type": "address"
        }
      ],
      "payable": false,
      "stateMutability": "view",
      "type": "function"
    },
    {
      "constant": true,
      "inputs": [
        {
          "name": "",
          "type": "uint256"
        }
      ],
      "name": "userList",
      "outputs": [
        {
          "name": "",
          "type": "address"
        }
      ],
      "payable": false,
      "stateMutability": "view",
      "type": "function"
    },
    {
      "constant": false,
      "inputs": [
        {
          "name": "recipient",
          "type": "address"
        },
        {
          "name": "amount",
          "type": "uint256"
        }
      ],
      "name": "transfer",
      "outputs": [
        {
          "name": "",
          "type": "bool"
        }
      ],
      "payable": false,
      "stateMutability": "nonpayable",
      "type": "function"
    },
    {
      "constant": false,
      "inputs": [
        {
          "name": "sender",
          "type": "address"
        },
        {
          "name": "recipient",
          "type": "address"
        },
        {
          "name": "amount",
          "type": "uint256"
        },
        {
          "name": "data",
          "type": "bytes"
        }
      ],
      "name": "safeTransferFrom",
      "outputs": [],
      "payable": false,
      "stateMutability": "nonpayable",
      "type": "function"
    },
    {
      "constant": true,
      "inputs": [
        {
          "name": "owner",
          "type": "address"
        },
        {
          "name": "spender",
          "type": "address"
        }
      ],
      "name": "allowance",
      "outputs": [
        {
          "name": "",
          "type": "uint256"
        }
      ],
      "payable": false,
      "stateMutability": "view",
      "type": "function"
    },
    {
      "constant": false,
      "inputs": [
        {
          "name": "recipient",
          "type": "address"
        },
        {
          "name": "amount",
          "type": "uint256"
        },
        {
          "name": "data",
          "type": "bytes"
        }
      ],
      "name": "safeTransfer",
      "outputs": [],
      "payable": false,
      "stateMutability": "nonpayable",
      "type": "function"
    },
    {
      "inputs": [
        {
          "name": "_token",
          "type": "address"
        },
        {
          "name": "_uru",
          "type": "address"
        }
      ],
      "payable": false,
      "stateMutability": "nonpayable",
      "type": "constructor"
    },
    {
      "anonymous": false,
      "inputs": [
        {
          "indexed": true,
          "name": "from",
          "type": "address"
        },
        {
          "indexed": false,
          "name": "amount",
          "type": "uint256"
        }
      ],
      "name": "Stake",
      "type": "event"
    },
    {
      "anonymous": false,
      "inputs": [
        {
          "indexed": true,
          "name": "from",
          "type": "address"
        },
        {
          "indexed": false,
          "name": "amount",
          "type": "uint256"
        }
      ],
      "name": "Unstake",
      "type": "event"
    },
    {
      "anonymous": false,
      "inputs": [
        {
          "indexed": true,
          "name": "to",
          "type": "address"
        },
        {
          "indexed": false,
          "name": "amount",
          "type": "uint256"
        }
      ],
      "name": "YieldWithdraw",
      "type": "event"
    },
    {
      "anonymous": false,
      "inputs": [
        {
          "indexed": true,
          "name": "from",
          "type": "address"
        },
        {
          "indexed": true,
          "name": "to",
          "type": "address"
        },
        {
          "indexed": false,
          "name": "value",
          "type": "uint256"
        }
      ],
      "name": "Transfer",
      "type": "event"
    },
    {
      "anonymous": false,
      "inputs": [
        {
          "indexed": true,
          "name": "owner",
          "type": "address"
        },
        {
          "indexed": true,
          "name": "spender",
          "type": "address"
        },
        {
          "indexed": false,
          "name": "value",
          "type": "uint256"
        }
      ],
      "name": "Approval",
      "type": "event"
    },
    {
      "constant": false,
      "inputs": [
        {
          "name": "_tokenAmount",
          "type": "uint256"
        }
      ],
      "name": "addLiquidity",
      "outputs": [
        {
          "name": "",
          "type": "uint256"
        }
      ],
      "payable": true,
      "stateMutability": "payable",
      "type": "function"
    },
    {
      "constant": false,
      "inputs": [
        {
          "name": "_amount",
          "type": "uint256"
        }
      ],
      "name": "removeLiquidity",
      "outputs": [
        {
          "name": "",
          "type": "uint256"
        },
        {
          "name": "",
          "type": "uint256"
        }
      ],
      "payable": false,
      "stateMutability": "nonpayable",
      "type": "function"
    },
    {
      "constant": true,
      "inputs": [],
      "name": "getKlay",
      "outputs": [
        {
          "name": "balance",
          "type": "uint256"
        }
      ],
      "payable": false,
      "stateMutability": "view",
      "type": "function"
    },
    {
      "constant": true,
      "inputs": [],
      "name": "getReserve",
      "outputs": [
        {
          "name": "balance",
          "type": "uint256"
        }
      ],
      "payable": false,
      "stateMutability": "view",
      "type": "function"
    },
    {
      "constant": true,
      "inputs": [
        {
          "name": "_klaySold",
          "type": "uint256"
        }
      ],
      "name": "getTokenAmount",
      "outputs": [
        {
          "name": "",
          "type": "uint256"
        }
      ],
      "payable": false,
      "stateMutability": "view",
      "type": "function"
    },
    {
      "constant": true,
      "inputs": [
        {
          "name": "_tokenSold",
          "type": "uint256"
        }
      ],
      "name": "getKlayAmount",
      "outputs": [
        {
          "name": "",
          "type": "uint256"
        }
      ],
      "payable": false,
      "stateMutability": "view",
      "type": "function"
    },
    {
      "constant": false,
      "inputs": [
        {
          "name": "_minTokens",
          "type": "uint256"
        },
        {
          "name": "recipient",
          "type": "address"
        }
      ],
      "name": "klayToToken",
      "outputs": [],
      "payable": true,
      "stateMutability": "payable",
      "type": "function"
    },
    {
      "constant": false,
      "inputs": [
        {
          "name": "_minTokens",
          "type": "uint256"
        }
      ],
      "name": "klayToTokenSwap",
      "outputs": [],
      "payable": true,
      "stateMutability": "payable",
      "type": "function"
    },
    {
      "constant": false,
      "inputs": [
        {
          "name": "_minTokens",
          "type": "uint256"
        },
        {
          "name": "_recipient",
          "type": "address"
        }
      ],
      "name": "klayToTokenTransfer",
      "outputs": [],
      "payable": true,
      "stateMutability": "payable",
      "type": "function"
    },
    {
      "constant": false,
      "inputs": [
        {
          "name": "_tokensSold",
          "type": "uint256"
        },
        {
          "name": "_minklay",
          "type": "uint256"
        }
      ],
      "name": "tokenToKlaySwap",
      "outputs": [],
      "payable": false,
      "stateMutability": "nonpayable",
      "type": "function"
    },
    {
      "constant": false,
      "inputs": [
        {
          "name": "_tokensSold",
          "type": "uint256"
        },
        {
          "name": "_minTokensBought",
          "type": "uint256"
        },
        {
          "name": "_tokenAddress",
          "type": "address"
        }
      ],
      "name": "tokenToTokenSwap",
      "outputs": [],
      "payable": false,
      "stateMutability": "nonpayable",
      "type": "function"
    },
    {
      "constant": false,
      "inputs": [
        {
          "name": "amount",
          "type": "uint256"
        }
      ],
      "name": "stake",
      "outputs": [],
      "payable": false,
      "stateMutability": "nonpayable",
      "type": "function"
    },
    {
      "constant": false,
      "inputs": [
        {
          "name": "amount",
          "type": "uint256"
        }
      ],
      "name": "unstake",
      "outputs": [],
      "payable": false,
      "stateMutability": "nonpayable",
      "type": "function"
    },
    {
      "constant": true,
      "inputs": [],
      "name": "getuserList",
      "outputs": [
        {
          "name": "",
          "type": "address[]"
        }
      ],
      "payable": false,
      "stateMutability": "view",
      "type": "function"
    },
    {
      "constant": true,
      "inputs": [
        {
          "name": "user",
          "type": "address"
        }
      ],
      "name": "calculateYieldTime",
      "outputs": [
        {
          "name": "",
          "type": "uint256"
        }
      ],
      "payable": false,
      "stateMutability": "view",
      "type": "function"
    },
    {
      "constant": true,
      "inputs": [
        {
          "name": "user",
          "type": "address"
        }
      ],
      "name": "calculateContribute",
      "outputs": [
        {
          "name": "",
          "type": "uint256"
        }
      ],
      "payable": false,
      "stateMutability": "view",
      "type": "function"
    },
    {
      "constant": true,
      "inputs": [
        {
          "name": "user",
          "type": "address"
        }
      ],
      "name": "calculateYieldTotal",
      "outputs": [
        {
          "name": "",
          "type": "uint256"
        }
      ],
      "payable": false,
      "stateMutability": "view",
      "type": "function"
    },
    {
      "constant": false,
      "inputs": [],
      "name": "withdrawYield",
      "outputs": [],
      "payable": false,
      "stateMutability": "nonpayable",
      "type": "function"
    }
  ],
  "bytecode": "0x60806040523480156200001157600080fd5b5060405160408062004818833981018060405260408110156200003357600080fd5b8101908080519060200190929190805190602001909291905050506040518060400160405280601181526020017f6b6c61792d7572752d4c502d746f6b656e0000000000000000000000000000008152506040518060400160405280600281526020017f4c500000000000000000000000000000000000000000000000000000000000008152506012620000d46301ffc9a760e01b620002c360201b60201c565b620000ec636578737160e01b620002c360201b60201c565b826004908051906020019062000104929190620003cc565b5081600590805190602001906200011d929190620003cc565b5080600660006101000a81548160ff021916908360ff1602179055506200015163a219a02560e01b620002c360201b60201c565b505050600073ffffffffffffffffffffffffffffffffffffffff168273ffffffffffffffffffffffffffffffffffffffff161415620001f8576040517f08c379a00000000000000000000000000000000000000000000000000000000081526004018080602001828103825260158152602001807f696e76616c696420746f6b656e2061646472657373000000000000000000000081525060200191505060405180910390fd5b81600660016101000a81548173ffffffffffffffffffffffffffffffffffffffff021916908373ffffffffffffffffffffffffffffffffffffffff16021790555080600860006101000a81548173ffffffffffffffffffffffffffffffffffffffff021916908373ffffffffffffffffffffffffffffffffffffffff16021790555033600760006101000a81548173ffffffffffffffffffffffffffffffffffffffff021916908373ffffffffffffffffffffffffffffffffffffffff16021790555050506200047b565b63ffffffff60e01b817bffffffffffffffffffffffffffffffffffffffffffffffffffffffff1916141562000360576040517f08c379a000000000000000000000000000000000000000000000000000000000815260040180806020018281038252601b8152602001807f4b495031333a20696e76616c696420696e74657266616365206964000000000081525060200191505060405180910390fd5b6001600080837bffffffffffffffffffffffffffffffffffffffffffffffffffffffff19167bffffffffffffffffffffffffffffffffffffffffffffffffffffffff1916815260200190815260200160002060006101000a81548160ff02191690831515021790555050565b828054600181600116156101000203166002900490600052602060002090601f016020900481019282601f106200040f57805160ff191683800117855562000440565b8280016001018555821562000440579182015b828111156200043f57825182559160200191906001019062000422565b5b5090506200044f919062000453565b5090565b6200047891905b80821115620004745760008160009055506001016200045a565b5090565b90565b61438d806200048b6000396000f3fe60806040526004361061023b5760003560e01c806370a082311161012e578063b7dc49d4116100ab578063d94981751161006f578063d949817514610f73578063dd62ed3e14610fb8578063e507a8a41461103d578063eb79554914611054578063f7a7e324146111465761023b565b8063b7dc49d414610d6a578063b88d4fde14610db9578063c2507ac114610ecb578063ccbf7b8614610f1a578063d655d9a314610f485761023b565b80639c8f9f23116100f25780639c8f9f2314610b945780639d76ea5814610bea5780639f4216e814610c41578063a694fc3a14610cbc578063a9059cbb14610cf75761023b565b806370a08231146109775780638794efd9146109dc57806395d89b4114610a48578063966dae0e14610ad8578063980d611614610b2f5761023b565b806330bd2bdf116101bc57806345bc78ab1161018057806345bc78ab146107d757806351c6590a1461083c57806359bf5d391461087e5780636e1dc66e146108a95780636f49712b1461090e5761023b565b806330bd2bdf1461061d578063313ce5671461068257806331481c63146106b3578063423f6cef1461070157806342842e0e1461075c5761023b565b8063103c07dc11610203578063103c07dc1461047f57806318160ddd146104d65780631d62f7b21461050157806323b872dd1461054f5780632e17de78146105e25761023b565b806301b7bd751461024057806301ffc9a7146102a5578063068726611461031757806306fdde031461037c578063095ea7b31461040c575b600080fd5b34801561024c57600080fd5b5061028f6004803603602081101561026357600080fd5b81019080803573ffffffffffffffffffffffffffffffffffffffff1690602001909291905050506111ab565b6040518082815260200191505060405180910390f35b3480156102b157600080fd5b506102fd600480360360208110156102c857600080fd5b8101908080357bffffffffffffffffffffffffffffffffffffffffffffffffffffffff191690602001909291905050506112bc565b604051808215151515815260200191505060405180910390f35b34801561032357600080fd5b506103666004803603602081101561033a57600080fd5b81019080803573ffffffffffffffffffffffffffffffffffffffff169060200190929190505050611323565b6040518082815260200191505060405180910390f35b34801561038857600080fd5b50610391611353565b6040518080602001828103825283818151815260200191508051906020019080838360005b838110156103d15780820151818401526020810190506103b6565b50505050905090810190601f1680156103fe5780820380516001836020036101000a031916815260200191505b509250505060405180910390f35b34801561041857600080fd5b506104656004803603604081101561042f57600080fd5b81019080803573ffffffffffffffffffffffffffffffffffffffff169060200190929190803590602001909291905050506113f5565b604051808215151515815260200191505060405180910390f35b34801561048b57600080fd5b5061049461140c565b604051808273ffffffffffffffffffffffffffffffffffffffff1673ffffffffffffffffffffffffffffffffffffffff16815260200191505060405180910390f35b3480156104e257600080fd5b506104eb611432565b6040518082815260200191505060405180910390f35b61054d6004803603604081101561051757600080fd5b8101908080359060200190929190803573ffffffffffffffffffffffffffffffffffffffff16906020019092919050505061143c565b005b34801561055b57600080fd5b506105c86004803603606081101561057257600080fd5b81019080803573ffffffffffffffffffffffffffffffffffffffff169060200190929190803573ffffffffffffffffffffffffffffffffffffffff1690602001909291908035906020019092919050505061144a565b604051808215151515815260200191505060405180910390f35b3480156105ee57600080fd5b5061061b6004803603602081101561060557600080fd5b81019080803590602001909291905050506114fb565b005b34801561062957600080fd5b5061066c6004803603602081101561064057600080fd5b81019080803573ffffffffffffffffffffffffffffffffffffffff169060200190929190505050611a1f565b6040518082815260200191505060405180910390f35b34801561068e57600080fd5b50610697611a37565b604051808260ff1660ff16815260200191505060405180910390f35b6106ff600480360360408110156106c957600080fd5b8101908080359060200190929190803573ffffffffffffffffffffffffffffffffffffffff169060200190929190505050611a4e565b005b34801561070d57600080fd5b5061075a6004803603604081101561072457600080fd5b81019080803573ffffffffffffffffffffffffffffffffffffffff16906020019092919080359060200190929190505050611be3565b005b34801561076857600080fd5b506107d56004803603606081101561077f57600080fd5b81019080803573ffffffffffffffffffffffffffffffffffffffff169060200190929190803573ffffffffffffffffffffffffffffffffffffffff16906020019092919080359060200190929190505050611c01565b005b3480156107e357600080fd5b50610826600480360360208110156107fa57600080fd5b81019080803573ffffffffffffffffffffffffffffffffffffffff169060200190929190505050611c21565b6040518082815260200191505060405180910390f35b6108686004803603602081101561085257600080fd5b8101908080359060200190929190505050611c39565b6040518082815260200191505060405180910390f35b34801561088a57600080fd5b50610893611f95565b6040518082815260200191505060405180910390f35b3480156108b557600080fd5b506108f8600480360360208110156108cc57600080fd5b81019080803573ffffffffffffffffffffffffffffffffffffffff169060200190929190505050612076565b6040518082815260200191505060405180910390f35b34801561091a57600080fd5b5061095d6004803603602081101561093157600080fd5b81019080803573ffffffffffffffffffffffffffffffffffffffff16906020019092919050505061208e565b604051808215151515815260200191505060405180910390f35b34801561098357600080fd5b506109c66004803603602081101561099a57600080fd5b81019080803573ffffffffffffffffffffffffffffffffffffffff1690602001909291905050506120ae565b6040518082815260200191505060405180910390f35b3480156109e857600080fd5b506109f16120f7565b6040518080602001828103825283818151815260200191508051906020019060200280838360005b83811015610a34578082015181840152602081019050610a19565b505050509050019250505060405180910390f35b348015610a5457600080fd5b50610a5d612185565b6040518080602001828103825283818151815260200191508051906020019080838360005b83811015610a9d578082015181840152602081019050610a82565b50505050905090810190601f168015610aca5780820380516001836020036101000a031916815260200191505b509250505060405180910390f35b348015610ae457600080fd5b50610aed612227565b604051808273ffffffffffffffffffffffffffffffffffffffff1673ffffffffffffffffffffffffffffffffffffffff16815260200191505060405180910390f35b348015610b3b57600080fd5b50610b7e60048036036020811015610b5257600080fd5b81019080803573ffffffffffffffffffffffffffffffffffffffff16906020019092919050505061224d565b6040518082815260200191505060405180910390f35b348015610ba057600080fd5b50610bcd60048036036020811015610bb757600080fd5b81019080803590602001909291905050506122a3565b604051808381526020018281526020019250505060405180910390f35b348015610bf657600080fd5b50610bff6124ab565b604051808273ffffffffffffffffffffffffffffffffffffffff1673ffffffffffffffffffffffffffffffffffffffff16815260200191505060405180910390f35b348015610c4d57600080fd5b50610c7a60048036036020811015610c6457600080fd5b81019080803590602001909291905050506124d1565b604051808273ffffffffffffffffffffffffffffffffffffffff1673ffffffffffffffffffffffffffffffffffffffff16815260200191505060405180910390f35b348015610cc857600080fd5b50610cf560048036036020811015610cdf57600080fd5b810190808035906020019092919050505061250d565b005b348015610d0357600080fd5b50610d5060048036036040811015610d1a57600080fd5b81019080803573ffffffffffffffffffffffffffffffffffffffff16906020019092919080359060200190929190505050612a9c565b604051808215151515815260200191505060405180910390f35b348015610d7657600080fd5b50610da360048036036020811015610d8d57600080fd5b8101908080359060200190929190505050612ab3565b6040518082815260200191505060405180910390f35b348015610dc557600080fd5b50610ec960048036036080811015610ddc57600080fd5b81019080803573ffffffffffffffffffffffffffffffffffffffff169060200190929190803573ffffffffffffffffffffffffffffffffffffffff1690602001909291908035906020019092919080359060200190640100000000811115610e4357600080fd5b820183602082011115610e5557600080fd5b80359060200191846001830284011164010000000083111715610e7757600080fd5b91908080601f016020809104026020016040519081016040528093929190818152602001838380828437600081840152601f19601f820116905080830192505050505050509192919290505050612b60565b005b348015610ed757600080fd5b50610f0460048036036020811015610eee57600080fd5b8101908080359060200190929190505050612bd3565b6040518082815260200191505060405180910390f35b610f4660048036036020811015610f3057600080fd5b8101908080359060200190929190505050612c80565b005b348015610f5457600080fd5b50610f5d612c8d565b6040518082815260200191505060405180910390f35b348015610f7f57600080fd5b50610fb660048036036040811015610f9657600080fd5b810190808035906020019092919080359060200190929190505050612cac565b005b348015610fc457600080fd5b5061102760048036036040811015610fdb57600080fd5b81019080803573ffffffffffffffffffffffffffffffffffffffff169060200190929190803573ffffffffffffffffffffffffffffffffffffffff169060200190929190505050612eba565b6040518082815260200191505060405180910390f35b34801561104957600080fd5b50611052612f41565b005b34801561106057600080fd5b506111446004803603606081101561107757600080fd5b81019080803573ffffffffffffffffffffffffffffffffffffffff16906020019092919080359060200190929190803590602001906401000000008111156110be57600080fd5b8201836020820111156110d057600080fd5b803590602001918460018302840111640100000000831117156110f257600080fd5b91908080601f016020809104026020016040519081016040528093929190818152602001838380828437600081840152601f19601f82011690508083019250505050505050919291929050505061323b565b005b34801561115257600080fd5b506111a96004803603606081101561116957600080fd5b810190808035906020019092919080359060200190929190803573ffffffffffffffffffffffffffffffffffffffff1690602001909291905050506132ac565b005b6000803073ffffffffffffffffffffffffffffffffffffffff166370a08231306040518263ffffffff1660e01b8152600401808273ffffffffffffffffffffffffffffffffffffffff1673ffffffffffffffffffffffffffffffffffffffff16815260200191505060206040518083038186803b15801561122b57600080fd5b505afa15801561123f573d6000803e3d6000fd5b505050506040513d602081101561125557600080fd5b81019080805190602001909291905050506064600a60008673ffffffffffffffffffffffffffffffffffffffff1673ffffffffffffffffffffffffffffffffffffffff1681526020019081526020016000205402816112b057fe5b04905080915050919050565b6000806000837bffffffffffffffffffffffffffffffffffffffffffffffffffffffff19167bffffffffffffffffffffffffffffffffffffffffffffffffffffffff1916815260200190815260200160002060009054906101000a900460ff169050919050565b60008061132f8361224d565b9050600061133c846111ab565b905060006019828402029050809350505050919050565b606060048054600181600116156101000203166002900480601f0160208091040260200160405190810160405280929190818152602001828054600181600116156101000203166002900480156113eb5780601f106113c0576101008083540402835291602001916113eb565b820191906000526020600020905b8154815290600101906020018083116113ce57829003601f168201915b5050505050905090565b6000611402338484613658565b6001905092915050565b600860009054906101000a900473ffffffffffffffffffffffffffffffffffffffff1681565b6000600354905090565b6114468282611a4e565b5050565b600061145784848461384f565b6114f084336114eb85600260008a73ffffffffffffffffffffffffffffffffffffffff1673ffffffffffffffffffffffffffffffffffffffff16815260200190815260200160002060003373ffffffffffffffffffffffffffffffffffffffff1673ffffffffffffffffffffffffffffffffffffffff16815260200190815260200160002054613aef90919063ffffffff16565b613658565b600190509392505050565b60018015611548575080600a60003373ffffffffffffffffffffffffffffffffffffffff1673ffffffffffffffffffffffffffffffffffffffff1681526020019081526020016000205410155b600b60003373ffffffffffffffffffffffffffffffffffffffff1673ffffffffffffffffffffffffffffffffffffffff16815260200190815260200160002060006101000a81548160ff021916908315150217905561160f576040517f08c379a000000000000000000000000000000000000000000000000000000000815260040180806020018281038252601c8152602001807fec9888ecb998eb9f89ebb3b4eb8ba420eba78eec8ab5eb8b88eb8ba40000000081525060200191505060405180910390fd5b600061161a33611323565b905042600c60003373ffffffffffffffffffffffffffffffffffffffff1673ffffffffffffffffffffffffffffffffffffffff1681526020019081526020016000208190555060008290506000925080600a60003373ffffffffffffffffffffffffffffffffffffffff1673ffffffffffffffffffffffffffffffffffffffff168152602001908152602001600020600082825403925050819055503073ffffffffffffffffffffffffffffffffffffffff1663a9059cbb33836040518363ffffffff1660e01b8152600401808373ffffffffffffffffffffffffffffffffffffffff1673ffffffffffffffffffffffffffffffffffffffff16815260200182815260200192505050602060405180830381600087803b15801561173d57600080fd5b505af1158015611751573d6000803e3d6000fd5b505050506040513d602081101561176757600080fd5b81019080805190602001909291905050505081600d60003373ffffffffffffffffffffffffffffffffffffffff1673ffffffffffffffffffffffffffffffffffffffff168152602001908152602001600020600082825401925050819055506000600a60003373ffffffffffffffffffffffffffffffffffffffff1673ffffffffffffffffffffffffffffffffffffffff168152602001908152602001600020541415611867576000600b60003373ffffffffffffffffffffffffffffffffffffffff1673ffffffffffffffffffffffffffffffffffffffff16815260200190815260200160002060006101000a81548160ff0219169083151502179055505b3373ffffffffffffffffffffffffffffffffffffffff167f85082129d87b2fe11527cb1b3b7a520aeb5aa6913f88a3d8757fe40d1db02fdd826040518082815260200191505060405180910390a260008090505b600980549050811015611a1957600061190a600983815481106118da57fe5b9060005260206000200160009054906101000a900473ffffffffffffffffffffffffffffffffffffffff16611323565b905080600d60006009858154811061191e57fe5b9060005260206000200160009054906101000a900473ffffffffffffffffffffffffffffffffffffffff1673ffffffffffffffffffffffffffffffffffffffff1673ffffffffffffffffffffffffffffffffffffffff1681526020019081526020016000206000828254019250508190555042600c6000600985815481106119a257fe5b9060005260206000200160009054906101000a900473ffffffffffffffffffffffffffffffffffffffff1673ffffffffffffffffffffffffffffffffffffffff1673ffffffffffffffffffffffffffffffffffffffff168152602001908152602001600020819055505080806001019150506118bb565b50505050565b600d6020528060005260406000206000915090505481565b6000600660009054906101000a900460ff16905090565b6000611a58611f95565b90506000611a8034343073ffffffffffffffffffffffffffffffffffffffff16310384613b39565b905083811015611af8576040517f08c379a000000000000000000000000000000000000000000000000000000000815260040180806020018281038252601a8152602001807f696e73756666696369656e74206f757470757420616d6f756e7400000000000081525060200191505060405180910390fd5b600660019054906101000a900473ffffffffffffffffffffffffffffffffffffffff1673ffffffffffffffffffffffffffffffffffffffff1663a9059cbb84836040518363ffffffff1660e01b8152600401808373ffffffffffffffffffffffffffffffffffffffff1673ffffffffffffffffffffffffffffffffffffffff16815260200182815260200192505050602060405180830381600087803b158015611ba157600080fd5b505af1158015611bb5573d6000803e3d6000fd5b505050506040513d6020811015611bcb57600080fd5b81019080805190602001909291905050505050505050565b611bfd82826040518060200160405280600081525061323b565b5050565b611c1c83838360405180602001604052806000815250612b60565b505050565b600a6020528060005260406000206000915090505481565b600080611c44611f95565b1415611d98576000600660019054906101000a900473ffffffffffffffffffffffffffffffffffffffff1690508073ffffffffffffffffffffffffffffffffffffffff166323b872dd3330866040518463ffffffff1660e01b8152600401808473ffffffffffffffffffffffffffffffffffffffff1673ffffffffffffffffffffffffffffffffffffffff1681526020018373ffffffffffffffffffffffffffffffffffffffff1673ffffffffffffffffffffffffffffffffffffffff1681526020018281526020019350505050602060405180830381600087803b158015611d2c57600080fd5b505af1158015611d40573d6000803e3d6000fd5b505050506040513d6020811015611d5657600080fd5b81019080805190602001909291905050505060003073ffffffffffffffffffffffffffffffffffffffff16319050611d8e3382613beb565b8092505050611f90565b6000343073ffffffffffffffffffffffffffffffffffffffff16310390506000611dc0611f95565b905060008282340281611dcf57fe5b04905080851015611e48576040517f08c379a00000000000000000000000000000000000000000000000000000000081526004018080602001828103825260198152602001807f696e73756666696369656e7420746f6b656e20616d6f756e740000000000000081525060200191505060405180910390fd5b6000600660019054906101000a900473ffffffffffffffffffffffffffffffffffffffff1690508073ffffffffffffffffffffffffffffffffffffffff166323b872dd3330856040518463ffffffff1660e01b8152600401808473ffffffffffffffffffffffffffffffffffffffff1673ffffffffffffffffffffffffffffffffffffffff1681526020018373ffffffffffffffffffffffffffffffffffffffff1673ffffffffffffffffffffffffffffffffffffffff1681526020018281526020019350505050602060405180830381600087803b158015611f2a57600080fd5b505af1158015611f3e573d6000803e3d6000fd5b505050506040513d6020811015611f5457600080fd5b81019080805190602001909291905050505060008434611f72611432565b0281611f7a57fe5b049050611f873382613beb565b80955050505050505b919050565b6000600660019054906101000a900473ffffffffffffffffffffffffffffffffffffffff1673ffffffffffffffffffffffffffffffffffffffff166370a08231306040518263ffffffff1660e01b8152600401808273ffffffffffffffffffffffffffffffffffffffff1673ffffffffffffffffffffffffffffffffffffffff16815260200191505060206040518083038186803b15801561203657600080fd5b505afa15801561204a573d6000803e3d6000fd5b505050506040513d602081101561206057600080fd5b8101908080519060200190929190505050905090565b600c6020528060005260406000206000915090505481565b600b6020528060005260406000206000915054906101000a900460ff1681565b6000600160008373ffffffffffffffffffffffffffffffffffffffff1673ffffffffffffffffffffffffffffffffffffffff168152602001908152602001600020549050919050565b6060600980548060200260200160405190810160405280929190818152602001828054801561217b57602002820191906000526020600020905b8160009054906101000a900473ffffffffffffffffffffffffffffffffffffffff1673ffffffffffffffffffffffffffffffffffffffff1681526020019060010190808311612131575b5050505050905090565b606060058054600181600116156101000203166002900480601f01602080910402602001604051908101604052809291908181526020018280546001816001161561010002031660029004801561221d5780601f106121f25761010080835404028352916020019161221d565b820191906000526020600020905b81548152906001019060200180831161220057829003601f168201915b5050505050905090565b600760009054906101000a900473ffffffffffffffffffffffffffffffffffffffff1681565b6000804290506000600c60008573ffffffffffffffffffffffffffffffffffffffff1673ffffffffffffffffffffffffffffffffffffffff16815260200190815260200160002054820390508092505050919050565b6000806000831161231c576040517f08c379a000000000000000000000000000000000000000000000000000000000815260040180806020018281038252600e8152602001807f696e76616c696420616d6f756e7400000000000000000000000000000000000081525060200191505060405180910390fd5b6000612326611432565b843073ffffffffffffffffffffffffffffffffffffffff1631028161234757fe5b0490506000612354611432565b8561235d611f95565b028161236557fe5b0490506123723386613da8565b3373ffffffffffffffffffffffffffffffffffffffff166108fc839081150290604051600060405180830381858888f193505050501580156123b8573d6000803e3d6000fd5b50600660019054906101000a900473ffffffffffffffffffffffffffffffffffffffff1673ffffffffffffffffffffffffffffffffffffffff1663a9059cbb33836040518363ffffffff1660e01b8152600401808373ffffffffffffffffffffffffffffffffffffffff1673ffffffffffffffffffffffffffffffffffffffff16815260200182815260200192505050602060405180830381600087803b15801561246257600080fd5b505af1158015612476573d6000803e3d6000fd5b505050506040513d602081101561248c57600080fd5b8101908080519060200190929190505050508181935093505050915091565b600660019054906101000a900473ffffffffffffffffffffffffffffffffffffffff1681565b600981815481106124de57fe5b906000526020600020016000915054906101000a900473ffffffffffffffffffffffffffffffffffffffff1681565b6000811180156125d45750803073ffffffffffffffffffffffffffffffffffffffff166370a08231336040518263ffffffff1660e01b8152600401808273ffffffffffffffffffffffffffffffffffffffff1673ffffffffffffffffffffffffffffffffffffffff16815260200191505060206040518083038186803b15801561259657600080fd5b505afa1580156125aa573d6000803e3d6000fd5b505050506040513d60208110156125c057600080fd5b810190808051906020019092919050505010155b612646576040517f08c379a00000000000000000000000000000000000000000000000000000000081526004018080602001828103825260198152602001807fed86a0ed81b0ec9db420ebb680eca1b1ed95a9eb8b88eb8ba40000000000000081525060200191505060405180910390fd5b60001515600b60003373ffffffffffffffffffffffffffffffffffffffff1673ffffffffffffffffffffffffffffffffffffffff16815260200190815260200160002060009054906101000a900460ff16151514156127065760093390806001815401808255809150509060018203906000526020600020016000909192909190916101000a81548173ffffffffffffffffffffffffffffffffffffffff021916908373ffffffffffffffffffffffffffffffffffffffff160217905550505b3073ffffffffffffffffffffffffffffffffffffffff166323b872dd3330846040518463ffffffff1660e01b8152600401808473ffffffffffffffffffffffffffffffffffffffff1673ffffffffffffffffffffffffffffffffffffffff1681526020018373ffffffffffffffffffffffffffffffffffffffff1673ffffffffffffffffffffffffffffffffffffffff1681526020018281526020019350505050602060405180830381600087803b1580156127c157600080fd5b505af11580156127d5573d6000803e3d6000fd5b505050506040513d60208110156127eb57600080fd5b81019080805190602001909291905050505080600a60003373ffffffffffffffffffffffffffffffffffffffff1673ffffffffffffffffffffffffffffffffffffffff1681526020019081526020016000206000828254019250508190555042600c60003373ffffffffffffffffffffffffffffffffffffffff1673ffffffffffffffffffffffffffffffffffffffff168152602001908152602001600020819055506001600b60003373ffffffffffffffffffffffffffffffffffffffff1673ffffffffffffffffffffffffffffffffffffffff16815260200190815260200160002060006101000a81548160ff0219169083151502179055503373ffffffffffffffffffffffffffffffffffffffff167febedb8b3c678666e7f36970bc8f57abf6d8fa2e828c0da91ea5b75bf68ed101a826040518082815260200191505060405180910390a260008090505b600980549050811015612a985760006129896009838154811061295957fe5b9060005260206000200160009054906101000a900473ffffffffffffffffffffffffffffffffffffffff16611323565b905080600d60006009858154811061299d57fe5b9060005260206000200160009054906101000a900473ffffffffffffffffffffffffffffffffffffffff1673ffffffffffffffffffffffffffffffffffffffff1673ffffffffffffffffffffffffffffffffffffffff1681526020019081526020016000206000828254019250508190555042600c600060098581548110612a2157fe5b9060005260206000200160009054906101000a900473ffffffffffffffffffffffffffffffffffffffff1673ffffffffffffffffffffffffffffffffffffffff1673ffffffffffffffffffffffffffffffffffffffff1681526020019081526020016000208190555050808060010191505061293a565b5050565b6000612aa933848461384f565b6001905092915050565b6000808211612b2a576040517f08c379a00000000000000000000000000000000000000000000000000000000081526004018080602001828103825260168152602001807f746f6b656e536f6c6420697320746f6f20736d616c6c0000000000000000000081525060200191505060405180910390fd5b6000612b34611f95565b9050612b5883823073ffffffffffffffffffffffffffffffffffffffff1631613b39565b915050919050565b612b6b84848461144a565b50612b7884848484613f65565b612bcd576040517f08c379a000000000000000000000000000000000000000000000000000000000815260040180806020018281038252602e8152602001806142cb602e913960400191505060405180910390fd5b50505050565b6000808211612c4a576040517f08c379a00000000000000000000000000000000000000000000000000000000081526004018080602001828103825260158152602001807f6b6c6179536f6c6420697320746f6f20736d616c6c000000000000000000000081525060200191505060405180910390fd5b6000612c54611f95565b9050612c78833073ffffffffffffffffffffffffffffffffffffffff163183613b39565b915050919050565b612c8a8133611a4e565b50565b60003073ffffffffffffffffffffffffffffffffffffffff1631905090565b6000612cb6611f95565b90506000612cdc84833073ffffffffffffffffffffffffffffffffffffffff1631613b39565b905082811015612d54576040517f08c379a000000000000000000000000000000000000000000000000000000000815260040180806020018281038252601a8152602001807f696e73756666696369656e74206f757470757420616d6f756e7400000000000081525060200191505060405180910390fd5b600660019054906101000a900473ffffffffffffffffffffffffffffffffffffffff1673ffffffffffffffffffffffffffffffffffffffff166323b872dd3330876040518463ffffffff1660e01b8152600401808473ffffffffffffffffffffffffffffffffffffffff1673ffffffffffffffffffffffffffffffffffffffff1681526020018373ffffffffffffffffffffffffffffffffffffffff1673ffffffffffffffffffffffffffffffffffffffff1681526020018281526020019350505050602060405180830381600087803b158015612e3157600080fd5b505af1158015612e45573d6000803e3d6000fd5b505050506040513d6020811015612e5b57600080fd5b8101908080519060200190929190505050503373ffffffffffffffffffffffffffffffffffffffff166108fc829081150290604051600060405180830381858888f19350505050158015612eb3573d6000803e3d6000fd5b5050505050565b6000600260008473ffffffffffffffffffffffffffffffffffffffff1673ffffffffffffffffffffffffffffffffffffffff16815260200190815260200160002060008373ffffffffffffffffffffffffffffffffffffffff1673ffffffffffffffffffffffffffffffffffffffff16815260200190815260200160002054905092915050565b6000612f4c33611323565b90506000811180612f9c57506000600d60003373ffffffffffffffffffffffffffffffffffffffff1673ffffffffffffffffffffffffffffffffffffffff16815260200190815260200160002054115b61300e576040517f08c379a00000000000000000000000000000000000000000000000000000000081526004018080602001828103825260138152602001807f4e6f7468696e6720746f2077697468647261770000000000000000000000000081525060200191505060405180910390fd5b6000600d60003373ffffffffffffffffffffffffffffffffffffffff1673ffffffffffffffffffffffffffffffffffffffff16815260200190815260200160002054146130e5576000600d60003373ffffffffffffffffffffffffffffffffffffffff1673ffffffffffffffffffffffffffffffffffffffff1681526020019081526020016000205490506000600d60003373ffffffffffffffffffffffffffffffffffffffff1673ffffffffffffffffffffffffffffffffffffffff168152602001908152602001600020819055508082019150505b42600c60003373ffffffffffffffffffffffffffffffffffffffff1673ffffffffffffffffffffffffffffffffffffffff16815260200190815260200160002081905550600860009054906101000a900473ffffffffffffffffffffffffffffffffffffffff1673ffffffffffffffffffffffffffffffffffffffff166340c10f1933836040518363ffffffff1660e01b8152600401808373ffffffffffffffffffffffffffffffffffffffff1673ffffffffffffffffffffffffffffffffffffffff16815260200182815260200192505050600060405180830381600087803b1580156131d257600080fd5b505af11580156131e6573d6000803e3d6000fd5b505050503373ffffffffffffffffffffffffffffffffffffffff167f92044e3943309ee5950e21bc7421d02c1df75f0df33c0d97c1143687b49a4c57826040518082815260200191505060405180910390a250565b6132458383612a9c565b5061325233848484613f65565b6132a7576040517f08c379a000000000000000000000000000000000000000000000000000000000815260040180806020018281038252602e8152602001806142cb602e913960400191505060405180910390fd5b505050565b6000600760009054906101000a900473ffffffffffffffffffffffffffffffffffffffff1673ffffffffffffffffffffffffffffffffffffffff166306f2bf62836040518263ffffffff1660e01b8152600401808273ffffffffffffffffffffffffffffffffffffffff1673ffffffffffffffffffffffffffffffffffffffff16815260200191505060206040518083038186803b15801561334d57600080fd5b505afa158015613361573d6000803e3d6000fd5b505050506040513d602081101561337757600080fd5b810190808051906020019092919050505090503073ffffffffffffffffffffffffffffffffffffffff168173ffffffffffffffffffffffffffffffffffffffff16141580156133f35750600073ffffffffffffffffffffffffffffffffffffffff168173ffffffffffffffffffffffffffffffffffffffff1614155b613465576040517f08c379a00000000000000000000000000000000000000000000000000000000081526004018080602001828103825260188152602001807f696e76616c69642065786368616e67652061646472657373000000000000000081525060200191505060405180910390fd5b600061346f611f95565b9050600061349586833073ffffffffffffffffffffffffffffffffffffffff1631613b39565b9050600660019054906101000a900473ffffffffffffffffffffffffffffffffffffffff1673ffffffffffffffffffffffffffffffffffffffff166323b872dd3330896040518463ffffffff1660e01b8152600401808473ffffffffffffffffffffffffffffffffffffffff1673ffffffffffffffffffffffffffffffffffffffff1681526020018373ffffffffffffffffffffffffffffffffffffffff1673ffffffffffffffffffffffffffffffffffffffff1681526020018281526020019350505050602060405180830381600087803b15801561357457600080fd5b505af1158015613588573d6000803e3d6000fd5b505050506040513d602081101561359e57600080fd5b8101908080519060200190929190505050508273ffffffffffffffffffffffffffffffffffffffff16631d62f7b28287336040518463ffffffff1660e01b8152600401808381526020018273ffffffffffffffffffffffffffffffffffffffff1673ffffffffffffffffffffffffffffffffffffffff168152602001925050506000604051808303818588803b15801561363757600080fd5b505af115801561364b573d6000803e3d6000fd5b5050505050505050505050565b600073ffffffffffffffffffffffffffffffffffffffff168373ffffffffffffffffffffffffffffffffffffffff1614156136de576040517f08c379a000000000000000000000000000000000000000000000000000000000815260040180806020018281038252602381526020018061433f6023913960400191505060405180910390fd5b600073ffffffffffffffffffffffffffffffffffffffff168273ffffffffffffffffffffffffffffffffffffffff161415613764576040517f08c379a00000000000000000000000000000000000000000000000000000000081526004018080602001828103825260218152602001806142aa6021913960400191505060405180910390fd5b80600260008573ffffffffffffffffffffffffffffffffffffffff1673ffffffffffffffffffffffffffffffffffffffff16815260200190815260200160002060008473ffffffffffffffffffffffffffffffffffffffff1673ffffffffffffffffffffffffffffffffffffffff168152602001908152602001600020819055508173ffffffffffffffffffffffffffffffffffffffff168373ffffffffffffffffffffffffffffffffffffffff167f8c5be1e5ebec7d5bd14f71427d1e84f3dd0314c0f7b2291e5b200ac8c7c3b925836040518082815260200191505060405180910390a3505050565b600073ffffffffffffffffffffffffffffffffffffffff168373ffffffffffffffffffffffffffffffffffffffff1614156138d5576040517f08c379a000000000000000000000000000000000000000000000000000000000815260040180806020018281038252602481526020018061431b6024913960400191505060405180910390fd5b600073ffffffffffffffffffffffffffffffffffffffff168273ffffffffffffffffffffffffffffffffffffffff16141561395b576040517f08c379a00000000000000000000000000000000000000000000000000000000081526004018080602001828103825260228152602001806142f96022913960400191505060405180910390fd5b6139ad81600160008673ffffffffffffffffffffffffffffffffffffffff1673ffffffffffffffffffffffffffffffffffffffff16815260200190815260200160002054613aef90919063ffffffff16565b600160008573ffffffffffffffffffffffffffffffffffffffff1673ffffffffffffffffffffffffffffffffffffffff16815260200190815260200160002081905550613a4281600160008573ffffffffffffffffffffffffffffffffffffffff1673ffffffffffffffffffffffffffffffffffffffff1681526020019081526020016000205461414e90919063ffffffff16565b600160008473ffffffffffffffffffffffffffffffffffffffff1673ffffffffffffffffffffffffffffffffffffffff168152602001908152602001600020819055508173ffffffffffffffffffffffffffffffffffffffff168373ffffffffffffffffffffffffffffffffffffffff167fddf252ad1be2c89b69c2b068fc378daa952ba7f163c4a11628f55a4df523b3ef836040518082815260200191505060405180910390a3505050565b6000613b3183836040518060400160405280601e81526020017f536166654d6174683a207375627472616374696f6e206f766572666c6f7700008152506141d6565b905092915050565b60008083118015613b4a5750600082115b613bbc576040517f08c379a00000000000000000000000000000000000000000000000000000000081526004018080602001828103825260108152602001807f696e76616c69642072657365727665730000000000000000000000000000000081525060200191505060405180910390fd5b60006063850290506000838202905060008260648702019050808281613bde57fe5b0493505050509392505050565b600073ffffffffffffffffffffffffffffffffffffffff168273ffffffffffffffffffffffffffffffffffffffff161415613c8e576040517f08c379a000000000000000000000000000000000000000000000000000000000815260040180806020018281038252601e8152602001807f4b4950373a206d696e7420746f20746865207a65726f2061646472657373000081525060200191505060405180910390fd5b613ca38160035461414e90919063ffffffff16565b600381905550613cfb81600160008573ffffffffffffffffffffffffffffffffffffffff1673ffffffffffffffffffffffffffffffffffffffff1681526020019081526020016000205461414e90919063ffffffff16565b600160008473ffffffffffffffffffffffffffffffffffffffff1673ffffffffffffffffffffffffffffffffffffffff168152602001908152602001600020819055508173ffffffffffffffffffffffffffffffffffffffff16600073ffffffffffffffffffffffffffffffffffffffff167fddf252ad1be2c89b69c2b068fc378daa952ba7f163c4a11628f55a4df523b3ef836040518082815260200191505060405180910390a35050565b600073ffffffffffffffffffffffffffffffffffffffff168273ffffffffffffffffffffffffffffffffffffffff161415613e4b576040517f08c379a00000000000000000000000000000000000000000000000000000000081526004018080602001828103825260208152602001807f4b4950373a206275726e2066726f6d20746865207a65726f206164647265737381525060200191505060405180910390fd5b613e6081600354613aef90919063ffffffff16565b600381905550613eb881600160008573ffffffffffffffffffffffffffffffffffffffff1673ffffffffffffffffffffffffffffffffffffffff16815260200190815260200160002054613aef90919063ffffffff16565b600160008473ffffffffffffffffffffffffffffffffffffffff1673ffffffffffffffffffffffffffffffffffffffff16815260200190815260200160002081905550600073ffffffffffffffffffffffffffffffffffffffff168273ffffffffffffffffffffffffffffffffffffffff167fddf252ad1be2c89b69c2b068fc378daa952ba7f163c4a11628f55a4df523b3ef836040518082815260200191505060405180910390a35050565b6000613f868473ffffffffffffffffffffffffffffffffffffffff16614296565b613f935760019050614146565b60008473ffffffffffffffffffffffffffffffffffffffff16639d188c22338887876040518563ffffffff1660e01b8152600401808573ffffffffffffffffffffffffffffffffffffffff1673ffffffffffffffffffffffffffffffffffffffff1681526020018473ffffffffffffffffffffffffffffffffffffffff1673ffffffffffffffffffffffffffffffffffffffff16815260200183815260200180602001828103825283818151815260200191508051906020019080838360005b8381101561406e578082015181840152602081019050614053565b50505050905090810190601f16801561409b5780820380516001836020036101000a031916815260200191505b5095505050505050602060405180830381600087803b1580156140bd57600080fd5b505af11580156140d1573d6000803e3d6000fd5b505050506040513d60208110156140e757600080fd5b81019080805190602001909291905050509050639d188c2260e01b7bffffffffffffffffffffffffffffffffffffffffffffffffffffffff1916817bffffffffffffffffffffffffffffffffffffffffffffffffffffffff1916149150505b949350505050565b6000808284019050838110156141cc576040517f08c379a000000000000000000000000000000000000000000000000000000000815260040180806020018281038252601b8152602001807f536166654d6174683a206164646974696f6e206f766572666c6f77000000000081525060200191505060405180910390fd5b8091505092915050565b6000838311158290614283576040517f08c379a00000000000000000000000000000000000000000000000000000000081526004018080602001828103825283818151815260200191508051906020019080838360005b8381101561424857808201518184015260208101905061422d565b50505050905090810190601f1680156142755780820380516001836020036101000a031916815260200191505b509250505060405180910390fd5b5060008385039050809150509392505050565b600080823b90506000811191505091905056fe4b4950373a20617070726f766520746f20746865207a65726f20616464726573734b4950373a207472616e7366657220746f206e6f6e204b495037526563656976657220696d706c656d656e7465724b4950373a207472616e7366657220746f20746865207a65726f20616464726573734b4950373a207472616e736665722066726f6d20746865207a65726f20616464726573734b4950373a20617070726f76652066726f6d20746865207a65726f2061646472657373a165627a7a72305820d314cc3a7c88f71c4747a23221959999a02dd67db92c63fad96e3d35e4d5362e0029",
  "source": "// SPDX-License-Identifier: MIT\npragma solidity ^0.5.6;\n\nimport \"@klaytn/contracts/token/KIP7/KIP7.sol\";\nimport \"@klaytn/contracts/token/KIP7/IKIP7.sol\";\nimport \"@klaytn/contracts/token/KIP7/KIP7Metadata.sol\";\nimport \"./Token.sol\";\n\ninterface IExchange {\n    function klayToTokenSwap(uint256 _minTokens) external payable;\n\n    function klayToTokenTransfer(uint256 _minTokens, address _recipient)\n        external\n        payable;\n}\n\ninterface IFactory {\n    function getExchange(address _tokenAddress) external view returns (address);\n}\n\ncontract Exchange is KIP7, KIP7Metadata {\n\n    address public tokenAddress;\n    address public factoryAddress;   //   contract factory     \n    Token public uru;\n\n    constructor(address _token, Token _uru) public KIP7Metadata(\"klay-uru-LP-token\", \"LP\", 18)  {\n        require(_token != address(0), \"invalid token address\");\n        tokenAddress = _token;\n        uru = _uru;\n        factoryAddress = msg.sender;  // factory address link\n    }\n\n    function addLiquidity(uint256 _tokenAmount) public payable returns (uint256) {\n\n        if(getReserve() == 0) { //  token  \n\n            //     _tokenAmount   .\n            KIP7 token = KIP7(tokenAddress);\n            token.transferFrom(msg.sender, address(this), _tokenAmount);\n            \n            //   pool   liquidity   msg.sender\n            //  liquidity  _mint  LP  .\n            uint256 liquidity = address(this).balance;\n            _mint(msg.sender, liquidity); // LP  mint\n            \n            return liquidity;\n\n        } else { //  token    \n\n            //    _tokenAmount  \n            //     liquidity  \n            uint256 klayReserve = address(this).balance - msg.value;\n            uint256 tokenReserve = getReserve();\n            uint256 tokenAmount = (msg.value * tokenReserve) / klayReserve;\n\n            //            .\n            require(_tokenAmount >= tokenAmount, \"insufficient token amount\");\n\n            //  _tokenAmount      tokenAmount  \n            //  .\n            KIP7 token = KIP7(tokenAddress);\n            token.transferFrom(msg.sender, address(this), tokenAmount);\n\n            //   liquidity  LP  .\n            uint256 liquidity = (totalSupply() * msg.value) / klayReserve;\n            _mint(msg.sender, liquidity);\n\n            return liquidity;\n        }\n    }\n\n    function removeLiquidity(uint256 _amount) public returns (uint256, uint256) {\n        \n        require(_amount > 0, \"invalid amount\");\n\n        // klayAmount :   _amount     klay \n        uint256 klayAmount = (address(this).balance * _amount) / totalSupply();\n        // tokenAmount :   _amount     token \n        uint256 tokenAmount = (getReserve() * _amount) / totalSupply();\n\n        //  _amount  burn\n        _burn(msg.sender, _amount);\n\n        // ------(   removeLiquidity ,   )\n\n        // msg.sender  klayAmount \n        msg.sender.transfer(klayAmount);\n\n        //  msg.sender   tokenAmount \n        KIP7(tokenAddress).transfer(msg.sender, tokenAmount);\n\n        return (klayAmount, tokenAmount);\n    }\n\n    function getKlay() public view returns (uint256 balance) {\n        balance =  address(this).balance;\n    }\n\n    function getReserve() public view returns (uint256 balance) {\n        balance =  KIP7(tokenAddress).balanceOf(address(this)); \n    }\n\n    function getTokenAmount(uint256 _klaySold) public view returns (uint256) { // klay        \n        require(_klaySold > 0, \"klaySold is too small\");\n\n        uint256 tokenReserve = getReserve();\n\n        return getAmount(_klaySold, address(this).balance, tokenReserve); //     (y)\n    }\n\n    function getKlayAmount(uint256 _tokenSold) public view returns (uint256) {\n        require(_tokenSold > 0, \"tokenSold is too small\");\n\n        uint256 tokenReserve = getReserve();\n\n        return getAmount(_tokenSold, tokenReserve, address(this).balance);\n    }\n\n    function klayToToken(uint256 _minTokens, address recipient) public payable { //         \n        uint256 tokenReserve = getReserve(); //   \n        uint256 tokensBought = getAmount(\n            msg.value, //  klay\n            address(this).balance - msg.value, //  klay \n            tokenReserve //    \n        );\n\n        require(tokensBought >= _minTokens, \"insufficient output amount\"); //     \n\n        //  : Factory       msg.sender  \n        //       klayToTokenSwap  klayToToken, klayToTokenSwap  .\n        \n        //--  : msg.sender   ,    ' ' .\n        //              , '  ' .\n        //         https://jeiwan.net/posts/programming-defi-uniswap-3/\n\n        KIP7(tokenAddress).transfer(recipient, tokensBought);\n        // KIP7(tokenAddress).transfer(msg.sender, tokensBought); // tokenBought =     msg.sender  .\n    }\n    \n    function klayToTokenSwap(uint256 _minTokens) public payable {\n        klayToToken(_minTokens, msg.sender);\n    }\n\n    function klayToTokenTransfer(uint256 _minTokens, address _recipient)\n        public\n        payable\n    {\n        klayToToken(_minTokens, _recipient);\n    }\n\n    function tokenToKlaySwap(uint256 _tokensSold, uint256 _minklay) public {\n\n        uint256 tokenReserve = getReserve(); //    \n        uint256 klayBought = getAmount(\n            _tokensSold, //   \n            tokenReserve, //    \n            address(this).balance //   klay \n        );\n\n        require(klayBought >= _minklay, \"insufficient output amount\");\n\n        KIP7(tokenAddress).transferFrom(msg.sender, address(this), _tokensSold); // msg.sender     .\n        msg.sender.transfer(klayBought); // msg.sender klaybought    .\n    }\n\n    /*\n    * tokenToTokenSwap\n    * 1. Factory       .\n    * 2.  ,   sold         .\n    * 3.    .\n    */\n\n    function tokenToTokenSwap(uint256 _tokensSold, uint256 _minTokensBought, address _tokenAddress) \n    public {\n\n        // 1. Factory       .\n        address exchangeAddress = IFactory(factoryAddress).getExchange(_tokenAddress);\n        \n        //    \n        require(\n            exchangeAddress != address(this) && exchangeAddress != address(0),\n            \"invalid exchange address\"\n        );\n\n        uint256 tokenReserve = getReserve();    //  token \n        uint256 klayBought = getAmount(         // token   klay  (  )\n            _tokensSold,\n            tokenReserve,\n            address(this).balance               //  klay \n        );\n\n        // 2. msg.sender token sold   \n        // msg.sender : first exchange contract address\n        KIP7(tokenAddress).transferFrom(msg.sender, address(this), _tokensSold);\n\n        // 3.  klayBought   \n        // msg.sender : exchangeAddress\n        IExchange(exchangeAddress).klayToTokenTransfer.value(klayBought)(\n            _minTokensBought,\n            msg.sender\n        );\n    }\n\n    function getAmount( // x( )     y   \n        uint256 inputAmount,\n        uint256 inputReserve,\n        uint256 outputReserve \n    ) private pure returns (uint256) {\n        require(inputReserve > 0 && outputReserve > 0, \"invalid reserves\");\n\n        uint256 inputAmountWithFee = inputAmount * 99; //  .\n        uint256 numerator = inputAmountWithFee * outputReserve;\n        uint256 denominator = (inputReserve * 100) + inputAmountWithFee;\n\n        return numerator / denominator;\n\n        // return (inputAmount * outputReserve) / (inputReserve + inputAmount);    \n    }\n\n    // LP-Farming feature\n    \n    // iterations   \n    address[] public userList;\n\n    //    mapping \n    mapping(address => uint256) public stakingBalance;\n    mapping(address => bool) public isStaking;\n    mapping(address => uint256) public startTime;\n    mapping(address => uint256) public URUBalance;\n\n    event Stake(address indexed from, uint256 amount);\n    event Unstake(address indexed from, uint256 amount);\n    event YieldWithdraw(address indexed to, uint256 amount);\n\n    //   \n    function stake(uint256 amount) public {\n        require(\n            amount > 0 &&\n            KIP7(address(this)).balanceOf(msg.sender) >= amount, \n            \" \");\n\n        // userList \"  \" msg.sender  userList \n        if(isStaking[msg.sender] == false) {\n            userList.push(msg.sender);\n        }\n\n        KIP7(address(this)).transferFrom(msg.sender, address(this), amount);\n        stakingBalance[msg.sender] += amount;\n        startTime[msg.sender] = block.timestamp;\n        isStaking[msg.sender] = true;\n        emit Stake(msg.sender, amount);\n\n        // stake          mapping  \n        for (uint256 i = 0; i < userList.length; i++) {\n            uint256 nowURUBalance = calculateYieldTotal(userList[i]);\n            URUBalance[userList[i]] += nowURUBalance;\n            startTime[userList[i]] = block.timestamp;\n        }\n    }\n\n    //  \n    function unstake(uint256 amount) public {\n        require(\n            isStaking[msg.sender] = true &&\n            stakingBalance[msg.sender] >= amount, \n            \" \"\n        );\n        uint256 yieldTransfer = calculateYieldTotal(msg.sender);\n        startTime[msg.sender] = block.timestamp;\n        uint256 balTransfer = amount;\n        amount = 0;\n        stakingBalance[msg.sender] -= balTransfer;\n        KIP7(address(this)).transfer(msg.sender, balTransfer);\n        URUBalance[msg.sender] += yieldTransfer;\n        if(stakingBalance[msg.sender] == 0){\n            isStaking[msg.sender] = false;\n            //  0 userList    \n        }\n        emit Unstake(msg.sender, balTransfer);\n\n        // stake    \n        for (uint256 i = 0; i < userList.length; i++) {\n        uint256 nowURUBalance = calculateYieldTotal(userList[i]);\n        URUBalance[userList[i]] += nowURUBalance;\n        startTime[userList[i]] = block.timestamp;\n        }\n    }\n\n    //    address  \n    function getuserList() public view returns(address[] memory) {\n        return userList;\n    }\n\n    //      ( )\n    function calculateYieldTime(address user) public view returns(uint256){\n        uint256 end = block.timestamp;\n        uint256 totalTime = end - startTime[user];\n        return totalTime;\n    }\n\n    //        \n    //     ()\n    function calculateContribute(address user) public view returns(uint256){\n        uint contribution = (stakingBalance[user] * 100) / KIP7(address(this)).balanceOf(address(this));\n        return contribution;\n    }\n\n    //    ( stake unstake   )     \n    //    \n    //   1500,  25       \n    function calculateYieldTotal(address user) public view returns(uint256) {\n        uint256 time = calculateYieldTime(user);\n        uint256 contribution = calculateContribute(user);\n        uint256 rawYield = (time * contribution * 25);\n        return rawYield;\n    } \n\n    // URUBalance        mint\n    function withdrawYield() public {\n        uint256 toTransfer = calculateYieldTotal(msg.sender);\n\n        require(\n            toTransfer > 0 ||\n            URUBalance[msg.sender] > 0,\n            \"Nothing to withdraw\"\n            );\n                    \n        if(URUBalance[msg.sender] != 0){\n            uint256 oldBalance = URUBalance[msg.sender];\n            URUBalance[msg.sender] = 0;\n            toTransfer += oldBalance;\n        }\n\n        startTime[msg.sender] = block.timestamp;\n        uru.mint(msg.sender, toTransfer);\n        emit YieldWithdraw(msg.sender, toTransfer);\n    } \n}\n",
  "sourcePath": "/Users/baekdonghyun/Desktop/beb-03-DND/contract/contracts/Exchange.sol",
  "compiler": {
    "name": "solc",
    "version": "0.5.6+commit.b259423e.Emscripten.clang"
  },
  "schemaVersion": "3.4.5",
  "updatedAt": "2022-05-16T15:48:35.920Z",
  "networkType": "ethereum",
  "devdoc": {
    "methods": {
      "allowance(address,address)": {
        "details": "See `IKIP7.allowance`."
      },
      "approve(address,uint256)": {
        "details": "See `IKIP7.approve`.     * Requirements:     * - `spender` cannot be the zero address."
      },
      "balanceOf(address)": {
        "details": "See `IKIP7.balanceOf`."
      },
      "decimals()": {
        "details": "Returns the number of decimals used to get its user representation. For example, if `decimals` equals `2`, a balance of `505` tokens should be displayed to a user as `5,05` (`505 / 10 ** 2`).     * Tokens usually opt for a value of 18, imitating the relationship between Ether and Wei.     * > Note that this information is only used for _display_ purposes: it in no way affects any of the arithmetic of the contract, including `IKIP7.balanceOf` and `IKIP7.transfer`."
      },
      "name()": {
        "details": "Returns the name of the token."
      },
      "safeTransfer(address,uint256)": {
        "details": "Moves `amount` tokens from the caller's account to `recipient`."
      },
      "safeTransfer(address,uint256,bytes)": {
        "details": "Moves `amount` tokens from the caller's account to `recipient`."
      },
      "safeTransferFrom(address,address,uint256)": {
        "details": "Moves `amount` tokens from `sender` to `recipient` using the allowance mechanism. `amount` is then deducted from the caller's allowance."
      },
      "safeTransferFrom(address,address,uint256,bytes)": {
        "details": "Moves `amount` tokens from `sender` to `recipient` using the allowance mechanism. `amount` is then deducted from the caller's allowance."
      },
      "supportsInterface(bytes4)": {
        "details": "See `IKIP13.supportsInterface`.     * Time complexity O(1), guaranteed to always use less than 30 000 gas."
      },
      "symbol()": {
        "details": "Returns the symbol of the token, usually a shorter version of the name."
      },
      "totalSupply()": {
        "details": "See `IKIP7.totalSupply`."
      },
      "transfer(address,uint256)": {
        "details": "See `IKIP7.transfer`.     * Requirements:     * - `recipient` cannot be the zero address. - the caller must have a balance of at least `amount`."
      },
      "transferFrom(address,address,uint256)": {
        "details": "See `IKIP7.transferFrom`.     * Emits an `Approval` event indicating the updated allowance. This is not required by the KIP. See the note at the beginning of `KIP7`;     * Requirements: - `sender` and `recipient` cannot be the zero address. - `sender` must have a balance of at least `value`. - the caller must have allowance for `sender`'s tokens of at least `amount`."
      }
    }
  },
  "userdoc": {
    "methods": {}
  }
}