{
  "contractName": "Exchange",
  "abi": [
    {
      "constant": true,
      "inputs": [
        {
          "name": "interfaceId",
          "type": "bytes4"
        }
      ],
      "name": "supportsInterface",
      "outputs": [
        {
          "name": "",
          "type": "bool"
        }
      ],
      "payable": false,
      "stateMutability": "view",
      "type": "function"
    },
    {
      "constant": true,
      "inputs": [],
      "name": "name",
      "outputs": [
        {
          "name": "",
          "type": "string"
        }
      ],
      "payable": false,
      "stateMutability": "view",
      "type": "function"
    },
    {
      "constant": false,
      "inputs": [
        {
          "name": "spender",
          "type": "address"
        },
        {
          "name": "value",
          "type": "uint256"
        }
      ],
      "name": "approve",
      "outputs": [
        {
          "name": "",
          "type": "bool"
        }
      ],
      "payable": false,
      "stateMutability": "nonpayable",
      "type": "function"
    },
    {
      "constant": true,
      "inputs": [],
      "name": "totalSupply",
      "outputs": [
        {
          "name": "",
          "type": "uint256"
        }
      ],
      "payable": false,
      "stateMutability": "view",
      "type": "function"
    },
    {
      "constant": false,
      "inputs": [
        {
          "name": "sender",
          "type": "address"
        },
        {
          "name": "recipient",
          "type": "address"
        },
        {
          "name": "amount",
          "type": "uint256"
        }
      ],
      "name": "transferFrom",
      "outputs": [
        {
          "name": "",
          "type": "bool"
        }
      ],
      "payable": false,
      "stateMutability": "nonpayable",
      "type": "function"
    },
    {
      "constant": true,
      "inputs": [],
      "name": "decimals",
      "outputs": [
        {
          "name": "",
          "type": "uint8"
        }
      ],
      "payable": false,
      "stateMutability": "view",
      "type": "function"
    },
    {
      "constant": false,
      "inputs": [
        {
          "name": "recipient",
          "type": "address"
        },
        {
          "name": "amount",
          "type": "uint256"
        }
      ],
      "name": "safeTransfer",
      "outputs": [],
      "payable": false,
      "stateMutability": "nonpayable",
      "type": "function"
    },
    {
      "constant": false,
      "inputs": [
        {
          "name": "sender",
          "type": "address"
        },
        {
          "name": "recipient",
          "type": "address"
        },
        {
          "name": "amount",
          "type": "uint256"
        }
      ],
      "name": "safeTransferFrom",
      "outputs": [],
      "payable": false,
      "stateMutability": "nonpayable",
      "type": "function"
    },
    {
      "constant": true,
      "inputs": [
        {
          "name": "account",
          "type": "address"
        }
      ],
      "name": "balanceOf",
      "outputs": [
        {
          "name": "",
          "type": "uint256"
        }
      ],
      "payable": false,
      "stateMutability": "view",
      "type": "function"
    },
    {
      "constant": true,
      "inputs": [],
      "name": "symbol",
      "outputs": [
        {
          "name": "",
          "type": "string"
        }
      ],
      "payable": false,
      "stateMutability": "view",
      "type": "function"
    },
    {
      "constant": true,
      "inputs": [],
      "name": "factoryAddress",
      "outputs": [
        {
          "name": "",
          "type": "address"
        }
      ],
      "payable": false,
      "stateMutability": "view",
      "type": "function"
    },
    {
      "constant": true,
      "inputs": [],
      "name": "tokenAddress",
      "outputs": [
        {
          "name": "",
          "type": "address"
        }
      ],
      "payable": false,
      "stateMutability": "view",
      "type": "function"
    },
    {
      "constant": false,
      "inputs": [
        {
          "name": "recipient",
          "type": "address"
        },
        {
          "name": "amount",
          "type": "uint256"
        }
      ],
      "name": "transfer",
      "outputs": [
        {
          "name": "",
          "type": "bool"
        }
      ],
      "payable": false,
      "stateMutability": "nonpayable",
      "type": "function"
    },
    {
      "constant": false,
      "inputs": [
        {
          "name": "sender",
          "type": "address"
        },
        {
          "name": "recipient",
          "type": "address"
        },
        {
          "name": "amount",
          "type": "uint256"
        },
        {
          "name": "data",
          "type": "bytes"
        }
      ],
      "name": "safeTransferFrom",
      "outputs": [],
      "payable": false,
      "stateMutability": "nonpayable",
      "type": "function"
    },
    {
      "constant": true,
      "inputs": [
        {
          "name": "owner",
          "type": "address"
        },
        {
          "name": "spender",
          "type": "address"
        }
      ],
      "name": "allowance",
      "outputs": [
        {
          "name": "",
          "type": "uint256"
        }
      ],
      "payable": false,
      "stateMutability": "view",
      "type": "function"
    },
    {
      "constant": false,
      "inputs": [
        {
          "name": "recipient",
          "type": "address"
        },
        {
          "name": "amount",
          "type": "uint256"
        },
        {
          "name": "data",
          "type": "bytes"
        }
      ],
      "name": "safeTransfer",
      "outputs": [],
      "payable": false,
      "stateMutability": "nonpayable",
      "type": "function"
    },
    {
      "inputs": [
        {
          "name": "_token",
          "type": "address"
        }
      ],
      "payable": false,
      "stateMutability": "nonpayable",
      "type": "constructor"
    },
    {
      "anonymous": false,
      "inputs": [
        {
          "indexed": true,
          "name": "from",
          "type": "address"
        },
        {
          "indexed": true,
          "name": "to",
          "type": "address"
        },
        {
          "indexed": false,
          "name": "value",
          "type": "uint256"
        }
      ],
      "name": "Transfer",
      "type": "event"
    },
    {
      "anonymous": false,
      "inputs": [
        {
          "indexed": true,
          "name": "owner",
          "type": "address"
        },
        {
          "indexed": true,
          "name": "spender",
          "type": "address"
        },
        {
          "indexed": false,
          "name": "value",
          "type": "uint256"
        }
      ],
      "name": "Approval",
      "type": "event"
    },
    {
      "constant": false,
      "inputs": [
        {
          "name": "_tokenAmount",
          "type": "uint256"
        }
      ],
      "name": "addLiquidity",
      "outputs": [
        {
          "name": "",
          "type": "uint256"
        }
      ],
      "payable": true,
      "stateMutability": "payable",
      "type": "function"
    },
    {
      "constant": false,
      "inputs": [
        {
          "name": "_amount",
          "type": "uint256"
        }
      ],
      "name": "removeLiquidity",
      "outputs": [
        {
          "name": "",
          "type": "uint256"
        },
        {
          "name": "",
          "type": "uint256"
        }
      ],
      "payable": false,
      "stateMutability": "nonpayable",
      "type": "function"
    },
    {
      "constant": true,
      "inputs": [],
      "name": "getKlay",
      "outputs": [
        {
          "name": "balance",
          "type": "uint256"
        }
      ],
      "payable": false,
      "stateMutability": "view",
      "type": "function"
    },
    {
      "constant": true,
      "inputs": [],
      "name": "getReserve",
      "outputs": [
        {
          "name": "balance",
          "type": "uint256"
        }
      ],
      "payable": false,
      "stateMutability": "view",
      "type": "function"
    },
    {
      "constant": true,
      "inputs": [
        {
          "name": "_klaySold",
          "type": "uint256"
        }
      ],
      "name": "getTokenAmount",
      "outputs": [
        {
          "name": "",
          "type": "uint256"
        }
      ],
      "payable": false,
      "stateMutability": "view",
      "type": "function"
    },
    {
      "constant": true,
      "inputs": [
        {
          "name": "_tokenSold",
          "type": "uint256"
        }
      ],
      "name": "getKlayAmount",
      "outputs": [
        {
          "name": "",
          "type": "uint256"
        }
      ],
      "payable": false,
      "stateMutability": "view",
      "type": "function"
    },
    {
      "constant": false,
      "inputs": [
        {
          "name": "_minTokens",
          "type": "uint256"
        },
        {
          "name": "recipient",
          "type": "address"
        }
      ],
      "name": "klayToToken",
      "outputs": [],
      "payable": true,
      "stateMutability": "payable",
      "type": "function"
    },
    {
      "constant": false,
      "inputs": [
        {
          "name": "_minTokens",
          "type": "uint256"
        }
      ],
      "name": "klayToTokenSwap",
      "outputs": [],
      "payable": true,
      "stateMutability": "payable",
      "type": "function"
    },
    {
      "constant": false,
      "inputs": [
        {
          "name": "_minTokens",
          "type": "uint256"
        },
        {
          "name": "_recipient",
          "type": "address"
        }
      ],
      "name": "klayToTokenTransfer",
      "outputs": [],
      "payable": true,
      "stateMutability": "payable",
      "type": "function"
    },
    {
      "constant": false,
      "inputs": [
        {
          "name": "_tokensSold",
          "type": "uint256"
        },
        {
          "name": "_minklay",
          "type": "uint256"
        }
      ],
      "name": "tokenToKlaySwap",
      "outputs": [],
      "payable": false,
      "stateMutability": "nonpayable",
      "type": "function"
    },
    {
      "constant": false,
      "inputs": [
        {
          "name": "_tokensSold",
          "type": "uint256"
        },
        {
          "name": "_minTokensBought",
          "type": "uint256"
        },
        {
          "name": "_tokenAddress",
          "type": "address"
        }
      ],
      "name": "tokenToTokenSwap",
      "outputs": [],
      "payable": false,
      "stateMutability": "nonpayable",
      "type": "function"
    }
  ],
  "bytecode": "0x60806040523480156200001157600080fd5b50604051602080620031ff833981018060405260208110156200003357600080fd5b81019080805190602001909291905050506040518060400160405280601181526020017f6b6c61792d7572752d4c502d746f6b656e0000000000000000000000000000008152506040518060400160405280600281526020017f4c500000000000000000000000000000000000000000000000000000000000008152506012620000ca6301ffc9a760e01b6200027760201b60201c565b620000e2636578737160e01b6200027760201b60201c565b8260049080519060200190620000fa92919062000380565b5081600590805190602001906200011392919062000380565b5080600660006101000a81548160ff021916908360ff1602179055506200014763a219a02560e01b6200027760201b60201c565b505050600073ffffffffffffffffffffffffffffffffffffffff168173ffffffffffffffffffffffffffffffffffffffff161415620001ee576040517f08c379a00000000000000000000000000000000000000000000000000000000081526004018080602001828103825260158152602001807f696e76616c696420746f6b656e2061646472657373000000000000000000000081525060200191505060405180910390fd5b80600660016101000a81548173ffffffffffffffffffffffffffffffffffffffff021916908373ffffffffffffffffffffffffffffffffffffffff16021790555033600760006101000a81548173ffffffffffffffffffffffffffffffffffffffff021916908373ffffffffffffffffffffffffffffffffffffffff160217905550506200042f565b63ffffffff60e01b817bffffffffffffffffffffffffffffffffffffffffffffffffffffffff1916141562000314576040517f08c379a000000000000000000000000000000000000000000000000000000000815260040180806020018281038252601b8152602001807f4b495031333a20696e76616c696420696e74657266616365206964000000000081525060200191505060405180910390fd5b6001600080837bffffffffffffffffffffffffffffffffffffffffffffffffffffffff19167bffffffffffffffffffffffffffffffffffffffffffffffffffffffff1916815260200190815260200160002060006101000a81548160ff02191690831515021790555050565b828054600181600116156101000203166002900490600052602060002090601f016020900481019282601f10620003c357805160ff1916838001178555620003f4565b82800160010185558215620003f4579182015b82811115620003f3578251825591602001919060010190620003d6565b5b50905062000403919062000407565b5090565b6200042c91905b80821115620004285760008160009055506001016200040e565b5090565b90565b612dc0806200043f6000396000f3fe60806040526004361061019c5760003560e01c806395d89b41116100ec578063c2507ac11161008a578063d949817511610064578063d949817514610a59578063dd62ed3e14610a9e578063eb79554914610b23578063f7a7e32414610c155761019c565b8063c2507ac1146109b1578063ccbf7b8614610a00578063d655d9a314610a2e5761019c565b80639d76ea58116100c65780639d76ea5814610786578063a9059cbb146107dd578063b7dc49d414610850578063b88d4fde1461089f5761019c565b806395d89b4114610649578063966dae0e146106d95780639c8f9f23146107305761019c565b8063313ce5671161015957806342842e0e1161013357806342842e0e146104fc57806351c6590a1461057757806359bf5d39146105b957806370a08231146105e45761019c565b8063313ce5671461042257806331481c6314610453578063423f6cef146104a15761019c565b806301ffc9a7146101a157806306fdde0314610213578063095ea7b3146102a357806318160ddd146103165780631d62f7b21461034157806323b872dd1461038f575b600080fd5b3480156101ad57600080fd5b506101f9600480360360208110156101c457600080fd5b8101908080357bffffffffffffffffffffffffffffffffffffffffffffffffffffffff19169060200190929190505050610c7a565b604051808215151515815260200191505060405180910390f35b34801561021f57600080fd5b50610228610ce1565b6040518080602001828103825283818151815260200191508051906020019080838360005b8381101561026857808201518184015260208101905061024d565b50505050905090810190601f1680156102955780820380516001836020036101000a031916815260200191505b509250505060405180910390f35b3480156102af57600080fd5b506102fc600480360360408110156102c657600080fd5b81019080803573ffffffffffffffffffffffffffffffffffffffff16906020019092919080359060200190929190505050610d83565b604051808215151515815260200191505060405180910390f35b34801561032257600080fd5b5061032b610d9a565b6040518082815260200191505060405180910390f35b61038d6004803603604081101561035757600080fd5b8101908080359060200190929190803573ffffffffffffffffffffffffffffffffffffffff169060200190929190505050610da4565b005b34801561039b57600080fd5b50610408600480360360608110156103b257600080fd5b81019080803573ffffffffffffffffffffffffffffffffffffffff169060200190929190803573ffffffffffffffffffffffffffffffffffffffff16906020019092919080359060200190929190505050610db2565b604051808215151515815260200191505060405180910390f35b34801561042e57600080fd5b50610437610e63565b604051808260ff1660ff16815260200191505060405180910390f35b61049f6004803603604081101561046957600080fd5b8101908080359060200190929190803573ffffffffffffffffffffffffffffffffffffffff169060200190929190505050610e7a565b005b3480156104ad57600080fd5b506104fa600480360360408110156104c457600080fd5b81019080803573ffffffffffffffffffffffffffffffffffffffff1690602001909291908035906020019092919050505061100f565b005b34801561050857600080fd5b506105756004803603606081101561051f57600080fd5b81019080803573ffffffffffffffffffffffffffffffffffffffff169060200190929190803573ffffffffffffffffffffffffffffffffffffffff1690602001909291908035906020019092919050505061102d565b005b6105a36004803603602081101561058d57600080fd5b810190808035906020019092919050505061104d565b6040518082815260200191505060405180910390f35b3480156105c557600080fd5b506105ce6113a9565b6040518082815260200191505060405180910390f35b3480156105f057600080fd5b506106336004803603602081101561060757600080fd5b81019080803573ffffffffffffffffffffffffffffffffffffffff16906020019092919050505061148a565b6040518082815260200191505060405180910390f35b34801561065557600080fd5b5061065e6114d3565b6040518080602001828103825283818151815260200191508051906020019080838360005b8381101561069e578082015181840152602081019050610683565b50505050905090810190601f1680156106cb5780820380516001836020036101000a031916815260200191505b509250505060405180910390f35b3480156106e557600080fd5b506106ee611575565b604051808273ffffffffffffffffffffffffffffffffffffffff1673ffffffffffffffffffffffffffffffffffffffff16815260200191505060405180910390f35b34801561073c57600080fd5b506107696004803603602081101561075357600080fd5b810190808035906020019092919050505061159b565b604051808381526020018281526020019250505060405180910390f35b34801561079257600080fd5b5061079b6117a3565b604051808273ffffffffffffffffffffffffffffffffffffffff1673ffffffffffffffffffffffffffffffffffffffff16815260200191505060405180910390f35b3480156107e957600080fd5b506108366004803603604081101561080057600080fd5b81019080803573ffffffffffffffffffffffffffffffffffffffff169060200190929190803590602001909291905050506117c9565b604051808215151515815260200191505060405180910390f35b34801561085c57600080fd5b506108896004803603602081101561087357600080fd5b81019080803590602001909291905050506117e0565b6040518082815260200191505060405180910390f35b3480156108ab57600080fd5b506109af600480360360808110156108c257600080fd5b81019080803573ffffffffffffffffffffffffffffffffffffffff169060200190929190803573ffffffffffffffffffffffffffffffffffffffff169060200190929190803590602001909291908035906020019064010000000081111561092957600080fd5b82018360208201111561093b57600080fd5b8035906020019184600183028401116401000000008311171561095d57600080fd5b91908080601f016020809104026020016040519081016040528093929190818152602001838380828437600081840152601f19601f82011690508083019250505050505050919291929050505061188d565b005b3480156109bd57600080fd5b506109ea600480360360208110156109d457600080fd5b8101908080359060200190929190505050611900565b6040518082815260200191505060405180910390f35b610a2c60048036036020811015610a1657600080fd5b81019080803590602001909291905050506119ad565b005b348015610a3a57600080fd5b50610a436119ba565b6040518082815260200191505060405180910390f35b348015610a6557600080fd5b50610a9c60048036036040811015610a7c57600080fd5b8101908080359060200190929190803590602001909291905050506119d9565b005b348015610aaa57600080fd5b50610b0d60048036036040811015610ac157600080fd5b81019080803573ffffffffffffffffffffffffffffffffffffffff169060200190929190803573ffffffffffffffffffffffffffffffffffffffff169060200190929190505050611be7565b6040518082815260200191505060405180910390f35b348015610b2f57600080fd5b50610c1360048036036060811015610b4657600080fd5b81019080803573ffffffffffffffffffffffffffffffffffffffff1690602001909291908035906020019092919080359060200190640100000000811115610b8d57600080fd5b820183602082011115610b9f57600080fd5b80359060200191846001830284011164010000000083111715610bc157600080fd5b91908080601f016020809104026020016040519081016040528093929190818152602001838380828437600081840152601f19601f820116905080830192505050505050509192919290505050611c6e565b005b348015610c2157600080fd5b50610c7860048036036060811015610c3857600080fd5b810190808035906020019092919080359060200190929190803573ffffffffffffffffffffffffffffffffffffffff169060200190929190505050611cdf565b005b6000806000837bffffffffffffffffffffffffffffffffffffffffffffffffffffffff19167bffffffffffffffffffffffffffffffffffffffffffffffffffffffff1916815260200190815260200160002060009054906101000a900460ff169050919050565b606060048054600181600116156101000203166002900480601f016020809104026020016040519081016040528092919081815260200182805460018160011615610100020316600290048015610d795780601f10610d4e57610100808354040283529160200191610d79565b820191906000526020600020905b815481529060010190602001808311610d5c57829003601f168201915b5050505050905090565b6000610d9033848461208b565b6001905092915050565b6000600354905090565b610dae8282610e7a565b5050565b6000610dbf848484612282565b610e588433610e5385600260008a73ffffffffffffffffffffffffffffffffffffffff1673ffffffffffffffffffffffffffffffffffffffff16815260200190815260200160002060003373ffffffffffffffffffffffffffffffffffffffff1673ffffffffffffffffffffffffffffffffffffffff1681526020019081526020016000205461252290919063ffffffff16565b61208b565b600190509392505050565b6000600660009054906101000a900460ff16905090565b6000610e846113a9565b90506000610eac34343073ffffffffffffffffffffffffffffffffffffffff1631038461256c565b905083811015610f24576040517f08c379a000000000000000000000000000000000000000000000000000000000815260040180806020018281038252601a8152602001807f696e73756666696369656e74206f757470757420616d6f756e7400000000000081525060200191505060405180910390fd5b600660019054906101000a900473ffffffffffffffffffffffffffffffffffffffff1673ffffffffffffffffffffffffffffffffffffffff1663a9059cbb84836040518363ffffffff1660e01b8152600401808373ffffffffffffffffffffffffffffffffffffffff1673ffffffffffffffffffffffffffffffffffffffff16815260200182815260200192505050602060405180830381600087803b158015610fcd57600080fd5b505af1158015610fe1573d6000803e3d6000fd5b505050506040513d6020811015610ff757600080fd5b81019080805190602001909291905050505050505050565b611029828260405180602001604052806000815250611c6e565b5050565b6110488383836040518060200160405280600081525061188d565b505050565b6000806110586113a9565b14156111ac576000600660019054906101000a900473ffffffffffffffffffffffffffffffffffffffff1690508073ffffffffffffffffffffffffffffffffffffffff166323b872dd3330866040518463ffffffff1660e01b8152600401808473ffffffffffffffffffffffffffffffffffffffff1673ffffffffffffffffffffffffffffffffffffffff1681526020018373ffffffffffffffffffffffffffffffffffffffff1673ffffffffffffffffffffffffffffffffffffffff1681526020018281526020019350505050602060405180830381600087803b15801561114057600080fd5b505af1158015611154573d6000803e3d6000fd5b505050506040513d602081101561116a57600080fd5b81019080805190602001909291905050505060003073ffffffffffffffffffffffffffffffffffffffff163190506111a2338261261e565b80925050506113a4565b6000343073ffffffffffffffffffffffffffffffffffffffff163103905060006111d46113a9565b9050600082823402816111e357fe5b0490508085101561125c576040517f08c379a00000000000000000000000000000000000000000000000000000000081526004018080602001828103825260198152602001807f696e73756666696369656e7420746f6b656e20616d6f756e740000000000000081525060200191505060405180910390fd5b6000600660019054906101000a900473ffffffffffffffffffffffffffffffffffffffff1690508073ffffffffffffffffffffffffffffffffffffffff166323b872dd3330856040518463ffffffff1660e01b8152600401808473ffffffffffffffffffffffffffffffffffffffff1673ffffffffffffffffffffffffffffffffffffffff1681526020018373ffffffffffffffffffffffffffffffffffffffff1673ffffffffffffffffffffffffffffffffffffffff1681526020018281526020019350505050602060405180830381600087803b15801561133e57600080fd5b505af1158015611352573d6000803e3d6000fd5b505050506040513d602081101561136857600080fd5b81019080805190602001909291905050505060008434611386610d9a565b028161138e57fe5b04905061139b338261261e565b80955050505050505b919050565b6000600660019054906101000a900473ffffffffffffffffffffffffffffffffffffffff1673ffffffffffffffffffffffffffffffffffffffff166370a08231306040518263ffffffff1660e01b8152600401808273ffffffffffffffffffffffffffffffffffffffff1673ffffffffffffffffffffffffffffffffffffffff16815260200191505060206040518083038186803b15801561144a57600080fd5b505afa15801561145e573d6000803e3d6000fd5b505050506040513d602081101561147457600080fd5b8101908080519060200190929190505050905090565b6000600160008373ffffffffffffffffffffffffffffffffffffffff1673ffffffffffffffffffffffffffffffffffffffff168152602001908152602001600020549050919050565b606060058054600181600116156101000203166002900480601f01602080910402602001604051908101604052809291908181526020018280546001816001161561010002031660029004801561156b5780601f106115405761010080835404028352916020019161156b565b820191906000526020600020905b81548152906001019060200180831161154e57829003601f168201915b5050505050905090565b600760009054906101000a900473ffffffffffffffffffffffffffffffffffffffff1681565b60008060008311611614576040517f08c379a000000000000000000000000000000000000000000000000000000000815260040180806020018281038252600e8152602001807f696e76616c696420616d6f756e7400000000000000000000000000000000000081525060200191505060405180910390fd5b600061161e610d9a565b843073ffffffffffffffffffffffffffffffffffffffff1631028161163f57fe5b049050600061164c610d9a565b856116556113a9565b028161165d57fe5b04905061166a33866127db565b3373ffffffffffffffffffffffffffffffffffffffff166108fc839081150290604051600060405180830381858888f193505050501580156116b0573d6000803e3d6000fd5b50600660019054906101000a900473ffffffffffffffffffffffffffffffffffffffff1673ffffffffffffffffffffffffffffffffffffffff1663a9059cbb33836040518363ffffffff1660e01b8152600401808373ffffffffffffffffffffffffffffffffffffffff1673ffffffffffffffffffffffffffffffffffffffff16815260200182815260200192505050602060405180830381600087803b15801561175a57600080fd5b505af115801561176e573d6000803e3d6000fd5b505050506040513d602081101561178457600080fd5b8101908080519060200190929190505050508181935093505050915091565b600660019054906101000a900473ffffffffffffffffffffffffffffffffffffffff1681565b60006117d6338484612282565b6001905092915050565b6000808211611857576040517f08c379a00000000000000000000000000000000000000000000000000000000081526004018080602001828103825260168152602001807f746f6b656e536f6c6420697320746f6f20736d616c6c0000000000000000000081525060200191505060405180910390fd5b60006118616113a9565b905061188583823073ffffffffffffffffffffffffffffffffffffffff163161256c565b915050919050565b611898848484610db2565b506118a584848484612998565b6118fa576040517f08c379a000000000000000000000000000000000000000000000000000000000815260040180806020018281038252602e815260200180612cfe602e913960400191505060405180910390fd5b50505050565b6000808211611977576040517f08c379a00000000000000000000000000000000000000000000000000000000081526004018080602001828103825260158152602001807f6b6c6179536f6c6420697320746f6f20736d616c6c000000000000000000000081525060200191505060405180910390fd5b60006119816113a9565b90506119a5833073ffffffffffffffffffffffffffffffffffffffff16318361256c565b915050919050565b6119b78133610e7a565b50565b60003073ffffffffffffffffffffffffffffffffffffffff1631905090565b60006119e36113a9565b90506000611a0984833073ffffffffffffffffffffffffffffffffffffffff163161256c565b905082811015611a81576040517f08c379a000000000000000000000000000000000000000000000000000000000815260040180806020018281038252601a8152602001807f696e73756666696369656e74206f757470757420616d6f756e7400000000000081525060200191505060405180910390fd5b600660019054906101000a900473ffffffffffffffffffffffffffffffffffffffff1673ffffffffffffffffffffffffffffffffffffffff166323b872dd3330876040518463ffffffff1660e01b8152600401808473ffffffffffffffffffffffffffffffffffffffff1673ffffffffffffffffffffffffffffffffffffffff1681526020018373ffffffffffffffffffffffffffffffffffffffff1673ffffffffffffffffffffffffffffffffffffffff1681526020018281526020019350505050602060405180830381600087803b158015611b5e57600080fd5b505af1158015611b72573d6000803e3d6000fd5b505050506040513d6020811015611b8857600080fd5b8101908080519060200190929190505050503373ffffffffffffffffffffffffffffffffffffffff166108fc829081150290604051600060405180830381858888f19350505050158015611be0573d6000803e3d6000fd5b5050505050565b6000600260008473ffffffffffffffffffffffffffffffffffffffff1673ffffffffffffffffffffffffffffffffffffffff16815260200190815260200160002060008373ffffffffffffffffffffffffffffffffffffffff1673ffffffffffffffffffffffffffffffffffffffff16815260200190815260200160002054905092915050565b611c7883836117c9565b50611c8533848484612998565b611cda576040517f08c379a000000000000000000000000000000000000000000000000000000000815260040180806020018281038252602e815260200180612cfe602e913960400191505060405180910390fd5b505050565b6000600760009054906101000a900473ffffffffffffffffffffffffffffffffffffffff1673ffffffffffffffffffffffffffffffffffffffff166306f2bf62836040518263ffffffff1660e01b8152600401808273ffffffffffffffffffffffffffffffffffffffff1673ffffffffffffffffffffffffffffffffffffffff16815260200191505060206040518083038186803b158015611d8057600080fd5b505afa158015611d94573d6000803e3d6000fd5b505050506040513d6020811015611daa57600080fd5b810190808051906020019092919050505090503073ffffffffffffffffffffffffffffffffffffffff168173ffffffffffffffffffffffffffffffffffffffff1614158015611e265750600073ffffffffffffffffffffffffffffffffffffffff168173ffffffffffffffffffffffffffffffffffffffff1614155b611e98576040517f08c379a00000000000000000000000000000000000000000000000000000000081526004018080602001828103825260188152602001807f696e76616c69642065786368616e67652061646472657373000000000000000081525060200191505060405180910390fd5b6000611ea26113a9565b90506000611ec886833073ffffffffffffffffffffffffffffffffffffffff163161256c565b9050600660019054906101000a900473ffffffffffffffffffffffffffffffffffffffff1673ffffffffffffffffffffffffffffffffffffffff166323b872dd3330896040518463ffffffff1660e01b8152600401808473ffffffffffffffffffffffffffffffffffffffff1673ffffffffffffffffffffffffffffffffffffffff1681526020018373ffffffffffffffffffffffffffffffffffffffff1673ffffffffffffffffffffffffffffffffffffffff1681526020018281526020019350505050602060405180830381600087803b158015611fa757600080fd5b505af1158015611fbb573d6000803e3d6000fd5b505050506040513d6020811015611fd157600080fd5b8101908080519060200190929190505050508273ffffffffffffffffffffffffffffffffffffffff16631d62f7b28287336040518463ffffffff1660e01b8152600401808381526020018273ffffffffffffffffffffffffffffffffffffffff1673ffffffffffffffffffffffffffffffffffffffff168152602001925050506000604051808303818588803b15801561206a57600080fd5b505af115801561207e573d6000803e3d6000fd5b5050505050505050505050565b600073ffffffffffffffffffffffffffffffffffffffff168373ffffffffffffffffffffffffffffffffffffffff161415612111576040517f08c379a0000000000000000000000000000000000000000000000000000000008152600401808060200182810382526023815260200180612d726023913960400191505060405180910390fd5b600073ffffffffffffffffffffffffffffffffffffffff168273ffffffffffffffffffffffffffffffffffffffff161415612197576040517f08c379a0000000000000000000000000000000000000000000000000000000008152600401808060200182810382526021815260200180612cdd6021913960400191505060405180910390fd5b80600260008573ffffffffffffffffffffffffffffffffffffffff1673ffffffffffffffffffffffffffffffffffffffff16815260200190815260200160002060008473ffffffffffffffffffffffffffffffffffffffff1673ffffffffffffffffffffffffffffffffffffffff168152602001908152602001600020819055508173ffffffffffffffffffffffffffffffffffffffff168373ffffffffffffffffffffffffffffffffffffffff167f8c5be1e5ebec7d5bd14f71427d1e84f3dd0314c0f7b2291e5b200ac8c7c3b925836040518082815260200191505060405180910390a3505050565b600073ffffffffffffffffffffffffffffffffffffffff168373ffffffffffffffffffffffffffffffffffffffff161415612308576040517f08c379a0000000000000000000000000000000000000000000000000000000008152600401808060200182810382526024815260200180612d4e6024913960400191505060405180910390fd5b600073ffffffffffffffffffffffffffffffffffffffff168273ffffffffffffffffffffffffffffffffffffffff16141561238e576040517f08c379a0000000000000000000000000000000000000000000000000000000008152600401808060200182810382526022815260200180612d2c6022913960400191505060405180910390fd5b6123e081600160008673ffffffffffffffffffffffffffffffffffffffff1673ffffffffffffffffffffffffffffffffffffffff1681526020019081526020016000205461252290919063ffffffff16565b600160008573ffffffffffffffffffffffffffffffffffffffff1673ffffffffffffffffffffffffffffffffffffffff1681526020019081526020016000208190555061247581600160008573ffffffffffffffffffffffffffffffffffffffff1673ffffffffffffffffffffffffffffffffffffffff16815260200190815260200160002054612b8190919063ffffffff16565b600160008473ffffffffffffffffffffffffffffffffffffffff1673ffffffffffffffffffffffffffffffffffffffff168152602001908152602001600020819055508173ffffffffffffffffffffffffffffffffffffffff168373ffffffffffffffffffffffffffffffffffffffff167fddf252ad1be2c89b69c2b068fc378daa952ba7f163c4a11628f55a4df523b3ef836040518082815260200191505060405180910390a3505050565b600061256483836040518060400160405280601e81526020017f536166654d6174683a207375627472616374696f6e206f766572666c6f770000815250612c09565b905092915050565b6000808311801561257d5750600082115b6125ef576040517f08c379a00000000000000000000000000000000000000000000000000000000081526004018080602001828103825260108152602001807f696e76616c69642072657365727665730000000000000000000000000000000081525060200191505060405180910390fd5b6000606385029050600083820290506000826064870201905080828161261157fe5b0493505050509392505050565b600073ffffffffffffffffffffffffffffffffffffffff168273ffffffffffffffffffffffffffffffffffffffff1614156126c1576040517f08c379a000000000000000000000000000000000000000000000000000000000815260040180806020018281038252601e8152602001807f4b4950373a206d696e7420746f20746865207a65726f2061646472657373000081525060200191505060405180910390fd5b6126d681600354612b8190919063ffffffff16565b60038190555061272e81600160008573ffffffffffffffffffffffffffffffffffffffff1673ffffffffffffffffffffffffffffffffffffffff16815260200190815260200160002054612b8190919063ffffffff16565b600160008473ffffffffffffffffffffffffffffffffffffffff1673ffffffffffffffffffffffffffffffffffffffff168152602001908152602001600020819055508173ffffffffffffffffffffffffffffffffffffffff16600073ffffffffffffffffffffffffffffffffffffffff167fddf252ad1be2c89b69c2b068fc378daa952ba7f163c4a11628f55a4df523b3ef836040518082815260200191505060405180910390a35050565b600073ffffffffffffffffffffffffffffffffffffffff168273ffffffffffffffffffffffffffffffffffffffff16141561287e576040517f08c379a00000000000000000000000000000000000000000000000000000000081526004018080602001828103825260208152602001807f4b4950373a206275726e2066726f6d20746865207a65726f206164647265737381525060200191505060405180910390fd5b6128938160035461252290919063ffffffff16565b6003819055506128eb81600160008573ffffffffffffffffffffffffffffffffffffffff1673ffffffffffffffffffffffffffffffffffffffff1681526020019081526020016000205461252290919063ffffffff16565b600160008473ffffffffffffffffffffffffffffffffffffffff1673ffffffffffffffffffffffffffffffffffffffff16815260200190815260200160002081905550600073ffffffffffffffffffffffffffffffffffffffff168273ffffffffffffffffffffffffffffffffffffffff167fddf252ad1be2c89b69c2b068fc378daa952ba7f163c4a11628f55a4df523b3ef836040518082815260200191505060405180910390a35050565b60006129b98473ffffffffffffffffffffffffffffffffffffffff16612cc9565b6129c65760019050612b79565b60008473ffffffffffffffffffffffffffffffffffffffff16639d188c22338887876040518563ffffffff1660e01b8152600401808573ffffffffffffffffffffffffffffffffffffffff1673ffffffffffffffffffffffffffffffffffffffff1681526020018473ffffffffffffffffffffffffffffffffffffffff1673ffffffffffffffffffffffffffffffffffffffff16815260200183815260200180602001828103825283818151815260200191508051906020019080838360005b83811015612aa1578082015181840152602081019050612a86565b50505050905090810190601f168015612ace5780820380516001836020036101000a031916815260200191505b5095505050505050602060405180830381600087803b158015612af057600080fd5b505af1158015612b04573d6000803e3d6000fd5b505050506040513d6020811015612b1a57600080fd5b81019080805190602001909291905050509050639d188c2260e01b7bffffffffffffffffffffffffffffffffffffffffffffffffffffffff1916817bffffffffffffffffffffffffffffffffffffffffffffffffffffffff1916149150505b949350505050565b600080828401905083811015612bff576040517f08c379a000000000000000000000000000000000000000000000000000000000815260040180806020018281038252601b8152602001807f536166654d6174683a206164646974696f6e206f766572666c6f77000000000081525060200191505060405180910390fd5b8091505092915050565b6000838311158290612cb6576040517f08c379a00000000000000000000000000000000000000000000000000000000081526004018080602001828103825283818151815260200191508051906020019080838360005b83811015612c7b578082015181840152602081019050612c60565b50505050905090810190601f168015612ca85780820380516001836020036101000a031916815260200191505b509250505060405180910390fd5b5060008385039050809150509392505050565b600080823b90506000811191505091905056fe4b4950373a20617070726f766520746f20746865207a65726f20616464726573734b4950373a207472616e7366657220746f206e6f6e204b495037526563656976657220696d706c656d656e7465724b4950373a207472616e7366657220746f20746865207a65726f20616464726573734b4950373a207472616e736665722066726f6d20746865207a65726f20616464726573734b4950373a20617070726f76652066726f6d20746865207a65726f2061646472657373a165627a7a7230582031cf2cb442a08463760e54f8c2708d04c699664d8dab3356f24c068c31fe3a5e0029",
  "source": "// SPDX-License-Identifier: MIT\npragma solidity ^0.5.6;\n\nimport \"@klaytn/contracts/token/KIP7/KIP7.sol\";\nimport \"@klaytn/contracts/token/KIP7/IKIP7.sol\";\nimport \"@klaytn/contracts/token/KIP7/KIP7Metadata.sol\";\n\ninterface IExchange {\n    function klayToTokenSwap(uint256 _minTokens) external payable;\n\n    function klayToTokenTransfer(uint256 _minTokens, address _recipient)\n        external\n        payable;\n}\n\ninterface IFactory {\n    function getExchange(address _tokenAddress) external view returns (address);\n}\n\ncontract Exchange is KIP7, KIP7Metadata {\n\n    address public tokenAddress;\n    address public factoryAddress;   //   contract factory     \n\n    constructor(address _token) public KIP7Metadata(\"klay-uru-LP-token\", \"LP\", 18)  {\n        require(_token != address(0), \"invalid token address\");\n        tokenAddress = _token;\n        factoryAddress = msg.sender;  // factory address link\n    }\n\n    function addLiquidity(uint256 _tokenAmount) public payable returns (uint256) {\n\n        if(getReserve() == 0) { //  token  \n\n            //     _tokenAmount   .\n            KIP7 token = KIP7(tokenAddress);\n            token.transferFrom(msg.sender, address(this), _tokenAmount);\n            \n            //   pool   liquidity   msg.sender\n            //  liquidity  _mint  LP  .\n            uint256 liquidity = address(this).balance;\n            _mint(msg.sender, liquidity); // LP  mint\n            \n            return liquidity;\n\n        } else { //  token    \n\n            //    _tokenAmount  \n            //     liquidity  \n            uint256 klayReserve = address(this).balance - msg.value;\n            uint256 tokenReserve = getReserve();\n            uint256 tokenAmount = (msg.value * tokenReserve) / klayReserve;\n\n            //            .\n            require(_tokenAmount >= tokenAmount, \"insufficient token amount\");\n\n            //  _tokenAmount      tokenAmount  \n            //  .\n            KIP7 token = KIP7(tokenAddress);\n            token.transferFrom(msg.sender, address(this), tokenAmount);\n\n            //   liquidity  LP  .\n            uint256 liquidity = (totalSupply() * msg.value) / klayReserve;\n            _mint(msg.sender, liquidity);\n\n            return liquidity;\n        }\n    }\n\n    function removeLiquidity(uint256 _amount) public returns (uint256, uint256) {\n        \n        require(_amount > 0, \"invalid amount\");\n\n        // klayAmount :   _amount     klay \n        uint256 klayAmount = (address(this).balance * _amount) / totalSupply();\n        // tokenAmount :   _amount     token \n        uint256 tokenAmount = (getReserve() * _amount) / totalSupply();\n\n        //  _amount  burn\n        _burn(msg.sender, _amount);\n\n        // ------(   removeLiquidity ,   )\n\n        // msg.sender  klayAmount \n        msg.sender.transfer(klayAmount);\n\n        //  msg.sender   tokenAmount \n        KIP7(tokenAddress).transfer(msg.sender, tokenAmount);\n\n        return (klayAmount, tokenAmount);\n    }\n\n    function getKlay() public view returns (uint256 balance) {\n        balance =  address(this).balance;\n    }\n\n    function getReserve() public view returns (uint256 balance) {\n        balance =  KIP7(tokenAddress).balanceOf(address(this)); \n    }\n\n    function getTokenAmount(uint256 _klaySold) public view returns (uint256) { // klay        \n        require(_klaySold > 0, \"klaySold is too small\");\n\n        uint256 tokenReserve = getReserve();\n\n        return getAmount(_klaySold, address(this).balance, tokenReserve); //     (y)\n    }\n\n    function getKlayAmount(uint256 _tokenSold) public view returns (uint256) {\n        require(_tokenSold > 0, \"tokenSold is too small\");\n\n        uint256 tokenReserve = getReserve();\n\n        return getAmount(_tokenSold, tokenReserve, address(this).balance);\n    }\n\n    function klayToToken(uint256 _minTokens, address recipient) public payable { //         \n        uint256 tokenReserve = getReserve(); //   \n        uint256 tokensBought = getAmount(\n            msg.value, //  klay\n            address(this).balance - msg.value, //  klay \n            tokenReserve //    \n        );\n\n        require(tokensBought >= _minTokens, \"insufficient output amount\"); //     \n\n        //  : Factory       msg.sender  \n        //       klayToTokenSwap  klayToToken, klayToTokenSwap  .\n        \n        //--  : msg.sender   ,    ' ' .\n        //              , '  ' .\n        //         https://jeiwan.net/posts/programming-defi-uniswap-3/\n\n        KIP7(tokenAddress).transfer(recipient, tokensBought);\n        // KIP7(tokenAddress).transfer(msg.sender, tokensBought); // tokenBought =     msg.sender  .\n    }\n    \n    function klayToTokenSwap(uint256 _minTokens) public payable {\n        klayToToken(_minTokens, msg.sender);\n    }\n\n    function klayToTokenTransfer(uint256 _minTokens, address _recipient)\n        public\n        payable\n    {\n        klayToToken(_minTokens, _recipient);\n    }\n\n    function tokenToKlaySwap(uint256 _tokensSold, uint256 _minklay) public {\n\n        uint256 tokenReserve = getReserve(); //    \n        uint256 klayBought = getAmount(\n            _tokensSold, //   \n            tokenReserve, //    \n            address(this).balance //   klay \n        );\n\n        require(klayBought >= _minklay, \"insufficient output amount\");\n\n        KIP7(tokenAddress).transferFrom(msg.sender, address(this), _tokensSold); // msg.sender     .\n        msg.sender.transfer(klayBought); // msg.sender klaybought    .\n    }\n\n    /*\n    * tokenToTokenSwap\n    * 1. Factory       .\n    * 2.  ,   sold         .\n    * 3.    .\n    */\n\n    function tokenToTokenSwap(uint256 _tokensSold, uint256 _minTokensBought, address _tokenAddress) \n    public {\n\n        // 1. Factory       .\n        address exchangeAddress = IFactory(factoryAddress).getExchange(_tokenAddress);\n        \n        //    \n        require(\n            exchangeAddress != address(this) && exchangeAddress != address(0),\n            \"invalid exchange address\"\n        );\n\n        uint256 tokenReserve = getReserve();    //  token \n        uint256 klayBought = getAmount(         // token   klay  (  )\n            _tokensSold,\n            tokenReserve,\n            address(this).balance               //  klay \n        );\n\n        // 2. msg.sender token sold   \n        // msg.sender : first exchange contract address\n        KIP7(tokenAddress).transferFrom(msg.sender, address(this), _tokensSold);\n\n        // 3.  klayBought   \n        // msg.sender : exchangeAddress\n        IExchange(exchangeAddress).klayToTokenTransfer.value(klayBought)(\n            _minTokensBought,\n            msg.sender\n        );\n    }\n\n    function getAmount( // x( )     y   \n        uint256 inputAmount,\n        uint256 inputReserve,\n        uint256 outputReserve \n    ) private pure returns (uint256) {\n        require(inputReserve > 0 && outputReserve > 0, \"invalid reserves\");\n\n        uint256 inputAmountWithFee = inputAmount * 99; //  .\n        uint256 numerator = inputAmountWithFee * outputReserve;\n        uint256 denominator = (inputReserve * 100) + inputAmountWithFee;\n\n        return numerator / denominator;\n\n        // return (inputAmount * outputReserve) / (inputReserve + inputAmount);    \n    }\n\n}\n",
  "sourcePath": "/Users/baekdonghyun/Desktop/beb-03-DND/contract/contracts/Exchange.sol",
  "compiler": {
    "name": "solc",
    "version": "0.5.6+commit.b259423e.Emscripten.clang"
  },
  "schemaVersion": "3.4.5",
  "updatedAt": "2022-05-12T11:40:25.741Z",
  "networkType": "ethereum",
  "devdoc": {
    "methods": {
      "allowance(address,address)": {
        "details": "See `IKIP7.allowance`."
      },
      "approve(address,uint256)": {
        "details": "See `IKIP7.approve`.     * Requirements:     * - `spender` cannot be the zero address."
      },
      "balanceOf(address)": {
        "details": "See `IKIP7.balanceOf`."
      },
      "decimals()": {
        "details": "Returns the number of decimals used to get its user representation. For example, if `decimals` equals `2`, a balance of `505` tokens should be displayed to a user as `5,05` (`505 / 10 ** 2`).     * Tokens usually opt for a value of 18, imitating the relationship between Ether and Wei.     * > Note that this information is only used for _display_ purposes: it in no way affects any of the arithmetic of the contract, including `IKIP7.balanceOf` and `IKIP7.transfer`."
      },
      "name()": {
        "details": "Returns the name of the token."
      },
      "safeTransfer(address,uint256)": {
        "details": "Moves `amount` tokens from the caller's account to `recipient`."
      },
      "safeTransfer(address,uint256,bytes)": {
        "details": "Moves `amount` tokens from the caller's account to `recipient`."
      },
      "safeTransferFrom(address,address,uint256)": {
        "details": "Moves `amount` tokens from `sender` to `recipient` using the allowance mechanism. `amount` is then deducted from the caller's allowance."
      },
      "safeTransferFrom(address,address,uint256,bytes)": {
        "details": "Moves `amount` tokens from `sender` to `recipient` using the allowance mechanism. `amount` is then deducted from the caller's allowance."
      },
      "supportsInterface(bytes4)": {
        "details": "See `IKIP13.supportsInterface`.     * Time complexity O(1), guaranteed to always use less than 30 000 gas."
      },
      "symbol()": {
        "details": "Returns the symbol of the token, usually a shorter version of the name."
      },
      "totalSupply()": {
        "details": "See `IKIP7.totalSupply`."
      },
      "transfer(address,uint256)": {
        "details": "See `IKIP7.transfer`.     * Requirements:     * - `recipient` cannot be the zero address. - the caller must have a balance of at least `amount`."
      },
      "transferFrom(address,address,uint256)": {
        "details": "See `IKIP7.transferFrom`.     * Emits an `Approval` event indicating the updated allowance. This is not required by the KIP. See the note at the beginning of `KIP7`;     * Requirements: - `sender` and `recipient` cannot be the zero address. - `sender` must have a balance of at least `value`. - the caller must have allowance for `sender`'s tokens of at least `amount`."
      }
    }
  },
  "userdoc": {
    "methods": {}
  }
}