{
  "contractName": "Exchange",
  "abi": [
    {
      "constant": true,
      "inputs": [
        {
          "name": "interfaceId",
          "type": "bytes4"
        }
      ],
      "name": "supportsInterface",
      "outputs": [
        {
          "name": "",
          "type": "bool"
        }
      ],
      "payable": false,
      "stateMutability": "view",
      "type": "function"
    },
    {
      "constant": true,
      "inputs": [],
      "name": "name",
      "outputs": [
        {
          "name": "",
          "type": "string"
        }
      ],
      "payable": false,
      "stateMutability": "view",
      "type": "function"
    },
    {
      "constant": false,
      "inputs": [
        {
          "name": "spender",
          "type": "address"
        },
        {
          "name": "value",
          "type": "uint256"
        }
      ],
      "name": "approve",
      "outputs": [
        {
          "name": "",
          "type": "bool"
        }
      ],
      "payable": false,
      "stateMutability": "nonpayable",
      "type": "function"
    },
    {
      "constant": true,
      "inputs": [],
      "name": "uru",
      "outputs": [
        {
          "name": "",
          "type": "address"
        }
      ],
      "payable": false,
      "stateMutability": "view",
      "type": "function"
    },
    {
      "constant": true,
      "inputs": [],
      "name": "totalSupply",
      "outputs": [
        {
          "name": "",
          "type": "uint256"
        }
      ],
      "payable": false,
      "stateMutability": "view",
      "type": "function"
    },
    {
      "constant": false,
      "inputs": [
        {
          "name": "sender",
          "type": "address"
        },
        {
          "name": "recipient",
          "type": "address"
        },
        {
          "name": "amount",
          "type": "uint256"
        }
      ],
      "name": "transferFrom",
      "outputs": [
        {
          "name": "",
          "type": "bool"
        }
      ],
      "payable": false,
      "stateMutability": "nonpayable",
      "type": "function"
    },
    {
      "constant": true,
      "inputs": [],
      "name": "decimals",
      "outputs": [
        {
          "name": "",
          "type": "uint8"
        }
      ],
      "payable": false,
      "stateMutability": "view",
      "type": "function"
    },
    {
      "constant": false,
      "inputs": [
        {
          "name": "recipient",
          "type": "address"
        },
        {
          "name": "amount",
          "type": "uint256"
        }
      ],
      "name": "safeTransfer",
      "outputs": [],
      "payable": false,
      "stateMutability": "nonpayable",
      "type": "function"
    },
    {
      "constant": false,
      "inputs": [
        {
          "name": "sender",
          "type": "address"
        },
        {
          "name": "recipient",
          "type": "address"
        },
        {
          "name": "amount",
          "type": "uint256"
        }
      ],
      "name": "safeTransferFrom",
      "outputs": [],
      "payable": false,
      "stateMutability": "nonpayable",
      "type": "function"
    },
    {
      "constant": true,
      "inputs": [
        {
          "name": "account",
          "type": "address"
        }
      ],
      "name": "balanceOf",
      "outputs": [
        {
          "name": "",
          "type": "uint256"
        }
      ],
      "payable": false,
      "stateMutability": "view",
      "type": "function"
    },
    {
      "constant": true,
      "inputs": [],
      "name": "symbol",
      "outputs": [
        {
          "name": "",
          "type": "string"
        }
      ],
      "payable": false,
      "stateMutability": "view",
      "type": "function"
    },
    {
      "constant": true,
      "inputs": [],
      "name": "factoryAddress",
      "outputs": [
        {
          "name": "",
          "type": "address"
        }
      ],
      "payable": false,
      "stateMutability": "view",
      "type": "function"
    },
    {
      "constant": true,
      "inputs": [],
      "name": "tokenAddress",
      "outputs": [
        {
          "name": "",
          "type": "address"
        }
      ],
      "payable": false,
      "stateMutability": "view",
      "type": "function"
    },
    {
      "constant": false,
      "inputs": [
        {
          "name": "recipient",
          "type": "address"
        },
        {
          "name": "amount",
          "type": "uint256"
        }
      ],
      "name": "transfer",
      "outputs": [
        {
          "name": "",
          "type": "bool"
        }
      ],
      "payable": false,
      "stateMutability": "nonpayable",
      "type": "function"
    },
    {
      "constant": false,
      "inputs": [
        {
          "name": "sender",
          "type": "address"
        },
        {
          "name": "recipient",
          "type": "address"
        },
        {
          "name": "amount",
          "type": "uint256"
        },
        {
          "name": "data",
          "type": "bytes"
        }
      ],
      "name": "safeTransferFrom",
      "outputs": [],
      "payable": false,
      "stateMutability": "nonpayable",
      "type": "function"
    },
    {
      "constant": true,
      "inputs": [
        {
          "name": "owner",
          "type": "address"
        },
        {
          "name": "spender",
          "type": "address"
        }
      ],
      "name": "allowance",
      "outputs": [
        {
          "name": "",
          "type": "uint256"
        }
      ],
      "payable": false,
      "stateMutability": "view",
      "type": "function"
    },
    {
      "constant": false,
      "inputs": [
        {
          "name": "recipient",
          "type": "address"
        },
        {
          "name": "amount",
          "type": "uint256"
        },
        {
          "name": "data",
          "type": "bytes"
        }
      ],
      "name": "safeTransfer",
      "outputs": [],
      "payable": false,
      "stateMutability": "nonpayable",
      "type": "function"
    },
    {
      "inputs": [
        {
          "name": "_token",
          "type": "address"
        },
        {
          "name": "_uru",
          "type": "address"
        },
        {
          "name": "_epochDuration",
          "type": "uint256"
        }
      ],
      "payable": false,
      "stateMutability": "nonpayable",
      "type": "constructor"
    },
    {
      "anonymous": false,
      "inputs": [
        {
          "indexed": true,
          "name": "from",
          "type": "address"
        },
        {
          "indexed": true,
          "name": "to",
          "type": "address"
        },
        {
          "indexed": false,
          "name": "value",
          "type": "uint256"
        }
      ],
      "name": "Transfer",
      "type": "event"
    },
    {
      "anonymous": false,
      "inputs": [
        {
          "indexed": true,
          "name": "owner",
          "type": "address"
        },
        {
          "indexed": true,
          "name": "spender",
          "type": "address"
        },
        {
          "indexed": false,
          "name": "value",
          "type": "uint256"
        }
      ],
      "name": "Approval",
      "type": "event"
    },
    {
      "constant": false,
      "inputs": [
        {
          "name": "_tokenAmount",
          "type": "uint256"
        }
      ],
      "name": "addLiquidity",
      "outputs": [
        {
          "name": "",
          "type": "uint256"
        }
      ],
      "payable": true,
      "stateMutability": "payable",
      "type": "function"
    },
    {
      "constant": false,
      "inputs": [
        {
          "name": "_amount",
          "type": "uint256"
        }
      ],
      "name": "removeLiquidity",
      "outputs": [
        {
          "name": "",
          "type": "uint256"
        },
        {
          "name": "",
          "type": "uint256"
        }
      ],
      "payable": false,
      "stateMutability": "nonpayable",
      "type": "function"
    },
    {
      "constant": true,
      "inputs": [],
      "name": "getKlay",
      "outputs": [
        {
          "name": "balance",
          "type": "uint256"
        }
      ],
      "payable": false,
      "stateMutability": "view",
      "type": "function"
    },
    {
      "constant": true,
      "inputs": [],
      "name": "getReserve",
      "outputs": [
        {
          "name": "balance",
          "type": "uint256"
        }
      ],
      "payable": false,
      "stateMutability": "view",
      "type": "function"
    },
    {
      "constant": true,
      "inputs": [
        {
          "name": "_klaySold",
          "type": "uint256"
        }
      ],
      "name": "getTokenAmount",
      "outputs": [
        {
          "name": "",
          "type": "uint256"
        }
      ],
      "payable": false,
      "stateMutability": "view",
      "type": "function"
    },
    {
      "constant": true,
      "inputs": [
        {
          "name": "_tokenSold",
          "type": "uint256"
        }
      ],
      "name": "getKlayAmount",
      "outputs": [
        {
          "name": "",
          "type": "uint256"
        }
      ],
      "payable": false,
      "stateMutability": "view",
      "type": "function"
    },
    {
      "constant": false,
      "inputs": [
        {
          "name": "_minTokens",
          "type": "uint256"
        },
        {
          "name": "recipient",
          "type": "address"
        }
      ],
      "name": "klayToToken",
      "outputs": [],
      "payable": true,
      "stateMutability": "payable",
      "type": "function"
    },
    {
      "constant": false,
      "inputs": [
        {
          "name": "_minTokens",
          "type": "uint256"
        }
      ],
      "name": "klayToTokenSwap",
      "outputs": [],
      "payable": true,
      "stateMutability": "payable",
      "type": "function"
    },
    {
      "constant": false,
      "inputs": [
        {
          "name": "_minTokens",
          "type": "uint256"
        },
        {
          "name": "_recipient",
          "type": "address"
        }
      ],
      "name": "klayToTokenTransfer",
      "outputs": [],
      "payable": true,
      "stateMutability": "payable",
      "type": "function"
    },
    {
      "constant": false,
      "inputs": [
        {
          "name": "_tokensSold",
          "type": "uint256"
        },
        {
          "name": "_minklay",
          "type": "uint256"
        }
      ],
      "name": "tokenToKlaySwap",
      "outputs": [],
      "payable": false,
      "stateMutability": "nonpayable",
      "type": "function"
    },
    {
      "constant": false,
      "inputs": [
        {
          "name": "_tokensSold",
          "type": "uint256"
        },
        {
          "name": "_minTokensBought",
          "type": "uint256"
        },
        {
          "name": "_tokenAddress",
          "type": "address"
        }
      ],
      "name": "tokenToTokenSwap",
      "outputs": [],
      "payable": false,
      "stateMutability": "nonpayable",
      "type": "function"
    }
  ],
  "bytecode": "0x6080604052605f600860146101000a81548160ff021916908360ff1602179055503480156200002d57600080fd5b5060405160608062003645833981018060405260608110156200004f57600080fd5b810190808051906020019092919080519060200190929190805190602001909291905050506040518060400160405280601181526020017f6b6c61792d7572752d4c502d746f6b656e0000000000000000000000000000008152506040518060400160405280600281526020017f4c500000000000000000000000000000000000000000000000000000000000008152506012620000fa6301ffc9a760e01b6200031860201b60201c565b62000112636578737160e01b6200031860201b60201c565b82600490805190602001906200012a929190620004aa565b50816005908051906020019062000143929190620004aa565b5080600660006101000a81548160ff021916908360ff1602179055506200017763a219a02560e01b6200031860201b60201c565b505050600073ffffffffffffffffffffffffffffffffffffffff168373ffffffffffffffffffffffffffffffffffffffff1614156200021e576040517f08c379a00000000000000000000000000000000000000000000000000000000081526004018080602001828103825260158152602001807f696e76616c696420746f6b656e2061646472657373000000000000000000000081525060200191505060405180910390fd5b82600660016101000a81548173ffffffffffffffffffffffffffffffffffffffff021916908373ffffffffffffffffffffffffffffffffffffffff16021790555081600860006101000a81548173ffffffffffffffffffffffffffffffffffffffff021916908373ffffffffffffffffffffffffffffffffffffffff16021790555033600760006101000a81548173ffffffffffffffffffffffffffffffffffffffff021916908373ffffffffffffffffffffffffffffffffffffffff160217905550426009819055506200030281426200042160201b62002db61790919060201c565b600a8190555080600b8190555050505062000559565b63ffffffff60e01b817bffffffffffffffffffffffffffffffffffffffffffffffffffffffff19161415620003b5576040517f08c379a000000000000000000000000000000000000000000000000000000000815260040180806020018281038252601b8152602001807f4b495031333a20696e76616c696420696e74657266616365206964000000000081525060200191505060405180910390fd5b6001600080837bffffffffffffffffffffffffffffffffffffffffffffffffffffffff19167bffffffffffffffffffffffffffffffffffffffffffffffffffffffff1916815260200190815260200160002060006101000a81548160ff02191690831515021790555050565b600080828401905083811015620004a0576040517f08c379a000000000000000000000000000000000000000000000000000000000815260040180806020018281038252601b8152602001807f536166654d6174683a206164646974696f6e206f766572666c6f77000000000081525060200191505060405180910390fd5b8091505092915050565b828054600181600116156101000203166002900490600052602060002090601f016020900481019282601f10620004ed57805160ff19168380011785556200051e565b828001600101855582156200051e579182015b828111156200051d57825182559160200191906001019062000500565b5b5090506200052d919062000531565b5090565b6200055691905b808211156200055257600081600090555060010162000538565b5090565b90565b6130dc80620005696000396000f3fe6080604052600436106101b75760003560e01c806395d89b41116100ec578063c2507ac11161008a578063d949817511610064578063d949817514610acb578063dd62ed3e14610b10578063eb79554914610b95578063f7a7e32414610c87576101b7565b8063c2507ac114610a23578063ccbf7b8614610a72578063d655d9a314610aa0576101b7565b80639d76ea58116100c65780639d76ea58146107f8578063a9059cbb1461084f578063b7dc49d4146108c2578063b88d4fde14610911576101b7565b806395d89b41146106bb578063966dae0e1461074b5780639c8f9f23146107a2576101b7565b8063313ce5671161015957806342842e0e1161013357806342842e0e1461056e57806351c6590a146105e957806359bf5d391461062b57806370a0823114610656576101b7565b8063313ce5671461049457806331481c63146104c5578063423f6cef14610513576101b7565b8063103c07dc11610195578063103c07dc1461033157806318160ddd146103885780631d62f7b2146103b357806323b872dd14610401576101b7565b806301ffc9a7146101bc57806306fdde031461022e578063095ea7b3146102be575b600080fd5b3480156101c857600080fd5b50610214600480360360208110156101df57600080fd5b8101908080357bffffffffffffffffffffffffffffffffffffffffffffffffffffffff19169060200190929190505050610cec565b604051808215151515815260200191505060405180910390f35b34801561023a57600080fd5b50610243610d53565b6040518080602001828103825283818151815260200191508051906020019080838360005b83811015610283578082015181840152602081019050610268565b50505050905090810190601f1680156102b05780820380516001836020036101000a031916815260200191505b509250505060405180910390f35b3480156102ca57600080fd5b50610317600480360360408110156102e157600080fd5b81019080803573ffffffffffffffffffffffffffffffffffffffff16906020019092919080359060200190929190505050610df5565b604051808215151515815260200191505060405180910390f35b34801561033d57600080fd5b50610346610e0c565b604051808273ffffffffffffffffffffffffffffffffffffffff1673ffffffffffffffffffffffffffffffffffffffff16815260200191505060405180910390f35b34801561039457600080fd5b5061039d610e32565b6040518082815260200191505060405180910390f35b6103ff600480360360408110156103c957600080fd5b8101908080359060200190929190803573ffffffffffffffffffffffffffffffffffffffff169060200190929190505050610e3c565b005b34801561040d57600080fd5b5061047a6004803603606081101561042457600080fd5b81019080803573ffffffffffffffffffffffffffffffffffffffff169060200190929190803573ffffffffffffffffffffffffffffffffffffffff16906020019092919080359060200190929190505050610e4a565b604051808215151515815260200191505060405180910390f35b3480156104a057600080fd5b506104a9610efb565b604051808260ff1660ff16815260200191505060405180910390f35b610511600480360360408110156104db57600080fd5b8101908080359060200190929190803573ffffffffffffffffffffffffffffffffffffffff169060200190929190505050610f12565b005b34801561051f57600080fd5b5061056c6004803603604081101561053657600080fd5b81019080803573ffffffffffffffffffffffffffffffffffffffff169060200190929190803590602001909291905050506110b7565b005b34801561057a57600080fd5b506105e76004803603606081101561059157600080fd5b81019080803573ffffffffffffffffffffffffffffffffffffffff169060200190929190803573ffffffffffffffffffffffffffffffffffffffff169060200190929190803590602001909291905050506110d5565b005b610615600480360360208110156105ff57600080fd5b81019080803590602001909291905050506110f5565b6040518082815260200191505060405180910390f35b34801561063757600080fd5b50610640611493565b6040518082815260200191505060405180910390f35b34801561066257600080fd5b506106a56004803603602081101561067957600080fd5b81019080803573ffffffffffffffffffffffffffffffffffffffff169060200190929190505050611574565b6040518082815260200191505060405180910390f35b3480156106c757600080fd5b506106d06115bd565b6040518080602001828103825283818151815260200191508051906020019080838360005b838110156107105780820151818401526020810190506106f5565b50505050905090810190601f16801561073d5780820380516001836020036101000a031916815260200191505b509250505060405180910390f35b34801561075757600080fd5b5061076061165f565b604051808273ffffffffffffffffffffffffffffffffffffffff1673ffffffffffffffffffffffffffffffffffffffff16815260200191505060405180910390f35b3480156107ae57600080fd5b506107db600480360360208110156107c557600080fd5b8101908080359060200190929190505050611685565b604051808381526020018281526020019250505060405180910390f35b34801561080457600080fd5b5061080d6118bf565b604051808273ffffffffffffffffffffffffffffffffffffffff1673ffffffffffffffffffffffffffffffffffffffff16815260200191505060405180910390f35b34801561085b57600080fd5b506108a86004803603604081101561087257600080fd5b81019080803573ffffffffffffffffffffffffffffffffffffffff169060200190929190803590602001909291905050506118e5565b604051808215151515815260200191505060405180910390f35b3480156108ce57600080fd5b506108fb600480360360208110156108e557600080fd5b81019080803590602001909291905050506118fc565b6040518082815260200191505060405180910390f35b34801561091d57600080fd5b50610a216004803603608081101561093457600080fd5b81019080803573ffffffffffffffffffffffffffffffffffffffff169060200190929190803573ffffffffffffffffffffffffffffffffffffffff169060200190929190803590602001909291908035906020019064010000000081111561099b57600080fd5b8201836020820111156109ad57600080fd5b803590602001918460018302840111640100000000831117156109cf57600080fd5b91908080601f016020809104026020016040519081016040528093929190818152602001838380828437600081840152601f19601f8201169050808301925050505050505091929192905050506119a9565b005b348015610a2f57600080fd5b50610a5c60048036036020811015610a4657600080fd5b8101908080359060200190929190505050611a1c565b6040518082815260200191505060405180910390f35b610a9e60048036036020811015610a8857600080fd5b8101908080359060200190929190505050611ac9565b005b348015610aac57600080fd5b50610ab5611ad6565b6040518082815260200191505060405180910390f35b348015610ad757600080fd5b50610b0e60048036036040811015610aee57600080fd5b810190808035906020019092919080359060200190929190505050611af5565b005b348015610b1c57600080fd5b50610b7f60048036036040811015610b3357600080fd5b81019080803573ffffffffffffffffffffffffffffffffffffffff169060200190929190803573ffffffffffffffffffffffffffffffffffffffff169060200190929190505050611d03565b6040518082815260200191505060405180910390f35b348015610ba157600080fd5b50610c8560048036036060811015610bb857600080fd5b81019080803573ffffffffffffffffffffffffffffffffffffffff1690602001909291908035906020019092919080359060200190640100000000811115610bff57600080fd5b820183602082011115610c1157600080fd5b80359060200191846001830284011164010000000083111715610c3357600080fd5b91908080601f016020809104026020016040519081016040528093929190818152602001838380828437600081840152601f19601f820116905080830192505050505050509192919290505050611d8a565b005b348015610c9357600080fd5b50610cea60048036036060811015610caa57600080fd5b810190808035906020019092919080359060200190929190803573ffffffffffffffffffffffffffffffffffffffff169060200190929190505050611dfb565b005b6000806000837bffffffffffffffffffffffffffffffffffffffffffffffffffffffff19167bffffffffffffffffffffffffffffffffffffffffffffffffffffffff1916815260200190815260200160002060009054906101000a900460ff169050919050565b606060048054600181600116156101000203166002900480601f016020809104026020016040519081016040528092919081815260200182805460018160011615610100020316600290048015610deb5780601f10610dc057610100808354040283529160200191610deb565b820191906000526020600020905b815481529060010190602001808311610dce57829003601f168201915b5050505050905090565b6000610e023384846121a7565b6001905092915050565b600860009054906101000a900473ffffffffffffffffffffffffffffffffffffffff1681565b6000600354905090565b610e468282610f12565b5050565b6000610e5784848461239e565b610ef08433610eeb85600260008a73ffffffffffffffffffffffffffffffffffffffff1673ffffffffffffffffffffffffffffffffffffffff16815260200190815260200160002060003373ffffffffffffffffffffffffffffffffffffffff1673ffffffffffffffffffffffffffffffffffffffff1681526020019081526020016000205461263e90919063ffffffff16565b6121a7565b600190509392505050565b6000600660009054906101000a900460ff16905090565b6000610f1c611493565b90506000610f5434610f4e343073ffffffffffffffffffffffffffffffffffffffff163161263e90919063ffffffff16565b84612688565b905083811015610fcc576040517f08c379a000000000000000000000000000000000000000000000000000000000815260040180806020018281038252601a8152602001807f696e73756666696369656e74206f757470757420616d6f756e7400000000000081525060200191505060405180910390fd5b600660019054906101000a900473ffffffffffffffffffffffffffffffffffffffff1673ffffffffffffffffffffffffffffffffffffffff1663a9059cbb84836040518363ffffffff1660e01b8152600401808373ffffffffffffffffffffffffffffffffffffffff1673ffffffffffffffffffffffffffffffffffffffff16815260200182815260200192505050602060405180830381600087803b15801561107557600080fd5b505af1158015611089573d6000803e3d6000fd5b505050506040513d602081101561109f57600080fd5b81019080805190602001909291905050505050505050565b6110d1828260405180602001604052806000815250611d8a565b5050565b6110f0838383604051806020016040528060008152506119a9565b505050565b600080611100611493565b1415611254576000600660019054906101000a900473ffffffffffffffffffffffffffffffffffffffff1690508073ffffffffffffffffffffffffffffffffffffffff166323b872dd3330866040518463ffffffff1660e01b8152600401808473ffffffffffffffffffffffffffffffffffffffff1673ffffffffffffffffffffffffffffffffffffffff1681526020018373ffffffffffffffffffffffffffffffffffffffff1673ffffffffffffffffffffffffffffffffffffffff1681526020018281526020019350505050602060405180830381600087803b1580156111e857600080fd5b505af11580156111fc573d6000803e3d6000fd5b505050506040513d602081101561121257600080fd5b81019080805190602001909291905050505060003073ffffffffffffffffffffffffffffffffffffffff1631905061124a3382612783565b809250505061148e565b6000611280343073ffffffffffffffffffffffffffffffffffffffff163161263e90919063ffffffff16565b9050600061128c611493565b905060006112b5836112a7843461294090919063ffffffff16565b6129c690919063ffffffff16565b90508085101561132d576040517f08c379a00000000000000000000000000000000000000000000000000000000081526004018080602001828103825260198152602001807f696e73756666696369656e7420746f6b656e20616d6f756e740000000000000081525060200191505060405180910390fd5b6000600660019054906101000a900473ffffffffffffffffffffffffffffffffffffffff1690508073ffffffffffffffffffffffffffffffffffffffff166323b872dd3330856040518463ffffffff1660e01b8152600401808473ffffffffffffffffffffffffffffffffffffffff1673ffffffffffffffffffffffffffffffffffffffff1681526020018373ffffffffffffffffffffffffffffffffffffffff1673ffffffffffffffffffffffffffffffffffffffff1681526020018281526020019350505050602060405180830381600087803b15801561140f57600080fd5b505af1158015611423573d6000803e3d6000fd5b505050506040513d602081101561143957600080fd5b81019080805190602001909291905050505060006114798561146b3461145d610e32565b61294090919063ffffffff16565b6129c690919063ffffffff16565b90506114853382612783565b80955050505050505b919050565b6000600660019054906101000a900473ffffffffffffffffffffffffffffffffffffffff1673ffffffffffffffffffffffffffffffffffffffff166370a08231306040518263ffffffff1660e01b8152600401808273ffffffffffffffffffffffffffffffffffffffff1673ffffffffffffffffffffffffffffffffffffffff16815260200191505060206040518083038186803b15801561153457600080fd5b505afa158015611548573d6000803e3d6000fd5b505050506040513d602081101561155e57600080fd5b8101908080519060200190929190505050905090565b6000600160008373ffffffffffffffffffffffffffffffffffffffff1673ffffffffffffffffffffffffffffffffffffffff168152602001908152602001600020549050919050565b606060058054600181600116156101000203166002900480601f0160208091040260200160405190810160405280929190818152602001828054600181600116156101000203166002900480156116555780601f1061162a57610100808354040283529160200191611655565b820191906000526020600020905b81548152906001019060200180831161163857829003601f168201915b5050505050905090565b600760009054906101000a900473ffffffffffffffffffffffffffffffffffffffff1681565b600080600083116116fe576040517f08c379a000000000000000000000000000000000000000000000000000000000815260040180806020018281038252600e8152602001807f696e76616c696420616d6f756e7400000000000000000000000000000000000081525060200191505060405180910390fd5b600061174361170b610e32565b611735863073ffffffffffffffffffffffffffffffffffffffff163161294090919063ffffffff16565b6129c690919063ffffffff16565b9050600061177a611752610e32565b61176c8761175e611493565b61294090919063ffffffff16565b6129c690919063ffffffff16565b90506117863386612a10565b3373ffffffffffffffffffffffffffffffffffffffff166108fc839081150290604051600060405180830381858888f193505050501580156117cc573d6000803e3d6000fd5b50600660019054906101000a900473ffffffffffffffffffffffffffffffffffffffff1673ffffffffffffffffffffffffffffffffffffffff1663a9059cbb33836040518363ffffffff1660e01b8152600401808373ffffffffffffffffffffffffffffffffffffffff1673ffffffffffffffffffffffffffffffffffffffff16815260200182815260200192505050602060405180830381600087803b15801561187657600080fd5b505af115801561188a573d6000803e3d6000fd5b505050506040513d60208110156118a057600080fd5b8101908080519060200190929190505050508181935093505050915091565b600660019054906101000a900473ffffffffffffffffffffffffffffffffffffffff1681565b60006118f233848461239e565b6001905092915050565b6000808211611973576040517f08c379a00000000000000000000000000000000000000000000000000000000081526004018080602001828103825260168152602001807f746f6b656e536f6c6420697320746f6f20736d616c6c0000000000000000000081525060200191505060405180910390fd5b600061197d611493565b90506119a183823073ffffffffffffffffffffffffffffffffffffffff1631612688565b915050919050565b6119b4848484610e4a565b506119c184848484612bcd565b611a16576040517f08c379a000000000000000000000000000000000000000000000000000000000815260040180806020018281038252602e815260200180612ff9602e913960400191505060405180910390fd5b50505050565b6000808211611a93576040517f08c379a00000000000000000000000000000000000000000000000000000000081526004018080602001828103825260158152602001807f6b6c6179536f6c6420697320746f6f20736d616c6c000000000000000000000081525060200191505060405180910390fd5b6000611a9d611493565b9050611ac1833073ffffffffffffffffffffffffffffffffffffffff163183612688565b915050919050565b611ad38133610f12565b50565b60003073ffffffffffffffffffffffffffffffffffffffff1631905090565b6000611aff611493565b90506000611b2584833073ffffffffffffffffffffffffffffffffffffffff1631612688565b905082811015611b9d576040517f08c379a000000000000000000000000000000000000000000000000000000000815260040180806020018281038252601a8152602001807f696e73756666696369656e74206f757470757420616d6f756e7400000000000081525060200191505060405180910390fd5b600660019054906101000a900473ffffffffffffffffffffffffffffffffffffffff1673ffffffffffffffffffffffffffffffffffffffff166323b872dd3330876040518463ffffffff1660e01b8152600401808473ffffffffffffffffffffffffffffffffffffffff1673ffffffffffffffffffffffffffffffffffffffff1681526020018373ffffffffffffffffffffffffffffffffffffffff1673ffffffffffffffffffffffffffffffffffffffff1681526020018281526020019350505050602060405180830381600087803b158015611c7a57600080fd5b505af1158015611c8e573d6000803e3d6000fd5b505050506040513d6020811015611ca457600080fd5b8101908080519060200190929190505050503373ffffffffffffffffffffffffffffffffffffffff166108fc829081150290604051600060405180830381858888f19350505050158015611cfc573d6000803e3d6000fd5b5050505050565b6000600260008473ffffffffffffffffffffffffffffffffffffffff1673ffffffffffffffffffffffffffffffffffffffff16815260200190815260200160002060008373ffffffffffffffffffffffffffffffffffffffff1673ffffffffffffffffffffffffffffffffffffffff16815260200190815260200160002054905092915050565b611d9483836118e5565b50611da133848484612bcd565b611df6576040517f08c379a000000000000000000000000000000000000000000000000000000000815260040180806020018281038252602e815260200180612ff9602e913960400191505060405180910390fd5b505050565b6000600760009054906101000a900473ffffffffffffffffffffffffffffffffffffffff1673ffffffffffffffffffffffffffffffffffffffff166306f2bf62836040518263ffffffff1660e01b8152600401808273ffffffffffffffffffffffffffffffffffffffff1673ffffffffffffffffffffffffffffffffffffffff16815260200191505060206040518083038186803b158015611e9c57600080fd5b505afa158015611eb0573d6000803e3d6000fd5b505050506040513d6020811015611ec657600080fd5b810190808051906020019092919050505090503073ffffffffffffffffffffffffffffffffffffffff168173ffffffffffffffffffffffffffffffffffffffff1614158015611f425750600073ffffffffffffffffffffffffffffffffffffffff168173ffffffffffffffffffffffffffffffffffffffff1614155b611fb4576040517f08c379a00000000000000000000000000000000000000000000000000000000081526004018080602001828103825260188152602001807f696e76616c69642065786368616e67652061646472657373000000000000000081525060200191505060405180910390fd5b6000611fbe611493565b90506000611fe486833073ffffffffffffffffffffffffffffffffffffffff1631612688565b9050600660019054906101000a900473ffffffffffffffffffffffffffffffffffffffff1673ffffffffffffffffffffffffffffffffffffffff166323b872dd3330896040518463ffffffff1660e01b8152600401808473ffffffffffffffffffffffffffffffffffffffff1673ffffffffffffffffffffffffffffffffffffffff1681526020018373ffffffffffffffffffffffffffffffffffffffff1673ffffffffffffffffffffffffffffffffffffffff1681526020018281526020019350505050602060405180830381600087803b1580156120c357600080fd5b505af11580156120d7573d6000803e3d6000fd5b505050506040513d60208110156120ed57600080fd5b8101908080519060200190929190505050508273ffffffffffffffffffffffffffffffffffffffff16631d62f7b28287336040518463ffffffff1660e01b8152600401808381526020018273ffffffffffffffffffffffffffffffffffffffff1673ffffffffffffffffffffffffffffffffffffffff168152602001925050506000604051808303818588803b15801561218657600080fd5b505af115801561219a573d6000803e3d6000fd5b5050505050505050505050565b600073ffffffffffffffffffffffffffffffffffffffff168373ffffffffffffffffffffffffffffffffffffffff16141561222d576040517f08c379a000000000000000000000000000000000000000000000000000000000815260040180806020018281038252602381526020018061308e6023913960400191505060405180910390fd5b600073ffffffffffffffffffffffffffffffffffffffff168273ffffffffffffffffffffffffffffffffffffffff1614156122b3576040517f08c379a0000000000000000000000000000000000000000000000000000000008152600401808060200182810382526021815260200180612fd86021913960400191505060405180910390fd5b80600260008573ffffffffffffffffffffffffffffffffffffffff1673ffffffffffffffffffffffffffffffffffffffff16815260200190815260200160002060008473ffffffffffffffffffffffffffffffffffffffff1673ffffffffffffffffffffffffffffffffffffffff168152602001908152602001600020819055508173ffffffffffffffffffffffffffffffffffffffff168373ffffffffffffffffffffffffffffffffffffffff167f8c5be1e5ebec7d5bd14f71427d1e84f3dd0314c0f7b2291e5b200ac8c7c3b925836040518082815260200191505060405180910390a3505050565b600073ffffffffffffffffffffffffffffffffffffffff168373ffffffffffffffffffffffffffffffffffffffff161415612424576040517f08c379a00000000000000000000000000000000000000000000000000000000081526004018080602001828103825260248152602001806130496024913960400191505060405180910390fd5b600073ffffffffffffffffffffffffffffffffffffffff168273ffffffffffffffffffffffffffffffffffffffff1614156124aa576040517f08c379a00000000000000000000000000000000000000000000000000000000081526004018080602001828103825260228152602001806130276022913960400191505060405180910390fd5b6124fc81600160008673ffffffffffffffffffffffffffffffffffffffff1673ffffffffffffffffffffffffffffffffffffffff1681526020019081526020016000205461263e90919063ffffffff16565b600160008573ffffffffffffffffffffffffffffffffffffffff1673ffffffffffffffffffffffffffffffffffffffff1681526020019081526020016000208190555061259181600160008573ffffffffffffffffffffffffffffffffffffffff1673ffffffffffffffffffffffffffffffffffffffff16815260200190815260200160002054612db690919063ffffffff16565b600160008473ffffffffffffffffffffffffffffffffffffffff1673ffffffffffffffffffffffffffffffffffffffff168152602001908152602001600020819055508173ffffffffffffffffffffffffffffffffffffffff168373ffffffffffffffffffffffffffffffffffffffff167fddf252ad1be2c89b69c2b068fc378daa952ba7f163c4a11628f55a4df523b3ef836040518082815260200191505060405180910390a3505050565b600061268083836040518060400160405280601e81526020017f536166654d6174683a207375627472616374696f6e206f766572666c6f770000815250612e3e565b905092915050565b600080831180156126995750600082115b61270b576040517f08c379a00000000000000000000000000000000000000000000000000000000081526004018080602001828103825260108152602001807f696e76616c69642072657365727665730000000000000000000000000000000081525060200191505060405180910390fd5b600061272160638661294090919063ffffffff16565b90506000612738848361294090919063ffffffff16565b905060006127628361275460648961294090919063ffffffff16565b612db690919063ffffffff16565b905061277781836129c690919063ffffffff16565b93505050509392505050565b600073ffffffffffffffffffffffffffffffffffffffff168273ffffffffffffffffffffffffffffffffffffffff161415612826576040517f08c379a000000000000000000000000000000000000000000000000000000000815260040180806020018281038252601e8152602001807f4b4950373a206d696e7420746f20746865207a65726f2061646472657373000081525060200191505060405180910390fd5b61283b81600354612db690919063ffffffff16565b60038190555061289381600160008573ffffffffffffffffffffffffffffffffffffffff1673ffffffffffffffffffffffffffffffffffffffff16815260200190815260200160002054612db690919063ffffffff16565b600160008473ffffffffffffffffffffffffffffffffffffffff1673ffffffffffffffffffffffffffffffffffffffff168152602001908152602001600020819055508173ffffffffffffffffffffffffffffffffffffffff16600073ffffffffffffffffffffffffffffffffffffffff167fddf252ad1be2c89b69c2b068fc378daa952ba7f163c4a11628f55a4df523b3ef836040518082815260200191505060405180910390a35050565b60008083141561295357600090506129c0565b600082840290508284828161296457fe5b04146129bb576040517f08c379a000000000000000000000000000000000000000000000000000000000815260040180806020018281038252602181526020018061306d6021913960400191505060405180910390fd5b809150505b92915050565b6000612a0883836040518060400160405280601a81526020017f536166654d6174683a206469766973696f6e206279207a65726f000000000000815250612efe565b905092915050565b600073ffffffffffffffffffffffffffffffffffffffff168273ffffffffffffffffffffffffffffffffffffffff161415612ab3576040517f08c379a00000000000000000000000000000000000000000000000000000000081526004018080602001828103825260208152602001807f4b4950373a206275726e2066726f6d20746865207a65726f206164647265737381525060200191505060405180910390fd5b612ac88160035461263e90919063ffffffff16565b600381905550612b2081600160008573ffffffffffffffffffffffffffffffffffffffff1673ffffffffffffffffffffffffffffffffffffffff1681526020019081526020016000205461263e90919063ffffffff16565b600160008473ffffffffffffffffffffffffffffffffffffffff1673ffffffffffffffffffffffffffffffffffffffff16815260200190815260200160002081905550600073ffffffffffffffffffffffffffffffffffffffff168273ffffffffffffffffffffffffffffffffffffffff167fddf252ad1be2c89b69c2b068fc378daa952ba7f163c4a11628f55a4df523b3ef836040518082815260200191505060405180910390a35050565b6000612bee8473ffffffffffffffffffffffffffffffffffffffff16612fc4565b612bfb5760019050612dae565b60008473ffffffffffffffffffffffffffffffffffffffff16639d188c22338887876040518563ffffffff1660e01b8152600401808573ffffffffffffffffffffffffffffffffffffffff1673ffffffffffffffffffffffffffffffffffffffff1681526020018473ffffffffffffffffffffffffffffffffffffffff1673ffffffffffffffffffffffffffffffffffffffff16815260200183815260200180602001828103825283818151815260200191508051906020019080838360005b83811015612cd6578082015181840152602081019050612cbb565b50505050905090810190601f168015612d035780820380516001836020036101000a031916815260200191505b5095505050505050602060405180830381600087803b158015612d2557600080fd5b505af1158015612d39573d6000803e3d6000fd5b505050506040513d6020811015612d4f57600080fd5b81019080805190602001909291905050509050639d188c2260e01b7bffffffffffffffffffffffffffffffffffffffffffffffffffffffff1916817bffffffffffffffffffffffffffffffffffffffffffffffffffffffff1916149150505b949350505050565b600080828401905083811015612e34576040517f08c379a000000000000000000000000000000000000000000000000000000000815260040180806020018281038252601b8152602001807f536166654d6174683a206164646974696f6e206f766572666c6f77000000000081525060200191505060405180910390fd5b8091505092915050565b6000838311158290612eeb576040517f08c379a00000000000000000000000000000000000000000000000000000000081526004018080602001828103825283818151815260200191508051906020019080838360005b83811015612eb0578082015181840152602081019050612e95565b50505050905090810190601f168015612edd5780820380516001836020036101000a031916815260200191505b509250505060405180910390fd5b5060008385039050809150509392505050565b60008083118290612faa576040517f08c379a00000000000000000000000000000000000000000000000000000000081526004018080602001828103825283818151815260200191508051906020019080838360005b83811015612f6f578082015181840152602081019050612f54565b50505050905090810190601f168015612f9c5780820380516001836020036101000a031916815260200191505b509250505060405180910390fd5b506000838581612fb657fe5b049050809150509392505050565b600080823b90506000811191505091905056fe4b4950373a20617070726f766520746f20746865207a65726f20616464726573734b4950373a207472616e7366657220746f206e6f6e204b495037526563656976657220696d706c656d656e7465724b4950373a207472616e7366657220746f20746865207a65726f20616464726573734b4950373a207472616e736665722066726f6d20746865207a65726f2061646472657373536166654d6174683a206d756c7469706c69636174696f6e206f766572666c6f774b4950373a20617070726f76652066726f6d20746865207a65726f2061646472657373a165627a7a723058204ca6c2c285ba001ecb75d89d341ef175e96a93e6a8225fdaad0358a96c5731610029",
  "source": "// SPDX-License-Identifier: MIT\r\npragma solidity ^0.5.6;\r\n\r\nimport \"@klaytn/contracts/token/KIP7/KIP7.sol\";\r\nimport \"@klaytn/contracts/token/KIP7/IKIP7.sol\";\r\nimport \"@klaytn/contracts/token/KIP7/KIP7Metadata.sol\";\r\nimport \"@klaytn/contracts/math/SafeMath.sol\";\r\nimport \"./Token.sol\";\r\n\r\ninterface IExchange {\r\n    function klayToTokenSwap(uint256 _minTokens) external payable;\r\n\r\n    function klayToTokenTransfer(uint256 _minTokens, address _recipient)\r\n        external\r\n        payable;\r\n}\r\n\r\ninterface IFactory {\r\n    function getExchange(address _tokenAddress) external view returns (address);\r\n}\r\n\r\ncontract Exchange is KIP7, KIP7Metadata {\r\n\r\n    using SafeMath for uint256;\r\n\r\n    address public tokenAddress;\r\n    address public factoryAddress;   //   contract factory     \r\n    Token public uru;\r\n\r\n    // lock  \r\n    uint8 lockedPercentage = 95;\r\n    uint256 lockStartTime;\r\n    uint256 nextEpoch;\r\n    uint256 epochDuration;\r\n\r\n    constructor(address _token, Token _uru, uint256 _epochDuration) public KIP7Metadata(\"klay-uru-LP-token\", \"LP\", 18)  {\r\n        require(_token != address(0), \"invalid token address\");\r\n        tokenAddress = _token;\r\n        uru = _uru;\r\n        factoryAddress = msg.sender;  // factory address link\r\n\r\n        // lock \r\n        lockStartTime = block.timestamp;\r\n        nextEpoch = block.timestamp.add(_epochDuration);\r\n        epochDuration = _epochDuration;\r\n    }\r\n\r\n    function addLiquidity(uint256 _tokenAmount) public payable returns (uint256) {\r\n\r\n        if(getReserve() == 0) { //  token  \r\n\r\n            //     _tokenAmount   .\r\n            KIP7 token = KIP7(tokenAddress);\r\n            token.transferFrom(msg.sender, address(this), _tokenAmount);\r\n            \r\n            //   pool   liquidity   msg.sender\r\n            //  liquidity  _mint  LP  .\r\n            uint256 liquidity = address(this).balance;\r\n            _mint(msg.sender, liquidity); // LP  mint\r\n            \r\n            return liquidity;\r\n\r\n        } else { //  token    \r\n\r\n            //    _tokenAmount  \r\n            //     liquidity  \r\n            uint256 klayReserve = address(this).balance.sub(msg.value);\r\n            uint256 tokenReserve = getReserve();\r\n            uint256 tokenAmount = (msg.value.mul(tokenReserve)).div(klayReserve);\r\n\r\n            //            .\r\n            require(_tokenAmount >= tokenAmount, \"insufficient token amount\");\r\n\r\n            //  _tokenAmount      tokenAmount  \r\n            //  .\r\n            KIP7 token = KIP7(tokenAddress);\r\n            token.transferFrom(msg.sender, address(this), tokenAmount);\r\n\r\n            //   liquidity  LP  .\r\n            uint256 liquidity = (totalSupply().mul(msg.value)).div(klayReserve);\r\n            _mint(msg.sender, liquidity);\r\n\r\n            return liquidity;\r\n        }\r\n    }\r\n\r\n    function removeLiquidity(uint256 _amount) public returns (uint256, uint256) {\r\n        \r\n        require(_amount > 0, \"invalid amount\");\r\n\r\n        // klayAmount :   _amount     klay \r\n        uint256 klayAmount = (address(this).balance.mul(_amount)).div(totalSupply());\r\n        // tokenAmount :   _amount     token \r\n        uint256 tokenAmount = (getReserve().mul(_amount)).div(totalSupply());\r\n\r\n        //  _amount  burn\r\n        _burn(msg.sender, _amount);\r\n\r\n        // ------(   removeLiquidity ,   )\r\n\r\n        // msg.sender  klayAmount \r\n        msg.sender.transfer(klayAmount);\r\n\r\n        //  msg.sender   tokenAmount \r\n        KIP7(tokenAddress).transfer(msg.sender, tokenAmount);\r\n\r\n        return (klayAmount, tokenAmount);\r\n    }\r\n\r\n    function getKlay() public view returns (uint256 balance) {\r\n        balance =  address(this).balance;\r\n    }\r\n\r\n    function getReserve() public view returns (uint256 balance) {\r\n        balance =  KIP7(tokenAddress).balanceOf(address(this)); \r\n    }\r\n\r\n    function getTokenAmount(uint256 _klaySold) public view returns (uint256) { // klay        \r\n        require(_klaySold > 0, \"klaySold is too small\");\r\n\r\n        uint256 tokenReserve = getReserve();\r\n\r\n        return getAmount(_klaySold, address(this).balance, tokenReserve); //     (y)\r\n    }\r\n\r\n    function getKlayAmount(uint256 _tokenSold) public view returns (uint256) {\r\n        require(_tokenSold > 0, \"tokenSold is too small\");\r\n\r\n        uint256 tokenReserve = getReserve();\r\n\r\n        return getAmount(_tokenSold, tokenReserve, address(this).balance);\r\n    }\r\n\r\n    function klayToToken(uint256 _minTokens, address recipient) public payable { //         \r\n        uint256 tokenReserve = getReserve(); //   \r\n        uint256 tokensBought = getAmount(\r\n            msg.value, //  klay\r\n            address(this).balance.sub(msg.value), //  klay \r\n            tokenReserve //    \r\n        );\r\n\r\n        require(tokensBought >= _minTokens, \"insufficient output amount\"); //     \r\n\r\n        //  : Factory       msg.sender  \r\n        //       klayToTokenSwap  klayToToken, klayToTokenSwap  .\r\n        \r\n        //--  : msg.sender   ,    ' ' .\r\n        //              , '  ' .\r\n        //         https://jeiwan.net/posts/programming-defi-uniswap-3/\r\n\r\n        KIP7(tokenAddress).transfer(recipient, tokensBought);\r\n        // KIP7(tokenAddress).transfer(msg.sender, tokensBought); // tokenBought =     msg.sender  .\r\n    }\r\n    \r\n    function klayToTokenSwap(uint256 _minTokens) public payable {\r\n        klayToToken(_minTokens, msg.sender);\r\n    }\r\n\r\n    function klayToTokenTransfer(uint256 _minTokens, address _recipient)\r\n        public\r\n        payable\r\n    {\r\n        klayToToken(_minTokens, _recipient);\r\n    }\r\n\r\n    function tokenToKlaySwap(uint256 _tokensSold, uint256 _minklay) public {\r\n\r\n        uint256 tokenReserve = getReserve(); //    \r\n        uint256 klayBought = getAmount(\r\n            _tokensSold, //   \r\n            tokenReserve, //    \r\n            address(this).balance //   klay \r\n        );\r\n\r\n        require(klayBought >= _minklay, \"insufficient output amount\");\r\n\r\n        KIP7(tokenAddress).transferFrom(msg.sender, address(this), _tokensSold); // msg.sender     .\r\n        msg.sender.transfer(klayBought); // msg.sender klaybought    .\r\n    }\r\n\r\n    /*\r\n    * tokenToTokenSwap\r\n    * 1. Factory       .\r\n    * 2.  ,   sold         .\r\n    * 3.    .\r\n    */\r\n\r\n    function tokenToTokenSwap(uint256 _tokensSold, uint256 _minTokensBought, address _tokenAddress) \r\n    public {\r\n\r\n        // 1. Factory       .\r\n        address exchangeAddress = IFactory(factoryAddress).getExchange(_tokenAddress);\r\n        \r\n        //    \r\n        require(\r\n            exchangeAddress != address(this) && exchangeAddress != address(0),\r\n            \"invalid exchange address\"\r\n        );\r\n\r\n        uint256 tokenReserve = getReserve();    //  token \r\n        uint256 klayBought = getAmount(         // token   klay  (  )\r\n            _tokensSold,\r\n            tokenReserve,\r\n            address(this).balance               //  klay \r\n        );\r\n\r\n        // 2. msg.sender token sold   \r\n        // msg.sender : first exchange contract address\r\n        KIP7(tokenAddress).transferFrom(msg.sender, address(this), _tokensSold);\r\n\r\n        // 3.  klayBought   \r\n        // msg.sender : exchangeAddress\r\n        IExchange(exchangeAddress).klayToTokenTransfer.value(klayBought)(\r\n            _minTokensBought,\r\n            msg.sender\r\n        );\r\n    }\r\n\r\n    function getAmount( // x( )     y   \r\n        uint256 inputAmount,\r\n        uint256 inputReserve,\r\n        uint256 outputReserve \r\n    ) private pure returns (uint256) {\r\n        require(inputReserve > 0 && outputReserve > 0, \"invalid reserves\");\r\n\r\n        uint256 inputAmountWithFee = inputAmount.mul(99); //  .\r\n        uint256 numerator = inputAmountWithFee.mul(outputReserve);\r\n        uint256 denominator = (inputReserve.mul(100)).add(inputAmountWithFee);\r\n\r\n        return numerator.div(denominator);\r\n    }\r\n}\r\n",
  "sourcePath": "D:\\GitHub\\beb-03-DND\\contract\\contracts\\Exchange.sol",
  "compiler": {
    "name": "solc",
    "version": "0.5.6+commit.b259423e.Emscripten.clang"
  },
  "schemaVersion": "3.4.7",
  "updatedAt": "2022-05-31T01:50:18.871Z",
  "networkType": "ethereum",
  "devdoc": {
    "methods": {
      "allowance(address,address)": {
        "details": "See `IKIP7.allowance`."
      },
      "approve(address,uint256)": {
        "details": "See `IKIP7.approve`.     * Requirements:     * - `spender` cannot be the zero address."
      },
      "balanceOf(address)": {
        "details": "See `IKIP7.balanceOf`."
      },
      "decimals()": {
        "details": "Returns the number of decimals used to get its user representation. For example, if `decimals` equals `2`, a balance of `505` tokens should be displayed to a user as `5,05` (`505 / 10 ** 2`).     * Tokens usually opt for a value of 18, imitating the relationship between Ether and Wei.     * > Note that this information is only used for _display_ purposes: it in no way affects any of the arithmetic of the contract, including `IKIP7.balanceOf` and `IKIP7.transfer`."
      },
      "name()": {
        "details": "Returns the name of the token."
      },
      "safeTransfer(address,uint256)": {
        "details": "Moves `amount` tokens from the caller's account to `recipient`."
      },
      "safeTransfer(address,uint256,bytes)": {
        "details": "Moves `amount` tokens from the caller's account to `recipient`."
      },
      "safeTransferFrom(address,address,uint256)": {
        "details": "Moves `amount` tokens from `sender` to `recipient` using the allowance mechanism. `amount` is then deducted from the caller's allowance."
      },
      "safeTransferFrom(address,address,uint256,bytes)": {
        "details": "Moves `amount` tokens from `sender` to `recipient` using the allowance mechanism. `amount` is then deducted from the caller's allowance."
      },
      "supportsInterface(bytes4)": {
        "details": "See `IKIP13.supportsInterface`.     * Time complexity O(1), guaranteed to always use less than 30 000 gas."
      },
      "symbol()": {
        "details": "Returns the symbol of the token, usually a shorter version of the name."
      },
      "totalSupply()": {
        "details": "See `IKIP7.totalSupply`."
      },
      "transfer(address,uint256)": {
        "details": "See `IKIP7.transfer`.     * Requirements:     * - `recipient` cannot be the zero address. - the caller must have a balance of at least `amount`."
      },
      "transferFrom(address,address,uint256)": {
        "details": "See `IKIP7.transferFrom`.     * Emits an `Approval` event indicating the updated allowance. This is not required by the KIP. See the note at the beginning of `KIP7`;     * Requirements: - `sender` and `recipient` cannot be the zero address. - `sender` must have a balance of at least `value`. - the caller must have allowance for `sender`'s tokens of at least `amount`."
      }
    }
  },
  "userdoc": {
    "methods": {}
  }
}