{
  "contractName": "Exchange",
  "abi": [
    {
      "constant": true,
      "inputs": [],
      "name": "tokenAddress",
      "outputs": [
        {
          "name": "",
          "type": "address"
        }
      ],
      "payable": false,
      "stateMutability": "view",
      "type": "function"
    },
    {
      "inputs": [
        {
          "name": "_token",
          "type": "address"
        }
      ],
      "payable": false,
      "stateMutability": "nonpayable",
      "type": "constructor"
    },
    {
      "constant": false,
      "inputs": [
        {
          "name": "_tokenAmount",
          "type": "uint256"
        }
      ],
      "name": "addLiquidity",
      "outputs": [],
      "payable": true,
      "stateMutability": "payable",
      "type": "function"
    },
    {
      "constant": true,
      "inputs": [],
      "name": "getklay",
      "outputs": [
        {
          "name": "balance",
          "type": "uint256"
        }
      ],
      "payable": false,
      "stateMutability": "view",
      "type": "function"
    },
    {
      "constant": true,
      "inputs": [],
      "name": "getReserve",
      "outputs": [
        {
          "name": "balance",
          "type": "uint256"
        }
      ],
      "payable": false,
      "stateMutability": "view",
      "type": "function"
    },
    {
      "constant": true,
      "inputs": [
        {
          "name": "_klaySold",
          "type": "uint256"
        }
      ],
      "name": "getTokenAmount",
      "outputs": [
        {
          "name": "",
          "type": "uint256"
        }
      ],
      "payable": false,
      "stateMutability": "view",
      "type": "function"
    },
    {
      "constant": true,
      "inputs": [
        {
          "name": "_tokenSold",
          "type": "uint256"
        }
      ],
      "name": "getklayAmount",
      "outputs": [
        {
          "name": "",
          "type": "uint256"
        }
      ],
      "payable": false,
      "stateMutability": "view",
      "type": "function"
    },
    {
      "constant": false,
      "inputs": [
        {
          "name": "_minTokens",
          "type": "uint256"
        }
      ],
      "name": "klayToTokenSwap",
      "outputs": [],
      "payable": true,
      "stateMutability": "payable",
      "type": "function"
    },
    {
      "constant": false,
      "inputs": [
        {
          "name": "_tokensSold",
          "type": "uint256"
        },
        {
          "name": "_minklay",
          "type": "uint256"
        }
      ],
      "name": "tokenToklaySwap",
      "outputs": [],
      "payable": false,
      "stateMutability": "nonpayable",
      "type": "function"
    }
  ],
  "bytecode": "0x608060405234801561001057600080fd5b50604051602080610ba58339810180604052602081101561003057600080fd5b8101908080519060200190929190505050600073ffffffffffffffffffffffffffffffffffffffff168173ffffffffffffffffffffffffffffffffffffffff1614156100e4576040517f08c379a00000000000000000000000000000000000000000000000000000000081526004018080602001828103825260158152602001807f696e76616c696420746f6b656e2061646472657373000000000000000000000081525060200191505060405180910390fd5b806000806101000a81548173ffffffffffffffffffffffffffffffffffffffff021916908373ffffffffffffffffffffffffffffffffffffffff16021790555050610a71806101346000396000f3fe60806040526004361061007b5760003560e01c8063c2507ac11161004e578063c2507ac11461017f578063ccbf7b86146101ce578063d9941037146101fc578063f47f770a146102275761007b565b806351c6590a1461008057806359bf5d39146100ae5780639d76ea58146100d9578063c23c456414610130575b600080fd5b6100ac6004803603602081101561009657600080fd5b810190808035906020019092919050505061026c565b005b3480156100ba57600080fd5b506100c361038d565b6040518082815260200191505060405180910390f35b3480156100e557600080fd5b506100ee61046d565b604051808273ffffffffffffffffffffffffffffffffffffffff1673ffffffffffffffffffffffffffffffffffffffff16815260200191505060405180910390f35b34801561013c57600080fd5b506101696004803603602081101561015357600080fd5b8101908080359060200190929190505050610492565b6040518082815260200191505060405180910390f35b34801561018b57600080fd5b506101b8600480360360208110156101a257600080fd5b810190808035906020019092919050505061053f565b6040518082815260200191505060405180910390f35b6101fa600480360360208110156101e457600080fd5b81019080803590602001909291905050506105ec565b005b34801561020857600080fd5b5061021161077f565b6040518082815260200191505060405180910390f35b34801561023357600080fd5b5061026a6004803603604081101561024a57600080fd5b81019080803590602001909291908035906020019092919050505061079e565b005b60008060009054906101000a900473ffffffffffffffffffffffffffffffffffffffff1690508073ffffffffffffffffffffffffffffffffffffffff166323b872dd3330856040518463ffffffff1660e01b8152600401808473ffffffffffffffffffffffffffffffffffffffff1673ffffffffffffffffffffffffffffffffffffffff1681526020018373ffffffffffffffffffffffffffffffffffffffff1673ffffffffffffffffffffffffffffffffffffffff1681526020018281526020019350505050602060405180830381600087803b15801561034d57600080fd5b505af1158015610361573d6000803e3d6000fd5b505050506040513d602081101561037757600080fd5b8101908080519060200190929190505050505050565b60008060009054906101000a900473ffffffffffffffffffffffffffffffffffffffff1673ffffffffffffffffffffffffffffffffffffffff166370a08231306040518263ffffffff1660e01b8152600401808273ffffffffffffffffffffffffffffffffffffffff1673ffffffffffffffffffffffffffffffffffffffff16815260200191505060206040518083038186803b15801561042d57600080fd5b505afa158015610441573d6000803e3d6000fd5b505050506040513d602081101561045757600080fd5b8101908080519060200190929190505050905090565b6000809054906101000a900473ffffffffffffffffffffffffffffffffffffffff1681565b6000808211610509576040517f08c379a00000000000000000000000000000000000000000000000000000000081526004018080602001828103825260168152602001807f746f6b656e536f6c6420697320746f6f20736d616c6c0000000000000000000081525060200191505060405180910390fd5b600061051361038d565b905061053783823073ffffffffffffffffffffffffffffffffffffffff16316109ab565b915050919050565b60008082116105b6576040517f08c379a00000000000000000000000000000000000000000000000000000000081526004018080602001828103825260158152602001807f6b6c6179536f6c6420697320746f6f20736d616c6c000000000000000000000081525060200191505060405180910390fd5b60006105c061038d565b90506105e4833073ffffffffffffffffffffffffffffffffffffffff1631836109ab565b915050919050565b60006105f661038d565b9050600061061e34343073ffffffffffffffffffffffffffffffffffffffff163103846109ab565b905082811015610696576040517f08c379a000000000000000000000000000000000000000000000000000000000815260040180806020018281038252601a8152602001807f696e73756666696369656e74206f757470757420616d6f756e7400000000000081525060200191505060405180910390fd5b6000809054906101000a900473ffffffffffffffffffffffffffffffffffffffff1673ffffffffffffffffffffffffffffffffffffffff1663a9059cbb33836040518363ffffffff1660e01b8152600401808373ffffffffffffffffffffffffffffffffffffffff1673ffffffffffffffffffffffffffffffffffffffff16815260200182815260200192505050602060405180830381600087803b15801561073e57600080fd5b505af1158015610752573d6000803e3d6000fd5b505050506040513d602081101561076857600080fd5b810190808051906020019092919050505050505050565b60003073ffffffffffffffffffffffffffffffffffffffff1631905090565b60006107a861038d565b905060006107ce84833073ffffffffffffffffffffffffffffffffffffffff16316109ab565b905082811015610846576040517f08c379a000000000000000000000000000000000000000000000000000000000815260040180806020018281038252601a8152602001807f696e73756666696369656e74206f757470757420616d6f756e7400000000000081525060200191505060405180910390fd5b6000809054906101000a900473ffffffffffffffffffffffffffffffffffffffff1673ffffffffffffffffffffffffffffffffffffffff166323b872dd3330876040518463ffffffff1660e01b8152600401808473ffffffffffffffffffffffffffffffffffffffff1673ffffffffffffffffffffffffffffffffffffffff1681526020018373ffffffffffffffffffffffffffffffffffffffff1673ffffffffffffffffffffffffffffffffffffffff1681526020018281526020019350505050602060405180830381600087803b15801561092257600080fd5b505af1158015610936573d6000803e3d6000fd5b505050506040513d602081101561094c57600080fd5b8101908080519060200190929190505050503373ffffffffffffffffffffffffffffffffffffffff166108fc829081150290604051600060405180830381858888f193505050501580156109a4573d6000803e3d6000fd5b5050505050565b600080831180156109bc5750600082115b610a2e576040517f08c379a00000000000000000000000000000000000000000000000000000000081526004018080602001828103825260108152602001807f696e76616c69642072657365727665730000000000000000000000000000000081525060200191505060405180910390fd5b83830182850281610a3b57fe5b049050939250505056fea165627a7a72305820e4c2da36c63f9e831ee198dcdb67961e9279e3b6556dd7d9c469caffc3c1dbdd0029",
  "source": "// SPDX-License-Identifier: MIT\npragma solidity ^0.5.6;\n\nimport \"@klaytn/contracts/token/KIP7/KIP7.sol\";\nimport \"@klaytn/contracts/token/KIP7/IKIP7.sol\";\n\ncontract Exchange {\n  address public tokenAddress;\n\n  constructor(address _token) public {\n    require(_token != address(0), \"invalid token address\");\n    tokenAddress = _token;\n}\n\n    function addLiquidity(uint256 _tokenAmount) public payable {\n    KIP7 token = KIP7(tokenAddress);\n    token.transferFrom(msg.sender, address(this), _tokenAmount);\n}\n\n    function getklay() public view returns (uint256 balance) {\n    balance =  address(this).balance;\n}\n    function getReserve() public view returns (uint256 balance) {\n    balance =  KIP7(tokenAddress).balanceOf(address(this)); \n}\n\n    function getTokenAmount(uint256 _klaySold) public view returns (uint256) { // klay의 양을 받고 교환해 줄 토큰의 양을 출력하는 함수\n    require(_klaySold > 0, \"klaySold is too small\");\n\n    uint256 tokenReserve = getReserve();\n\n    return getAmount(_klaySold, address(this).balance, tokenReserve); // 교환해 줄 토큰의 양 (y)\n}\n\n    function getklayAmount(uint256 _tokenSold) public view returns (uint256) {\n    require(_tokenSold > 0, \"tokenSold is too small\");\n\n    uint256 tokenReserve = getReserve();\n\n    return getAmount(_tokenSold, tokenReserve, address(this).balance);\n}\n\n    function klayToTokenSwap(uint256 _minTokens) public payable {\n    uint256 tokenReserve = getReserve(); // 풀의 토큰 잔액\n    uint256 tokensBought = getAmount(\n    msg.value, // 입금한 klay\n    address(this).balance - msg.value, // 풀에있는 klay의 양\n    tokenReserve // 풀에 있는 토큰의 양\n  );\n\n    require(tokensBought >= _minTokens, \"insufficient output amount\"); // 교환해 줄 토큰이 모자라면 안된다!\n\n    KIP7(tokenAddress).transfer(msg.sender, tokensBought); // tokenBought = 교환해 줄 토큰의 양을 msg.sender에게 보내 준다.\n}\n\n    function tokenToklaySwap(uint256 _tokensSold, uint256 _minklay) public {\n\n    uint256 tokenReserve = getReserve(); // 풀에 있는 토큰의 양\n    uint256 klayBought = getAmount(\n    _tokensSold, // 입급한 토큰의 양\n    tokenReserve, // 풀에 있는 토큰의 양\n    address(this).balance // 풀에 있는 klay의 양\n  );\n\n    require(klayBought >= _minklay, \"insufficient output amount\");\n\n    KIP7(tokenAddress).transferFrom(msg.sender, address(this), _tokensSold); // msg.sender에게 컨트랙트 주소로 토큰을 보내게 한다.\n    msg.sender.transfer(klayBought); // msg.sender에게 klaybought 만큼의 클레이를 보내 준다.\n}\n\n    function getAmount( // x(지불할 토큰)의 양을 넣으면 교환해 줄 y의 양을 출력하는 함수\n    uint256 inputAmount,\n    uint256 inputReserve,\n    uint256 outputReserve\n) private pure returns (uint256) {\n    require(inputReserve > 0 && outputReserve > 0, \"invalid reserves\");\n\n    return (inputAmount * outputReserve) / (inputReserve + inputAmount);\n}\n\n}\n",
  "sourcePath": "/Users/baekdonghyun/Desktop/beb-03-DND/contract/contracts/Exchange.sol",
  "compiler": {
    "name": "solc",
    "version": "0.5.6+commit.b259423e.Emscripten.clang"
  },
  "schemaVersion": "3.4.5",
  "updatedAt": "2022-05-11T04:16:15.720Z",
  "networkType": "ethereum",
  "devdoc": {
    "methods": {}
  },
  "userdoc": {
    "methods": {}
  }
}