{
  "contractName": "Exchange",
  "abi": [
    {
      "constant": true,
      "inputs": [
        {
          "name": "interfaceId",
          "type": "bytes4"
        }
      ],
      "name": "supportsInterface",
      "outputs": [
        {
          "name": "",
          "type": "bool"
        }
      ],
      "payable": false,
      "stateMutability": "view",
      "type": "function"
    },
    {
      "constant": true,
      "inputs": [],
      "name": "name",
      "outputs": [
        {
          "name": "",
          "type": "string"
        }
      ],
      "payable": false,
      "stateMutability": "view",
      "type": "function"
    },
    {
      "constant": false,
      "inputs": [
        {
          "name": "spender",
          "type": "address"
        },
        {
          "name": "value",
          "type": "uint256"
        }
      ],
      "name": "approve",
      "outputs": [
        {
          "name": "",
          "type": "bool"
        }
      ],
      "payable": false,
      "stateMutability": "nonpayable",
      "type": "function"
    },
    {
      "constant": true,
      "inputs": [],
      "name": "uru",
      "outputs": [
        {
          "name": "",
          "type": "address"
        }
      ],
      "payable": false,
      "stateMutability": "view",
      "type": "function"
    },
    {
      "constant": true,
      "inputs": [],
      "name": "totalSupply",
      "outputs": [
        {
          "name": "",
          "type": "uint256"
        }
      ],
      "payable": false,
      "stateMutability": "view",
      "type": "function"
    },
    {
      "constant": false,
      "inputs": [
        {
          "name": "sender",
          "type": "address"
        },
        {
          "name": "recipient",
          "type": "address"
        },
        {
          "name": "amount",
          "type": "uint256"
        }
      ],
      "name": "transferFrom",
      "outputs": [
        {
          "name": "",
          "type": "bool"
        }
      ],
      "payable": false,
      "stateMutability": "nonpayable",
      "type": "function"
    },
    {
      "constant": true,
      "inputs": [
        {
          "name": "",
          "type": "address"
        }
      ],
      "name": "URUBalance",
      "outputs": [
        {
          "name": "",
          "type": "uint256"
        }
      ],
      "payable": false,
      "stateMutability": "view",
      "type": "function"
    },
    {
      "constant": true,
      "inputs": [],
      "name": "decimals",
      "outputs": [
        {
          "name": "",
          "type": "uint8"
        }
      ],
      "payable": false,
      "stateMutability": "view",
      "type": "function"
    },
    {
      "constant": false,
      "inputs": [
        {
          "name": "recipient",
          "type": "address"
        },
        {
          "name": "amount",
          "type": "uint256"
        }
      ],
      "name": "safeTransfer",
      "outputs": [],
      "payable": false,
      "stateMutability": "nonpayable",
      "type": "function"
    },
    {
      "constant": false,
      "inputs": [
        {
          "name": "sender",
          "type": "address"
        },
        {
          "name": "recipient",
          "type": "address"
        },
        {
          "name": "amount",
          "type": "uint256"
        }
      ],
      "name": "safeTransferFrom",
      "outputs": [],
      "payable": false,
      "stateMutability": "nonpayable",
      "type": "function"
    },
    {
      "constant": true,
      "inputs": [
        {
          "name": "",
          "type": "address"
        }
      ],
      "name": "stakingBalance",
      "outputs": [
        {
          "name": "",
          "type": "uint256"
        }
      ],
      "payable": false,
      "stateMutability": "view",
      "type": "function"
    },
    {
      "constant": true,
      "inputs": [
        {
          "name": "",
          "type": "address"
        }
      ],
      "name": "startTime",
      "outputs": [
        {
          "name": "",
          "type": "uint256"
        }
      ],
      "payable": false,
      "stateMutability": "view",
      "type": "function"
    },
    {
      "constant": true,
      "inputs": [
        {
          "name": "",
          "type": "address"
        }
      ],
      "name": "isStaking",
      "outputs": [
        {
          "name": "",
          "type": "bool"
        }
      ],
      "payable": false,
      "stateMutability": "view",
      "type": "function"
    },
    {
      "constant": true,
      "inputs": [
        {
          "name": "account",
          "type": "address"
        }
      ],
      "name": "balanceOf",
      "outputs": [
        {
          "name": "",
          "type": "uint256"
        }
      ],
      "payable": false,
      "stateMutability": "view",
      "type": "function"
    },
    {
      "constant": true,
      "inputs": [],
      "name": "symbol",
      "outputs": [
        {
          "name": "",
          "type": "string"
        }
      ],
      "payable": false,
      "stateMutability": "view",
      "type": "function"
    },
    {
      "constant": true,
      "inputs": [],
      "name": "factoryAddress",
      "outputs": [
        {
          "name": "",
          "type": "address"
        }
      ],
      "payable": false,
      "stateMutability": "view",
      "type": "function"
    },
    {
      "constant": true,
      "inputs": [],
      "name": "tokenAddress",
      "outputs": [
        {
          "name": "",
          "type": "address"
        }
      ],
      "payable": false,
      "stateMutability": "view",
      "type": "function"
    },
    {
      "constant": true,
      "inputs": [
        {
          "name": "",
          "type": "uint256"
        }
      ],
      "name": "userList",
      "outputs": [
        {
          "name": "",
          "type": "address"
        }
      ],
      "payable": false,
      "stateMutability": "view",
      "type": "function"
    },
    {
      "constant": false,
      "inputs": [
        {
          "name": "recipient",
          "type": "address"
        },
        {
          "name": "amount",
          "type": "uint256"
        }
      ],
      "name": "transfer",
      "outputs": [
        {
          "name": "",
          "type": "bool"
        }
      ],
      "payable": false,
      "stateMutability": "nonpayable",
      "type": "function"
    },
    {
      "constant": false,
      "inputs": [
        {
          "name": "sender",
          "type": "address"
        },
        {
          "name": "recipient",
          "type": "address"
        },
        {
          "name": "amount",
          "type": "uint256"
        },
        {
          "name": "data",
          "type": "bytes"
        }
      ],
      "name": "safeTransferFrom",
      "outputs": [],
      "payable": false,
      "stateMutability": "nonpayable",
      "type": "function"
    },
    {
      "constant": true,
      "inputs": [
        {
          "name": "owner",
          "type": "address"
        },
        {
          "name": "spender",
          "type": "address"
        }
      ],
      "name": "allowance",
      "outputs": [
        {
          "name": "",
          "type": "uint256"
        }
      ],
      "payable": false,
      "stateMutability": "view",
      "type": "function"
    },
    {
      "constant": false,
      "inputs": [
        {
          "name": "recipient",
          "type": "address"
        },
        {
          "name": "amount",
          "type": "uint256"
        },
        {
          "name": "data",
          "type": "bytes"
        }
      ],
      "name": "safeTransfer",
      "outputs": [],
      "payable": false,
      "stateMutability": "nonpayable",
      "type": "function"
    },
    {
      "inputs": [
        {
          "name": "_token",
          "type": "address"
        },
        {
          "name": "_uru",
          "type": "address"
        },
        {
          "name": "_epochDuration",
          "type": "uint256"
        }
      ],
      "payable": false,
      "stateMutability": "nonpayable",
      "type": "constructor"
    },
    {
      "anonymous": false,
      "inputs": [
        {
          "indexed": true,
          "name": "from",
          "type": "address"
        },
        {
          "indexed": false,
          "name": "amount",
          "type": "uint256"
        }
      ],
      "name": "Stake",
      "type": "event"
    },
    {
      "anonymous": false,
      "inputs": [
        {
          "indexed": true,
          "name": "from",
          "type": "address"
        },
        {
          "indexed": false,
          "name": "amount",
          "type": "uint256"
        }
      ],
      "name": "Unstake",
      "type": "event"
    },
    {
      "anonymous": false,
      "inputs": [
        {
          "indexed": true,
          "name": "to",
          "type": "address"
        },
        {
          "indexed": false,
          "name": "amount",
          "type": "uint256"
        }
      ],
      "name": "YieldWithdraw",
      "type": "event"
    },
    {
      "anonymous": false,
      "inputs": [
        {
          "indexed": true,
          "name": "from",
          "type": "address"
        },
        {
          "indexed": true,
          "name": "to",
          "type": "address"
        },
        {
          "indexed": false,
          "name": "value",
          "type": "uint256"
        }
      ],
      "name": "Transfer",
      "type": "event"
    },
    {
      "anonymous": false,
      "inputs": [
        {
          "indexed": true,
          "name": "owner",
          "type": "address"
        },
        {
          "indexed": true,
          "name": "spender",
          "type": "address"
        },
        {
          "indexed": false,
          "name": "value",
          "type": "uint256"
        }
      ],
      "name": "Approval",
      "type": "event"
    },
    {
      "constant": false,
      "inputs": [
        {
          "name": "_tokenAmount",
          "type": "uint256"
        }
      ],
      "name": "addLiquidity",
      "outputs": [
        {
          "name": "",
          "type": "uint256"
        }
      ],
      "payable": true,
      "stateMutability": "payable",
      "type": "function"
    },
    {
      "constant": false,
      "inputs": [
        {
          "name": "_amount",
          "type": "uint256"
        }
      ],
      "name": "removeLiquidity",
      "outputs": [
        {
          "name": "",
          "type": "uint256"
        },
        {
          "name": "",
          "type": "uint256"
        }
      ],
      "payable": false,
      "stateMutability": "nonpayable",
      "type": "function"
    },
    {
      "constant": true,
      "inputs": [],
      "name": "getKlay",
      "outputs": [
        {
          "name": "balance",
          "type": "uint256"
        }
      ],
      "payable": false,
      "stateMutability": "view",
      "type": "function"
    },
    {
      "constant": true,
      "inputs": [],
      "name": "getReserve",
      "outputs": [
        {
          "name": "balance",
          "type": "uint256"
        }
      ],
      "payable": false,
      "stateMutability": "view",
      "type": "function"
    },
    {
      "constant": true,
      "inputs": [
        {
          "name": "_klaySold",
          "type": "uint256"
        }
      ],
      "name": "getTokenAmount",
      "outputs": [
        {
          "name": "",
          "type": "uint256"
        }
      ],
      "payable": false,
      "stateMutability": "view",
      "type": "function"
    },
    {
      "constant": true,
      "inputs": [
        {
          "name": "_tokenSold",
          "type": "uint256"
        }
      ],
      "name": "getKlayAmount",
      "outputs": [
        {
          "name": "",
          "type": "uint256"
        }
      ],
      "payable": false,
      "stateMutability": "view",
      "type": "function"
    },
    {
      "constant": false,
      "inputs": [
        {
          "name": "_minTokens",
          "type": "uint256"
        },
        {
          "name": "recipient",
          "type": "address"
        }
      ],
      "name": "klayToToken",
      "outputs": [],
      "payable": true,
      "stateMutability": "payable",
      "type": "function"
    },
    {
      "constant": false,
      "inputs": [
        {
          "name": "_minTokens",
          "type": "uint256"
        }
      ],
      "name": "klayToTokenSwap",
      "outputs": [],
      "payable": true,
      "stateMutability": "payable",
      "type": "function"
    },
    {
      "constant": false,
      "inputs": [
        {
          "name": "_minTokens",
          "type": "uint256"
        },
        {
          "name": "_recipient",
          "type": "address"
        }
      ],
      "name": "klayToTokenTransfer",
      "outputs": [],
      "payable": true,
      "stateMutability": "payable",
      "type": "function"
    },
    {
      "constant": false,
      "inputs": [
        {
          "name": "_tokensSold",
          "type": "uint256"
        },
        {
          "name": "_minklay",
          "type": "uint256"
        }
      ],
      "name": "tokenToKlaySwap",
      "outputs": [],
      "payable": false,
      "stateMutability": "nonpayable",
      "type": "function"
    },
    {
      "constant": false,
      "inputs": [
        {
          "name": "_tokensSold",
          "type": "uint256"
        },
        {
          "name": "_minTokensBought",
          "type": "uint256"
        },
        {
          "name": "_tokenAddress",
          "type": "address"
        }
      ],
      "name": "tokenToTokenSwap",
      "outputs": [],
      "payable": false,
      "stateMutability": "nonpayable",
      "type": "function"
    },
    {
      "constant": false,
      "inputs": [
        {
          "name": "amount",
          "type": "uint256"
        }
      ],
      "name": "stake",
      "outputs": [],
      "payable": false,
      "stateMutability": "nonpayable",
      "type": "function"
    },
    {
      "constant": false,
      "inputs": [
        {
          "name": "amount",
          "type": "uint256"
        }
      ],
      "name": "unstake",
      "outputs": [],
      "payable": false,
      "stateMutability": "nonpayable",
      "type": "function"
    },
    {
      "constant": true,
      "inputs": [],
      "name": "getuserList",
      "outputs": [
        {
          "name": "",
          "type": "address[]"
        }
      ],
      "payable": false,
      "stateMutability": "view",
      "type": "function"
    },
    {
      "constant": true,
      "inputs": [
        {
          "name": "user",
          "type": "address"
        }
      ],
      "name": "calculateYieldTime",
      "outputs": [
        {
          "name": "",
          "type": "uint256"
        }
      ],
      "payable": false,
      "stateMutability": "view",
      "type": "function"
    },
    {
      "constant": true,
      "inputs": [
        {
          "name": "user",
          "type": "address"
        }
      ],
      "name": "calculateContribute",
      "outputs": [
        {
          "name": "",
          "type": "uint256"
        }
      ],
      "payable": false,
      "stateMutability": "view",
      "type": "function"
    },
    {
      "constant": true,
      "inputs": [
        {
          "name": "user",
          "type": "address"
        }
      ],
      "name": "calculateYieldTotal",
      "outputs": [
        {
          "name": "",
          "type": "uint256"
        }
      ],
      "payable": false,
      "stateMutability": "view",
      "type": "function"
    },
    {
      "constant": true,
      "inputs": [],
      "name": "countDown",
      "outputs": [
        {
          "name": "count",
          "type": "uint256"
        }
      ],
      "payable": false,
      "stateMutability": "view",
      "type": "function"
    },
    {
      "constant": true,
      "inputs": [],
      "name": "currentLockedPercentage",
      "outputs": [
        {
          "name": "",
          "type": "uint8"
        }
      ],
      "payable": false,
      "stateMutability": "view",
      "type": "function"
    },
    {
      "constant": false,
      "inputs": [],
      "name": "withdrawYield",
      "outputs": [],
      "payable": false,
      "stateMutability": "nonpayable",
      "type": "function"
    }
  ],
  "bytecode": "0x6080604052605f600860146101000a81548160ff021916908360ff1602179055503480156200002d57600080fd5b50604051606080620051ce833981018060405260608110156200004f57600080fd5b810190808051906020019092919080519060200190929190805190602001909291905050506040518060400160405280601181526020017f6b6c61792d7572752d4c502d746f6b656e0000000000000000000000000000008152506040518060400160405280600281526020017f4c500000000000000000000000000000000000000000000000000000000000008152506012620000fa6301ffc9a760e01b6200031860201b60201c565b62000112636578737160e01b6200031860201b60201c565b82600490805190602001906200012a929190620004aa565b50816005908051906020019062000143929190620004aa565b5080600660006101000a81548160ff021916908360ff1602179055506200017763a219a02560e01b6200031860201b60201c565b505050600073ffffffffffffffffffffffffffffffffffffffff168373ffffffffffffffffffffffffffffffffffffffff1614156200021e576040517f08c379a00000000000000000000000000000000000000000000000000000000081526004018080602001828103825260158152602001807f696e76616c696420746f6b656e2061646472657373000000000000000000000081525060200191505060405180910390fd5b82600660016101000a81548173ffffffffffffffffffffffffffffffffffffffff021916908373ffffffffffffffffffffffffffffffffffffffff16021790555081600860006101000a81548173ffffffffffffffffffffffffffffffffffffffff021916908373ffffffffffffffffffffffffffffffffffffffff16021790555033600760006101000a81548173ffffffffffffffffffffffffffffffffffffffff021916908373ffffffffffffffffffffffffffffffffffffffff160217905550426009819055506200030281426200042160201b620042511790919060201c565b600a8190555080600b8190555050505062000559565b63ffffffff60e01b817bffffffffffffffffffffffffffffffffffffffffffffffffffffffff19161415620003b5576040517f08c379a000000000000000000000000000000000000000000000000000000000815260040180806020018281038252601b8152602001807f4b495031333a20696e76616c696420696e74657266616365206964000000000081525060200191505060405180910390fd5b6001600080837bffffffffffffffffffffffffffffffffffffffffffffffffffffffff19167bffffffffffffffffffffffffffffffffffffffffffffffffffffffff1916815260200190815260200160002060006101000a81548160ff02191690831515021790555050565b600080828401905083811015620004a0576040517f08c379a000000000000000000000000000000000000000000000000000000000815260040180806020018281038252601b8152602001807f536166654d6174683a206164646974696f6e206f766572666c6f77000000000081525060200191505060405180910390fd5b8091505092915050565b828054600181600116156101000203166002900490600052602060002090601f016020900481019282601f10620004ed57805160ff19168380011785556200051e565b828001600101855582156200051e579182015b828111156200051d57825182559160200191906001019062000500565b5b5090506200052d919062000531565b5090565b6200055691905b808211156200055257600081600090555060010162000538565b5090565b90565b614c6580620005696000396000f3fe6080604052600436106102515760003560e01c80636f49712b11610139578063a9059cbb116100b6578063d655d9a31161007a578063d655d9a314610fba578063d949817514610fe5578063dd62ed3e1461102a578063e507a8a4146110af578063eb795549146110c6578063f7a7e324146111b857610251565b8063a9059cbb14610d69578063b7dc49d414610ddc578063b88d4fde14610e2b578063c2507ac114610f3d578063ccbf7b8614610f8c57610251565b8063980d6116116100fd578063980d611614610ba15780639c8f9f2314610c065780639d76ea5814610c5c5780639f4216e814610cb3578063a694fc3a14610d2e57610251565b80636f49712b1461098057806370a08231146109e95780638794efd914610a4e57806395d89b4114610aba578063966dae0e14610b4a57610251565b80632e17de78116101d257806342842e0e1161019657806342842e0e146107a357806345bc78ab1461081e57806351c6590a1461088357806359bf5d39146108c55780635fcbd5b6146108f05780636e1dc66e1461091b57610251565b80632e17de781461062957806330bd2bdf14610664578063313ce567146106c957806331481c63146106fa578063423f6cef1461074857610251565b80630a4ceb8f116102195780630a4ceb8f14610495578063103c07dc146104c657806318160ddd1461051d5780631d62f7b21461054857806323b872dd1461059657610251565b806301b7bd751461025657806301ffc9a7146102bb578063068726611461032d57806306fdde0314610392578063095ea7b314610422575b600080fd5b34801561026257600080fd5b506102a56004803603602081101561027957600080fd5b81019080803573ffffffffffffffffffffffffffffffffffffffff16906020019092919050505061121d565b6040518082815260200191505060405180910390f35b3480156102c757600080fd5b50610313600480360360208110156102de57600080fd5b8101908080357bffffffffffffffffffffffffffffffffffffffffffffffffffffffff19169060200190929190505050611347565b604051808215151515815260200191505060405180910390f35b34801561033957600080fd5b5061037c6004803603602081101561035057600080fd5b81019080803573ffffffffffffffffffffffffffffffffffffffff1690602001909291905050506113ae565b6040518082815260200191505060405180910390f35b34801561039e57600080fd5b506103a76113fe565b6040518080602001828103825283818151815260200191508051906020019080838360005b838110156103e75780820151818401526020810190506103cc565b50505050905090810190601f1680156104145780820380516001836020036101000a031916815260200191505b509250505060405180910390f35b34801561042e57600080fd5b5061047b6004803603604081101561044557600080fd5b81019080803573ffffffffffffffffffffffffffffffffffffffff169060200190929190803590602001909291905050506114a0565b604051808215151515815260200191505060405180910390f35b3480156104a157600080fd5b506104aa6114b7565b604051808260ff1660ff16815260200191505060405180910390f35b3480156104d257600080fd5b506104db6114ce565b604051808273ffffffffffffffffffffffffffffffffffffffff1673ffffffffffffffffffffffffffffffffffffffff16815260200191505060405180910390f35b34801561052957600080fd5b506105326114f4565b6040518082815260200191505060405180910390f35b6105946004803603604081101561055e57600080fd5b8101908080359060200190929190803573ffffffffffffffffffffffffffffffffffffffff1690602001909291905050506114fe565b005b3480156105a257600080fd5b5061060f600480360360608110156105b957600080fd5b81019080803573ffffffffffffffffffffffffffffffffffffffff169060200190929190803573ffffffffffffffffffffffffffffffffffffffff1690602001909291908035906020019092919050505061150c565b604051808215151515815260200191505060405180910390f35b34801561063557600080fd5b506106626004803603602081101561064c57600080fd5b81019080803590602001909291905050506115bd565b005b34801561067057600080fd5b506106b36004803603602081101561068757600080fd5b81019080803573ffffffffffffffffffffffffffffffffffffffff169060200190929190505050611bf0565b6040518082815260200191505060405180910390f35b3480156106d557600080fd5b506106de611c08565b604051808260ff1660ff16815260200191505060405180910390f35b6107466004803603604081101561071057600080fd5b8101908080359060200190929190803573ffffffffffffffffffffffffffffffffffffffff169060200190929190505050611c1f565b005b34801561075457600080fd5b506107a16004803603604081101561076b57600080fd5b81019080803573ffffffffffffffffffffffffffffffffffffffff16906020019092919080359060200190929190505050611dc4565b005b3480156107af57600080fd5b5061081c600480360360608110156107c657600080fd5b81019080803573ffffffffffffffffffffffffffffffffffffffff169060200190929190803573ffffffffffffffffffffffffffffffffffffffff16906020019092919080359060200190929190505050611de2565b005b34801561082a57600080fd5b5061086d6004803603602081101561084157600080fd5b81019080803573ffffffffffffffffffffffffffffffffffffffff169060200190929190505050611e02565b6040518082815260200191505060405180910390f35b6108af6004803603602081101561089957600080fd5b8101908080359060200190929190505050611e1a565b6040518082815260200191505060405180910390f35b3480156108d157600080fd5b506108da6121b8565b6040518082815260200191505060405180910390f35b3480156108fc57600080fd5b50610905612299565b6040518082815260200191505060405180910390f35b34801561092757600080fd5b5061096a6004803603602081101561093e57600080fd5b81019080803573ffffffffffffffffffffffffffffffffffffffff1690602001909291905050506122b5565b6040518082815260200191505060405180910390f35b34801561098c57600080fd5b506109cf600480360360208110156109a357600080fd5b81019080803573ffffffffffffffffffffffffffffffffffffffff1690602001909291905050506122cd565b604051808215151515815260200191505060405180910390f35b3480156109f557600080fd5b50610a3860048036036020811015610a0c57600080fd5b81019080803573ffffffffffffffffffffffffffffffffffffffff1690602001909291905050506122ed565b6040518082815260200191505060405180910390f35b348015610a5a57600080fd5b50610a63612336565b6040518080602001828103825283818151815260200191508051906020019060200280838360005b83811015610aa6578082015181840152602081019050610a8b565b505050509050019250505060405180910390f35b348015610ac657600080fd5b50610acf6123c4565b6040518080602001828103825283818151815260200191508051906020019080838360005b83811015610b0f578082015181840152602081019050610af4565b50505050905090810190601f168015610b3c5780820380516001836020036101000a031916815260200191505b509250505060405180910390f35b348015610b5657600080fd5b50610b5f612466565b604051808273ffffffffffffffffffffffffffffffffffffffff1673ffffffffffffffffffffffffffffffffffffffff16815260200191505060405180910390f35b348015610bad57600080fd5b50610bf060048036036020811015610bc457600080fd5b81019080803573ffffffffffffffffffffffffffffffffffffffff16906020019092919050505061248c565b6040518082815260200191505060405180910390f35b348015610c1257600080fd5b50610c3f60048036036020811015610c2957600080fd5b81019080803590602001909291905050506124f2565b604051808381526020018281526020019250505060405180910390f35b348015610c6857600080fd5b50610c7161272c565b604051808273ffffffffffffffffffffffffffffffffffffffff1673ffffffffffffffffffffffffffffffffffffffff16815260200191505060405180910390f35b348015610cbf57600080fd5b50610cec60048036036020811015610cd657600080fd5b8101908080359060200190929190505050612752565b604051808273ffffffffffffffffffffffffffffffffffffffff1673ffffffffffffffffffffffffffffffffffffffff16815260200191505060405180910390f35b348015610d3a57600080fd5b50610d6760048036036020811015610d5157600080fd5b810190808035906020019092919050505061278e565b005b348015610d7557600080fd5b50610dc260048036036040811015610d8c57600080fd5b81019080803573ffffffffffffffffffffffffffffffffffffffff16906020019092919080359060200190929190505050612edb565b604051808215151515815260200191505060405180910390f35b348015610de857600080fd5b50610e1560048036036020811015610dff57600080fd5b8101908080359060200190929190505050612ef2565b6040518082815260200191505060405180910390f35b348015610e3757600080fd5b50610f3b60048036036080811015610e4e57600080fd5b81019080803573ffffffffffffffffffffffffffffffffffffffff169060200190929190803573ffffffffffffffffffffffffffffffffffffffff1690602001909291908035906020019092919080359060200190640100000000811115610eb557600080fd5b820183602082011115610ec757600080fd5b80359060200191846001830284011164010000000083111715610ee957600080fd5b91908080601f016020809104026020016040519081016040528093929190818152602001838380828437600081840152601f19601f820116905080830192505050505050509192919290505050612f9f565b005b348015610f4957600080fd5b50610f7660048036036020811015610f6057600080fd5b8101908080359060200190929190505050613012565b6040518082815260200191505060405180910390f35b610fb860048036036020811015610fa257600080fd5b81019080803590602001909291905050506130bf565b005b348015610fc657600080fd5b50610fcf6130cc565b6040518082815260200191505060405180910390f35b348015610ff157600080fd5b506110286004803603604081101561100857600080fd5b8101908080359060200190929190803590602001909291905050506130eb565b005b34801561103657600080fd5b506110996004803603604081101561104d57600080fd5b81019080803573ffffffffffffffffffffffffffffffffffffffff169060200190929190803573ffffffffffffffffffffffffffffffffffffffff1690602001909291905050506132f9565b6040518082815260200191505060405180910390f35b3480156110bb57600080fd5b506110c4613380565b005b3480156110d257600080fd5b506111b6600480360360608110156110e957600080fd5b81019080803573ffffffffffffffffffffffffffffffffffffffff169060200190929190803590602001909291908035906020019064010000000081111561113057600080fd5b82018360208201111561114257600080fd5b8035906020019184600183028401116401000000008311171561116457600080fd5b91908080601f016020809104026020016040519081016040528093929190818152602001838380828437600081840152601f19601f820116905080830192505050505050509192919290505050613883565b005b3480156111c457600080fd5b5061121b600480360360608110156111db57600080fd5b810190808035906020019092919080359060200190929190803573ffffffffffffffffffffffffffffffffffffffff1690602001909291905050506138f4565b005b60008061133c3073ffffffffffffffffffffffffffffffffffffffff166370a08231306040518263ffffffff1660e01b8152600401808273ffffffffffffffffffffffffffffffffffffffff1673ffffffffffffffffffffffffffffffffffffffff16815260200191505060206040518083038186803b1580156112a057600080fd5b505afa1580156112b4573d6000803e3d6000fd5b505050506040513d60208110156112ca57600080fd5b810190808051906020019092919050505061132e6064600d60008873ffffffffffffffffffffffffffffffffffffffff1673ffffffffffffffffffffffffffffffffffffffff16815260200190815260200160002054613ca090919063ffffffff16565b613d2690919063ffffffff16565b905080915050919050565b6000806000837bffffffffffffffffffffffffffffffffffffffffffffffffffffffff19167bffffffffffffffffffffffffffffffffffffffffffffffffffffffff1916815260200190815260200160002060009054906101000a900460ff169050919050565b6000806113ba8361248c565b905060006113c78461121d565b905060006113f160196113e38486613ca090919063ffffffff16565b613ca090919063ffffffff16565b9050809350505050919050565b606060048054600181600116156101000203166002900480601f0160208091040260200160405190810160405280929190818152602001828054600181600116156101000203166002900480156114965780601f1061146b57610100808354040283529160200191611496565b820191906000526020600020905b81548152906001019060200180831161147957829003601f168201915b5050505050905090565b60006114ad338484613d70565b6001905092915050565b6000600860149054906101000a900460ff16905090565b600860009054906101000a900473ffffffffffffffffffffffffffffffffffffffff1681565b6000600354905090565b6115088282611c1f565b5050565b6000611519848484613f67565b6115b284336115ad85600260008a73ffffffffffffffffffffffffffffffffffffffff1673ffffffffffffffffffffffffffffffffffffffff16815260200190815260200160002060003373ffffffffffffffffffffffffffffffffffffffff1673ffffffffffffffffffffffffffffffffffffffff1681526020019081526020016000205461420790919063ffffffff16565b613d70565b600190509392505050565b6001801561160a575080600d60003373ffffffffffffffffffffffffffffffffffffffff1673ffffffffffffffffffffffffffffffffffffffff1681526020019081526020016000205410155b600e60003373ffffffffffffffffffffffffffffffffffffffff1673ffffffffffffffffffffffffffffffffffffffff16815260200190815260200160002060006101000a81548160ff02191690831515021790556116d1576040517f08c379a000000000000000000000000000000000000000000000000000000000815260040180806020018281038252601c8152602001807fec9888ecb998eb9f89ebb3b4eb8ba420eba78eec8ab5eb8b88eb8ba40000000081525060200191505060405180910390fd5b60006116dc336113ae565b905042600f60003373ffffffffffffffffffffffffffffffffffffffff1673ffffffffffffffffffffffffffffffffffffffff1681526020019081526020016000208190555060008290506000925061177d81600d60003373ffffffffffffffffffffffffffffffffffffffff1673ffffffffffffffffffffffffffffffffffffffff1681526020019081526020016000205461420790919063ffffffff16565b600d60003373ffffffffffffffffffffffffffffffffffffffff1673ffffffffffffffffffffffffffffffffffffffff168152602001908152602001600020819055503073ffffffffffffffffffffffffffffffffffffffff1663a9059cbb33836040518363ffffffff1660e01b8152600401808373ffffffffffffffffffffffffffffffffffffffff1673ffffffffffffffffffffffffffffffffffffffff16815260200182815260200192505050602060405180830381600087803b15801561184757600080fd5b505af115801561185b573d6000803e3d6000fd5b505050506040513d602081101561187157600080fd5b8101908080519060200190929190505050506118d582601060003373ffffffffffffffffffffffffffffffffffffffff1673ffffffffffffffffffffffffffffffffffffffff1681526020019081526020016000205461425190919063ffffffff16565b601060003373ffffffffffffffffffffffffffffffffffffffff1673ffffffffffffffffffffffffffffffffffffffff168152602001908152602001600020819055506000600d60003373ffffffffffffffffffffffffffffffffffffffff1673ffffffffffffffffffffffffffffffffffffffff1681526020019081526020016000205414156119b9576000600e60003373ffffffffffffffffffffffffffffffffffffffff1673ffffffffffffffffffffffffffffffffffffffff16815260200190815260200160002060006101000a81548160ff0219169083151502179055505b3373ffffffffffffffffffffffffffffffffffffffff167f85082129d87b2fe11527cb1b3b7a520aeb5aa6913f88a3d8757fe40d1db02fdd826040518082815260200191505060405180910390a260008090505b600c80549050811015611bea576000611a5c600c8381548110611a2c57fe5b9060005260206000200160009054906101000a900473ffffffffffffffffffffffffffffffffffffffff166113ae565b9050611ae78160106000600c8681548110611a7357fe5b9060005260206000200160009054906101000a900473ffffffffffffffffffffffffffffffffffffffff1673ffffffffffffffffffffffffffffffffffffffff1673ffffffffffffffffffffffffffffffffffffffff1681526020019081526020016000205461425190919063ffffffff16565b60106000600c8581548110611af857fe5b9060005260206000200160009054906101000a900473ffffffffffffffffffffffffffffffffffffffff1673ffffffffffffffffffffffffffffffffffffffff1673ffffffffffffffffffffffffffffffffffffffff1681526020019081526020016000208190555042600f6000600c8581548110611b7357fe5b9060005260206000200160009054906101000a900473ffffffffffffffffffffffffffffffffffffffff1673ffffffffffffffffffffffffffffffffffffffff1673ffffffffffffffffffffffffffffffffffffffff16815260200190815260200160002081905550508080600101915050611a0d565b50505050565b60106020528060005260406000206000915090505481565b6000600660009054906101000a900460ff16905090565b6000611c296121b8565b90506000611c6134611c5b343073ffffffffffffffffffffffffffffffffffffffff163161420790919063ffffffff16565b846142d9565b905083811015611cd9576040517f08c379a000000000000000000000000000000000000000000000000000000000815260040180806020018281038252601a8152602001807f696e73756666696369656e74206f757470757420616d6f756e7400000000000081525060200191505060405180910390fd5b600660019054906101000a900473ffffffffffffffffffffffffffffffffffffffff1673ffffffffffffffffffffffffffffffffffffffff1663a9059cbb84836040518363ffffffff1660e01b8152600401808373ffffffffffffffffffffffffffffffffffffffff1673ffffffffffffffffffffffffffffffffffffffff16815260200182815260200192505050602060405180830381600087803b158015611d8257600080fd5b505af1158015611d96573d6000803e3d6000fd5b505050506040513d6020811015611dac57600080fd5b81019080805190602001909291905050505050505050565b611dde828260405180602001604052806000815250613883565b5050565b611dfd83838360405180602001604052806000815250612f9f565b505050565b600d6020528060005260406000206000915090505481565b600080611e256121b8565b1415611f79576000600660019054906101000a900473ffffffffffffffffffffffffffffffffffffffff1690508073ffffffffffffffffffffffffffffffffffffffff166323b872dd3330866040518463ffffffff1660e01b8152600401808473ffffffffffffffffffffffffffffffffffffffff1673ffffffffffffffffffffffffffffffffffffffff1681526020018373ffffffffffffffffffffffffffffffffffffffff1673ffffffffffffffffffffffffffffffffffffffff1681526020018281526020019350505050602060405180830381600087803b158015611f0d57600080fd5b505af1158015611f21573d6000803e3d6000fd5b505050506040513d6020811015611f3757600080fd5b81019080805190602001909291905050505060003073ffffffffffffffffffffffffffffffffffffffff16319050611f6f33826143d4565b80925050506121b3565b6000611fa5343073ffffffffffffffffffffffffffffffffffffffff163161420790919063ffffffff16565b90506000611fb16121b8565b90506000611fda83611fcc8434613ca090919063ffffffff16565b613d2690919063ffffffff16565b905080851015612052576040517f08c379a00000000000000000000000000000000000000000000000000000000081526004018080602001828103825260198152602001807f696e73756666696369656e7420746f6b656e20616d6f756e740000000000000081525060200191505060405180910390fd5b6000600660019054906101000a900473ffffffffffffffffffffffffffffffffffffffff1690508073ffffffffffffffffffffffffffffffffffffffff166323b872dd3330856040518463ffffffff1660e01b8152600401808473ffffffffffffffffffffffffffffffffffffffff1673ffffffffffffffffffffffffffffffffffffffff1681526020018373ffffffffffffffffffffffffffffffffffffffff1673ffffffffffffffffffffffffffffffffffffffff1681526020018281526020019350505050602060405180830381600087803b15801561213457600080fd5b505af1158015612148573d6000803e3d6000fd5b505050506040513d602081101561215e57600080fd5b810190808051906020019092919050505050600061219e85612190346121826114f4565b613ca090919063ffffffff16565b613d2690919063ffffffff16565b90506121aa33826143d4565b80955050505050505b919050565b6000600660019054906101000a900473ffffffffffffffffffffffffffffffffffffffff1673ffffffffffffffffffffffffffffffffffffffff166370a08231306040518263ffffffff1660e01b8152600401808273ffffffffffffffffffffffffffffffffffffffff1673ffffffffffffffffffffffffffffffffffffffff16815260200191505060206040518083038186803b15801561225957600080fd5b505afa15801561226d573d6000803e3d6000fd5b505050506040513d602081101561228357600080fd5b8101908080519060200190929190505050905090565b60006122b042600a5461420790919063ffffffff16565b905090565b600f6020528060005260406000206000915090505481565b600e6020528060005260406000206000915054906101000a900460ff1681565b6000600160008373ffffffffffffffffffffffffffffffffffffffff1673ffffffffffffffffffffffffffffffffffffffff168152602001908152602001600020549050919050565b6060600c8054806020026020016040519081016040528092919081815260200182805480156123ba57602002820191906000526020600020905b8160009054906101000a900473ffffffffffffffffffffffffffffffffffffffff1673ffffffffffffffffffffffffffffffffffffffff1681526020019060010190808311612370575b5050505050905090565b606060058054600181600116156101000203166002900480601f01602080910402602001604051908101604052809291908181526020018280546001816001161561010002031660029004801561245c5780601f106124315761010080835404028352916020019161245c565b820191906000526020600020905b81548152906001019060200180831161243f57829003601f168201915b5050505050905090565b600760009054906101000a900473ffffffffffffffffffffffffffffffffffffffff1681565b60008042905060006124e6600f60008673ffffffffffffffffffffffffffffffffffffffff1673ffffffffffffffffffffffffffffffffffffffff168152602001908152602001600020548361420790919063ffffffff16565b90508092505050919050565b6000806000831161256b576040517f08c379a000000000000000000000000000000000000000000000000000000000815260040180806020018281038252600e8152602001807f696e76616c696420616d6f756e7400000000000000000000000000000000000081525060200191505060405180910390fd5b60006125b06125786114f4565b6125a2863073ffffffffffffffffffffffffffffffffffffffff1631613ca090919063ffffffff16565b613d2690919063ffffffff16565b905060006125e76125bf6114f4565b6125d9876125cb6121b8565b613ca090919063ffffffff16565b613d2690919063ffffffff16565b90506125f33386614591565b3373ffffffffffffffffffffffffffffffffffffffff166108fc839081150290604051600060405180830381858888f19350505050158015612639573d6000803e3d6000fd5b50600660019054906101000a900473ffffffffffffffffffffffffffffffffffffffff1673ffffffffffffffffffffffffffffffffffffffff1663a9059cbb33836040518363ffffffff1660e01b8152600401808373ffffffffffffffffffffffffffffffffffffffff1673ffffffffffffffffffffffffffffffffffffffff16815260200182815260200192505050602060405180830381600087803b1580156126e357600080fd5b505af11580156126f7573d6000803e3d6000fd5b505050506040513d602081101561270d57600080fd5b8101908080519060200190929190505050508181935093505050915091565b600660019054906101000a900473ffffffffffffffffffffffffffffffffffffffff1681565b600c818154811061275f57fe5b906000526020600020016000915054906101000a900473ffffffffffffffffffffffffffffffffffffffff1681565b6000811180156128555750803073ffffffffffffffffffffffffffffffffffffffff166370a08231336040518263ffffffff1660e01b8152600401808273ffffffffffffffffffffffffffffffffffffffff1673ffffffffffffffffffffffffffffffffffffffff16815260200191505060206040518083038186803b15801561281757600080fd5b505afa15801561282b573d6000803e3d6000fd5b505050506040513d602081101561284157600080fd5b810190808051906020019092919050505010155b6128c7576040517f08c379a00000000000000000000000000000000000000000000000000000000081526004018080602001828103825260198152602001807fed86a0ed81b0ec9db420ebb680eca1b1ed95a9eb8b88eb8ba40000000000000081525060200191505060405180910390fd5b60001515600e60003373ffffffffffffffffffffffffffffffffffffffff1673ffffffffffffffffffffffffffffffffffffffff16815260200190815260200160002060009054906101000a900460ff161515141561298757600c3390806001815401808255809150509060018203906000526020600020016000909192909190916101000a81548173ffffffffffffffffffffffffffffffffffffffff021916908373ffffffffffffffffffffffffffffffffffffffff160217905550505b60011515600e60003373ffffffffffffffffffffffffffffffffffffffff1673ffffffffffffffffffffffffffffffffffffffff16815260200190815260200160002060009054906101000a900460ff1615151415612a7e57612a3a6129ec336113ae565b601060003373ffffffffffffffffffffffffffffffffffffffff1673ffffffffffffffffffffffffffffffffffffffff1681526020019081526020016000205461425190919063ffffffff16565b601060003373ffffffffffffffffffffffffffffffffffffffff1673ffffffffffffffffffffffffffffffffffffffff168152602001908152602001600020819055505b612ad081600d60003373ffffffffffffffffffffffffffffffffffffffff1673ffffffffffffffffffffffffffffffffffffffff1681526020019081526020016000205461425190919063ffffffff16565b600d60003373ffffffffffffffffffffffffffffffffffffffff1673ffffffffffffffffffffffffffffffffffffffff168152602001908152602001600020819055503073ffffffffffffffffffffffffffffffffffffffff166323b872dd3330846040518463ffffffff1660e01b8152600401808473ffffffffffffffffffffffffffffffffffffffff1673ffffffffffffffffffffffffffffffffffffffff1681526020018373ffffffffffffffffffffffffffffffffffffffff1673ffffffffffffffffffffffffffffffffffffffff1681526020018281526020019350505050602060405180830381600087803b158015612bce57600080fd5b505af1158015612be2573d6000803e3d6000fd5b505050506040513d6020811015612bf857600080fd5b81019080805190602001909291905050505042600f60003373ffffffffffffffffffffffffffffffffffffffff1673ffffffffffffffffffffffffffffffffffffffff168152602001908152602001600020819055506001600e60003373ffffffffffffffffffffffffffffffffffffffff1673ffffffffffffffffffffffffffffffffffffffff16815260200190815260200160002060006101000a81548160ff0219169083151502179055503373ffffffffffffffffffffffffffffffffffffffff167febedb8b3c678666e7f36970bc8f57abf6d8fa2e828c0da91ea5b75bf68ed101a826040518082815260200191505060405180910390a260008090505b600c80549050811015612ed7576000612d49600c8381548110612d1957fe5b9060005260206000200160009054906101000a900473ffffffffffffffffffffffffffffffffffffffff166113ae565b9050612dd48160106000600c8681548110612d6057fe5b9060005260206000200160009054906101000a900473ffffffffffffffffffffffffffffffffffffffff1673ffffffffffffffffffffffffffffffffffffffff1673ffffffffffffffffffffffffffffffffffffffff1681526020019081526020016000205461425190919063ffffffff16565b60106000600c8581548110612de557fe5b9060005260206000200160009054906101000a900473ffffffffffffffffffffffffffffffffffffffff1673ffffffffffffffffffffffffffffffffffffffff1673ffffffffffffffffffffffffffffffffffffffff1681526020019081526020016000208190555042600f6000600c8581548110612e6057fe5b9060005260206000200160009054906101000a900473ffffffffffffffffffffffffffffffffffffffff1673ffffffffffffffffffffffffffffffffffffffff1673ffffffffffffffffffffffffffffffffffffffff16815260200190815260200160002081905550508080600101915050612cfa565b5050565b6000612ee8338484613f67565b6001905092915050565b6000808211612f69576040517f08c379a00000000000000000000000000000000000000000000000000000000081526004018080602001828103825260168152602001807f746f6b656e536f6c6420697320746f6f20736d616c6c0000000000000000000081525060200191505060405180910390fd5b6000612f736121b8565b9050612f9783823073ffffffffffffffffffffffffffffffffffffffff16316142d9565b915050919050565b612faa84848461150c565b50612fb78484848461474e565b61300c576040517f08c379a000000000000000000000000000000000000000000000000000000000815260040180806020018281038252602e815260200180614b82602e913960400191505060405180910390fd5b50505050565b6000808211613089576040517f08c379a00000000000000000000000000000000000000000000000000000000081526004018080602001828103825260158152602001807f6b6c6179536f6c6420697320746f6f20736d616c6c000000000000000000000081525060200191505060405180910390fd5b60006130936121b8565b90506130b7833073ffffffffffffffffffffffffffffffffffffffff1631836142d9565b915050919050565b6130c98133611c1f565b50565b60003073ffffffffffffffffffffffffffffffffffffffff1631905090565b60006130f56121b8565b9050600061311b84833073ffffffffffffffffffffffffffffffffffffffff16316142d9565b905082811015613193576040517f08c379a000000000000000000000000000000000000000000000000000000000815260040180806020018281038252601a8152602001807f696e73756666696369656e74206f757470757420616d6f756e7400000000000081525060200191505060405180910390fd5b600660019054906101000a900473ffffffffffffffffffffffffffffffffffffffff1673ffffffffffffffffffffffffffffffffffffffff166323b872dd3330876040518463ffffffff1660e01b8152600401808473ffffffffffffffffffffffffffffffffffffffff1673ffffffffffffffffffffffffffffffffffffffff1681526020018373ffffffffffffffffffffffffffffffffffffffff1673ffffffffffffffffffffffffffffffffffffffff1681526020018281526020019350505050602060405180830381600087803b15801561327057600080fd5b505af1158015613284573d6000803e3d6000fd5b505050506040513d602081101561329a57600080fd5b8101908080519060200190929190505050503373ffffffffffffffffffffffffffffffffffffffff166108fc829081150290604051600060405180830381858888f193505050501580156132f2573d6000803e3d6000fd5b5050505050565b6000600260008473ffffffffffffffffffffffffffffffffffffffff1673ffffffffffffffffffffffffffffffffffffffff16815260200190815260200160002060008373ffffffffffffffffffffffffffffffffffffffff1673ffffffffffffffffffffffffffffffffffffffff16815260200190815260200160002054905092915050565b600061338b336113ae565b905060008111806133db57506000601060003373ffffffffffffffffffffffffffffffffffffffff1673ffffffffffffffffffffffffffffffffffffffff16815260200190815260200160002054115b61344d576040517f08c379a00000000000000000000000000000000000000000000000000000000081526004018080602001828103825260138152602001807f4e6f7468696e6720746f2077697468647261770000000000000000000000000081525060200191505060405180910390fd5b6000601060003373ffffffffffffffffffffffffffffffffffffffff1673ffffffffffffffffffffffffffffffffffffffff1681526020019081526020016000205414613534576000601060003373ffffffffffffffffffffffffffffffffffffffff1673ffffffffffffffffffffffffffffffffffffffff1681526020019081526020016000205490506000601060003373ffffffffffffffffffffffffffffffffffffffff1673ffffffffffffffffffffffffffffffffffffffff16815260200190815260200160002081905550613530818361425190919063ffffffff16565b9150505b42600f60003373ffffffffffffffffffffffffffffffffffffffff1673ffffffffffffffffffffffffffffffffffffffff168152602001908152602001600020819055506000600860149054906101000a900460ff1660ff16146137705761359a614937565b60006135d460646135c6600860149054906101000a900460ff1660ff1685613ca090919063ffffffff16565b613d2690919063ffffffff16565b9050600860009054906101000a900473ffffffffffffffffffffffffffffffffffffffff1673ffffffffffffffffffffffffffffffffffffffff166340c10f1933613628848661420790919063ffffffff16565b6040518363ffffffff1660e01b8152600401808373ffffffffffffffffffffffffffffffffffffffff1673ffffffffffffffffffffffffffffffffffffffff16815260200182815260200192505050600060405180830381600087803b15801561369157600080fd5b505af11580156136a5573d6000803e3d6000fd5b50505050600860009054906101000a900473ffffffffffffffffffffffffffffffffffffffff1673ffffffffffffffffffffffffffffffffffffffff1663282d3fdf33836040518363ffffffff1660e01b8152600401808373ffffffffffffffffffffffffffffffffffffffff1673ffffffffffffffffffffffffffffffffffffffff16815260200182815260200192505050600060405180830381600087803b15801561375257600080fd5b505af1158015613766573d6000803e3d6000fd5b5050505050613832565b600860009054906101000a900473ffffffffffffffffffffffffffffffffffffffff1673ffffffffffffffffffffffffffffffffffffffff166340c10f1933836040518363ffffffff1660e01b8152600401808373ffffffffffffffffffffffffffffffffffffffff1673ffffffffffffffffffffffffffffffffffffffff16815260200182815260200192505050600060405180830381600087803b15801561381957600080fd5b505af115801561382d573d6000803e3d6000fd5b505050505b3373ffffffffffffffffffffffffffffffffffffffff167f92044e3943309ee5950e21bc7421d02c1df75f0df33c0d97c1143687b49a4c57826040518082815260200191505060405180910390a250565b61388d8383612edb565b5061389a3384848461474e565b6138ef576040517f08c379a000000000000000000000000000000000000000000000000000000000815260040180806020018281038252602e815260200180614b82602e913960400191505060405180910390fd5b505050565b6000600760009054906101000a900473ffffffffffffffffffffffffffffffffffffffff1673ffffffffffffffffffffffffffffffffffffffff166306f2bf62836040518263ffffffff1660e01b8152600401808273ffffffffffffffffffffffffffffffffffffffff1673ffffffffffffffffffffffffffffffffffffffff16815260200191505060206040518083038186803b15801561399557600080fd5b505afa1580156139a9573d6000803e3d6000fd5b505050506040513d60208110156139bf57600080fd5b810190808051906020019092919050505090503073ffffffffffffffffffffffffffffffffffffffff168173ffffffffffffffffffffffffffffffffffffffff1614158015613a3b5750600073ffffffffffffffffffffffffffffffffffffffff168173ffffffffffffffffffffffffffffffffffffffff1614155b613aad576040517f08c379a00000000000000000000000000000000000000000000000000000000081526004018080602001828103825260188152602001807f696e76616c69642065786368616e67652061646472657373000000000000000081525060200191505060405180910390fd5b6000613ab76121b8565b90506000613add86833073ffffffffffffffffffffffffffffffffffffffff16316142d9565b9050600660019054906101000a900473ffffffffffffffffffffffffffffffffffffffff1673ffffffffffffffffffffffffffffffffffffffff166323b872dd3330896040518463ffffffff1660e01b8152600401808473ffffffffffffffffffffffffffffffffffffffff1673ffffffffffffffffffffffffffffffffffffffff1681526020018373ffffffffffffffffffffffffffffffffffffffff1673ffffffffffffffffffffffffffffffffffffffff1681526020018281526020019350505050602060405180830381600087803b158015613bbc57600080fd5b505af1158015613bd0573d6000803e3d6000fd5b505050506040513d6020811015613be657600080fd5b8101908080519060200190929190505050508273ffffffffffffffffffffffffffffffffffffffff16631d62f7b28287336040518463ffffffff1660e01b8152600401808381526020018273ffffffffffffffffffffffffffffffffffffffff1673ffffffffffffffffffffffffffffffffffffffff168152602001925050506000604051808303818588803b158015613c7f57600080fd5b505af1158015613c93573d6000803e3d6000fd5b5050505050505050505050565b600080831415613cb35760009050613d20565b6000828402905082848281613cc457fe5b0414613d1b576040517f08c379a0000000000000000000000000000000000000000000000000000000008152600401808060200182810382526021815260200180614bf66021913960400191505060405180910390fd5b809150505b92915050565b6000613d6883836040518060400160405280601a81526020017f536166654d6174683a206469766973696f6e206279207a65726f0000000000008152506149c7565b905092915050565b600073ffffffffffffffffffffffffffffffffffffffff168373ffffffffffffffffffffffffffffffffffffffff161415613df6576040517f08c379a0000000000000000000000000000000000000000000000000000000008152600401808060200182810382526023815260200180614c176023913960400191505060405180910390fd5b600073ffffffffffffffffffffffffffffffffffffffff168273ffffffffffffffffffffffffffffffffffffffff161415613e7c576040517f08c379a0000000000000000000000000000000000000000000000000000000008152600401808060200182810382526021815260200180614b616021913960400191505060405180910390fd5b80600260008573ffffffffffffffffffffffffffffffffffffffff1673ffffffffffffffffffffffffffffffffffffffff16815260200190815260200160002060008473ffffffffffffffffffffffffffffffffffffffff1673ffffffffffffffffffffffffffffffffffffffff168152602001908152602001600020819055508173ffffffffffffffffffffffffffffffffffffffff168373ffffffffffffffffffffffffffffffffffffffff167f8c5be1e5ebec7d5bd14f71427d1e84f3dd0314c0f7b2291e5b200ac8c7c3b925836040518082815260200191505060405180910390a3505050565b600073ffffffffffffffffffffffffffffffffffffffff168373ffffffffffffffffffffffffffffffffffffffff161415613fed576040517f08c379a0000000000000000000000000000000000000000000000000000000008152600401808060200182810382526024815260200180614bd26024913960400191505060405180910390fd5b600073ffffffffffffffffffffffffffffffffffffffff168273ffffffffffffffffffffffffffffffffffffffff161415614073576040517f08c379a0000000000000000000000000000000000000000000000000000000008152600401808060200182810382526022815260200180614bb06022913960400191505060405180910390fd5b6140c581600160008673ffffffffffffffffffffffffffffffffffffffff1673ffffffffffffffffffffffffffffffffffffffff1681526020019081526020016000205461420790919063ffffffff16565b600160008573ffffffffffffffffffffffffffffffffffffffff1673ffffffffffffffffffffffffffffffffffffffff1681526020019081526020016000208190555061415a81600160008573ffffffffffffffffffffffffffffffffffffffff1673ffffffffffffffffffffffffffffffffffffffff1681526020019081526020016000205461425190919063ffffffff16565b600160008473ffffffffffffffffffffffffffffffffffffffff1673ffffffffffffffffffffffffffffffffffffffff168152602001908152602001600020819055508173ffffffffffffffffffffffffffffffffffffffff168373ffffffffffffffffffffffffffffffffffffffff167fddf252ad1be2c89b69c2b068fc378daa952ba7f163c4a11628f55a4df523b3ef836040518082815260200191505060405180910390a3505050565b600061424983836040518060400160405280601e81526020017f536166654d6174683a207375627472616374696f6e206f766572666c6f770000815250614a8d565b905092915050565b6000808284019050838110156142cf576040517f08c379a000000000000000000000000000000000000000000000000000000000815260040180806020018281038252601b8152602001807f536166654d6174683a206164646974696f6e206f766572666c6f77000000000081525060200191505060405180910390fd5b8091505092915050565b600080831180156142ea5750600082115b61435c576040517f08c379a00000000000000000000000000000000000000000000000000000000081526004018080602001828103825260108152602001807f696e76616c69642072657365727665730000000000000000000000000000000081525060200191505060405180910390fd5b6000614372606386613ca090919063ffffffff16565b905060006143898483613ca090919063ffffffff16565b905060006143b3836143a5606489613ca090919063ffffffff16565b61425190919063ffffffff16565b90506143c88183613d2690919063ffffffff16565b93505050509392505050565b600073ffffffffffffffffffffffffffffffffffffffff168273ffffffffffffffffffffffffffffffffffffffff161415614477576040517f08c379a000000000000000000000000000000000000000000000000000000000815260040180806020018281038252601e8152602001807f4b4950373a206d696e7420746f20746865207a65726f2061646472657373000081525060200191505060405180910390fd5b61448c8160035461425190919063ffffffff16565b6003819055506144e481600160008573ffffffffffffffffffffffffffffffffffffffff1673ffffffffffffffffffffffffffffffffffffffff1681526020019081526020016000205461425190919063ffffffff16565b600160008473ffffffffffffffffffffffffffffffffffffffff1673ffffffffffffffffffffffffffffffffffffffff168152602001908152602001600020819055508173ffffffffffffffffffffffffffffffffffffffff16600073ffffffffffffffffffffffffffffffffffffffff167fddf252ad1be2c89b69c2b068fc378daa952ba7f163c4a11628f55a4df523b3ef836040518082815260200191505060405180910390a35050565b600073ffffffffffffffffffffffffffffffffffffffff168273ffffffffffffffffffffffffffffffffffffffff161415614634576040517f08c379a00000000000000000000000000000000000000000000000000000000081526004018080602001828103825260208152602001807f4b4950373a206275726e2066726f6d20746865207a65726f206164647265737381525060200191505060405180910390fd5b6146498160035461420790919063ffffffff16565b6003819055506146a181600160008573ffffffffffffffffffffffffffffffffffffffff1673ffffffffffffffffffffffffffffffffffffffff1681526020019081526020016000205461420790919063ffffffff16565b600160008473ffffffffffffffffffffffffffffffffffffffff1673ffffffffffffffffffffffffffffffffffffffff16815260200190815260200160002081905550600073ffffffffffffffffffffffffffffffffffffffff168273ffffffffffffffffffffffffffffffffffffffff167fddf252ad1be2c89b69c2b068fc378daa952ba7f163c4a11628f55a4df523b3ef836040518082815260200191505060405180910390a35050565b600061476f8473ffffffffffffffffffffffffffffffffffffffff16614b4d565b61477c576001905061492f565b60008473ffffffffffffffffffffffffffffffffffffffff16639d188c22338887876040518563ffffffff1660e01b8152600401808573ffffffffffffffffffffffffffffffffffffffff1673ffffffffffffffffffffffffffffffffffffffff1681526020018473ffffffffffffffffffffffffffffffffffffffff1673ffffffffffffffffffffffffffffffffffffffff16815260200183815260200180602001828103825283818151815260200191508051906020019080838360005b8381101561485757808201518184015260208101905061483c565b50505050905090810190601f1680156148845780820380516001836020036101000a031916815260200191505b5095505050505050602060405180830381600087803b1580156148a657600080fd5b505af11580156148ba573d6000803e3d6000fd5b505050506040513d60208110156148d057600080fd5b81019080805190602001909291905050509050639d188c2260e01b7bffffffffffffffffffffffffffffffffffffffffffffffffffffffff1916817bffffffffffffffffffffffffffffffffffffffffffffffffffffffff1916149150505b949350505050565b5b600a5442106149c5576014600860149054906101000a900460ff1660ff1610614986576149816014600860149054906101000a900460ff1660ff1661420790919063ffffffff16565b614989565b60005b600860146101000a81548160ff021916908360ff1602179055506149ba600b54600a5461425190919063ffffffff16565b600a81905550614938565b565b60008083118290614a73576040517f08c379a00000000000000000000000000000000000000000000000000000000081526004018080602001828103825283818151815260200191508051906020019080838360005b83811015614a38578082015181840152602081019050614a1d565b50505050905090810190601f168015614a655780820380516001836020036101000a031916815260200191505b509250505060405180910390fd5b506000838581614a7f57fe5b049050809150509392505050565b6000838311158290614b3a576040517f08c379a00000000000000000000000000000000000000000000000000000000081526004018080602001828103825283818151815260200191508051906020019080838360005b83811015614aff578082015181840152602081019050614ae4565b50505050905090810190601f168015614b2c5780820380516001836020036101000a031916815260200191505b509250505060405180910390fd5b5060008385039050809150509392505050565b600080823b90506000811191505091905056fe4b4950373a20617070726f766520746f20746865207a65726f20616464726573734b4950373a207472616e7366657220746f206e6f6e204b495037526563656976657220696d706c656d656e7465724b4950373a207472616e7366657220746f20746865207a65726f20616464726573734b4950373a207472616e736665722066726f6d20746865207a65726f2061646472657373536166654d6174683a206d756c7469706c69636174696f6e206f766572666c6f774b4950373a20617070726f76652066726f6d20746865207a65726f2061646472657373a165627a7a7230582069663975a712c0a834759a5fe7a62c464e984dd7a96ca49924b7e4f033d160600029",
  "source": "// SPDX-License-Identifier: MIT\npragma solidity ^0.5.6;\n\nimport \"@klaytn/contracts/token/KIP7/KIP7.sol\";\nimport \"@klaytn/contracts/token/KIP7/IKIP7.sol\";\nimport \"@klaytn/contracts/token/KIP7/KIP7Metadata.sol\";\nimport \"@klaytn/contracts/math/SafeMath.sol\";\nimport \"./Token.sol\";\n\ninterface IExchange {\n    function klayToTokenSwap(uint256 _minTokens) external payable;\n\n    function klayToTokenTransfer(uint256 _minTokens, address _recipient)\n        external\n        payable;\n}\n\ninterface IFactory {\n    function getExchange(address _tokenAddress) external view returns (address);\n}\n\ncontract Exchange is KIP7, KIP7Metadata {\n\n    using SafeMath for uint256;\n\n    address public tokenAddress;\n    address public factoryAddress;   //   contract factory     \n    Token public uru;\n\n    // lock  \n    uint8 lockedPercentage = 95;\n    uint256 lockStartTime;\n    uint256 nextEpoch;\n    uint256 epochDuration;\n\n    constructor(address _token, Token _uru, uint256 _epochDuration) public KIP7Metadata(\"klay-uru-LP-token\", \"LP\", 18)  {\n        require(_token != address(0), \"invalid token address\");\n        tokenAddress = _token;\n        uru = _uru;\n        factoryAddress = msg.sender;  // factory address link\n\n        // lock \n        lockStartTime = block.timestamp;\n        nextEpoch = block.timestamp.add(_epochDuration);\n        epochDuration = _epochDuration;\n    }\n\n    function addLiquidity(uint256 _tokenAmount) public payable returns (uint256) {\n\n        if(getReserve() == 0) { //  token  \n\n            //     _tokenAmount   .\n            KIP7 token = KIP7(tokenAddress);\n            token.transferFrom(msg.sender, address(this), _tokenAmount);\n            \n            //   pool   liquidity   msg.sender\n            //  liquidity  _mint  LP  .\n            uint256 liquidity = address(this).balance;\n            _mint(msg.sender, liquidity); // LP  mint\n            \n            return liquidity;\n\n        } else { //  token    \n\n            //    _tokenAmount  \n            //     liquidity  \n            uint256 klayReserve = address(this).balance.sub(msg.value);\n            uint256 tokenReserve = getReserve();\n            uint256 tokenAmount = (msg.value.mul(tokenReserve)).div(klayReserve);\n\n            //            .\n            require(_tokenAmount >= tokenAmount, \"insufficient token amount\");\n\n            //  _tokenAmount      tokenAmount  \n            //  .\n            KIP7 token = KIP7(tokenAddress);\n            token.transferFrom(msg.sender, address(this), tokenAmount);\n\n            //   liquidity  LP  .\n            uint256 liquidity = (totalSupply().mul(msg.value)).div(klayReserve);\n            _mint(msg.sender, liquidity);\n\n            return liquidity;\n        }\n    }\n\n    function removeLiquidity(uint256 _amount) public returns (uint256, uint256) {\n        \n        require(_amount > 0, \"invalid amount\");\n\n        // klayAmount :   _amount     klay \n        uint256 klayAmount = (address(this).balance.mul(_amount)).div(totalSupply());\n        // tokenAmount :   _amount     token \n        uint256 tokenAmount = (getReserve().mul(_amount)).div(totalSupply());\n\n        //  _amount  burn\n        _burn(msg.sender, _amount);\n\n        // ------(   removeLiquidity ,   )\n\n        // msg.sender  klayAmount \n        msg.sender.transfer(klayAmount);\n\n        //  msg.sender   tokenAmount \n        KIP7(tokenAddress).transfer(msg.sender, tokenAmount);\n\n        return (klayAmount, tokenAmount);\n    }\n\n    function getKlay() public view returns (uint256 balance) {\n        balance =  address(this).balance;\n    }\n\n    function getReserve() public view returns (uint256 balance) {\n        balance =  KIP7(tokenAddress).balanceOf(address(this)); \n    }\n\n    function getTokenAmount(uint256 _klaySold) public view returns (uint256) { // klay        \n        require(_klaySold > 0, \"klaySold is too small\");\n\n        uint256 tokenReserve = getReserve();\n\n        return getAmount(_klaySold, address(this).balance, tokenReserve); //     (y)\n    }\n\n    function getKlayAmount(uint256 _tokenSold) public view returns (uint256) {\n        require(_tokenSold > 0, \"tokenSold is too small\");\n\n        uint256 tokenReserve = getReserve();\n\n        return getAmount(_tokenSold, tokenReserve, address(this).balance);\n    }\n\n    function klayToToken(uint256 _minTokens, address recipient) public payable { //         \n        uint256 tokenReserve = getReserve(); //   \n        uint256 tokensBought = getAmount(\n            msg.value, //  klay\n            address(this).balance.sub(msg.value), //  klay \n            tokenReserve //    \n        );\n\n        require(tokensBought >= _minTokens, \"insufficient output amount\"); //     \n\n        //  : Factory       msg.sender  \n        //       klayToTokenSwap  klayToToken, klayToTokenSwap  .\n        \n        //--  : msg.sender   ,    ' ' .\n        //              , '  ' .\n        //         https://jeiwan.net/posts/programming-defi-uniswap-3/\n\n        KIP7(tokenAddress).transfer(recipient, tokensBought);\n        // KIP7(tokenAddress).transfer(msg.sender, tokensBought); // tokenBought =     msg.sender  .\n    }\n    \n    function klayToTokenSwap(uint256 _minTokens) public payable {\n        klayToToken(_minTokens, msg.sender);\n    }\n\n    function klayToTokenTransfer(uint256 _minTokens, address _recipient)\n        public\n        payable\n    {\n        klayToToken(_minTokens, _recipient);\n    }\n\n    function tokenToKlaySwap(uint256 _tokensSold, uint256 _minklay) public {\n\n        uint256 tokenReserve = getReserve(); //    \n        uint256 klayBought = getAmount(\n            _tokensSold, //   \n            tokenReserve, //    \n            address(this).balance //   klay \n        );\n\n        require(klayBought >= _minklay, \"insufficient output amount\");\n\n        KIP7(tokenAddress).transferFrom(msg.sender, address(this), _tokensSold); // msg.sender     .\n        msg.sender.transfer(klayBought); // msg.sender klaybought    .\n    }\n\n    /*\n    * tokenToTokenSwap\n    * 1. Factory       .\n    * 2.  ,   sold         .\n    * 3.    .\n    */\n\n    function tokenToTokenSwap(uint256 _tokensSold, uint256 _minTokensBought, address _tokenAddress) \n    public {\n\n        // 1. Factory       .\n        address exchangeAddress = IFactory(factoryAddress).getExchange(_tokenAddress);\n        \n        //    \n        require(\n            exchangeAddress != address(this) && exchangeAddress != address(0),\n            \"invalid exchange address\"\n        );\n\n        uint256 tokenReserve = getReserve();    //  token \n        uint256 klayBought = getAmount(         // token   klay  (  )\n            _tokensSold,\n            tokenReserve,\n            address(this).balance               //  klay \n        );\n\n        // 2. msg.sender token sold   \n        // msg.sender : first exchange contract address\n        KIP7(tokenAddress).transferFrom(msg.sender, address(this), _tokensSold);\n\n        // 3.  klayBought   \n        // msg.sender : exchangeAddress\n        IExchange(exchangeAddress).klayToTokenTransfer.value(klayBought)(\n            _minTokensBought,\n            msg.sender\n        );\n    }\n\n    function getAmount( // x( )     y   \n        uint256 inputAmount,\n        uint256 inputReserve,\n        uint256 outputReserve \n    ) private pure returns (uint256) {\n        require(inputReserve > 0 && outputReserve > 0, \"invalid reserves\");\n\n        uint256 inputAmountWithFee = inputAmount.mul(99); //  .\n        uint256 numerator = inputAmountWithFee.mul(outputReserve);\n        uint256 denominator = (inputReserve.mul(100)).add(inputAmountWithFee);\n\n        return numerator.div(denominator);\n\n        // return (inputAmount * outputReserve) / (inputReserve + inputAmount);    \n    }\n\n    // ------------------\n    // LP-Farming feature\n    // ------------------\n    \n    // iterations   \n    address[] public userList;\n\n    //    mapping \n    mapping(address => uint256) public stakingBalance;\n    mapping(address => bool) public isStaking;\n    mapping(address => uint256) public startTime;\n    mapping(address => uint256) public URUBalance;\n\n    event Stake(address indexed from, uint256 amount);\n    event Unstake(address indexed from, uint256 amount);\n    event YieldWithdraw(address indexed to, uint256 amount);\n\n    //   \n    function stake(uint256 amount) public {\n        require(\n            amount > 0 &&\n            KIP7(address(this)).balanceOf(msg.sender) >= amount, \n            \" \");\n\n        // userList \"  \" msg.sender  userList \n        if(isStaking[msg.sender] == false) {\n            userList.push(msg.sender);\n        }\n        \n        if(isStaking[msg.sender] == true) {\n            URUBalance[msg.sender] = URUBalance[msg.sender].add(calculateYieldTotal(msg.sender));\n        }\n\n        stakingBalance[msg.sender] = stakingBalance[msg.sender].add(amount);\n        KIP7(address(this)).transferFrom(msg.sender, address(this), amount);\n        startTime[msg.sender] = block.timestamp;\n        isStaking[msg.sender] = true;\n        emit Stake(msg.sender, amount);\n\n        // stake          mapping  \n        for (uint256 i = 0; i < userList.length; i++) {\n            uint256 nowURUBalance = calculateYieldTotal(userList[i]);\n            URUBalance[userList[i]] = URUBalance[userList[i]].add(nowURUBalance);\n            startTime[userList[i]] = block.timestamp;\n        }\n    }\n\n    //  \n    function unstake(uint256 amount) public {\n        require(\n            isStaking[msg.sender] = true &&\n            stakingBalance[msg.sender] >= amount, \n            \" \"\n        );\n        uint256 yieldTransfer = calculateYieldTotal(msg.sender);\n        startTime[msg.sender] = block.timestamp;\n        uint256 balTransfer = amount;\n        amount = 0;\n        stakingBalance[msg.sender] = stakingBalance[msg.sender].sub(balTransfer);\n        KIP7(address(this)).transfer(msg.sender, balTransfer);\n        URUBalance[msg.sender] = URUBalance[msg.sender].add(yieldTransfer);\n        if(stakingBalance[msg.sender] == 0){\n            isStaking[msg.sender] = false;\n            //  0 userList    \n        }\n        emit Unstake(msg.sender, balTransfer);\n\n        // stake    \n        for (uint256 i = 0; i < userList.length; i++) {\n        uint256 nowURUBalance = calculateYieldTotal(userList[i]);\n        URUBalance[userList[i]] = URUBalance[userList[i]].add(nowURUBalance);\n        startTime[userList[i]] = block.timestamp;\n        }\n    }\n\n    //    address  \n    function getuserList() public view returns(address[] memory) {\n        return userList;\n    }\n\n    //      ( )\n    function calculateYieldTime(address user) public view returns(uint256){\n        uint256 end = block.timestamp;\n        uint256 totalTime = end.sub(startTime[user]);\n        return totalTime;\n    }\n\n    //        \n    //     ()\n    function calculateContribute(address user) public view returns(uint256){\n        uint contribution = (stakingBalance[user].mul(100)).div(KIP7(address(this)).balanceOf(address(this)));\n        return contribution;\n    }\n\n    //    ( stake unstake   )     \n    //    \n    //   1500,  25       \n    function calculateYieldTotal(address user) public view returns(uint256) {\n        uint256 time = calculateYieldTime(user);\n        uint256 contribution = calculateContribute(user);\n        uint256 rawYield = (time.mul(contribution).mul(25));\n        return rawYield;\n    } \n\n    function countDown() public view returns (uint256 count){\n        count = nextEpoch.sub(block.timestamp);\n    }\n\n    function currentLockedPercentage() public view returns (uint8) {\n        return lockedPercentage;\n    }\n\n    function _calculateLockedPercentage() internal {\n    //    nextEpoch   = lockedPercentage .\n        while (block.timestamp >= nextEpoch) {\n            lockedPercentage = lockedPercentage < 20 ? 0 : uint8(uint256(lockedPercentage).sub(20));\n            nextEpoch = nextEpoch.add(epochDuration);\n        }\n    }\n\n    // URUBalance        mint\n    function withdrawYield() public {\n        uint256 toTransfer = calculateYieldTotal(msg.sender);\n\n        require(\n            toTransfer > 0 ||\n            URUBalance[msg.sender] > 0,\n            \"Nothing to withdraw\"\n            );\n        \n        //   \n        if(URUBalance[msg.sender] != 0){\n            uint256 oldBalance = URUBalance[msg.sender];\n            URUBalance[msg.sender] = 0;\n            toTransfer = toTransfer.add(oldBalance);\n        }\n\n        startTime[msg.sender] = block.timestamp;\n        if (lockedPercentage != 0) {\n            _calculateLockedPercentage();\n            uint256 lockedTokenAmount = toTransfer.mul(uint256(lockedPercentage)).div(100);\n            uru.mint(msg.sender, toTransfer.sub(lockedTokenAmount));\n            uru.lock(msg.sender, lockedTokenAmount);\n        }\n        else {\n            uru.mint(msg.sender, toTransfer);\n        }\n        emit YieldWithdraw(msg.sender, toTransfer);\n    } \n}\n",
  "sourcePath": "/Users/baekdonghyun/Desktop/beb-03-DND/contract/contracts/Exchange.sol",
  "compiler": {
    "name": "solc",
    "version": "0.5.6+commit.b259423e.Emscripten.clang"
  },
  "schemaVersion": "3.4.5",
  "updatedAt": "2022-05-19T07:26:47.951Z",
  "networkType": "ethereum",
  "devdoc": {
    "methods": {
      "allowance(address,address)": {
        "details": "See `IKIP7.allowance`."
      },
      "approve(address,uint256)": {
        "details": "See `IKIP7.approve`.     * Requirements:     * - `spender` cannot be the zero address."
      },
      "balanceOf(address)": {
        "details": "See `IKIP7.balanceOf`."
      },
      "decimals()": {
        "details": "Returns the number of decimals used to get its user representation. For example, if `decimals` equals `2`, a balance of `505` tokens should be displayed to a user as `5,05` (`505 / 10 ** 2`).     * Tokens usually opt for a value of 18, imitating the relationship between Ether and Wei.     * > Note that this information is only used for _display_ purposes: it in no way affects any of the arithmetic of the contract, including `IKIP7.balanceOf` and `IKIP7.transfer`."
      },
      "name()": {
        "details": "Returns the name of the token."
      },
      "safeTransfer(address,uint256)": {
        "details": "Moves `amount` tokens from the caller's account to `recipient`."
      },
      "safeTransfer(address,uint256,bytes)": {
        "details": "Moves `amount` tokens from the caller's account to `recipient`."
      },
      "safeTransferFrom(address,address,uint256)": {
        "details": "Moves `amount` tokens from `sender` to `recipient` using the allowance mechanism. `amount` is then deducted from the caller's allowance."
      },
      "safeTransferFrom(address,address,uint256,bytes)": {
        "details": "Moves `amount` tokens from `sender` to `recipient` using the allowance mechanism. `amount` is then deducted from the caller's allowance."
      },
      "supportsInterface(bytes4)": {
        "details": "See `IKIP13.supportsInterface`.     * Time complexity O(1), guaranteed to always use less than 30 000 gas."
      },
      "symbol()": {
        "details": "Returns the symbol of the token, usually a shorter version of the name."
      },
      "totalSupply()": {
        "details": "See `IKIP7.totalSupply`."
      },
      "transfer(address,uint256)": {
        "details": "See `IKIP7.transfer`.     * Requirements:     * - `recipient` cannot be the zero address. - the caller must have a balance of at least `amount`."
      },
      "transferFrom(address,address,uint256)": {
        "details": "See `IKIP7.transferFrom`.     * Emits an `Approval` event indicating the updated allowance. This is not required by the KIP. See the note at the beginning of `KIP7`;     * Requirements: - `sender` and `recipient` cannot be the zero address. - `sender` must have a balance of at least `value`. - the caller must have allowance for `sender`'s tokens of at least `amount`."
      }
    }
  },
  "userdoc": {
    "methods": {}
  }
}