{
  "contractName": "LP_Farming",
  "abi": [
    {
      "constant": true,
      "inputs": [],
      "name": "name",
      "outputs": [
        {
          "name": "",
          "type": "string"
        }
      ],
      "payable": false,
      "stateMutability": "view",
      "type": "function"
    },
    {
      "constant": true,
      "inputs": [],
      "name": "LP_Token",
      "outputs": [
        {
          "name": "",
          "type": "address"
        }
      ],
      "payable": false,
      "stateMutability": "view",
      "type": "function"
    },
    {
      "constant": true,
      "inputs": [
        {
          "name": "",
          "type": "address"
        }
      ],
      "name": "URUBalance",
      "outputs": [
        {
          "name": "",
          "type": "uint256"
        }
      ],
      "payable": false,
      "stateMutability": "view",
      "type": "function"
    },
    {
      "constant": true,
      "inputs": [
        {
          "name": "",
          "type": "address"
        }
      ],
      "name": "stakingBalance",
      "outputs": [
        {
          "name": "",
          "type": "uint256"
        }
      ],
      "payable": false,
      "stateMutability": "view",
      "type": "function"
    },
    {
      "constant": true,
      "inputs": [
        {
          "name": "",
          "type": "address"
        }
      ],
      "name": "startTime",
      "outputs": [
        {
          "name": "",
          "type": "uint256"
        }
      ],
      "payable": false,
      "stateMutability": "view",
      "type": "function"
    },
    {
      "constant": true,
      "inputs": [
        {
          "name": "",
          "type": "address"
        }
      ],
      "name": "isStaking",
      "outputs": [
        {
          "name": "",
          "type": "bool"
        }
      ],
      "payable": false,
      "stateMutability": "view",
      "type": "function"
    },
    {
      "constant": true,
      "inputs": [
        {
          "name": "",
          "type": "uint256"
        }
      ],
      "name": "userList",
      "outputs": [
        {
          "name": "",
          "type": "address"
        }
      ],
      "payable": false,
      "stateMutability": "view",
      "type": "function"
    },
    {
      "constant": true,
      "inputs": [],
      "name": "token",
      "outputs": [
        {
          "name": "",
          "type": "address"
        }
      ],
      "payable": false,
      "stateMutability": "view",
      "type": "function"
    },
    {
      "inputs": [
        {
          "name": "_token",
          "type": "address"
        }
      ],
      "payable": false,
      "stateMutability": "nonpayable",
      "type": "constructor"
    },
    {
      "anonymous": false,
      "inputs": [
        {
          "indexed": true,
          "name": "from",
          "type": "address"
        },
        {
          "indexed": false,
          "name": "amount",
          "type": "uint256"
        }
      ],
      "name": "Stake",
      "type": "event"
    },
    {
      "anonymous": false,
      "inputs": [
        {
          "indexed": true,
          "name": "from",
          "type": "address"
        },
        {
          "indexed": false,
          "name": "amount",
          "type": "uint256"
        }
      ],
      "name": "Unstake",
      "type": "event"
    },
    {
      "anonymous": false,
      "inputs": [
        {
          "indexed": true,
          "name": "to",
          "type": "address"
        },
        {
          "indexed": false,
          "name": "amount",
          "type": "uint256"
        }
      ],
      "name": "YieldWithdraw",
      "type": "event"
    },
    {
      "constant": false,
      "inputs": [
        {
          "name": "amount",
          "type": "uint256"
        }
      ],
      "name": "stake",
      "outputs": [],
      "payable": false,
      "stateMutability": "nonpayable",
      "type": "function"
    },
    {
      "constant": false,
      "inputs": [
        {
          "name": "amount",
          "type": "uint256"
        }
      ],
      "name": "unstake",
      "outputs": [],
      "payable": false,
      "stateMutability": "nonpayable",
      "type": "function"
    },
    {
      "constant": true,
      "inputs": [],
      "name": "getuserList",
      "outputs": [
        {
          "name": "",
          "type": "address[]"
        }
      ],
      "payable": false,
      "stateMutability": "view",
      "type": "function"
    },
    {
      "constant": true,
      "inputs": [
        {
          "name": "user",
          "type": "address"
        }
      ],
      "name": "calculateYieldTime",
      "outputs": [
        {
          "name": "",
          "type": "uint256"
        }
      ],
      "payable": false,
      "stateMutability": "view",
      "type": "function"
    },
    {
      "constant": true,
      "inputs": [
        {
          "name": "user",
          "type": "address"
        }
      ],
      "name": "calculateContribute",
      "outputs": [
        {
          "name": "",
          "type": "uint256"
        }
      ],
      "payable": false,
      "stateMutability": "view",
      "type": "function"
    },
    {
      "constant": true,
      "inputs": [
        {
          "name": "user",
          "type": "address"
        }
      ],
      "name": "calculateYieldTotal",
      "outputs": [
        {
          "name": "",
          "type": "uint256"
        }
      ],
      "payable": false,
      "stateMutability": "view",
      "type": "function"
    },
    {
      "constant": false,
      "inputs": [],
      "name": "withdrawYield",
      "outputs": [],
      "payable": false,
      "stateMutability": "nonpayable",
      "type": "function"
    }
  ],
  "bytecode": "0x60806040526040518060400160405280600a81526020017f4c505f4661726d696e670000000000000000000000000000000000000000000081525060059080519060200190620000519291906200012f565b503480156200005f57600080fd5b50604051602080620019ae833981018060405260208110156200008157600080fd5b81019080805190602001909291905050507328f6221ed6f6e23c4943bb5910e2f6bab6f49470600660006101000a81548173ffffffffffffffffffffffffffffffffffffffff021916908373ffffffffffffffffffffffffffffffffffffffff16021790555080600760006101000a81548173ffffffffffffffffffffffffffffffffffffffff021916908373ffffffffffffffffffffffffffffffffffffffff16021790555050620001de565b828054600181600116156101000203166002900490600052602060002090601f016020900481019282601f106200017257805160ff1916838001178555620001a3565b82800160010185558215620001a3579182015b82811115620001a257825182559160200191906001019062000185565b5b509050620001b29190620001b6565b5090565b620001db91905b80821115620001d7576000816000905550600101620001bd565b5090565b90565b6117c080620001ee6000396000f3fe608060405234801561001057600080fd5b50600436106100f55760003560e01c80636e1dc66e116100975780639f4216e8116100665780639f4216e8146104c0578063a694fc3a1461052e578063e507a8a41461055c578063fc0c546a14610566576100f5565b80636e1dc66e146103555780636f49712b146103ad5780638794efd914610409578063980d611614610468576100f5565b80631162c4b6116100d35780631162c4b61461022d5780632e17de781461027757806330bd2bdf146102a557806345bc78ab146102fd576100f5565b806301b7bd75146100fa578063068726611461015257806306fdde03146101aa575b600080fd5b61013c6004803603602081101561011057600080fd5b81019080803573ffffffffffffffffffffffffffffffffffffffff1690602001909291905050506105b0565b6040518082815260200191505060405180910390f35b6101946004803603602081101561016857600080fd5b81019080803573ffffffffffffffffffffffffffffffffffffffff1690602001909291905050506106e3565b6040518082815260200191505060405180910390f35b6101b2610713565b6040518080602001828103825283818151815260200191508051906020019080838360005b838110156101f25780820151818401526020810190506101d7565b50505050905090810190601f16801561021f5780820380516001836020036101000a031916815260200191505b509250505060405180910390f35b6102356107b1565b604051808273ffffffffffffffffffffffffffffffffffffffff1673ffffffffffffffffffffffffffffffffffffffff16815260200191505060405180910390f35b6102a36004803603602081101561028d57600080fd5b81019080803590602001909291905050506107d7565b005b6102e7600480360360208110156102bb57600080fd5b81019080803573ffffffffffffffffffffffffffffffffffffffff169060200190929190505050610d1b565b6040518082815260200191505060405180910390f35b61033f6004803603602081101561031357600080fd5b81019080803573ffffffffffffffffffffffffffffffffffffffff169060200190929190505050610d33565b6040518082815260200191505060405180910390f35b6103976004803603602081101561036b57600080fd5b81019080803573ffffffffffffffffffffffffffffffffffffffff169060200190929190505050610d4b565b6040518082815260200191505060405180910390f35b6103ef600480360360208110156103c357600080fd5b81019080803573ffffffffffffffffffffffffffffffffffffffff169060200190929190505050610d63565b604051808215151515815260200191505060405180910390f35b610411610d83565b6040518080602001828103825283818151815260200191508051906020019060200280838360005b83811015610454578082015181840152602081019050610439565b505050509050019250505060405180910390f35b6104aa6004803603602081101561047e57600080fd5b81019080803573ffffffffffffffffffffffffffffffffffffffff169060200190929190505050610e11565b6040518082815260200191505060405180910390f35b6104ec600480360360208110156104d657600080fd5b8101908080359060200190929190505050610e67565b604051808273ffffffffffffffffffffffffffffffffffffffff1673ffffffffffffffffffffffffffffffffffffffff16815260200191505060405180910390f35b61055a6004803603602081101561054457600080fd5b8101908080359060200190929190505050610ea3565b005b610564611474565b005b61056e61176e565b604051808273ffffffffffffffffffffffffffffffffffffffff1673ffffffffffffffffffffffffffffffffffffffff16815260200191505060405180910390f35b600080600660009054906101000a900473ffffffffffffffffffffffffffffffffffffffff1673ffffffffffffffffffffffffffffffffffffffff166370a08231306040518263ffffffff1660e01b8152600401808273ffffffffffffffffffffffffffffffffffffffff1673ffffffffffffffffffffffffffffffffffffffff16815260200191505060206040518083038186803b15801561065257600080fd5b505afa158015610666573d6000803e3d6000fd5b505050506040513d602081101561067c57600080fd5b81019080805190602001909291905050506064600160008673ffffffffffffffffffffffffffffffffffffffff1673ffffffffffffffffffffffffffffffffffffffff1681526020019081526020016000205402816106d757fe5b04905080915050919050565b6000806106ef83610e11565b905060006106fc846105b0565b905060006019828402029050809350505050919050565b60058054600181600116156101000203166002900480601f0160208091040260200160405190810160405280929190818152602001828054600181600116156101000203166002900480156107a95780601f1061077e576101008083540402835291602001916107a9565b820191906000526020600020905b81548152906001019060200180831161078c57829003601f168201915b505050505081565b600660009054906101000a900473ffffffffffffffffffffffffffffffffffffffff1681565b60018015610824575080600160003373ffffffffffffffffffffffffffffffffffffffff1673ffffffffffffffffffffffffffffffffffffffff1681526020019081526020016000205410155b600260003373ffffffffffffffffffffffffffffffffffffffff1673ffffffffffffffffffffffffffffffffffffffff16815260200190815260200160002060006101000a81548160ff02191690831515021790556108eb576040517f08c379a000000000000000000000000000000000000000000000000000000000815260040180806020018281038252601c8152602001807fec9888ecb998eb9f89ebb3b4eb8ba420eba78eec8ab5eb8b88eb8ba40000000081525060200191505060405180910390fd5b60006108f6336106e3565b905042600360003373ffffffffffffffffffffffffffffffffffffffff1673ffffffffffffffffffffffffffffffffffffffff1681526020019081526020016000208190555060008290506000925080600160003373ffffffffffffffffffffffffffffffffffffffff1673ffffffffffffffffffffffffffffffffffffffff16815260200190815260200160002060008282540392505081905550600660009054906101000a900473ffffffffffffffffffffffffffffffffffffffff1673ffffffffffffffffffffffffffffffffffffffff1663a9059cbb33836040518363ffffffff1660e01b8152600401808373ffffffffffffffffffffffffffffffffffffffff1673ffffffffffffffffffffffffffffffffffffffff16815260200182815260200192505050602060405180830381600087803b158015610a3b57600080fd5b505af1158015610a4f573d6000803e3d6000fd5b505050506040513d6020811015610a6557600080fd5b81019080805190602001909291905050505081600460003373ffffffffffffffffffffffffffffffffffffffff1673ffffffffffffffffffffffffffffffffffffffff168152602001908152602001600020600082825401925050819055506000600160003373ffffffffffffffffffffffffffffffffffffffff1673ffffffffffffffffffffffffffffffffffffffff168152602001908152602001600020541415610b65576000600260003373ffffffffffffffffffffffffffffffffffffffff1673ffffffffffffffffffffffffffffffffffffffff16815260200190815260200160002060006101000a81548160ff0219169083151502179055505b3373ffffffffffffffffffffffffffffffffffffffff167f85082129d87b2fe11527cb1b3b7a520aeb5aa6913f88a3d8757fe40d1db02fdd826040518082815260200191505060405180910390a260008090505b600080549050811015610d15576000610c0860008381548110610bd857fe5b9060005260206000200160009054906101000a900473ffffffffffffffffffffffffffffffffffffffff166106e3565b90508060046000808581548110610c1b57fe5b9060005260206000200160009054906101000a900473ffffffffffffffffffffffffffffffffffffffff1673ffffffffffffffffffffffffffffffffffffffff1673ffffffffffffffffffffffffffffffffffffffff168152602001908152602001600020600082825401925050819055504260036000808581548110610c9e57fe5b9060005260206000200160009054906101000a900473ffffffffffffffffffffffffffffffffffffffff1673ffffffffffffffffffffffffffffffffffffffff1673ffffffffffffffffffffffffffffffffffffffff16815260200190815260200160002081905550508080600101915050610bb9565b50505050565b60046020528060005260406000206000915090505481565b60016020528060005260406000206000915090505481565b60036020528060005260406000206000915090505481565b60026020528060005260406000206000915054906101000a900460ff1681565b60606000805480602002602001604051908101604052809291908181526020018280548015610e0757602002820191906000526020600020905b8160009054906101000a900473ffffffffffffffffffffffffffffffffffffffff1673ffffffffffffffffffffffffffffffffffffffff1681526020019060010190808311610dbd575b5050505050905090565b6000804290506000600360008573ffffffffffffffffffffffffffffffffffffffff1673ffffffffffffffffffffffffffffffffffffffff16815260200190815260200160002054820390508092505050919050565b60008181548110610e7457fe5b906000526020600020016000915054906101000a900473ffffffffffffffffffffffffffffffffffffffff1681565b600081118015610f8c575080600660009054906101000a900473ffffffffffffffffffffffffffffffffffffffff1673ffffffffffffffffffffffffffffffffffffffff166370a08231336040518263ffffffff1660e01b8152600401808273ffffffffffffffffffffffffffffffffffffffff1673ffffffffffffffffffffffffffffffffffffffff16815260200191505060206040518083038186803b158015610f4e57600080fd5b505afa158015610f62573d6000803e3d6000fd5b505050506040513d6020811015610f7857600080fd5b810190808051906020019092919050505010155b610ffe576040517f08c379a00000000000000000000000000000000000000000000000000000000081526004018080602001828103825260198152602001807fed86a0ed81b0ec9db420ebb680eca1b1ed95a9eb8b88eb8ba40000000000000081525060200191505060405180910390fd5b60001515600260003373ffffffffffffffffffffffffffffffffffffffff1673ffffffffffffffffffffffffffffffffffffffff16815260200190815260200160002060009054906101000a900460ff16151514156110be5760003390806001815401808255809150509060018203906000526020600020016000909192909190916101000a81548173ffffffffffffffffffffffffffffffffffffffff021916908373ffffffffffffffffffffffffffffffffffffffff160217905550505b600660009054906101000a900473ffffffffffffffffffffffffffffffffffffffff1673ffffffffffffffffffffffffffffffffffffffff166323b872dd3330846040518463ffffffff1660e01b8152600401808473ffffffffffffffffffffffffffffffffffffffff1673ffffffffffffffffffffffffffffffffffffffff1681526020018373ffffffffffffffffffffffffffffffffffffffff1673ffffffffffffffffffffffffffffffffffffffff1681526020018281526020019350505050602060405180830381600087803b15801561119b57600080fd5b505af11580156111af573d6000803e3d6000fd5b505050506040513d60208110156111c557600080fd5b81019080805190602001909291905050505080600160003373ffffffffffffffffffffffffffffffffffffffff1673ffffffffffffffffffffffffffffffffffffffff1681526020019081526020016000206000828254019250508190555042600360003373ffffffffffffffffffffffffffffffffffffffff1673ffffffffffffffffffffffffffffffffffffffff168152602001908152602001600020819055506001600260003373ffffffffffffffffffffffffffffffffffffffff1673ffffffffffffffffffffffffffffffffffffffff16815260200190815260200160002060006101000a81548160ff0219169083151502179055503373ffffffffffffffffffffffffffffffffffffffff167febedb8b3c678666e7f36970bc8f57abf6d8fa2e828c0da91ea5b75bf68ed101a826040518082815260200191505060405180910390a260008090505b6000805490508110156114705760006113636000838154811061133357fe5b9060005260206000200160009054906101000a900473ffffffffffffffffffffffffffffffffffffffff166106e3565b9050806004600080858154811061137657fe5b9060005260206000200160009054906101000a900473ffffffffffffffffffffffffffffffffffffffff1673ffffffffffffffffffffffffffffffffffffffff1673ffffffffffffffffffffffffffffffffffffffff1681526020019081526020016000206000828254019250508190555042600360008085815481106113f957fe5b9060005260206000200160009054906101000a900473ffffffffffffffffffffffffffffffffffffffff1673ffffffffffffffffffffffffffffffffffffffff1673ffffffffffffffffffffffffffffffffffffffff16815260200190815260200160002081905550508080600101915050611314565b5050565b600061147f336106e3565b905060008111806114cf57506000600460003373ffffffffffffffffffffffffffffffffffffffff1673ffffffffffffffffffffffffffffffffffffffff16815260200190815260200160002054115b611541576040517f08c379a00000000000000000000000000000000000000000000000000000000081526004018080602001828103825260138152602001807f4e6f7468696e6720746f2077697468647261770000000000000000000000000081525060200191505060405180910390fd5b6000600460003373ffffffffffffffffffffffffffffffffffffffff1673ffffffffffffffffffffffffffffffffffffffff1681526020019081526020016000205414611618576000600460003373ffffffffffffffffffffffffffffffffffffffff1673ffffffffffffffffffffffffffffffffffffffff1681526020019081526020016000205490506000600460003373ffffffffffffffffffffffffffffffffffffffff1673ffffffffffffffffffffffffffffffffffffffff168152602001908152602001600020819055508082019150505b42600360003373ffffffffffffffffffffffffffffffffffffffff1673ffffffffffffffffffffffffffffffffffffffff16815260200190815260200160002081905550600760009054906101000a900473ffffffffffffffffffffffffffffffffffffffff1673ffffffffffffffffffffffffffffffffffffffff166340c10f1933836040518363ffffffff1660e01b8152600401808373ffffffffffffffffffffffffffffffffffffffff1673ffffffffffffffffffffffffffffffffffffffff16815260200182815260200192505050600060405180830381600087803b15801561170557600080fd5b505af1158015611719573d6000803e3d6000fd5b505050503373ffffffffffffffffffffffffffffffffffffffff167f92044e3943309ee5950e21bc7421d02c1df75f0df33c0d97c1143687b49a4c57826040518082815260200191505060405180910390a250565b600760009054906101000a900473ffffffffffffffffffffffffffffffffffffffff168156fea165627a7a72305820ab15b9c910ab4dc088a6232e1da9a72f895a1f62a84135705113010e675932750029",
  "source": "// // SPDX-License-Identifier: MIT\npragma solidity ^0.5.6;\n\nimport \"@klaytn/contracts/token/KIP7/KIP7.sol\";\nimport \"@klaytn/contracts/token/KIP7/IKIP7.sol\";\nimport \"@klaytn/contracts/token/KIP7/KIP7Mintable.sol\";\nimport \"./Token.sol\";\n\ncontract LP_Farming {\n    \n    // iterations을 위한 배열 선언\n    address[] public userList;\n\n    // 관련 정보를 기록할 mapping 선언\n    mapping(address => uint256) public stakingBalance;\n    mapping(address => bool) public isStaking;\n    mapping(address => uint256) public startTime;\n    mapping(address => uint256) public URUBalance;\n\n    string public name = \"LP_Farming\";\n\n    address public LP_Token;\n    Token public token;\n\n    event Stake(address indexed from, uint256 amount);\n    event Unstake(address indexed from, uint256 amount);\n    event YieldWithdraw(address indexed to, uint256 amount);\n\n    constructor (\n        Token _token\n        ) public {\n            LP_Token = 0x28F6221ED6F6e23C4943Bb5910E2F6BAb6F49470; // lp 토큰 주소 (예치)\n            token = _token;\n        }\n\n    //  예치 기능\n    function stake(uint256 amount) public {\n        require(\n            amount > 0 &&\n            KIP7(LP_Token).balanceOf(msg.sender) >= amount, \n            \"토큰이 부족합니다\");\n\n        // userList에 \"없는 주소일 경우\" msg.sender을 주소를 userList에 삽입\n        if(isStaking[msg.sender] == false) {\n            userList.push(msg.sender);\n        }\n\n        KIP7(LP_Token).transferFrom(msg.sender, address(this), amount);\n        stakingBalance[msg.sender] += amount;\n        startTime[msg.sender] = block.timestamp;\n        isStaking[msg.sender] = true;\n        emit Stake(msg.sender, amount);\n\n        // stake가 일어날 때 마다 모든 유저에 대해서 해당 시각의 이자를 mapping 결과에 저장\n        for (uint256 i = 0; i < userList.length; i++) {\n            uint256 nowURUBalance = calculateYieldTotal(userList[i]);\n            URUBalance[userList[i]] += nowURUBalance;\n            startTime[userList[i]] = block.timestamp;\n        }\n    }\n\n    // 예치량 빼기\n    function unstake(uint256 amount) public {\n        require(\n            isStaking[msg.sender] = true &&\n            stakingBalance[msg.sender] >= amount, \n            \"예치량보다 많습니다\"\n        );\n        uint256 yieldTransfer = calculateYieldTotal(msg.sender);\n        startTime[msg.sender] = block.timestamp;\n        uint256 balTransfer = amount;\n        amount = 0;\n        stakingBalance[msg.sender] -= balTransfer;\n        KIP7(LP_Token).transfer(msg.sender, balTransfer);\n        URUBalance[msg.sender] += yieldTransfer;\n        if(stakingBalance[msg.sender] == 0){\n            isStaking[msg.sender] = false;\n            // 예치량이 0이되면 userList에서 해당 함수의 주소를 삭제\n        }\n        emit Unstake(msg.sender, balTransfer);\n\n        // stake가 일어날 때와의 마찬가지의 논리\n        for (uint256 i = 0; i < userList.length; i++) {\n        uint256 nowURUBalance = calculateYieldTotal(userList[i]);\n        URUBalance[userList[i]] += nowURUBalance;\n        startTime[userList[i]] = block.timestamp;\n        }\n    }\n\n    // 현재 스테이킹 중인 address를 배열로 반환\n    function getuserList() public view returns(address[] memory) {\n        return userList;\n    }\n\n    // 마지막 스테이킹 변화로부터 시간 측정 (블록타임 활용)\n    function calculateYieldTime(address user) public view returns(uint256){\n        uint256 end = block.timestamp;\n        uint256 totalTime = end - startTime[user];\n        return totalTime;\n    }\n\n    // 전체 비율 중 해당 유저의 유동성 기여도 측정\n    // 소수점 둘째 자리까지 가능 (백분율)\n    function calculateContribute(address user) public view returns(uint256){\n        uint contribution = (stakingBalance[user] * 100) / KIP7(LP_Token).balanceOf(address(this));\n        return contribution;\n    }\n\n    // 새로운 기간 동안 (새로운 stake나 unstake가 일어나지 않는 동안) 각 유저에게 지급할 이자를 계산\n    // 시간과 기여도의 곱으로 계산\n    // 총 분당 1500개, 초당 25개씩 발행될 것이고 이를 기여도에 따라서 나누는 시스템\n    function calculateYieldTotal(address user) public view returns(uint256) {\n        uint256 time = calculateYieldTime(user);\n        uint256 contribution = calculateContribute(user);\n        uint256 rawYield = (time * contribution * 25);\n        return rawYield;\n    } \n\n    // URUBalance에 저장된 값과 현재 기간 쌓인 이자의 합으로 mint해줌\n    function withdrawYield() public {\n        uint256 toTransfer = calculateYieldTotal(msg.sender);\n\n        require(\n            toTransfer > 0 ||\n            URUBalance[msg.sender] > 0,\n            \"Nothing to withdraw\"\n            );\n                    \n        if(URUBalance[msg.sender] != 0){\n            uint256 oldBalance = URUBalance[msg.sender];\n            URUBalance[msg.sender] = 0;\n            toTransfer += oldBalance;\n        }\n\n        startTime[msg.sender] = block.timestamp;\n        token.mint(msg.sender, toTransfer);\n        emit YieldWithdraw(msg.sender, toTransfer);\n    } \n}",
  "sourcePath": "/Users/baekdonghyun/Desktop/beb-03-DND/contract/contracts/LP_Farming.sol",
  "compiler": {
    "name": "solc",
    "version": "0.5.6+commit.b259423e.Emscripten.clang"
  },
  "schemaVersion": "3.4.5",
  "updatedAt": "2022-05-18T14:15:05.714Z",
  "networkType": "ethereum",
  "devdoc": {
    "methods": {}
  },
  "userdoc": {
    "methods": {}
  }
}