{
  "contractName": "Master",
  "abi": [
    {
      "constant": true,
      "inputs": [],
      "name": "uru",
      "outputs": [
        {
          "name": "",
          "type": "address"
        }
      ],
      "payable": false,
      "stateMutability": "view",
      "type": "function"
    },
    {
      "constant": true,
      "inputs": [
        {
          "name": "",
          "type": "uint256"
        }
      ],
      "name": "poolInfo",
      "outputs": [
        {
          "name": "lpToken",
          "type": "address"
        },
        {
          "name": "stakeAmount",
          "type": "uint256"
        },
        {
          "name": "lastUpdatedTime",
          "type": "uint256"
        },
        {
          "name": "URUPerShare",
          "type": "uint256"
        }
      ],
      "payable": false,
      "stateMutability": "view",
      "type": "function"
    },
    {
      "constant": true,
      "inputs": [
        {
          "name": "",
          "type": "uint256"
        },
        {
          "name": "",
          "type": "address"
        }
      ],
      "name": "userInfo",
      "outputs": [
        {
          "name": "amount",
          "type": "uint256"
        },
        {
          "name": "reward",
          "type": "uint256"
        }
      ],
      "payable": false,
      "stateMutability": "view",
      "type": "function"
    },
    {
      "constant": true,
      "inputs": [],
      "name": "totalStakeAmount",
      "outputs": [
        {
          "name": "",
          "type": "uint256"
        }
      ],
      "payable": false,
      "stateMutability": "view",
      "type": "function"
    },
    {
      "constant": false,
      "inputs": [
        {
          "name": "account",
          "type": "address"
        }
      ],
      "name": "addMinter",
      "outputs": [],
      "payable": false,
      "stateMutability": "nonpayable",
      "type": "function"
    },
    {
      "constant": false,
      "inputs": [],
      "name": "renounceMinter",
      "outputs": [],
      "payable": false,
      "stateMutability": "nonpayable",
      "type": "function"
    },
    {
      "constant": true,
      "inputs": [
        {
          "name": "account",
          "type": "address"
        }
      ],
      "name": "isMinter",
      "outputs": [
        {
          "name": "",
          "type": "bool"
        }
      ],
      "payable": false,
      "stateMutability": "view",
      "type": "function"
    },
    {
      "constant": true,
      "inputs": [
        {
          "name": "",
          "type": "uint256"
        },
        {
          "name": "",
          "type": "uint256"
        }
      ],
      "name": "userList",
      "outputs": [
        {
          "name": "",
          "type": "address"
        }
      ],
      "payable": false,
      "stateMutability": "view",
      "type": "function"
    },
    {
      "constant": true,
      "inputs": [],
      "name": "URUperblock",
      "outputs": [
        {
          "name": "",
          "type": "uint256"
        }
      ],
      "payable": false,
      "stateMutability": "view",
      "type": "function"
    },
    {
      "constant": true,
      "inputs": [
        {
          "name": "",
          "type": "address"
        }
      ],
      "name": "poolId",
      "outputs": [
        {
          "name": "",
          "type": "uint256"
        }
      ],
      "payable": false,
      "stateMutability": "view",
      "type": "function"
    },
    {
      "inputs": [
        {
          "name": "_uru",
          "type": "address"
        },
        {
          "name": "_URUperblock",
          "type": "uint256"
        },
        {
          "name": "_epochDuration",
          "type": "uint256"
        }
      ],
      "payable": false,
      "stateMutability": "nonpayable",
      "type": "constructor"
    },
    {
      "anonymous": false,
      "inputs": [
        {
          "indexed": true,
          "name": "user",
          "type": "address"
        },
        {
          "indexed": true,
          "name": "pid",
          "type": "uint256"
        },
        {
          "indexed": false,
          "name": "amount",
          "type": "uint256"
        }
      ],
      "name": "Deposit",
      "type": "event"
    },
    {
      "anonymous": false,
      "inputs": [
        {
          "indexed": true,
          "name": "user",
          "type": "address"
        },
        {
          "indexed": true,
          "name": "pid",
          "type": "uint256"
        },
        {
          "indexed": false,
          "name": "amount",
          "type": "uint256"
        }
      ],
      "name": "Withdraw",
      "type": "event"
    },
    {
      "anonymous": false,
      "inputs": [
        {
          "indexed": true,
          "name": "account",
          "type": "address"
        }
      ],
      "name": "MinterAdded",
      "type": "event"
    },
    {
      "anonymous": false,
      "inputs": [
        {
          "indexed": true,
          "name": "account",
          "type": "address"
        }
      ],
      "name": "MinterRemoved",
      "type": "event"
    },
    {
      "constant": true,
      "inputs": [],
      "name": "poolLength",
      "outputs": [
        {
          "name": "",
          "type": "uint256"
        }
      ],
      "payable": false,
      "stateMutability": "view",
      "type": "function"
    },
    {
      "constant": false,
      "inputs": [
        {
          "name": "_lpToken",
          "type": "address"
        }
      ],
      "name": "add",
      "outputs": [],
      "payable": false,
      "stateMutability": "nonpayable",
      "type": "function"
    },
    {
      "constant": false,
      "inputs": [
        {
          "name": "_pid",
          "type": "uint256"
        },
        {
          "name": "_amount",
          "type": "uint256"
        }
      ],
      "name": "deposit",
      "outputs": [],
      "payable": false,
      "stateMutability": "nonpayable",
      "type": "function"
    },
    {
      "constant": false,
      "inputs": [
        {
          "name": "_pid",
          "type": "uint256"
        },
        {
          "name": "_amount",
          "type": "uint256"
        }
      ],
      "name": "withdraw",
      "outputs": [],
      "payable": false,
      "stateMutability": "nonpayable",
      "type": "function"
    },
    {
      "constant": false,
      "inputs": [
        {
          "name": "_pid",
          "type": "uint256"
        }
      ],
      "name": "harvest",
      "outputs": [],
      "payable": false,
      "stateMutability": "nonpayable",
      "type": "function"
    },
    {
      "constant": true,
      "inputs": [
        {
          "name": "_pid",
          "type": "uint256"
        },
        {
          "name": "_user",
          "type": "address"
        }
      ],
      "name": "calculateContribute",
      "outputs": [
        {
          "name": "",
          "type": "uint256"
        }
      ],
      "payable": false,
      "stateMutability": "view",
      "type": "function"
    },
    {
      "constant": true,
      "inputs": [
        {
          "name": "_pid",
          "type": "uint256"
        },
        {
          "name": "_user",
          "type": "address"
        }
      ],
      "name": "calculateCurrentReward",
      "outputs": [
        {
          "name": "",
          "type": "uint256"
        }
      ],
      "payable": false,
      "stateMutability": "view",
      "type": "function"
    },
    {
      "constant": true,
      "inputs": [
        {
          "name": "_pid",
          "type": "uint256"
        },
        {
          "name": "_user",
          "type": "address"
        }
      ],
      "name": "calculateReward",
      "outputs": [
        {
          "name": "",
          "type": "uint256"
        }
      ],
      "payable": false,
      "stateMutability": "view",
      "type": "function"
    },
    {
      "constant": true,
      "inputs": [],
      "name": "countDown",
      "outputs": [
        {
          "name": "count",
          "type": "uint256"
        }
      ],
      "payable": false,
      "stateMutability": "view",
      "type": "function"
    },
    {
      "constant": true,
      "inputs": [],
      "name": "currentLockedPercentage",
      "outputs": [
        {
          "name": "",
          "type": "uint8"
        }
      ],
      "payable": false,
      "stateMutability": "view",
      "type": "function"
    }
  ],
  "bytecode": "0x60806040526000600355605f600460006101000a81548160ff021916908360ff1602179055503480156200003257600080fd5b5060405160608062002547833981018060405260608110156200005457600080fd5b810190808051906020019092919080519060200190929190805190602001909291905050506200008a336200010960201b60201c565b82600160006101000a81548173ffffffffffffffffffffffffffffffffffffffff021916908373ffffffffffffffffffffffffffffffffffffffff1602179055508160028190555042600581905550620000f381426200016a60201b62001c681790919060201c565b60068190555080600781905550505050620003b7565b62000124816000620001f360201b62001f061790919060201c565b8073ffffffffffffffffffffffffffffffffffffffff167f6ae172837ea30b801fbfcdd4108aa1d5bf8ff775444fd70256b44e6bf3dfc3f660405160405180910390a250565b600080828401905083811015620001e9576040517f08c379a000000000000000000000000000000000000000000000000000000000815260040180806020018281038252601b8152602001807f536166654d6174683a206164646974696f6e206f766572666c6f77000000000081525060200191505060405180910390fd5b8091505092915050565b620002058282620002d760201b60201c565b1562000279576040517f08c379a000000000000000000000000000000000000000000000000000000000815260040180806020018281038252601f8152602001807f526f6c65733a206163636f756e7420616c72656164792068617320726f6c650081525060200191505060405180910390fd5b60018260000160008373ffffffffffffffffffffffffffffffffffffffff1673ffffffffffffffffffffffffffffffffffffffff16815260200190815260200160002060006101000a81548160ff0219169083151502179055505050565b60008073ffffffffffffffffffffffffffffffffffffffff168273ffffffffffffffffffffffffffffffffffffffff16141562000360576040517f08c379a0000000000000000000000000000000000000000000000000000000008152600401808060200182810382526022815260200180620025256022913960400191505060405180910390fd5b8260000160008373ffffffffffffffffffffffffffffffffffffffff1673ffffffffffffffffffffffffffffffffffffffff16815260200190815260200160002060009054906101000a900460ff16905092915050565b61215e80620003c76000396000f3fe608060405234801561001057600080fd5b506004361061012c5760003560e01c806394409a56116100ad578063ae2349de11610071578063ae2349de14610531578063ddc63262146105a9578063e0312ed7146105d7578063e2bbb158146105f5578063ff51a2721461062d5761012c565b806394409a5614610407578063983b2d56146104255780639865027514610469578063a18f07a014610473578063aa271e1a146104d55761012c565b8063441a3e70116100f4578063441a3e70146102845780635f797795146102bc5780635fcbd5b61461031e5780636ecf24ac1461033c57806393f1a40b1461039e5761012c565b8063081e3eda146101315780630a3b0a4f1461014f5780630a4ceb8f14610193578063103c07dc146101b75780631526fe2714610201575b600080fd5b610139610685565b6040518082815260200191505060405180910390f35b6101916004803603602081101561016557600080fd5b81019080803573ffffffffffffffffffffffffffffffffffffffff169060200190929190505050610692565b005b61019b610822565b604051808260ff1660ff16815260200191505060405180910390f35b6101bf610839565b604051808273ffffffffffffffffffffffffffffffffffffffff1673ffffffffffffffffffffffffffffffffffffffff16815260200191505060405180910390f35b61022d6004803603602081101561021757600080fd5b810190808035906020019092919050505061085f565b604051808573ffffffffffffffffffffffffffffffffffffffff1673ffffffffffffffffffffffffffffffffffffffff16815260200184815260200183815260200182815260200194505050505060405180910390f35b6102ba6004803603604081101561029a57600080fd5b8101908080359060200190929190803590602001909291905050506108bc565b005b610308600480360360408110156102d257600080fd5b8101908080359060200190929190803573ffffffffffffffffffffffffffffffffffffffff169060200190929190505050610b5c565b6040518082815260200191505060405180910390f35b610326610be7565b6040518082815260200191505060405180910390f35b6103886004803603604081101561035257600080fd5b8101908080359060200190929190803573ffffffffffffffffffffffffffffffffffffffff169060200190929190505050610c03565b6040518082815260200191505060405180910390f35b6103ea600480360360408110156103b457600080fd5b8101908080359060200190929190803573ffffffffffffffffffffffffffffffffffffffff169060200190929190505050610e7c565b604051808381526020018281526020019250505060405180910390f35b61040f610ead565b6040518082815260200191505060405180910390f35b6104676004803603602081101561043b57600080fd5b81019080803573ffffffffffffffffffffffffffffffffffffffff169060200190929190505050610eb3565b005b610471610f1d565b005b6104bf6004803603604081101561048957600080fd5b8101908080359060200190929190803573ffffffffffffffffffffffffffffffffffffffff169060200190929190505050610f28565b6040518082815260200191505060405180910390f35b610517600480360360208110156104eb57600080fd5b81019080803573ffffffffffffffffffffffffffffffffffffffff169060200190929190505050610f8b565b604051808215151515815260200191505060405180910390f35b6105676004803603604081101561054757600080fd5b810190808035906020019092919080359060200190929190505050610fa8565b604051808273ffffffffffffffffffffffffffffffffffffffff1673ffffffffffffffffffffffffffffffffffffffff16815260200191505060405180910390f35b6105d5600480360360208110156105bf57600080fd5b8101908080359060200190929190505050610ff3565b005b6105df6113bb565b6040518082815260200191505060405180910390f35b61062b6004803603604081101561060b57600080fd5b8101908080359060200190929190803590602001909291905050506113c1565b005b61066f6004803603602081101561064357600080fd5b81019080803573ffffffffffffffffffffffffffffffffffffffff169060200190929190505050611693565b6040518082815260200191505060405180910390f35b6000600880549050905090565b61069b33610f8b565b6106f0576040517f08c379a000000000000000000000000000000000000000000000000000000000815260040180806020018281038252603081526020018061209f6030913960400191505060405180910390fd5b600042905060006107d76001600860405180608001604052808773ffffffffffffffffffffffffffffffffffffffff1681526020016000815260200186815260200160008152509080600181540180825580915050906001820390600052602060002090600402016000909192909190915060008201518160000160006101000a81548173ffffffffffffffffffffffffffffffffffffffff021916908373ffffffffffffffffffffffffffffffffffffffff16021790555060208201518160010155604082015181600201556060820151816003015550506116ab90919063ffffffff16565b905080600960008573ffffffffffffffffffffffffffffffffffffffff1673ffffffffffffffffffffffffffffffffffffffff16815260200190815260200160002081905550505050565b6000600460009054906101000a900460ff16905090565b600160009054906101000a900473ffffffffffffffffffffffffffffffffffffffff1681565b6008818154811061086c57fe5b90600052602060002090600402016000915090508060000160009054906101000a900473ffffffffffffffffffffffffffffffffffffffff16908060010154908060020154908060030154905084565b6000600883815481106108cb57fe5b906000526020600020906004020190506000600b600085815260200190815260200160002060003373ffffffffffffffffffffffffffffffffffffffff1673ffffffffffffffffffffffffffffffffffffffff168152602001908152602001600020905082816000015410156109a9576040517f08c379a00000000000000000000000000000000000000000000000000000000081526004018080602001828103825260208152602001807f63616e2774207769746864726177206f76657220796f7572206465706f73697481525060200191505060405180910390fd5b82816000015414156109bf576109be84610ff3565b5b6109d4836003546116ab90919063ffffffff16565b6003819055506109f18383600101546116ab90919063ffffffff16565b8260010181905550610a016116f5565b610a188382600001546116ab90919063ffffffff16565b81600001819055508160000160009054906101000a900473ffffffffffffffffffffffffffffffffffffffff1673ffffffffffffffffffffffffffffffffffffffff1663a9059cbb33856040518363ffffffff1660e01b8152600401808373ffffffffffffffffffffffffffffffffffffffff1673ffffffffffffffffffffffffffffffffffffffff16815260200182815260200192505050602060405180830381600087803b158015610acb57600080fd5b505af1158015610adf573d6000803e3d6000fd5b505050506040513d6020811015610af557600080fd5b810190808051906020019092919050505050833373ffffffffffffffffffffffffffffffffffffffff167ff279e6a1f5e320cca91135676d9cb6e44ca8a08c0b88342bcdb1144f6511b568856040518082815260200191505060405180910390a350505050565b60008060088481548110610b6c57fe5b906000526020600020906004020190506000610b888585610c03565b9050610bdd612710610bcf83610bc18660030154610bb38860020154426116ab90919063ffffffff16565b611a0690919063ffffffff16565b611a0690919063ffffffff16565b611a8c90919063ffffffff16565b9250505092915050565b6000610bfe426006546116ab90919063ffffffff16565b905090565b60008060088481548110610c1357fe5b906000526020600020906004020190506000600b600086815260200190815260200160002060008573ffffffffffffffffffffffffffffffffffffffff1673ffffffffffffffffffffffffffffffffffffffff168152602001908152602001600020905060008260000160009054906101000a900473ffffffffffffffffffffffffffffffffffffffff1673ffffffffffffffffffffffffffffffffffffffff166370a08231306040518263ffffffff1660e01b8152600401808273ffffffffffffffffffffffffffffffffffffffff1673ffffffffffffffffffffffffffffffffffffffff16815260200191505060206040518083038186803b158015610d1a57600080fd5b505afa158015610d2e573d6000803e3d6000fd5b505050506040513d6020811015610d4457600080fd5b81019080805190602001909291905050501415610d6657600092505050610e76565b6000610e6d8360000160009054906101000a900473ffffffffffffffffffffffffffffffffffffffff1673ffffffffffffffffffffffffffffffffffffffff166370a08231306040518263ffffffff1660e01b8152600401808273ffffffffffffffffffffffffffffffffffffffff1673ffffffffffffffffffffffffffffffffffffffff16815260200191505060206040518083038186803b158015610e0c57600080fd5b505afa158015610e20573d6000803e3d6000fd5b505050506040513d6020811015610e3657600080fd5b8101908080519060200190929190505050610e5f60648560000154611a0690919063ffffffff16565b611a8c90919063ffffffff16565b90508093505050505b92915050565b600b602052816000526040600020602052806000526040600020600091509150508060000154908060010154905082565b60035481565b610ebc33610f8b565b610f11576040517f08c379a000000000000000000000000000000000000000000000000000000000815260040180806020018281038252603081526020018061209f6030913960400191505060405180910390fd5b610f1a81611ad6565b50565b610f2633611b30565b565b600080600b600085815260200190815260200160002060008473ffffffffffffffffffffffffffffffffffffffff1673ffffffffffffffffffffffffffffffffffffffff1681526020019081526020016000209050806001015491505092915050565b6000610fa1826000611b8a90919063ffffffff16565b9050919050565b600a6020528160005260406000208181548110610fc157fe5b906000526020600020016000915091509054906101000a900473ffffffffffffffffffffffffffffffffffffffff1681565b60006008828154811061100257fe5b906000526020600020906004020190506000600b600084815260200190815260200160002060003373ffffffffffffffffffffffffffffffffffffffff1673ffffffffffffffffffffffffffffffffffffffff168152602001908152602001600020905060006110728433610c03565b905060006110c96127106110bb846110ad886003015461109f8a60020154426116ab90919063ffffffff16565b611a0690919063ffffffff16565b611a0690919063ffffffff16565b611a8c90919063ffffffff16565b905060006110e4828560010154611c6890919063ffffffff16565b90506000600460009054906101000a900460ff1660ff16146112de57611108611cf0565b60006111426064611134600460009054906101000a900460ff1660ff1685611a0690919063ffffffff16565b611a8c90919063ffffffff16565b9050600160009054906101000a900473ffffffffffffffffffffffffffffffffffffffff1673ffffffffffffffffffffffffffffffffffffffff166340c10f193361119684866116ab90919063ffffffff16565b6040518363ffffffff1660e01b8152600401808373ffffffffffffffffffffffffffffffffffffffff1673ffffffffffffffffffffffffffffffffffffffff16815260200182815260200192505050600060405180830381600087803b1580156111ff57600080fd5b505af1158015611213573d6000803e3d6000fd5b50505050600160009054906101000a900473ffffffffffffffffffffffffffffffffffffffff1673ffffffffffffffffffffffffffffffffffffffff1663282d3fdf33836040518363ffffffff1660e01b8152600401808373ffffffffffffffffffffffffffffffffffffffff1673ffffffffffffffffffffffffffffffffffffffff16815260200182815260200192505050600060405180830381600087803b1580156112c057600080fd5b505af11580156112d4573d6000803e3d6000fd5b50505050506113a0565b600160009054906101000a900473ffffffffffffffffffffffffffffffffffffffff1673ffffffffffffffffffffffffffffffffffffffff166340c10f1933836040518363ffffffff1660e01b8152600401808373ffffffffffffffffffffffffffffffffffffffff1673ffffffffffffffffffffffffffffffffffffffff16815260200182815260200192505050600060405180830381600087803b15801561138757600080fd5b505af115801561139b573d6000803e3d6000fd5b505050505b42856002018190555060008460010181905550505050505050565b60025481565b6000600883815481106113d057fe5b906000526020600020906004020190506000600b600085815260200190815260200160002060003373ffffffffffffffffffffffffffffffffffffffff1673ffffffffffffffffffffffffffffffffffffffff168152602001908152602001600020905061144983600354611c6890919063ffffffff16565b600381905550611466838360010154611c6890919063ffffffff16565b82600101819055506114766116f5565b61148d838260000154611c6890919063ffffffff16565b81600001819055508160000160009054906101000a900473ffffffffffffffffffffffffffffffffffffffff1673ffffffffffffffffffffffffffffffffffffffff166323b872dd3330866040518463ffffffff1660e01b8152600401808473ffffffffffffffffffffffffffffffffffffffff1673ffffffffffffffffffffffffffffffffffffffff1681526020018373ffffffffffffffffffffffffffffffffffffffff1673ffffffffffffffffffffffffffffffffffffffff1681526020018281526020019350505050602060405180830381600087803b15801561157457600080fd5b505af1158015611588573d6000803e3d6000fd5b505050506040513d602081101561159e57600080fd5b810190808051906020019092919050505050833373ffffffffffffffffffffffffffffffffffffffff167f90890809c654f11d6e72a28fa60149770a0d11ec6c92319d6ceb2bb0a4ea1a15856040518082815260200191505060405180910390a3828160000154141561168d57600a60008581526020019081526020016000203390806001815401808255809150509060018203906000526020600020016000909192909190916101000a81548173ffffffffffffffffffffffffffffffffffffffff021916908373ffffffffffffffffffffffffffffffffffffffff16021790555050600081600101819055505b50505050565b60096020528060005260406000206000915090505481565b60006116ed83836040518060400160405280601e81526020017f536166654d6174683a207375627472616374696f6e206f766572666c6f770000815250611d80565b905092915050565b60008090505b600880549050811015611a035760008090505b600a6000838152602001908152602001600020805490508110156118fe5760006008838154811061173b57fe5b906000526020600020906004020160010154146118f1576118516117a783600a6000868152602001908152602001600020848154811061177757fe5b9060005260206000200160009054906101000a900473ffffffffffffffffffffffffffffffffffffffff16610b5c565b600b60008581526020019081526020016000206000600a600087815260200190815260200160002085815481106117da57fe5b9060005260206000200160009054906101000a900473ffffffffffffffffffffffffffffffffffffffff1673ffffffffffffffffffffffffffffffffffffffff1673ffffffffffffffffffffffffffffffffffffffff16815260200190815260200160002060010154611c6890919063ffffffff16565b600b60008481526020019081526020016000206000600a6000868152602001908152602001600020848154811061188457fe5b9060005260206000200160009054906101000a900473ffffffffffffffffffffffffffffffffffffffff1673ffffffffffffffffffffffffffffffffffffffff1673ffffffffffffffffffffffffffffffffffffffff168152602001908152602001600020600101819055505b808060010191505061170e565b50600060035414156119565760006008828154811061191957fe5b906000526020600020906004020160030181905550426008828154811061193c57fe5b9060005260206000209060040201600201819055506119f6565b6119b06002546119a260035461199460646008878154811061197457fe5b906000526020600020906004020160010154611a0690919063ffffffff16565b611a8c90919063ffffffff16565b611a0690919063ffffffff16565b600882815481106119bd57fe5b90600052602060002090600402016003018190555042600882815481106119e057fe5b9060005260206000209060040201600201819055505b80806001019150506116fb565b50565b600080831415611a195760009050611a86565b6000828402905082848281611a2a57fe5b0414611a81576040517f08c379a00000000000000000000000000000000000000000000000000000000081526004018080602001828103825260218152602001806120f06021913960400191505060405180910390fd5b809150505b92915050565b6000611ace83836040518060400160405280601a81526020017f536166654d6174683a206469766973696f6e206279207a65726f000000000000815250611e40565b905092915050565b611aea816000611f0690919063ffffffff16565b8073ffffffffffffffffffffffffffffffffffffffff167f6ae172837ea30b801fbfcdd4108aa1d5bf8ff775444fd70256b44e6bf3dfc3f660405160405180910390a250565b611b44816000611fe190919063ffffffff16565b8073ffffffffffffffffffffffffffffffffffffffff167fe94479a9f7e1952cc78f2d6baab678adc1b772d936c6583def489e524cb6669260405160405180910390a250565b60008073ffffffffffffffffffffffffffffffffffffffff168273ffffffffffffffffffffffffffffffffffffffff161415611c11576040517f08c379a00000000000000000000000000000000000000000000000000000000081526004018080602001828103825260228152602001806121116022913960400191505060405180910390fd5b8260000160008373ffffffffffffffffffffffffffffffffffffffff1673ffffffffffffffffffffffffffffffffffffffff16815260200190815260200160002060009054906101000a900460ff16905092915050565b600080828401905083811015611ce6576040517f08c379a000000000000000000000000000000000000000000000000000000000815260040180806020018281038252601b8152602001807f536166654d6174683a206164646974696f6e206f766572666c6f77000000000081525060200191505060405180910390fd5b8091505092915050565b5b6006544210611d7e576002600460009054906101000a900460ff1660ff1610611d3f57611d3a6002600460009054906101000a900460ff1660ff166116ab90919063ffffffff16565b611d42565b60005b600460006101000a81548160ff021916908360ff160217905550611d73600754600654611c6890919063ffffffff16565b600681905550611cf1565b565b6000838311158290611e2d576040517f08c379a00000000000000000000000000000000000000000000000000000000081526004018080602001828103825283818151815260200191508051906020019080838360005b83811015611df2578082015181840152602081019050611dd7565b50505050905090810190601f168015611e1f5780820380516001836020036101000a031916815260200191505b509250505060405180910390fd5b5060008385039050809150509392505050565b60008083118290611eec576040517f08c379a00000000000000000000000000000000000000000000000000000000081526004018080602001828103825283818151815260200191508051906020019080838360005b83811015611eb1578082015181840152602081019050611e96565b50505050905090810190601f168015611ede5780820380516001836020036101000a031916815260200191505b509250505060405180910390fd5b506000838581611ef857fe5b049050809150509392505050565b611f108282611b8a565b15611f83576040517f08c379a000000000000000000000000000000000000000000000000000000000815260040180806020018281038252601f8152602001807f526f6c65733a206163636f756e7420616c72656164792068617320726f6c650081525060200191505060405180910390fd5b60018260000160008373ffffffffffffffffffffffffffffffffffffffff1673ffffffffffffffffffffffffffffffffffffffff16815260200190815260200160002060006101000a81548160ff0219169083151502179055505050565b611feb8282611b8a565b612040576040517f08c379a00000000000000000000000000000000000000000000000000000000081526004018080602001828103825260218152602001806120cf6021913960400191505060405180910390fd5b60008260000160008373ffffffffffffffffffffffffffffffffffffffff1673ffffffffffffffffffffffffffffffffffffffff16815260200190815260200160002060006101000a81548160ff021916908315150217905550505056fe4d696e746572526f6c653a2063616c6c657220646f6573206e6f74206861766520746865204d696e74657220726f6c65526f6c65733a206163636f756e7420646f6573206e6f74206861766520726f6c65536166654d6174683a206d756c7469706c69636174696f6e206f766572666c6f77526f6c65733a206163636f756e7420697320746865207a65726f2061646472657373a165627a7a72305820ac32d4357c42a037cf87d79197a9fd955c2af64161a1fd910fb2406ad3a183010029526f6c65733a206163636f756e7420697320746865207a65726f2061646472657373",
  "source": "// // SPDX-License-Identifier: MIT\r\npragma solidity ^0.5.6;\r\n\r\nimport \"@klaytn/contracts/token/KIP7/KIP7.sol\";\r\nimport \"@klaytn/contracts/token/KIP7/IKIP7.sol\";\r\nimport \"@klaytn/contracts/math/SafeMath.sol\";\r\nimport \"@klaytn/contracts/access/roles/MinterRole.sol\";\r\nimport \"./Token.sol\";\r\n\r\ncontract Master is MinterRole {\r\n\r\n    using SafeMath for uint256;\r\n\r\n    struct userinfo {\r\n        uint256 amount;\r\n        uint256 reward;\r\n    }\r\n\r\n    struct poolinfo {\r\n        address lpToken;\r\n        uint256 stakeAmount; //  \r\n        uint256 lastUpdatedTime; //   \r\n        uint256 URUPerShare; //     URU\r\n    }\r\n\r\n    Token public uru;\r\n    uint256 public URUperblock; // 25,  klaytn    (1)  URU\r\n    uint256 public totalStakeAmount = 0;\r\n    \r\n    // lock  \r\n    uint8 lockedPercentage = 95;\r\n    uint256 lockStartTime;\r\n    uint256 nextEpoch;\r\n    uint256 epochDuration;\r\n\r\n    poolinfo[] public poolInfo;\r\n    mapping(address => uint256) public poolId;\r\n    mapping(uint256 => address[]) public userList; \r\n    mapping(uint256 => mapping(address => userinfo)) public userInfo;\r\n\r\n    event Deposit(address indexed user, uint256 indexed pid, uint256 amount);\r\n    event Withdraw(address indexed user, uint256 indexed pid, uint256 amount);\r\n\r\n    constructor (\r\n        Token _uru,\r\n        uint256 _URUperblock, // 25\r\n        uint256 _epochDuration \r\n    ) public {\r\n        uru = _uru;\r\n        URUperblock = _URUperblock;\r\n\r\n        // lock \r\n        lockStartTime = block.timestamp;\r\n        nextEpoch = block.timestamp.add(_epochDuration);\r\n        epochDuration = _epochDuration;\r\n\r\n    }\r\n\r\n    //  pool  \r\n    function poolLength() external view returns (uint256) {\r\n        return poolInfo.length;\r\n    }\r\n\r\n\r\n    //  lp-token \r\n    function add(address _lpToken) external onlyMinter {\r\n        uint256 lastUpdatedTime = block.timestamp;\r\n        uint256 id = poolInfo.push(\r\n            poolinfo({\r\n                lpToken: _lpToken,\r\n                stakeAmount: 0,\r\n                lastUpdatedTime: lastUpdatedTime,\r\n                URUPerShare: 0\r\n            })\r\n        ).sub(1);\r\n        poolId[_lpToken] = id;\r\n    }\r\n\r\n    // _pid : poolInfo index (pool )\r\n    function deposit(uint256 _pid, uint256 _amount) public {\r\n        poolinfo storage pool = poolInfo[_pid];\r\n        userinfo storage user = userInfo[_pid][msg.sender];\r\n\r\n        // URUPerShare    \r\n        totalStakeAmount = totalStakeAmount.add(_amount);\r\n        pool.stakeAmount = pool.stakeAmount.add(_amount);\r\n\r\n        //     \r\n        updatePool();\r\n        user.amount = user.amount.add(_amount);\r\n\r\n        //  \r\n        KIP7(pool.lpToken).transferFrom(msg.sender, address(this), _amount);\r\n        emit Deposit(msg.sender, _pid, _amount);\r\n\r\n        //    \r\n        if (user.amount == _amount) {\r\n            userList[_pid].push(msg.sender);\r\n            user.reward = 0;\r\n        }\r\n    }\r\n\r\n    // lp-token \r\n    function withdraw(uint256 _pid, uint256 _amount) public {\r\n        poolinfo storage pool = poolInfo[_pid];\r\n        userinfo storage user = userInfo[_pid][msg.sender];\r\n        require(user.amount >= _amount, \"can't withdraw over your deposit\");\r\n\r\n        //     \r\n        if (user.amount == _amount) {\r\n            harvest(_pid);\r\n        }\r\n\r\n        totalStakeAmount = totalStakeAmount.sub(_amount);\r\n        pool.stakeAmount = pool.stakeAmount.sub(_amount);\r\n\r\n        updatePool();\r\n        user.amount = user.amount.sub(_amount);\r\n\r\n        KIP7(pool.lpToken).transfer(msg.sender, _amount);\r\n        emit Withdraw(msg.sender, _pid, _amount);\r\n    }\r\n\r\n    //  \r\n    function harvest(uint256 _pid) public {\r\n        poolinfo storage pool = poolInfo[_pid];\r\n        userinfo storage user = userInfo[_pid][msg.sender];\r\n\r\n        uint256 userContribution = calculateContribute(_pid, msg.sender);  \r\n\r\n        //   reward   (1) +   lastUpdatedTime     urupershare  (2) \r\n        //  reward 0    lastUpdatedTime . \r\n        //     harvest   2    .\r\n\r\n\r\n        // contribution urupershare   100  10000  \r\n        uint256 nowReward = block.timestamp.sub(pool.lastUpdatedTime).mul(pool.URUPerShare).mul(userContribution).div(10000);\r\n        uint256 toTransfer = (user.reward).add(nowReward);\r\n\r\n        if (lockedPercentage != 0) {\r\n            _calculateLockedPercentage();\r\n            uint256 lockedTokenAmount = toTransfer.mul(uint256(lockedPercentage)).div(100);\r\n            uru.mint(msg.sender, toTransfer.sub(lockedTokenAmount));\r\n            uru.lock(msg.sender, lockedTokenAmount);\r\n        }\r\n        else {\r\n            uru.mint(msg.sender, toTransfer);\r\n        }\r\n\r\n        pool.lastUpdatedTime = block.timestamp;\r\n        user.reward = 0;\r\n    }\r\n\r\n    //                 reward \r\n    function updatePool() internal {\r\n        for (uint256 i = 0; i < poolInfo.length; i++) {\r\n            for (uint256 j = 0; j < userList[i].length; j++) {\r\n                if (poolInfo[i].stakeAmount != 0) {\r\n                userInfo[i][userList[i][j]].reward = userInfo[i][userList[i][j]].reward.add(calculateCurrentReward(i, userList[i][j]));\r\n                }\r\n            }\r\n            //   \r\n            if (totalStakeAmount == 0) {\r\n                poolInfo[i].URUPerShare = 0;\r\n                poolInfo[i].lastUpdatedTime = block.timestamp;\r\n            } else {\r\n                poolInfo[i].URUPerShare = (poolInfo[i].stakeAmount).mul(100).div(totalStakeAmount).mul(URUperblock);\r\n                poolInfo[i].lastUpdatedTime = block.timestamp;\r\n            }\r\n        }\r\n    }\r\n\r\n    //    \r\n    function calculateContribute(uint256 _pid, address _user) public view returns(uint256) {\r\n        poolinfo storage pool = poolInfo[_pid];\r\n        userinfo storage user = userInfo[_pid][_user];\r\n\r\n        if(KIP7(pool.lpToken).balanceOf(address(this)) == 0){\r\n            return 0;\r\n        }\r\n        uint256 contribution = (user.amount.mul(100)).div((KIP7(pool.lpToken)).balanceOf(address(this)));\r\n        return contribution;\r\n    }\r\n\r\n    //       \r\n    function calculateCurrentReward(uint256 _pid, address _user) public view returns(uint256) {\r\n        poolinfo storage pool = poolInfo[_pid];\r\n\r\n        uint256 userContribution = calculateContribute(_pid, _user); \r\n        return block.timestamp.sub(pool.lastUpdatedTime).mul(pool.URUPerShare).mul(userContribution).div(10000);\r\n    }\r\n\r\n    // struct     \r\n    function calculateReward(uint256 _pid, address _user) public view returns(uint256) {\r\n        userinfo storage user = userInfo[_pid][_user];\r\n        return user.reward;\r\n    }    \r\n\r\n    function countDown() public view returns (uint256 count){\r\n        count = nextEpoch.sub(block.timestamp);\r\n    }\r\n\r\n    function currentLockedPercentage() public view returns (uint8) {\r\n        return lockedPercentage;\r\n    }\r\n\r\n    function _calculateLockedPercentage() internal {\r\n    //    nextEpoch   = lockedPercentage .\r\n        while (block.timestamp >= nextEpoch) {\r\n            lockedPercentage = lockedPercentage < 2 ? 0 : uint8(uint256(lockedPercentage).sub(2));\r\n            nextEpoch = nextEpoch.add(epochDuration);\r\n        }\r\n    }\r\n}",
  "sourcePath": "D:\\GitHub\\beb-03-DND\\contract\\contracts\\Master.sol",
  "compiler": {
    "name": "solc",
    "version": "0.5.6+commit.b259423e.Emscripten.clang"
  },
  "schemaVersion": "3.4.7",
  "updatedAt": "2022-05-31T01:50:18.960Z",
  "networkType": "ethereum",
  "devdoc": {
    "methods": {}
  },
  "userdoc": {
    "methods": {}
  }
}