{
  "contractName": "Master",
  "abi": [
    {
      "constant": true,
      "inputs": [],
      "name": "uru",
      "outputs": [
        {
          "name": "",
          "type": "address"
        }
      ],
      "payable": false,
      "stateMutability": "view",
      "type": "function"
    },
    {
      "constant": true,
      "inputs": [
        {
          "name": "",
          "type": "uint256"
        }
      ],
      "name": "poolInfo",
      "outputs": [
        {
          "name": "lpToken",
          "type": "address"
        },
        {
          "name": "stakeAmount",
          "type": "uint256"
        },
        {
          "name": "lastUpdatedTime",
          "type": "uint256"
        },
        {
          "name": "URUPerShare",
          "type": "uint256"
        }
      ],
      "payable": false,
      "stateMutability": "view",
      "type": "function"
    },
    {
      "constant": true,
      "inputs": [],
      "name": "startTime",
      "outputs": [
        {
          "name": "",
          "type": "uint256"
        }
      ],
      "payable": false,
      "stateMutability": "view",
      "type": "function"
    },
    {
      "constant": true,
      "inputs": [
        {
          "name": "",
          "type": "uint256"
        },
        {
          "name": "",
          "type": "address"
        }
      ],
      "name": "userInfo",
      "outputs": [
        {
          "name": "amount",
          "type": "uint256"
        },
        {
          "name": "reward",
          "type": "uint256"
        }
      ],
      "payable": false,
      "stateMutability": "view",
      "type": "function"
    },
    {
      "constant": true,
      "inputs": [],
      "name": "totalStakeAmount",
      "outputs": [
        {
          "name": "",
          "type": "uint256"
        }
      ],
      "payable": false,
      "stateMutability": "view",
      "type": "function"
    },
    {
      "constant": true,
      "inputs": [
        {
          "name": "",
          "type": "uint256"
        },
        {
          "name": "",
          "type": "uint256"
        }
      ],
      "name": "userList",
      "outputs": [
        {
          "name": "",
          "type": "address"
        }
      ],
      "payable": false,
      "stateMutability": "view",
      "type": "function"
    },
    {
      "constant": true,
      "inputs": [],
      "name": "URUperblock",
      "outputs": [
        {
          "name": "",
          "type": "uint256"
        }
      ],
      "payable": false,
      "stateMutability": "view",
      "type": "function"
    },
    {
      "inputs": [
        {
          "name": "_uru",
          "type": "address"
        },
        {
          "name": "_URUperblock",
          "type": "uint256"
        }
      ],
      "payable": false,
      "stateMutability": "nonpayable",
      "type": "constructor"
    },
    {
      "anonymous": false,
      "inputs": [
        {
          "indexed": true,
          "name": "user",
          "type": "address"
        },
        {
          "indexed": true,
          "name": "pid",
          "type": "uint256"
        },
        {
          "indexed": false,
          "name": "amount",
          "type": "uint256"
        }
      ],
      "name": "Deposit",
      "type": "event"
    },
    {
      "anonymous": false,
      "inputs": [
        {
          "indexed": true,
          "name": "user",
          "type": "address"
        },
        {
          "indexed": true,
          "name": "pid",
          "type": "uint256"
        },
        {
          "indexed": false,
          "name": "amount",
          "type": "uint256"
        }
      ],
      "name": "Withdraw",
      "type": "event"
    },
    {
      "constant": true,
      "inputs": [],
      "name": "poolLength",
      "outputs": [
        {
          "name": "",
          "type": "uint256"
        }
      ],
      "payable": false,
      "stateMutability": "view",
      "type": "function"
    },
    {
      "constant": false,
      "inputs": [
        {
          "name": "_lpToken",
          "type": "address"
        }
      ],
      "name": "add",
      "outputs": [],
      "payable": false,
      "stateMutability": "nonpayable",
      "type": "function"
    },
    {
      "constant": false,
      "inputs": [
        {
          "name": "_pid",
          "type": "uint256"
        },
        {
          "name": "_amount",
          "type": "uint256"
        }
      ],
      "name": "deposit",
      "outputs": [],
      "payable": false,
      "stateMutability": "nonpayable",
      "type": "function"
    },
    {
      "constant": false,
      "inputs": [
        {
          "name": "_pid",
          "type": "uint256"
        },
        {
          "name": "_amount",
          "type": "uint256"
        }
      ],
      "name": "withdraw",
      "outputs": [],
      "payable": false,
      "stateMutability": "nonpayable",
      "type": "function"
    },
    {
      "constant": false,
      "inputs": [
        {
          "name": "_pid",
          "type": "uint256"
        }
      ],
      "name": "harvest",
      "outputs": [],
      "payable": false,
      "stateMutability": "nonpayable",
      "type": "function"
    },
    {
      "constant": true,
      "inputs": [
        {
          "name": "_pid",
          "type": "uint256"
        },
        {
          "name": "_user",
          "type": "address"
        },
        {
          "name": "_amount",
          "type": "uint256"
        }
      ],
      "name": "calculateContribute",
      "outputs": [
        {
          "name": "",
          "type": "uint256"
        }
      ],
      "payable": false,
      "stateMutability": "view",
      "type": "function"
    },
    {
      "constant": true,
      "inputs": [
        {
          "name": "_pid",
          "type": "uint256"
        },
        {
          "name": "_user",
          "type": "address"
        }
      ],
      "name": "calculateCurrentReward",
      "outputs": [
        {
          "name": "",
          "type": "uint256"
        }
      ],
      "payable": false,
      "stateMutability": "view",
      "type": "function"
    },
    {
      "constant": true,
      "inputs": [
        {
          "name": "_pid",
          "type": "uint256"
        },
        {
          "name": "_user",
          "type": "address"
        }
      ],
      "name": "calculateReward",
      "outputs": [
        {
          "name": "",
          "type": "uint256"
        }
      ],
      "payable": false,
      "stateMutability": "view",
      "type": "function"
    }
  ],
  "bytecode": "0x6080604052600060035534801561001557600080fd5b506040516040806117cd8339810180604052604081101561003557600080fd5b810190808051906020019092919080519060200190929190505050816000806101000a81548173ffffffffffffffffffffffffffffffffffffffff021916908373ffffffffffffffffffffffffffffffffffffffff160217905550806001819055505050611725806100a86000396000f3fe608060405234801561001057600080fd5b50600436106100f55760003560e01c8063828e03fb11610097578063ae2349de11610066578063ae2349de14610436578063ddc63262146104ae578063e0312ed7146104dc578063e2bbb158146104fa576100f5565b8063828e03fb146102e157806393f1a40b1461034d57806394409a56146103b6578063a18f07a0146103d4576100f5565b80631526fe27116100d35780631526fe27146101a6578063441a3e70146102295780635f7977951461026157806378e97925146102c3576100f5565b8063081e3eda146100fa5780630a3b0a4f14610118578063103c07dc1461015c575b600080fd5b610102610532565b6040518082815260200191505060405180910390f35b61015a6004803603602081101561012e57600080fd5b81019080803573ffffffffffffffffffffffffffffffffffffffff16906020019092919050505061053f565b005b610164610616565b604051808273ffffffffffffffffffffffffffffffffffffffff1673ffffffffffffffffffffffffffffffffffffffff16815260200191505060405180910390f35b6101d2600480360360208110156101bc57600080fd5b810190808035906020019092919050505061063b565b604051808573ffffffffffffffffffffffffffffffffffffffff1673ffffffffffffffffffffffffffffffffffffffff16815260200184815260200183815260200182815260200194505050505060405180910390f35b61025f6004803603604081101561023f57600080fd5b810190808035906020019092919080359060200190929190505050610698565b005b6102ad6004803603604081101561027757600080fd5b8101908080359060200190929190803573ffffffffffffffffffffffffffffffffffffffff169060200190929190505050610939565b6040518082815260200191505060405180910390f35b6102cb6109c6565b6040518082815260200191505060405180910390f35b610337600480360360608110156102f757600080fd5b8101908080359060200190929190803573ffffffffffffffffffffffffffffffffffffffff169060200190929190803590602001909291905050506109cc565b6040518082815260200191505060405180910390f35b6103996004803603604081101561036357600080fd5b8101908080359060200190929190803573ffffffffffffffffffffffffffffffffffffffff169060200190929190505050610b68565b604051808381526020018281526020019250505060405180910390f35b6103be610b99565b6040518082815260200191505060405180910390f35b610420600480360360408110156103ea57600080fd5b8101908080359060200190929190803573ffffffffffffffffffffffffffffffffffffffff169060200190929190505050610b9f565b6040518082815260200191505060405180910390f35b61046c6004803603604081101561044c57600080fd5b810190808035906020019092919080359060200190929190505050610c02565b604051808273ffffffffffffffffffffffffffffffffffffffff1673ffffffffffffffffffffffffffffffffffffffff16815260200191505060405180910390f35b6104da600480360360208110156104c457600080fd5b8101908080359060200190929190505050610c4d565b005b6104e4610e1d565b6040518082815260200191505060405180910390f35b6105306004803603604081101561051057600080fd5b810190808035906020019092919080359060200190929190505050610e23565b005b6000600480549050905090565b6000429050600460405180608001604052808473ffffffffffffffffffffffffffffffffffffffff1681526020016000815260200183815260200160008152509080600181540180825580915050906001820390600052602060002090600402016000909192909190915060008201518160000160006101000a81548173ffffffffffffffffffffffffffffffffffffffff021916908373ffffffffffffffffffffffffffffffffffffffff1602179055506020820151816001015560408201518160020155606082015181600301555050505050565b6000809054906101000a900473ffffffffffffffffffffffffffffffffffffffff1681565b6004818154811061064857fe5b90600052602060002090600402016000915090508060000160009054906101000a900473ffffffffffffffffffffffffffffffffffffffff16908060010154908060020154908060030154905084565b6000600483815481106106a757fe5b9060005260206000209060040201905060006006600085815260200190815260200160002060003373ffffffffffffffffffffffffffffffffffffffff1673ffffffffffffffffffffffffffffffffffffffff16815260200190815260200160002090508281600001541015610785576040517f08c379a00000000000000000000000000000000000000000000000000000000081526004018080602001828103825260208152602001807f63616e2774207769746864726177206f76657220796f7572206465706f73697481525060200191505060405180910390fd5b828160000154141561079b5761079a84610c4d565b5b6107b0836003546110f690919063ffffffff16565b6003819055506107cd8383600101546110f690919063ffffffff16565b82600101819055506107ec8382600001546110f690919063ffffffff16565b81600001819055508160000160009054906101000a900473ffffffffffffffffffffffffffffffffffffffff1673ffffffffffffffffffffffffffffffffffffffff1663a9059cbb33856040518363ffffffff1660e01b8152600401808373ffffffffffffffffffffffffffffffffffffffff1673ffffffffffffffffffffffffffffffffffffffff16815260200182815260200192505050602060405180830381600087803b15801561089f57600080fd5b505af11580156108b3573d6000803e3d6000fd5b505050506040513d60208110156108c957600080fd5b810190808051906020019092919050505050833373ffffffffffffffffffffffffffffffffffffffff167ff279e6a1f5e320cca91135676d9cb6e44ca8a08c0b88342bcdb1144f6511b568856040518082815260200191505060405180910390a361093383611140565b50505050565b6000806004848154811061094957fe5b906000526020600020906004020190506000610967858560006109cc565b90506109bc6127106109ae836109a086600301546109928860020154426110f690919063ffffffff16565b6113fa90919063ffffffff16565b6113fa90919063ffffffff16565b61148090919063ffffffff16565b9250505092915050565b60025481565b600080600485815481106109dc57fe5b9060005260206000209060040201905060006006600087815260200190815260200160002060008673ffffffffffffffffffffffffffffffffffffffff1673ffffffffffffffffffffffffffffffffffffffff16815260200190815260200160002090506000610b59610b33868560000160009054906101000a900473ffffffffffffffffffffffffffffffffffffffff1673ffffffffffffffffffffffffffffffffffffffff166370a08231306040518263ffffffff1660e01b8152600401808273ffffffffffffffffffffffffffffffffffffffff1673ffffffffffffffffffffffffffffffffffffffff16815260200191505060206040518083038186803b158015610aea57600080fd5b505afa158015610afe573d6000803e3d6000fd5b505050506040513d6020811015610b1457600080fd5b81019080805190602001909291905050506110f690919063ffffffff16565b610b4b606485600001546113fa90919063ffffffff16565b61148090919063ffffffff16565b90508093505050509392505050565b6006602052816000526040600020602052806000526040600020600091509150508060000154908060010154905082565b60035481565b6000806006600085815260200190815260200160002060008473ffffffffffffffffffffffffffffffffffffffff1673ffffffffffffffffffffffffffffffffffffffff1681526020019081526020016000209050806001015491505092915050565b60056020528160005260406000208181548110610c1b57fe5b906000526020600020016000915091509054906101000a900473ffffffffffffffffffffffffffffffffffffffff1681565b600060048281548110610c5c57fe5b9060005260206000209060040201905060006006600084815260200190815260200160002060003373ffffffffffffffffffffffffffffffffffffffff1673ffffffffffffffffffffffffffffffffffffffff16815260200190815260200160002090506000610cce843360006109cc565b90506000610d25612710610d1784610d098860030154610cfb8a60020154426110f690919063ffffffff16565b6113fa90919063ffffffff16565b6113fa90919063ffffffff16565b61148090919063ffffffff16565b90506000610d408285600101546114ca90919063ffffffff16565b90506000809054906101000a900473ffffffffffffffffffffffffffffffffffffffff1673ffffffffffffffffffffffffffffffffffffffff166340c10f1933836040518363ffffffff1660e01b8152600401808373ffffffffffffffffffffffffffffffffffffffff1673ffffffffffffffffffffffffffffffffffffffff16815260200182815260200192505050600060405180830381600087803b158015610dea57600080fd5b505af1158015610dfe573d6000803e3d6000fd5b5050505042856002018190555060008460010181905550505050505050565b60015481565b600060048381548110610e3257fe5b9060005260206000209060040201905060006006600085815260200190815260200160002060003373ffffffffffffffffffffffffffffffffffffffff1673ffffffffffffffffffffffffffffffffffffffff1681526020019081526020016000209050610eab836003546114ca90919063ffffffff16565b600381905550610ec88383600101546114ca90919063ffffffff16565b8260010181905550610ee78382600001546114ca90919063ffffffff16565b81600001819055508160000160009054906101000a900473ffffffffffffffffffffffffffffffffffffffff1673ffffffffffffffffffffffffffffffffffffffff166323b872dd3330866040518463ffffffff1660e01b8152600401808473ffffffffffffffffffffffffffffffffffffffff1673ffffffffffffffffffffffffffffffffffffffff1681526020018373ffffffffffffffffffffffffffffffffffffffff1673ffffffffffffffffffffffffffffffffffffffff1681526020018281526020019350505050602060405180830381600087803b158015610fce57600080fd5b505af1158015610fe2573d6000803e3d6000fd5b505050506040513d6020811015610ff857600080fd5b810190808051906020019092919050505050833373ffffffffffffffffffffffffffffffffffffffff167f90890809c654f11d6e72a28fa60149770a0d11ec6c92319d6ceb2bb0a4ea1a15856040518082815260200191505060405180910390a361106283611140565b82816000015414156110f057600560008581526020019081526020016000203390806001815401808255809150509060018203906000526020600020016000909192909190916101000a81548173ffffffffffffffffffffffffffffffffffffffff021916908373ffffffffffffffffffffffffffffffffffffffff16021790555050600081600101819055505b50505050565b600061113883836040518060400160405280601e81526020017f536166654d6174683a207375627472616374696f6e206f766572666c6f770000815250611552565b905092915050565b60008090505b6004805490508110156113f65760008090505b60056000838152602001908152602001600020805490508110156113495760006004838154811061118657fe5b9060005260206000209060040201600101541461133c5761129c6111f2836005600086815260200190815260200160002084815481106111c257fe5b9060005260206000200160009054906101000a900473ffffffffffffffffffffffffffffffffffffffff16610939565b60066000858152602001908152602001600020600060056000878152602001908152602001600020858154811061122557fe5b9060005260206000200160009054906101000a900473ffffffffffffffffffffffffffffffffffffffff1673ffffffffffffffffffffffffffffffffffffffff1673ffffffffffffffffffffffffffffffffffffffff168152602001908152602001600020600101546114ca90919063ffffffff16565b6006600084815260200190815260200160002060006005600086815260200190815260200160002084815481106112cf57fe5b9060005260206000200160009054906101000a900473ffffffffffffffffffffffffffffffffffffffff1673ffffffffffffffffffffffffffffffffffffffff1673ffffffffffffffffffffffffffffffffffffffff168152602001908152602001600020600101819055505b8080600101915050611159565b506113a460015461139660035461138860646004878154811061136857fe5b9060005260206000209060040201600101546113fa90919063ffffffff16565b61148090919063ffffffff16565b6113fa90919063ffffffff16565b600482815481106113b157fe5b90600052602060002090600402016003018190555042600482815481106113d457fe5b9060005260206000209060040201600201819055508080600101915050611146565b5050565b60008083141561140d576000905061147a565b600082840290508284828161141e57fe5b0414611475576040517f08c379a00000000000000000000000000000000000000000000000000000000081526004018080602001828103825260218152602001806116d96021913960400191505060405180910390fd5b809150505b92915050565b60006114c283836040518060400160405280601a81526020017f536166654d6174683a206469766973696f6e206279207a65726f000000000000815250611612565b905092915050565b600080828401905083811015611548576040517f08c379a000000000000000000000000000000000000000000000000000000000815260040180806020018281038252601b8152602001807f536166654d6174683a206164646974696f6e206f766572666c6f77000000000081525060200191505060405180910390fd5b8091505092915050565b60008383111582906115ff576040517f08c379a00000000000000000000000000000000000000000000000000000000081526004018080602001828103825283818151815260200191508051906020019080838360005b838110156115c45780820151818401526020810190506115a9565b50505050905090810190601f1680156115f15780820380516001836020036101000a031916815260200191505b509250505060405180910390fd5b5060008385039050809150509392505050565b600080831182906116be576040517f08c379a00000000000000000000000000000000000000000000000000000000081526004018080602001828103825283818151815260200191508051906020019080838360005b83811015611683578082015181840152602081019050611668565b50505050905090810190601f1680156116b05780820380516001836020036101000a031916815260200191505b509250505060405180910390fd5b5060008385816116ca57fe5b04905080915050939250505056fe536166654d6174683a206d756c7469706c69636174696f6e206f766572666c6f77a165627a7a72305820a98a3cabc3f3efdbc1f9bb7fa7cd00b7d212ab6513f116e596f357871e0442cc0029",
  "source": "// // SPDX-License-Identifier: MIT\npragma solidity ^0.5.6;\n\nimport \"@klaytn/contracts/token/KIP7/KIP7.sol\";\nimport \"@klaytn/contracts/token/KIP7/IKIP7.sol\";\nimport \"@klaytn/contracts/math/SafeMath.sol\";\nimport \"./Token.sol\";\n\ncontract Master {\n\n    using SafeMath for uint256;\n\n    struct userinfo {\n        uint256 amount;\n        uint256 reward;\n    }\n\n    struct poolinfo {\n        address lpToken;\n        uint256 stakeAmount; // 풀에 들어와 있는 돈\n        uint256 lastUpdatedTime; // 마지막으로 갱신된 시간\n        uint256 URUPerShare; // 해당 풀의 1단위당 지급할 uru;\n    }\n\n    Token public uru;\n    uint256 public URUperblock; // 25, 즉 klaytn 블록 하나 생성 시간(1초)당 지급할 URU\n    uint256 public startTime; \n    uint256 public totalStakeAmount = 0;\n\n    poolinfo[] public poolInfo;\n    mapping(uint256 => address[]) public userList; \n    mapping(uint256 => mapping(address => userinfo)) public userInfo;\n\n    event Deposit(address indexed user, uint256 indexed pid, uint256 amount);\n    event Withdraw(address indexed user, uint256 indexed pid, uint256 amount);\n\n    constructor (\n        Token _uru,\n        uint256 _URUperblock // 25\n    ) public {\n        uru = _uru;\n        URUperblock = _URUperblock;\n    }\n\n    function poolLength() external view returns (uint256) {\n        return poolInfo.length;\n    }\n\n    // add pool\n    function add(address _lpToken) public {\n        uint256 lastUpdatedTime = block.timestamp;\n        poolInfo.push(\n            poolinfo({\n                lpToken: _lpToken,\n                stakeAmount: 0,\n                lastUpdatedTime: lastUpdatedTime,\n                URUPerShare: 0\n            })\n        );\n    }\n\n    // _pid : poolInfo의 index\n    function deposit(uint256 _pid, uint256 _amount) public {\n        poolinfo storage pool = poolInfo[_pid];\n        userinfo storage user = userInfo[_pid][msg.sender];\n\n        // 입금 및 유저 입금량 저장\n        totalStakeAmount = totalStakeAmount.add(_amount);\n        pool.stakeAmount = pool.stakeAmount.add(_amount);\n        user.amount = user.amount.add(_amount);\n        KIP7(pool.lpToken).transferFrom(msg.sender, address(this), _amount);\n        emit Deposit(msg.sender, _pid, _amount);\n\n        // 누군가 예치했으니 모든 풀에 대해서 분배 비율을 새롭게 조정해야함\n        updatePool(_amount);\n\n        // 새로 예치하는 유저\n        if (user.amount == _amount) {\n            userList[_pid].push(msg.sender);\n            user.reward = 0;\n        }\n    }\n\n    function withdraw(uint256 _pid, uint256 _amount) public {\n        poolinfo storage pool = poolInfo[_pid];\n        userinfo storage user = userInfo[_pid][msg.sender];\n        require(user.amount >= _amount, \"can't withdraw over your deposit\");\n\n        // 전액 인출시 이자도 자동 인출\n        if (user.amount == _amount) {\n            harvest(_pid);\n        }\n\n        totalStakeAmount = totalStakeAmount.sub(_amount);\n        pool.stakeAmount = pool.stakeAmount.sub(_amount);\n        user.amount = user.amount.sub(_amount);\n        KIP7(pool.lpToken).transfer(msg.sender, _amount);\n        emit Withdraw(msg.sender, _pid, _amount);\n\n        // 누군가 인출했으니 모든 풀에 대해서 분배 비율을 새롭게 조정해야함\n        updatePool(_amount);\n    }\n\n    // 이자 받기\n    function harvest(uint256 _pid) public {\n        poolinfo storage pool = poolInfo[_pid];\n        userinfo storage user = userInfo[_pid][msg.sender];\n\n        uint256 userContribution = calculateContribute(_pid, msg.sender, 0);  \n\n        // 현재 마지막으로 reward에 저장되어 있는 값(1) + 해당 풀의 lastUpdatedTime과 현재 블록시간의 차이에다가 현재 urupershare를 곱한 값(2)을 지급\n        // 그리고 reward를 0으로 만들어 버린다. 그리고 인출한 '해당 풀에민' 모든 유저 정보를 업데이트 해줘야 한다.\n        // 왜냐하면 lastUpdatedTime을 갱신해야 하기 때문. 갱신하지 않으면 바로 또 harvest를 했을 때 2가 중복 지급이 되어버리기 떄문임.\n\n        uint256 nowReward = block.timestamp.sub(pool.lastUpdatedTime).mul(pool.URUPerShare).mul(userContribution).div(10000);\n        // contribution이랑 urupershare계산할 때 각각 100씩 곱한거 10000으로 나눠줘서 디코딩\n        uint256 toTransfer = (user.reward).add(nowReward);\n\n        uru.mint(msg.sender, toTransfer);\n\n        pool.lastUpdatedTime = block.timestamp;\n        user.reward = 0;\n    }\n\n    // 예치량의 변동에 따라서 새롭게 풀 끼리의 분배비율을 업데이트 하고 모든 풀의 모든 유저의 그 때까지의 보상을 reward에 스냅샷\n    function updatePool(uint256 _amount) internal {\n        for (uint256 i = 0; i < poolInfo.length; i++) {\n            for (uint256 j = 0; j < userList[i].length; j++) {\n                if (poolInfo[i].stakeAmount != 0) {\n                // uint256 userContribution = calculateContribute(i, userList[i][j]);\n                userInfo[i][userList[i][j]].reward = userInfo[i][userList[i][j]].reward.add(calculateCurrentReward(i, userList[i][j]));\n                // (block.timestamp).sub(poolInfo[i].lastUpdatedTime).mul(poolInfo[i].URUPerShare).mul(userContribution).div(10000);\n                }\n            }\n            // 풀 정보 업데이트\n            poolInfo[i].URUPerShare = (poolInfo[i].stakeAmount).mul(100).div(totalStakeAmount).mul(URUperblock);\n            poolInfo[i].lastUpdatedTime = block.timestamp;\n        }\n    }\n\n    // 풀 내의 비율 계산\n    function calculateContribute(uint256 _pid, address _user, uint256 _amount) public view returns(uint256) {\n        poolinfo storage pool = poolInfo[_pid];\n        userinfo storage user = userInfo[_pid][_user];\n\n        uint256 contribution = (user.amount.mul(100)).div((KIP7(pool.lpToken)).balanceOf(address(this)).sub(_amount));\n        return contribution;\n    }\n\n    // 마지막 갱신 후 현재 쌓이고 있는 보상\n    function calculateCurrentReward(uint256 _pid, address _user) public view returns(uint256) {\n        poolinfo storage pool = poolInfo[_pid];\n\n        uint256 userContribution = calculateContribute(_pid, _user, 0); \n        return block.timestamp.sub(pool.lastUpdatedTime).mul(pool.URUPerShare).mul(userContribution).div(10000);\n    }\n\n    // struct 내에 저장된 보상 반환\n    function calculateReward(uint256 _pid, address _user) public view returns(uint256) {\n        userinfo storage user = userInfo[_pid][_user];\n        return user.reward;\n    }\n}",
  "sourcePath": "/Users/baekdonghyun/Desktop/beb-03-DND/contract/contracts/Master.sol",
  "compiler": {
    "name": "solc",
    "version": "0.5.6+commit.b259423e.Emscripten.clang"
  },
  "schemaVersion": "3.4.5",
  "updatedAt": "2022-05-26T12:20:32.923Z",
  "networkType": "ethereum",
  "devdoc": {
    "methods": {}
  },
  "userdoc": {
    "methods": {}
  }
}