{
  "contractName": "Master",
  "abi": [
    {
      "constant": true,
      "inputs": [],
      "name": "uru",
      "outputs": [
        {
          "name": "",
          "type": "address"
        }
      ],
      "payable": false,
      "stateMutability": "view",
      "type": "function"
    },
    {
      "constant": true,
      "inputs": [
        {
          "name": "",
          "type": "uint256"
        }
      ],
      "name": "poolInfo",
      "outputs": [
        {
          "name": "lpToken",
          "type": "address"
        },
        {
          "name": "stakeAmount",
          "type": "uint256"
        },
        {
          "name": "lastUpdatedTime",
          "type": "uint256"
        },
        {
          "name": "URUPerShare",
          "type": "uint256"
        }
      ],
      "payable": false,
      "stateMutability": "view",
      "type": "function"
    },
    {
      "constant": true,
      "inputs": [],
      "name": "startTime",
      "outputs": [
        {
          "name": "",
          "type": "uint256"
        }
      ],
      "payable": false,
      "stateMutability": "view",
      "type": "function"
    },
    {
      "constant": true,
      "inputs": [
        {
          "name": "",
          "type": "uint256"
        },
        {
          "name": "",
          "type": "address"
        }
      ],
      "name": "userInfo",
      "outputs": [
        {
          "name": "amount",
          "type": "uint256"
        },
        {
          "name": "reward",
          "type": "uint256"
        }
      ],
      "payable": false,
      "stateMutability": "view",
      "type": "function"
    },
    {
      "constant": true,
      "inputs": [],
      "name": "totalStakeAmount",
      "outputs": [
        {
          "name": "",
          "type": "uint256"
        }
      ],
      "payable": false,
      "stateMutability": "view",
      "type": "function"
    },
    {
      "constant": true,
      "inputs": [
        {
          "name": "",
          "type": "uint256"
        },
        {
          "name": "",
          "type": "uint256"
        }
      ],
      "name": "userList",
      "outputs": [
        {
          "name": "",
          "type": "address"
        }
      ],
      "payable": false,
      "stateMutability": "view",
      "type": "function"
    },
    {
      "constant": true,
      "inputs": [],
      "name": "URUperblock",
      "outputs": [
        {
          "name": "",
          "type": "uint256"
        }
      ],
      "payable": false,
      "stateMutability": "view",
      "type": "function"
    },
    {
      "inputs": [
        {
          "name": "_uru",
          "type": "address"
        },
        {
          "name": "_URUperblock",
          "type": "uint256"
        }
      ],
      "payable": false,
      "stateMutability": "nonpayable",
      "type": "constructor"
    },
    {
      "anonymous": false,
      "inputs": [
        {
          "indexed": true,
          "name": "user",
          "type": "address"
        },
        {
          "indexed": true,
          "name": "pid",
          "type": "uint256"
        },
        {
          "indexed": false,
          "name": "amount",
          "type": "uint256"
        }
      ],
      "name": "Deposit",
      "type": "event"
    },
    {
      "anonymous": false,
      "inputs": [
        {
          "indexed": true,
          "name": "user",
          "type": "address"
        },
        {
          "indexed": true,
          "name": "pid",
          "type": "uint256"
        },
        {
          "indexed": false,
          "name": "amount",
          "type": "uint256"
        }
      ],
      "name": "Withdraw",
      "type": "event"
    },
    {
      "constant": true,
      "inputs": [],
      "name": "poolLength",
      "outputs": [
        {
          "name": "",
          "type": "uint256"
        }
      ],
      "payable": false,
      "stateMutability": "view",
      "type": "function"
    },
    {
      "constant": false,
      "inputs": [
        {
          "name": "_lpToken",
          "type": "address"
        }
      ],
      "name": "add",
      "outputs": [],
      "payable": false,
      "stateMutability": "nonpayable",
      "type": "function"
    },
    {
      "constant": false,
      "inputs": [
        {
          "name": "_pid",
          "type": "uint256"
        },
        {
          "name": "_amount",
          "type": "uint256"
        }
      ],
      "name": "deposit",
      "outputs": [],
      "payable": false,
      "stateMutability": "nonpayable",
      "type": "function"
    },
    {
      "constant": false,
      "inputs": [
        {
          "name": "_pid",
          "type": "uint256"
        },
        {
          "name": "_amount",
          "type": "uint256"
        }
      ],
      "name": "withdraw",
      "outputs": [],
      "payable": false,
      "stateMutability": "nonpayable",
      "type": "function"
    },
    {
      "constant": false,
      "inputs": [
        {
          "name": "_pid",
          "type": "uint256"
        }
      ],
      "name": "harvest",
      "outputs": [],
      "payable": false,
      "stateMutability": "nonpayable",
      "type": "function"
    }
  ],
  "bytecode": "0x6080604052600060035534801561001557600080fd5b5060405160408061112e8339810180604052604081101561003557600080fd5b810190808051906020019092919080519060200190929190505050816000806101000a81548173ffffffffffffffffffffffffffffffffffffffff021916908373ffffffffffffffffffffffffffffffffffffffff160217905550806001819055505050611086806100a86000396000f3fe608060405234801561001057600080fd5b50600436106100b45760003560e01c806393f1a40b1161007157806393f1a40b1461023e57806394409a56146102a7578063ae2349de146102c5578063ddc632621461033d578063e0312ed71461036b578063e2bbb15814610389576100b4565b8063081e3eda146100b95780630a3b0a4f146100d7578063103c07dc1461011b5780631526fe2714610165578063441a3e70146101e857806378e9792514610220575b600080fd5b6100c16103c1565b6040518082815260200191505060405180910390f35b610119600480360360208110156100ed57600080fd5b81019080803573ffffffffffffffffffffffffffffffffffffffff1690602001909291905050506103ce565b005b6101236104a5565b604051808273ffffffffffffffffffffffffffffffffffffffff1673ffffffffffffffffffffffffffffffffffffffff16815260200191505060405180910390f35b6101916004803603602081101561017b57600080fd5b81019080803590602001909291905050506104ca565b604051808573ffffffffffffffffffffffffffffffffffffffff1673ffffffffffffffffffffffffffffffffffffffff16815260200184815260200183815260200182815260200194505050505060405180910390f35b61021e600480360360408110156101fe57600080fd5b810190808035906020019092919080359060200190929190505050610527565b005b610228610792565b6040518082815260200191505060405180910390f35b61028a6004803603604081101561025457600080fd5b8101908080359060200190929190803573ffffffffffffffffffffffffffffffffffffffff169060200190929190505050610798565b604051808381526020018281526020019250505060405180910390f35b6102af6107c9565b6040518082815260200191505060405180910390f35b6102fb600480360360408110156102db57600080fd5b8101908080359060200190929190803590602001909291905050506107cf565b604051808273ffffffffffffffffffffffffffffffffffffffff1673ffffffffffffffffffffffffffffffffffffffff16815260200191505060405180910390f35b6103696004803603602081101561035357600080fd5b810190808035906020019092919050505061081a565b005b6103736109b3565b6040518082815260200191505060405180910390f35b6103bf6004803603604081101561039f57600080fd5b8101908080359060200190929190803590602001909291905050506109b9565b005b6000600480549050905090565b6000429050600460405180608001604052808473ffffffffffffffffffffffffffffffffffffffff1681526020016000815260200183815260200160008152509080600181540180825580915050906001820390600052602060002090600402016000909192909190915060008201518160000160006101000a81548173ffffffffffffffffffffffffffffffffffffffff021916908373ffffffffffffffffffffffffffffffffffffffff1602179055506020820151816001015560408201518160020155606082015181600301555050505050565b6000809054906101000a900473ffffffffffffffffffffffffffffffffffffffff1681565b600481815481106104d757fe5b90600052602060002090600402016000915090508060000160009054906101000a900473ffffffffffffffffffffffffffffffffffffffff16908060010154908060020154908060030154905084565b60006004838154811061053657fe5b9060005260206000209060040201905060006006600085815260200190815260200160002060003373ffffffffffffffffffffffffffffffffffffffff1673ffffffffffffffffffffffffffffffffffffffff16815260200190815260200160002090508281600001541015610614576040517f08c379a00000000000000000000000000000000000000000000000000000000081526004018080602001828103825260208152602001807f63616e2774207769746864726177206f76657220796f7572206465706f73697481525060200191505060405180910390fd5b61062983600354610c6390919063ffffffff16565b600381905550610646838260000154610c6390919063ffffffff16565b81600001819055508160000160009054906101000a900473ffffffffffffffffffffffffffffffffffffffff1673ffffffffffffffffffffffffffffffffffffffff1663a9059cbb33856040518363ffffffff1660e01b8152600401808373ffffffffffffffffffffffffffffffffffffffff1673ffffffffffffffffffffffffffffffffffffffff16815260200182815260200192505050602060405180830381600087803b1580156106f957600080fd5b505af115801561070d573d6000803e3d6000fd5b505050506040513d602081101561072357600080fd5b810190808051906020019092919050505050833373ffffffffffffffffffffffffffffffffffffffff167ff279e6a1f5e320cca91135676d9cb6e44ca8a08c0b88342bcdb1144f6511b568856040518082815260200191505060405180910390a361078c610cad565b50505050565b60025481565b6006602052816000526040600020602052806000526040600020600091509150508060000154908060010154905082565b60035481565b600560205281600052604060002081815481106107e857fe5b906000526020600020016000915091509054906101000a900473ffffffffffffffffffffffffffffffffffffffff1681565b60006004828154811061082957fe5b9060005260206000209060040201905060006006600084815260200190815260200160002060003373ffffffffffffffffffffffffffffffffffffffff1673ffffffffffffffffffffffffffffffffffffffff168152602001908152602001600020905060006108bc83600301546108ae856002015442610c6390919063ffffffff16565b610d5b90919063ffffffff16565b905060006108d7828460010154610de190919063ffffffff16565b90506000809054906101000a900473ffffffffffffffffffffffffffffffffffffffff1673ffffffffffffffffffffffffffffffffffffffff166340c10f1933836040518363ffffffff1660e01b8152600401808373ffffffffffffffffffffffffffffffffffffffff1673ffffffffffffffffffffffffffffffffffffffff16815260200182815260200192505050600060405180830381600087803b15801561098157600080fd5b505af1158015610995573d6000803e3d6000fd5b50505050428460020181905550600083600101819055505050505050565b60015481565b6000600483815481106109c857fe5b9060005260206000209060040201905060006006600085815260200190815260200160002060003373ffffffffffffffffffffffffffffffffffffffff1673ffffffffffffffffffffffffffffffffffffffff1681526020019081526020016000209050600081600001541415610ab157600560008581526020019081526020016000203390806001815401808255809150509060018203906000526020600020016000909192909190916101000a81548173ffffffffffffffffffffffffffffffffffffffff021916908373ffffffffffffffffffffffffffffffffffffffff160217905550505b610ac683600354610de190919063ffffffff16565b600381905550610ae3838260000154610de190919063ffffffff16565b81600001819055508160000160009054906101000a900473ffffffffffffffffffffffffffffffffffffffff1673ffffffffffffffffffffffffffffffffffffffff166323b872dd3330866040518463ffffffff1660e01b8152600401808473ffffffffffffffffffffffffffffffffffffffff1673ffffffffffffffffffffffffffffffffffffffff1681526020018373ffffffffffffffffffffffffffffffffffffffff1673ffffffffffffffffffffffffffffffffffffffff1681526020018281526020019350505050602060405180830381600087803b158015610bca57600080fd5b505af1158015610bde573d6000803e3d6000fd5b505050506040513d6020811015610bf457600080fd5b810190808051906020019092919050505050833373ffffffffffffffffffffffffffffffffffffffff167f90890809c654f11d6e72a28fa60149770a0d11ec6c92319d6ceb2bb0a4ea1a15856040518082815260200191505060405180910390a3610c5d610cad565b50505050565b6000610ca583836040518060400160405280601e81526020017f536166654d6174683a207375627472616374696f6e206f766572666c6f770000815250610e69565b905092915050565b60008090505b600480549050811015610d58574260048281548110610cce57fe5b906000526020600020906004020160020181905550610d29600354610d1b606460048581548110610cfb57fe5b906000526020600020906004020160010154610d5b90919063ffffffff16565b610f2990919063ffffffff16565b60048281548110610d3657fe5b9060005260206000209060040201600301819055508080600101915050610cb3565b50565b600080831415610d6e5760009050610ddb565b6000828402905082848281610d7f57fe5b0414610dd6576040517f08c379a000000000000000000000000000000000000000000000000000000000815260040180806020018281038252602181526020018061103a6021913960400191505060405180910390fd5b809150505b92915050565b600080828401905083811015610e5f576040517f08c379a000000000000000000000000000000000000000000000000000000000815260040180806020018281038252601b8152602001807f536166654d6174683a206164646974696f6e206f766572666c6f77000000000081525060200191505060405180910390fd5b8091505092915050565b6000838311158290610f16576040517f08c379a00000000000000000000000000000000000000000000000000000000081526004018080602001828103825283818151815260200191508051906020019080838360005b83811015610edb578082015181840152602081019050610ec0565b50505050905090810190601f168015610f085780820380516001836020036101000a031916815260200191505b509250505060405180910390fd5b5060008385039050809150509392505050565b6000610f6b83836040518060400160405280601a81526020017f536166654d6174683a206469766973696f6e206279207a65726f000000000000815250610f73565b905092915050565b6000808311829061101f576040517f08c379a00000000000000000000000000000000000000000000000000000000081526004018080602001828103825283818151815260200191508051906020019080838360005b83811015610fe4578082015181840152602081019050610fc9565b50505050905090810190601f1680156110115780820380516001836020036101000a031916815260200191505b509250505060405180910390fd5b50600083858161102b57fe5b04905080915050939250505056fe536166654d6174683a206d756c7469706c69636174696f6e206f766572666c6f77a165627a7a7230582003c3ea542797ce5ef622f50e0492ed9f52927bf265874dd069f1d733d765fde10029",
  "source": "// // SPDX-License-Identifier: MIT\npragma solidity ^0.5.6;\n\nimport \"@klaytn/contracts/token/KIP7/KIP7.sol\";\nimport \"@klaytn/contracts/math/SafeMath.sol\";\nimport \"./Token.sol\";\n\ncontract Master {\n\n    using SafeMath for uint256;\n\n    struct userinfo {\n        uint256 amount;\n        uint256 reward;\n    }\n\n    struct poolinfo {\n        KIP7 lpToken;\n        uint256 stakeAmount; // 풀에 들어와 있는 돈\n        uint256 lastUpdatedTime; // 마지막으로 갱신된 시간\n        uint256 URUPerShare; // 해당 풀의 1단위당 지급할 uru;\n    }\n\n    Token public uru;\n    uint256 public URUperblock; // 25, 즉 klaytn 블록 하나 생성 시간(1초)당 지급할 URU\n    uint256 public startTime; \n    uint256 public totalStakeAmount = 0;\n\n    poolinfo[] public poolInfo;\n    mapping(uint256 => address[]) public userList; \n    mapping(uint256 => mapping(address => userinfo)) public userInfo;\n\n    event Deposit(address indexed user, uint256 indexed pid, uint256 amount);\n    event Withdraw(address indexed user, uint256 indexed pid, uint256 amount);\n\n    constructor (\n        Token _uru,\n        uint256 _URUperblock // 25\n    ) public {\n        uru = _uru;\n        URUperblock = _URUperblock;\n    }\n\n    function poolLength() external view returns (uint256) {\n        return poolInfo.length;\n    }\n\n    // add pool\n    function add(KIP7 _lpToken) public {\n        uint256 lastUpdatedTime = block.timestamp;\n        poolInfo.push(\n            poolinfo({\n                lpToken: _lpToken,\n                stakeAmount: 0,\n                lastUpdatedTime: lastUpdatedTime,\n                URUPerShare: 0\n            })\n        );\n    }\n\n    // _pid : poolInfo의 index\n    function deposit(uint256 _pid, uint256 _amount) public {\n        poolinfo storage pool = poolInfo[_pid];\n        userinfo storage user = userInfo[_pid][msg.sender];\n\n        // 새로 예치시 해당 풀 유저 목록에 주소 저장\n        if(user.amount == 0) {\n            userList[_pid].push(msg.sender);\n        }\n\n        // 입금 및 유저 입금량 저장\n        totalStakeAmount = totalStakeAmount.add(_amount);\n        user.amount = user.amount.add(_amount);\n        pool.lpToken.transferFrom(address(msg.sender),address(this),_amount);\n        emit Deposit(msg.sender, _pid, _amount);\n\n        // 누군가 예치했으니 모든 풀에 대해서 분배 비율을 새롭게 조정해야함\n        updatePool();\n    }\n\n    function withdraw(uint256 _pid, uint256 _amount) public {\n        poolinfo storage pool = poolInfo[_pid];\n        userinfo storage user = userInfo[_pid][msg.sender];\n        require(user.amount >= _amount, \"can't withdraw over your deposit\");\n\n        totalStakeAmount = totalStakeAmount.sub(_amount);\n        user.amount = user.amount.sub(_amount);\n        pool.lpToken.transfer(address(msg.sender), _amount);\n        emit Withdraw(msg.sender, _pid, _amount);\n\n        // 누군가 인출했으니 모든 풀에 대해서 분배 비율을 새롭게 조정해야함\n        updatePool();\n    }\n\n    // 이자 받기\n    function harvest(uint256 _pid) public {\n        poolinfo storage pool = poolInfo[_pid];\n        userinfo storage user = userInfo[_pid][msg.sender];\n        \n        // 현재 마지막으로 reward에 저장되어 있는 값(1) + 해당 풀의 lastUpdatedTime과 현재 블록시간의 차이에다가 현재 urupershare를 곱한 값(2)을 지급\n        // 그리고 reward를 0으로 만들어 버린다. 그리고 인출한 '해당 풀에민' 모든 유저 정보를 업데이트 해줘야 한다.\n        // 왜냐하면 lastUpdatedTime을 갱신해야 하기 때문. 갱신하지 않으면 바로 또 harvest를 했을 때 2가 중복 지급이 되어버리기 떄문임.\n        uint256 nowReward = block.timestamp.sub(pool.lastUpdatedTime).mul(pool.URUPerShare);\n        uint256 toTransfer = user.reward.add(nowReward);\n\n        uru.mint(msg.sender, toTransfer);\n\n        pool.lastUpdatedTime = block.timestamp;\n        user.reward = 0;\n    }\n\n    // 예치량의 변동에 따라서 새롭게 풀 끼리의 분배비율을 업데이트 하고 모든 풀의 모든 유저의 그 때까지의 보상을 reward에 스냅샷\n    function updatePool() internal {\n        // 풀 정보 업데이트 (마지막 업데이트 시기 기록, 분배비율 조정)\n        for (uint256 i = 0; i < poolInfo.length; i++) {\n            poolInfo[i].lastUpdatedTime = block.timestamp;\n            poolInfo[i].URUPerShare = poolInfo[i].stakeAmount.mul(100).div(totalStakeAmount);\n        }\n    }\n\n    // // 저장된 lp-token 주소 반환\n    // function getLPAddress(uint256 _pid) public view returns (address) {\n    //     return address(poolInfo[_pid].lpToken);\n    // }\n\n    // // 저장된 lp-token 주소 반환\n    // function getPendingURU(uint256 _pid, address _user) public view returns (uint256) {\n    //     return ;\n    // }\n}",
  "sourcePath": "/Users/baekdonghyun/Desktop/beb-03-DND/contract/contracts/Master.sol",
  "compiler": {
    "name": "solc",
    "version": "0.5.6+commit.b259423e.Emscripten.clang"
  },
  "schemaVersion": "3.4.5",
  "updatedAt": "2022-05-26T04:59:00.073Z",
  "networkType": "ethereum",
  "devdoc": {
    "methods": {}
  },
  "userdoc": {
    "methods": {}
  }
}