{
  "contractName": "Master",
  "abi": [
    {
      "constant": true,
      "inputs": [],
      "name": "uru",
      "outputs": [
        {
          "name": "",
          "type": "address"
        }
      ],
      "payable": false,
      "stateMutability": "view",
      "type": "function"
    },
    {
      "constant": true,
      "inputs": [
        {
          "name": "",
          "type": "uint256"
        }
      ],
      "name": "poolInfo",
      "outputs": [
        {
          "name": "lpToken",
          "type": "address"
        },
        {
          "name": "stakeAmount",
          "type": "uint256"
        },
        {
          "name": "lastUpdatedTime",
          "type": "uint256"
        },
        {
          "name": "URUPerShare",
          "type": "uint256"
        }
      ],
      "payable": false,
      "stateMutability": "view",
      "type": "function"
    },
    {
      "constant": true,
      "inputs": [
        {
          "name": "",
          "type": "uint256"
        },
        {
          "name": "",
          "type": "address"
        }
      ],
      "name": "userInfo",
      "outputs": [
        {
          "name": "amount",
          "type": "uint256"
        },
        {
          "name": "reward",
          "type": "uint256"
        }
      ],
      "payable": false,
      "stateMutability": "view",
      "type": "function"
    },
    {
      "constant": true,
      "inputs": [],
      "name": "totalStakeAmount",
      "outputs": [
        {
          "name": "",
          "type": "uint256"
        }
      ],
      "payable": false,
      "stateMutability": "view",
      "type": "function"
    },
    {
      "constant": true,
      "inputs": [
        {
          "name": "",
          "type": "uint256"
        },
        {
          "name": "",
          "type": "uint256"
        }
      ],
      "name": "userList",
      "outputs": [
        {
          "name": "",
          "type": "address"
        }
      ],
      "payable": false,
      "stateMutability": "view",
      "type": "function"
    },
    {
      "constant": true,
      "inputs": [],
      "name": "URUperblock",
      "outputs": [
        {
          "name": "",
          "type": "uint256"
        }
      ],
      "payable": false,
      "stateMutability": "view",
      "type": "function"
    },
    {
      "inputs": [
        {
          "name": "_uru",
          "type": "address"
        },
        {
          "name": "_URUperblock",
          "type": "uint256"
        }
      ],
      "payable": false,
      "stateMutability": "nonpayable",
      "type": "constructor"
    },
    {
      "anonymous": false,
      "inputs": [
        {
          "indexed": true,
          "name": "user",
          "type": "address"
        },
        {
          "indexed": true,
          "name": "pid",
          "type": "uint256"
        },
        {
          "indexed": false,
          "name": "amount",
          "type": "uint256"
        }
      ],
      "name": "Deposit",
      "type": "event"
    },
    {
      "anonymous": false,
      "inputs": [
        {
          "indexed": true,
          "name": "user",
          "type": "address"
        },
        {
          "indexed": true,
          "name": "pid",
          "type": "uint256"
        },
        {
          "indexed": false,
          "name": "amount",
          "type": "uint256"
        }
      ],
      "name": "Withdraw",
      "type": "event"
    },
    {
      "constant": true,
      "inputs": [],
      "name": "poolLength",
      "outputs": [
        {
          "name": "",
          "type": "uint256"
        }
      ],
      "payable": false,
      "stateMutability": "view",
      "type": "function"
    },
    {
      "constant": false,
      "inputs": [
        {
          "name": "_lpToken",
          "type": "address"
        }
      ],
      "name": "add",
      "outputs": [],
      "payable": false,
      "stateMutability": "nonpayable",
      "type": "function"
    },
    {
      "constant": false,
      "inputs": [
        {
          "name": "_pid",
          "type": "uint256"
        },
        {
          "name": "_amount",
          "type": "uint256"
        }
      ],
      "name": "deposit",
      "outputs": [],
      "payable": false,
      "stateMutability": "nonpayable",
      "type": "function"
    },
    {
      "constant": false,
      "inputs": [
        {
          "name": "_pid",
          "type": "uint256"
        },
        {
          "name": "_amount",
          "type": "uint256"
        }
      ],
      "name": "withdraw",
      "outputs": [],
      "payable": false,
      "stateMutability": "nonpayable",
      "type": "function"
    },
    {
      "constant": false,
      "inputs": [
        {
          "name": "_pid",
          "type": "uint256"
        }
      ],
      "name": "harvest",
      "outputs": [],
      "payable": false,
      "stateMutability": "nonpayable",
      "type": "function"
    },
    {
      "constant": true,
      "inputs": [
        {
          "name": "_pid",
          "type": "uint256"
        },
        {
          "name": "_user",
          "type": "address"
        }
      ],
      "name": "calculateContribute",
      "outputs": [
        {
          "name": "",
          "type": "uint256"
        }
      ],
      "payable": false,
      "stateMutability": "view",
      "type": "function"
    },
    {
      "constant": true,
      "inputs": [
        {
          "name": "_pid",
          "type": "uint256"
        },
        {
          "name": "_user",
          "type": "address"
        }
      ],
      "name": "calculateCurrentReward",
      "outputs": [
        {
          "name": "",
          "type": "uint256"
        }
      ],
      "payable": false,
      "stateMutability": "view",
      "type": "function"
    },
    {
      "constant": true,
      "inputs": [
        {
          "name": "_pid",
          "type": "uint256"
        },
        {
          "name": "_user",
          "type": "address"
        }
      ],
      "name": "calculateReward",
      "outputs": [
        {
          "name": "",
          "type": "uint256"
        }
      ],
      "payable": false,
      "stateMutability": "view",
      "type": "function"
    }
  ],
  "bytecode": "0x6080604052600060025534801561001557600080fd5b506040516040806117e58339810180604052604081101561003557600080fd5b810190808051906020019092919080519060200190929190505050816000806101000a81548173ffffffffffffffffffffffffffffffffffffffff021916908373ffffffffffffffffffffffffffffffffffffffff16021790555080600181905550505061173d806100a86000396000f3fe608060405234801561001057600080fd5b50600436106100ea5760003560e01c806393f1a40b1161008c578063ae2349de11610066578063ae2349de14610403578063ddc632621461047b578063e0312ed7146104a9578063e2bbb158146104c7576100ea565b806393f1a40b1461031a57806394409a5614610383578063a18f07a0146103a1576100ea565b80631526fe27116100c85780631526fe271461019b578063441a3e701461021e5780635f797795146102565780636ecf24ac146102b8576100ea565b8063081e3eda146100ef5780630a3b0a4f1461010d578063103c07dc14610151575b600080fd5b6100f76104ff565b6040518082815260200191505060405180910390f35b61014f6004803603602081101561012357600080fd5b81019080803573ffffffffffffffffffffffffffffffffffffffff16906020019092919050505061050c565b005b6101596105e3565b604051808273ffffffffffffffffffffffffffffffffffffffff1673ffffffffffffffffffffffffffffffffffffffff16815260200191505060405180910390f35b6101c7600480360360208110156101b157600080fd5b8101908080359060200190929190505050610608565b604051808573ffffffffffffffffffffffffffffffffffffffff1673ffffffffffffffffffffffffffffffffffffffff16815260200184815260200183815260200182815260200194505050505060405180910390f35b6102546004803603604081101561023457600080fd5b810190808035906020019092919080359060200190929190505050610665565b005b6102a26004803603604081101561026c57600080fd5b8101908080359060200190929190803573ffffffffffffffffffffffffffffffffffffffff169060200190929190505050610905565b6040518082815260200191505060405180910390f35b610304600480360360408110156102ce57600080fd5b8101908080359060200190929190803573ffffffffffffffffffffffffffffffffffffffff169060200190929190505050610990565b6040518082815260200191505060405180910390f35b6103666004803603604081101561033057600080fd5b8101908080359060200190929190803573ffffffffffffffffffffffffffffffffffffffff169060200190929190505050610b19565b604051808381526020018281526020019250505060405180910390f35b61038b610b4a565b6040518082815260200191505060405180910390f35b6103ed600480360360408110156103b757600080fd5b8101908080359060200190929190803573ffffffffffffffffffffffffffffffffffffffff169060200190929190505050610b50565b6040518082815260200191505060405180910390f35b6104396004803603604081101561041957600080fd5b810190808035906020019092919080359060200190929190505050610bb3565b604051808273ffffffffffffffffffffffffffffffffffffffff1673ffffffffffffffffffffffffffffffffffffffff16815260200191505060405180910390f35b6104a76004803603602081101561049157600080fd5b8101908080359060200190929190505050610bfe565b005b6104b1610ddf565b6040518082815260200191505060405180910390f35b6104fd600480360360408110156104dd57600080fd5b810190808035906020019092919080359060200190929190505050610de5565b005b6000600380549050905090565b6000429050600360405180608001604052808473ffffffffffffffffffffffffffffffffffffffff1681526020016000815260200183815260200160008152509080600181540180825580915050906001820390600052602060002090600402016000909192909190915060008201518160000160006101000a81548173ffffffffffffffffffffffffffffffffffffffff021916908373ffffffffffffffffffffffffffffffffffffffff1602179055506020820151816001015560408201518160020155606082015181600301555050505050565b6000809054906101000a900473ffffffffffffffffffffffffffffffffffffffff1681565b6003818154811061061557fe5b90600052602060002090600402016000915090508060000160009054906101000a900473ffffffffffffffffffffffffffffffffffffffff16908060010154908060020154908060030154905084565b60006003838154811061067457fe5b9060005260206000209060040201905060006005600085815260200190815260200160002060003373ffffffffffffffffffffffffffffffffffffffff1673ffffffffffffffffffffffffffffffffffffffff16815260200190815260200160002090508281600001541015610752576040517f08c379a00000000000000000000000000000000000000000000000000000000081526004018080602001828103825260208152602001807f63616e2774207769746864726177206f76657220796f7572206465706f73697481525060200191505060405180910390fd5b82816000015414156107685761076784610bfe565b5b61077d836002546110b790919063ffffffff16565b60028190555061079a8383600101546110b790919063ffffffff16565b82600101819055506107aa611101565b6107c18382600001546110b790919063ffffffff16565b81600001819055508160000160009054906101000a900473ffffffffffffffffffffffffffffffffffffffff1673ffffffffffffffffffffffffffffffffffffffff1663a9059cbb33856040518363ffffffff1660e01b8152600401808373ffffffffffffffffffffffffffffffffffffffff1673ffffffffffffffffffffffffffffffffffffffff16815260200182815260200192505050602060405180830381600087803b15801561087457600080fd5b505af1158015610888573d6000803e3d6000fd5b505050506040513d602081101561089e57600080fd5b810190808051906020019092919050505050833373ffffffffffffffffffffffffffffffffffffffff167ff279e6a1f5e320cca91135676d9cb6e44ca8a08c0b88342bcdb1144f6511b568856040518082815260200191505060405180910390a350505050565b6000806003848154811061091557fe5b9060005260206000209060040201905060006109318585610990565b90506109866127106109788361096a866003015461095c8860020154426110b790919063ffffffff16565b61141290919063ffffffff16565b61141290919063ffffffff16565b61149890919063ffffffff16565b9250505092915050565b600080600384815481106109a057fe5b9060005260206000209060040201905060006005600086815260200190815260200160002060008573ffffffffffffffffffffffffffffffffffffffff1673ffffffffffffffffffffffffffffffffffffffff16815260200190815260200160002090506000610b0b8360000160009054906101000a900473ffffffffffffffffffffffffffffffffffffffff1673ffffffffffffffffffffffffffffffffffffffff166370a08231306040518263ffffffff1660e01b8152600401808273ffffffffffffffffffffffffffffffffffffffff1673ffffffffffffffffffffffffffffffffffffffff16815260200191505060206040518083038186803b158015610aaa57600080fd5b505afa158015610abe573d6000803e3d6000fd5b505050506040513d6020811015610ad457600080fd5b8101908080519060200190929190505050610afd6064856000015461141290919063ffffffff16565b61149890919063ffffffff16565b905080935050505092915050565b6005602052816000526040600020602052806000526040600020600091509150508060000154908060010154905082565b60025481565b6000806005600085815260200190815260200160002060008473ffffffffffffffffffffffffffffffffffffffff1673ffffffffffffffffffffffffffffffffffffffff1681526020019081526020016000209050806001015491505092915050565b60046020528160005260406000208181548110610bcc57fe5b906000526020600020016000915091509054906101000a900473ffffffffffffffffffffffffffffffffffffffff1681565b600060038281548110610c0d57fe5b9060005260206000209060040201905060006005600084815260200190815260200160002060003373ffffffffffffffffffffffffffffffffffffffff1673ffffffffffffffffffffffffffffffffffffffff16815260200190815260200160002090506000610c7d8433610990565b90506000610cd4612710610cc684610cb88860030154610caa8a60020154426110b790919063ffffffff16565b61141290919063ffffffff16565b61141290919063ffffffff16565b61149890919063ffffffff16565b90506000610cef8285600101546114e290919063ffffffff16565b90506000809054906101000a900473ffffffffffffffffffffffffffffffffffffffff1673ffffffffffffffffffffffffffffffffffffffff166340c10f1933610d4360b48561141290919063ffffffff16565b6040518363ffffffff1660e01b8152600401808373ffffffffffffffffffffffffffffffffffffffff1673ffffffffffffffffffffffffffffffffffffffff16815260200182815260200192505050600060405180830381600087803b158015610dac57600080fd5b505af1158015610dc0573d6000803e3d6000fd5b5050505042856002018190555060008460010181905550505050505050565b60015481565b600060038381548110610df457fe5b9060005260206000209060040201905060006005600085815260200190815260200160002060003373ffffffffffffffffffffffffffffffffffffffff1673ffffffffffffffffffffffffffffffffffffffff1681526020019081526020016000209050610e6d836002546114e290919063ffffffff16565b600281905550610e8a8383600101546114e290919063ffffffff16565b8260010181905550610e9a611101565b610eb18382600001546114e290919063ffffffff16565b81600001819055508160000160009054906101000a900473ffffffffffffffffffffffffffffffffffffffff1673ffffffffffffffffffffffffffffffffffffffff166323b872dd3330866040518463ffffffff1660e01b8152600401808473ffffffffffffffffffffffffffffffffffffffff1673ffffffffffffffffffffffffffffffffffffffff1681526020018373ffffffffffffffffffffffffffffffffffffffff1673ffffffffffffffffffffffffffffffffffffffff1681526020018281526020019350505050602060405180830381600087803b158015610f9857600080fd5b505af1158015610fac573d6000803e3d6000fd5b505050506040513d6020811015610fc257600080fd5b810190808051906020019092919050505050833373ffffffffffffffffffffffffffffffffffffffff167f90890809c654f11d6e72a28fa60149770a0d11ec6c92319d6ceb2bb0a4ea1a15856040518082815260200191505060405180910390a382816000015414156110b157600460008581526020019081526020016000203390806001815401808255809150509060018203906000526020600020016000909192909190916101000a81548173ffffffffffffffffffffffffffffffffffffffff021916908373ffffffffffffffffffffffffffffffffffffffff16021790555050600081600101819055505b50505050565b60006110f983836040518060400160405280601e81526020017f536166654d6174683a207375627472616374696f6e206f766572666c6f77000081525061156a565b905092915050565b60008090505b60038054905081101561140f5760008090505b600460008381526020019081526020016000208054905081101561130a5760006003838154811061114757fe5b906000526020600020906004020160010154146112fd5761125d6111b38360046000868152602001908152602001600020848154811061118357fe5b9060005260206000200160009054906101000a900473ffffffffffffffffffffffffffffffffffffffff16610905565b6005600085815260200190815260200160002060006004600087815260200190815260200160002085815481106111e657fe5b9060005260206000200160009054906101000a900473ffffffffffffffffffffffffffffffffffffffff1673ffffffffffffffffffffffffffffffffffffffff1673ffffffffffffffffffffffffffffffffffffffff168152602001908152602001600020600101546114e290919063ffffffff16565b60056000848152602001908152602001600020600060046000868152602001908152602001600020848154811061129057fe5b9060005260206000200160009054906101000a900473ffffffffffffffffffffffffffffffffffffffff1673ffffffffffffffffffffffffffffffffffffffff1673ffffffffffffffffffffffffffffffffffffffff168152602001908152602001600020600101819055505b808060010191505061111a565b50600060025414156113625760006003828154811061132557fe5b906000526020600020906004020160030181905550426003828154811061134857fe5b906000526020600020906004020160020181905550611402565b6113bc6001546113ae6002546113a060646003878154811061138057fe5b90600052602060002090600402016001015461141290919063ffffffff16565b61149890919063ffffffff16565b61141290919063ffffffff16565b600382815481106113c957fe5b90600052602060002090600402016003018190555042600382815481106113ec57fe5b9060005260206000209060040201600201819055505b8080600101915050611107565b50565b6000808314156114255760009050611492565b600082840290508284828161143657fe5b041461148d576040517f08c379a00000000000000000000000000000000000000000000000000000000081526004018080602001828103825260218152602001806116f16021913960400191505060405180910390fd5b809150505b92915050565b60006114da83836040518060400160405280601a81526020017f536166654d6174683a206469766973696f6e206279207a65726f00000000000081525061162a565b905092915050565b600080828401905083811015611560576040517f08c379a000000000000000000000000000000000000000000000000000000000815260040180806020018281038252601b8152602001807f536166654d6174683a206164646974696f6e206f766572666c6f77000000000081525060200191505060405180910390fd5b8091505092915050565b6000838311158290611617576040517f08c379a00000000000000000000000000000000000000000000000000000000081526004018080602001828103825283818151815260200191508051906020019080838360005b838110156115dc5780820151818401526020810190506115c1565b50505050905090810190601f1680156116095780820380516001836020036101000a031916815260200191505b509250505060405180910390fd5b5060008385039050809150509392505050565b600080831182906116d6576040517f08c379a00000000000000000000000000000000000000000000000000000000081526004018080602001828103825283818151815260200191508051906020019080838360005b8381101561169b578082015181840152602081019050611680565b50505050905090810190601f1680156116c85780820380516001836020036101000a031916815260200191505b509250505060405180910390fd5b5060008385816116e257fe5b04905080915050939250505056fe536166654d6174683a206d756c7469706c69636174696f6e206f766572666c6f77a165627a7a7230582095bfc29606a3283400d65bea8de4e76d41c803cf56f47ee04a5b2227c99fdb500029",
  "source": "// // SPDX-License-Identifier: MIT\npragma solidity ^0.5.6;\n\nimport \"@klaytn/contracts/token/KIP7/KIP7.sol\";\nimport \"@klaytn/contracts/token/KIP7/IKIP7.sol\";\nimport \"@klaytn/contracts/math/SafeMath.sol\";\nimport \"./Token.sol\";\n\ncontract Master {\n\n    using SafeMath for uint256;\n\n    struct userinfo {\n        uint256 amount;\n        uint256 reward;\n    }\n\n    struct poolinfo {\n        address lpToken;\n        uint256 stakeAmount; // 풀 예치량\n        uint256 lastUpdatedTime; // 마지막으로 갱신된 시간\n        uint256 URUPerShare; // 해당 풀에 분배된 초당 URU\n    }\n\n    Token public uru;\n    uint256 public URUperblock; // 25, 즉 klaytn 블록 하나 생성 시간(1초)당 지급할 URU\n    uint256 public totalStakeAmount = 0;\n\n    poolinfo[] public poolInfo;\n    mapping(uint256 => address[]) public userList; \n    mapping(uint256 => mapping(address => userinfo)) public userInfo;\n\n    event Deposit(address indexed user, uint256 indexed pid, uint256 amount);\n    event Withdraw(address indexed user, uint256 indexed pid, uint256 amount);\n\n    constructor (\n        Token _uru,\n        uint256 _URUperblock // 25\n    ) public {\n        uru = _uru;\n        URUperblock = _URUperblock;\n    }\n\n    // 등록된 pool 개수 반환\n    function poolLength() external view returns (uint256) {\n        return poolInfo.length;\n    }\n\n    // 새로운 lp-token을 추가\n    function add(address _lpToken) public {\n        uint256 lastUpdatedTime = block.timestamp;\n        poolInfo.push(\n            poolinfo({\n                lpToken: _lpToken,\n                stakeAmount: 0,\n                lastUpdatedTime: lastUpdatedTime,\n                URUPerShare: 0\n            })\n        );\n    }\n\n    // _pid : poolInfo의 index (pool의 주소)\n    function deposit(uint256 _pid, uint256 _amount) public {\n        poolinfo storage pool = poolInfo[_pid];\n        userinfo storage user = userInfo[_pid][msg.sender];\n\n        // URUPerShare 계산 위한 정보 저장\n        totalStakeAmount = totalStakeAmount.add(_amount);\n        pool.stakeAmount = pool.stakeAmount.add(_amount);\n\n        // 모든 풀과 예치에 대해서 업데이트\n        updatePool();\n        user.amount = user.amount.add(_amount);\n\n        // 토큰 전송\n        KIP7(pool.lpToken).transferFrom(msg.sender, address(this), _amount);\n        emit Deposit(msg.sender, _pid, _amount);\n\n        // 새로 예치하는 유저인 경우\n        if (user.amount == _amount) {\n            userList[_pid].push(msg.sender);\n            user.reward = 0;\n        }\n    }\n\n    // lp-token을 인출\n    function withdraw(uint256 _pid, uint256 _amount) public {\n        poolinfo storage pool = poolInfo[_pid];\n        userinfo storage user = userInfo[_pid][msg.sender];\n        require(user.amount >= _amount, \"can't withdraw over your deposit\");\n\n        // 전액 인출시 이자도 자동 인출\n        if (user.amount == _amount) {\n            harvest(_pid);\n        }\n\n        totalStakeAmount = totalStakeAmount.sub(_amount);\n        pool.stakeAmount = pool.stakeAmount.sub(_amount);\n\n        updatePool();\n        user.amount = user.amount.sub(_amount);\n\n        KIP7(pool.lpToken).transfer(msg.sender, _amount);\n        emit Withdraw(msg.sender, _pid, _amount);\n    }\n\n    // 이자 받기\n    function harvest(uint256 _pid) public {\n        poolinfo storage pool = poolInfo[_pid];\n        userinfo storage user = userInfo[_pid][msg.sender];\n\n        uint256 userContribution = calculateContribute(_pid, msg.sender);  \n\n        // 현재 마지막으로 reward에 저장되어 있는 값(1) + 해당 풀의 lastUpdatedTime과 현재 블록시간의 차이에다가 현재 urupershare를 곱한 값(2)을 지급\n        // 그리고 reward를 0으로 만들고 해당 풀의 lastUpdatedTime를 갱신한다. \n        // 갱신하지 않으면 바로 또 harvest를 했을 때 2가 중복 지급이 되어버리기 떄문임.\n\n\n        // contribution이랑 urupershare계산할 때 각각 100씩 곱한거 10000으로 나눠줘서 디코딩\n        uint256 nowReward = block.timestamp.sub(pool.lastUpdatedTime).mul(pool.URUPerShare).mul(userContribution).div(10000);\n        uint256 toTransfer = (user.reward).add(nowReward);\n\n        uru.mint(msg.sender, toTransfer.mul(10*18));\n\n        pool.lastUpdatedTime = block.timestamp;\n        user.reward = 0;\n    }\n\n    // 예치량의 변동에 따라서 새롭게 풀 끼리의 분배비율을 업데이트 하고 모든 풀의 모든 유저의 그 때까지의 보상을 reward에 스냅샷\n    function updatePool() internal {\n        for (uint256 i = 0; i < poolInfo.length; i++) {\n            for (uint256 j = 0; j < userList[i].length; j++) {\n                if (poolInfo[i].stakeAmount != 0) {\n                userInfo[i][userList[i][j]].reward = userInfo[i][userList[i][j]].reward.add(calculateCurrentReward(i, userList[i][j]));\n                }\n            }\n            // 풀 정보 업데이트\n            if (totalStakeAmount == 0) {\n                poolInfo[i].URUPerShare = 0;\n                poolInfo[i].lastUpdatedTime = block.timestamp;\n            } else {\n                poolInfo[i].URUPerShare = (poolInfo[i].stakeAmount).mul(100).div(totalStakeAmount).mul(URUperblock);\n                poolInfo[i].lastUpdatedTime = block.timestamp;\n            }\n        }\n    }\n\n    // 풀 내의 비율 계산 \n    function calculateContribute(uint256 _pid, address _user) public view returns(uint256) {\n        poolinfo storage pool = poolInfo[_pid];\n        userinfo storage user = userInfo[_pid][_user];\n\n        uint256 contribution = (user.amount.mul(100)).div((KIP7(pool.lpToken)).balanceOf(address(this)));\n        return contribution;\n    }\n\n    // 마지막 갱신 후 현재 쌓이고 있는 보상\n    function calculateCurrentReward(uint256 _pid, address _user) public view returns(uint256) {\n        poolinfo storage pool = poolInfo[_pid];\n\n        uint256 userContribution = calculateContribute(_pid, _user); \n        return block.timestamp.sub(pool.lastUpdatedTime).mul(pool.URUPerShare).mul(userContribution).div(10000);\n    }\n\n    // struct 내에 저장된 유저의 보상 반환\n    function calculateReward(uint256 _pid, address _user) public view returns(uint256) {\n        userinfo storage user = userInfo[_pid][_user];\n        return user.reward;\n    }\n}",
  "sourcePath": "/Users/baekdonghyun/Desktop/beb-03-DND/contract/contracts/Master.sol",
  "compiler": {
    "name": "solc",
    "version": "0.5.6+commit.b259423e.Emscripten.clang"
  },
  "schemaVersion": "3.4.5",
  "updatedAt": "2022-05-30T01:30:57.061Z",
  "devdoc": {
    "methods": {}
  },
  "userdoc": {
    "methods": {}
  }
}