{
  "contractName": "Master",
  "abi": [
    {
      "constant": true,
      "inputs": [],
      "name": "uru",
      "outputs": [
        {
          "name": "",
          "type": "address"
        }
      ],
      "payable": false,
      "stateMutability": "view",
      "type": "function"
    },
    {
      "constant": true,
      "inputs": [
        {
          "name": "",
          "type": "uint256"
        }
      ],
      "name": "poolInfo",
      "outputs": [
        {
          "name": "lpToken",
          "type": "address"
        },
        {
          "name": "stakeAmount",
          "type": "uint256"
        },
        {
          "name": "lastUpdatedTime",
          "type": "uint256"
        },
        {
          "name": "URUPerShare",
          "type": "uint256"
        }
      ],
      "payable": false,
      "stateMutability": "view",
      "type": "function"
    },
    {
      "constant": true,
      "inputs": [],
      "name": "startTime",
      "outputs": [
        {
          "name": "",
          "type": "uint256"
        }
      ],
      "payable": false,
      "stateMutability": "view",
      "type": "function"
    },
    {
      "constant": true,
      "inputs": [
        {
          "name": "",
          "type": "uint256"
        },
        {
          "name": "",
          "type": "address"
        }
      ],
      "name": "userInfo",
      "outputs": [
        {
          "name": "amount",
          "type": "uint256"
        },
        {
          "name": "reward",
          "type": "uint256"
        }
      ],
      "payable": false,
      "stateMutability": "view",
      "type": "function"
    },
    {
      "constant": true,
      "inputs": [],
      "name": "totalStakeAmount",
      "outputs": [
        {
          "name": "",
          "type": "uint256"
        }
      ],
      "payable": false,
      "stateMutability": "view",
      "type": "function"
    },
    {
      "constant": true,
      "inputs": [
        {
          "name": "",
          "type": "uint256"
        },
        {
          "name": "",
          "type": "uint256"
        }
      ],
      "name": "userList",
      "outputs": [
        {
          "name": "",
          "type": "address"
        }
      ],
      "payable": false,
      "stateMutability": "view",
      "type": "function"
    },
    {
      "constant": true,
      "inputs": [],
      "name": "URUperblock",
      "outputs": [
        {
          "name": "",
          "type": "uint256"
        }
      ],
      "payable": false,
      "stateMutability": "view",
      "type": "function"
    },
    {
      "inputs": [
        {
          "name": "_uru",
          "type": "address"
        },
        {
          "name": "_URUperblock",
          "type": "uint256"
        }
      ],
      "payable": false,
      "stateMutability": "nonpayable",
      "type": "constructor"
    },
    {
      "anonymous": false,
      "inputs": [
        {
          "indexed": true,
          "name": "user",
          "type": "address"
        },
        {
          "indexed": true,
          "name": "pid",
          "type": "uint256"
        },
        {
          "indexed": false,
          "name": "amount",
          "type": "uint256"
        }
      ],
      "name": "Deposit",
      "type": "event"
    },
    {
      "anonymous": false,
      "inputs": [
        {
          "indexed": true,
          "name": "user",
          "type": "address"
        },
        {
          "indexed": true,
          "name": "pid",
          "type": "uint256"
        },
        {
          "indexed": false,
          "name": "amount",
          "type": "uint256"
        }
      ],
      "name": "Withdraw",
      "type": "event"
    },
    {
      "constant": true,
      "inputs": [],
      "name": "poolLength",
      "outputs": [
        {
          "name": "",
          "type": "uint256"
        }
      ],
      "payable": false,
      "stateMutability": "view",
      "type": "function"
    },
    {
      "constant": false,
      "inputs": [
        {
          "name": "_lpToken",
          "type": "address"
        }
      ],
      "name": "add",
      "outputs": [],
      "payable": false,
      "stateMutability": "nonpayable",
      "type": "function"
    },
    {
      "constant": false,
      "inputs": [
        {
          "name": "_pid",
          "type": "uint256"
        },
        {
          "name": "_amount",
          "type": "uint256"
        }
      ],
      "name": "deposit",
      "outputs": [],
      "payable": false,
      "stateMutability": "nonpayable",
      "type": "function"
    },
    {
      "constant": false,
      "inputs": [
        {
          "name": "_pid",
          "type": "uint256"
        },
        {
          "name": "_amount",
          "type": "uint256"
        }
      ],
      "name": "withdraw",
      "outputs": [],
      "payable": false,
      "stateMutability": "nonpayable",
      "type": "function"
    },
    {
      "constant": false,
      "inputs": [
        {
          "name": "_pid",
          "type": "uint256"
        }
      ],
      "name": "harvest",
      "outputs": [],
      "payable": false,
      "stateMutability": "nonpayable",
      "type": "function"
    },
    {
      "constant": true,
      "inputs": [
        {
          "name": "_pid",
          "type": "uint256"
        },
        {
          "name": "_user",
          "type": "address"
        }
      ],
      "name": "calculateContribute",
      "outputs": [
        {
          "name": "",
          "type": "uint256"
        }
      ],
      "payable": false,
      "stateMutability": "view",
      "type": "function"
    },
    {
      "constant": true,
      "inputs": [
        {
          "name": "_pid",
          "type": "uint256"
        },
        {
          "name": "_user",
          "type": "address"
        }
      ],
      "name": "calculateCurrentReward",
      "outputs": [
        {
          "name": "",
          "type": "uint256"
        }
      ],
      "payable": false,
      "stateMutability": "view",
      "type": "function"
    },
    {
      "constant": true,
      "inputs": [
        {
          "name": "_pid",
          "type": "uint256"
        },
        {
          "name": "_user",
          "type": "address"
        }
      ],
      "name": "calculateReward",
      "outputs": [
        {
          "name": "",
          "type": "uint256"
        }
      ],
      "payable": false,
      "stateMutability": "view",
      "type": "function"
    }
  ],
  "bytecode": "0x6080604052600060035534801561001557600080fd5b506040516040806117a98339810180604052604081101561003557600080fd5b810190808051906020019092919080519060200190929190505050816000806101000a81548173ffffffffffffffffffffffffffffffffffffffff021916908373ffffffffffffffffffffffffffffffffffffffff160217905550806001819055505050611701806100a86000396000f3fe608060405234801561001057600080fd5b50600436106100f55760003560e01c806378e9792511610097578063ae2349de11610066578063ae2349de1461042c578063ddc63262146104a4578063e0312ed7146104d2578063e2bbb158146104f0576100f5565b806378e979251461032557806393f1a40b1461034357806394409a56146103ac578063a18f07a0146103ca576100f5565b80631526fe27116100d35780631526fe27146101a6578063441a3e70146102295780635f797795146102615780636ecf24ac146102c3576100f5565b8063081e3eda146100fa5780630a3b0a4f14610118578063103c07dc1461015c575b600080fd5b610102610528565b6040518082815260200191505060405180910390f35b61015a6004803603602081101561012e57600080fd5b81019080803573ffffffffffffffffffffffffffffffffffffffff169060200190929190505050610535565b005b61016461060c565b604051808273ffffffffffffffffffffffffffffffffffffffff1673ffffffffffffffffffffffffffffffffffffffff16815260200191505060405180910390f35b6101d2600480360360208110156101bc57600080fd5b8101908080359060200190929190505050610631565b604051808573ffffffffffffffffffffffffffffffffffffffff1673ffffffffffffffffffffffffffffffffffffffff16815260200184815260200183815260200182815260200194505050505060405180910390f35b61025f6004803603604081101561023f57600080fd5b81019080803590602001909291908035906020019092919050505061068e565b005b6102ad6004803603604081101561027757600080fd5b8101908080359060200190929190803573ffffffffffffffffffffffffffffffffffffffff16906020019092919050505061092e565b6040518082815260200191505060405180910390f35b61030f600480360360408110156102d957600080fd5b8101908080359060200190929190803573ffffffffffffffffffffffffffffffffffffffff1690602001909291905050506109b9565b6040518082815260200191505060405180910390f35b61032d610b42565b6040518082815260200191505060405180910390f35b61038f6004803603604081101561035957600080fd5b8101908080359060200190929190803573ffffffffffffffffffffffffffffffffffffffff169060200190929190505050610b48565b604051808381526020018281526020019250505060405180910390f35b6103b4610b79565b6040518082815260200191505060405180910390f35b610416600480360360408110156103e057600080fd5b8101908080359060200190929190803573ffffffffffffffffffffffffffffffffffffffff169060200190929190505050610b7f565b6040518082815260200191505060405180910390f35b6104626004803603604081101561044257600080fd5b810190808035906020019092919080359060200190929190505050610be2565b604051808273ffffffffffffffffffffffffffffffffffffffff1673ffffffffffffffffffffffffffffffffffffffff16815260200191505060405180910390f35b6104d0600480360360208110156104ba57600080fd5b8101908080359060200190929190505050610c2d565b005b6104da610dfb565b6040518082815260200191505060405180910390f35b6105266004803603604081101561050657600080fd5b810190808035906020019092919080359060200190929190505050610e01565b005b6000600480549050905090565b6000429050600460405180608001604052808473ffffffffffffffffffffffffffffffffffffffff1681526020016000815260200183815260200160008152509080600181540180825580915050906001820390600052602060002090600402016000909192909190915060008201518160000160006101000a81548173ffffffffffffffffffffffffffffffffffffffff021916908373ffffffffffffffffffffffffffffffffffffffff1602179055506020820151816001015560408201518160020155606082015181600301555050505050565b6000809054906101000a900473ffffffffffffffffffffffffffffffffffffffff1681565b6004818154811061063e57fe5b90600052602060002090600402016000915090508060000160009054906101000a900473ffffffffffffffffffffffffffffffffffffffff16908060010154908060020154908060030154905084565b60006004838154811061069d57fe5b9060005260206000209060040201905060006006600085815260200190815260200160002060003373ffffffffffffffffffffffffffffffffffffffff1673ffffffffffffffffffffffffffffffffffffffff1681526020019081526020016000209050828160000154101561077b576040517f08c379a00000000000000000000000000000000000000000000000000000000081526004018080602001828103825260208152602001807f63616e2774207769746864726177206f76657220796f7572206465706f73697481525060200191505060405180910390fd5b610790836003546110d390919063ffffffff16565b6003819055506107ad8383600101546110d390919063ffffffff16565b82600101819055506107cc8382600001546110d390919063ffffffff16565b81600001819055506107dc61111d565b82816000015414156107f2576107f184610c2d565b5b8160000160009054906101000a900473ffffffffffffffffffffffffffffffffffffffff1673ffffffffffffffffffffffffffffffffffffffff1663a9059cbb33856040518363ffffffff1660e01b8152600401808373ffffffffffffffffffffffffffffffffffffffff1673ffffffffffffffffffffffffffffffffffffffff16815260200182815260200192505050602060405180830381600087803b15801561089d57600080fd5b505af11580156108b1573d6000803e3d6000fd5b505050506040513d60208110156108c757600080fd5b810190808051906020019092919050505050833373ffffffffffffffffffffffffffffffffffffffff167ff279e6a1f5e320cca91135676d9cb6e44ca8a08c0b88342bcdb1144f6511b568856040518082815260200191505060405180910390a350505050565b6000806004848154811061093e57fe5b90600052602060002090600402019050600061095a85856109b9565b90506109af6127106109a18361099386600301546109858860020154426110d390919063ffffffff16565b6113d690919063ffffffff16565b6113d690919063ffffffff16565b61145c90919063ffffffff16565b9250505092915050565b600080600484815481106109c957fe5b9060005260206000209060040201905060006006600086815260200190815260200160002060008573ffffffffffffffffffffffffffffffffffffffff1673ffffffffffffffffffffffffffffffffffffffff16815260200190815260200160002090506000610b348360000160009054906101000a900473ffffffffffffffffffffffffffffffffffffffff1673ffffffffffffffffffffffffffffffffffffffff166370a08231306040518263ffffffff1660e01b8152600401808273ffffffffffffffffffffffffffffffffffffffff1673ffffffffffffffffffffffffffffffffffffffff16815260200191505060206040518083038186803b158015610ad357600080fd5b505afa158015610ae7573d6000803e3d6000fd5b505050506040513d6020811015610afd57600080fd5b8101908080519060200190929190505050610b26606485600001546113d690919063ffffffff16565b61145c90919063ffffffff16565b905080935050505092915050565b60025481565b6006602052816000526040600020602052806000526040600020600091509150508060000154908060010154905082565b60035481565b6000806006600085815260200190815260200160002060008473ffffffffffffffffffffffffffffffffffffffff1673ffffffffffffffffffffffffffffffffffffffff1681526020019081526020016000209050806001015491505092915050565b60056020528160005260406000208181548110610bfb57fe5b906000526020600020016000915091509054906101000a900473ffffffffffffffffffffffffffffffffffffffff1681565b600060048281548110610c3c57fe5b9060005260206000209060040201905060006006600084815260200190815260200160002060003373ffffffffffffffffffffffffffffffffffffffff1673ffffffffffffffffffffffffffffffffffffffff16815260200190815260200160002090506000610cac84336109b9565b90506000610d03612710610cf584610ce78860030154610cd98a60020154426110d390919063ffffffff16565b6113d690919063ffffffff16565b6113d690919063ffffffff16565b61145c90919063ffffffff16565b90506000610d1e8285600101546114a690919063ffffffff16565b90506000809054906101000a900473ffffffffffffffffffffffffffffffffffffffff1673ffffffffffffffffffffffffffffffffffffffff166340c10f1933836040518363ffffffff1660e01b8152600401808373ffffffffffffffffffffffffffffffffffffffff1673ffffffffffffffffffffffffffffffffffffffff16815260200182815260200192505050600060405180830381600087803b158015610dc857600080fd5b505af1158015610ddc573d6000803e3d6000fd5b5050505042856002018190555060008460010181905550505050505050565b60015481565b600060048381548110610e1057fe5b9060005260206000209060040201905060006006600085815260200190815260200160002060003373ffffffffffffffffffffffffffffffffffffffff1673ffffffffffffffffffffffffffffffffffffffff1681526020019081526020016000209050610e89836003546114a690919063ffffffff16565b600381905550610ea68383600101546114a690919063ffffffff16565b8260010181905550610ec58382600001546114a690919063ffffffff16565b8160000181905550610ed561111d565b8160000160009054906101000a900473ffffffffffffffffffffffffffffffffffffffff1673ffffffffffffffffffffffffffffffffffffffff166323b872dd3330866040518463ffffffff1660e01b8152600401808473ffffffffffffffffffffffffffffffffffffffff1673ffffffffffffffffffffffffffffffffffffffff1681526020018373ffffffffffffffffffffffffffffffffffffffff1673ffffffffffffffffffffffffffffffffffffffff1681526020018281526020019350505050602060405180830381600087803b158015610fb457600080fd5b505af1158015610fc8573d6000803e3d6000fd5b505050506040513d6020811015610fde57600080fd5b810190808051906020019092919050505050833373ffffffffffffffffffffffffffffffffffffffff167f90890809c654f11d6e72a28fa60149770a0d11ec6c92319d6ceb2bb0a4ea1a15856040518082815260200191505060405180910390a382816000015414156110cd57600560008581526020019081526020016000203390806001815401808255809150509060018203906000526020600020016000909192909190916101000a81548173ffffffffffffffffffffffffffffffffffffffff021916908373ffffffffffffffffffffffffffffffffffffffff16021790555050600081600101819055505b50505050565b600061111583836040518060400160405280601e81526020017f536166654d6174683a207375627472616374696f6e206f766572666c6f77000081525061152e565b905092915050565b60008090505b6004805490508110156113d35760008090505b60056000838152602001908152602001600020805490508110156113265760006004838154811061116357fe5b90600052602060002090600402016001015414611319576112796111cf8360056000868152602001908152602001600020848154811061119f57fe5b9060005260206000200160009054906101000a900473ffffffffffffffffffffffffffffffffffffffff1661092e565b60066000858152602001908152602001600020600060056000878152602001908152602001600020858154811061120257fe5b9060005260206000200160009054906101000a900473ffffffffffffffffffffffffffffffffffffffff1673ffffffffffffffffffffffffffffffffffffffff1673ffffffffffffffffffffffffffffffffffffffff168152602001908152602001600020600101546114a690919063ffffffff16565b6006600084815260200190815260200160002060006005600086815260200190815260200160002084815481106112ac57fe5b9060005260206000200160009054906101000a900473ffffffffffffffffffffffffffffffffffffffff1673ffffffffffffffffffffffffffffffffffffffff1673ffffffffffffffffffffffffffffffffffffffff168152602001908152602001600020600101819055505b8080600101915050611136565b5061138160015461137360035461136560646004878154811061134557fe5b9060005260206000209060040201600101546113d690919063ffffffff16565b61145c90919063ffffffff16565b6113d690919063ffffffff16565b6004828154811061138e57fe5b90600052602060002090600402016003018190555042600482815481106113b157fe5b9060005260206000209060040201600201819055508080600101915050611123565b50565b6000808314156113e95760009050611456565b60008284029050828482816113fa57fe5b0414611451576040517f08c379a00000000000000000000000000000000000000000000000000000000081526004018080602001828103825260218152602001806116b56021913960400191505060405180910390fd5b809150505b92915050565b600061149e83836040518060400160405280601a81526020017f536166654d6174683a206469766973696f6e206279207a65726f0000000000008152506115ee565b905092915050565b600080828401905083811015611524576040517f08c379a000000000000000000000000000000000000000000000000000000000815260040180806020018281038252601b8152602001807f536166654d6174683a206164646974696f6e206f766572666c6f77000000000081525060200191505060405180910390fd5b8091505092915050565b60008383111582906115db576040517f08c379a00000000000000000000000000000000000000000000000000000000081526004018080602001828103825283818151815260200191508051906020019080838360005b838110156115a0578082015181840152602081019050611585565b50505050905090810190601f1680156115cd5780820380516001836020036101000a031916815260200191505b509250505060405180910390fd5b5060008385039050809150509392505050565b6000808311829061169a576040517f08c379a00000000000000000000000000000000000000000000000000000000081526004018080602001828103825283818151815260200191508051906020019080838360005b8381101561165f578082015181840152602081019050611644565b50505050905090810190601f16801561168c5780820380516001836020036101000a031916815260200191505b509250505060405180910390fd5b5060008385816116a657fe5b04905080915050939250505056fe536166654d6174683a206d756c7469706c69636174696f6e206f766572666c6f77a165627a7a72305820bb4b838a9b99271344f15d190cf7e641daa289b833f28683c7273199b571a3c10029",
  "source": "// // SPDX-License-Identifier: MIT\npragma solidity ^0.5.6;\n\nimport \"@klaytn/contracts/token/KIP7/KIP7.sol\";\nimport \"@klaytn/contracts/token/KIP7/IKIP7.sol\";\nimport \"@klaytn/contracts/math/SafeMath.sol\";\nimport \"./Token.sol\";\n\ncontract Master {\n\n    using SafeMath for uint256;\n\n    struct userinfo {\n        uint256 amount;\n        uint256 reward;\n    }\n\n    struct poolinfo {\n        address lpToken;\n        uint256 stakeAmount; // 풀에 들어와 있는 돈\n        uint256 lastUpdatedTime; // 마지막으로 갱신된 시간\n        uint256 URUPerShare; // 해당 풀의 1단위당 지급할 uru;\n    }\n\n    Token public uru;\n    uint256 public URUperblock; // 25, 즉 klaytn 블록 하나 생성 시간(1초)당 지급할 URU\n    uint256 public startTime; \n    uint256 public totalStakeAmount = 0;\n\n    poolinfo[] public poolInfo;\n    mapping(uint256 => address[]) public userList; \n    mapping(uint256 => mapping(address => userinfo)) public userInfo;\n\n    event Deposit(address indexed user, uint256 indexed pid, uint256 amount);\n    event Withdraw(address indexed user, uint256 indexed pid, uint256 amount);\n\n    constructor (\n        Token _uru,\n        uint256 _URUperblock // 25\n    ) public {\n        uru = _uru;\n        URUperblock = _URUperblock;\n    }\n\n    function poolLength() external view returns (uint256) {\n        return poolInfo.length;\n    }\n\n    // add pool\n    function add(address _lpToken) public {\n        uint256 lastUpdatedTime = block.timestamp;\n        poolInfo.push(\n            poolinfo({\n                lpToken: _lpToken,\n                stakeAmount: 0,\n                lastUpdatedTime: lastUpdatedTime,\n                URUPerShare: 0\n            })\n        );\n    }\n\n    // _pid : poolInfo의 index\n    function deposit(uint256 _pid, uint256 _amount) public {\n        poolinfo storage pool = poolInfo[_pid];\n        userinfo storage user = userInfo[_pid][msg.sender];\n\n        // 입금 및 유저 입금량 저장\n        totalStakeAmount = totalStakeAmount.add(_amount);\n        pool.stakeAmount = pool.stakeAmount.add(_amount);\n        user.amount = user.amount.add(_amount);\n\n        // 누군가 예치했으니 모든 풀에 대해서 분배 비율을 새롭게 조정해야함\n        updatePool();\n\n        KIP7(pool.lpToken).transferFrom(msg.sender, address(this), _amount);\n        emit Deposit(msg.sender, _pid, _amount);\n\n        // 새로 예치하는 유저\n        if (user.amount == _amount) {\n            userList[_pid].push(msg.sender);\n            user.reward = 0;\n        }\n    }\n\n    function withdraw(uint256 _pid, uint256 _amount) public {\n        poolinfo storage pool = poolInfo[_pid];\n        userinfo storage user = userInfo[_pid][msg.sender];\n        require(user.amount >= _amount, \"can't withdraw over your deposit\");\n\n        // 정보 저장\n        totalStakeAmount = totalStakeAmount.sub(_amount);\n        pool.stakeAmount = pool.stakeAmount.sub(_amount);\n        user.amount = user.amount.sub(_amount);\n\n        // 누군가 인출했으니 모든 풀에 대해서 분배 비율을 새롭게 조정해야함\n        updatePool();\n\n        // 전액 인출시 이자도 자동 인출\n        if (user.amount == _amount) {\n            harvest(_pid);\n        }\n\n        KIP7(pool.lpToken).transfer(msg.sender, _amount);\n        emit Withdraw(msg.sender, _pid, _amount);\n    }\n\n    // 이자 받기\n    function harvest(uint256 _pid) public {\n        poolinfo storage pool = poolInfo[_pid];\n        userinfo storage user = userInfo[_pid][msg.sender];\n\n        uint256 userContribution = calculateContribute(_pid, msg.sender);  \n\n        // 현재 마지막으로 reward에 저장되어 있는 값(1) + 해당 풀의 lastUpdatedTime과 현재 블록시간의 차이에다가 현재 urupershare를 곱한 값(2)을 지급\n        // 그리고 reward를 0으로 만들어 버린다. 그리고 인출한 '해당 풀에민' 모든 유저 정보를 업데이트 해줘야 한다.\n        // 왜냐하면 lastUpdatedTime을 갱신해야 하기 때문. 갱신하지 않으면 바로 또 harvest를 했을 때 2가 중복 지급이 되어버리기 떄문임.\n\n        uint256 nowReward = block.timestamp.sub(pool.lastUpdatedTime).mul(pool.URUPerShare).mul(userContribution).div(10000);\n        // contribution이랑 urupershare계산할 때 각각 100씩 곱한거 10000으로 나눠줘서 디코딩\n        uint256 toTransfer = (user.reward).add(nowReward);\n\n        uru.mint(msg.sender, toTransfer);\n\n        pool.lastUpdatedTime = block.timestamp;\n        user.reward = 0;\n    }\n\n    // 예치량의 변동에 따라서 새롭게 풀 끼리의 분배비율을 업데이트 하고 모든 풀의 모든 유저의 그 때까지의 보상을 reward에 스냅샷\n    function updatePool() internal {\n        for (uint256 i = 0; i < poolInfo.length; i++) {\n            for (uint256 j = 0; j < userList[i].length; j++) {\n                if (poolInfo[i].stakeAmount != 0) {\n                userInfo[i][userList[i][j]].reward = userInfo[i][userList[i][j]].reward.add(calculateCurrentReward(i, userList[i][j]));\n                }\n            }\n            // 풀 정보 업데이트\n            poolInfo[i].URUPerShare = (poolInfo[i].stakeAmount).mul(100).div(totalStakeAmount).mul(URUperblock);\n            poolInfo[i].lastUpdatedTime = block.timestamp;\n        }\n    }\n\n    // 풀 내의 비율 계산\n    function calculateContribute(uint256 _pid, address _user) public view returns(uint256) {\n        poolinfo storage pool = poolInfo[_pid];\n        userinfo storage user = userInfo[_pid][_user];\n\n        uint256 contribution = (user.amount.mul(100)).div((KIP7(pool.lpToken)).balanceOf(address(this)));\n        return contribution;\n    }\n\n    // 마지막 갱신 후 현재 쌓이고 있는 보상\n    function calculateCurrentReward(uint256 _pid, address _user) public view returns(uint256) {\n        poolinfo storage pool = poolInfo[_pid];\n\n        uint256 userContribution = calculateContribute(_pid, _user); \n        return block.timestamp.sub(pool.lastUpdatedTime).mul(pool.URUPerShare).mul(userContribution).div(10000);\n    }\n\n    // struct 내에 저장된 보상 반환\n    function calculateReward(uint256 _pid, address _user) public view returns(uint256) {\n        userinfo storage user = userInfo[_pid][_user];\n        return user.reward;\n    }\n}",
  "sourcePath": "/Users/baekdonghyun/Desktop/beb-03-DND/contract/contracts/Master.sol",
  "compiler": {
    "name": "solc",
    "version": "0.5.6+commit.b259423e.Emscripten.clang"
  },
  "schemaVersion": "3.4.5",
  "updatedAt": "2022-05-26T13:07:46.440Z",
  "networkType": "ethereum",
  "devdoc": {
    "methods": {}
  },
  "userdoc": {
    "methods": {}
  }
}