{
  "contractName": "NFT",
  "abi": [
    {
      "constant": true,
      "inputs": [
        {
          "name": "interfaceId",
          "type": "bytes4"
        }
      ],
      "name": "supportsInterface",
      "outputs": [
        {
          "name": "",
          "type": "bool"
        }
      ],
      "payable": false,
      "stateMutability": "view",
      "type": "function"
    },
    {
      "constant": true,
      "inputs": [],
      "name": "name",
      "outputs": [
        {
          "name": "",
          "type": "string"
        }
      ],
      "payable": false,
      "stateMutability": "view",
      "type": "function"
    },
    {
      "constant": true,
      "inputs": [
        {
          "name": "tokenId",
          "type": "uint256"
        }
      ],
      "name": "getApproved",
      "outputs": [
        {
          "name": "",
          "type": "address"
        }
      ],
      "payable": false,
      "stateMutability": "view",
      "type": "function"
    },
    {
      "constant": false,
      "inputs": [
        {
          "name": "to",
          "type": "address"
        },
        {
          "name": "tokenId",
          "type": "uint256"
        }
      ],
      "name": "approve",
      "outputs": [],
      "payable": false,
      "stateMutability": "nonpayable",
      "type": "function"
    },
    {
      "constant": true,
      "inputs": [],
      "name": "totalSupply",
      "outputs": [
        {
          "name": "",
          "type": "uint256"
        }
      ],
      "payable": false,
      "stateMutability": "view",
      "type": "function"
    },
    {
      "constant": true,
      "inputs": [
        {
          "name": "",
          "type": "uint256"
        }
      ],
      "name": "tokenToFixDurability",
      "outputs": [
        {
          "name": "",
          "type": "uint256"
        }
      ],
      "payable": false,
      "stateMutability": "view",
      "type": "function"
    },
    {
      "constant": false,
      "inputs": [
        {
          "name": "from",
          "type": "address"
        },
        {
          "name": "to",
          "type": "address"
        },
        {
          "name": "tokenId",
          "type": "uint256"
        }
      ],
      "name": "transferFrom",
      "outputs": [],
      "payable": false,
      "stateMutability": "nonpayable",
      "type": "function"
    },
    {
      "constant": true,
      "inputs": [
        {
          "name": "owner",
          "type": "address"
        },
        {
          "name": "index",
          "type": "uint256"
        }
      ],
      "name": "tokenOfOwnerByIndex",
      "outputs": [
        {
          "name": "",
          "type": "uint256"
        }
      ],
      "payable": false,
      "stateMutability": "view",
      "type": "function"
    },
    {
      "constant": false,
      "inputs": [
        {
          "name": "from",
          "type": "address"
        },
        {
          "name": "to",
          "type": "address"
        },
        {
          "name": "tokenId",
          "type": "uint256"
        }
      ],
      "name": "safeTransferFrom",
      "outputs": [],
      "payable": false,
      "stateMutability": "nonpayable",
      "type": "function"
    },
    {
      "constant": true,
      "inputs": [
        {
          "name": "index",
          "type": "uint256"
        }
      ],
      "name": "tokenByIndex",
      "outputs": [
        {
          "name": "",
          "type": "uint256"
        }
      ],
      "payable": false,
      "stateMutability": "view",
      "type": "function"
    },
    {
      "constant": true,
      "inputs": [
        {
          "name": "",
          "type": "uint256"
        }
      ],
      "name": "weapons",
      "outputs": [
        {
          "name": "weaponType",
          "type": "uint256"
        },
        {
          "name": "weaponLevel",
          "type": "uint256"
        },
        {
          "name": "durability",
          "type": "uint256"
        },
        {
          "name": "enchant",
          "type": "uint256"
        }
      ],
      "payable": false,
      "stateMutability": "view",
      "type": "function"
    },
    {
      "constant": true,
      "inputs": [
        {
          "name": "",
          "type": "uint256"
        }
      ],
      "name": "tokenToCompound",
      "outputs": [
        {
          "name": "",
          "type": "uint256"
        }
      ],
      "payable": false,
      "stateMutability": "view",
      "type": "function"
    },
    {
      "constant": true,
      "inputs": [
        {
          "name": "tokenId",
          "type": "uint256"
        }
      ],
      "name": "ownerOf",
      "outputs": [
        {
          "name": "",
          "type": "address"
        }
      ],
      "payable": false,
      "stateMutability": "view",
      "type": "function"
    },
    {
      "constant": true,
      "inputs": [
        {
          "name": "owner",
          "type": "address"
        }
      ],
      "name": "balanceOf",
      "outputs": [
        {
          "name": "",
          "type": "uint256"
        }
      ],
      "payable": false,
      "stateMutability": "view",
      "type": "function"
    },
    {
      "constant": true,
      "inputs": [],
      "name": "symbol",
      "outputs": [
        {
          "name": "",
          "type": "string"
        }
      ],
      "payable": false,
      "stateMutability": "view",
      "type": "function"
    },
    {
      "constant": false,
      "inputs": [
        {
          "name": "to",
          "type": "address"
        },
        {
          "name": "approved",
          "type": "bool"
        }
      ],
      "name": "setApprovalForAll",
      "outputs": [],
      "payable": false,
      "stateMutability": "nonpayable",
      "type": "function"
    },
    {
      "constant": true,
      "inputs": [
        {
          "name": "",
          "type": "uint256"
        },
        {
          "name": "",
          "type": "uint256"
        }
      ],
      "name": "compoundResult",
      "outputs": [
        {
          "name": "",
          "type": "bool"
        }
      ],
      "payable": false,
      "stateMutability": "view",
      "type": "function"
    },
    {
      "constant": true,
      "inputs": [
        {
          "name": "",
          "type": "uint256"
        }
      ],
      "name": "tokenToFixEnchant",
      "outputs": [
        {
          "name": "",
          "type": "uint256"
        }
      ],
      "payable": false,
      "stateMutability": "view",
      "type": "function"
    },
    {
      "constant": false,
      "inputs": [
        {
          "name": "from",
          "type": "address"
        },
        {
          "name": "to",
          "type": "address"
        },
        {
          "name": "tokenId",
          "type": "uint256"
        },
        {
          "name": "_data",
          "type": "bytes"
        }
      ],
      "name": "safeTransferFrom",
      "outputs": [],
      "payable": false,
      "stateMutability": "nonpayable",
      "type": "function"
    },
    {
      "constant": true,
      "inputs": [
        {
          "name": "tokenId",
          "type": "uint256"
        }
      ],
      "name": "tokenURI",
      "outputs": [
        {
          "name": "",
          "type": "string"
        }
      ],
      "payable": false,
      "stateMutability": "view",
      "type": "function"
    },
    {
      "constant": true,
      "inputs": [
        {
          "name": "",
          "type": "uint256"
        }
      ],
      "name": "tokenToFix",
      "outputs": [
        {
          "name": "",
          "type": "uint256"
        }
      ],
      "payable": false,
      "stateMutability": "view",
      "type": "function"
    },
    {
      "constant": true,
      "inputs": [
        {
          "name": "",
          "type": "uint256"
        }
      ],
      "name": "percentage",
      "outputs": [
        {
          "name": "",
          "type": "uint256"
        }
      ],
      "payable": false,
      "stateMutability": "view",
      "type": "function"
    },
    {
      "constant": true,
      "inputs": [
        {
          "name": "owner",
          "type": "address"
        },
        {
          "name": "operator",
          "type": "address"
        }
      ],
      "name": "isApprovedForAll",
      "outputs": [
        {
          "name": "",
          "type": "bool"
        }
      ],
      "payable": false,
      "stateMutability": "view",
      "type": "function"
    },
    {
      "inputs": [
        {
          "name": "_token",
          "type": "address"
        }
      ],
      "payable": false,
      "stateMutability": "nonpayable",
      "type": "constructor"
    },
    {
      "anonymous": false,
      "inputs": [
        {
          "indexed": false,
          "name": "weaponId",
          "type": "uint256"
        },
        {
          "indexed": false,
          "name": "weaponType",
          "type": "uint256"
        },
        {
          "indexed": false,
          "name": "weaponLevel",
          "type": "uint256"
        }
      ],
      "name": "NewWeapon",
      "type": "event"
    },
    {
      "anonymous": false,
      "inputs": [
        {
          "indexed": true,
          "name": "from",
          "type": "address"
        },
        {
          "indexed": true,
          "name": "to",
          "type": "address"
        },
        {
          "indexed": true,
          "name": "tokenId",
          "type": "uint256"
        }
      ],
      "name": "Transfer",
      "type": "event"
    },
    {
      "anonymous": false,
      "inputs": [
        {
          "indexed": true,
          "name": "owner",
          "type": "address"
        },
        {
          "indexed": true,
          "name": "approved",
          "type": "address"
        },
        {
          "indexed": true,
          "name": "tokenId",
          "type": "uint256"
        }
      ],
      "name": "Approval",
      "type": "event"
    },
    {
      "anonymous": false,
      "inputs": [
        {
          "indexed": true,
          "name": "owner",
          "type": "address"
        },
        {
          "indexed": true,
          "name": "operator",
          "type": "address"
        },
        {
          "indexed": false,
          "name": "approved",
          "type": "bool"
        }
      ],
      "name": "ApprovalForAll",
      "type": "event"
    },
    {
      "constant": false,
      "inputs": [
        {
          "name": "recipient",
          "type": "address"
        },
        {
          "name": "_weaponLevel",
          "type": "uint256"
        }
      ],
      "name": "mint",
      "outputs": [
        {
          "name": "",
          "type": "uint256"
        }
      ],
      "payable": false,
      "stateMutability": "nonpayable",
      "type": "function"
    },
    {
      "constant": false,
      "inputs": [],
      "name": "buyBasicWeapon",
      "outputs": [],
      "payable": false,
      "stateMutability": "nonpayable",
      "type": "function"
    },
    {
      "constant": false,
      "inputs": [
        {
          "name": "_weaponLevel",
          "type": "uint256"
        }
      ],
      "name": "createRandomWeapon",
      "outputs": [],
      "payable": false,
      "stateMutability": "nonpayable",
      "type": "function"
    },
    {
      "constant": true,
      "inputs": [],
      "name": "createRandomNum",
      "outputs": [
        {
          "name": "",
          "type": "uint256"
        }
      ],
      "payable": false,
      "stateMutability": "view",
      "type": "function"
    },
    {
      "constant": false,
      "inputs": [
        {
          "name": "_weapon1Id",
          "type": "uint256"
        },
        {
          "name": "_weapon2Id",
          "type": "uint256"
        }
      ],
      "name": "compoundWeapon",
      "outputs": [],
      "payable": false,
      "stateMutability": "nonpayable",
      "type": "function"
    },
    {
      "constant": true,
      "inputs": [
        {
          "name": "_weapon1Id",
          "type": "uint256"
        },
        {
          "name": "_weapon2Id",
          "type": "uint256"
        }
      ],
      "name": "getCompoundResult",
      "outputs": [
        {
          "name": "",
          "type": "bool"
        }
      ],
      "payable": false,
      "stateMutability": "view",
      "type": "function"
    },
    {
      "constant": true,
      "inputs": [
        {
          "name": "_weaponId",
          "type": "uint256"
        }
      ],
      "name": "getWeaponLevel",
      "outputs": [
        {
          "name": "",
          "type": "uint256"
        }
      ],
      "payable": false,
      "stateMutability": "view",
      "type": "function"
    },
    {
      "constant": false,
      "inputs": [
        {
          "name": "_weaponId",
          "type": "uint256"
        }
      ],
      "name": "stakingWeapon",
      "outputs": [],
      "payable": false,
      "stateMutability": "nonpayable",
      "type": "function"
    },
    {
      "constant": false,
      "inputs": [
        {
          "name": "_weaponId",
          "type": "uint256"
        }
      ],
      "name": "fixWeaponDurability",
      "outputs": [],
      "payable": false,
      "stateMutability": "nonpayable",
      "type": "function"
    },
    {
      "constant": false,
      "inputs": [
        {
          "name": "_weaponId",
          "type": "uint256"
        }
      ],
      "name": "fixWeaponEnchant",
      "outputs": [],
      "payable": false,
      "stateMutability": "nonpayable",
      "type": "function"
    }
  ],
  "bytecode": "0x60806040526010600d55600d54600a0a600e553480156200001f57600080fd5b506040516020806200445b833981018060405260208110156200004157600080fd5b81019080805190602001909291905050506040518060400160405280600a81526020017f444e442d574541504f4e000000000000000000000000000000000000000000008152506040518060400160405280600681526020017f574541504f4e00000000000000000000000000000000000000000000000000008152508181620000d86301ffc9a760e01b620003fa60201b60201c565b620000f06380ac58cd60e01b620003fa60201b60201c565b6200010863780e9d6360e01b620003fa60201b60201c565b81600990805190602001906200012092919062000503565b5080600a90805190602001906200013992919062000503565b5062000152635b5e139f60e01b620003fa60201b60201c565b505050506063600f6000600981106200016757fe5b0181905550604f600f6001600981106200017d57fe5b01819055506045600f6002600981106200019357fe5b01819055506031600f600360098110620001a957fe5b01819055506027600f600460098110620001bf57fe5b0181905550601d600f600560098110620001d557fe5b01819055506013600f600660098110620001eb57fe5b01819055506009600f6007600981106200020157fe5b01819055506004600f6008600981106200021757fe5b0181905550603260186000600981106200022d57fe5b0181905550606460186001600981106200024357fe5b018190555060c860186002600981106200025957fe5b018190555061012c60186003600981106200027057fe5b01819055506101f460186004600981106200028757fe5b01819055506102bc60186005600981106200029e57fe5b01819055506103e86018600660098110620002b557fe5b0181905550610bb86018600760098110620002cc57fe5b01819055506113886018600860098110620002e357fe5b018190555060326033600060098110620002f957fe5b0181905550606460336001600981106200030f57fe5b0181905550609660336002600981106200032557fe5b018190555060c860336003600981106200033b57fe5b018190555060fa60336004600981106200035157fe5b018190555061012c60336005600981106200036857fe5b018190555061015e60336006600981106200037f57fe5b018190555061019060336007600981106200039657fe5b01819055506101c26033600860098110620003ad57fe5b018190555080603c60006101000a81548173ffffffffffffffffffffffffffffffffffffffff021916908373ffffffffffffffffffffffffffffffffffffffff16021790555050620005b2565b63ffffffff60e01b817bffffffffffffffffffffffffffffffffffffffffffffffffffffffff1916141562000497576040517f08c379a000000000000000000000000000000000000000000000000000000000815260040180806020018281038252601b8152602001807f4b495031333a20696e76616c696420696e74657266616365206964000000000081525060200191505060405180910390fd5b6001600080837bffffffffffffffffffffffffffffffffffffffffffffffffffffffff19167bffffffffffffffffffffffffffffffffffffffffffffffffffffffff1916815260200190815260200160002060006101000a81548160ff02191690831515021790555050565b828054600181600116156101000203166002900490600052602060002090601f016020900481019282601f106200054657805160ff191683800117855562000577565b8280016001018555821562000577579182015b828111156200057657825182559160200191906001019062000559565b5b5090506200058691906200058a565b5090565b620005af91905b80821115620005ab57600081600090555060010162000591565b5090565b90565b613e9980620005c26000396000f3fe608060405234801561001057600080fd5b50600436106101fb5760003560e01c80635ae25c2c1161011a578063a7ffa568116100ad578063c87b56dd1161007c578063c87b56dd14610b09578063d2cd0dfc14610bb0578063d840e2b614610bf2578063e27fd8ec14610c42578063e985e9c514610c84576101fb565b8063a7ffa56814610954578063a8622618146109a4578063b88d4fde146109e6578063bcde049214610aeb576101fb565b806370a08231116100e957806370a082311461081f57806389cfbb3e1461087757806395d89b4114610881578063a22cb46514610904576101fb565b80635ae25c2c14610713578063614a078e146107555780636352211e1461078357806365cf0b83146107f1576101fb565b8063249aec3e1161019257806340d7f82c1161016157806340d7f82c146105d457806342842e0e1461060c5780634f6ccce71461067a578063555e73c8146106bc576101fb565b8063249aec3e146104b45780632f745c59146104e25780633d61e4cb1461054457806340c10f1914610572576101fb565b806310712130116101ce57806310712130146103a457806318160ddd146103e65780631d67a5f61461040457806323b872dd14610446576101fb565b806301ffc9a71461020057806306fdde0314610265578063081812fc146102e8578063095ea7b314610356575b600080fd5b61024b6004803603602081101561021657600080fd5b8101908080357bffffffffffffffffffffffffffffffffffffffffffffffffffffffff19169060200190929190505050610d00565b604051808215151515815260200191505060405180910390f35b61026d610d67565b6040518080602001828103825283818151815260200191508051906020019080838360005b838110156102ad578082015181840152602081019050610292565b50505050905090810190601f1680156102da5780820380516001836020036101000a031916815260200191505b509250505060405180910390f35b610314600480360360208110156102fe57600080fd5b8101908080359060200190929190505050610e09565b604051808273ffffffffffffffffffffffffffffffffffffffff1673ffffffffffffffffffffffffffffffffffffffff16815260200191505060405180910390f35b6103a26004803603604081101561036c57600080fd5b81019080803573ffffffffffffffffffffffffffffffffffffffff16906020019092919080359060200190929190505050610ea4565b005b6103d0600480360360208110156103ba57600080fd5b810190808035906020019092919050505061109a565b6040518082815260200191505060405180910390f35b6103ee6110c5565b6040518082815260200191505060405180910390f35b6104306004803603602081101561041a57600080fd5b81019080803590602001909291905050506110d2565b6040518082815260200191505060405180910390f35b6104b26004803603606081101561045c57600080fd5b81019080803573ffffffffffffffffffffffffffffffffffffffff169060200190929190803573ffffffffffffffffffffffffffffffffffffffff169060200190929190803590602001909291905050506110ea565b005b6104e0600480360360208110156104ca57600080fd5b8101908080359060200190929190505050611159565b005b61052e600480360360408110156104f857600080fd5b81019080803573ffffffffffffffffffffffffffffffffffffffff16906020019092919080359060200190929190505050611485565b6040518082815260200191505060405180910390f35b6105706004803603602081101561055a57600080fd5b8101908080359060200190929190505050611544565b005b6105be6004803603604081101561058857600080fd5b81019080803573ffffffffffffffffffffffffffffffffffffffff16906020019092919080359060200190929190505050611870565b6040518082815260200191505060405180910390f35b61060a600480360360408110156105ea57600080fd5b8101908080359060200190929190803590602001909291905050506118a7565b005b6106786004803603606081101561062257600080fd5b81019080803573ffffffffffffffffffffffffffffffffffffffff169060200190929190803573ffffffffffffffffffffffffffffffffffffffff16906020019092919080359060200190929190505050611df7565b005b6106a66004803603602081101561069057600080fd5b8101908080359060200190929190505050611e17565b6040518082815260200191505060405180910390f35b6106e8600480360360208110156106d257600080fd5b8101908080359060200190929190505050611e97565b6040518085815260200184815260200183815260200182815260200194505050505060405180910390f35b61073f6004803603602081101561072957600080fd5b8101908080359060200190929190505050611ed4565b6040518082815260200191505060405180910390f35b6107816004803603602081101561076b57600080fd5b8101908080359060200190929190505050611eec565b005b6107af6004803603602081101561079957600080fd5b8101908080359060200190929190505050611fd4565b604051808273ffffffffffffffffffffffffffffffffffffffff1673ffffffffffffffffffffffffffffffffffffffff16815260200191505060405180910390f35b61081d6004803603602081101561080757600080fd5b810190808035906020019092919050505061209c565b005b6108616004803603602081101561083557600080fd5b81019080803573ffffffffffffffffffffffffffffffffffffffff169060200190929190505050612192565b6040518082815260200191505060405180910390f35b61087f612267565b005b61088961246a565b6040518080602001828103825283818151815260200191508051906020019080838360005b838110156108c95780820151818401526020810190506108ae565b50505050905090810190601f1680156108f65780820380516001836020036101000a031916815260200191505b509250505060405180910390f35b6109526004803603604081101561091a57600080fd5b81019080803573ffffffffffffffffffffffffffffffffffffffff16906020019092919080351515906020019092919050505061250c565b005b61098a6004803603604081101561096a57600080fd5b8101908080359060200190929190803590602001909291905050506126af565b604051808215151515815260200191505060405180910390f35b6109d0600480360360208110156109ba57600080fd5b81019080803590602001909291905050506126de565b6040518082815260200191505060405180910390f35b610ae9600480360360808110156109fc57600080fd5b81019080803573ffffffffffffffffffffffffffffffffffffffff169060200190929190803573ffffffffffffffffffffffffffffffffffffffff1690602001909291908035906020019092919080359060200190640100000000811115610a6357600080fd5b820183602082011115610a7557600080fd5b80359060200191846001830284011164010000000083111715610a9757600080fd5b91908080601f016020809104026020016040519081016040528093929190818152602001838380828437600081840152601f19601f8201169050808301925050505050505091929192905050506126f6565b005b610af3612768565b6040518082815260200191505060405180910390f35b610b3560048036036020811015610b1f57600080fd5b81019080803590602001909291905050506127ae565b6040518080602001828103825283818151815260200191508051906020019080838360005b83811015610b75578082015181840152602081019050610b5a565b50505050905090810190601f168015610ba25780820380516001836020036101000a031916815260200191505b509250505060405180910390f35b610bdc60048036036020811015610bc657600080fd5b81019080803590602001909291905050506128c1565b6040518082815260200191505060405180910390f35b610c2860048036036040811015610c0857600080fd5b8101908080359060200190929190803590602001909291905050506128d9565b604051808215151515815260200191505060405180910390f35b610c6e60048036036020811015610c5857600080fd5b8101908080359060200190929190505050612915565b6040518082815260200191505060405180910390f35b610ce660048036036040811015610c9a57600080fd5b81019080803573ffffffffffffffffffffffffffffffffffffffff169060200190929190803573ffffffffffffffffffffffffffffffffffffffff16906020019092919050505061292d565b604051808215151515815260200191505060405180910390f35b6000806000837bffffffffffffffffffffffffffffffffffffffffffffffffffffffff19167bffffffffffffffffffffffffffffffffffffffffffffffffffffffff1916815260200190815260200160002060009054906101000a900460ff169050919050565b606060098054600181600116156101000203166002900480601f016020809104026020016040519081016040528092919081815260200182805460018160011615610100020316600290048015610dff5780601f10610dd457610100808354040283529160200191610dff565b820191906000526020600020905b815481529060010190602001808311610de257829003601f168201915b5050505050905090565b6000610e14826129c1565b610e69576040517f08c379a000000000000000000000000000000000000000000000000000000000815260040180806020018281038252602b815260200180613de1602b913960400191505060405180910390fd5b6002600083815260200190815260200160002060009054906101000a900473ffffffffffffffffffffffffffffffffffffffff169050919050565b6000610eaf82611fd4565b90508073ffffffffffffffffffffffffffffffffffffffff168373ffffffffffffffffffffffffffffffffffffffff161415610f53576040517f08c379a00000000000000000000000000000000000000000000000000000000081526004018080602001828103825260208152602001807f4b495031373a20617070726f76616c20746f2063757272656e74206f776e657281525060200191505060405180910390fd5b8073ffffffffffffffffffffffffffffffffffffffff163373ffffffffffffffffffffffffffffffffffffffff161480610f935750610f92813361292d565b5b610fe8576040517f08c379a0000000000000000000000000000000000000000000000000000000008152600401808060200182810382526037815260200180613e0c6037913960400191505060405180910390fd5b826002600084815260200190815260200160002060006101000a81548173ffffffffffffffffffffffffffffffffffffffff021916908373ffffffffffffffffffffffffffffffffffffffff160217905550818373ffffffffffffffffffffffffffffffffffffffff168273ffffffffffffffffffffffffffffffffffffffff167f8c5be1e5ebec7d5bd14f71427d1e84f3dd0314c0f7b2291e5b200ac8c7c3b92560405160405180910390a4505050565b6000603d60018303815481106110ac57fe5b9060005260206000209060040201600101549050919050565b6000600780549050905090565b602181600981106110df57fe5b016000915090505481565b6110f43382612a33565b611149576040517f08c379a0000000000000000000000000000000000000000000000000000000008152600401808060200182810382526030815260200180613d056030913960400191505060405180910390fd5b611154838383612b27565b505050565b61116281611fd4565b73ffffffffffffffffffffffffffffffffffffffff163373ffffffffffffffffffffffffffffffffffffffff161461119957600080fd5b6003603d60018303815481106111ab57fe5b90600052602060002090600402016003015410611230576040517f08c379a000000000000000000000000000000000000000000000000000000000815260040180806020018281038252601f8152602001807f596f757220776561706f6e20646f65736e2774206e65656420746f206669780081525060200191505060405180910390fd5b600060336001603d600185038154811061124657fe5b906000526020600020906004020160010154036009811061126357fe5b01549050603c60009054906101000a900473ffffffffffffffffffffffffffffffffffffffff1673ffffffffffffffffffffffffffffffffffffffff166370a08231336040518263ffffffff1660e01b8152600401808273ffffffffffffffffffffffffffffffffffffffff1673ffffffffffffffffffffffffffffffffffffffff16815260200191505060206040518083038186803b15801561130657600080fd5b505afa15801561131a573d6000803e3d6000fd5b505050506040513d602081101561133057600080fd5b8101908080519060200190929190505050811115611399576040517f08c379a000000000000000000000000000000000000000000000000000000000815260040180806020018281038252602d815260200180613c1e602d913960400191505060405180910390fd5b6003603d60018403815481106113ab57fe5b906000526020600020906004020160030181905550603c60009054906101000a900473ffffffffffffffffffffffffffffffffffffffff1673ffffffffffffffffffffffffffffffffffffffff16639dc29fac33836040518363ffffffff1660e01b8152600401808373ffffffffffffffffffffffffffffffffffffffff1673ffffffffffffffffffffffffffffffffffffffff16815260200182815260200192505050600060405180830381600087803b15801561146957600080fd5b505af115801561147d573d6000803e3d6000fd5b505050505050565b600061149083612192565b82106114e7576040517f08c379a000000000000000000000000000000000000000000000000000000000815260040180806020018281038252602a815260200180613c92602a913960400191505060405180910390fd5b600560008473ffffffffffffffffffffffffffffffffffffffff1673ffffffffffffffffffffffffffffffffffffffff168152602001908152602001600020828154811061153157fe5b9060005260206000200154905092915050565b61154d81611fd4565b73ffffffffffffffffffffffffffffffffffffffff163373ffffffffffffffffffffffffffffffffffffffff161461158457600080fd5b6003603d600183038154811061159657fe5b9060005260206000209060040201600201541061161b576040517f08c379a000000000000000000000000000000000000000000000000000000000815260040180806020018281038252601f8152602001807f596f757220776561706f6e20646f65736e2774206e65656420746f206669780081525060200191505060405180910390fd5b600060336001603d600185038154811061163157fe5b906000526020600020906004020160010154036009811061164e57fe5b01549050603c60009054906101000a900473ffffffffffffffffffffffffffffffffffffffff1673ffffffffffffffffffffffffffffffffffffffff166370a08231336040518263ffffffff1660e01b8152600401808273ffffffffffffffffffffffffffffffffffffffff1673ffffffffffffffffffffffffffffffffffffffff16815260200191505060206040518083038186803b1580156116f157600080fd5b505afa158015611705573d6000803e3d6000fd5b505050506040513d602081101561171b57600080fd5b8101908080519060200190929190505050811115611784576040517f08c379a0000000000000000000000000000000000000000000000000000000008152600401808060200182810382526030815260200180613bc06030913960400191505060405180910390fd5b6003603d600184038154811061179657fe5b906000526020600020906004020160020181905550603c60009054906101000a900473ffffffffffffffffffffffffffffffffffffffff1673ffffffffffffffffffffffffffffffffffffffff16639dc29fac33836040518363ffffffff1660e01b8152600401808373ffffffffffffffffffffffffffffffffffffffff1673ffffffffffffffffffffffffffffffffffffffff16815260200182815260200192505050600060405180830381600087803b15801561185457600080fd5b505af1158015611868573d6000803e3d6000fd5b505050505050565b600061187c600c612b4b565b6000611888600c612b61565b90506118948482612b6f565b61189d83611eec565b8091505092915050565b6118b082611fd4565b73ffffffffffffffffffffffffffffffffffffffff163373ffffffffffffffffffffffffffffffffffffffff16146118e757600080fd5b6118f081611fd4565b73ffffffffffffffffffffffffffffffffffffffff163373ffffffffffffffffffffffffffffffffffffffff161461192757600080fd5b80821415611980576040517f08c379a0000000000000000000000000000000000000000000000000000000008152600401808060200182810382526021815260200180613cbc6021913960400191505060405180910390fd5b6000603d600184038154811061199257fe5b906000526020600020906004020190506000603d60018403815481106119b457fe5b906000526020600020906004020190508060010154826001015414611a41576040517f08c379a000000000000000000000000000000000000000000000000000000000815260040180806020018281038252601a8152602001807f436f6d706f756e642053616d6520776561706f6e206c6576656c00000000000081525060200191505060405180910390fd5b6000826003015414158015611a5b57506000816003015414155b611acd576040517f08c379a000000000000000000000000000000000000000000000000000000000815260040180806020018281038252601d8152602001807f576561706f6e20636f6d706f756e64206e6565647320656e6368616e7400000081525060200191505060405180910390fd5b60006018600184600101540360098110611ae357fe5b01549050603c60009054906101000a900473ffffffffffffffffffffffffffffffffffffffff1673ffffffffffffffffffffffffffffffffffffffff166370a08231336040518263ffffffff1660e01b8152600401808273ffffffffffffffffffffffffffffffffffffffff1673ffffffffffffffffffffffffffffffffffffffff16815260200191505060206040518083038186803b158015611b8657600080fd5b505afa158015611b9a573d6000803e3d6000fd5b505050506040513d6020811015611bb057600080fd5b8101908080519060200190929190505050811115611c19576040517f08c379a0000000000000000000000000000000000000000000000000000000008152600401808060200182810382526023815260200180613b9d6023913960400191505060405180910390fd5b6000600f600185600101540360098110611c2f57fe5b015490506000600e546002611c42612b90565b86600001548860000154010181611c5557fe5b0481611c5d57fe5b0690506001856003015403856003018190555060018460030154038460030181905550603c60009054906101000a900473ffffffffffffffffffffffffffffffffffffffff1673ffffffffffffffffffffffffffffffffffffffff16639dc29fac33856040518363ffffffff1660e01b8152600401808373ffffffffffffffffffffffffffffffffffffffff1673ffffffffffffffffffffffffffffffffffffffff16815260200182815260200192505050600060405180830381600087803b158015611d2957600080fd5b505af1158015611d3d573d6000803e3d6000fd5b5050505081611d4a612768565b11611da257611d60816001876001015401612bd7565b6001603e6000898152602001908152602001600020600088815260200190815260200160002060006101000a81548160ff021916908315150217905550611dee565b611db0818660010154612bd7565b6000603e6000898152602001908152602001600020600088815260200190815260200160002060006101000a81548160ff0219169083151502179055505b50505050505050565b611e12838383604051806020016040528060008152506126f6565b505050565b6000611e216110c5565b8210611e78576040517f08c379a000000000000000000000000000000000000000000000000000000000815260040180806020018281038252602b815260200180613db6602b913960400191505060405180910390fd5b60078281548110611e8557fe5b90600052602060002001549050919050565b603d8181548110611ea457fe5b90600052602060002090600402016000915090508060000154908060010154908060020154908060030154905084565b60188160098110611ee157fe5b016000915090505481565b6000611ef6612b90565b905060648181611f0257fe5b068103905060006001603d6040518060800160405280858152602001868152602001600381526020016003815250908060018154018082558091505090600182039060005260206000209060040201600090919290919091506000820151816000015560208201518160010155604082015181600201556060820151816003015550500390507f5bd4bf80a2d2a135c85b92a11d79ad20c06c33b2f780af640e38be2aae2275de81838560405180848152602001838152602001828152602001935050505060405180910390a1505050565b6000806001600084815260200190815260200160002060009054906101000a900473ffffffffffffffffffffffffffffffffffffffff169050600073ffffffffffffffffffffffffffffffffffffffff168173ffffffffffffffffffffffffffffffffffffffff161415612093576040517f08c379a0000000000000000000000000000000000000000000000000000000008152600401808060200182810382526028815260200180613cdd6028913960400191505060405180910390fd5b80915050919050565b6120a581611fd4565b73ffffffffffffffffffffffffffffffffffffffff163373ffffffffffffffffffffffffffffffffffffffff1614612145576040517f08c379a000000000000000000000000000000000000000000000000000000000815260040180806020018281038252601f8152602001807f596f75206861766520746f207374616b696e6720796f757220776561706f6e0081525060200191505060405180910390fd5b6001603d600183038154811061215757fe5b90600052602060002090600402016002015403603d600183038154811061217a57fe5b90600052602060002090600402016002018190555050565b60008073ffffffffffffffffffffffffffffffffffffffff168273ffffffffffffffffffffffffffffffffffffffff161415612219576040517f08c379a0000000000000000000000000000000000000000000000000000000008152600401808060200182810382526029815260200180613d656029913960400191505060405180910390fd5b612260600360008473ffffffffffffffffffffffffffffffffffffffff1673ffffffffffffffffffffffffffffffffffffffff168152602001908152602001600020612b61565b9050919050565b603c60009054906101000a900473ffffffffffffffffffffffffffffffffffffffff1673ffffffffffffffffffffffffffffffffffffffff166370a08231336040518263ffffffff1660e01b8152600401808273ffffffffffffffffffffffffffffffffffffffff1673ffffffffffffffffffffffffffffffffffffffff16815260200191505060206040518083038186803b15801561230657600080fd5b505afa15801561231a573d6000803e3d6000fd5b505050506040513d602081101561233057600080fd5b81019080805190602001909291905050506032111561239a576040517f08c379a0000000000000000000000000000000000000000000000000000000008152600401808060200182810382526024815260200180613c6e6024913960400191505060405180910390fd5b603c60009054906101000a900473ffffffffffffffffffffffffffffffffffffffff1673ffffffffffffffffffffffffffffffffffffffff16639dc29fac3360326040518363ffffffff1660e01b8152600401808373ffffffffffffffffffffffffffffffffffffffff1673ffffffffffffffffffffffffffffffffffffffff16815260200182815260200192505050600060405180830381600087803b15801561244457600080fd5b505af1158015612458573d6000803e3d6000fd5b50505050612467336001611870565b50565b6060600a8054600181600116156101000203166002900480601f0160208091040260200160405190810160405280929190818152602001828054600181600116156101000203166002900480156125025780601f106124d757610100808354040283529160200191612502565b820191906000526020600020905b8154815290600101906020018083116124e557829003601f168201915b5050505050905090565b3373ffffffffffffffffffffffffffffffffffffffff168273ffffffffffffffffffffffffffffffffffffffff1614156125ae576040517f08c379a00000000000000000000000000000000000000000000000000000000081526004018080602001828103825260188152602001807f4b495031373a20617070726f766520746f2063616c6c6572000000000000000081525060200191505060405180910390fd5b80600460003373ffffffffffffffffffffffffffffffffffffffff1673ffffffffffffffffffffffffffffffffffffffff16815260200190815260200160002060008473ffffffffffffffffffffffffffffffffffffffff1673ffffffffffffffffffffffffffffffffffffffff16815260200190815260200160002060006101000a81548160ff0219169083151502179055508173ffffffffffffffffffffffffffffffffffffffff163373ffffffffffffffffffffffffffffffffffffffff167f17307eab39ab6107e8899845ad3d59bd9653f200f220920489ca2b5937696c3183604051808215151515815260200191505060405180910390a35050565b603e6020528160005260406000206020528060005260406000206000915091509054906101000a900460ff1681565b602a81600981106126eb57fe5b016000915090505481565b6127018484846110ea565b61270d84848484612cc7565b612762576040517f08c379a0000000000000000000000000000000000000000000000000000000008152600401808060200182810382526030815260200180613d356030913960400191505060405180910390fd5b50505050565b600080429050600081604051602001808281526020019150506040516020818303038152906040528051906020012060001c9050606481816127a657fe5b069250505090565b60606127b9826129c1565b61280e576040517f08c379a000000000000000000000000000000000000000000000000000000000815260040180806020018281038252602e815260200180613bf0602e913960400191505060405180910390fd5b600b60008381526020019081526020016000208054600181600116156101000203166002900480601f0160208091040260200160405190810160405280929190818152602001828054600181600116156101000203166002900480156128b55780601f1061288a576101008083540402835291602001916128b5565b820191906000526020600020905b81548152906001019060200180831161289857829003601f168201915b50505050509050919050565b603381600981106128ce57fe5b016000915090505481565b6000603e6000848152602001908152602001600020600083815260200190815260200160002060009054906101000a900460ff16905092915050565b600f816009811061292257fe5b016000915090505481565b6000600460008473ffffffffffffffffffffffffffffffffffffffff1673ffffffffffffffffffffffffffffffffffffffff16815260200190815260200160002060008373ffffffffffffffffffffffffffffffffffffffff1673ffffffffffffffffffffffffffffffffffffffff16815260200190815260200160002060009054906101000a900460ff16905092915050565b6000806001600084815260200190815260200160002060009054906101000a900473ffffffffffffffffffffffffffffffffffffffff169050600073ffffffffffffffffffffffffffffffffffffffff168173ffffffffffffffffffffffffffffffffffffffff161415915050919050565b6000612a3e826129c1565b612a93576040517f08c379a000000000000000000000000000000000000000000000000000000000815260040180806020018281038252602b815260200180613e43602b913960400191505060405180910390fd5b6000612a9e83611fd4565b90508073ffffffffffffffffffffffffffffffffffffffff168473ffffffffffffffffffffffffffffffffffffffff161480612b0d57508373ffffffffffffffffffffffffffffffffffffffff16612af584610e09565b73ffffffffffffffffffffffffffffffffffffffff16145b80612b1e5750612b1d818561292d565b5b91505092915050565b612b32838383613229565b612b3c8382613484565b612b468282613622565b505050565b6001816000016000828254019250508190555050565b600081600001549050919050565b612b7982826136e9565b612b838282613622565b612b8c81613901565b5050565b600080429050600081604051602001808281526020019150506040516020818303038152906040528051906020012060001c9050600e548181612bcf57fe5b069250505090565b612be1600c612b4b565b60006001603d6040518060800160405280868152602001858152602001600381526020016003815250908060018154018082558091505090600182039060005260206000209060040201600090919290919091506000820151816000015560208201518160010155604082015181600201556060820151816003015550500390506000612c6e600c612b61565b9050612c7a3382612b6f565b7f5bd4bf80a2d2a135c85b92a11d79ad20c06c33b2f780af640e38be2aae2275de82858560405180848152602001838152602001828152602001935050505060405180910390a150505050565b6000806060612ceb8673ffffffffffffffffffffffffffffffffffffffff1661394d565b612cfa57600192505050613221565b8573ffffffffffffffffffffffffffffffffffffffff1663150b7a0260e01b33898888604051602401808573ffffffffffffffffffffffffffffffffffffffff1673ffffffffffffffffffffffffffffffffffffffff1681526020018473ffffffffffffffffffffffffffffffffffffffff1673ffffffffffffffffffffffffffffffffffffffff16815260200183815260200180602001828103825283818151815260200191508051906020019080838360005b83811015612dca578082015181840152602081019050612daf565b50505050905090810190601f168015612df75780820380516001836020036101000a031916815260200191505b5095505050505050604051602081830303815290604052907bffffffffffffffffffffffffffffffffffffffffffffffffffffffff19166020820180517bffffffffffffffffffffffffffffffffffffffffffffffffffffffff83818316178352505050506040518082805190602001908083835b60208310612e8f5780518252602082019150602081019050602083039250612e6c565b6001836020036101000a0380198251168184511680821785525050505050509050019150506000604051808303816000865af19150503d8060008114612ef1576040519150601f19603f3d011682016040523d82523d6000602084013e612ef6565b606091505b5080925081935050506000815114158015612f7a575063150b7a0260e01b7bffffffffffffffffffffffffffffffffffffffffffffffffffffffff1916818060200190516020811015612f4857600080fd5b81019080805190602001909291905050507bffffffffffffffffffffffffffffffffffffffffffffffffffffffff1916145b15612f8a57600192505050613221565b8573ffffffffffffffffffffffffffffffffffffffff16636745782b60e01b33898888604051602401808573ffffffffffffffffffffffffffffffffffffffff1673ffffffffffffffffffffffffffffffffffffffff1681526020018473ffffffffffffffffffffffffffffffffffffffff1673ffffffffffffffffffffffffffffffffffffffff16815260200183815260200180602001828103825283818151815260200191508051906020019080838360005b8381101561305a57808201518184015260208101905061303f565b50505050905090810190601f1680156130875780820380516001836020036101000a031916815260200191505b5095505050505050604051602081830303815290604052907bffffffffffffffffffffffffffffffffffffffffffffffffffffffff19166020820180517bffffffffffffffffffffffffffffffffffffffffffffffffffffffff83818316178352505050506040518082805190602001908083835b6020831061311f57805182526020820191506020810190506020830392506130fc565b6001836020036101000a0380198251168184511680821785525050505050509050019150506000604051808303816000865af19150503d8060008114613181576040519150601f19603f3d011682016040523d82523d6000602084013e613186565b606091505b508092508193505050600081511415801561320a5750636745782b60e01b7bffffffffffffffffffffffffffffffffffffffffffffffffffffffff19168180602001905160208110156131d857600080fd5b81019080805190602001909291905050507bffffffffffffffffffffffffffffffffffffffffffffffffffffffff1916145b1561321a57600192505050613221565b6000925050505b949350505050565b8273ffffffffffffffffffffffffffffffffffffffff1661324982611fd4565b73ffffffffffffffffffffffffffffffffffffffff16146132b5576040517f08c379a0000000000000000000000000000000000000000000000000000000008152600401808060200182810382526028815260200180613d8e6028913960400191505060405180910390fd5b600073ffffffffffffffffffffffffffffffffffffffff168273ffffffffffffffffffffffffffffffffffffffff16141561333b576040517f08c379a0000000000000000000000000000000000000000000000000000000008152600401808060200182810382526023815260200180613c4b6023913960400191505060405180910390fd5b61334481613960565b61338b600360008573ffffffffffffffffffffffffffffffffffffffff1673ffffffffffffffffffffffffffffffffffffffff168152602001908152602001600020613a1e565b6133d2600360008473ffffffffffffffffffffffffffffffffffffffff1673ffffffffffffffffffffffffffffffffffffffff168152602001908152602001600020612b4b565b816001600083815260200190815260200160002060006101000a81548173ffffffffffffffffffffffffffffffffffffffff021916908373ffffffffffffffffffffffffffffffffffffffff160217905550808273ffffffffffffffffffffffffffffffffffffffff168473ffffffffffffffffffffffffffffffffffffffff167fddf252ad1be2c89b69c2b068fc378daa952ba7f163c4a11628f55a4df523b3ef60405160405180910390a4505050565b60006134dc6001600560008673ffffffffffffffffffffffffffffffffffffffff1673ffffffffffffffffffffffffffffffffffffffff16815260200190815260200160002080549050613a4190919063ffffffff16565b90506000600660008481526020019081526020016000205490508181146135c9576000600560008673ffffffffffffffffffffffffffffffffffffffff1673ffffffffffffffffffffffffffffffffffffffff168152602001908152602001600020838154811061354957fe5b9060005260206000200154905080600560008773ffffffffffffffffffffffffffffffffffffffff1673ffffffffffffffffffffffffffffffffffffffff16815260200190815260200160002083815481106135a157fe5b9060005260206000200181905550816006600083815260200190815260200160002081905550505b600560008573ffffffffffffffffffffffffffffffffffffffff1673ffffffffffffffffffffffffffffffffffffffff16815260200190815260200160002080548091906001900361361b9190613b4b565b5050505050565b600560008373ffffffffffffffffffffffffffffffffffffffff1673ffffffffffffffffffffffffffffffffffffffff168152602001908152602001600020805490506006600083815260200190815260200160002081905550600560008373ffffffffffffffffffffffffffffffffffffffff1673ffffffffffffffffffffffffffffffffffffffff1681526020019081526020016000208190806001815401808255809150509060018203906000526020600020016000909192909190915055505050565b600073ffffffffffffffffffffffffffffffffffffffff168273ffffffffffffffffffffffffffffffffffffffff16141561378c576040517f08c379a000000000000000000000000000000000000000000000000000000000815260040180806020018281038252601f8152602001807f4b495031373a206d696e7420746f20746865207a65726f20616464726573730081525060200191505060405180910390fd5b613795816129c1565b15613808576040517f08c379a000000000000000000000000000000000000000000000000000000000815260040180806020018281038252601b8152602001807f4b495031373a20746f6b656e20616c7265616479206d696e746564000000000081525060200191505060405180910390fd5b816001600083815260200190815260200160002060006101000a81548173ffffffffffffffffffffffffffffffffffffffff021916908373ffffffffffffffffffffffffffffffffffffffff1602179055506138a1600360008473ffffffffffffffffffffffffffffffffffffffff1673ffffffffffffffffffffffffffffffffffffffff168152602001908152602001600020612b4b565b808273ffffffffffffffffffffffffffffffffffffffff16600073ffffffffffffffffffffffffffffffffffffffff167fddf252ad1be2c89b69c2b068fc378daa952ba7f163c4a11628f55a4df523b3ef60405160405180910390a45050565b6007805490506008600083815260200190815260200160002081905550600781908060018154018082558091505090600182039060005260206000200160009091929091909150555050565b600080823b905060008111915050919050565b600073ffffffffffffffffffffffffffffffffffffffff166002600083815260200190815260200160002060009054906101000a900473ffffffffffffffffffffffffffffffffffffffff1673ffffffffffffffffffffffffffffffffffffffff1614613a1b5760006002600083815260200190815260200160002060006101000a81548173ffffffffffffffffffffffffffffffffffffffff021916908373ffffffffffffffffffffffffffffffffffffffff1602179055505b50565b613a3660018260000154613a4190919063ffffffff16565b816000018190555050565b6000613a8383836040518060400160405280601e81526020017f536166654d6174683a207375627472616374696f6e206f766572666c6f770000815250613a8b565b905092915050565b6000838311158290613b38576040517f08c379a00000000000000000000000000000000000000000000000000000000081526004018080602001828103825283818151815260200191508051906020019080838360005b83811015613afd578082015181840152602081019050613ae2565b50505050905090810190601f168015613b2a5780820380516001836020036101000a031916815260200191505b509250505060405180910390fd5b5060008385039050809150509392505050565b815481835581811115613b7257818360005260206000209182019101613b719190613b77565b5b505050565b613b9991905b80821115613b95576000816000905550600101613b7d565b5090565b9056fe596f75206d75737420686176652055525520746f6b656e20746f20636f6d706f756e64596f75206d757374206861766520656e6f7567682055525520746f6b656e20746f20666978206475726162696c6974794b495031374d657461646174613a2055524920717565727920666f72206e6f6e6578697374656e7420746f6b656e596f75206d757374206861766520656e6f7567682055525520746f6b656e20746f2066697820656e6368616e744b495031373a207472616e7366657220746f20746865207a65726f20616464726573734e6f7420656e6f75676820746f6b656e20746f2062757920626173696320776561706f6e4b49503137456e756d657261626c653a206f776e657220696e646578206f7574206f6620626f756e647343616e206e6f7420636f6d706f756e6420776974682053616d6520776561706f6e4b495031373a206f776e657220717565727920666f72206e6f6e6578697374656e7420746f6b656e4b495031373a207472616e736665722063616c6c6572206973206e6f74206f776e6572206e6f7220617070726f7665644b495031373a207472616e7366657220746f206e6f6e204b49503137526563656976657220696d706c656d656e7465724b495031373a2062616c616e636520717565727920666f7220746865207a65726f20616464726573734b495031373a207472616e73666572206f6620746f6b656e2074686174206973206e6f74206f776e4b49503137456e756d657261626c653a20676c6f62616c20696e646578206f7574206f6620626f756e64734b495031373a20617070726f76656420717565727920666f72206e6f6e6578697374656e7420746f6b656e4b495031373a20617070726f76652063616c6c6572206973206e6f74206f776e6572206e6f7220617070726f76656420666f7220616c6c4b495031373a206f70657261746f7220717565727920666f72206e6f6e6578697374656e7420746f6b656ea165627a7a723058207c9fc3dc034252f58fd6b7e182c15edeb407ece3deaf106e6a1e237610ba889f0029",
  "source": "// SPDX-License-Identifier: MIT\npragma solidity >=0.4.22 <0.9.0;\n\nimport \"@klaytn/contracts/token/KIP17/KIP17Full.sol\";\nimport \"@klaytn/contracts/drafts/Counters.sol\";\nimport \"./Token.sol\";\n\ncontract NFT is KIP17Full{\n  using Counters for Counters.Counter;\n  Counters.Counter private _Ids;\n\n    uint256 weaponDigits = 16;\n    uint256 weaponModulus = 10 ** weaponDigits;\n    \n    uint256 [9] public percentage; //  \n    uint256 [9] public tokenToCompound; //   \n    uint256 [9] public tokenToFixDurability; //    \n    uint256 [9] public tokenToFixEnchant; //     \n    uint256 [9] public tokenToFix; //    \n    // uint256 [9] public tokenToFixEnchant; //     \n\n    Token token;\n\n    struct Weapon {\n        uint256 weaponType; // dna \n        uint256 weaponLevel; // \n        uint256 durability; //  - staking\n        uint256 enchant; // - compound\n    }\n\n    Weapon[] public weapons;\n\n    mapping(uint256 => mapping(uint256 => bool)) public compoundResult;\n\n    event NewWeapon(uint256 weaponId, uint256 weaponType, uint256 weaponLevel);\n\n\n    constructor(address _token) public KIP17Full(\"DND-WEAPON\", \"WEAPON\"){\n        percentage[0] = 99;\n        percentage[1] = 79;\n        percentage[2] = 69;\n        percentage[3] = 49;\n        percentage[4] = 39;\n        percentage[5] = 29;\n        percentage[6] = 19;\n        percentage[7] = 9;\n        percentage[8] = 4;\n\n        tokenToCompound[0] = 50;\n        tokenToCompound[1] = 100;\n        tokenToCompound[2] = 200;\n        tokenToCompound[3] = 300;\n        tokenToCompound[4] = 500;\n        tokenToCompound[5] = 700;\n        tokenToCompound[6] = 1000;\n        tokenToCompound[7] = 3000;\n        tokenToCompound[8] = 5000;\n\n        // ,       \n        tokenToFix[0] = 50;\n        tokenToFix[1] = 100;\n        tokenToFix[2] = 150;\n        tokenToFix[3] = 200;\n        tokenToFix[4] = 250;\n        tokenToFix[5] = 300;\n        tokenToFix[6] = 350;\n        tokenToFix[7] = 400;\n        tokenToFix[8] = 450;\n        // tokenToFixEnchant[0~8] = ??;\n\n        token = Token(_token);\n        \n    }\n\n    function mint (address recipient, uint256 _weaponLevel) public returns (uint256) {\n    _Ids.increment();\n\n    uint256 newItemId = _Ids.current();\n    _mint(recipient, newItemId);\n\n    createRandomWeapon(_weaponLevel);\n\n    return newItemId;\n     }\n    \n    //   \n    function buyBasicWeapon () public {\n        //  50    \n        require(50 <= token.balanceOf(msg.sender), \"Not enough token to buy basic weapon\");\n        \n        token.burn(msg.sender, 50);\n        mint(msg.sender, 1);\n    }\n\n    //   \n    function _createWeapon(uint256 _weaponType, uint256 _weaponLevel) internal {\n         _Ids.increment();\n\n        uint256 id = weapons.push(Weapon(_weaponType, _weaponLevel, 3, 3)) - 1;\n        uint256 newItemId = _Ids.current();\n        \n        _mint(msg.sender, newItemId);\n\n        emit NewWeapon(id, _weaponType, _weaponLevel);\n    }\n\n    //    16  \n    function _generateRandomType() private view returns (uint256) {\n      //      . \n        uint256 randomNumFromBlock = block.timestamp; \n        uint256 randomNum = uint256(keccak256(abi.encodePacked(randomNumFromBlock)));\n        return randomNum % weaponModulus;\n    }\n\n    function createRandomWeapon(uint256 _weaponLevel) public {\n        uint256 randomType = _generateRandomType();\n        randomType = randomType - randomType % 100; // \n        uint256 id = weapons.push(Weapon(randomType, _weaponLevel, 3, 3)) - 1;\n\n        emit NewWeapon(id, randomType, _weaponLevel);\n    }\n\n    //    2  \n    function createRandomNum() public view returns(uint256) {\n        uint256 randomNumFromBlock = block.timestamp;\n        uint256 randomNum = uint256(keccak256(abi.encodePacked(randomNumFromBlock)));\n\n        return randomNum % 100;\n    }\n\n    function compoundWeapon(uint256 _weapon1Id, uint256 _weapon2Id) public { // targetType  weaponId 2\n    //  2   \n    require(msg.sender == ownerOf(_weapon1Id));\n    require(msg.sender == ownerOf(_weapon2Id));\n\n    //  id nft \n    require(_weapon1Id != _weapon2Id , \"Can not compound with Same weapon\");\n    \n    //     \n    Weapon storage myWeapon1 = weapons[_weapon1Id - 1];\n    Weapon storage myWeapon2 = weapons[_weapon2Id - 1];\n    require(myWeapon1.weaponLevel == myWeapon2.weaponLevel, \"Compound Same weapon level\");\n\n    //   enchant( ) \n    require(myWeapon1.enchant != 0 && myWeapon2.enchant != 0, \"Weapon compound needs enchant\");\n    \n    //       \n    uint256 spendToken = tokenToCompound[myWeapon1.weaponLevel - 1];\n    require(spendToken <= token.balanceOf(msg.sender), \"You must have URU token to compound\");\n\n    //         \n    // weapon1       ,  \n    uint256 compoundPercentage = percentage[myWeapon1.weaponLevel - 1];\n\n    uint256 newType = (myWeapon1.weaponType + myWeapon2.weaponType + _generateRandomType()) / 2 % weaponModulus;\n\n    //  enchant( ) 1 \n    myWeapon1.enchant = myWeapon1.enchant - 1;\n    myWeapon2.enchant = myWeapon2.enchant - 1;\n\n    //  msg.sender  (burn)\n    token.burn(msg.sender, spendToken);\n    \n\n    //    ,   \n    if(createRandomNum() <= compoundPercentage) {\n        _createWeapon(newType, myWeapon1.weaponLevel + 1);\n        compoundResult[_weapon1Id][_weapon2Id] = true;\n    } else {\n        _createWeapon(newType, myWeapon1.weaponLevel);\n        compoundResult[_weapon1Id][_weapon2Id] = false;\n    }\n    \n    }\n    function getCompoundResult (uint256 _weapon1Id, uint256 _weapon2Id) public view returns (bool) {\n        return compoundResult[_weapon1Id][_weapon2Id];\n    }\n    //     (getter)\n    function getWeaponLevel (uint256 _weaponId) public view returns(uint256) {\n        return weapons[_weaponId - 1].weaponLevel;\n    }\n\n    // staking  \n    function stakingWeapon (uint256 _weaponId) public {\n        //    \n        require(msg.sender == ownerOf(_weaponId), \"You have to staking your weapon\");\n\n        weapons[_weaponId - 1].durability = weapons[_weaponId - 1].durability - 1;\n    }\n\n    // staking  \n    function fixWeaponDurability (uint256 _weaponId) public {\n        //    \n        require(msg.sender == ownerOf(_weaponId));\n        \n        //  3  \n        require(weapons[_weaponId -1].durability < 3, \"Your weapon doesn't need to fix\");\n\n        //     \n        uint256 spendToken = tokenToFix[weapons[_weaponId - 1].weaponLevel - 1];\n        require(spendToken <= token.balanceOf(msg.sender), \"You must have enough URU token to fix durability\");\n        \n        \n        weapons[_weaponId - 1].durability = 3;\n\n        token.burn(msg.sender, spendToken);\n    }\n\n\n    // enchant  \n    function fixWeaponEnchant (uint256 _weaponId) public {\n        //    \n        require(msg.sender == ownerOf(_weaponId));\n\n        //  3  \n        require(weapons[_weaponId -1].enchant < 3, \"Your weapon doesn't need to fix\");\n        \n        //     \n        uint256 spendToken = tokenToFix[weapons[_weaponId - 1].weaponLevel - 1];\n        require(spendToken <= token.balanceOf(msg.sender), \"You must have enough URU token to fix enchant\");\n        \n        \n        weapons[_weaponId - 1].enchant = 3;\n\n        token.burn(msg.sender, spendToken);\n    }\n\n    //  msg.sender      (getter)\n\n}",
  "sourcePath": "/Users/baekdonghyun/Desktop/beb-03-DND/contract/contracts/NFT.sol",
  "compiler": {
    "name": "solc",
    "version": "0.5.6+commit.b259423e.Emscripten.clang"
  },
  "schemaVersion": "3.4.5",
  "updatedAt": "2022-05-26T12:20:32.897Z",
  "networkType": "ethereum",
  "devdoc": {
    "methods": {
      "approve(address,uint256)": {
        "details": "Approves another address to transfer the given token ID The zero address indicates there is no approved address. There can only be one approved address per token at a given time. Can only be called by the token owner or an approved operator.",
        "params": {
          "to": "address to be approved for the given token ID",
          "tokenId": "uint256 ID of the token to be approved"
        }
      },
      "balanceOf(address)": {
        "details": "Gets the balance of the specified address.",
        "params": {
          "owner": "address to query the balance of"
        },
        "return": "uint256 representing the amount owned by the passed address"
      },
      "getApproved(uint256)": {
        "details": "Gets the approved address for a token ID, or zero if no address set Reverts if the token ID does not exist.",
        "params": {
          "tokenId": "uint256 ID of the token to query the approval of"
        },
        "return": "address currently approved for the given token ID"
      },
      "isApprovedForAll(address,address)": {
        "details": "Tells whether an operator is approved by a given owner.",
        "params": {
          "operator": "operator address which you want to query the approval of",
          "owner": "owner address which you want to query the approval of"
        },
        "return": "bool whether the given operator is approved by the given owner"
      },
      "name()": {
        "details": "Gets the token name.",
        "return": "string representing the token name"
      },
      "ownerOf(uint256)": {
        "details": "Gets the owner of the specified token ID.",
        "params": {
          "tokenId": "uint256 ID of the token to query the owner of"
        },
        "return": "address currently marked as the owner of the given token ID"
      },
      "safeTransferFrom(address,address,uint256)": {
        "details": "Safely transfers the ownership of a given token ID to another address If the target address is a contract, it must implement `onKIP17Received`, which is called upon a safe transfer, and return the magic value `bytes4(keccak256(\"onKIP17Received(address,address,uint256,bytes)\"))`; otherwise, the transfer is reverted. Requires the msg.sender to be the owner, approved, or operator",
        "params": {
          "from": "current owner of the token",
          "to": "address to receive the ownership of the given token ID",
          "tokenId": "uint256 ID of the token to be transferred"
        }
      },
      "safeTransferFrom(address,address,uint256,bytes)": {
        "details": "Safely transfers the ownership of a given token ID to another address If the target address is a contract, it must implement `onKIP17Received`, which is called upon a safe transfer, and return the magic value `bytes4(keccak256(\"onKIP17Received(address,address,uint256,bytes)\"))`; otherwise, the transfer is reverted. Requires the msg.sender to be the owner, approved, or operator",
        "params": {
          "_data": "bytes data to send along with a safe transfer check",
          "from": "current owner of the token",
          "to": "address to receive the ownership of the given token ID",
          "tokenId": "uint256 ID of the token to be transferred"
        }
      },
      "setApprovalForAll(address,bool)": {
        "details": "Sets or unsets the approval of a given operator An operator is allowed to transfer all tokens of the sender on their behalf.",
        "params": {
          "approved": "representing the status of the approval to be set",
          "to": "operator address to set the approval"
        }
      },
      "supportsInterface(bytes4)": {
        "details": "See `IKIP13.supportsInterface`.     * Time complexity O(1), guaranteed to always use less than 30 000 gas."
      },
      "symbol()": {
        "details": "Gets the token symbol.",
        "return": "string representing the token symbol"
      },
      "tokenByIndex(uint256)": {
        "details": "Gets the token ID at a given index of all the tokens in this contract Reverts if the index is greater or equal to the total number of tokens.",
        "params": {
          "index": "uint256 representing the index to be accessed of the tokens list"
        },
        "return": "uint256 token ID at the given index of the tokens list"
      },
      "tokenOfOwnerByIndex(address,uint256)": {
        "details": "Gets the token ID at a given index of the tokens list of the requested owner.",
        "params": {
          "index": "uint256 representing the index to be accessed of the requested tokens list",
          "owner": "address owning the tokens list to be accessed"
        },
        "return": "uint256 token ID at the given index of the tokens list owned by the requested address"
      },
      "tokenURI(uint256)": {
        "details": "Returns an URI for a given token ID. Throws if the token ID does not exist. May return an empty string.",
        "params": {
          "tokenId": "uint256 ID of the token to query"
        }
      },
      "totalSupply()": {
        "details": "Gets the total amount of tokens stored by the contract.",
        "return": "uint256 representing the total amount of tokens"
      },
      "transferFrom(address,address,uint256)": {
        "details": "Transfers the ownership of a given token ID to another address. Usage of this method is discouraged, use `safeTransferFrom` whenever possible. Requires the msg.sender to be the owner, approved, or operator.",
        "params": {
          "from": "current owner of the token",
          "to": "address to receive the ownership of the given token ID",
          "tokenId": "uint256 ID of the token to be transferred"
        }
      }
    }
  },
  "userdoc": {
    "methods": {}
  }
}