{
  "contractName": "NFT",
  "abi": [
    {
      "constant": true,
      "inputs": [
        {
          "name": "interfaceId",
          "type": "bytes4"
        }
      ],
      "name": "supportsInterface",
      "outputs": [
        {
          "name": "",
          "type": "bool"
        }
      ],
      "payable": false,
      "stateMutability": "view",
      "type": "function"
    },
    {
      "constant": true,
      "inputs": [],
      "name": "name",
      "outputs": [
        {
          "name": "",
          "type": "string"
        }
      ],
      "payable": false,
      "stateMutability": "view",
      "type": "function"
    },
    {
      "constant": true,
      "inputs": [
        {
          "name": "tokenId",
          "type": "uint256"
        }
      ],
      "name": "getApproved",
      "outputs": [
        {
          "name": "",
          "type": "address"
        }
      ],
      "payable": false,
      "stateMutability": "view",
      "type": "function"
    },
    {
      "constant": false,
      "inputs": [
        {
          "name": "to",
          "type": "address"
        },
        {
          "name": "tokenId",
          "type": "uint256"
        }
      ],
      "name": "approve",
      "outputs": [],
      "payable": false,
      "stateMutability": "nonpayable",
      "type": "function"
    },
    {
      "constant": true,
      "inputs": [],
      "name": "totalSupply",
      "outputs": [
        {
          "name": "",
          "type": "uint256"
        }
      ],
      "payable": false,
      "stateMutability": "view",
      "type": "function"
    },
    {
      "constant": true,
      "inputs": [
        {
          "name": "",
          "type": "uint256"
        }
      ],
      "name": "tokenToFixDurability",
      "outputs": [
        {
          "name": "",
          "type": "uint256"
        }
      ],
      "payable": false,
      "stateMutability": "view",
      "type": "function"
    },
    {
      "constant": false,
      "inputs": [
        {
          "name": "from",
          "type": "address"
        },
        {
          "name": "to",
          "type": "address"
        },
        {
          "name": "tokenId",
          "type": "uint256"
        }
      ],
      "name": "transferFrom",
      "outputs": [],
      "payable": false,
      "stateMutability": "nonpayable",
      "type": "function"
    },
    {
      "constant": true,
      "inputs": [
        {
          "name": "owner",
          "type": "address"
        },
        {
          "name": "index",
          "type": "uint256"
        }
      ],
      "name": "tokenOfOwnerByIndex",
      "outputs": [
        {
          "name": "",
          "type": "uint256"
        }
      ],
      "payable": false,
      "stateMutability": "view",
      "type": "function"
    },
    {
      "constant": false,
      "inputs": [
        {
          "name": "from",
          "type": "address"
        },
        {
          "name": "to",
          "type": "address"
        },
        {
          "name": "tokenId",
          "type": "uint256"
        }
      ],
      "name": "safeTransferFrom",
      "outputs": [],
      "payable": false,
      "stateMutability": "nonpayable",
      "type": "function"
    },
    {
      "constant": true,
      "inputs": [
        {
          "name": "index",
          "type": "uint256"
        }
      ],
      "name": "tokenByIndex",
      "outputs": [
        {
          "name": "",
          "type": "uint256"
        }
      ],
      "payable": false,
      "stateMutability": "view",
      "type": "function"
    },
    {
      "constant": true,
      "inputs": [
        {
          "name": "",
          "type": "uint256"
        }
      ],
      "name": "weapons",
      "outputs": [
        {
          "name": "weaponType",
          "type": "uint256"
        },
        {
          "name": "weaponLevel",
          "type": "uint256"
        },
        {
          "name": "durability",
          "type": "uint256"
        },
        {
          "name": "enchant",
          "type": "uint256"
        }
      ],
      "payable": false,
      "stateMutability": "view",
      "type": "function"
    },
    {
      "constant": true,
      "inputs": [
        {
          "name": "",
          "type": "uint256"
        }
      ],
      "name": "tokenToCompound",
      "outputs": [
        {
          "name": "",
          "type": "uint256"
        }
      ],
      "payable": false,
      "stateMutability": "view",
      "type": "function"
    },
    {
      "constant": true,
      "inputs": [
        {
          "name": "tokenId",
          "type": "uint256"
        }
      ],
      "name": "ownerOf",
      "outputs": [
        {
          "name": "",
          "type": "address"
        }
      ],
      "payable": false,
      "stateMutability": "view",
      "type": "function"
    },
    {
      "constant": true,
      "inputs": [
        {
          "name": "owner",
          "type": "address"
        }
      ],
      "name": "balanceOf",
      "outputs": [
        {
          "name": "",
          "type": "uint256"
        }
      ],
      "payable": false,
      "stateMutability": "view",
      "type": "function"
    },
    {
      "constant": true,
      "inputs": [],
      "name": "symbol",
      "outputs": [
        {
          "name": "",
          "type": "string"
        }
      ],
      "payable": false,
      "stateMutability": "view",
      "type": "function"
    },
    {
      "constant": false,
      "inputs": [
        {
          "name": "to",
          "type": "address"
        },
        {
          "name": "approved",
          "type": "bool"
        }
      ],
      "name": "setApprovalForAll",
      "outputs": [],
      "payable": false,
      "stateMutability": "nonpayable",
      "type": "function"
    },
    {
      "constant": true,
      "inputs": [
        {
          "name": "",
          "type": "uint256"
        },
        {
          "name": "",
          "type": "uint256"
        }
      ],
      "name": "compoundResult",
      "outputs": [
        {
          "name": "",
          "type": "bool"
        }
      ],
      "payable": false,
      "stateMutability": "view",
      "type": "function"
    },
    {
      "constant": true,
      "inputs": [
        {
          "name": "",
          "type": "uint256"
        }
      ],
      "name": "tokenToFixEnchant",
      "outputs": [
        {
          "name": "",
          "type": "uint256"
        }
      ],
      "payable": false,
      "stateMutability": "view",
      "type": "function"
    },
    {
      "constant": false,
      "inputs": [
        {
          "name": "from",
          "type": "address"
        },
        {
          "name": "to",
          "type": "address"
        },
        {
          "name": "tokenId",
          "type": "uint256"
        },
        {
          "name": "_data",
          "type": "bytes"
        }
      ],
      "name": "safeTransferFrom",
      "outputs": [],
      "payable": false,
      "stateMutability": "nonpayable",
      "type": "function"
    },
    {
      "constant": true,
      "inputs": [
        {
          "name": "tokenId",
          "type": "uint256"
        }
      ],
      "name": "tokenURI",
      "outputs": [
        {
          "name": "",
          "type": "string"
        }
      ],
      "payable": false,
      "stateMutability": "view",
      "type": "function"
    },
    {
      "constant": true,
      "inputs": [
        {
          "name": "",
          "type": "uint256"
        }
      ],
      "name": "percentage",
      "outputs": [
        {
          "name": "",
          "type": "uint256"
        }
      ],
      "payable": false,
      "stateMutability": "view",
      "type": "function"
    },
    {
      "constant": true,
      "inputs": [
        {
          "name": "owner",
          "type": "address"
        },
        {
          "name": "operator",
          "type": "address"
        }
      ],
      "name": "isApprovedForAll",
      "outputs": [
        {
          "name": "",
          "type": "bool"
        }
      ],
      "payable": false,
      "stateMutability": "view",
      "type": "function"
    },
    {
      "inputs": [
        {
          "name": "_token",
          "type": "address"
        }
      ],
      "payable": false,
      "stateMutability": "nonpayable",
      "type": "constructor"
    },
    {
      "anonymous": false,
      "inputs": [
        {
          "indexed": false,
          "name": "weaponId",
          "type": "uint256"
        },
        {
          "indexed": false,
          "name": "weaponType",
          "type": "uint256"
        },
        {
          "indexed": false,
          "name": "weaponLevel",
          "type": "uint256"
        }
      ],
      "name": "NewWeapon",
      "type": "event"
    },
    {
      "anonymous": false,
      "inputs": [
        {
          "indexed": true,
          "name": "from",
          "type": "address"
        },
        {
          "indexed": true,
          "name": "to",
          "type": "address"
        },
        {
          "indexed": true,
          "name": "tokenId",
          "type": "uint256"
        }
      ],
      "name": "Transfer",
      "type": "event"
    },
    {
      "anonymous": false,
      "inputs": [
        {
          "indexed": true,
          "name": "owner",
          "type": "address"
        },
        {
          "indexed": true,
          "name": "approved",
          "type": "address"
        },
        {
          "indexed": true,
          "name": "tokenId",
          "type": "uint256"
        }
      ],
      "name": "Approval",
      "type": "event"
    },
    {
      "anonymous": false,
      "inputs": [
        {
          "indexed": true,
          "name": "owner",
          "type": "address"
        },
        {
          "indexed": true,
          "name": "operator",
          "type": "address"
        },
        {
          "indexed": false,
          "name": "approved",
          "type": "bool"
        }
      ],
      "name": "ApprovalForAll",
      "type": "event"
    },
    {
      "constant": false,
      "inputs": [
        {
          "name": "recipient",
          "type": "address"
        },
        {
          "name": "_weaponLevel",
          "type": "uint256"
        }
      ],
      "name": "mint",
      "outputs": [
        {
          "name": "",
          "type": "uint256"
        }
      ],
      "payable": false,
      "stateMutability": "nonpayable",
      "type": "function"
    },
    {
      "constant": false,
      "inputs": [
        {
          "name": "_weaponLevel",
          "type": "uint256"
        }
      ],
      "name": "createRandomWeapon",
      "outputs": [],
      "payable": false,
      "stateMutability": "nonpayable",
      "type": "function"
    },
    {
      "constant": true,
      "inputs": [],
      "name": "createRandomNum",
      "outputs": [
        {
          "name": "",
          "type": "uint256"
        }
      ],
      "payable": false,
      "stateMutability": "view",
      "type": "function"
    },
    {
      "constant": false,
      "inputs": [
        {
          "name": "_weapon1Id",
          "type": "uint256"
        },
        {
          "name": "_weapon2Id",
          "type": "uint256"
        }
      ],
      "name": "compoundWeapon",
      "outputs": [],
      "payable": false,
      "stateMutability": "nonpayable",
      "type": "function"
    },
    {
      "constant": true,
      "inputs": [
        {
          "name": "_weapon1Id",
          "type": "uint256"
        },
        {
          "name": "_weapon2Id",
          "type": "uint256"
        }
      ],
      "name": "getCompoundResult",
      "outputs": [
        {
          "name": "",
          "type": "bool"
        }
      ],
      "payable": false,
      "stateMutability": "view",
      "type": "function"
    },
    {
      "constant": true,
      "inputs": [
        {
          "name": "_weaponId",
          "type": "uint256"
        }
      ],
      "name": "getWeaponLevel",
      "outputs": [
        {
          "name": "",
          "type": "uint256"
        }
      ],
      "payable": false,
      "stateMutability": "view",
      "type": "function"
    },
    {
      "constant": false,
      "inputs": [
        {
          "name": "_weaponId",
          "type": "uint256"
        }
      ],
      "name": "stakingWeapon",
      "outputs": [],
      "payable": false,
      "stateMutability": "nonpayable",
      "type": "function"
    }
  ],
  "bytecode": "0x60806040526010600d55600d54600a0a600e553480156200001f57600080fd5b50604051602080620039c9833981018060405260208110156200004157600080fd5b81019080805190602001909291905050506040518060400160405280600a81526020017f444e442d574541504f4e000000000000000000000000000000000000000000008152506040518060400160405280600681526020017f574541504f4e00000000000000000000000000000000000000000000000000008152508181620000d86301ffc9a760e01b6200033060201b60201c565b620000f06380ac58cd60e01b6200033060201b60201c565b6200010863780e9d6360e01b6200033060201b60201c565b81600990805190602001906200012092919062000439565b5080600a90805190602001906200013992919062000439565b5062000152635b5e139f60e01b6200033060201b60201c565b505050506063600f6000600981106200016757fe5b0181905550604f600f6001600981106200017d57fe5b01819055506045600f6002600981106200019357fe5b01819055506031600f600360098110620001a957fe5b01819055506027600f600460098110620001bf57fe5b0181905550601d600f600560098110620001d557fe5b01819055506013600f600660098110620001eb57fe5b01819055506009600f6007600981106200020157fe5b01819055506004600f6008600981106200021757fe5b0181905550603260186000600981106200022d57fe5b0181905550606460186001600981106200024357fe5b018190555060c860186002600981106200025957fe5b018190555061012c60186003600981106200027057fe5b01819055506101f460186004600981106200028757fe5b01819055506102bc60186005600981106200029e57fe5b01819055506103e86018600660098110620002b557fe5b0181905550610bb86018600760098110620002cc57fe5b01819055506113886018600860098110620002e357fe5b018190555080603360006101000a81548173ffffffffffffffffffffffffffffffffffffffff021916908373ffffffffffffffffffffffffffffffffffffffff16021790555050620004e8565b63ffffffff60e01b817bffffffffffffffffffffffffffffffffffffffffffffffffffffffff19161415620003cd576040517f08c379a000000000000000000000000000000000000000000000000000000000815260040180806020018281038252601b8152602001807f4b495031333a20696e76616c696420696e74657266616365206964000000000081525060200191505060405180910390fd5b6001600080837bffffffffffffffffffffffffffffffffffffffffffffffffffffffff19167bffffffffffffffffffffffffffffffffffffffffffffffffffffffff1916815260200190815260200160002060006101000a81548160ff02191690831515021790555050565b828054600181600116156101000203166002900490600052602060002090601f016020900481019282601f106200047c57805160ff1916838001178555620004ad565b82800160010185558215620004ad579182015b82811115620004ac5782518255916020019190600101906200048f565b5b509050620004bc9190620004c0565b5090565b620004e591905b80821115620004e1576000816000905550600101620004c7565b5090565b90565b6134d180620004f86000396000f3fe608060405234801561001057600080fd5b50600436106101cf5760003560e01c80635ae25c2c11610104578063a7ffa568116100a2578063c87b56dd11610071578063c87b56dd14610a77578063d840e2b614610b1e578063e27fd8ec14610b6e578063e985e9c514610bb0576101cf565b8063a7ffa568146108c2578063a862261814610912578063b88d4fde14610954578063bcde049214610a59576101cf565b806365cf0b83116100de57806365cf0b831461076957806370a082311461079757806395d89b41146107ef578063a22cb46514610872576101cf565b80635ae25c2c1461068b578063614a078e146106cd5780636352211e146106fb576101cf565b806323b872dd1161017157806340d7f82c1161014b57806340d7f82c1461054c57806342842e0e146105845780634f6ccce7146105f2578063555e73c814610634576101cf565b806323b872dd1461041a5780632f745c591461048857806340c10f19146104ea576101cf565b8063095ea7b3116101ad578063095ea7b31461032a578063107121301461037857806318160ddd146103ba5780631d67a5f6146103d8576101cf565b806301ffc9a7146101d457806306fdde0314610239578063081812fc146102bc575b600080fd5b61021f600480360360208110156101ea57600080fd5b8101908080357bffffffffffffffffffffffffffffffffffffffffffffffffffffffff19169060200190929190505050610c2c565b604051808215151515815260200191505060405180910390f35b610241610c93565b6040518080602001828103825283818151815260200191508051906020019080838360005b83811015610281578082015181840152602081019050610266565b50505050905090810190601f1680156102ae5780820380516001836020036101000a031916815260200191505b509250505060405180910390f35b6102e8600480360360208110156102d257600080fd5b8101908080359060200190929190505050610d35565b604051808273ffffffffffffffffffffffffffffffffffffffff1673ffffffffffffffffffffffffffffffffffffffff16815260200191505060405180910390f35b6103766004803603604081101561034057600080fd5b81019080803573ffffffffffffffffffffffffffffffffffffffff16906020019092919080359060200190929190505050610dd0565b005b6103a46004803603602081101561038e57600080fd5b8101908080359060200190929190505050610fc6565b6040518082815260200191505060405180910390f35b6103c2610ff1565b6040518082815260200191505060405180910390f35b610404600480360360208110156103ee57600080fd5b8101908080359060200190929190505050610ffe565b6040518082815260200191505060405180910390f35b6104866004803603606081101561043057600080fd5b81019080803573ffffffffffffffffffffffffffffffffffffffff169060200190929190803573ffffffffffffffffffffffffffffffffffffffff16906020019092919080359060200190929190505050611016565b005b6104d46004803603604081101561049e57600080fd5b81019080803573ffffffffffffffffffffffffffffffffffffffff16906020019092919080359060200190929190505050611085565b6040518082815260200191505060405180910390f35b6105366004803603604081101561050057600080fd5b81019080803573ffffffffffffffffffffffffffffffffffffffff16906020019092919080359060200190929190505050611144565b6040518082815260200191505060405180910390f35b6105826004803603604081101561056257600080fd5b81019080803590602001909291908035906020019092919050505061117b565b005b6105f06004803603606081101561059a57600080fd5b81019080803573ffffffffffffffffffffffffffffffffffffffff169060200190929190803573ffffffffffffffffffffffffffffffffffffffff169060200190929190803590602001909291905050506116cb565b005b61061e6004803603602081101561060857600080fd5b81019080803590602001909291905050506116eb565b6040518082815260200191505060405180910390f35b6106606004803603602081101561064a57600080fd5b810190808035906020019092919050505061176b565b6040518085815260200184815260200183815260200182815260200194505050505060405180910390f35b6106b7600480360360208110156106a157600080fd5b81019080803590602001909291905050506117a8565b6040518082815260200191505060405180910390f35b6106f9600480360360208110156106e357600080fd5b81019080803590602001909291905050506117c0565b005b6107276004803603602081101561071157600080fd5b81019080803590602001909291905050506118a8565b604051808273ffffffffffffffffffffffffffffffffffffffff1673ffffffffffffffffffffffffffffffffffffffff16815260200191505060405180910390f35b6107956004803603602081101561077f57600080fd5b8101908080359060200190929190505050611970565b005b6107d9600480360360208110156107ad57600080fd5b81019080803573ffffffffffffffffffffffffffffffffffffffff169060200190929190505050611a66565b6040518082815260200191505060405180910390f35b6107f7611b3b565b6040518080602001828103825283818151815260200191508051906020019080838360005b8381101561083757808201518184015260208101905061081c565b50505050905090810190601f1680156108645780820380516001836020036101000a031916815260200191505b509250505060405180910390f35b6108c06004803603604081101561088857600080fd5b81019080803573ffffffffffffffffffffffffffffffffffffffff169060200190929190803515159060200190929190505050611bdd565b005b6108f8600480360360408110156108d857600080fd5b810190808035906020019092919080359060200190929190505050611d80565b604051808215151515815260200191505060405180910390f35b61093e6004803603602081101561092857600080fd5b8101908080359060200190929190505050611daf565b6040518082815260200191505060405180910390f35b610a576004803603608081101561096a57600080fd5b81019080803573ffffffffffffffffffffffffffffffffffffffff169060200190929190803573ffffffffffffffffffffffffffffffffffffffff16906020019092919080359060200190929190803590602001906401000000008111156109d157600080fd5b8201836020820111156109e357600080fd5b80359060200191846001830284011164010000000083111715610a0557600080fd5b91908080601f016020809104026020016040519081016040528093929190818152602001838380828437600081840152601f19601f820116905080830192505050505050509192919290505050611dc7565b005b610a61611e39565b6040518082815260200191505060405180910390f35b610aa360048036036020811015610a8d57600080fd5b8101908080359060200190929190505050611e7f565b6040518080602001828103825283818151815260200191508051906020019080838360005b83811015610ae3578082015181840152602081019050610ac8565b50505050905090810190601f168015610b105780820380516001836020036101000a031916815260200191505b509250505060405180910390f35b610b5460048036036040811015610b3457600080fd5b810190808035906020019092919080359060200190929190505050611f92565b604051808215151515815260200191505060405180910390f35b610b9a60048036036020811015610b8457600080fd5b8101908080359060200190929190505050611fce565b6040518082815260200191505060405180910390f35b610c1260048036036040811015610bc657600080fd5b81019080803573ffffffffffffffffffffffffffffffffffffffff169060200190929190803573ffffffffffffffffffffffffffffffffffffffff169060200190929190505050611fe6565b604051808215151515815260200191505060405180910390f35b6000806000837bffffffffffffffffffffffffffffffffffffffffffffffffffffffff19167bffffffffffffffffffffffffffffffffffffffffffffffffffffffff1916815260200190815260200160002060009054906101000a900460ff169050919050565b606060098054600181600116156101000203166002900480601f016020809104026020016040519081016040528092919081815260200182805460018160011615610100020316600290048015610d2b5780601f10610d0057610100808354040283529160200191610d2b565b820191906000526020600020905b815481529060010190602001808311610d0e57829003601f168201915b5050505050905090565b6000610d408261207a565b610d95576040517f08c379a000000000000000000000000000000000000000000000000000000000815260040180806020018281038252602b815260200180613419602b913960400191505060405180910390fd5b6002600083815260200190815260200160002060009054906101000a900473ffffffffffffffffffffffffffffffffffffffff169050919050565b6000610ddb826118a8565b90508073ffffffffffffffffffffffffffffffffffffffff168373ffffffffffffffffffffffffffffffffffffffff161415610e7f576040517f08c379a00000000000000000000000000000000000000000000000000000000081526004018080602001828103825260208152602001807f4b495031373a20617070726f76616c20746f2063757272656e74206f776e657281525060200191505060405180910390fd5b8073ffffffffffffffffffffffffffffffffffffffff163373ffffffffffffffffffffffffffffffffffffffff161480610ebf5750610ebe8133611fe6565b5b610f14576040517f08c379a00000000000000000000000000000000000000000000000000000000081526004018080602001828103825260378152602001806134446037913960400191505060405180910390fd5b826002600084815260200190815260200160002060006101000a81548173ffffffffffffffffffffffffffffffffffffffff021916908373ffffffffffffffffffffffffffffffffffffffff160217905550818373ffffffffffffffffffffffffffffffffffffffff168273ffffffffffffffffffffffffffffffffffffffff167f8c5be1e5ebec7d5bd14f71427d1e84f3dd0314c0f7b2291e5b200ac8c7c3b92560405160405180910390a4505050565b600060346001830381548110610fd857fe5b9060005260206000209060040201600101549050919050565b6000600780549050905090565b6021816009811061100b57fe5b016000915090505481565b61102033826120ec565b611075576040517f08c379a000000000000000000000000000000000000000000000000000000000815260040180806020018281038252603081526020018061333d6030913960400191505060405180910390fd5b6110808383836121e0565b505050565b600061109083611a66565b82106110e7576040517f08c379a000000000000000000000000000000000000000000000000000000000815260040180806020018281038252602a8152602001806132ca602a913960400191505060405180910390fd5b600560008473ffffffffffffffffffffffffffffffffffffffff1673ffffffffffffffffffffffffffffffffffffffff168152602001908152602001600020828154811061113157fe5b9060005260206000200154905092915050565b6000611150600c612204565b600061115c600c61221a565b90506111688482612228565b611171836117c0565b8091505092915050565b611184826118a8565b73ffffffffffffffffffffffffffffffffffffffff163373ffffffffffffffffffffffffffffffffffffffff16146111bb57600080fd5b6111c4816118a8565b73ffffffffffffffffffffffffffffffffffffffff163373ffffffffffffffffffffffffffffffffffffffff16146111fb57600080fd5b80821415611254576040517f08c379a00000000000000000000000000000000000000000000000000000000081526004018080602001828103825260218152602001806132f46021913960400191505060405180910390fd5b60006034600184038154811061126657fe5b9060005260206000209060040201905060006034600184038154811061128857fe5b906000526020600020906004020190508060010154826001015414611315576040517f08c379a000000000000000000000000000000000000000000000000000000000815260040180806020018281038252601a8152602001807f436f6d706f756e642053616d6520776561706f6e206c6576656c00000000000081525060200191505060405180910390fd5b600082600301541415801561132f57506000816003015414155b6113a1576040517f08c379a000000000000000000000000000000000000000000000000000000000815260040180806020018281038252601d8152602001807f576561706f6e20636f6d706f756e64206e6565647320656e6368616e7400000081525060200191505060405180910390fd5b600060186001846001015403600981106113b757fe5b01549050603360009054906101000a900473ffffffffffffffffffffffffffffffffffffffff1673ffffffffffffffffffffffffffffffffffffffff166370a08231336040518263ffffffff1660e01b8152600401808273ffffffffffffffffffffffffffffffffffffffff1673ffffffffffffffffffffffffffffffffffffffff16815260200191505060206040518083038186803b15801561145a57600080fd5b505afa15801561146e573d6000803e3d6000fd5b505050506040513d602081101561148457600080fd5b81019080805190602001909291905050508111156114ed576040517f08c379a00000000000000000000000000000000000000000000000000000000081526004018080602001828103825260238152602001806132566023913960400191505060405180910390fd5b6000600f60018560010154036009811061150357fe5b015490506000600e546002611516612249565b8660000154886000015401018161152957fe5b048161153157fe5b0690506001856003015403856003018190555060018460030154038460030181905550603360009054906101000a900473ffffffffffffffffffffffffffffffffffffffff1673ffffffffffffffffffffffffffffffffffffffff16639dc29fac33856040518363ffffffff1660e01b8152600401808373ffffffffffffffffffffffffffffffffffffffff1673ffffffffffffffffffffffffffffffffffffffff16815260200182815260200192505050600060405180830381600087803b1580156115fd57600080fd5b505af1158015611611573d6000803e3d6000fd5b505050508161161e611e39565b1161167657611634816001876001015401612290565b600160356000898152602001908152602001600020600088815260200190815260200160002060006101000a81548160ff0219169083151502179055506116c2565b611684818660010154612290565b600060356000898152602001908152602001600020600088815260200190815260200160002060006101000a81548160ff0219169083151502179055505b50505050505050565b6116e683838360405180602001604052806000815250611dc7565b505050565b60006116f5610ff1565b821061174c576040517f08c379a000000000000000000000000000000000000000000000000000000000815260040180806020018281038252602b8152602001806133ee602b913960400191505060405180910390fd5b6007828154811061175957fe5b90600052602060002001549050919050565b6034818154811061177857fe5b90600052602060002090600402016000915090508060000154908060010154908060020154908060030154905084565b601881600981106117b557fe5b016000915090505481565b60006117ca612249565b9050606481816117d657fe5b06810390506000600160346040518060800160405280858152602001868152602001600381526020016003815250908060018154018082558091505090600182039060005260206000209060040201600090919290919091506000820151816000015560208201518160010155604082015181600201556060820151816003015550500390507f5bd4bf80a2d2a135c85b92a11d79ad20c06c33b2f780af640e38be2aae2275de81838560405180848152602001838152602001828152602001935050505060405180910390a1505050565b6000806001600084815260200190815260200160002060009054906101000a900473ffffffffffffffffffffffffffffffffffffffff169050600073ffffffffffffffffffffffffffffffffffffffff168173ffffffffffffffffffffffffffffffffffffffff161415611967576040517f08c379a00000000000000000000000000000000000000000000000000000000081526004018080602001828103825260288152602001806133156028913960400191505060405180910390fd5b80915050919050565b611979816118a8565b73ffffffffffffffffffffffffffffffffffffffff163373ffffffffffffffffffffffffffffffffffffffff1614611a19576040517f08c379a000000000000000000000000000000000000000000000000000000000815260040180806020018281038252601f8152602001807f596f75206861766520746f207374616b696e6720796f757220776561706f6e0081525060200191505060405180910390fd5b600160346001830381548110611a2b57fe5b9060005260206000209060040201600201540360346001830381548110611a4e57fe5b90600052602060002090600402016002018190555050565b60008073ffffffffffffffffffffffffffffffffffffffff168273ffffffffffffffffffffffffffffffffffffffff161415611aed576040517f08c379a000000000000000000000000000000000000000000000000000000000815260040180806020018281038252602981526020018061339d6029913960400191505060405180910390fd5b611b34600360008473ffffffffffffffffffffffffffffffffffffffff1673ffffffffffffffffffffffffffffffffffffffff16815260200190815260200160002061221a565b9050919050565b6060600a8054600181600116156101000203166002900480601f016020809104026020016040519081016040528092919081815260200182805460018160011615610100020316600290048015611bd35780601f10611ba857610100808354040283529160200191611bd3565b820191906000526020600020905b815481529060010190602001808311611bb657829003601f168201915b5050505050905090565b3373ffffffffffffffffffffffffffffffffffffffff168273ffffffffffffffffffffffffffffffffffffffff161415611c7f576040517f08c379a00000000000000000000000000000000000000000000000000000000081526004018080602001828103825260188152602001807f4b495031373a20617070726f766520746f2063616c6c6572000000000000000081525060200191505060405180910390fd5b80600460003373ffffffffffffffffffffffffffffffffffffffff1673ffffffffffffffffffffffffffffffffffffffff16815260200190815260200160002060008473ffffffffffffffffffffffffffffffffffffffff1673ffffffffffffffffffffffffffffffffffffffff16815260200190815260200160002060006101000a81548160ff0219169083151502179055508173ffffffffffffffffffffffffffffffffffffffff163373ffffffffffffffffffffffffffffffffffffffff167f17307eab39ab6107e8899845ad3d59bd9653f200f220920489ca2b5937696c3183604051808215151515815260200191505060405180910390a35050565b60356020528160005260406000206020528060005260406000206000915091509054906101000a900460ff1681565b602a8160098110611dbc57fe5b016000915090505481565b611dd2848484611016565b611dde84848484612380565b611e33576040517f08c379a000000000000000000000000000000000000000000000000000000000815260040180806020018281038252603081526020018061336d6030913960400191505060405180910390fd5b50505050565b600080429050600081604051602001808281526020019150506040516020818303038152906040528051906020012060001c905060648181611e7757fe5b069250505090565b6060611e8a8261207a565b611edf576040517f08c379a000000000000000000000000000000000000000000000000000000000815260040180806020018281038252602e815260200180613279602e913960400191505060405180910390fd5b600b60008381526020019081526020016000208054600181600116156101000203166002900480601f016020809104026020016040519081016040528092919081815260200182805460018160011615610100020316600290048015611f865780601f10611f5b57610100808354040283529160200191611f86565b820191906000526020600020905b815481529060010190602001808311611f6957829003601f168201915b50505050509050919050565b600060356000848152602001908152602001600020600083815260200190815260200160002060009054906101000a900460ff16905092915050565b600f8160098110611fdb57fe5b016000915090505481565b6000600460008473ffffffffffffffffffffffffffffffffffffffff1673ffffffffffffffffffffffffffffffffffffffff16815260200190815260200160002060008373ffffffffffffffffffffffffffffffffffffffff1673ffffffffffffffffffffffffffffffffffffffff16815260200190815260200160002060009054906101000a900460ff16905092915050565b6000806001600084815260200190815260200160002060009054906101000a900473ffffffffffffffffffffffffffffffffffffffff169050600073ffffffffffffffffffffffffffffffffffffffff168173ffffffffffffffffffffffffffffffffffffffff161415915050919050565b60006120f78261207a565b61214c576040517f08c379a000000000000000000000000000000000000000000000000000000000815260040180806020018281038252602b81526020018061347b602b913960400191505060405180910390fd5b6000612157836118a8565b90508073ffffffffffffffffffffffffffffffffffffffff168473ffffffffffffffffffffffffffffffffffffffff1614806121c657508373ffffffffffffffffffffffffffffffffffffffff166121ae84610d35565b73ffffffffffffffffffffffffffffffffffffffff16145b806121d757506121d68185611fe6565b5b91505092915050565b6121eb8383836128e2565b6121f58382612b3d565b6121ff8282612cdb565b505050565b6001816000016000828254019250508190555050565b600081600001549050919050565b6122328282612da2565b61223c8282612cdb565b61224581612fba565b5050565b600080429050600081604051602001808281526020019150506040516020818303038152906040528051906020012060001c9050600e54818161228857fe5b069250505090565b61229a600c612204565b6000600160346040518060800160405280868152602001858152602001600381526020016003815250908060018154018082558091505090600182039060005260206000209060040201600090919290919091506000820151816000015560208201518160010155604082015181600201556060820151816003015550500390506000612327600c61221a565b90506123333382612228565b7f5bd4bf80a2d2a135c85b92a11d79ad20c06c33b2f780af640e38be2aae2275de82858560405180848152602001838152602001828152602001935050505060405180910390a150505050565b60008060606123a48673ffffffffffffffffffffffffffffffffffffffff16613006565b6123b3576001925050506128da565b8573ffffffffffffffffffffffffffffffffffffffff1663150b7a0260e01b33898888604051602401808573ffffffffffffffffffffffffffffffffffffffff1673ffffffffffffffffffffffffffffffffffffffff1681526020018473ffffffffffffffffffffffffffffffffffffffff1673ffffffffffffffffffffffffffffffffffffffff16815260200183815260200180602001828103825283818151815260200191508051906020019080838360005b83811015612483578082015181840152602081019050612468565b50505050905090810190601f1680156124b05780820380516001836020036101000a031916815260200191505b5095505050505050604051602081830303815290604052907bffffffffffffffffffffffffffffffffffffffffffffffffffffffff19166020820180517bffffffffffffffffffffffffffffffffffffffffffffffffffffffff83818316178352505050506040518082805190602001908083835b602083106125485780518252602082019150602081019050602083039250612525565b6001836020036101000a0380198251168184511680821785525050505050509050019150506000604051808303816000865af19150503d80600081146125aa576040519150601f19603f3d011682016040523d82523d6000602084013e6125af565b606091505b5080925081935050506000815114158015612633575063150b7a0260e01b7bffffffffffffffffffffffffffffffffffffffffffffffffffffffff191681806020019051602081101561260157600080fd5b81019080805190602001909291905050507bffffffffffffffffffffffffffffffffffffffffffffffffffffffff1916145b15612643576001925050506128da565b8573ffffffffffffffffffffffffffffffffffffffff16636745782b60e01b33898888604051602401808573ffffffffffffffffffffffffffffffffffffffff1673ffffffffffffffffffffffffffffffffffffffff1681526020018473ffffffffffffffffffffffffffffffffffffffff1673ffffffffffffffffffffffffffffffffffffffff16815260200183815260200180602001828103825283818151815260200191508051906020019080838360005b838110156127135780820151818401526020810190506126f8565b50505050905090810190601f1680156127405780820380516001836020036101000a031916815260200191505b5095505050505050604051602081830303815290604052907bffffffffffffffffffffffffffffffffffffffffffffffffffffffff19166020820180517bffffffffffffffffffffffffffffffffffffffffffffffffffffffff83818316178352505050506040518082805190602001908083835b602083106127d857805182526020820191506020810190506020830392506127b5565b6001836020036101000a0380198251168184511680821785525050505050509050019150506000604051808303816000865af19150503d806000811461283a576040519150601f19603f3d011682016040523d82523d6000602084013e61283f565b606091505b50809250819350505060008151141580156128c35750636745782b60e01b7bffffffffffffffffffffffffffffffffffffffffffffffffffffffff191681806020019051602081101561289157600080fd5b81019080805190602001909291905050507bffffffffffffffffffffffffffffffffffffffffffffffffffffffff1916145b156128d3576001925050506128da565b6000925050505b949350505050565b8273ffffffffffffffffffffffffffffffffffffffff16612902826118a8565b73ffffffffffffffffffffffffffffffffffffffff161461296e576040517f08c379a00000000000000000000000000000000000000000000000000000000081526004018080602001828103825260288152602001806133c66028913960400191505060405180910390fd5b600073ffffffffffffffffffffffffffffffffffffffff168273ffffffffffffffffffffffffffffffffffffffff1614156129f4576040517f08c379a00000000000000000000000000000000000000000000000000000000081526004018080602001828103825260238152602001806132a76023913960400191505060405180910390fd5b6129fd81613019565b612a44600360008573ffffffffffffffffffffffffffffffffffffffff1673ffffffffffffffffffffffffffffffffffffffff1681526020019081526020016000206130d7565b612a8b600360008473ffffffffffffffffffffffffffffffffffffffff1673ffffffffffffffffffffffffffffffffffffffff168152602001908152602001600020612204565b816001600083815260200190815260200160002060006101000a81548173ffffffffffffffffffffffffffffffffffffffff021916908373ffffffffffffffffffffffffffffffffffffffff160217905550808273ffffffffffffffffffffffffffffffffffffffff168473ffffffffffffffffffffffffffffffffffffffff167fddf252ad1be2c89b69c2b068fc378daa952ba7f163c4a11628f55a4df523b3ef60405160405180910390a4505050565b6000612b956001600560008673ffffffffffffffffffffffffffffffffffffffff1673ffffffffffffffffffffffffffffffffffffffff168152602001908152602001600020805490506130fa90919063ffffffff16565b9050600060066000848152602001908152602001600020549050818114612c82576000600560008673ffffffffffffffffffffffffffffffffffffffff1673ffffffffffffffffffffffffffffffffffffffff1681526020019081526020016000208381548110612c0257fe5b9060005260206000200154905080600560008773ffffffffffffffffffffffffffffffffffffffff1673ffffffffffffffffffffffffffffffffffffffff1681526020019081526020016000208381548110612c5a57fe5b9060005260206000200181905550816006600083815260200190815260200160002081905550505b600560008573ffffffffffffffffffffffffffffffffffffffff1673ffffffffffffffffffffffffffffffffffffffff168152602001908152602001600020805480919060019003612cd49190613204565b5050505050565b600560008373ffffffffffffffffffffffffffffffffffffffff1673ffffffffffffffffffffffffffffffffffffffff168152602001908152602001600020805490506006600083815260200190815260200160002081905550600560008373ffffffffffffffffffffffffffffffffffffffff1673ffffffffffffffffffffffffffffffffffffffff1681526020019081526020016000208190806001815401808255809150509060018203906000526020600020016000909192909190915055505050565b600073ffffffffffffffffffffffffffffffffffffffff168273ffffffffffffffffffffffffffffffffffffffff161415612e45576040517f08c379a000000000000000000000000000000000000000000000000000000000815260040180806020018281038252601f8152602001807f4b495031373a206d696e7420746f20746865207a65726f20616464726573730081525060200191505060405180910390fd5b612e4e8161207a565b15612ec1576040517f08c379a000000000000000000000000000000000000000000000000000000000815260040180806020018281038252601b8152602001807f4b495031373a20746f6b656e20616c7265616479206d696e746564000000000081525060200191505060405180910390fd5b816001600083815260200190815260200160002060006101000a81548173ffffffffffffffffffffffffffffffffffffffff021916908373ffffffffffffffffffffffffffffffffffffffff160217905550612f5a600360008473ffffffffffffffffffffffffffffffffffffffff1673ffffffffffffffffffffffffffffffffffffffff168152602001908152602001600020612204565b808273ffffffffffffffffffffffffffffffffffffffff16600073ffffffffffffffffffffffffffffffffffffffff167fddf252ad1be2c89b69c2b068fc378daa952ba7f163c4a11628f55a4df523b3ef60405160405180910390a45050565b6007805490506008600083815260200190815260200160002081905550600781908060018154018082558091505090600182039060005260206000200160009091929091909150555050565b600080823b905060008111915050919050565b600073ffffffffffffffffffffffffffffffffffffffff166002600083815260200190815260200160002060009054906101000a900473ffffffffffffffffffffffffffffffffffffffff1673ffffffffffffffffffffffffffffffffffffffff16146130d45760006002600083815260200190815260200160002060006101000a81548173ffffffffffffffffffffffffffffffffffffffff021916908373ffffffffffffffffffffffffffffffffffffffff1602179055505b50565b6130ef600182600001546130fa90919063ffffffff16565b816000018190555050565b600061313c83836040518060400160405280601e81526020017f536166654d6174683a207375627472616374696f6e206f766572666c6f770000815250613144565b905092915050565b60008383111582906131f1576040517f08c379a00000000000000000000000000000000000000000000000000000000081526004018080602001828103825283818151815260200191508051906020019080838360005b838110156131b657808201518184015260208101905061319b565b50505050905090810190601f1680156131e35780820380516001836020036101000a031916815260200191505b509250505060405180910390fd5b5060008385039050809150509392505050565b81548183558181111561322b5781836000526020600020918201910161322a9190613230565b5b505050565b61325291905b8082111561324e576000816000905550600101613236565b5090565b9056fe596f75206d75737420686176652055525520746f6b656e20746f20636f6d706f756e644b495031374d657461646174613a2055524920717565727920666f72206e6f6e6578697374656e7420746f6b656e4b495031373a207472616e7366657220746f20746865207a65726f20616464726573734b49503137456e756d657261626c653a206f776e657220696e646578206f7574206f6620626f756e647343616e206e6f7420636f6d706f756e6420776974682053616d6520776561706f6e4b495031373a206f776e657220717565727920666f72206e6f6e6578697374656e7420746f6b656e4b495031373a207472616e736665722063616c6c6572206973206e6f74206f776e6572206e6f7220617070726f7665644b495031373a207472616e7366657220746f206e6f6e204b49503137526563656976657220696d706c656d656e7465724b495031373a2062616c616e636520717565727920666f7220746865207a65726f20616464726573734b495031373a207472616e73666572206f6620746f6b656e2074686174206973206e6f74206f776e4b49503137456e756d657261626c653a20676c6f62616c20696e646578206f7574206f6620626f756e64734b495031373a20617070726f76656420717565727920666f72206e6f6e6578697374656e7420746f6b656e4b495031373a20617070726f76652063616c6c6572206973206e6f74206f776e6572206e6f7220617070726f76656420666f7220616c6c4b495031373a206f70657261746f7220717565727920666f72206e6f6e6578697374656e7420746f6b656ea165627a7a7230582022487efba02b0a6f964473d02374f3953ead82251b350151e87b238610a5d5420029",
  "source": "// SPDX-License-Identifier: MIT\npragma solidity >=0.4.22 <0.9.0;\n\nimport \"@klaytn/contracts/token/KIP17/KIP17Full.sol\";\nimport \"@klaytn/contracts/drafts/Counters.sol\";\nimport \"./Token.sol\";\n\ncontract NFT is KIP17Full{\n  using Counters for Counters.Counter;\n  Counters.Counter private _Ids;\n\n    uint256 weaponDigits = 16;\n    uint256 weaponModulus = 10 ** weaponDigits;\n    \n    uint256 [9] public percentage; //  \n    uint256 [9] public tokenToCompound; //   \n    uint256 [9] public tokenToFixDurability; //    \n    uint256 [9] public tokenToFixEnchant; //     \n\n    Token token;\n\n    struct Weapon {\n        uint256 weaponType; // dna \n        uint256 weaponLevel; // \n        uint256 durability; //  - staking\n        uint256 enchant; //  - compound\n    }\n\n    Weapon[] public weapons;\n\n    mapping(uint256 => mapping(uint256 => bool)) public compoundResult;\n\n    event NewWeapon(uint256 weaponId, uint256 weaponType, uint256 weaponLevel);\n\n\n    constructor(address _token) public KIP17Full(\"DND-WEAPON\", \"WEAPON\"){\n        percentage[0] = 99;\n        percentage[1] = 79;\n        percentage[2] = 69;\n        percentage[3] = 49;\n        percentage[4] = 39;\n        percentage[5] = 29;\n        percentage[6] = 19;\n        percentage[7] = 9;\n        percentage[8] = 4;\n\n        tokenToCompound[0] = 50;\n        tokenToCompound[1] = 100;\n        tokenToCompound[2] = 200;\n        tokenToCompound[3] = 300;\n        tokenToCompound[4] = 500;\n        tokenToCompound[5] = 700;\n        tokenToCompound[6] = 1000;\n        tokenToCompound[7] = 3000;\n        tokenToCompound[8] = 5000;\n\n        // ,       \n        // tokenToFixDurability[0~8] = ??;\n        // tokenToFixEnchant[0~8] = ??;\n\n        token = Token(_token);\n        \n    }\n\n    function mint (address recipient, uint256 _weaponLevel) public returns (uint256) {\n    _Ids.increment();\n\n    uint256 newItemId = _Ids.current();\n    _mint(recipient, newItemId);\n\n    createRandomWeapon(_weaponLevel);\n\n    return newItemId;\n  }\n\n    //    \n    function _createWeapon(uint256 _weaponType, uint256 _weaponLevel) internal {\n         _Ids.increment();\n\n        uint256 id = weapons.push(Weapon(_weaponType, _weaponLevel, 3, 3)) - 1;\n        uint256 newItemId = _Ids.current();\n        \n        _mint(msg.sender, newItemId);\n\n        emit NewWeapon(id, _weaponType, _weaponLevel);\n    }\n\n    //    16  \n    function _generateRandomType() private view returns (uint256) {\n      //      . \n        uint256 randomNumFromBlock = block.timestamp; \n        uint256 randomNum = uint256(keccak256(abi.encodePacked(randomNumFromBlock)));\n        return randomNum % weaponModulus;\n    }\n\n    function createRandomWeapon(uint256 _weaponLevel) public {\n        uint256 randomType = _generateRandomType();\n        randomType = randomType - randomType % 100; // \n        uint256 id = weapons.push(Weapon(randomType, _weaponLevel, 3, 3)) - 1;\n\n        emit NewWeapon(id, randomType, _weaponLevel);\n    }\n\n    //    2  \n    function createRandomNum() public view returns(uint256) {\n        uint256 randomNumFromBlock = block.timestamp;\n        uint256 randomNum = uint256(keccak256(abi.encodePacked(randomNumFromBlock)));\n\n        return randomNum % 100;\n    }\n\n    function compoundWeapon(uint256 _weapon1Id, uint256 _weapon2Id) public { // targetType  weaponId 2\n    //  2   \n    require(msg.sender == ownerOf(_weapon1Id));\n    require(msg.sender == ownerOf(_weapon2Id));\n\n    //  id nft \n    require(_weapon1Id != _weapon2Id , \"Can not compound with Same weapon\");\n    \n    //     \n    Weapon storage myWeapon1 = weapons[_weapon1Id - 1];\n    Weapon storage myWeapon2 = weapons[_weapon2Id - 1];\n    require(myWeapon1.weaponLevel == myWeapon2.weaponLevel, \"Compound Same weapon level\");\n\n    //   enchant( ) \n    require(myWeapon1.enchant != 0 && myWeapon2.enchant != 0, \"Weapon compound needs enchant\");\n    \n    //       \n    uint256 spendToken = tokenToCompound[myWeapon1.weaponLevel - 1];\n    require(spendToken <= token.balanceOf(msg.sender), \"You must have URU token to compound\");\n\n    //         \n    // weapon1       ,  \n    uint256 compoundPercentage = percentage[myWeapon1.weaponLevel - 1];\n\n    uint256 newType = (myWeapon1.weaponType + myWeapon2.weaponType + _generateRandomType()) / 2 % weaponModulus;\n\n    //  enchant( ) 1 \n    myWeapon1.enchant = myWeapon1.enchant - 1;\n    myWeapon2.enchant = myWeapon2.enchant - 1;\n\n    //  msg.sender  (burn)\n    token.burn(msg.sender, spendToken);\n    \n\n    //    ,   \n    if(createRandomNum() <= compoundPercentage) {\n        _createWeapon(newType, myWeapon1.weaponLevel + 1);\n        compoundResult[_weapon1Id][_weapon2Id] = true;\n    } else {\n        _createWeapon(newType, myWeapon1.weaponLevel);\n        compoundResult[_weapon1Id][_weapon2Id] = false;\n    }\n    \n    }\n    function getCompoundResult (uint256 _weapon1Id, uint256 _weapon2Id) public view returns (bool) {\n        return compoundResult[_weapon1Id][_weapon2Id];\n    }\n    //     (getter)\n    function getWeaponLevel (uint256 _weaponId) public view returns(uint256) {\n        return weapons[_weaponId - 1].weaponLevel;\n    }\n\n    // staking  \n    function stakingWeapon (uint256 _weaponId) public {\n        //    \n        require(msg.sender == ownerOf(_weaponId), \"You have to staking your weapon\");\n\n        weapons[_weaponId - 1].durability = weapons[_weaponId - 1].durability - 1;\n    }\n\n    // // staking  \n    // function fixWeaponDurability (uint256 _weaponId) public {\n    //     //    \n    //     require(msg.sender == ownerOf(_weaponId));\n\n    //     //     \n    //     uint256 spendToken = tokenToFixDurability[myWeapon1.weaponLevel - 1];\n    //     require(spendToken <= token.balanceOf(msg.sender), \"You must have URU token to fix durability\");\n        \n        \n    //     weapons[_weaponId - 1].durability = 3;\n\n    //     token.burn(msg.sender, spendToken);\n    // }\n\n\n    // // enchant  \n    // function fixWeaponEnchant (uint256 _weaponId) public {\n    //     //    \n    //     require(msg.sender == ownerOf(_weaponId));\n        \n    //     //     \n    //     uint256 spendToken = tokenToFixEnchant[myWeapon1.weaponLevel - 1];\n    //     require(spendToken <= token.balanceOf(msg.sender), \"You must have URU token to fix enchant\");\n        \n        \n    //     weapons[_weaponId - 1].enchant = 3;\n\n    //     token.burn(msg.sender, spendToken);\n    // }\n\n    //  msg.sender      (getter)\n\n}",
  "sourcePath": "/Users/baekdonghyun/Desktop/beb-03-DND/contract/contracts/NFT.sol",
  "compiler": {
    "name": "solc",
    "version": "0.5.6+commit.b259423e.Emscripten.clang"
  },
  "schemaVersion": "3.4.5",
  "updatedAt": "2022-05-23T12:19:42.394Z",
  "networkType": "ethereum",
  "devdoc": {
    "methods": {
      "approve(address,uint256)": {
        "details": "Approves another address to transfer the given token ID The zero address indicates there is no approved address. There can only be one approved address per token at a given time. Can only be called by the token owner or an approved operator.",
        "params": {
          "to": "address to be approved for the given token ID",
          "tokenId": "uint256 ID of the token to be approved"
        }
      },
      "balanceOf(address)": {
        "details": "Gets the balance of the specified address.",
        "params": {
          "owner": "address to query the balance of"
        },
        "return": "uint256 representing the amount owned by the passed address"
      },
      "getApproved(uint256)": {
        "details": "Gets the approved address for a token ID, or zero if no address set Reverts if the token ID does not exist.",
        "params": {
          "tokenId": "uint256 ID of the token to query the approval of"
        },
        "return": "address currently approved for the given token ID"
      },
      "isApprovedForAll(address,address)": {
        "details": "Tells whether an operator is approved by a given owner.",
        "params": {
          "operator": "operator address which you want to query the approval of",
          "owner": "owner address which you want to query the approval of"
        },
        "return": "bool whether the given operator is approved by the given owner"
      },
      "name()": {
        "details": "Gets the token name.",
        "return": "string representing the token name"
      },
      "ownerOf(uint256)": {
        "details": "Gets the owner of the specified token ID.",
        "params": {
          "tokenId": "uint256 ID of the token to query the owner of"
        },
        "return": "address currently marked as the owner of the given token ID"
      },
      "safeTransferFrom(address,address,uint256)": {
        "details": "Safely transfers the ownership of a given token ID to another address If the target address is a contract, it must implement `onKIP17Received`, which is called upon a safe transfer, and return the magic value `bytes4(keccak256(\"onKIP17Received(address,address,uint256,bytes)\"))`; otherwise, the transfer is reverted. Requires the msg.sender to be the owner, approved, or operator",
        "params": {
          "from": "current owner of the token",
          "to": "address to receive the ownership of the given token ID",
          "tokenId": "uint256 ID of the token to be transferred"
        }
      },
      "safeTransferFrom(address,address,uint256,bytes)": {
        "details": "Safely transfers the ownership of a given token ID to another address If the target address is a contract, it must implement `onKIP17Received`, which is called upon a safe transfer, and return the magic value `bytes4(keccak256(\"onKIP17Received(address,address,uint256,bytes)\"))`; otherwise, the transfer is reverted. Requires the msg.sender to be the owner, approved, or operator",
        "params": {
          "_data": "bytes data to send along with a safe transfer check",
          "from": "current owner of the token",
          "to": "address to receive the ownership of the given token ID",
          "tokenId": "uint256 ID of the token to be transferred"
        }
      },
      "setApprovalForAll(address,bool)": {
        "details": "Sets or unsets the approval of a given operator An operator is allowed to transfer all tokens of the sender on their behalf.",
        "params": {
          "approved": "representing the status of the approval to be set",
          "to": "operator address to set the approval"
        }
      },
      "supportsInterface(bytes4)": {
        "details": "See `IKIP13.supportsInterface`.     * Time complexity O(1), guaranteed to always use less than 30 000 gas."
      },
      "symbol()": {
        "details": "Gets the token symbol.",
        "return": "string representing the token symbol"
      },
      "tokenByIndex(uint256)": {
        "details": "Gets the token ID at a given index of all the tokens in this contract Reverts if the index is greater or equal to the total number of tokens.",
        "params": {
          "index": "uint256 representing the index to be accessed of the tokens list"
        },
        "return": "uint256 token ID at the given index of the tokens list"
      },
      "tokenOfOwnerByIndex(address,uint256)": {
        "details": "Gets the token ID at a given index of the tokens list of the requested owner.",
        "params": {
          "index": "uint256 representing the index to be accessed of the requested tokens list",
          "owner": "address owning the tokens list to be accessed"
        },
        "return": "uint256 token ID at the given index of the tokens list owned by the requested address"
      },
      "tokenURI(uint256)": {
        "details": "Returns an URI for a given token ID. Throws if the token ID does not exist. May return an empty string.",
        "params": {
          "tokenId": "uint256 ID of the token to query"
        }
      },
      "totalSupply()": {
        "details": "Gets the total amount of tokens stored by the contract.",
        "return": "uint256 representing the total amount of tokens"
      },
      "transferFrom(address,address,uint256)": {
        "details": "Transfers the ownership of a given token ID to another address. Usage of this method is discouraged, use `safeTransferFrom` whenever possible. Requires the msg.sender to be the owner, approved, or operator.",
        "params": {
          "from": "current owner of the token",
          "to": "address to receive the ownership of the given token ID",
          "tokenId": "uint256 ID of the token to be transferred"
        }
      }
    }
  },
  "userdoc": {
    "methods": {}
  }
}