{
  "contractName": "NFT",
  "abi": [
    {
      "constant": true,
      "inputs": [
        {
          "name": "interfaceId",
          "type": "bytes4"
        }
      ],
      "name": "supportsInterface",
      "outputs": [
        {
          "name": "",
          "type": "bool"
        }
      ],
      "payable": false,
      "stateMutability": "view",
      "type": "function"
    },
    {
      "constant": true,
      "inputs": [],
      "name": "name",
      "outputs": [
        {
          "name": "",
          "type": "string"
        }
      ],
      "payable": false,
      "stateMutability": "view",
      "type": "function"
    },
    {
      "constant": true,
      "inputs": [
        {
          "name": "tokenId",
          "type": "uint256"
        }
      ],
      "name": "getApproved",
      "outputs": [
        {
          "name": "",
          "type": "address"
        }
      ],
      "payable": false,
      "stateMutability": "view",
      "type": "function"
    },
    {
      "constant": false,
      "inputs": [
        {
          "name": "to",
          "type": "address"
        },
        {
          "name": "tokenId",
          "type": "uint256"
        }
      ],
      "name": "approve",
      "outputs": [],
      "payable": false,
      "stateMutability": "nonpayable",
      "type": "function"
    },
    {
      "constant": true,
      "inputs": [],
      "name": "totalSupply",
      "outputs": [
        {
          "name": "",
          "type": "uint256"
        }
      ],
      "payable": false,
      "stateMutability": "view",
      "type": "function"
    },
    {
      "constant": true,
      "inputs": [
        {
          "name": "",
          "type": "uint256"
        }
      ],
      "name": "tokenToFixDurability",
      "outputs": [
        {
          "name": "",
          "type": "uint256"
        }
      ],
      "payable": false,
      "stateMutability": "view",
      "type": "function"
    },
    {
      "constant": false,
      "inputs": [
        {
          "name": "from",
          "type": "address"
        },
        {
          "name": "to",
          "type": "address"
        },
        {
          "name": "tokenId",
          "type": "uint256"
        }
      ],
      "name": "transferFrom",
      "outputs": [],
      "payable": false,
      "stateMutability": "nonpayable",
      "type": "function"
    },
    {
      "constant": true,
      "inputs": [
        {
          "name": "owner",
          "type": "address"
        },
        {
          "name": "index",
          "type": "uint256"
        }
      ],
      "name": "tokenOfOwnerByIndex",
      "outputs": [
        {
          "name": "",
          "type": "uint256"
        }
      ],
      "payable": false,
      "stateMutability": "view",
      "type": "function"
    },
    {
      "constant": false,
      "inputs": [
        {
          "name": "from",
          "type": "address"
        },
        {
          "name": "to",
          "type": "address"
        },
        {
          "name": "tokenId",
          "type": "uint256"
        }
      ],
      "name": "safeTransferFrom",
      "outputs": [],
      "payable": false,
      "stateMutability": "nonpayable",
      "type": "function"
    },
    {
      "constant": true,
      "inputs": [
        {
          "name": "index",
          "type": "uint256"
        }
      ],
      "name": "tokenByIndex",
      "outputs": [
        {
          "name": "",
          "type": "uint256"
        }
      ],
      "payable": false,
      "stateMutability": "view",
      "type": "function"
    },
    {
      "constant": true,
      "inputs": [
        {
          "name": "",
          "type": "uint256"
        }
      ],
      "name": "weapons",
      "outputs": [
        {
          "name": "weaponType",
          "type": "uint256"
        },
        {
          "name": "weaponLevel",
          "type": "uint256"
        },
        {
          "name": "durability",
          "type": "uint256"
        },
        {
          "name": "enchant",
          "type": "uint256"
        }
      ],
      "payable": false,
      "stateMutability": "view",
      "type": "function"
    },
    {
      "constant": true,
      "inputs": [
        {
          "name": "",
          "type": "uint256"
        }
      ],
      "name": "tokenToCompound",
      "outputs": [
        {
          "name": "",
          "type": "uint256"
        }
      ],
      "payable": false,
      "stateMutability": "view",
      "type": "function"
    },
    {
      "constant": true,
      "inputs": [
        {
          "name": "tokenId",
          "type": "uint256"
        }
      ],
      "name": "ownerOf",
      "outputs": [
        {
          "name": "",
          "type": "address"
        }
      ],
      "payable": false,
      "stateMutability": "view",
      "type": "function"
    },
    {
      "constant": true,
      "inputs": [
        {
          "name": "owner",
          "type": "address"
        }
      ],
      "name": "balanceOf",
      "outputs": [
        {
          "name": "",
          "type": "uint256"
        }
      ],
      "payable": false,
      "stateMutability": "view",
      "type": "function"
    },
    {
      "constant": true,
      "inputs": [],
      "name": "symbol",
      "outputs": [
        {
          "name": "",
          "type": "string"
        }
      ],
      "payable": false,
      "stateMutability": "view",
      "type": "function"
    },
    {
      "constant": false,
      "inputs": [
        {
          "name": "to",
          "type": "address"
        },
        {
          "name": "approved",
          "type": "bool"
        }
      ],
      "name": "setApprovalForAll",
      "outputs": [],
      "payable": false,
      "stateMutability": "nonpayable",
      "type": "function"
    },
    {
      "constant": true,
      "inputs": [
        {
          "name": "",
          "type": "uint256"
        }
      ],
      "name": "tokenToFixEnchant",
      "outputs": [
        {
          "name": "",
          "type": "uint256"
        }
      ],
      "payable": false,
      "stateMutability": "view",
      "type": "function"
    },
    {
      "constant": false,
      "inputs": [
        {
          "name": "from",
          "type": "address"
        },
        {
          "name": "to",
          "type": "address"
        },
        {
          "name": "tokenId",
          "type": "uint256"
        },
        {
          "name": "_data",
          "type": "bytes"
        }
      ],
      "name": "safeTransferFrom",
      "outputs": [],
      "payable": false,
      "stateMutability": "nonpayable",
      "type": "function"
    },
    {
      "constant": true,
      "inputs": [
        {
          "name": "tokenId",
          "type": "uint256"
        }
      ],
      "name": "tokenURI",
      "outputs": [
        {
          "name": "",
          "type": "string"
        }
      ],
      "payable": false,
      "stateMutability": "view",
      "type": "function"
    },
    {
      "constant": true,
      "inputs": [
        {
          "name": "",
          "type": "uint256"
        }
      ],
      "name": "percentage",
      "outputs": [
        {
          "name": "",
          "type": "uint256"
        }
      ],
      "payable": false,
      "stateMutability": "view",
      "type": "function"
    },
    {
      "constant": true,
      "inputs": [
        {
          "name": "owner",
          "type": "address"
        },
        {
          "name": "operator",
          "type": "address"
        }
      ],
      "name": "isApprovedForAll",
      "outputs": [
        {
          "name": "",
          "type": "bool"
        }
      ],
      "payable": false,
      "stateMutability": "view",
      "type": "function"
    },
    {
      "inputs": [
        {
          "name": "_token",
          "type": "address"
        }
      ],
      "payable": false,
      "stateMutability": "nonpayable",
      "type": "constructor"
    },
    {
      "anonymous": false,
      "inputs": [
        {
          "indexed": false,
          "name": "weaponId",
          "type": "uint256"
        },
        {
          "indexed": false,
          "name": "weaponType",
          "type": "uint256"
        },
        {
          "indexed": false,
          "name": "weaponLevel",
          "type": "uint256"
        }
      ],
      "name": "NewWeapon",
      "type": "event"
    },
    {
      "anonymous": false,
      "inputs": [
        {
          "indexed": true,
          "name": "from",
          "type": "address"
        },
        {
          "indexed": true,
          "name": "to",
          "type": "address"
        },
        {
          "indexed": true,
          "name": "tokenId",
          "type": "uint256"
        }
      ],
      "name": "Transfer",
      "type": "event"
    },
    {
      "anonymous": false,
      "inputs": [
        {
          "indexed": true,
          "name": "owner",
          "type": "address"
        },
        {
          "indexed": true,
          "name": "approved",
          "type": "address"
        },
        {
          "indexed": true,
          "name": "tokenId",
          "type": "uint256"
        }
      ],
      "name": "Approval",
      "type": "event"
    },
    {
      "anonymous": false,
      "inputs": [
        {
          "indexed": true,
          "name": "owner",
          "type": "address"
        },
        {
          "indexed": true,
          "name": "operator",
          "type": "address"
        },
        {
          "indexed": false,
          "name": "approved",
          "type": "bool"
        }
      ],
      "name": "ApprovalForAll",
      "type": "event"
    },
    {
      "constant": false,
      "inputs": [
        {
          "name": "recipient",
          "type": "address"
        },
        {
          "name": "_weaponLevel",
          "type": "uint256"
        }
      ],
      "name": "mint",
      "outputs": [
        {
          "name": "",
          "type": "uint256"
        }
      ],
      "payable": false,
      "stateMutability": "nonpayable",
      "type": "function"
    },
    {
      "constant": false,
      "inputs": [
        {
          "name": "_weaponLevel",
          "type": "uint256"
        }
      ],
      "name": "createRandomWeapon",
      "outputs": [],
      "payable": false,
      "stateMutability": "nonpayable",
      "type": "function"
    },
    {
      "constant": true,
      "inputs": [],
      "name": "createRandomNum",
      "outputs": [
        {
          "name": "",
          "type": "uint256"
        }
      ],
      "payable": false,
      "stateMutability": "view",
      "type": "function"
    },
    {
      "constant": false,
      "inputs": [
        {
          "name": "_weapon1Id",
          "type": "uint256"
        },
        {
          "name": "_weapon2Id",
          "type": "uint256"
        }
      ],
      "name": "compoundWeapon",
      "outputs": [],
      "payable": false,
      "stateMutability": "nonpayable",
      "type": "function"
    },
    {
      "constant": true,
      "inputs": [
        {
          "name": "_weaponId",
          "type": "uint256"
        }
      ],
      "name": "getWeaponLevel",
      "outputs": [
        {
          "name": "",
          "type": "uint256"
        }
      ],
      "payable": false,
      "stateMutability": "view",
      "type": "function"
    },
    {
      "constant": false,
      "inputs": [
        {
          "name": "_weaponId",
          "type": "uint256"
        }
      ],
      "name": "stakingWeapon",
      "outputs": [],
      "payable": false,
      "stateMutability": "nonpayable",
      "type": "function"
    }
  ],
  "bytecode": "0x60806040526010600d55600d54600a0a600e553480156200001f57600080fd5b506040516020806200381e833981018060405260208110156200004157600080fd5b81019080805190602001909291905050506040518060400160405280600a81526020017f444e442d574541504f4e000000000000000000000000000000000000000000008152506040518060400160405280600681526020017f574541504f4e00000000000000000000000000000000000000000000000000008152508181620000d86301ffc9a760e01b6200033060201b60201c565b620000f06380ac58cd60e01b6200033060201b60201c565b6200010863780e9d6360e01b6200033060201b60201c565b81600990805190602001906200012092919062000439565b5080600a90805190602001906200013992919062000439565b5062000152635b5e139f60e01b6200033060201b60201c565b505050506063600f6000600981106200016757fe5b0181905550604f600f6001600981106200017d57fe5b01819055506045600f6002600981106200019357fe5b01819055506031600f600360098110620001a957fe5b01819055506027600f600460098110620001bf57fe5b0181905550601d600f600560098110620001d557fe5b01819055506013600f600660098110620001eb57fe5b01819055506009600f6007600981106200020157fe5b01819055506004600f6008600981106200021757fe5b0181905550603260186000600981106200022d57fe5b0181905550606460186001600981106200024357fe5b018190555060c860186002600981106200025957fe5b018190555061012c60186003600981106200027057fe5b01819055506101f460186004600981106200028757fe5b01819055506102bc60186005600981106200029e57fe5b01819055506103e86018600660098110620002b557fe5b0181905550610bb86018600760098110620002cc57fe5b01819055506113886018600860098110620002e357fe5b018190555080603360006101000a81548173ffffffffffffffffffffffffffffffffffffffff021916908373ffffffffffffffffffffffffffffffffffffffff16021790555050620004e8565b63ffffffff60e01b817bffffffffffffffffffffffffffffffffffffffffffffffffffffffff19161415620003cd576040517f08c379a000000000000000000000000000000000000000000000000000000000815260040180806020018281038252601b8152602001807f4b495031333a20696e76616c696420696e74657266616365206964000000000081525060200191505060405180910390fd5b6001600080837bffffffffffffffffffffffffffffffffffffffffffffffffffffffff19167bffffffffffffffffffffffffffffffffffffffffffffffffffffffff1916815260200190815260200160002060006101000a81548160ff02191690831515021790555050565b828054600181600116156101000203166002900490600052602060002090601f016020900481019282601f106200047c57805160ff1916838001178555620004ad565b82800160010185558215620004ad579182015b82811115620004ac5782518255916020019190600101906200048f565b5b509050620004bc9190620004c0565b5090565b620004e591905b80821115620004e1576000816000905550600101620004c7565b5090565b90565b61332680620004f86000396000f3fe608060405234801561001057600080fd5b50600436106101a95760003560e01c8063555e73c8116100f9578063a22cb46511610097578063bcde049211610071578063bcde0492146109e3578063c87b56dd14610a01578063e27fd8ec14610aa8578063e985e9c514610aea576101a9565b8063a22cb4651461084c578063a86226181461089c578063b88d4fde146108de576101a9565b80636352211e116100d35780636352211e146106d557806365cf0b831461074357806370a082311461077157806395d89b41146107c9576101a9565b8063555e73c81461060e5780635ae25c2c14610665578063614a078e146106a7576101a9565b80631d67a5f61161016657806340c10f191161014057806340c10f19146104c457806340d7f82c1461052657806342842e0e1461055e5780634f6ccce7146105cc576101a9565b80631d67a5f6146103b257806323b872dd146103f45780632f745c5914610462576101a9565b806301ffc9a7146101ae57806306fdde0314610213578063081812fc14610296578063095ea7b314610304578063107121301461035257806318160ddd14610394575b600080fd5b6101f9600480360360208110156101c457600080fd5b8101908080357bffffffffffffffffffffffffffffffffffffffffffffffffffffffff19169060200190929190505050610b66565b604051808215151515815260200191505060405180910390f35b61021b610bcd565b6040518080602001828103825283818151815260200191508051906020019080838360005b8381101561025b578082015181840152602081019050610240565b50505050905090810190601f1680156102885780820380516001836020036101000a031916815260200191505b509250505060405180910390f35b6102c2600480360360208110156102ac57600080fd5b8101908080359060200190929190505050610c6f565b604051808273ffffffffffffffffffffffffffffffffffffffff1673ffffffffffffffffffffffffffffffffffffffff16815260200191505060405180910390f35b6103506004803603604081101561031a57600080fd5b81019080803573ffffffffffffffffffffffffffffffffffffffff16906020019092919080359060200190929190505050610d0a565b005b61037e6004803603602081101561036857600080fd5b8101908080359060200190929190505050610f00565b6040518082815260200191505060405180910390f35b61039c610f2b565b6040518082815260200191505060405180910390f35b6103de600480360360208110156103c857600080fd5b8101908080359060200190929190505050610f38565b6040518082815260200191505060405180910390f35b6104606004803603606081101561040a57600080fd5b81019080803573ffffffffffffffffffffffffffffffffffffffff169060200190929190803573ffffffffffffffffffffffffffffffffffffffff16906020019092919080359060200190929190505050610f50565b005b6104ae6004803603604081101561047857600080fd5b81019080803573ffffffffffffffffffffffffffffffffffffffff16906020019092919080359060200190929190505050610fbf565b6040518082815260200191505060405180910390f35b610510600480360360408110156104da57600080fd5b81019080803573ffffffffffffffffffffffffffffffffffffffff1690602001909291908035906020019092919050505061107e565b6040518082815260200191505060405180910390f35b61055c6004803603604081101561053c57600080fd5b8101908080359060200190929190803590602001909291905050506110b5565b005b6105ca6004803603606081101561057457600080fd5b81019080803573ffffffffffffffffffffffffffffffffffffffff169060200190929190803573ffffffffffffffffffffffffffffffffffffffff1690602001909291908035906020019092919050505061158b565b005b6105f8600480360360208110156105e257600080fd5b81019080803590602001909291905050506115ab565b6040518082815260200191505060405180910390f35b61063a6004803603602081101561062457600080fd5b810190808035906020019092919050505061162b565b6040518085815260200184815260200183815260200182815260200194505050505060405180910390f35b6106916004803603602081101561067b57600080fd5b8101908080359060200190929190505050611668565b6040518082815260200191505060405180910390f35b6106d3600480360360208110156106bd57600080fd5b8101908080359060200190929190505050611680565b005b610701600480360360208110156106eb57600080fd5b8101908080359060200190929190505050611768565b604051808273ffffffffffffffffffffffffffffffffffffffff1673ffffffffffffffffffffffffffffffffffffffff16815260200191505060405180910390f35b61076f6004803603602081101561075957600080fd5b8101908080359060200190929190505050611830565b005b6107b36004803603602081101561078757600080fd5b81019080803573ffffffffffffffffffffffffffffffffffffffff169060200190929190505050611926565b6040518082815260200191505060405180910390f35b6107d16119fb565b6040518080602001828103825283818151815260200191508051906020019080838360005b838110156108115780820151818401526020810190506107f6565b50505050905090810190601f16801561083e5780820380516001836020036101000a031916815260200191505b509250505060405180910390f35b61089a6004803603604081101561086257600080fd5b81019080803573ffffffffffffffffffffffffffffffffffffffff169060200190929190803515159060200190929190505050611a9d565b005b6108c8600480360360208110156108b257600080fd5b8101908080359060200190929190505050611c40565b6040518082815260200191505060405180910390f35b6109e1600480360360808110156108f457600080fd5b81019080803573ffffffffffffffffffffffffffffffffffffffff169060200190929190803573ffffffffffffffffffffffffffffffffffffffff169060200190929190803590602001909291908035906020019064010000000081111561095b57600080fd5b82018360208201111561096d57600080fd5b8035906020019184600183028401116401000000008311171561098f57600080fd5b91908080601f016020809104026020016040519081016040528093929190818152602001838380828437600081840152601f19601f820116905080830192505050505050509192919290505050611c58565b005b6109eb611cca565b6040518082815260200191505060405180910390f35b610a2d60048036036020811015610a1757600080fd5b8101908080359060200190929190505050611d10565b6040518080602001828103825283818151815260200191508051906020019080838360005b83811015610a6d578082015181840152602081019050610a52565b50505050905090810190601f168015610a9a5780820380516001836020036101000a031916815260200191505b509250505060405180910390f35b610ad460048036036020811015610abe57600080fd5b8101908080359060200190929190505050611e23565b6040518082815260200191505060405180910390f35b610b4c60048036036040811015610b0057600080fd5b81019080803573ffffffffffffffffffffffffffffffffffffffff169060200190929190803573ffffffffffffffffffffffffffffffffffffffff169060200190929190505050611e3b565b604051808215151515815260200191505060405180910390f35b6000806000837bffffffffffffffffffffffffffffffffffffffffffffffffffffffff19167bffffffffffffffffffffffffffffffffffffffffffffffffffffffff1916815260200190815260200160002060009054906101000a900460ff169050919050565b606060098054600181600116156101000203166002900480601f016020809104026020016040519081016040528092919081815260200182805460018160011615610100020316600290048015610c655780601f10610c3a57610100808354040283529160200191610c65565b820191906000526020600020905b815481529060010190602001808311610c4857829003601f168201915b5050505050905090565b6000610c7a82611ecf565b610ccf576040517f08c379a000000000000000000000000000000000000000000000000000000000815260040180806020018281038252602b81526020018061326e602b913960400191505060405180910390fd5b6002600083815260200190815260200160002060009054906101000a900473ffffffffffffffffffffffffffffffffffffffff169050919050565b6000610d1582611768565b90508073ffffffffffffffffffffffffffffffffffffffff168373ffffffffffffffffffffffffffffffffffffffff161415610db9576040517f08c379a00000000000000000000000000000000000000000000000000000000081526004018080602001828103825260208152602001807f4b495031373a20617070726f76616c20746f2063757272656e74206f776e657281525060200191505060405180910390fd5b8073ffffffffffffffffffffffffffffffffffffffff163373ffffffffffffffffffffffffffffffffffffffff161480610df95750610df88133611e3b565b5b610e4e576040517f08c379a00000000000000000000000000000000000000000000000000000000081526004018080602001828103825260378152602001806132996037913960400191505060405180910390fd5b826002600084815260200190815260200160002060006101000a81548173ffffffffffffffffffffffffffffffffffffffff021916908373ffffffffffffffffffffffffffffffffffffffff160217905550818373ffffffffffffffffffffffffffffffffffffffff168273ffffffffffffffffffffffffffffffffffffffff167f8c5be1e5ebec7d5bd14f71427d1e84f3dd0314c0f7b2291e5b200ac8c7c3b92560405160405180910390a4505050565b600060346001830381548110610f1257fe5b9060005260206000209060040201600101549050919050565b6000600780549050905090565b60218160098110610f4557fe5b016000915090505481565b610f5a3382611f41565b610faf576040517f08c379a00000000000000000000000000000000000000000000000000000000081526004018080602001828103825260308152602001806131926030913960400191505060405180910390fd5b610fba838383612035565b505050565b6000610fca83611926565b8210611021576040517f08c379a000000000000000000000000000000000000000000000000000000000815260040180806020018281038252602a81526020018061311f602a913960400191505060405180910390fd5b600560008473ffffffffffffffffffffffffffffffffffffffff1673ffffffffffffffffffffffffffffffffffffffff168152602001908152602001600020828154811061106b57fe5b9060005260206000200154905092915050565b600061108a600c612059565b6000611096600c61206f565b90506110a2848261207d565b6110ab83611680565b8091505092915050565b6110be82611768565b73ffffffffffffffffffffffffffffffffffffffff163373ffffffffffffffffffffffffffffffffffffffff16146110f557600080fd5b6110fe81611768565b73ffffffffffffffffffffffffffffffffffffffff163373ffffffffffffffffffffffffffffffffffffffff161461113557600080fd5b8082141561118e576040517f08c379a00000000000000000000000000000000000000000000000000000000081526004018080602001828103825260218152602001806131496021913960400191505060405180910390fd5b6000603460018403815481106111a057fe5b906000526020600020906004020190506000603460018403815481106111c257fe5b90600052602060002090600402019050806001015482600101541461124f576040517f08c379a000000000000000000000000000000000000000000000000000000000815260040180806020018281038252601a8152602001807f436f6d706f756e642053616d6520776561706f6e206c6576656c00000000000081525060200191505060405180910390fd5b600082600301541415801561126957506000816003015414155b6112db576040517f08c379a000000000000000000000000000000000000000000000000000000000815260040180806020018281038252601d8152602001807f576561706f6e20636f6d706f756e64206e6565647320656e6368616e7400000081525060200191505060405180910390fd5b600060186001846001015403600981106112f157fe5b01549050603360009054906101000a900473ffffffffffffffffffffffffffffffffffffffff1673ffffffffffffffffffffffffffffffffffffffff166370a08231336040518263ffffffff1660e01b8152600401808273ffffffffffffffffffffffffffffffffffffffff1673ffffffffffffffffffffffffffffffffffffffff16815260200191505060206040518083038186803b15801561139457600080fd5b505afa1580156113a8573d6000803e3d6000fd5b505050506040513d60208110156113be57600080fd5b8101908080519060200190929190505050811115611427576040517f08c379a00000000000000000000000000000000000000000000000000000000081526004018080602001828103825260238152602001806130ab6023913960400191505060405180910390fd5b6000600f60018560010154036009811061143d57fe5b015490506000600e54600261145061209e565b8660000154886000015401018161146357fe5b048161146b57fe5b0690506001856003015403856003018190555060018460030154038460030181905550603360009054906101000a900473ffffffffffffffffffffffffffffffffffffffff1673ffffffffffffffffffffffffffffffffffffffff16639dc29fac33856040518363ffffffff1660e01b8152600401808373ffffffffffffffffffffffffffffffffffffffff1673ffffffffffffffffffffffffffffffffffffffff16815260200182815260200192505050600060405180830381600087803b15801561153757600080fd5b505af115801561154b573d6000803e3d6000fd5b5050505081611558611cca565b116115735761156e8160018760010154016120e5565b611582565b6115818186600101546120e5565b5b50505050505050565b6115a683838360405180602001604052806000815250611c58565b505050565b60006115b5610f2b565b821061160c576040517f08c379a000000000000000000000000000000000000000000000000000000000815260040180806020018281038252602b815260200180613243602b913960400191505060405180910390fd5b6007828154811061161957fe5b90600052602060002001549050919050565b6034818154811061163857fe5b90600052602060002090600402016000915090508060000154908060010154908060020154908060030154905084565b6018816009811061167557fe5b016000915090505481565b600061168a61209e565b90506064818161169657fe5b06810390506000600160346040518060800160405280858152602001868152602001600381526020016003815250908060018154018082558091505090600182039060005260206000209060040201600090919290919091506000820151816000015560208201518160010155604082015181600201556060820151816003015550500390507f5bd4bf80a2d2a135c85b92a11d79ad20c06c33b2f780af640e38be2aae2275de81838560405180848152602001838152602001828152602001935050505060405180910390a1505050565b6000806001600084815260200190815260200160002060009054906101000a900473ffffffffffffffffffffffffffffffffffffffff169050600073ffffffffffffffffffffffffffffffffffffffff168173ffffffffffffffffffffffffffffffffffffffff161415611827576040517f08c379a000000000000000000000000000000000000000000000000000000000815260040180806020018281038252602881526020018061316a6028913960400191505060405180910390fd5b80915050919050565b61183981611768565b73ffffffffffffffffffffffffffffffffffffffff163373ffffffffffffffffffffffffffffffffffffffff16146118d9576040517f08c379a000000000000000000000000000000000000000000000000000000000815260040180806020018281038252601f8152602001807f596f75206861766520746f207374616b696e6720796f757220776561706f6e0081525060200191505060405180910390fd5b6001603460018303815481106118eb57fe5b906000526020600020906004020160020154036034600183038154811061190e57fe5b90600052602060002090600402016002018190555050565b60008073ffffffffffffffffffffffffffffffffffffffff168273ffffffffffffffffffffffffffffffffffffffff1614156119ad576040517f08c379a00000000000000000000000000000000000000000000000000000000081526004018080602001828103825260298152602001806131f26029913960400191505060405180910390fd5b6119f4600360008473ffffffffffffffffffffffffffffffffffffffff1673ffffffffffffffffffffffffffffffffffffffff16815260200190815260200160002061206f565b9050919050565b6060600a8054600181600116156101000203166002900480601f016020809104026020016040519081016040528092919081815260200182805460018160011615610100020316600290048015611a935780601f10611a6857610100808354040283529160200191611a93565b820191906000526020600020905b815481529060010190602001808311611a7657829003601f168201915b5050505050905090565b3373ffffffffffffffffffffffffffffffffffffffff168273ffffffffffffffffffffffffffffffffffffffff161415611b3f576040517f08c379a00000000000000000000000000000000000000000000000000000000081526004018080602001828103825260188152602001807f4b495031373a20617070726f766520746f2063616c6c6572000000000000000081525060200191505060405180910390fd5b80600460003373ffffffffffffffffffffffffffffffffffffffff1673ffffffffffffffffffffffffffffffffffffffff16815260200190815260200160002060008473ffffffffffffffffffffffffffffffffffffffff1673ffffffffffffffffffffffffffffffffffffffff16815260200190815260200160002060006101000a81548160ff0219169083151502179055508173ffffffffffffffffffffffffffffffffffffffff163373ffffffffffffffffffffffffffffffffffffffff167f17307eab39ab6107e8899845ad3d59bd9653f200f220920489ca2b5937696c3183604051808215151515815260200191505060405180910390a35050565b602a8160098110611c4d57fe5b016000915090505481565b611c63848484610f50565b611c6f848484846121d5565b611cc4576040517f08c379a00000000000000000000000000000000000000000000000000000000081526004018080602001828103825260308152602001806131c26030913960400191505060405180910390fd5b50505050565b600080429050600081604051602001808281526020019150506040516020818303038152906040528051906020012060001c905060648181611d0857fe5b069250505090565b6060611d1b82611ecf565b611d70576040517f08c379a000000000000000000000000000000000000000000000000000000000815260040180806020018281038252602e8152602001806130ce602e913960400191505060405180910390fd5b600b60008381526020019081526020016000208054600181600116156101000203166002900480601f016020809104026020016040519081016040528092919081815260200182805460018160011615610100020316600290048015611e175780601f10611dec57610100808354040283529160200191611e17565b820191906000526020600020905b815481529060010190602001808311611dfa57829003601f168201915b50505050509050919050565b600f8160098110611e3057fe5b016000915090505481565b6000600460008473ffffffffffffffffffffffffffffffffffffffff1673ffffffffffffffffffffffffffffffffffffffff16815260200190815260200160002060008373ffffffffffffffffffffffffffffffffffffffff1673ffffffffffffffffffffffffffffffffffffffff16815260200190815260200160002060009054906101000a900460ff16905092915050565b6000806001600084815260200190815260200160002060009054906101000a900473ffffffffffffffffffffffffffffffffffffffff169050600073ffffffffffffffffffffffffffffffffffffffff168173ffffffffffffffffffffffffffffffffffffffff161415915050919050565b6000611f4c82611ecf565b611fa1576040517f08c379a000000000000000000000000000000000000000000000000000000000815260040180806020018281038252602b8152602001806132d0602b913960400191505060405180910390fd5b6000611fac83611768565b90508073ffffffffffffffffffffffffffffffffffffffff168473ffffffffffffffffffffffffffffffffffffffff16148061201b57508373ffffffffffffffffffffffffffffffffffffffff1661200384610c6f565b73ffffffffffffffffffffffffffffffffffffffff16145b8061202c575061202b8185611e3b565b5b91505092915050565b612040838383612737565b61204a8382612992565b6120548282612b30565b505050565b6001816000016000828254019250508190555050565b600081600001549050919050565b6120878282612bf7565b6120918282612b30565b61209a81612e0f565b5050565b600080429050600081604051602001808281526020019150506040516020818303038152906040528051906020012060001c9050600e5481816120dd57fe5b069250505090565b6120ef600c612059565b600060016034604051806080016040528086815260200185815260200160038152602001600381525090806001815401808255809150509060018203906000526020600020906004020160009091929091909150600082015181600001556020820151816001015560408201518160020155606082015181600301555050039050600061217c600c61206f565b9050612188338261207d565b7f5bd4bf80a2d2a135c85b92a11d79ad20c06c33b2f780af640e38be2aae2275de82858560405180848152602001838152602001828152602001935050505060405180910390a150505050565b60008060606121f98673ffffffffffffffffffffffffffffffffffffffff16612e5b565b6122085760019250505061272f565b8573ffffffffffffffffffffffffffffffffffffffff1663150b7a0260e01b33898888604051602401808573ffffffffffffffffffffffffffffffffffffffff1673ffffffffffffffffffffffffffffffffffffffff1681526020018473ffffffffffffffffffffffffffffffffffffffff1673ffffffffffffffffffffffffffffffffffffffff16815260200183815260200180602001828103825283818151815260200191508051906020019080838360005b838110156122d85780820151818401526020810190506122bd565b50505050905090810190601f1680156123055780820380516001836020036101000a031916815260200191505b5095505050505050604051602081830303815290604052907bffffffffffffffffffffffffffffffffffffffffffffffffffffffff19166020820180517bffffffffffffffffffffffffffffffffffffffffffffffffffffffff83818316178352505050506040518082805190602001908083835b6020831061239d578051825260208201915060208101905060208303925061237a565b6001836020036101000a0380198251168184511680821785525050505050509050019150506000604051808303816000865af19150503d80600081146123ff576040519150601f19603f3d011682016040523d82523d6000602084013e612404565b606091505b5080925081935050506000815114158015612488575063150b7a0260e01b7bffffffffffffffffffffffffffffffffffffffffffffffffffffffff191681806020019051602081101561245657600080fd5b81019080805190602001909291905050507bffffffffffffffffffffffffffffffffffffffffffffffffffffffff1916145b156124985760019250505061272f565b8573ffffffffffffffffffffffffffffffffffffffff16636745782b60e01b33898888604051602401808573ffffffffffffffffffffffffffffffffffffffff1673ffffffffffffffffffffffffffffffffffffffff1681526020018473ffffffffffffffffffffffffffffffffffffffff1673ffffffffffffffffffffffffffffffffffffffff16815260200183815260200180602001828103825283818151815260200191508051906020019080838360005b8381101561256857808201518184015260208101905061254d565b50505050905090810190601f1680156125955780820380516001836020036101000a031916815260200191505b5095505050505050604051602081830303815290604052907bffffffffffffffffffffffffffffffffffffffffffffffffffffffff19166020820180517bffffffffffffffffffffffffffffffffffffffffffffffffffffffff83818316178352505050506040518082805190602001908083835b6020831061262d578051825260208201915060208101905060208303925061260a565b6001836020036101000a0380198251168184511680821785525050505050509050019150506000604051808303816000865af19150503d806000811461268f576040519150601f19603f3d011682016040523d82523d6000602084013e612694565b606091505b50809250819350505060008151141580156127185750636745782b60e01b7bffffffffffffffffffffffffffffffffffffffffffffffffffffffff19168180602001905160208110156126e657600080fd5b81019080805190602001909291905050507bffffffffffffffffffffffffffffffffffffffffffffffffffffffff1916145b156127285760019250505061272f565b6000925050505b949350505050565b8273ffffffffffffffffffffffffffffffffffffffff1661275782611768565b73ffffffffffffffffffffffffffffffffffffffff16146127c3576040517f08c379a000000000000000000000000000000000000000000000000000000000815260040180806020018281038252602881526020018061321b6028913960400191505060405180910390fd5b600073ffffffffffffffffffffffffffffffffffffffff168273ffffffffffffffffffffffffffffffffffffffff161415612849576040517f08c379a00000000000000000000000000000000000000000000000000000000081526004018080602001828103825260238152602001806130fc6023913960400191505060405180910390fd5b61285281612e6e565b612899600360008573ffffffffffffffffffffffffffffffffffffffff1673ffffffffffffffffffffffffffffffffffffffff168152602001908152602001600020612f2c565b6128e0600360008473ffffffffffffffffffffffffffffffffffffffff1673ffffffffffffffffffffffffffffffffffffffff168152602001908152602001600020612059565b816001600083815260200190815260200160002060006101000a81548173ffffffffffffffffffffffffffffffffffffffff021916908373ffffffffffffffffffffffffffffffffffffffff160217905550808273ffffffffffffffffffffffffffffffffffffffff168473ffffffffffffffffffffffffffffffffffffffff167fddf252ad1be2c89b69c2b068fc378daa952ba7f163c4a11628f55a4df523b3ef60405160405180910390a4505050565b60006129ea6001600560008673ffffffffffffffffffffffffffffffffffffffff1673ffffffffffffffffffffffffffffffffffffffff16815260200190815260200160002080549050612f4f90919063ffffffff16565b9050600060066000848152602001908152602001600020549050818114612ad7576000600560008673ffffffffffffffffffffffffffffffffffffffff1673ffffffffffffffffffffffffffffffffffffffff1681526020019081526020016000208381548110612a5757fe5b9060005260206000200154905080600560008773ffffffffffffffffffffffffffffffffffffffff1673ffffffffffffffffffffffffffffffffffffffff1681526020019081526020016000208381548110612aaf57fe5b9060005260206000200181905550816006600083815260200190815260200160002081905550505b600560008573ffffffffffffffffffffffffffffffffffffffff1673ffffffffffffffffffffffffffffffffffffffff168152602001908152602001600020805480919060019003612b299190613059565b5050505050565b600560008373ffffffffffffffffffffffffffffffffffffffff1673ffffffffffffffffffffffffffffffffffffffff168152602001908152602001600020805490506006600083815260200190815260200160002081905550600560008373ffffffffffffffffffffffffffffffffffffffff1673ffffffffffffffffffffffffffffffffffffffff1681526020019081526020016000208190806001815401808255809150509060018203906000526020600020016000909192909190915055505050565b600073ffffffffffffffffffffffffffffffffffffffff168273ffffffffffffffffffffffffffffffffffffffff161415612c9a576040517f08c379a000000000000000000000000000000000000000000000000000000000815260040180806020018281038252601f8152602001807f4b495031373a206d696e7420746f20746865207a65726f20616464726573730081525060200191505060405180910390fd5b612ca381611ecf565b15612d16576040517f08c379a000000000000000000000000000000000000000000000000000000000815260040180806020018281038252601b8152602001807f4b495031373a20746f6b656e20616c7265616479206d696e746564000000000081525060200191505060405180910390fd5b816001600083815260200190815260200160002060006101000a81548173ffffffffffffffffffffffffffffffffffffffff021916908373ffffffffffffffffffffffffffffffffffffffff160217905550612daf600360008473ffffffffffffffffffffffffffffffffffffffff1673ffffffffffffffffffffffffffffffffffffffff168152602001908152602001600020612059565b808273ffffffffffffffffffffffffffffffffffffffff16600073ffffffffffffffffffffffffffffffffffffffff167fddf252ad1be2c89b69c2b068fc378daa952ba7f163c4a11628f55a4df523b3ef60405160405180910390a45050565b6007805490506008600083815260200190815260200160002081905550600781908060018154018082558091505090600182039060005260206000200160009091929091909150555050565b600080823b905060008111915050919050565b600073ffffffffffffffffffffffffffffffffffffffff166002600083815260200190815260200160002060009054906101000a900473ffffffffffffffffffffffffffffffffffffffff1673ffffffffffffffffffffffffffffffffffffffff1614612f295760006002600083815260200190815260200160002060006101000a81548173ffffffffffffffffffffffffffffffffffffffff021916908373ffffffffffffffffffffffffffffffffffffffff1602179055505b50565b612f4460018260000154612f4f90919063ffffffff16565b816000018190555050565b6000612f9183836040518060400160405280601e81526020017f536166654d6174683a207375627472616374696f6e206f766572666c6f770000815250612f99565b905092915050565b6000838311158290613046576040517f08c379a00000000000000000000000000000000000000000000000000000000081526004018080602001828103825283818151815260200191508051906020019080838360005b8381101561300b578082015181840152602081019050612ff0565b50505050905090810190601f1680156130385780820380516001836020036101000a031916815260200191505b509250505060405180910390fd5b5060008385039050809150509392505050565b8154818355818111156130805781836000526020600020918201910161307f9190613085565b5b505050565b6130a791905b808211156130a357600081600090555060010161308b565b5090565b9056fe596f75206d75737420686176652055525520746f6b656e20746f20636f6d706f756e644b495031374d657461646174613a2055524920717565727920666f72206e6f6e6578697374656e7420746f6b656e4b495031373a207472616e7366657220746f20746865207a65726f20616464726573734b49503137456e756d657261626c653a206f776e657220696e646578206f7574206f6620626f756e647343616e206e6f7420636f6d706f756e6420776974682053616d6520776561706f6e4b495031373a206f776e657220717565727920666f72206e6f6e6578697374656e7420746f6b656e4b495031373a207472616e736665722063616c6c6572206973206e6f74206f776e6572206e6f7220617070726f7665644b495031373a207472616e7366657220746f206e6f6e204b49503137526563656976657220696d706c656d656e7465724b495031373a2062616c616e636520717565727920666f7220746865207a65726f20616464726573734b495031373a207472616e73666572206f6620746f6b656e2074686174206973206e6f74206f776e4b49503137456e756d657261626c653a20676c6f62616c20696e646578206f7574206f6620626f756e64734b495031373a20617070726f76656420717565727920666f72206e6f6e6578697374656e7420746f6b656e4b495031373a20617070726f76652063616c6c6572206973206e6f74206f776e6572206e6f7220617070726f76656420666f7220616c6c4b495031373a206f70657261746f7220717565727920666f72206e6f6e6578697374656e7420746f6b656ea165627a7a72305820d61de7ff1e485465cc639b06854b1918733c79ec0db9c9b16c09b0a07cdf58f50029",
  "source": "// SPDX-License-Identifier: MIT\npragma solidity >=0.4.22 <0.9.0;\n\nimport \"@klaytn/contracts/token/KIP17/KIP17Full.sol\";\nimport \"@klaytn/contracts/drafts/Counters.sol\";\nimport \"./Token.sol\";\n\ncontract NFT is KIP17Full{\n  using Counters for Counters.Counter;\n  Counters.Counter private _Ids;\n\n    uint256 weaponDigits = 16;\n    uint256 weaponModulus = 10 ** weaponDigits;\n    \n    uint256 [9] public percentage; //  \n    uint256 [9] public tokenToCompound; //   \n    uint256 [9] public tokenToFixDurability; //    \n    uint256 [9] public tokenToFixEnchant; //     \n    \n\n    Token token;\n\n    struct Weapon {\n        uint256 weaponType; // dna \n        uint256 weaponLevel; // \n        uint256 durability; //  - staking\n        uint256 enchant; //  - compound\n    }\n\n    Weapon[] public weapons;\n\n    event NewWeapon(uint256 weaponId, uint256 weaponType, uint256 weaponLevel);\n\n\n    constructor(address _token) public KIP17Full(\"DND-WEAPON\", \"WEAPON\"){\n        percentage[0] = 99;\n        percentage[1] = 79;\n        percentage[2] = 69;\n        percentage[3] = 49;\n        percentage[4] = 39;\n        percentage[5] = 29;\n        percentage[6] = 19;\n        percentage[7] = 9;\n        percentage[8] = 4;\n\n        tokenToCompound[0] = 50;\n        tokenToCompound[1] = 100;\n        tokenToCompound[2] = 200;\n        tokenToCompound[3] = 300;\n        tokenToCompound[4] = 500;\n        tokenToCompound[5] = 700;\n        tokenToCompound[6] = 1000;\n        tokenToCompound[7] = 3000;\n        tokenToCompound[8] = 5000;\n\n        // ,       \n        // tokenToFixDurability[0~8] = ??;\n        // tokenToFixEnchant[0~8] = ??;\n\n        token = Token(_token);\n        \n    }\n\n    function mint (address recipient, uint256 _weaponLevel) public returns (uint256) {\n    _Ids.increment();\n\n    uint256 newItemId = _Ids.current();\n    _mint(recipient, newItemId);\n\n    createRandomWeapon(_weaponLevel);\n\n    return newItemId;\n  }\n\n    //    \n    function _createWeapon(uint256 _weaponType, uint256 _weaponLevel) internal {\n         _Ids.increment();\n\n        uint256 id = weapons.push(Weapon(_weaponType, _weaponLevel, 3, 3)) - 1;\n        uint256 newItemId = _Ids.current();\n        \n        _mint(msg.sender, newItemId);\n\n        emit NewWeapon(id, _weaponType, _weaponLevel);\n    }\n\n    //    16  \n    function _generateRandomType() private view returns (uint256) {\n      //      . \n        uint256 randomNumFromBlock = block.timestamp; \n        uint256 randomNum = uint256(keccak256(abi.encodePacked(randomNumFromBlock)));\n        return randomNum % weaponModulus;\n    }\n\n    function createRandomWeapon(uint256 _weaponLevel) public {\n        uint256 randomType = _generateRandomType();\n        randomType = randomType - randomType % 100; // \n        uint256 id = weapons.push(Weapon(randomType, _weaponLevel, 3, 3)) - 1;\n\n        emit NewWeapon(id, randomType, _weaponLevel);\n    }\n\n    //    2  \n    function createRandomNum() public view returns(uint256) {\n        uint256 randomNumFromBlock = block.timestamp;\n        uint256 randomNum = uint256(keccak256(abi.encodePacked(randomNumFromBlock)));\n\n        return randomNum % 100;\n    }\n\n    function compoundWeapon(uint256 _weapon1Id, uint256 _weapon2Id) public { // targetType  weaponId 2\n    //  2   \n    require(msg.sender == ownerOf(_weapon1Id));\n    require(msg.sender == ownerOf(_weapon2Id));\n\n    //  id nft \n    require(_weapon1Id != _weapon2Id , \"Can not compound with Same weapon\");\n    \n    //     \n    Weapon storage myWeapon1 = weapons[_weapon1Id - 1];\n    Weapon storage myWeapon2 = weapons[_weapon2Id - 1];\n    require(myWeapon1.weaponLevel == myWeapon2.weaponLevel, \"Compound Same weapon level\");\n\n    //   enchant( ) \n    require(myWeapon1.enchant != 0 && myWeapon2.enchant != 0, \"Weapon compound needs enchant\");\n    \n    //       \n    uint256 spendToken = tokenToCompound[myWeapon1.weaponLevel - 1];\n    require(spendToken <= token.balanceOf(msg.sender), \"You must have URU token to compound\");\n\n    //         \n    // weapon1       ,  \n    uint256 compoundPercentage = percentage[myWeapon1.weaponLevel - 1];\n\n    uint256 newType = (myWeapon1.weaponType + myWeapon2.weaponType + _generateRandomType()) / 2 % weaponModulus;\n\n    //  enchant( ) 1 \n    myWeapon1.enchant = myWeapon1.enchant - 1;\n    myWeapon2.enchant = myWeapon2.enchant - 1;\n\n    //  msg.sender  (burn)\n    token.burn(msg.sender, spendToken);\n    \n\n    //    ,   \n    if(createRandomNum() <= compoundPercentage) {\n        _createWeapon(newType, myWeapon1.weaponLevel + 1);\n    } else {\n        _createWeapon(newType, myWeapon1.weaponLevel);\n    }\n    \n    }\n\n    //     (getter)\n    function getWeaponLevel (uint256 _weaponId) public view returns(uint256) {\n        return weapons[_weaponId - 1].weaponLevel;\n    }\n\n    // staking  \n    function stakingWeapon (uint256 _weaponId) public {\n        //    \n        require(msg.sender == ownerOf(_weaponId), \"You have to staking your weapon\");\n\n        weapons[_weaponId - 1].durability = weapons[_weaponId - 1].durability - 1;\n    }\n\n    // // staking  \n    // function fixWeaponDurability (uint256 _weaponId) public {\n    //     //    \n    //     require(msg.sender == ownerOf(_weaponId));\n\n    //     //     \n    //     uint256 spendToken = tokenToFixDurability[myWeapon1.weaponLevel - 1];\n    //     require(spendToken <= token.balanceOf(msg.sender), \"You must have URU token to fix durability\");\n        \n        \n    //     weapons[_weaponId - 1].durability = 3;\n\n    //     token.burn(msg.sender, spendToken);\n    // }\n\n\n    // // enchant  \n    // function fixWeaponEnchant (uint256 _weaponId) public {\n    //     //    \n    //     require(msg.sender == ownerOf(_weaponId));\n        \n    //     //     \n    //     uint256 spendToken = tokenToFixEnchant[myWeapon1.weaponLevel - 1];\n    //     require(spendToken <= token.balanceOf(msg.sender), \"You must have URU token to fix enchant\");\n        \n        \n    //     weapons[_weaponId - 1].enchant = 3;\n\n    //     token.burn(msg.sender, spendToken);\n    // }\n\n    //  msg.sender      (getter)\n\n}",
  "sourcePath": "/Users/baekdonghyun/Desktop/beb-03-DND/contract/contracts/NFT.sol",
  "compiler": {
    "name": "solc",
    "version": "0.5.6+commit.b259423e.Emscripten.clang"
  },
  "schemaVersion": "3.4.5",
  "updatedAt": "2022-05-20T00:38:49.976Z",
  "networkType": "ethereum",
  "devdoc": {
    "methods": {
      "approve(address,uint256)": {
        "details": "Approves another address to transfer the given token ID The zero address indicates there is no approved address. There can only be one approved address per token at a given time. Can only be called by the token owner or an approved operator.",
        "params": {
          "to": "address to be approved for the given token ID",
          "tokenId": "uint256 ID of the token to be approved"
        }
      },
      "balanceOf(address)": {
        "details": "Gets the balance of the specified address.",
        "params": {
          "owner": "address to query the balance of"
        },
        "return": "uint256 representing the amount owned by the passed address"
      },
      "getApproved(uint256)": {
        "details": "Gets the approved address for a token ID, or zero if no address set Reverts if the token ID does not exist.",
        "params": {
          "tokenId": "uint256 ID of the token to query the approval of"
        },
        "return": "address currently approved for the given token ID"
      },
      "isApprovedForAll(address,address)": {
        "details": "Tells whether an operator is approved by a given owner.",
        "params": {
          "operator": "operator address which you want to query the approval of",
          "owner": "owner address which you want to query the approval of"
        },
        "return": "bool whether the given operator is approved by the given owner"
      },
      "name()": {
        "details": "Gets the token name.",
        "return": "string representing the token name"
      },
      "ownerOf(uint256)": {
        "details": "Gets the owner of the specified token ID.",
        "params": {
          "tokenId": "uint256 ID of the token to query the owner of"
        },
        "return": "address currently marked as the owner of the given token ID"
      },
      "safeTransferFrom(address,address,uint256)": {
        "details": "Safely transfers the ownership of a given token ID to another address If the target address is a contract, it must implement `onKIP17Received`, which is called upon a safe transfer, and return the magic value `bytes4(keccak256(\"onKIP17Received(address,address,uint256,bytes)\"))`; otherwise, the transfer is reverted. Requires the msg.sender to be the owner, approved, or operator",
        "params": {
          "from": "current owner of the token",
          "to": "address to receive the ownership of the given token ID",
          "tokenId": "uint256 ID of the token to be transferred"
        }
      },
      "safeTransferFrom(address,address,uint256,bytes)": {
        "details": "Safely transfers the ownership of a given token ID to another address If the target address is a contract, it must implement `onKIP17Received`, which is called upon a safe transfer, and return the magic value `bytes4(keccak256(\"onKIP17Received(address,address,uint256,bytes)\"))`; otherwise, the transfer is reverted. Requires the msg.sender to be the owner, approved, or operator",
        "params": {
          "_data": "bytes data to send along with a safe transfer check",
          "from": "current owner of the token",
          "to": "address to receive the ownership of the given token ID",
          "tokenId": "uint256 ID of the token to be transferred"
        }
      },
      "setApprovalForAll(address,bool)": {
        "details": "Sets or unsets the approval of a given operator An operator is allowed to transfer all tokens of the sender on their behalf.",
        "params": {
          "approved": "representing the status of the approval to be set",
          "to": "operator address to set the approval"
        }
      },
      "supportsInterface(bytes4)": {
        "details": "See `IKIP13.supportsInterface`.     * Time complexity O(1), guaranteed to always use less than 30 000 gas."
      },
      "symbol()": {
        "details": "Gets the token symbol.",
        "return": "string representing the token symbol"
      },
      "tokenByIndex(uint256)": {
        "details": "Gets the token ID at a given index of all the tokens in this contract Reverts if the index is greater or equal to the total number of tokens.",
        "params": {
          "index": "uint256 representing the index to be accessed of the tokens list"
        },
        "return": "uint256 token ID at the given index of the tokens list"
      },
      "tokenOfOwnerByIndex(address,uint256)": {
        "details": "Gets the token ID at a given index of the tokens list of the requested owner.",
        "params": {
          "index": "uint256 representing the index to be accessed of the requested tokens list",
          "owner": "address owning the tokens list to be accessed"
        },
        "return": "uint256 token ID at the given index of the tokens list owned by the requested address"
      },
      "tokenURI(uint256)": {
        "details": "Returns an URI for a given token ID. Throws if the token ID does not exist. May return an empty string.",
        "params": {
          "tokenId": "uint256 ID of the token to query"
        }
      },
      "totalSupply()": {
        "details": "Gets the total amount of tokens stored by the contract.",
        "return": "uint256 representing the total amount of tokens"
      },
      "transferFrom(address,address,uint256)": {
        "details": "Transfers the ownership of a given token ID to another address. Usage of this method is discouraged, use `safeTransferFrom` whenever possible. Requires the msg.sender to be the owner, approved, or operator.",
        "params": {
          "from": "current owner of the token",
          "to": "address to receive the ownership of the given token ID",
          "tokenId": "uint256 ID of the token to be transferred"
        }
      }
    }
  },
  "userdoc": {
    "methods": {}
  }
}