{
  "contractName": "NFT_Farming",
  "abi": [
    {
      "constant": true,
      "inputs": [
        {
          "name": "",
          "type": "address"
        }
      ],
      "name": "stakeInfo",
      "outputs": [
        {
          "name": "tokenID",
          "type": "uint256"
        },
        {
          "name": "yieldLockTime",
          "type": "uint256"
        },
        {
          "name": "isStaking",
          "type": "bool"
        }
      ],
      "payable": false,
      "stateMutability": "view",
      "type": "function"
    },
    {
      "inputs": [
        {
          "name": "_NFTaddress",
          "type": "address"
        },
        {
          "name": "_tokenAddress",
          "type": "address"
        },
        {
          "name": "_level",
          "type": "uint256"
        },
        {
          "name": "_coolDownTime",
          "type": "uint256"
        }
      ],
      "payable": false,
      "stateMutability": "nonpayable",
      "type": "constructor"
    },
    {
      "anonymous": false,
      "inputs": [
        {
          "indexed": false,
          "name": "owner",
          "type": "address"
        },
        {
          "indexed": false,
          "name": "tokenId",
          "type": "uint256"
        }
      ],
      "name": "NFTStaked",
      "type": "event"
    },
    {
      "anonymous": false,
      "inputs": [
        {
          "indexed": false,
          "name": "owner",
          "type": "address"
        },
        {
          "indexed": false,
          "name": "tokenId",
          "type": "uint256"
        }
      ],
      "name": "NFTUnstaked",
      "type": "event"
    },
    {
      "anonymous": false,
      "inputs": [
        {
          "indexed": false,
          "name": "to",
          "type": "address"
        },
        {
          "indexed": false,
          "name": "amount",
          "type": "uint256"
        }
      ],
      "name": "YieldWithdraw",
      "type": "event"
    },
    {
      "constant": false,
      "inputs": [
        {
          "name": "_tokenID",
          "type": "uint256"
        }
      ],
      "name": "stake",
      "outputs": [],
      "payable": false,
      "stateMutability": "nonpayable",
      "type": "function"
    },
    {
      "constant": false,
      "inputs": [
        {
          "name": "_tokenID",
          "type": "uint256"
        }
      ],
      "name": "unstake",
      "outputs": [],
      "payable": false,
      "stateMutability": "nonpayable",
      "type": "function"
    },
    {
      "constant": false,
      "inputs": [],
      "name": "withdrawYield",
      "outputs": [],
      "payable": false,
      "stateMutability": "nonpayable",
      "type": "function"
    },
    {
      "constant": true,
      "inputs": [],
      "name": "getStakingTime",
      "outputs": [
        {
          "name": "",
          "type": "uint256"
        }
      ],
      "payable": false,
      "stateMutability": "view",
      "type": "function"
    }
  ],
  "bytecode": "0x608060405234801561001057600080fd5b50604051608080610d048339810180604052608081101561003057600080fd5b810190808051906020019092919080519060200190929190805190602001909291908051906020019092919050505083600260006101000a81548173ffffffffffffffffffffffffffffffffffffffff021916908373ffffffffffffffffffffffffffffffffffffffff16021790555082600160006101000a81548173ffffffffffffffffffffffffffffffffffffffff021916908373ffffffffffffffffffffffffffffffffffffffff160217905550816003819055508060048190555050505050610c02806101026000396000f3fe608060405234801561001057600080fd5b50600436106100575760003560e01c80631601e6411461005c5780632e17de78146100c6578063a694fc3a146100f4578063e507a8a414610122578063f17165271461012c575b600080fd5b61009e6004803603602081101561007257600080fd5b81019080803573ffffffffffffffffffffffffffffffffffffffff16906020019092919050505061014a565b6040518084815260200183815260200182151515158152602001935050505060405180910390f35b6100f2600480360360208110156100dc57600080fd5b8101908080359060200190929190505050610181565b005b6101206004803603602081101561010a57600080fd5b81019080803590602001909291905050506103ff565b005b61012a6107c5565b005b610134610a9c565b6040518082815260200191505060405180910390f35b60006020528060005260406000206000915090508060000154908060010154908060020160009054906101000a900460ff16905083565b806000803373ffffffffffffffffffffffffffffffffffffffff1673ffffffffffffffffffffffffffffffffffffffff1681526020019081526020016000206000015414610237576040517f08c379a00000000000000000000000000000000000000000000000000000000081526004018080602001828103825260108152602001807f6e6f7420796f7572206f776e204e46540000000000000000000000000000000081525060200191505060405180910390fd5b600260009054906101000a900473ffffffffffffffffffffffffffffffffffffffff1673ffffffffffffffffffffffffffffffffffffffff166323b872dd3033846040518463ffffffff1660e01b8152600401808473ffffffffffffffffffffffffffffffffffffffff1673ffffffffffffffffffffffffffffffffffffffff1681526020018373ffffffffffffffffffffffffffffffffffffffff1673ffffffffffffffffffffffffffffffffffffffff1681526020018281526020019350505050600060405180830381600087803b15801561031457600080fd5b505af1158015610328573d6000803e3d6000fd5b505050507f963148346e3c93bb3eb4b4c296e2e13321ff22bf1118c91686cb1bfe4adcd9183382604051808373ffffffffffffffffffffffffffffffffffffffff1673ffffffffffffffffffffffffffffffffffffffff1681526020018281526020019250505060405180910390a16000803373ffffffffffffffffffffffffffffffffffffffff1673ffffffffffffffffffffffffffffffffffffffff16815260200190815260200160002060008082016000905560018201600090556002820160006101000a81549060ff0219169055505050565b600354600260009054906101000a900473ffffffffffffffffffffffffffffffffffffffff1673ffffffffffffffffffffffffffffffffffffffff166310712130836040518263ffffffff1660e01b81526004018082815260200191505060206040518083038186803b15801561047557600080fd5b505afa158015610489573d6000803e3d6000fd5b505050506040513d602081101561049f57600080fd5b810190808051906020019092919050505014610506576040517f08c379a0000000000000000000000000000000000000000000000000000000008152600401808060200182810382526025815260200180610b916025913960400191505060405180910390fd5b600115156000803373ffffffffffffffffffffffffffffffffffffffff1673ffffffffffffffffffffffffffffffffffffffff16815260200190815260200160002060020160009054906101000a900460ff16151514156105cf576040517f08c379a000000000000000000000000000000000000000000000000000000000815260040180806020018281038252601b8152602001807f796f7520616c72656164792068756e74696e67206d6f6e73746572000000000081525060200191505060405180910390fd5b600260009054906101000a900473ffffffffffffffffffffffffffffffffffffffff1673ffffffffffffffffffffffffffffffffffffffff166323b872dd3330846040518463ffffffff1660e01b8152600401808473ffffffffffffffffffffffffffffffffffffffff1673ffffffffffffffffffffffffffffffffffffffff1681526020018373ffffffffffffffffffffffffffffffffffffffff1673ffffffffffffffffffffffffffffffffffffffff1681526020018281526020019350505050600060405180830381600087803b1580156106ac57600080fd5b505af11580156106c0573d6000803e3d6000fd5b505050507f0cda5cf38f6592672c7b4a22ff3d50874d1913629bd5ffedc27b7b40503d60fd3382604051808373ffffffffffffffffffffffffffffffffffffffff1673ffffffffffffffffffffffffffffffffffffffff1681526020018281526020019250505060405180910390a16040518060600160405280828152602001428152602001600115158152506000803373ffffffffffffffffffffffffffffffffffffffff1673ffffffffffffffffffffffffffffffffffffffff168152602001908152602001600020600082015181600001556020820151816001015560408201518160020160006101000a81548160ff02191690831515021790555090505050565b6004546107d0610a9c565b11610826576040517f08c379a0000000000000000000000000000000000000000000000000000000008152600401808060200182810382526023815260200180610b6e6023913960400191505060405180910390fd5b600115156000803373ffffffffffffffffffffffffffffffffffffffff1673ffffffffffffffffffffffffffffffffffffffff16815260200190815260200160002060020160009054906101000a900460ff161515146108ee576040517f08c379a00000000000000000000000000000000000000000000000000000000081526004018080602001828103825260178152602001807f7468657265206973206e6f207374616b696e67206e667400000000000000000081525060200191505060405180910390fd5b600160009054906101000a900473ffffffffffffffffffffffffffffffffffffffff1673ffffffffffffffffffffffffffffffffffffffff166340c10f193361094b68056bc75e2d63100000600354610ae790919063ffffffff16565b6040518363ffffffff1660e01b8152600401808373ffffffffffffffffffffffffffffffffffffffff1673ffffffffffffffffffffffffffffffffffffffff16815260200182815260200192505050600060405180830381600087803b1580156109b457600080fd5b505af11580156109c8573d6000803e3d6000fd5b50505050426000803373ffffffffffffffffffffffffffffffffffffffff1673ffffffffffffffffffffffffffffffffffffffff168152602001908152602001600020600101819055507f92044e3943309ee5950e21bc7421d02c1df75f0df33c0d97c1143687b49a4c5733610a5268056bc75e2d63100000600354610ae790919063ffffffff16565b604051808373ffffffffffffffffffffffffffffffffffffffff1673ffffffffffffffffffffffffffffffffffffffff1681526020018281526020019250505060405180910390a1565b60008060003373ffffffffffffffffffffffffffffffffffffffff1673ffffffffffffffffffffffffffffffffffffffff168152602001908152602001600020600101544203905090565b600080831415610afa5760009050610b67565b6000828402905082848281610b0b57fe5b0414610b62576040517f08c379a0000000000000000000000000000000000000000000000000000000008152600401808060200182810382526021815260200180610bb66021913960400191505060405180910390fd5b809150505b9291505056fe77697468647261776c2063616e20626520616674657220636f6f6c646f776e74696d65776561706f6e20616e642064756e67656f6e206c6576656c20646f206e6f74206d61746368536166654d6174683a206d756c7469706c69636174696f6e206f766572666c6f77a165627a7a7230582031f325d92fe0c5377e22c876386f44b7a5a9712f306d984b32b1b7bcf3941eb80029",
  "source": "// // SPDX-License-Identifier: MIT\npragma solidity ^0.5.6;\n\nimport \"@klaytn/contracts/token/KIP17/KIP17.sol\";\nimport \"@klaytn/contracts/math/SafeMath.sol\";\nimport \"./Token.sol\";\nimport \"./NFT.sol\";\n\ncontract NFT_Farming {\n\n    using SafeMath for uint256;\n\n    // 각 주소의 스테이킹 정보를 저장\n    struct Stake {\n        uint256 tokenID;\n        uint256 yieldLockTime;\n        bool isStaking;\n    }\n\n    mapping(address => Stake) public stakeInfo;\n\n    Token token;\n    NFT nft;\n    uint256 level;\n    uint256 coolDownTime;\n\n    event NFTStaked(address owner, uint256 tokenId);\n    event NFTUnstaked(address owner, uint256 tokenId);\n    event YieldWithdraw(address to, uint256 amount);\n\n    constructor (NFT _NFTaddress, Token _tokenAddress, uint256 _level, uint256 _coolDownTime) public {\n        nft = _NFTaddress; // NFT 컨트랙트 주소\n        token = _tokenAddress; // URU 토큰 컨트랙트 주소\n        level = _level; // 보상수준을 결정하는 레벨\n        coolDownTime = _coolDownTime; // 한 번 클레임 한 후 다음 클레임까지 쿨다운 타임\n    }\n\n    function stake (uint256 _tokenID) public {\n        // 레벨에 맞는 던전 입장\n        require(nft.getWeaponLevel(_tokenID) == level, \"weapon and dungeon level do not match\");\n        // 중복 사냥 금지\n        require(stakeInfo[msg.sender].isStaking != true, \"you already hunting monster\");\n\n        // stake 함수 호출 전 approve 필요!\\\n        KIP17(nft).transferFrom(msg.sender, address(this), _tokenID);\n        emit NFTStaked(msg.sender, _tokenID);\n\n        stakeInfo[msg.sender] = Stake({\n            tokenID: _tokenID,\n            yieldLockTime: block.timestamp,\n            isStaking: true\n        });\n    }\n\n    function unstake (uint256 _tokenID) public {\n        // 본인 소유의 NFT만 인출 가능\n        require(stakeInfo[msg.sender].tokenID == _tokenID, \"not your own NFT\");\n\n        KIP17(nft).transferFrom(address(this), msg.sender, _tokenID);\n        emit NFTUnstaked(msg.sender, _tokenID);\n\n        delete stakeInfo[msg.sender];\n    }   \n\n    function withdrawYield () public {\n        require(getStakingTime() > coolDownTime, \"withdrawl can be after cooldowntime\"); \n        require(stakeInfo[msg.sender].isStaking == true, \"there is no staking nft\");\n\n        token.mint(msg.sender, level.mul(10**20));\n        stakeInfo[msg.sender].yieldLockTime = block.timestamp;\n        emit YieldWithdraw(msg.sender, level.mul(10**20));\n    }\n\n    // assist functions\n\n    function getStakingTime() public view returns(uint256) {\n        return block.timestamp - stakeInfo[msg.sender].yieldLockTime;\n    } \n}",
  "sourcePath": "/Users/baekdonghyun/Desktop/beb-03-DND/contract/contracts/NFT_Farming.sol",
  "compiler": {
    "name": "solc",
    "version": "0.5.6+commit.b259423e.Emscripten.clang"
  },
  "schemaVersion": "3.4.5",
  "updatedAt": "2022-05-23T12:41:23.346Z",
  "networkType": "ethereum",
  "devdoc": {
    "methods": {}
  },
  "userdoc": {
    "methods": {}
  }
}