{
  "contractName": "NFT_Factory",
  "abi": [
    {
      "constant": true,
      "inputs": [],
      "name": "uru",
      "outputs": [
        {
          "name": "",
          "type": "address"
        }
      ],
      "payable": false,
      "stateMutability": "view",
      "type": "function"
    },
    {
      "constant": false,
      "inputs": [
        {
          "name": "_NFTAddress",
          "type": "address"
        },
        {
          "name": "_tokenAddress",
          "type": "address"
        },
        {
          "name": "_level",
          "type": "uint256"
        }
      ],
      "name": "createNFTFarm",
      "outputs": [
        {
          "name": "",
          "type": "address"
        }
      ],
      "payable": false,
      "stateMutability": "nonpayable",
      "type": "function"
    }
  ],
  "bytecode": "0x608060405234801561001057600080fd5b50610ef1806100206000396000f3fe608060405234801561001057600080fd5b50600436106100365760003560e01c8063103c07dc1461003b578063cab2aa0514610085575b600080fd5b610043610133565b604051808273ffffffffffffffffffffffffffffffffffffffff1673ffffffffffffffffffffffffffffffffffffffff16815260200191505060405180910390f35b6100f16004803603606081101561009b57600080fd5b81019080803573ffffffffffffffffffffffffffffffffffffffff169060200190929190803573ffffffffffffffffffffffffffffffffffffffff16906020019092919080359060200190929190505050610158565b604051808273ffffffffffffffffffffffffffffffffffffffff1673ffffffffffffffffffffffffffffffffffffffff16815260200191505060405180910390f35b6000809054906101000a900473ffffffffffffffffffffffffffffffffffffffff1681565b6000826000806101000a81548173ffffffffffffffffffffffffffffffffffffffff021916908373ffffffffffffffffffffffffffffffffffffffff160217905550600073ffffffffffffffffffffffffffffffffffffffff168473ffffffffffffffffffffffffffffffffffffffff16141561023d576040517f08c379a00000000000000000000000000000000000000000000000000000000081526004018080602001828103825260138152602001807f696e76616c6964204e465420616464726573730000000000000000000000000081525060200191505060405180910390fd5b6000846000809054906101000a900473ffffffffffffffffffffffffffffffffffffffff168460405161026f90610309565b808473ffffffffffffffffffffffffffffffffffffffff1673ffffffffffffffffffffffffffffffffffffffff1681526020018373ffffffffffffffffffffffffffffffffffffffff1673ffffffffffffffffffffffffffffffffffffffff1681526020018281526020019350505050604051809103906000f0801580156102fb573d6000803e3d6000fd5b509050809150509392505050565b610baf806103178339019056fe608060405234801561001057600080fd5b50604051606080610baf8339810180604052606081101561003057600080fd5b81019080805190602001909291908051906020019092919080519060200190929190505050826000806101000a81548173ffffffffffffffffffffffffffffffffffffffff021916908373ffffffffffffffffffffffffffffffffffffffff16021790555081600160006101000a81548173ffffffffffffffffffffffffffffffffffffffff021916908373ffffffffffffffffffffffffffffffffffffffff16021790555080600281905550505050610ac0806100ef6000396000f3fe608060405234801561001057600080fd5b50600436106100575760003560e01c80631601e6411461005c5780632e17de78146100c6578063a694fc3a146100f4578063e507a8a414610122578063f17165271461012c575b600080fd5b61009e6004803603602081101561007257600080fd5b81019080803573ffffffffffffffffffffffffffffffffffffffff16906020019092919050505061014a565b6040518084815260200183815260200182151515158152602001935050505060405180910390f35b6100f2600480360360208110156100dc57600080fd5b8101908080359060200190929190505050610181565b005b6101206004803603602081101561010a57600080fd5b8101908080359060200190929190505050610400565b005b61012a6106c0565b005b610134610978565b6040518082815260200191505060405180910390f35b60036020528060005260406000206000915090508060000154908060010154908060020160009054906101000a900460ff16905083565b80600360003373ffffffffffffffffffffffffffffffffffffffff1673ffffffffffffffffffffffffffffffffffffffff1681526020019081526020016000206000015414610238576040517f08c379a00000000000000000000000000000000000000000000000000000000081526004018080602001828103825260108152602001807f6e6f7420796f7572206f776e204e46540000000000000000000000000000000081525060200191505060405180910390fd5b6000809054906101000a900473ffffffffffffffffffffffffffffffffffffffff1673ffffffffffffffffffffffffffffffffffffffff166323b872dd3033846040518463ffffffff1660e01b8152600401808473ffffffffffffffffffffffffffffffffffffffff1673ffffffffffffffffffffffffffffffffffffffff1681526020018373ffffffffffffffffffffffffffffffffffffffff1673ffffffffffffffffffffffffffffffffffffffff1681526020018281526020019350505050600060405180830381600087803b15801561031457600080fd5b505af1158015610328573d6000803e3d6000fd5b505050507f963148346e3c93bb3eb4b4c296e2e13321ff22bf1118c91686cb1bfe4adcd9183382604051808373ffffffffffffffffffffffffffffffffffffffff1673ffffffffffffffffffffffffffffffffffffffff1681526020018281526020019250505060405180910390a1600360003373ffffffffffffffffffffffffffffffffffffffff1673ffffffffffffffffffffffffffffffffffffffff16815260200190815260200160002060008082016000905560018201600090556002820160006101000a81549060ff0219169055505050565b60011515600360003373ffffffffffffffffffffffffffffffffffffffff1673ffffffffffffffffffffffffffffffffffffffff16815260200190815260200160002060020160009054906101000a900460ff16151514156104ca576040517f08c379a000000000000000000000000000000000000000000000000000000000815260040180806020018281038252601b8152602001807f796f7520616c72656164792068756e74696e67206d6f6e73746572000000000081525060200191505060405180910390fd5b6000809054906101000a900473ffffffffffffffffffffffffffffffffffffffff1673ffffffffffffffffffffffffffffffffffffffff166323b872dd3330846040518463ffffffff1660e01b8152600401808473ffffffffffffffffffffffffffffffffffffffff1673ffffffffffffffffffffffffffffffffffffffff1681526020018373ffffffffffffffffffffffffffffffffffffffff1673ffffffffffffffffffffffffffffffffffffffff1681526020018281526020019350505050600060405180830381600087803b1580156105a657600080fd5b505af11580156105ba573d6000803e3d6000fd5b505050507f0cda5cf38f6592672c7b4a22ff3d50874d1913629bd5ffedc27b7b40503d60fd3382604051808373ffffffffffffffffffffffffffffffffffffffff1673ffffffffffffffffffffffffffffffffffffffff1681526020018281526020019250505060405180910390a1604051806060016040528082815260200142815260200160011515815250600360003373ffffffffffffffffffffffffffffffffffffffff1673ffffffffffffffffffffffffffffffffffffffff168152602001908152602001600020600082015181600001556020820151816001015560408201518160020160006101000a81548160ff02191690831515021790555090505050565b601e6106ca610978565b11610720576040517f08c379a0000000000000000000000000000000000000000000000000000000008152600401808060200182810382526029815260200180610a4b6029913960400191505060405180910390fd5b60011515600360003373ffffffffffffffffffffffffffffffffffffffff1673ffffffffffffffffffffffffffffffffffffffff16815260200190815260200160002060020160009054906101000a900460ff161515146107e9576040517f08c379a00000000000000000000000000000000000000000000000000000000081526004018080602001828103825260178152602001807f7468657265206973206e6f207374616b696e67206e667400000000000000000081525060200191505060405180910390fd5b600160009054906101000a900473ffffffffffffffffffffffffffffffffffffffff1673ffffffffffffffffffffffffffffffffffffffff166340c10f193361083e60646002546109c490919063ffffffff16565b6040518363ffffffff1660e01b8152600401808373ffffffffffffffffffffffffffffffffffffffff1673ffffffffffffffffffffffffffffffffffffffff16815260200182815260200192505050600060405180830381600087803b1580156108a757600080fd5b505af11580156108bb573d6000803e3d6000fd5b5050505042600360003373ffffffffffffffffffffffffffffffffffffffff1673ffffffffffffffffffffffffffffffffffffffff168152602001908152602001600020600101819055507f92044e3943309ee5950e21bc7421d02c1df75f0df33c0d97c1143687b49a4c5733606460025402604051808373ffffffffffffffffffffffffffffffffffffffff1673ffffffffffffffffffffffffffffffffffffffff1681526020018281526020019250505060405180910390a1565b6000600360003373ffffffffffffffffffffffffffffffffffffffff1673ffffffffffffffffffffffffffffffffffffffff168152602001908152602001600020600101544203905090565b6000808314156109d75760009050610a44565b60008284029050828482816109e857fe5b0414610a3f576040517f08c379a0000000000000000000000000000000000000000000000000000000008152600401808060200182810382526021815260200180610a746021913960400191505060405180910390fd5b809150505b9291505056fe77697468647261776c2063616e20626520232320616674657220796f7572206c61737420636c61696d536166654d6174683a206d756c7469706c69636174696f6e206f766572666c6f77a165627a7a723058205345c259cddcaced7f84299ce0be7a0ec611a6b6f5822b0ca84782fcc4058c8a0029a165627a7a723058209bcb090bb65ebdae341b49c99f6325e90cc923f1f881c3c0c4daf4154c4c36ca0029",
  "source": "// SPDX-License-Identifier: MIT\npragma solidity ^0.5.6;\n\nimport \"./NFT_Farming.sol\";\nimport \"./Token.sol\";\n\ncontract NFT_Factory {\n\n    Token public uru;\n\n    function createNFTFarm(address _NFTAddress, Token _tokenAddress, uint256 _level) public returns (address) {\n        \n        uru = _tokenAddress;\n        require(_NFTAddress != address(0), \"invalid NFT address\");\n\n        NFT_Farming nft_farming = new NFT_Farming(_NFTAddress, uru, _level);\n\n        return address(nft_farming);\n    }\n}\n",
  "sourcePath": "/Users/baekdonghyun/Desktop/beb-03-DND/contract/contracts/NFT_Factory.sol",
  "compiler": {
    "name": "solc",
    "version": "0.5.6+commit.b259423e.Emscripten.clang"
  },
  "schemaVersion": "3.4.5",
  "updatedAt": "2022-05-18T14:15:05.710Z",
  "networkType": "ethereum",
  "devdoc": {
    "methods": {}
  },
  "userdoc": {
    "methods": {}
  }
}