{
  "contractName": "NFT_Farming",
  "abi": [
    {
      "constant": true,
      "inputs": [
        {
          "name": "",
          "type": "address"
        }
      ],
      "name": "stakeInfo",
      "outputs": [
        {
          "name": "tokenID",
          "type": "uint256"
        },
        {
          "name": "yieldLockTime",
          "type": "uint256"
        },
        {
          "name": "isStaking",
          "type": "bool"
        }
      ],
      "payable": false,
      "stateMutability": "view",
      "type": "function"
    },
    {
      "inputs": [
        {
          "name": "_NFTaddress",
          "type": "address"
        },
        {
          "name": "_tokenAddress",
          "type": "address"
        },
        {
          "name": "_level",
          "type": "uint256"
        },
        {
          "name": "_coolDownTime",
          "type": "uint256"
        }
      ],
      "payable": false,
      "stateMutability": "nonpayable",
      "type": "constructor"
    },
    {
      "anonymous": false,
      "inputs": [
        {
          "indexed": false,
          "name": "owner",
          "type": "address"
        },
        {
          "indexed": false,
          "name": "tokenId",
          "type": "uint256"
        }
      ],
      "name": "NFTStaked",
      "type": "event"
    },
    {
      "anonymous": false,
      "inputs": [
        {
          "indexed": false,
          "name": "owner",
          "type": "address"
        },
        {
          "indexed": false,
          "name": "tokenId",
          "type": "uint256"
        }
      ],
      "name": "NFTUnstaked",
      "type": "event"
    },
    {
      "anonymous": false,
      "inputs": [
        {
          "indexed": false,
          "name": "to",
          "type": "address"
        },
        {
          "indexed": false,
          "name": "amount",
          "type": "uint256"
        }
      ],
      "name": "YieldWithdraw",
      "type": "event"
    },
    {
      "constant": false,
      "inputs": [
        {
          "name": "_tokenID",
          "type": "uint256"
        }
      ],
      "name": "stake",
      "outputs": [],
      "payable": false,
      "stateMutability": "nonpayable",
      "type": "function"
    },
    {
      "constant": true,
      "inputs": [
        {
          "name": "_tokenID",
          "type": "uint256"
        }
      ],
      "name": "test",
      "outputs": [
        {
          "name": "",
          "type": "string"
        }
      ],
      "payable": false,
      "stateMutability": "view",
      "type": "function"
    },
    {
      "constant": false,
      "inputs": [
        {
          "name": "_tokenID",
          "type": "uint256"
        }
      ],
      "name": "unstake",
      "outputs": [],
      "payable": false,
      "stateMutability": "nonpayable",
      "type": "function"
    },
    {
      "constant": false,
      "inputs": [],
      "name": "withdrawYield",
      "outputs": [],
      "payable": false,
      "stateMutability": "nonpayable",
      "type": "function"
    },
    {
      "constant": true,
      "inputs": [],
      "name": "getStakingTime",
      "outputs": [
        {
          "name": "",
          "type": "uint256"
        }
      ],
      "payable": false,
      "stateMutability": "view",
      "type": "function"
    }
  ],
  "bytecode": "0x608060405234801561001057600080fd5b50604051608080610d8c8339810180604052608081101561003057600080fd5b810190808051906020019092919080519060200190929190805190602001909291908051906020019092919050505083600160006101000a81548173ffffffffffffffffffffffffffffffffffffffff021916908373ffffffffffffffffffffffffffffffffffffffff160217905550826000806101000a81548173ffffffffffffffffffffffffffffffffffffffff021916908373ffffffffffffffffffffffffffffffffffffffff160217905550816002819055508060038190555050505050610c8b806101016000396000f3fe608060405234801561001057600080fd5b50600436106100625760003560e01c80631601e6411461006757806329e99f07146100d15780632e17de7814610178578063a694fc3a146101a6578063e507a8a4146101d4578063f1716527146101de575b600080fd5b6100a96004803603602081101561007d57600080fd5b81019080803573ffffffffffffffffffffffffffffffffffffffff1690602001909291905050506101fc565b6040518084815260200183815260200182151515158152602001935050505060405180910390f35b6100fd600480360360208110156100e757600080fd5b8101908080359060200190929190505050610233565b6040518080602001828103825283818151815260200191508051906020019080838360005b8381101561013d578082015181840152602081019050610122565b50505050905090810190601f16801561016a5780820380516001836020036101000a031916815260200191505b509250505060405180910390f35b6101a46004803603602081101561018e57600080fd5b8101908080359060200190929190505050610340565b005b6101d2600480360360208110156101bc57600080fd5b81019080803590602001909291905050506105c0565b005b6101dc610881565b005b6101e6610b49565b6040518082815260200191505060405180910390f35b60046020528060005260406000206000915090508060000154908060010154908060020160009054906101000a900460ff16905083565b6060600160009054906101000a900473ffffffffffffffffffffffffffffffffffffffff1673ffffffffffffffffffffffffffffffffffffffff1663c87b56dd836040518263ffffffff1660e01b81526004018082815260200191505060006040518083038186803b1580156102a857600080fd5b505afa1580156102bc573d6000803e3d6000fd5b505050506040513d6000823e3d601f19601f8201168201806040525060208110156102e657600080fd5b8101908080516401000000008111156102fe57600080fd5b8281019050602081018481111561031457600080fd5b815185600182028301116401000000008211171561033157600080fd5b50509291905050509050919050565b80600460003373ffffffffffffffffffffffffffffffffffffffff1673ffffffffffffffffffffffffffffffffffffffff16815260200190815260200160002060000154146103f7576040517f08c379a00000000000000000000000000000000000000000000000000000000081526004018080602001828103825260108152602001807f6e6f7420796f7572206f776e204e46540000000000000000000000000000000081525060200191505060405180910390fd5b600160009054906101000a900473ffffffffffffffffffffffffffffffffffffffff1673ffffffffffffffffffffffffffffffffffffffff166323b872dd3033846040518463ffffffff1660e01b8152600401808473ffffffffffffffffffffffffffffffffffffffff1673ffffffffffffffffffffffffffffffffffffffff1681526020018373ffffffffffffffffffffffffffffffffffffffff1673ffffffffffffffffffffffffffffffffffffffff1681526020018281526020019350505050600060405180830381600087803b1580156104d457600080fd5b505af11580156104e8573d6000803e3d6000fd5b505050507f963148346e3c93bb3eb4b4c296e2e13321ff22bf1118c91686cb1bfe4adcd9183382604051808373ffffffffffffffffffffffffffffffffffffffff1673ffffffffffffffffffffffffffffffffffffffff1681526020018281526020019250505060405180910390a1600460003373ffffffffffffffffffffffffffffffffffffffff1673ffffffffffffffffffffffffffffffffffffffff16815260200190815260200160002060008082016000905560018201600090556002820160006101000a81549060ff0219169055505050565b60011515600460003373ffffffffffffffffffffffffffffffffffffffff1673ffffffffffffffffffffffffffffffffffffffff16815260200190815260200160002060020160009054906101000a900460ff161515141561068a576040517f08c379a000000000000000000000000000000000000000000000000000000000815260040180806020018281038252601b8152602001807f796f7520616c72656164792068756e74696e67206d6f6e73746572000000000081525060200191505060405180910390fd5b600160009054906101000a900473ffffffffffffffffffffffffffffffffffffffff1673ffffffffffffffffffffffffffffffffffffffff166323b872dd3330846040518463ffffffff1660e01b8152600401808473ffffffffffffffffffffffffffffffffffffffff1673ffffffffffffffffffffffffffffffffffffffff1681526020018373ffffffffffffffffffffffffffffffffffffffff1673ffffffffffffffffffffffffffffffffffffffff1681526020018281526020019350505050600060405180830381600087803b15801561076757600080fd5b505af115801561077b573d6000803e3d6000fd5b505050507f0cda5cf38f6592672c7b4a22ff3d50874d1913629bd5ffedc27b7b40503d60fd3382604051808373ffffffffffffffffffffffffffffffffffffffff1673ffffffffffffffffffffffffffffffffffffffff1681526020018281526020019250505060405180910390a1604051806060016040528082815260200142815260200160011515815250600460003373ffffffffffffffffffffffffffffffffffffffff1673ffffffffffffffffffffffffffffffffffffffff168152602001908152602001600020600082015181600001556020820151816001015560408201518160020160006101000a81548160ff02191690831515021790555090505050565b60035461088c610b49565b116108e2576040517f08c379a0000000000000000000000000000000000000000000000000000000008152600401808060200182810382526023815260200180610c1c6023913960400191505060405180910390fd5b60011515600460003373ffffffffffffffffffffffffffffffffffffffff1673ffffffffffffffffffffffffffffffffffffffff16815260200190815260200160002060020160009054906101000a900460ff161515146109ab576040517f08c379a00000000000000000000000000000000000000000000000000000000081526004018080602001828103825260178152602001807f7468657265206973206e6f207374616b696e67206e667400000000000000000081525060200191505060405180910390fd5b6000809054906101000a900473ffffffffffffffffffffffffffffffffffffffff1673ffffffffffffffffffffffffffffffffffffffff166340c10f19336109ff6064600254610b9590919063ffffffff16565b6040518363ffffffff1660e01b8152600401808373ffffffffffffffffffffffffffffffffffffffff1673ffffffffffffffffffffffffffffffffffffffff16815260200182815260200192505050600060405180830381600087803b158015610a6857600080fd5b505af1158015610a7c573d6000803e3d6000fd5b5050505042600460003373ffffffffffffffffffffffffffffffffffffffff1673ffffffffffffffffffffffffffffffffffffffff168152602001908152602001600020600101819055507f92044e3943309ee5950e21bc7421d02c1df75f0df33c0d97c1143687b49a4c5733610aff6064600254610b9590919063ffffffff16565b604051808373ffffffffffffffffffffffffffffffffffffffff1673ffffffffffffffffffffffffffffffffffffffff1681526020018281526020019250505060405180910390a1565b6000600460003373ffffffffffffffffffffffffffffffffffffffff1673ffffffffffffffffffffffffffffffffffffffff168152602001908152602001600020600101544203905090565b600080831415610ba85760009050610c15565b6000828402905082848281610bb957fe5b0414610c10576040517f08c379a0000000000000000000000000000000000000000000000000000000008152600401808060200182810382526021815260200180610c3f6021913960400191505060405180910390fd5b809150505b9291505056fe77697468647261776c2063616e20626520616674657220636f6f6c646f776e74696d65536166654d6174683a206d756c7469706c69636174696f6e206f766572666c6f77a165627a7a72305820d691450758e07009dd89aeae33a34aab89556da461793aa1c6d243860287bc070029",
  "source": "// // SPDX-License-Identifier: MIT\npragma solidity ^0.5.6;\n\nimport \"@klaytn/contracts/token/KIP17/KIP17.sol\";\nimport \"@klaytn/contracts/token/KIP17/KIP17Metadata.sol\";\nimport \"@klaytn/contracts/math/SafeMath.sol\";\nimport \"./Token.sol\";\n\ncontract NFT_Farming {\n\n    using SafeMath for uint256;\n\n    struct Stake {\n        uint256 tokenID;\n        uint256 yieldLockTime;\n        bool isStaking;\n    }\n\n    Token token;\n    address nft;\n    uint256 level;\n    uint256 coolDownTime;\n\n    event NFTStaked(address owner, uint256 tokenId);\n    event NFTUnstaked(address owner, uint256 tokenId);\n    event YieldWithdraw(address to, uint256 amount);\n\n    mapping(address => Stake) public stakeInfo;\n\n    constructor (address _NFTaddress, Token _tokenAddress, uint256 _level, uint256 _coolDownTime) public {\n        nft = _NFTaddress; // nft 배포 컨트랙트 주소를 받아옴\n        token = _tokenAddress; // 보상 (uru 토큰)\n        level = _level; // 보상수준을 결정하는 레벨\n        coolDownTime = _coolDownTime; // 한 번 클레임 한 후 다음 클레임까지 쿨다운 타임\n    }\n\n    function stake (uint256 _tokenID) public {\n        \n        // 메타데이터 가져와서 비교 require()\n\n        // 중복 방지\n        require(stakeInfo[msg.sender].isStaking != true, \"you already hunting monster\");\n\n        // 먼저 approve 필요\n        KIP17(nft).transferFrom(msg.sender, address(this), _tokenID);\n        emit NFTStaked(msg.sender, _tokenID);\n\n        stakeInfo[msg.sender] = Stake({\n            tokenID: _tokenID,\n            yieldLockTime: block.timestamp,\n            isStaking: true\n        });\n    }\n\n    function test (uint _tokenID) public view returns (string memory) {\n        return KIP17Metadata(nft).tokenURI(_tokenID);\n    }\n\n    function unstake (uint256 _tokenID) public {\n        require(stakeInfo[msg.sender].tokenID == _tokenID, \"not your own NFT\");\n\n        KIP17(nft).transferFrom(address(this), msg.sender, _tokenID);\n        emit NFTUnstaked(msg.sender, _tokenID);\n\n        delete stakeInfo[msg.sender];\n    }   \n\n    function withdrawYield () public {\n        require(getStakingTime() > coolDownTime, \"withdrawl can be after cooldowntime\"); \n        require(stakeInfo[msg.sender].isStaking == true, \"there is no staking nft\");\n\n        token.mint(msg.sender, level.mul(100));\n        stakeInfo[msg.sender].yieldLockTime = block.timestamp;\n        emit YieldWithdraw(msg.sender, level.mul(100));\n    }\n\n    // assist functions\n\n    function getStakingTime() public view returns(uint256) {\n        return block.timestamp - stakeInfo[msg.sender].yieldLockTime;\n    } \n}",
  "sourcePath": "/Users/baekdonghyun/Desktop/beb-03-DND/contract/contracts/NFT_Farming.sol",
  "compiler": {
    "name": "solc",
    "version": "0.5.6+commit.b259423e.Emscripten.clang"
  },
  "schemaVersion": "3.4.5",
  "updatedAt": "2022-05-19T07:26:47.993Z",
  "networkType": "ethereum",
  "devdoc": {
    "methods": {}
  },
  "userdoc": {
    "methods": {}
  }
}