{
  "contractName": "NFT_Factory",
  "abi": [
    {
      "constant": true,
      "inputs": [],
      "name": "uru",
      "outputs": [
        {
          "name": "",
          "type": "address"
        }
      ],
      "payable": false,
      "stateMutability": "view",
      "type": "function"
    },
    {
      "constant": true,
      "inputs": [],
      "name": "nft",
      "outputs": [
        {
          "name": "",
          "type": "address"
        }
      ],
      "payable": false,
      "stateMutability": "view",
      "type": "function"
    },
    {
      "constant": true,
      "inputs": [
        {
          "name": "",
          "type": "uint256"
        }
      ],
      "name": "monsters",
      "outputs": [
        {
          "name": "NFTAddress",
          "type": "address"
        },
        {
          "name": "name",
          "type": "string"
        },
        {
          "name": "level",
          "type": "uint256"
        },
        {
          "name": "coolDownTime",
          "type": "uint256"
        },
        {
          "name": "reward",
          "type": "uint256"
        }
      ],
      "payable": false,
      "stateMutability": "view",
      "type": "function"
    },
    {
      "constant": false,
      "inputs": [
        {
          "name": "_NFTAddress",
          "type": "address"
        },
        {
          "name": "_tokenAddress",
          "type": "address"
        },
        {
          "name": "_level",
          "type": "uint256"
        },
        {
          "name": "_coolDownTime",
          "type": "uint256"
        }
      ],
      "name": "createNFTFarm",
      "outputs": [
        {
          "name": "",
          "type": "address"
        }
      ],
      "payable": false,
      "stateMutability": "nonpayable",
      "type": "function"
    }
  ],
  "bytecode": "0x608060405234801561001057600080fd5b506113cf806100206000396000f3fe608060405234801561001057600080fd5b506004361061004c5760003560e01c8063103c07dc1461005157806347ccca021461009b5780635a729818146100e5578063c0576b731461019d575b600080fd5b61005961028c565b604051808273ffffffffffffffffffffffffffffffffffffffff1673ffffffffffffffffffffffffffffffffffffffff16815260200191505060405180910390f35b6100a36102b2565b604051808273ffffffffffffffffffffffffffffffffffffffff1673ffffffffffffffffffffffffffffffffffffffff16815260200191505060405180910390f35b61015b600480360360808110156100fb57600080fd5b81019080803573ffffffffffffffffffffffffffffffffffffffff169060200190929190803573ffffffffffffffffffffffffffffffffffffffff16906020019092919080359060200190929190803590602001909291905050506102d7565b604051808273ffffffffffffffffffffffffffffffffffffffff1673ffffffffffffffffffffffffffffffffffffffff16815260200191505060405180910390f35b6101c9600480360360208110156101b357600080fd5b8101908080359060200190929190505050610597565b604051808673ffffffffffffffffffffffffffffffffffffffff1673ffffffffffffffffffffffffffffffffffffffff16815260200180602001858152602001848152602001838152602001828103825286818151815260200191508051906020019080838360005b8381101561024d578082015181840152602081019050610232565b50505050905090810190601f16801561027a5780820380516001836020036101000a031916815260200191505b50965050505050505060405180910390f35b600160009054906101000a900473ffffffffffffffffffffffffffffffffffffffff1681565b6000809054906101000a900473ffffffffffffffffffffffffffffffffffffffff1681565b6000846000806101000a81548173ffffffffffffffffffffffffffffffffffffffff021916908373ffffffffffffffffffffffffffffffffffffffff16021790555083600160006101000a81548173ffffffffffffffffffffffffffffffffffffffff021916908373ffffffffffffffffffffffffffffffffffffffff160217905550600073ffffffffffffffffffffffffffffffffffffffff168573ffffffffffffffffffffffffffffffffffffffff1614156103fd576040517f08c379a00000000000000000000000000000000000000000000000000000000081526004018080602001828103825260138152602001807f696e76616c6964204e465420616464726573730000000000000000000000000081525060200191505060405180910390fd5b600073ffffffffffffffffffffffffffffffffffffffff168473ffffffffffffffffffffffffffffffffffffffff1614156104a0576040517f08c379a00000000000000000000000000000000000000000000000000000000081526004018080602001828103825260158152602001807f696e76616c696420746f6b656e2061646472657373000000000000000000000081525060200191505060405180910390fd5b60008060009054906101000a900473ffffffffffffffffffffffffffffffffffffffff16600160009054906101000a900473ffffffffffffffffffffffffffffffffffffffff1685856040516104f590610692565b808573ffffffffffffffffffffffffffffffffffffffff1673ffffffffffffffffffffffffffffffffffffffff1681526020018473ffffffffffffffffffffffffffffffffffffffff1673ffffffffffffffffffffffffffffffffffffffff168152602001838152602001828152602001945050505050604051809103906000f080158015610588573d6000803e3d6000fd5b50905080915050949350505050565b600281815481106105a457fe5b90600052602060002090600502016000915090508060000160009054906101000a900473ffffffffffffffffffffffffffffffffffffffff1690806001018054600181600116156101000203166002900480601f0160208091040260200160405190810160405280929190818152602001828054600181600116156101000203166002900480156106765780601f1061064b57610100808354040283529160200191610676565b820191906000526020600020905b81548152906001019060200180831161065957829003601f168201915b5050505050908060020154908060030154908060040154905085565b610d04806106a08339019056fe608060405234801561001057600080fd5b50604051608080610d048339810180604052608081101561003057600080fd5b810190808051906020019092919080519060200190929190805190602001909291908051906020019092919050505083600260006101000a81548173ffffffffffffffffffffffffffffffffffffffff021916908373ffffffffffffffffffffffffffffffffffffffff16021790555082600160006101000a81548173ffffffffffffffffffffffffffffffffffffffff021916908373ffffffffffffffffffffffffffffffffffffffff160217905550816003819055508060048190555050505050610c02806101026000396000f3fe608060405234801561001057600080fd5b50600436106100575760003560e01c80631601e6411461005c5780632e17de78146100c6578063a694fc3a146100f4578063e507a8a414610122578063f17165271461012c575b600080fd5b61009e6004803603602081101561007257600080fd5b81019080803573ffffffffffffffffffffffffffffffffffffffff16906020019092919050505061014a565b6040518084815260200183815260200182151515158152602001935050505060405180910390f35b6100f2600480360360208110156100dc57600080fd5b8101908080359060200190929190505050610181565b005b6101206004803603602081101561010a57600080fd5b81019080803590602001909291905050506103ff565b005b61012a6107c5565b005b610134610a9c565b6040518082815260200191505060405180910390f35b60006020528060005260406000206000915090508060000154908060010154908060020160009054906101000a900460ff16905083565b806000803373ffffffffffffffffffffffffffffffffffffffff1673ffffffffffffffffffffffffffffffffffffffff1681526020019081526020016000206000015414610237576040517f08c379a00000000000000000000000000000000000000000000000000000000081526004018080602001828103825260108152602001807f6e6f7420796f7572206f776e204e46540000000000000000000000000000000081525060200191505060405180910390fd5b600260009054906101000a900473ffffffffffffffffffffffffffffffffffffffff1673ffffffffffffffffffffffffffffffffffffffff166323b872dd3033846040518463ffffffff1660e01b8152600401808473ffffffffffffffffffffffffffffffffffffffff1673ffffffffffffffffffffffffffffffffffffffff1681526020018373ffffffffffffffffffffffffffffffffffffffff1673ffffffffffffffffffffffffffffffffffffffff1681526020018281526020019350505050600060405180830381600087803b15801561031457600080fd5b505af1158015610328573d6000803e3d6000fd5b505050507f963148346e3c93bb3eb4b4c296e2e13321ff22bf1118c91686cb1bfe4adcd9183382604051808373ffffffffffffffffffffffffffffffffffffffff1673ffffffffffffffffffffffffffffffffffffffff1681526020018281526020019250505060405180910390a16000803373ffffffffffffffffffffffffffffffffffffffff1673ffffffffffffffffffffffffffffffffffffffff16815260200190815260200160002060008082016000905560018201600090556002820160006101000a81549060ff0219169055505050565b600354600260009054906101000a900473ffffffffffffffffffffffffffffffffffffffff1673ffffffffffffffffffffffffffffffffffffffff166310712130836040518263ffffffff1660e01b81526004018082815260200191505060206040518083038186803b15801561047557600080fd5b505afa158015610489573d6000803e3d6000fd5b505050506040513d602081101561049f57600080fd5b810190808051906020019092919050505014610506576040517f08c379a0000000000000000000000000000000000000000000000000000000008152600401808060200182810382526025815260200180610b916025913960400191505060405180910390fd5b600115156000803373ffffffffffffffffffffffffffffffffffffffff1673ffffffffffffffffffffffffffffffffffffffff16815260200190815260200160002060020160009054906101000a900460ff16151514156105cf576040517f08c379a000000000000000000000000000000000000000000000000000000000815260040180806020018281038252601b8152602001807f796f7520616c72656164792068756e74696e67206d6f6e73746572000000000081525060200191505060405180910390fd5b600260009054906101000a900473ffffffffffffffffffffffffffffffffffffffff1673ffffffffffffffffffffffffffffffffffffffff166323b872dd3330846040518463ffffffff1660e01b8152600401808473ffffffffffffffffffffffffffffffffffffffff1673ffffffffffffffffffffffffffffffffffffffff1681526020018373ffffffffffffffffffffffffffffffffffffffff1673ffffffffffffffffffffffffffffffffffffffff1681526020018281526020019350505050600060405180830381600087803b1580156106ac57600080fd5b505af11580156106c0573d6000803e3d6000fd5b505050507f0cda5cf38f6592672c7b4a22ff3d50874d1913629bd5ffedc27b7b40503d60fd3382604051808373ffffffffffffffffffffffffffffffffffffffff1673ffffffffffffffffffffffffffffffffffffffff1681526020018281526020019250505060405180910390a16040518060600160405280828152602001428152602001600115158152506000803373ffffffffffffffffffffffffffffffffffffffff1673ffffffffffffffffffffffffffffffffffffffff168152602001908152602001600020600082015181600001556020820151816001015560408201518160020160006101000a81548160ff02191690831515021790555090505050565b6004546107d0610a9c565b11610826576040517f08c379a0000000000000000000000000000000000000000000000000000000008152600401808060200182810382526023815260200180610b6e6023913960400191505060405180910390fd5b600115156000803373ffffffffffffffffffffffffffffffffffffffff1673ffffffffffffffffffffffffffffffffffffffff16815260200190815260200160002060020160009054906101000a900460ff161515146108ee576040517f08c379a00000000000000000000000000000000000000000000000000000000081526004018080602001828103825260178152602001807f7468657265206973206e6f207374616b696e67206e667400000000000000000081525060200191505060405180910390fd5b600160009054906101000a900473ffffffffffffffffffffffffffffffffffffffff1673ffffffffffffffffffffffffffffffffffffffff166340c10f193361094b68056bc75e2d63100000600354610ae790919063ffffffff16565b6040518363ffffffff1660e01b8152600401808373ffffffffffffffffffffffffffffffffffffffff1673ffffffffffffffffffffffffffffffffffffffff16815260200182815260200192505050600060405180830381600087803b1580156109b457600080fd5b505af11580156109c8573d6000803e3d6000fd5b50505050426000803373ffffffffffffffffffffffffffffffffffffffff1673ffffffffffffffffffffffffffffffffffffffff168152602001908152602001600020600101819055507f92044e3943309ee5950e21bc7421d02c1df75f0df33c0d97c1143687b49a4c5733610a5268056bc75e2d63100000600354610ae790919063ffffffff16565b604051808373ffffffffffffffffffffffffffffffffffffffff1673ffffffffffffffffffffffffffffffffffffffff1681526020018281526020019250505060405180910390a1565b60008060003373ffffffffffffffffffffffffffffffffffffffff1673ffffffffffffffffffffffffffffffffffffffff168152602001908152602001600020600101544203905090565b600080831415610afa5760009050610b67565b6000828402905082848281610b0b57fe5b0414610b62576040517f08c379a0000000000000000000000000000000000000000000000000000000008152600401808060200182810382526021815260200180610bb66021913960400191505060405180910390fd5b809150505b9291505056fe77697468647261776c2063616e20626520616674657220636f6f6c646f776e74696d65776561706f6e20616e642064756e67656f6e206c6576656c20646f206e6f74206d61746368536166654d6174683a206d756c7469706c69636174696f6e206f766572666c6f77a165627a7a7230582031f325d92fe0c5377e22c876386f44b7a5a9712f306d984b32b1b7bcf3941eb80029a165627a7a72305820bfdf877704321c4d58fa5d058ac8b961336c30dae746229cdcbfe73ea76d92b90029",
  "source": "// SPDX-License-Identifier: MIT\npragma solidity ^0.5.6;\n\nimport \"./NFT_Farming.sol\";\nimport \"./Token.sol\";\nimport \"./NFT.sol\";\n\ncontract NFT_Factory {\n\n    NFT public nft;\n    Token public uru;\n\n    struct Monster {\n        address NFTAddress;\n        string name;\n        uint256 level;\n        uint256 coolDownTime;\n        uint256 reward;\n    }\n\n    Monster[] public monsters;\n\n    function createNFTFarm(NFT _NFTAddress, Token _tokenAddress, uint256 _level, uint256 _coolDownTime) public returns (address) {\n        \n        nft = _NFTAddress;\n        uru = _tokenAddress;\n        require(address(_NFTAddress) != address(0), \"invalid NFT address\");\n        require(address(_tokenAddress) != address(0), \"invalid token address\");\n\n        NFT_Farming nft_farming = new NFT_Farming(nft, uru, _level, _coolDownTime);\n\n        return address(nft_farming);\n    }\n}\n\n",
  "sourcePath": "/Users/baekdonghyun/Desktop/beb-03-DND/contract/contracts/NFT_Factory.sol",
  "compiler": {
    "name": "solc",
    "version": "0.5.6+commit.b259423e.Emscripten.clang"
  },
  "schemaVersion": "3.4.5",
  "updatedAt": "2022-05-23T12:41:23.344Z",
  "networkType": "ethereum",
  "devdoc": {
    "methods": {}
  },
  "userdoc": {
    "methods": {}
  }
}