{
  "contractName": "NFT_Factory",
  "abi": [
    {
      "constant": true,
      "inputs": [],
      "name": "uru",
      "outputs": [
        {
          "name": "",
          "type": "address"
        }
      ],
      "payable": false,
      "stateMutability": "view",
      "type": "function"
    },
    {
      "constant": true,
      "inputs": [],
      "name": "nft",
      "outputs": [
        {
          "name": "",
          "type": "address"
        }
      ],
      "payable": false,
      "stateMutability": "view",
      "type": "function"
    },
    {
      "constant": true,
      "inputs": [
        {
          "name": "",
          "type": "uint256"
        }
      ],
      "name": "monsters",
      "outputs": [
        {
          "name": "NFTAddress",
          "type": "address"
        },
        {
          "name": "name",
          "type": "string"
        },
        {
          "name": "level",
          "type": "uint256"
        },
        {
          "name": "coolDownTime",
          "type": "uint256"
        },
        {
          "name": "reward",
          "type": "uint256"
        }
      ],
      "payable": false,
      "stateMutability": "view",
      "type": "function"
    },
    {
      "constant": false,
      "inputs": [
        {
          "name": "_NFTAddress",
          "type": "address"
        },
        {
          "name": "_tokenAddress",
          "type": "address"
        },
        {
          "name": "_name",
          "type": "string"
        },
        {
          "name": "_level",
          "type": "uint256"
        },
        {
          "name": "_coolDownTime",
          "type": "uint256"
        },
        {
          "name": "_reward",
          "type": "uint256"
        }
      ],
      "name": "createNFTFarm",
      "outputs": [
        {
          "name": "",
          "type": "address"
        }
      ],
      "payable": false,
      "stateMutability": "nonpayable",
      "type": "function"
    },
    {
      "constant": true,
      "inputs": [],
      "name": "getMonsters",
      "outputs": [
        {
          "components": [
            {
              "name": "NFTAddress",
              "type": "address"
            },
            {
              "name": "name",
              "type": "string"
            },
            {
              "name": "level",
              "type": "uint256"
            },
            {
              "name": "coolDownTime",
              "type": "uint256"
            },
            {
              "name": "reward",
              "type": "uint256"
            }
          ],
          "name": "",
          "type": "tuple[]"
        }
      ],
      "payable": false,
      "stateMutability": "view",
      "type": "function"
    }
  ],
  "bytecode": "0x608060405234801561001057600080fd5b50611d6d806100206000396000f3fe608060405234801561001057600080fd5b50600436106100575760003560e01c8063103c07dc1461005c578063319e77131461007a57806347ccca021461009857806351c81980146100b6578063c0576b73146100e6575b600080fd5b61006461011a565b6040516100719190610c9d565b60405180910390f35b610082610140565b60405161008f9190610c0d565b60405180910390f35b6100a06102b5565b6040516100ad9190610c2f565b60405180910390f35b6100d060048036036100cb9190810190610887565b6102da565b6040516100dd9190610b98565b60405180910390f35b61010060048036036100fb9190810190610928565b61064a565b604051610111959493929190610bb3565b60405180910390f35b600160009054906101000a900473ffffffffffffffffffffffffffffffffffffffff1681565b60606002805480602002602001604051908101604052809291908181526020016000905b828210156102ac57838290600052602060002090600502016040518060a00160405290816000820160009054906101000a900473ffffffffffffffffffffffffffffffffffffffff1673ffffffffffffffffffffffffffffffffffffffff1673ffffffffffffffffffffffffffffffffffffffff168152602001600182018054600181600116156101000203166002900480601f0160208091040260200160405190810160405280929190818152602001828054600181600116156101000203166002900480156102765780601f1061024b57610100808354040283529160200191610276565b820191906000526020600020905b81548152906001019060200180831161025957829003601f168201915b50505050508152602001600282015481526020016003820154815260200160048201548152505081526020019060010190610164565b50505050905090565b6000809054906101000a900473ffffffffffffffffffffffffffffffffffffffff1681565b6000866000806101000a81548173ffffffffffffffffffffffffffffffffffffffff021916908373ffffffffffffffffffffffffffffffffffffffff16021790555085600160006101000a81548173ffffffffffffffffffffffffffffffffffffffff021916908373ffffffffffffffffffffffffffffffffffffffff160217905550600073ffffffffffffffffffffffffffffffffffffffff168773ffffffffffffffffffffffffffffffffffffffff1614156103cd576040517f08c379a00000000000000000000000000000000000000000000000000000000081526004016103c490610cd8565b60405180910390fd5b600073ffffffffffffffffffffffffffffffffffffffff168673ffffffffffffffffffffffffffffffffffffffff16141561043d576040517f08c379a000000000000000000000000000000000000000000000000000000000815260040161043490610cb8565b60405180910390fd5b60008060009054906101000a900473ffffffffffffffffffffffffffffffffffffffff16600160009054906101000a900473ffffffffffffffffffffffffffffffffffffffff1686868660405161049390610745565b6104a1959493929190610c4a565b604051809103906000f0801580156104bd573d6000803e3d6000fd5b50905060026040518060a001604052808373ffffffffffffffffffffffffffffffffffffffff168152602001888152602001878152602001868152602001858152509080600181540180825580915050906001820390600052602060002090600502016000909192909190915060008201518160000160006101000a81548173ffffffffffffffffffffffffffffffffffffffff021916908373ffffffffffffffffffffffffffffffffffffffff160217905550602082015181600101908051906020019061058d929190610752565b50604082015181600201556060820151816003015560808201518160040155505050600160009054906101000a900473ffffffffffffffffffffffffffffffffffffffff1673ffffffffffffffffffffffffffffffffffffffff1663983b2d56826040518263ffffffff1660e01b815260040161060a9190610b98565b600060405180830381600087803b15801561062457600080fd5b505af1158015610638573d6000803e3d6000fd5b50505050809150509695505050505050565b6002818154811061065757fe5b90600052602060002090600502016000915090508060000160009054906101000a900473ffffffffffffffffffffffffffffffffffffffff1690806001018054600181600116156101000203166002900480601f0160208091040260200160405190810160405280929190818152602001828054600181600116156101000203166002900480156107295780601f106106fe57610100808354040283529160200191610729565b820191906000526020600020905b81548152906001019060200180831161070c57829003601f168201915b5050505050908060020154908060030154908060040154905085565b610e4880610eec83390190565b828054600181600116156101000203166002900490600052602060002090601f016020900481019282601f1061079357805160ff19168380011785556107c1565b828001600101855582156107c1579182015b828111156107c05782518255916020019190600101906107a5565b5b5090506107ce91906107d2565b5090565b6107f491905b808211156107f05760008160009055506001016107d8565b5090565b90565b60006108038235610e02565b905092915050565b60006108178235610e14565b905092915050565b600082601f83011261083057600080fd5b813561084361083e82610d25565b610cf8565b9150808252602083016020830185838301111561085f57600080fd5b61086a838284610e98565b50505092915050565b600061087f8235610e46565b905092915050565b60008060008060008060c087890312156108a057600080fd5b60006108ae89828a016107f7565b96505060206108bf89828a0161080b565b955050604087013567ffffffffffffffff8111156108dc57600080fd5b6108e889828a0161081f565b94505060606108f989828a01610873565b935050608061090a89828a01610873565b92505060a061091b89828a01610873565b9150509295509295509295565b60006020828403121561093a57600080fd5b600061094884828501610873565b91505092915050565b600061095d8383610b04565b905092915050565b61096e81610db4565b82525050565b61097d81610db4565b82525050565b600061098e82610d5e565b6109988185610d81565b9350836020820285016109aa85610d51565b60005b848110156109e35783830388526109c5838351610951565b92506109d082610d74565b91506020880197506001810190506109ad565b508196508694505050505092915050565b6109fd81610e50565b82525050565b610a0c81610e74565b82525050565b6000610a1d82610d69565b610a278185610d92565b9350610a37818560208601610ea7565b610a4081610eda565b840191505092915050565b6000610a5682610d69565b610a608185610da3565b9350610a70818560208601610ea7565b610a7981610eda565b840191505092915050565b6000610a91601583610da3565b91507f696e76616c696420746f6b656e206164647265737300000000000000000000006000830152602082019050919050565b6000610ad1601383610da3565b91507f696e76616c6964204e46542061646472657373000000000000000000000000006000830152602082019050919050565b600060a083016000830151610b1c6000860182610965565b5060208301518482036020860152610b348282610a12565b9150506040830151610b496040860182610b7a565b506060830151610b5c6060860182610b7a565b506080830151610b6f6080860182610b7a565b508091505092915050565b610b8381610de6565b82525050565b610b9281610de6565b82525050565b6000602082019050610bad6000830184610974565b92915050565b600060a082019050610bc86000830188610974565b8181036020830152610bda8187610a4b565b9050610be96040830186610b89565b610bf66060830185610b89565b610c036080830184610b89565b9695505050505050565b60006020820190508181036000830152610c278184610983565b905092915050565b6000602082019050610c4460008301846109f4565b92915050565b600060a082019050610c5f60008301886109f4565b610c6c6020830187610a03565b610c796040830186610b89565b610c866060830185610b89565b610c936080830184610b89565b9695505050505050565b6000602082019050610cb26000830184610a03565b92915050565b60006020820190508181036000830152610cd181610a84565b9050919050565b60006020820190508181036000830152610cf181610ac4565b9050919050565b6000604051905081810181811067ffffffffffffffff82111715610d1b57600080fd5b8060405250919050565b600067ffffffffffffffff821115610d3c57600080fd5b601f19601f8301169050602081019050919050565b6000602082019050919050565b600081519050919050565b600081519050919050565b6000602082019050919050565b600082825260208201905092915050565b600082825260208201905092915050565b600082825260208201905092915050565b6000610dbf82610dc6565b9050919050565b600073ffffffffffffffffffffffffffffffffffffffff82169050919050565b6000819050919050565b6000610dfb82610e26565b9050919050565b6000610e0d82610df0565b9050919050565b6000610e1f82610df0565b9050919050565b600073ffffffffffffffffffffffffffffffffffffffff82169050919050565b6000819050919050565b6000610e5b82610e62565b9050919050565b6000610e6d82610dc6565b9050919050565b6000610e7f82610e86565b9050919050565b6000610e9182610dc6565b9050919050565b82818337600083830152505050565b60005b83811015610ec5578082015181840152602081019050610eaa565b83811115610ed4576000848401525b50505050565b6000601f19601f830116905091905056fe6080604052605f600660006101000a81548160ff021916908360ff16021790555034801561002c57600080fd5b5060405160a080610e48833981018060405260a081101561004c57600080fd5b81019080805190602001909291908051906020019092919080519060200190929190805190602001909291908051906020019092919050505084600260006101000a81548173ffffffffffffffffffffffffffffffffffffffff021916908373ffffffffffffffffffffffffffffffffffffffff16021790555083600160006101000a81548173ffffffffffffffffffffffffffffffffffffffff021916908373ffffffffffffffffffffffffffffffffffffffff1602179055508260038190555081600481905550806005819055505050505050610d18806101306000396000f3fe608060405234801561001057600080fd5b50600436106100575760003560e01c80631601e6411461005c5780632e17de78146100c6578063a694fc3a146100f4578063e507a8a414610122578063f17165271461012c575b600080fd5b61009e6004803603602081101561007257600080fd5b81019080803573ffffffffffffffffffffffffffffffffffffffff16906020019092919050505061014a565b6040518084815260200183815260200182151515158152602001935050505060405180910390f35b6100f2600480360360208110156100dc57600080fd5b8101908080359060200190929190505050610181565b005b6101206004803603602081101561010a57600080fd5b81019080803590602001909291905050506103ff565b005b61012a6107c5565b005b610134610c59565b6040518082815260200191505060405180910390f35b60006020528060005260406000206000915090508060000154908060010154908060020160009054906101000a900460ff16905083565b806000803373ffffffffffffffffffffffffffffffffffffffff1673ffffffffffffffffffffffffffffffffffffffff1681526020019081526020016000206000015414610237576040517f08c379a00000000000000000000000000000000000000000000000000000000081526004018080602001828103825260108152602001807f6e6f7420796f7572206f776e204e46540000000000000000000000000000000081525060200191505060405180910390fd5b600260009054906101000a900473ffffffffffffffffffffffffffffffffffffffff1673ffffffffffffffffffffffffffffffffffffffff166323b872dd3033846040518463ffffffff1660e01b8152600401808473ffffffffffffffffffffffffffffffffffffffff1673ffffffffffffffffffffffffffffffffffffffff1681526020018373ffffffffffffffffffffffffffffffffffffffff1673ffffffffffffffffffffffffffffffffffffffff1681526020018281526020019350505050600060405180830381600087803b15801561031457600080fd5b505af1158015610328573d6000803e3d6000fd5b505050507f963148346e3c93bb3eb4b4c296e2e13321ff22bf1118c91686cb1bfe4adcd9183382604051808373ffffffffffffffffffffffffffffffffffffffff1673ffffffffffffffffffffffffffffffffffffffff1681526020018281526020019250505060405180910390a16000803373ffffffffffffffffffffffffffffffffffffffff1673ffffffffffffffffffffffffffffffffffffffff16815260200190815260200160002060008082016000905560018201600090556002820160006101000a81549060ff0219169055505050565b600354600260009054906101000a900473ffffffffffffffffffffffffffffffffffffffff1673ffffffffffffffffffffffffffffffffffffffff166310712130836040518263ffffffff1660e01b81526004018082815260200191505060206040518083038186803b15801561047557600080fd5b505afa158015610489573d6000803e3d6000fd5b505050506040513d602081101561049f57600080fd5b810190808051906020019092919050505014610506576040517f08c379a0000000000000000000000000000000000000000000000000000000008152600401808060200182810382526025815260200180610cc86025913960400191505060405180910390fd5b600115156000803373ffffffffffffffffffffffffffffffffffffffff1673ffffffffffffffffffffffffffffffffffffffff16815260200190815260200160002060020160009054906101000a900460ff16151514156105cf576040517f08c379a000000000000000000000000000000000000000000000000000000000815260040180806020018281038252601b8152602001807f796f7520616c72656164792068756e74696e67206d6f6e73746572000000000081525060200191505060405180910390fd5b600260009054906101000a900473ffffffffffffffffffffffffffffffffffffffff1673ffffffffffffffffffffffffffffffffffffffff166323b872dd3330846040518463ffffffff1660e01b8152600401808473ffffffffffffffffffffffffffffffffffffffff1673ffffffffffffffffffffffffffffffffffffffff1681526020018373ffffffffffffffffffffffffffffffffffffffff1673ffffffffffffffffffffffffffffffffffffffff1681526020018281526020019350505050600060405180830381600087803b1580156106ac57600080fd5b505af11580156106c0573d6000803e3d6000fd5b505050507f0cda5cf38f6592672c7b4a22ff3d50874d1913629bd5ffedc27b7b40503d60fd3382604051808373ffffffffffffffffffffffffffffffffffffffff1673ffffffffffffffffffffffffffffffffffffffff1681526020018281526020019250505060405180910390a16040518060600160405280828152602001428152602001600115158152506000803373ffffffffffffffffffffffffffffffffffffffff1673ffffffffffffffffffffffffffffffffffffffff168152602001908152602001600020600082015181600001556020820151816001015560408201518160020160006101000a81548160ff02191690831515021790555090505050565b6000600260009054906101000a900473ffffffffffffffffffffffffffffffffffffffff1673ffffffffffffffffffffffffffffffffffffffff1663555e73c860016000803373ffffffffffffffffffffffffffffffffffffffff1673ffffffffffffffffffffffffffffffffffffffff16815260200190815260200160002060000154036040518263ffffffff1660e01b81526004018082815260200191505060806040518083038186803b15801561087e57600080fd5b505afa158015610892573d6000803e3d6000fd5b505050506040513d60808110156108a857600080fd5b81019080805190602001909291908051906020019092919080519060200190929190805190602001909291905050505092505050600081116108e957600080fd5b6004546108f4610c59565b1161094a576040517f08c379a0000000000000000000000000000000000000000000000000000000008152600401808060200182810382526023815260200180610ca56023913960400191505060405180910390fd5b600115156000803373ffffffffffffffffffffffffffffffffffffffff1673ffffffffffffffffffffffffffffffffffffffff16815260200190815260200160002060020160009054906101000a900460ff16151514610a12576040517f08c379a00000000000000000000000000000000000000000000000000000000081526004018080602001828103825260178152602001807f7468657265206973206e6f207374616b696e67206e667400000000000000000081525060200191505060405180910390fd5b600160009054906101000a900473ffffffffffffffffffffffffffffffffffffffff1673ffffffffffffffffffffffffffffffffffffffff166340c10f19336005546040518363ffffffff1660e01b8152600401808373ffffffffffffffffffffffffffffffffffffffff1673ffffffffffffffffffffffffffffffffffffffff16815260200182815260200192505050600060405180830381600087803b158015610abd57600080fd5b505af1158015610ad1573d6000803e3d6000fd5b50505050426000803373ffffffffffffffffffffffffffffffffffffffff1673ffffffffffffffffffffffffffffffffffffffff16815260200190815260200160002060010181905550600260009054906101000a900473ffffffffffffffffffffffffffffffffffffffff1673ffffffffffffffffffffffffffffffffffffffff166365cf0b836000803373ffffffffffffffffffffffffffffffffffffffff1673ffffffffffffffffffffffffffffffffffffffff168152602001908152602001600020600001546040518263ffffffff1660e01b815260040180828152602001915050600060405180830381600087803b158015610bd157600080fd5b505af1158015610be5573d6000803e3d6000fd5b505050507f92044e3943309ee5950e21bc7421d02c1df75f0df33c0d97c1143687b49a4c5733600554604051808373ffffffffffffffffffffffffffffffffffffffff1673ffffffffffffffffffffffffffffffffffffffff1681526020018281526020019250505060405180910390a150565b60008060003373ffffffffffffffffffffffffffffffffffffffff1673ffffffffffffffffffffffffffffffffffffffff16815260200190815260200160002060010154420390509056fe77697468647261776c2063616e20626520616674657220636f6f6c646f776e74696d65776561706f6e20616e642064756e67656f6e206c6576656c20646f206e6f74206d61746368a165627a7a72305820f2b5a2cd4fd2240836acd0d8c265bce20b1738599f93e54e29ff506b1aa30a060029a265627a7a72305820a24add3a7ba38a388fa0660715b6e3057de593499568f2d71fb5536b1e97be636c6578706572696d656e74616cf50037",
  "source": "// SPDX-License-Identifier: MIT\r\npragma solidity ^0.5.6;\r\npragma experimental ABIEncoderV2;\r\n\r\nimport \"./NFT_Farming.sol\";\r\nimport \"./Token.sol\";\r\nimport \"./NFT.sol\";\r\n\r\ncontract NFT_Factory {\r\n\r\n    NFT public nft;\r\n    Token public uru;\r\n\r\n    struct Monster {\r\n        address NFTAddress;\r\n        string name;\r\n        uint256 level;\r\n        uint256 coolDownTime;\r\n        uint256 reward;\r\n    }\r\n    Monster[] public monsters;\r\n\r\n    function createNFTFarm(\r\n        NFT _NFTAddress,\r\n        Token _tokenAddress,\r\n        string memory _name,\r\n        uint256 _level, \r\n        uint256 _coolDownTime, \r\n        uint256 _reward) public returns (address) {\r\n        nft = _NFTAddress;\r\n        uru = _tokenAddress;\r\n        require(address(_NFTAddress) != address(0), \"invalid NFT address\");\r\n        require(address(_tokenAddress) != address(0), \"invalid token address\");\r\n\r\n        NFT_Farming nft_farming = new NFT_Farming(nft, uru, _level, _coolDownTime, _reward);\r\n\r\n        monsters.push(Monster(address(nft_farming), _name, _level, _coolDownTime, _reward));\r\n        uru.addMinter(address(nft_farming));\r\n\r\n        return address(nft_farming);\r\n    }\r\n\r\n    function getMonsters() public view returns (Monster[] memory){\r\n        return monsters;\r\n    }\r\n}\r\n",
  "sourcePath": "D:\\GitHub\\beb-03-DND\\contract\\contracts\\NFT_Factory.sol",
  "compiler": {
    "name": "solc",
    "version": "0.5.6+commit.b259423e.Emscripten.clang"
  },
  "schemaVersion": "3.4.7",
  "updatedAt": "2022-05-31T01:50:18.920Z",
  "networkType": "ethereum",
  "devdoc": {
    "methods": {}
  },
  "userdoc": {
    "methods": {}
  }
}