{
  "contractName": "NFTMarket",
  "abi": [
    {
      "constant": true,
      "inputs": [],
      "name": "nft",
      "outputs": [
        {
          "name": "",
          "type": "address"
        }
      ],
      "payable": false,
      "stateMutability": "view",
      "type": "function"
    },
    {
      "constant": true,
      "inputs": [
        {
          "name": "",
          "type": "uint256"
        }
      ],
      "name": "onSales",
      "outputs": [
        {
          "name": "id",
          "type": "uint256"
        },
        {
          "name": "seller",
          "type": "address"
        },
        {
          "name": "tokenId",
          "type": "uint256"
        },
        {
          "name": "price",
          "type": "uint256"
        },
        {
          "name": "sold",
          "type": "bool"
        }
      ],
      "payable": false,
      "stateMutability": "view",
      "type": "function"
    },
    {
      "constant": true,
      "inputs": [],
      "name": "token",
      "outputs": [
        {
          "name": "",
          "type": "address"
        }
      ],
      "payable": false,
      "stateMutability": "view",
      "type": "function"
    },
    {
      "inputs": [
        {
          "name": "_fee",
          "type": "uint256"
        },
        {
          "name": "_feeTo",
          "type": "address"
        },
        {
          "name": "tokenAddress",
          "type": "address"
        },
        {
          "name": "nftAddress",
          "type": "address"
        }
      ],
      "payable": false,
      "stateMutability": "nonpayable",
      "type": "constructor"
    },
    {
      "anonymous": false,
      "inputs": [
        {
          "indexed": false,
          "name": "id",
          "type": "uint256"
        },
        {
          "indexed": true,
          "name": "seller",
          "type": "address"
        },
        {
          "indexed": false,
          "name": "tokenId",
          "type": "uint256"
        },
        {
          "indexed": false,
          "name": "price",
          "type": "uint256"
        }
      ],
      "name": "Add",
      "type": "event"
    },
    {
      "anonymous": false,
      "inputs": [
        {
          "indexed": false,
          "name": "id",
          "type": "uint256"
        },
        {
          "indexed": true,
          "name": "seller",
          "type": "address"
        },
        {
          "indexed": true,
          "name": "buyer",
          "type": "address"
        },
        {
          "indexed": false,
          "name": "tokenId",
          "type": "uint256"
        },
        {
          "indexed": false,
          "name": "price",
          "type": "uint256"
        }
      ],
      "name": "Buy",
      "type": "event"
    },
    {
      "constant": false,
      "inputs": [
        {
          "name": "_tokenId",
          "type": "uint256"
        },
        {
          "name": "_price",
          "type": "uint256"
        }
      ],
      "name": "addNftToMarket",
      "outputs": [],
      "payable": false,
      "stateMutability": "nonpayable",
      "type": "function"
    },
    {
      "constant": true,
      "inputs": [],
      "name": "getNfts",
      "outputs": [
        {
          "components": [
            {
              "name": "id",
              "type": "uint256"
            },
            {
              "name": "seller",
              "type": "address"
            },
            {
              "name": "tokenId",
              "type": "uint256"
            },
            {
              "name": "price",
              "type": "uint256"
            },
            {
              "name": "sold",
              "type": "bool"
            }
          ],
          "name": "",
          "type": "tuple[]"
        }
      ],
      "payable": false,
      "stateMutability": "view",
      "type": "function"
    },
    {
      "constant": false,
      "inputs": [
        {
          "name": "_id",
          "type": "uint256"
        }
      ],
      "name": "buyNft",
      "outputs": [],
      "payable": false,
      "stateMutability": "nonpayable",
      "type": "function"
    },
    {
      "constant": false,
      "inputs": [
        {
          "name": "_id",
          "type": "uint256"
        }
      ],
      "name": "removeNft",
      "outputs": [],
      "payable": false,
      "stateMutability": "nonpayable",
      "type": "function"
    }
  ],
  "bytecode": "0x60806040523480156200001157600080fd5b5060405160808062001bbb833981018060405262000033919081019062000133565b8360018190555082600260006101000a81548173ffffffffffffffffffffffffffffffffffffffff021916908373ffffffffffffffffffffffffffffffffffffffff16021790555081600360006101000a81548173ffffffffffffffffffffffffffffffffffffffff021916908373ffffffffffffffffffffffffffffffffffffffff16021790555080600460006101000a81548173ffffffffffffffffffffffffffffffffffffffff021916908373ffffffffffffffffffffffffffffffffffffffff16021790555050505050620001dd565b60006200011582516200019f565b905092915050565b60006200012b8251620001d3565b905092915050565b600080600080608085870312156200014a57600080fd5b60006200015a878288016200011d565b94505060206200016d8782880162000107565b9350506040620001808782880162000107565b9250506060620001938782880162000107565b91505092959194509250565b6000620001ac82620001b3565b9050919050565b600073ffffffffffffffffffffffffffffffffffffffff82169050919050565b6000819050919050565b6119ce80620001ed6000396000f3fe608060405234801561001057600080fd5b506004361061007d5760003560e01c8063cfd5a2ff1161005b578063cfd5a2ff146100d8578063d8cb55e3146100f4578063e0e3257f14610112578063fc0c546a146101465761007d565b8063243adbdd146100825780633580bf271461009e57806347ccca02146100ba575b600080fd5b61009c600480360361009791908101906110f6565b610164565b005b6100b860048036036100b391908101906110f6565b61074f565b005b6100c261088d565b6040516100cf9190611602565b60405180910390f35b6100f260048036036100ed9190810190611148565b6108b3565b005b6100fc610b6e565b60405161010991906115e0565b60405180910390f35b61012c600480360361012791908101906110f6565b610d6b565b60405161013d959493929190611755565b60405180910390f35b61014e610dce565b60405161015b919061161d565b60405180910390f35b80336005600083815260200190815260200160002060040160009054906101000a900460ff16156101ca576040517f08c379a00000000000000000000000000000000000000000000000000000000081526004016101c19061165a565b60405180910390fd5b6005600083815260200190815260200160002060010160009054906101000a900473ffffffffffffffffffffffffffffffffffffffff1673ffffffffffffffffffffffffffffffffffffffff168173ffffffffffffffffffffffffffffffffffffffff16141561026f576040517f08c379a00000000000000000000000000000000000000000000000000000000081526004016102669061167a565b60405180910390fd5b60006005600085815260200190815260200160002060030154905060006102b460646102a660015485610df490919063ffffffff16565b610e6490919063ffffffff16565b90506102c98183610eae90919063ffffffff16565b600360009054906101000a900473ffffffffffffffffffffffffffffffffffffffff1673ffffffffffffffffffffffffffffffffffffffff166370a08231336040518263ffffffff1660e01b81526004016103249190611544565b60206040518083038186803b15801561033c57600080fd5b505afa158015610350573d6000803e3d6000fd5b505050506040513d601f19601f82011682018060405250610374919081019061111f565b10156103b5576040517f08c379a00000000000000000000000000000000000000000000000000000000081526004016103ac906116da565b60405180910390fd5b600360009054906101000a900473ffffffffffffffffffffffffffffffffffffffff1673ffffffffffffffffffffffffffffffffffffffff166323b872dd336005600089815260200190815260200160002060010160009054906101000a900473ffffffffffffffffffffffffffffffffffffffff16856040518463ffffffff1660e01b815260040161044a9392919061155f565b602060405180830381600087803b15801561046457600080fd5b505af1158015610478573d6000803e3d6000fd5b505050506040513d601f19601f8201168201806040525061049c91908101906110cd565b50600360009054906101000a900473ffffffffffffffffffffffffffffffffffffffff1673ffffffffffffffffffffffffffffffffffffffff166323b872dd33600260009054906101000a900473ffffffffffffffffffffffffffffffffffffffff16846040518463ffffffff1660e01b815260040161051e9392919061155f565b602060405180830381600087803b15801561053857600080fd5b505af115801561054c573d6000803e3d6000fd5b505050506040513d601f19601f8201168201806040525061057091908101906110cd565b5060016005600087815260200190815260200160002060040160006101000a81548160ff021916908315150217905550600460009054906101000a900473ffffffffffffffffffffffffffffffffffffffff1673ffffffffffffffffffffffffffffffffffffffff1663b88d4fde6005600088815260200190815260200160002060010160009054906101000a900473ffffffffffffffffffffffffffffffffffffffff1633600560008a8152602001908152602001600020600201546040518463ffffffff1660e01b815260040161064b93929190611596565b600060405180830381600087803b15801561066557600080fd5b505af1158015610679573d6000803e3d6000fd5b505050503373ffffffffffffffffffffffffffffffffffffffff166005600087815260200190815260200160002060010160009054906101000a900473ffffffffffffffffffffffffffffffffffffffff1673ffffffffffffffffffffffffffffffffffffffff167f5b3fa64172584174917e1b3a206fe9c25d3120cf366b3d05ad5b6183a15cf78987600560008a815260200190815260200160002060020154600560008b815260200190815260200160002060030154604051610740939291906117a8565b60405180910390a35050505050565b80338073ffffffffffffffffffffffffffffffffffffffff166005600084815260200190815260200160002060010160009054906101000a900473ffffffffffffffffffffffffffffffffffffffff1673ffffffffffffffffffffffffffffffffffffffff16146107f5576040517f08c379a00000000000000000000000000000000000000000000000000000000081526004016107ec906116fa565b60405180910390fd5b6005600083815260200190815260200160002060040160009054906101000a900460ff1615610859576040517f08c379a00000000000000000000000000000000000000000000000000000000081526004016108509061165a565b60405180910390fd5b60016005600085815260200190815260200160002060040160006101000a81548160ff021916908315150217905550505050565b600460009054906101000a900473ffffffffffffffffffffffffffffffffffffffff1681565b81338073ffffffffffffffffffffffffffffffffffffffff16600460009054906101000a900473ffffffffffffffffffffffffffffffffffffffff1673ffffffffffffffffffffffffffffffffffffffff16636352211e846040518263ffffffff1660e01b8152600401610927919061173a565b60206040518083038186803b15801561093f57600080fd5b505afa158015610953573d6000803e3d6000fd5b505050506040513d601f19601f8201168201806040525061097791908101906110a4565b73ffffffffffffffffffffffffffffffffffffffff16146109cd576040517f08c379a00000000000000000000000000000000000000000000000000000000081526004016109c4906116fa565b60405180910390fd5b6109d682610f03565b15610a16576040517f08c379a0000000000000000000000000000000000000000000000000000000008152600401610a0d9061171a565b60405180910390fd5b610a206000610f88565b6040518060a00160405280610a356000610f9e565b81526020013373ffffffffffffffffffffffffffffffffffffffff1681526020018581526020018481526020016000151581525060056000610a776000610f9e565b81526020019081526020016000206000820151816000015560208201518160010160006101000a81548173ffffffffffffffffffffffffffffffffffffffff021916908373ffffffffffffffffffffffffffffffffffffffff160217905550604082015181600201556060820151816003015560808201518160040160006101000a81548160ff0219169083151502179055509050503373ffffffffffffffffffffffffffffffffffffffff167fb233dd05ed21346e144167b35a6213bcf04768dbdffdc8339e8b027b94b9f305610b4f6000610f9e565b8686604051610b60939291906117a8565b60405180910390a250505050565b606060006060610b7e6000610f9e565b604051908082528060200260200182016040528015610bb757816020015b610ba461100d565b815260200190600190039081610b9c5790505b5090506000600190505b610bcb6000610f9e565b8111610cdb57600015156005600083815260200190815260200160002060040160009054906101000a900460ff1615151415610cce57600560008281526020019081526020016000206040518060a0016040529081600082015481526020016001820160009054906101000a900473ffffffffffffffffffffffffffffffffffffffff1673ffffffffffffffffffffffffffffffffffffffff1673ffffffffffffffffffffffffffffffffffffffff16815260200160028201548152602001600382015481526020016004820160009054906101000a900460ff161515151581525050828481518110610cba57fe5b602002602001018190525082806001019350505b8080600101915050610bc1565b50606082604051908082528060200260200182016040528015610d1857816020015b610d0561100d565b815260200190600190039081610cfd5790505b50905060008090505b83811015610d6157828181518110610d3557fe5b6020026020010151828281518110610d4957fe5b60200260200101819052508080600101915050610d21565b5080935050505090565b60056020528060005260406000206000915090508060000154908060010160009054906101000a900473ffffffffffffffffffffffffffffffffffffffff16908060020154908060030154908060040160009054906101000a900460ff16905085565b600360009054906101000a900473ffffffffffffffffffffffffffffffffffffffff1681565b600080831415610e075760009050610e5e565b6000828402905082848281610e1857fe5b0414610e59576040517f08c379a0000000000000000000000000000000000000000000000000000000008152600401610e50906116ba565b60405180910390fd5b809150505b92915050565b6000610ea683836040518060400160405280601a81526020017f536166654d6174683a206469766973696f6e206279207a65726f000000000000815250610fac565b905092915050565b600080828401905083811015610ef9576040517f08c379a0000000000000000000000000000000000000000000000000000000008152600401610ef09061169a565b60405180910390fd5b8091505092915050565b600080600190505b610f156000610f9e565b8111610f7d576005600082815260200190815260200160002060040160009054906101000a900460ff16158015610f615750826005600083815260200190815260200160002060020154145b15610f70576001915050610f83565b8080600101915050610f0b565b50600090505b919050565b6001816000016000828254019250508190555050565b600081600001549050919050565b60008083118290610ff3576040517f08c379a0000000000000000000000000000000000000000000000000000000008152600401610fea9190611638565b60405180910390fd5b506000838581610fff57fe5b049050809150509392505050565b6040518060a0016040528060008152602001600073ffffffffffffffffffffffffffffffffffffffff16815260200160008152602001600081526020016000151581525090565b6000611060825161188a565b905092915050565b6000611074825161189c565b905092915050565b600061108882356118c8565b905092915050565b600061109c82516118c8565b905092915050565b6000602082840312156110b657600080fd5b60006110c484828501611054565b91505092915050565b6000602082840312156110df57600080fd5b60006110ed84828501611068565b91505092915050565b60006020828403121561110857600080fd5b60006111168482850161107c565b91505092915050565b60006020828403121561113157600080fd5b600061113f84828501611090565b91505092915050565b6000806040838503121561115b57600080fd5b60006111698582860161107c565b925050602061117a8582860161107c565b9150509250929050565b600061119083836114be565b60a08301905092915050565b6111a5816118d2565b82525050565b6111b481611842565b82525050565b6111c381611842565b82525050565b60006111d4826117ec565b6111de818561180f565b93506111e9836117df565b60005b82811015611217576111ff868351611184565b955061120a82611802565b91506001810190506111ec565b50849250505092915050565b61122c81611854565b82525050565b61123b81611854565b82525050565b61124a816118e4565b82525050565b61125981611908565b82525050565b600061126a826117f7565b6112748185611831565b9350611284818560208601611950565b61128d81611983565b840191505092915050565b60006112a5600e83611831565b91507f416c726561647920736f6c6421210000000000000000000000000000000000006000830152602082019050919050565b60006112e5601983611831565b91507f596f752063616e6e6f742062757920796f7572204e46542121000000000000006000830152602082019050919050565b6000611325601b83611831565b91507f536166654d6174683a206164646974696f6e206f766572666c6f7700000000006000830152602082019050919050565b6000611365602183611831565b91507f536166654d6174683a206d756c7469706c69636174696f6e206f766572666c6f60008301527f77000000000000000000000000000000000000000000000000000000000000006020830152604082019050919050565b60006113cb601683611831565b91507f4e6f7420656e6f7567682055525520546f6b656e2121000000000000000000006000830152602082019050919050565b600061140b600083611820565b9150600082019050919050565b6000611425601883611831565b91507f596f7520646f6e2774206f776e2074686973204e4654212100000000000000006000830152602082019050919050565b6000611465602583611831565b91507f54686973204e465420697320616c726561647920616464656420746f204d617260008301527f6b657421210000000000000000000000000000000000000000000000000000006020830152604082019050919050565b60a0820160008201516114d46000850182611526565b5060208201516114e760208501826111ab565b5060408201516114fa6040850182611526565b50606082015161150d6060850182611526565b5060808201516115206080850182611223565b50505050565b61152f81611880565b82525050565b61153e81611880565b82525050565b6000602082019050611559600083018461119c565b92915050565b6000606082019050611574600083018661119c565b61158160208301856111ba565b61158e6040830184611535565b949350505050565b60006080820190506115ab60008301866111ba565b6115b8602083018561119c565b6115c56040830184611535565b81810360608301526115d6816113fe565b9050949350505050565b600060208201905081810360008301526115fa81846111c9565b905092915050565b60006020820190506116176000830184611241565b92915050565b60006020820190506116326000830184611250565b92915050565b60006020820190508181036000830152611652818461125f565b905092915050565b6000602082019050818103600083015261167381611298565b9050919050565b60006020820190508181036000830152611693816112d8565b9050919050565b600060208201905081810360008301526116b381611318565b9050919050565b600060208201905081810360008301526116d381611358565b9050919050565b600060208201905081810360008301526116f3816113be565b9050919050565b6000602082019050818103600083015261171381611418565b9050919050565b6000602082019050818103600083015261173381611458565b9050919050565b600060208201905061174f6000830184611535565b92915050565b600060a08201905061176a6000830188611535565b61177760208301876111ba565b6117846040830186611535565b6117916060830185611535565b61179e6080830184611232565b9695505050505050565b60006060820190506117bd6000830186611535565b6117ca6020830185611535565b6117d76040830184611535565b949350505050565b6000602082019050919050565b600081519050919050565b600081519050919050565b6000602082019050919050565b600082825260208201905092915050565b600082825260208201905092915050565b600082825260208201905092915050565b600061184d82611860565b9050919050565b60008115159050919050565b600073ffffffffffffffffffffffffffffffffffffffff82169050919050565b6000819050919050565b6000611895826118a8565b9050919050565b60008115159050919050565b600073ffffffffffffffffffffffffffffffffffffffff82169050919050565b6000819050919050565b60006118dd8261192c565b9050919050565b60006118ef826118f6565b9050919050565b600061190182611860565b9050919050565b60006119138261191a565b9050919050565b600061192582611860565b9050919050565b60006119378261193e565b9050919050565b600061194982611860565b9050919050565b60005b8381101561196e578082015181840152602081019050611953565b8381111561197d576000848401525b50505050565b6000601f19601f830116905091905056fea265627a7a723058209b7a6f56ff25d89d84a16f4f15bf6e68d54b0e5a55a65d80b9f7b9ecc0b721f76c6578706572696d656e74616cf50037",
  "source": "// SPDX-License-Identifier: MIT\npragma solidity >=0.4.22 <0.9.0;\npragma experimental ABIEncoderV2;\n\nimport \"../node_modules/@klaytn/contracts/token/KIP17/IKIP17.sol\";\nimport \"../node_modules/@klaytn/contracts/token/KIP17/IKIP17Receiver.sol\";\nimport \"../node_modules/@klaytn/contracts/token/KIP7/IKIP7.sol\";\nimport \"../node_modules/@klaytn/contracts/drafts/Counters.sol\";\nimport \"../node_modules/@klaytn/contracts/math/SafeMath.sol\";\n\ncontract NFTMarket{\n  using Counters for Counters.Counter;\n  using SafeMath for uint256;\n  Counters.Counter private _Ids;\n\n  uint256 fee;\n  address feeTo;\n  IKIP7 public token;\n  IKIP17 public nft;\n\n  struct NftOnSale {\n    uint256 id;\n    address seller;\n    uint256 tokenId;\n    uint256 price;\n    bool sold;\n  }\n\n  mapping(uint256 => NftOnSale) public onSales;\n\n  event Add(uint256 id, address indexed seller, uint256 tokenId, uint256 price);\n  event Buy(uint256 id, address indexed seller, address indexed buyer, uint256 tokenId, uint256 price);\n  \n  constructor(uint256 _fee, address _feeTo, address tokenAddress, address nftAddress) public {\n    fee = _fee;\n    feeTo = _feeTo;\n    token = IKIP7(tokenAddress);\n    nft = IKIP17(nftAddress);\n  }\n\n  modifier addCheck(uint256 _tokenId, address seller) {\n    require(nft.ownerOf(_tokenId) == seller, \"You don't own this NFT!!\");\n    require(!_isAdded(_tokenId), \"This NFT is already added to Market!!\");\n    _;\n  }\n\n  function _isAdded(uint256 _tokenId) internal view returns (bool){      \n    for(uint i = 1 ; i <= _Ids.current(); i++){\n        if(!onSales[i].sold && onSales[i].tokenId == _tokenId){\n            return true;\n        }\n    }\n    return false;\n  }\n  \n  //\n  function addNftToMarket(uint256 _tokenId, uint256 _price) addCheck( _tokenId, msg.sender) external {\n    _Ids.increment();\n\n    onSales[_Ids.current()] = NftOnSale(_Ids.current(), msg.sender, _tokenId, _price, false);\n\n    emit Add(_Ids.current(), msg.sender, _tokenId, _price);\n  }\n\n  function getNfts() external view returns(NftOnSale[] memory){\n    uint count;\n    NftOnSale[] memory checkList = new NftOnSale[](_Ids.current());\n    for(uint i = 1 ; i <= _Ids.current(); i++){\n        if(onSales[i].sold == false){\n            checkList[count] = onSales[i];\n            count++;\n        }\n    }\n    NftOnSale[] memory filteredCheckList = new NftOnSale[](count);\n    for(uint i = 0; i<count; i++){\n        filteredCheckList[i] = checkList[i];\n    }\n    return filteredCheckList;\n  }\n  \n  modifier buyCheck(uint256 _id, address buyer) {\n    require(!onSales[_id].sold, \"Already sold!!\");\n    require(buyer != onSales[_id].seller, \"You cannot buy your NFT!!\");\n    _;\n  }\n  // // \n  function buyNft(uint256 _id) buyCheck(_id, msg.sender) external {\n    uint256 price = onSales[_id].price;\n    uint256 feePrice = price.mul(fee).div(100);\n    require(token.balanceOf(msg.sender) >= price.add(feePrice), \"Not enough URU Token!!\");\n\n    token.transferFrom(msg.sender, onSales[_id].seller, price);\n    token.transferFrom(msg.sender, feeTo, feePrice);\n\n    onSales[_id].sold = true;\n    nft.safeTransferFrom(onSales[_id].seller, msg.sender, onSales[_id].tokenId, \"\");\n    \n    emit Buy(_id, onSales[_id].seller, msg.sender, onSales[_id].tokenId, onSales[_id].price);\n  }\n\n  modifier removeCheck(uint256 _id, address seller) {\n    require(onSales[_id].seller == seller, \"You don't own this NFT!!\");\n    require(!onSales[_id].sold, \"Already sold!!\");\n    _;\n  }\n\n  //   \n  function removeNft(uint256 _id) removeCheck(_id, msg.sender) external {\n    onSales[_id].sold = true;\n  }\n}",
  "sourcePath": "/Users/baekdonghyun/Desktop/beb-03-DND/contract/contracts/NFTMarket.sol",
  "compiler": {
    "name": "solc",
    "version": "0.5.6+commit.b259423e.Emscripten.clang"
  },
  "schemaVersion": "3.4.5",
  "updatedAt": "2022-05-12T06:07:46.350Z",
  "devdoc": {
    "methods": {}
  },
  "userdoc": {
    "methods": {}
  }
}