{
  "contractName": "NFTMarket",
  "abi": [
    {
      "constant": true,
      "inputs": [],
      "name": "nft",
      "outputs": [
        {
          "name": "",
          "type": "address"
        }
      ],
      "payable": false,
      "stateMutability": "view",
      "type": "function"
    },
    {
      "constant": true,
      "inputs": [
        {
          "name": "",
          "type": "uint256"
        }
      ],
      "name": "onSales",
      "outputs": [
        {
          "name": "id",
          "type": "uint256"
        },
        {
          "name": "seller",
          "type": "address"
        },
        {
          "name": "tokenId",
          "type": "uint256"
        },
        {
          "name": "price",
          "type": "uint256"
        },
        {
          "name": "sold",
          "type": "bool"
        }
      ],
      "payable": false,
      "stateMutability": "view",
      "type": "function"
    },
    {
      "constant": true,
      "inputs": [],
      "name": "token",
      "outputs": [
        {
          "name": "",
          "type": "address"
        }
      ],
      "payable": false,
      "stateMutability": "view",
      "type": "function"
    },
    {
      "inputs": [
        {
          "name": "_fee",
          "type": "uint256"
        },
        {
          "name": "_feeTo",
          "type": "address"
        },
        {
          "name": "tokenAddress",
          "type": "address"
        },
        {
          "name": "nftAddress",
          "type": "address"
        }
      ],
      "payable": false,
      "stateMutability": "nonpayable",
      "type": "constructor"
    },
    {
      "anonymous": false,
      "inputs": [
        {
          "indexed": false,
          "name": "id",
          "type": "uint256"
        },
        {
          "indexed": true,
          "name": "seller",
          "type": "address"
        },
        {
          "indexed": false,
          "name": "tokenId",
          "type": "uint256"
        },
        {
          "indexed": false,
          "name": "price",
          "type": "uint256"
        }
      ],
      "name": "Add",
      "type": "event"
    },
    {
      "anonymous": false,
      "inputs": [
        {
          "indexed": false,
          "name": "id",
          "type": "uint256"
        },
        {
          "indexed": true,
          "name": "seller",
          "type": "address"
        },
        {
          "indexed": true,
          "name": "buyer",
          "type": "address"
        },
        {
          "indexed": false,
          "name": "tokenId",
          "type": "uint256"
        },
        {
          "indexed": false,
          "name": "price",
          "type": "uint256"
        }
      ],
      "name": "Buy",
      "type": "event"
    },
    {
      "constant": false,
      "inputs": [
        {
          "name": "_tokenId",
          "type": "uint256"
        },
        {
          "name": "_price",
          "type": "uint256"
        }
      ],
      "name": "addNftToMarket",
      "outputs": [],
      "payable": false,
      "stateMutability": "nonpayable",
      "type": "function"
    },
    {
      "constant": true,
      "inputs": [],
      "name": "getNfts",
      "outputs": [
        {
          "components": [
            {
              "name": "id",
              "type": "uint256"
            },
            {
              "name": "seller",
              "type": "address"
            },
            {
              "name": "tokenId",
              "type": "uint256"
            },
            {
              "name": "price",
              "type": "uint256"
            },
            {
              "name": "sold",
              "type": "bool"
            }
          ],
          "name": "",
          "type": "tuple[]"
        }
      ],
      "payable": false,
      "stateMutability": "view",
      "type": "function"
    },
    {
      "constant": false,
      "inputs": [
        {
          "name": "_id",
          "type": "uint256"
        }
      ],
      "name": "buyNft",
      "outputs": [],
      "payable": false,
      "stateMutability": "nonpayable",
      "type": "function"
    },
    {
      "constant": false,
      "inputs": [
        {
          "name": "_id",
          "type": "uint256"
        }
      ],
      "name": "removeNft",
      "outputs": [],
      "payable": false,
      "stateMutability": "nonpayable",
      "type": "function"
    }
  ],
  "bytecode": "0x60806040523480156200001157600080fd5b5060405160808062001bbc833981018060405262000033919081019062000133565b8360018190555082600260006101000a81548173ffffffffffffffffffffffffffffffffffffffff021916908373ffffffffffffffffffffffffffffffffffffffff16021790555081600360006101000a81548173ffffffffffffffffffffffffffffffffffffffff021916908373ffffffffffffffffffffffffffffffffffffffff16021790555080600460006101000a81548173ffffffffffffffffffffffffffffffffffffffff021916908373ffffffffffffffffffffffffffffffffffffffff16021790555050505050620001dd565b60006200011582516200019f565b905092915050565b60006200012b8251620001d3565b905092915050565b600080600080608085870312156200014a57600080fd5b60006200015a878288016200011d565b94505060206200016d8782880162000107565b9350506040620001808782880162000107565b9250506060620001938782880162000107565b91505092959194509250565b6000620001ac82620001b3565b9050919050565b600073ffffffffffffffffffffffffffffffffffffffff82169050919050565b6000819050919050565b6119cf80620001ed6000396000f3fe608060405234801561001057600080fd5b506004361061007d5760003560e01c8063cfd5a2ff1161005b578063cfd5a2ff146100d8578063d8cb55e3146100f4578063e0e3257f14610112578063fc0c546a146101465761007d565b8063243adbdd146100825780633580bf271461009e57806347ccca02146100ba575b600080fd5b61009c600480360361009791908101906110f7565b610164565b005b6100b860048036036100b391908101906110f7565b610750565b005b6100c261088e565b6040516100cf9190611603565b60405180910390f35b6100f260048036036100ed9190810190611149565b6108b4565b005b6100fc610b6f565b60405161010991906115e1565b60405180910390f35b61012c600480360361012791908101906110f7565b610d6c565b60405161013d959493929190611756565b60405180910390f35b61014e610dcf565b60405161015b919061161e565b60405180910390f35b80336005600083815260200190815260200160002060040160009054906101000a900460ff16156101ca576040517f08c379a00000000000000000000000000000000000000000000000000000000081526004016101c19061165b565b60405180910390fd5b6005600083815260200190815260200160002060010160009054906101000a900473ffffffffffffffffffffffffffffffffffffffff1673ffffffffffffffffffffffffffffffffffffffff168173ffffffffffffffffffffffffffffffffffffffff16141561026f576040517f08c379a00000000000000000000000000000000000000000000000000000000081526004016102669061167b565b60405180910390fd5b60006005600085815260200190815260200160002060030154905060006102b56103e86102a760015485610df590919063ffffffff16565b610e6590919063ffffffff16565b90506102ca8183610eaf90919063ffffffff16565b600360009054906101000a900473ffffffffffffffffffffffffffffffffffffffff1673ffffffffffffffffffffffffffffffffffffffff166370a08231336040518263ffffffff1660e01b81526004016103259190611545565b60206040518083038186803b15801561033d57600080fd5b505afa158015610351573d6000803e3d6000fd5b505050506040513d601f19601f820116820180604052506103759190810190611120565b10156103b6576040517f08c379a00000000000000000000000000000000000000000000000000000000081526004016103ad906116db565b60405180910390fd5b600360009054906101000a900473ffffffffffffffffffffffffffffffffffffffff1673ffffffffffffffffffffffffffffffffffffffff166323b872dd336005600089815260200190815260200160002060010160009054906101000a900473ffffffffffffffffffffffffffffffffffffffff16856040518463ffffffff1660e01b815260040161044b93929190611560565b602060405180830381600087803b15801561046557600080fd5b505af1158015610479573d6000803e3d6000fd5b505050506040513d601f19601f8201168201806040525061049d91908101906110ce565b50600360009054906101000a900473ffffffffffffffffffffffffffffffffffffffff1673ffffffffffffffffffffffffffffffffffffffff166323b872dd33600260009054906101000a900473ffffffffffffffffffffffffffffffffffffffff16846040518463ffffffff1660e01b815260040161051f93929190611560565b602060405180830381600087803b15801561053957600080fd5b505af115801561054d573d6000803e3d6000fd5b505050506040513d601f19601f8201168201806040525061057191908101906110ce565b5060016005600087815260200190815260200160002060040160006101000a81548160ff021916908315150217905550600460009054906101000a900473ffffffffffffffffffffffffffffffffffffffff1673ffffffffffffffffffffffffffffffffffffffff1663b88d4fde6005600088815260200190815260200160002060010160009054906101000a900473ffffffffffffffffffffffffffffffffffffffff1633600560008a8152602001908152602001600020600201546040518463ffffffff1660e01b815260040161064c93929190611597565b600060405180830381600087803b15801561066657600080fd5b505af115801561067a573d6000803e3d6000fd5b505050503373ffffffffffffffffffffffffffffffffffffffff166005600087815260200190815260200160002060010160009054906101000a900473ffffffffffffffffffffffffffffffffffffffff1673ffffffffffffffffffffffffffffffffffffffff167f5b3fa64172584174917e1b3a206fe9c25d3120cf366b3d05ad5b6183a15cf78987600560008a815260200190815260200160002060020154600560008b815260200190815260200160002060030154604051610741939291906117a9565b60405180910390a35050505050565b80338073ffffffffffffffffffffffffffffffffffffffff166005600084815260200190815260200160002060010160009054906101000a900473ffffffffffffffffffffffffffffffffffffffff1673ffffffffffffffffffffffffffffffffffffffff16146107f6576040517f08c379a00000000000000000000000000000000000000000000000000000000081526004016107ed906116fb565b60405180910390fd5b6005600083815260200190815260200160002060040160009054906101000a900460ff161561085a576040517f08c379a00000000000000000000000000000000000000000000000000000000081526004016108519061165b565b60405180910390fd5b60016005600085815260200190815260200160002060040160006101000a81548160ff021916908315150217905550505050565b600460009054906101000a900473ffffffffffffffffffffffffffffffffffffffff1681565b81338073ffffffffffffffffffffffffffffffffffffffff16600460009054906101000a900473ffffffffffffffffffffffffffffffffffffffff1673ffffffffffffffffffffffffffffffffffffffff16636352211e846040518263ffffffff1660e01b8152600401610928919061173b565b60206040518083038186803b15801561094057600080fd5b505afa158015610954573d6000803e3d6000fd5b505050506040513d601f19601f8201168201806040525061097891908101906110a5565b73ffffffffffffffffffffffffffffffffffffffff16146109ce576040517f08c379a00000000000000000000000000000000000000000000000000000000081526004016109c5906116fb565b60405180910390fd5b6109d782610f04565b15610a17576040517f08c379a0000000000000000000000000000000000000000000000000000000008152600401610a0e9061171b565b60405180910390fd5b610a216000610f89565b6040518060a00160405280610a366000610f9f565b81526020013373ffffffffffffffffffffffffffffffffffffffff1681526020018581526020018481526020016000151581525060056000610a786000610f9f565b81526020019081526020016000206000820151816000015560208201518160010160006101000a81548173ffffffffffffffffffffffffffffffffffffffff021916908373ffffffffffffffffffffffffffffffffffffffff160217905550604082015181600201556060820151816003015560808201518160040160006101000a81548160ff0219169083151502179055509050503373ffffffffffffffffffffffffffffffffffffffff167fb233dd05ed21346e144167b35a6213bcf04768dbdffdc8339e8b027b94b9f305610b506000610f9f565b8686604051610b61939291906117a9565b60405180910390a250505050565b606060006060610b7f6000610f9f565b604051908082528060200260200182016040528015610bb857816020015b610ba561100e565b815260200190600190039081610b9d5790505b5090506000600190505b610bcc6000610f9f565b8111610cdc57600015156005600083815260200190815260200160002060040160009054906101000a900460ff1615151415610ccf57600560008281526020019081526020016000206040518060a0016040529081600082015481526020016001820160009054906101000a900473ffffffffffffffffffffffffffffffffffffffff1673ffffffffffffffffffffffffffffffffffffffff1673ffffffffffffffffffffffffffffffffffffffff16815260200160028201548152602001600382015481526020016004820160009054906101000a900460ff161515151581525050828481518110610cbb57fe5b602002602001018190525082806001019350505b8080600101915050610bc2565b50606082604051908082528060200260200182016040528015610d1957816020015b610d0661100e565b815260200190600190039081610cfe5790505b50905060008090505b83811015610d6257828181518110610d3657fe5b6020026020010151828281518110610d4a57fe5b60200260200101819052508080600101915050610d22565b5080935050505090565b60056020528060005260406000206000915090508060000154908060010160009054906101000a900473ffffffffffffffffffffffffffffffffffffffff16908060020154908060030154908060040160009054906101000a900460ff16905085565b600360009054906101000a900473ffffffffffffffffffffffffffffffffffffffff1681565b600080831415610e085760009050610e5f565b6000828402905082848281610e1957fe5b0414610e5a576040517f08c379a0000000000000000000000000000000000000000000000000000000008152600401610e51906116bb565b60405180910390fd5b809150505b92915050565b6000610ea783836040518060400160405280601a81526020017f536166654d6174683a206469766973696f6e206279207a65726f000000000000815250610fad565b905092915050565b600080828401905083811015610efa576040517f08c379a0000000000000000000000000000000000000000000000000000000008152600401610ef19061169b565b60405180910390fd5b8091505092915050565b600080600190505b610f166000610f9f565b8111610f7e576005600082815260200190815260200160002060040160009054906101000a900460ff16158015610f625750826005600083815260200190815260200160002060020154145b15610f71576001915050610f84565b8080600101915050610f0c565b50600090505b919050565b6001816000016000828254019250508190555050565b600081600001549050919050565b60008083118290610ff4576040517f08c379a0000000000000000000000000000000000000000000000000000000008152600401610feb9190611639565b60405180910390fd5b50600083858161100057fe5b049050809150509392505050565b6040518060a0016040528060008152602001600073ffffffffffffffffffffffffffffffffffffffff16815260200160008152602001600081526020016000151581525090565b6000611061825161188b565b905092915050565b6000611075825161189d565b905092915050565b600061108982356118c9565b905092915050565b600061109d82516118c9565b905092915050565b6000602082840312156110b757600080fd5b60006110c584828501611055565b91505092915050565b6000602082840312156110e057600080fd5b60006110ee84828501611069565b91505092915050565b60006020828403121561110957600080fd5b60006111178482850161107d565b91505092915050565b60006020828403121561113257600080fd5b600061114084828501611091565b91505092915050565b6000806040838503121561115c57600080fd5b600061116a8582860161107d565b925050602061117b8582860161107d565b9150509250929050565b600061119183836114bf565b60a08301905092915050565b6111a6816118d3565b82525050565b6111b581611843565b82525050565b6111c481611843565b82525050565b60006111d5826117ed565b6111df8185611810565b93506111ea836117e0565b60005b8281101561121857611200868351611185565b955061120b82611803565b91506001810190506111ed565b50849250505092915050565b61122d81611855565b82525050565b61123c81611855565b82525050565b61124b816118e5565b82525050565b61125a81611909565b82525050565b600061126b826117f8565b6112758185611832565b9350611285818560208601611951565b61128e81611984565b840191505092915050565b60006112a6600e83611832565b91507f416c726561647920736f6c6421210000000000000000000000000000000000006000830152602082019050919050565b60006112e6601983611832565b91507f596f752063616e6e6f742062757920796f7572204e46542121000000000000006000830152602082019050919050565b6000611326601b83611832565b91507f536166654d6174683a206164646974696f6e206f766572666c6f7700000000006000830152602082019050919050565b6000611366602183611832565b91507f536166654d6174683a206d756c7469706c69636174696f6e206f766572666c6f60008301527f77000000000000000000000000000000000000000000000000000000000000006020830152604082019050919050565b60006113cc601683611832565b91507f4e6f7420656e6f7567682055525520546f6b656e2121000000000000000000006000830152602082019050919050565b600061140c600083611821565b9150600082019050919050565b6000611426601883611832565b91507f596f7520646f6e2774206f776e2074686973204e4654212100000000000000006000830152602082019050919050565b6000611466602583611832565b91507f54686973204e465420697320616c726561647920616464656420746f204d617260008301527f6b657421210000000000000000000000000000000000000000000000000000006020830152604082019050919050565b60a0820160008201516114d56000850182611527565b5060208201516114e860208501826111ac565b5060408201516114fb6040850182611527565b50606082015161150e6060850182611527565b5060808201516115216080850182611224565b50505050565b61153081611881565b82525050565b61153f81611881565b82525050565b600060208201905061155a600083018461119d565b92915050565b6000606082019050611575600083018661119d565b61158260208301856111bb565b61158f6040830184611536565b949350505050565b60006080820190506115ac60008301866111bb565b6115b9602083018561119d565b6115c66040830184611536565b81810360608301526115d7816113ff565b9050949350505050565b600060208201905081810360008301526115fb81846111ca565b905092915050565b60006020820190506116186000830184611242565b92915050565b60006020820190506116336000830184611251565b92915050565b600060208201905081810360008301526116538184611260565b905092915050565b6000602082019050818103600083015261167481611299565b9050919050565b60006020820190508181036000830152611694816112d9565b9050919050565b600060208201905081810360008301526116b481611319565b9050919050565b600060208201905081810360008301526116d481611359565b9050919050565b600060208201905081810360008301526116f4816113bf565b9050919050565b6000602082019050818103600083015261171481611419565b9050919050565b6000602082019050818103600083015261173481611459565b9050919050565b60006020820190506117506000830184611536565b92915050565b600060a08201905061176b6000830188611536565b61177860208301876111bb565b6117856040830186611536565b6117926060830185611536565b61179f6080830184611233565b9695505050505050565b60006060820190506117be6000830186611536565b6117cb6020830185611536565b6117d86040830184611536565b949350505050565b6000602082019050919050565b600081519050919050565b600081519050919050565b6000602082019050919050565b600082825260208201905092915050565b600082825260208201905092915050565b600082825260208201905092915050565b600061184e82611861565b9050919050565b60008115159050919050565b600073ffffffffffffffffffffffffffffffffffffffff82169050919050565b6000819050919050565b6000611896826118a9565b9050919050565b60008115159050919050565b600073ffffffffffffffffffffffffffffffffffffffff82169050919050565b6000819050919050565b60006118de8261192d565b9050919050565b60006118f0826118f7565b9050919050565b600061190282611861565b9050919050565b60006119148261191b565b9050919050565b600061192682611861565b9050919050565b60006119388261193f565b9050919050565b600061194a82611861565b9050919050565b60005b8381101561196f578082015181840152602081019050611954565b8381111561197e576000848401525b50505050565b6000601f19601f830116905091905056fea265627a7a72305820c169f05778a4236987bb94a428005afd4f16ee9b1437ca8f77a1c0de1c78d5526c6578706572696d656e74616cf50037",
  "source": "// SPDX-License-Identifier: MIT\r\npragma solidity >=0.4.22 <0.9.0;\r\npragma experimental ABIEncoderV2;\r\n\r\nimport \"../node_modules/@klaytn/contracts/token/KIP17/IKIP17.sol\";\r\nimport \"../node_modules/@klaytn/contracts/token/KIP17/IKIP17Receiver.sol\";\r\nimport \"../node_modules/@klaytn/contracts/token/KIP7/IKIP7.sol\";\r\nimport \"../node_modules/@klaytn/contracts/drafts/Counters.sol\";\r\nimport \"../node_modules/@klaytn/contracts/math/SafeMath.sol\";\r\n\r\ncontract NFTMarket{\r\n  using Counters for Counters.Counter;\r\n  using SafeMath for uint256;\r\n  Counters.Counter private _Ids;\r\n\r\n  uint256 fee;\r\n  address feeTo;\r\n  IKIP7 public token;\r\n  IKIP17 public nft;\r\n\r\n  struct NftOnSale {\r\n    uint256 id;\r\n    address seller;\r\n    uint256 tokenId;\r\n    uint256 price;\r\n    bool sold;\r\n  }\r\n\r\n  mapping(uint256 => NftOnSale) public onSales;\r\n\r\n  event Add(uint256 id, address indexed seller, uint256 tokenId, uint256 price);\r\n  event Buy(uint256 id, address indexed seller, address indexed buyer, uint256 tokenId, uint256 price);\r\n  \r\n  constructor(uint256 _fee, address _feeTo, address tokenAddress, address nftAddress) public {\r\n    fee = _fee;\r\n    feeTo = _feeTo;\r\n    token = IKIP7(tokenAddress);\r\n    nft = IKIP17(nftAddress);\r\n  }\r\n\r\n  modifier addCheck(uint256 _tokenId, address seller) {\r\n    require(nft.ownerOf(_tokenId) == seller, \"You don't own this NFT!!\");\r\n    require(!_isAdded(_tokenId), \"This NFT is already added to Market!!\");\r\n    _;\r\n  }\r\n\r\n  function _isAdded(uint256 _tokenId) internal view returns (bool){      \r\n    for(uint i = 1 ; i <= _Ids.current(); i++){\r\n        if(!onSales[i].sold && onSales[i].tokenId == _tokenId){\r\n            return true;\r\n        }\r\n    }\r\n    return false;\r\n  }\r\n  \r\n  //\r\n  function addNftToMarket(uint256 _tokenId, uint256 _price) addCheck( _tokenId, msg.sender) external {\r\n    _Ids.increment();\r\n\r\n    onSales[_Ids.current()] = NftOnSale(_Ids.current(), msg.sender, _tokenId, _price, false);\r\n\r\n    emit Add(_Ids.current(), msg.sender, _tokenId, _price);\r\n  }\r\n\r\n  function getNfts() external view returns(NftOnSale[] memory){\r\n    uint count;\r\n    NftOnSale[] memory checkList = new NftOnSale[](_Ids.current());\r\n    for(uint i = 1 ; i <= _Ids.current(); i++){\r\n        if(onSales[i].sold == false){\r\n            checkList[count] = onSales[i];\r\n            count++;\r\n        }\r\n    }\r\n    NftOnSale[] memory filteredCheckList = new NftOnSale[](count);\r\n    for(uint i = 0; i<count; i++){\r\n        filteredCheckList[i] = checkList[i];\r\n    }\r\n    return filteredCheckList;\r\n  }\r\n  \r\n  modifier buyCheck(uint256 _id, address buyer) {\r\n    require(!onSales[_id].sold, \"Already sold!!\");\r\n    require(buyer != onSales[_id].seller, \"You cannot buy your NFT!!\");\r\n    _;\r\n  }\r\n  // // \r\n  function buyNft(uint256 _id) buyCheck(_id, msg.sender) external {\r\n    uint256 price = onSales[_id].price;\r\n    uint256 feePrice = price.mul(fee).div(1000);\r\n    require(token.balanceOf(msg.sender) >= price.add(feePrice), \"Not enough URU Token!!\");\r\n\r\n    token.transferFrom(msg.sender, onSales[_id].seller, price);\r\n    token.transferFrom(msg.sender, feeTo, feePrice);\r\n\r\n    onSales[_id].sold = true;\r\n    nft.safeTransferFrom(onSales[_id].seller, msg.sender, onSales[_id].tokenId, \"\");\r\n    \r\n    emit Buy(_id, onSales[_id].seller, msg.sender, onSales[_id].tokenId, onSales[_id].price);\r\n  }\r\n\r\n  modifier removeCheck(uint256 _id, address seller) {\r\n    require(onSales[_id].seller == seller, \"You don't own this NFT!!\");\r\n    require(!onSales[_id].sold, \"Already sold!!\");\r\n    _;\r\n  }\r\n\r\n  //   \r\n  function removeNft(uint256 _id) removeCheck(_id, msg.sender) external {\r\n    onSales[_id].sold = true;\r\n  }\r\n}",
  "sourcePath": "D:\\GitHub\\beb-03-DND\\contract\\contracts\\NFTMarket.sol",
  "compiler": {
    "name": "solc",
    "version": "0.5.6+commit.b259423e.Emscripten.clang"
  },
  "schemaVersion": "3.4.7",
  "updatedAt": "2022-05-31T01:50:18.914Z",
  "networkType": "ethereum",
  "devdoc": {
    "methods": {}
  },
  "userdoc": {
    "methods": {}
  }
}